:020000041004E6
:1008000000600020F92F0410DD240410DF24041000
:10081000AA5555AA45554C420000000000000000B2
:10082000000000000000000000000000E1240410AF
:100830000000000000000000AB110410E3240410CD
:100840002927041083170410000000000000000096
:100850002B270410471B04102D2704102F290410E8
:100860000000000000000000000000000000000088
:10087000000000008B2D0410A32F0410AF2F0410D4
:1008800000000000BB220410CB240410DB24041061
:100890002F270410632704100730041005300410BC
:1008A0000000000000000000000000000000000048
:1008B0000000000000000000000000000000000038
:1008C00078B583B001245548017801220A430270AB
:1008D00000265348066000F0D5F96946088068464E
:1008E000008800280DD100F0CDF9694608806846DF
:1008F0000088002805D100F0C5F9694608806846DF
:10090000008868460088202841DB68460088012569
:10091000400530D4684600F015FA68464178090170
:1009200080780843122800DA00253E480068000756
:100930000BD4002D1FD03C4821047E4A92B20A43BA
:10094000826082680A4016D0FBE73748C2687A495D
:100950000B689A1A283A12021212002A0BDD002D97
:1009600007D02204734B9BB2134383608368134008
:10097000FCD1096801607148047000F03AFABFF3D5
:100980004F8F6F486F490860BFF34F8FFEE701201C
:1009900004B070BD10B400220021A04804E00B0098
:1009A000415C5918491CC9B2435C002BF7D1CB1CE0
:1009B000202B12DA022343542123441863700823A6
:1009C000A3704318DA70964A80235B02401880B205
:1009D0001843106010681840FCD110BC704770B408
:1009E000002100238D4A04E01C00D35CE3185B1C4B
:1009F000DBB2D45C002CF7D102253524DE1C202E7E
:100A000005DAD554D6187470B070D218D170494A2E
:100A1000157054709070D17070BC70470800204001
:100A200014000020C00000200400004870B58AB007
:100A300005000C0003A800BF86A11C2200F0FEF9EF
:100A4000684600F07FF9002D5AD003A84421817335
:100A500074490A78012313430B704C21C172202181
:100A60000172B22141745B2101756F4A936B6F492A
:100A70001D0C8D4209D1C57D8F262E40C675C57DC2
:100A80001B0170261E402E43C675536B1D0C8D42F4
:100A900009D14579CF262E40467145791B01302674
:100AA0001E402E4346711268130C8B4208D1C17D43
:100AB000FC230B40C375C17D9207920F0A43C27598
:100AC000C17AFB220A40C27269464A7812018D78C7
:100AD0001543112D06DDC17D04220A43C275C07D78
:100AE000FFF77DFF4E488021490203AA92B20A43D4
:100AF000026002680A40FCD1112D01DDFFF74AFFB8
:100B0000114881890029FBD00121818117210180B1
:100B100000214160002C08D0414841681022436800
:100B2000134010240C40A342F9D0414841490860C9
:100B30000AB070BD9C000020180000200C000020AE
:100B40000400FA050CED00E00C001048F8B5082090
:100B500039490880C02000043849394B1A680A40D6
:100B600002431A60C02212061C682402240A14439D
:100B70001C60344B1C68FF25AC43C02525431D6019
:100B8000040A314D1E682E4026431E605E68FF2712
:100B9000BE43C02737435F605E682E4026435E60D9
:100BA0005E680E405E605E683602360A16435E601E
:100BB000DE682E402643DE60DE680E400643DE60BF
:100BC000DE683602360A1643DE601E692E40264372
:100BD0001E611E690E4006431E611E693602360AFA
:100BE00016431E615E69FF27BE43C02737435F611E
:100BF0005E6935402C435C615C6921400843586163
:100C000058690002000A02435A6101210120FFF7DE
:100C10000DFF0E480E49086062B6F1BD5C00002071
:100C20000C00004808002040B007001055AA000042
:100C3000CCBCECFC1400002004001040FFFF00FFBF
:100C400020ED00E000E400E0FF00FFFF66000E0082
:100C500020009040023F00023E30023C20023B4C0C
:100C6000023A400239B202345B02350B0000000048
:100C7000304A0129116802D108431060704781434E
:100C8000116070472C4802782C4801880020002A07
:100C900044D109220A40092A00D1202011220A4009
:100CA000112A02D102004020104321220A40212AA9
:100CB00002D102008020104341220A40412A03D180
:100CC000020080204000104381220A40812A03D183
:100CD0000200802080001043FF22921C13000B4072
:100CE000934203D102008020C0001043144A130035
:100CF0000B40934203D102008020000110430522E3
:100D00000A40052A02D10200102010438907890FEA
:100D100003290ED10100082008437047022A01D19F
:100D200001207047042A01D102207047082A00D10F
:100D300004207047200090400800904008001048B0
:100D4000010400000F21114A13681B090B40437076
:100D5000136819408170D16841600D4A914208D1F1
:100D60000C4909680C4A914201D1042102E0022198
:100D700000E0012101704178002901D10121417079
:100D800006490988491C8900816070471C00904011
:100D900041A000021C00001044A000F2140010400A
:100DA000EFF31482EFF30981002080F31488BFF37E
:100DB0006F8FF0B543464C4655465E466746F8B4DD
:100DC000164CEFF30883236006B4154C2068154CCD
:100DD0002060154C2068154C2060154C2068154C7F
:100DE0002060154C276800202060BFF34F8F30BF74
:100DF00027600A4C246884F3088882B003BCF8BCDE
:100E00009846A146AA46B346BC46F0BC04BC80F353
:100E1000098881F31488BFF36F8F10470800002002
:100E200004ED00E0CC02002024ED00E0D002002020
:100E300000E200E0D40200200800204070B4103A24
:100E400003D378C9103A78C0FBD2530701D318C92D
:100E500018C001D508C908C0D20704D30B88038085
:100E6000891C801C002A01D50B78037070BC704768
:100E700080B51000DBB20A0000F0E9F880B5100080
:100E8000DBB20A006B2100F0BBF902BD1CB50C00FF
:100E9000012310226B21684600F0F6F968460078BD
:100EA000F3210140A0000C2202400A436846027070
:100EB000012310226B21C4E01CB50C000123102279
:100EC0006B21684600F0E0F9684600780007000FE3
:100ED0002101014368460170012310226B21B0E01B
:100EE0001CB50C00012311226B21684600F0CCF9DF
:100EF00068460078F121014060000E2202400A435A
:100F000068460270012311226B219AE01CB50C0087
:100F1000012311226B21684600F0B6F9684600787B
:100F20000007000F210101436846017001231122CF
:100F30006B2186E01CB50C00012312226B21684650
:100F400000F0A2F968460078BF210140A0014022CC
:100F50006FE01CB50C00022314226B21684600F0E0
:100F600093F9684601784906490E6208D2010A439E
:100F700002704178EF220A402101102319401143E9
:100F80004170022314226B215BE01CB50C0001238D
:100F900016226B21684600F077F968460078400613
:100FA000400EE101014368460170012316226B21C6
:100FB00047E080B508000623282248E01CB50C0055
:100FC000012301226B21684600F05EF96846007833
:100FD0008006800EA10101436846017001230122B1
:100FE0006B212EE080B5080001230F222FE01CB5F5
:100FF0000C00012312226B21684600F045F9684677
:101000000078FE210140E007C00F13E01CB50C0082
:101010000123122222E01CB50C00012312226B21B5
:10102000684600F031F968460078FB210140A000D5
:1010300004221040084369460870012312226B21E4
:10104000684600F0DDF816BD080001231E226B2162
:1010500000F01AF902BD0C0001231E226B21684624
:1010600000F012F969460978CA07D20F227016BD3E
:101070001CB50C00012318226B21684600F004F90E
:1010800068460078FD210140E009400008436946B8
:101090000870012318226B21684600F0B1F8012383
:1010A00062226B21684600F0EFF868460078E7217D
:1010B0000140E000182202400A4368460270012302
:1010C00062226B21FFF7BDFF1CB50C000123122229
:1010D0006B21684600F0D8F868460078EF2101409F
:1010E00020011022FFF7A5FF1CB50C0001231222DE
:1010F0006B21684600F0C8F868460078DF2101409F
:1011000060012022FFF795FF1CB50C00012313227C
:101110006B21684600F0B8F868460078DF2101408E
:101120006001202210400843694608700123132201
:10113000FFF785FF38B505000C0001236A465621EC
:10114000FFF796FE68460078BE210140E007C00F19
:101150000843A10140221140014368460170012368
:101160006A4656212800FFF789FE02212800FFF772
:1011700025FF01236A4617212800FFF779FE6846FC
:1011800000784006400E6108C901014368460170BD
:1011900001236A46172100F000F82800FFF76EFED1
:1011A00000212800FFF70AFF32BD704778B585B0EF
:1011B000040001219B48FFF75BFD102000900425EF
:1011C0006E4635710020B0717071684600F032F9DA
:1011D000202000903571684600F02CF902A800F03C
:1011E0001DFA012002A9087102948F4C200000F022
:1011F000BBF98E49200000F041FA002006B070BD16
:10120000F0B583B0050017001C000022684602807C
:101210004180828080214901C18089000181611C57
:101220004181814E300000F014FA300000F016FACF
:101230000128FAD06946300000F0F8F93900FFE7DC
:10124000300000F002FA200009D028002500040038
:101250002178300000F0F9F9641C6D1EF8D13000DF
:1012600000F00EFA03280CD080210903300000F0B2
:10127000FDF90028F3D06E49300000F0FFF900209E
:1012800000E0012003B0F0BDFFB583B000266C463E
:1012900026806846007C6080A68080204001E08037
:1012A000268101276781604D280000F0D2F92800CF
:1012B00000F0D4F90128FAD06946280000F0B6F908
:1012C0006846017D280000F0C0F9280000F0D8F938
:1012D000032838D03907280000F0C8F90028F4D0D6
:1012E0003907280000F0CAF927806846007C608032
:1012F000A6803803E080800020816846007E6081FF
:101300006946280000F092F9FE046846047E280031
:1013100000F0B6F9032816D03100280000F0A6F935
:101320000028F4D04249280000F0A8F9200007D096
:10133000039E280000F08BF93070761C641EF8D1F3
:10134000002007B0F0BD0120FBE7FFB583B0002609
:101350006C4626806846007C6080A68080277F01DE
:10136000E7802681022060812F4D280000F071F96E
:10137000280000F073F90128FAD06946280000F02F
:1013800055F96846818AFF20000208400004010EDA
:10139000280000F05AF96846818AC9B2280000F096
:1013A00054F9280000F06CF9032838D039042800DB
:1013B00000F05CF90028F4D03904280000F05EF950
:1013C000012020806846007C6080A680E780B8000D
:1013D00020816846007E60816946280000F026F979
:1013E000FE016846047E280000F04AF9032816D062
:1013F0003100280000F03AF90028F4D00C49280008
:1014000000F03CF9200007D0039E280000F01FF9EF
:101410003070761C641EF8D1002007B0F0BD0120AA
:10142000FBE70000010400000000A0407F809F73E4
:1014300000000810F8B4020011790B004848002998
:1014400004D101681468A143016006E0062904D1B3
:101450000023016814680C4304600024002516680A
:10146000E640F60755D5082C08DA866A0F27AF4004
:10147000BE431F00AF40374387624AE02600083E64
:10148000082E15D22600083EB6006F463E70C66A8A
:10149000B4466E4636780F27B7406646BE43B4461C
:1014A0006E4636781F00B74066463743C76230E065
:1014B0002600103E082E15D22600103EB6006F46BC
:1014C0003E70066BB4466E4636780F27B7406646C8
:1014D000BE43B4466E4636781F00B7406646374373
:1014E000076316E0182C14DB2600183EB6006F4682
:1014F0003E70868EB4466E4636780F27B7406646F5
:10150000BE43B4466E4636781F00B7406646374342
:101510008786641C2D1D1A2CA1DB11685379012BC1
:10152000836802D11943816001E08B4383601168B5
:101530009279012A426802D11143416001E08A4355
:101540004260F1BC704700210160017181714171FD
:101550007047044A012901D11060704750607047FC
:10156000040000403C00004030B504000D0020683D
:101570000121884320602068434901406879400385
:10158000C022D20102400A43226029683F48404AF3
:101590006B795B00D25A4A43801A3E4A91420AD282
:1015A000490000F096F8216830229143216061687B
:1015B00089B2120310E0384A91420FD24A00511802
:1015C00000F087F821683022914310220A432260FC
:1015D000616889B2802292020A4362606168890A66
:1015E0008902EA88114361602085206806218843CA
:1015F0002979490006220A4002432260287A0128FC
:10160000206803D108210143216002E008218843BA
:101610002060206801210143216030BD1F49016025
:10162000002101714171C180017270470B884A88A5
:1016300052001A438B881A43CB881A430B891A43EA
:101640004989C9031143C160704701747047007E26
:101650007047016880220A430260704700680106F3
:10166000C90F01D00120704702207047006BFFE7CF
:101670000140481E8041C043C00F704781637047DE
:1016800040690007800F7047FF9FFFFF0024F400B0
:101690001C000020A1860100811A060088130000AA
:1016A000F446002804D4494200F013F84042604751
:1016B0004042002905D45FD000F00BF84042494277
:1016C0006047494200F005F84942604703460B4332
:1016D000E6D40022030A8B420BD203098B4219D2B3
:1016E00043088B422ED2411A00D201465241104685
:1016F0007047FF2209023FD012068B4205D3121217
:1017000009028B4201D31212090203098B4219D339
:1017100000E0090AC3098B4201D3CB01C01A524130
:1017200083098B4201D38B01C01A524143098B427A
:1017300001D34B01C01A524103098B4201D30B0163
:10174000C01A5241C3088B4201D3CB00C01A524188
:1017500083088B4201D38B00C01A524143088B424D
:1017600001D34B00C01A5241884200D3401A524163
:10177000CFD201461046704708B500F001F808BD09
:101780007047704780B500210020FFF771FC0121F0
:101790000020FFF72CFC6946087069460020FFF71F
:1017A00035FC684600780028F7D10021FFF78CFC53
:1017B00001210020FFF798FC01210020FFF7A4FC85
:1017C00003210020FFF7B6FC01210020FFF7B2FB48
:1017D00001210020FFF7BDFB01210020FFF7D5FB11
:1017E00003210020FFF768FB03210020FFF78EFB99
:1017F00000210020FFF74AFB06210020FFF770FBC5
:1018000001210020FFF707FC01BD80B50221002067
:1018100000F031F90121002000F06DF900210020D5
:1018200000F053F90021002000F016F901210020FA
:1018300000F037F901BD80B51121002000F00AFA4F
:101840000121002000F090F90121002000F0A7F90B
:101850000121002000F036FA0121002000F04DFAAD
:101860000021002000F013FA0121002000F0D9F936
:1018700001BD80B50021002000F077FA0021002092
:1018800000F09BFA0121002000F0CAFA012100209B
:1018900000F00BFB0021002000F030FB4021002075
:1018A00000F07CFB8021002000F055FB002100208F
:1018B00000F0DAFA002000F044FA01BD10B5002073
:1018C00000F096FB012000F093FB022000F090FB5B
:1018D0005448FFF76BFC00F017F8534CE0780028F1
:1018E00001D0FFF7A8FFA078002801D0FFF7C1FFC3
:1018F0006078002801D0FFF788FF2078002801D009
:10190000FFF740FF10BD0000FEB5002669460E70CF
:1019100048A000F0B3FB69460020FFF763FB0127F6
:10192000414C424D684600786C2805D1280000F0F3
:10193000A5FB2770A77105E02800243000F09EFB6E
:101940002670A6716946002000F063F968460078A9
:10195000B32805D128004C3000F090FBE77004E07C
:101960002800703000F08AFBE6706946002000F025
:10197000DFF968460078BC2805D12800943000F0D3
:101980007DFBA77004E02800B83000F077FBA6705C
:101990006946002000F0C4F868460078402805D168
:1019A00067702800DC3000F069FB05E0842040000F
:1019B000281800F063FB667000218020FFF7C9FD46
:1019C0000A21292000F07EFB01218020FFF7C1FDC4
:1019D00064250A21292000F075FB00A9891C292013
:1019E00000F0A4FB124869468880684640888988D0
:1019F000884201D06D1EECD100218020FFF7A9FDA7
:101A00006846408869468988884204D10EA000F063
:101A100035FB277104E000BF0DA000F02FFB2671FD
:101A200003B0F0BD801A0600A4000020DC2A0410D8
:101A3000CCEA00005363616E20666F722073656E9E
:101A4000736F72733A0A0D004F4B0A0D00000000CD
:101A50004641494C0A0D00001CB50C0001236022D0
:101A60001E216846FFF710FC68460078FC21014003
:101A7000A007800F5DE01CB50C00012360221E2131
:101A80006846FFF701FC68460078F3210140A0009A
:101A90000C2202400A4368460270012360221E2184
:101AA0004EE01CB50C00012360221E216846FFF7A2
:101AB000EBFB684600784006400EE10101436846B2
:101AC0000170012360221E213AE01CB50C000123A5
:101AD00061221E216846FFF7D7FB68460078F9218E
:101AE00001406000062202400A436846027001235A
:101AF00061221E2124E01CB50C00012362221E215C
:101B00006846FFF7C1FB68460078EF2101402001DD
:101B100010221040084369460870012362220DE03C
:101B200080B5080001234F221E21FFF7ADFB02BD47
:101B30001040084369460870012360221E21684650
:101B4000FFF75EFB16BD704780B51000DBB20A00E0
:101B50005D21FFF799FB02BD80B51000DBB20A00E2
:101B60005D21FFF74DFB02BD1CB50C0001231022C7
:101B70005D216846FFF788FB00280FD16846007892
:101B8000FD210140600002221040084369460870B0
:101B9000012310225D216846FFF732FB16BD38B5E0
:101BA00005000C00012300AA521C1021FFF7CCFFF6
:101BB000002805D101236A4611212800FFF7C4FF40
:101BC000002810D1684640788F2101402001702202
:101BD00002400A4368464270012300AA521C1021A9
:101BE0002800FFF7B9FF002812D168460078FC21D1
:101BF0000140E008022210402207D30F03430B43A9
:101C00006846037001236A4611212800FFF7A4FFEC
:101C100032BD80B5080001230F225D21FFF734FBA0
:101C200002BD1CB50C0001230E225D216846FFF7A2
:101C30002BFB68460078FB210140A00004221040E5
:101C400008436946087001230E225D216846FFF7AC
:101C5000D7FA16BD1CB50C0001230E225D21684683
:101C6000FFF712FB002811D1684600787D21014062
:101C700060000222104008432109C901014368465F
:101C8000017001230E225D21FFF7BAFA16BD38B5A7
:101C900005000C0001236A460B21FFF755FF0028C1
:101CA0000FD168460078FB210140A00004221040BB
:101CB00008436946087001236A460B212800FFF794
:101CC0004BFF32BD38B505000C0001236A461121D7
:101CD000FFF73AFF00280FD168460078DF21014066
:101CE00060012022104008436946087001236A46BB
:101CF00011212800FFF730FF32BD38B505000C0078
:101D000001236A461121FFF71FFF00280FD1684603
:101D10000078BF210140A0014022104008436946DD
:101D2000087001236A4611212800FFF715FF32BD14
:101D300080B5080001230F225F21FFF7A5FA00F00C
:101D400005F980B5012320225F216846FFF79CFA40
:101D5000002801D0012002BD68460078802101439F
:101D60006846017001232022EDE01CB50C0015D05F
:101D7000012C13D0022C11D0032C0FD0042C0DD029
:101D8000052C0BD0062C09D0072C07D05A49FF226E
:101D9000F0320800583000F071F9FEE701231022FC
:101DA0005F216846FFF770FA002801D0012016BDB8
:101DB00068460078F82125E000001CB50C0014D01E
:101DC000082C12D0102C10D0182C0ED0202C0CD097
:101DD000282C0AD0302C08D0382C06D046496E4A20
:101DE0000800583000F04AF9FEE7012310225F2175
:101DF0006846FFF749FA002801D0012016BD684661
:101E00000078C72101400C4368460470012310226A
:101E10005F21FFF7F5F9401E8041C043C00F16BD9A
:101E20001CB50C00012C08D0200006D032496B4AAA
:101E30000800583000F022F9FEE7012320225F213C
:101E40006846FFF721FA002801D0012016BD684638
:101E50000078FB210140A000084369460870012377
:101E600020225F216846D4E71CB50C0008D0012C65
:101E700006D021495A4A0800583000F0FFF8FEE722
:101E8000012320225F216846FFF7FEF9002801D0D8
:101E9000012016BD684600784006400EE10101436E
:101EA0006846017001232022B2E71CB50C000DD05A
:101EB000012C0BD0022C09D0032C07D04949A322B6
:101EC00092000800583000F0D9F8FEE701232022E4
:101ED0005F216846FFF7D8F9002801D0012016BD20
:101EE00068460078FC2101400C43684604700123D9
:101EF00020228DE700000000B82D04101CB50C0056
:101F0000012C09D0200007D03649B32292000800E6
:101F1000583000F0B3F8FEE7012321225F21684624
:101F2000FFF7B2F9002801D0012016BD68460078FD
:101F3000FD21014060000843694608700123212209
:101F40005F21684665E75F21FFF75AF9401E80412F
:101F5000C043C00F02BD1CB50C0008D0802C06D0B9
:101F60002049214A0800583000F088F8FEE7012394
:101F700022225F216846FFF787F9002801D001205F
:101F800016BD684600784006400E0443684604705B
:101F9000012322223CE70000070200001CB50C00D0
:101FA00008D0402C06D00F49104A0800583000F0E5
:101FB00065F8FEE7012322225F216846FFF764F9F6
:101FC000002801D0012016BD68460078BF210140DD
:101FD0000C43684604700123222219E735020000F1
:101FE00061020000B82D04100E0300003903000048
:101FF0003EB5050001210120FEF73AFE012D03D078
:10200000022D04D1012003E08020C00100E008205F
:1020100000906846062101710021817101244471FC
:10202000FFF708FA012D03D0022D03D1012002E0B1
:10203000A00300E008200121FFF78BFA03B030BDB8
:1020400080B5012803D0022804D1012003E08020BC
:10205000C00100E008200021FFF77BFA01BD80B538
:10206000012803D0022804D1012003E08020C00110
:1020700000E008200121FFF76CFA01BD0EB4C0B5E5
:10208000020003A801900020009001AB0121044848
:1020900078440C3000F065F8029906B0084700BF9C
:1020A000430F00001CB5140002230A00C1B26846A9
:1020B000FFF74BF969460A781202497851182180D6
:1020C00040B216BDF2B584B0164D286800F0F6F89F
:1020D00006000F00144CC0C4083C286800F0EEF85D
:1020E00032003B0000F061F902AA03C2049800F03C
:1020F000F5F86A4603C202A803C806E0286800F0A3
:10210000DDF832003B0000F050F96A460CCA00F0DE
:10211000C3F9F3D32200083203C2002005B0F0BD9A
:10212000000000002C000020800000201CB50C00E6
:1021300000216A461180FF211031FFE7FFF7B2FF4F
:1021400069460988218016BD70B506000800002B7D
:1021500006D014001D002178B047641C6D1EFAD112
:1021600070BDF8B588B0029000910392019309E028
:102170000123039A00990298FFF7E6FF0090039865
:10218000401C039003980078002821D02528EFD127
:10219000039840780399891C03910100252812D0E7
:1021A000582867D0632815D064281BD0692819D017
:1021B0006F285FD0702864D073286AD0752859D0F2
:1021C000782857D0DEE70098029A90470090D9E728
:1021D00009B0F0BD019800680168001D019A106007
:1021E000C9B2F0E7019800680468001D0199086011
:1021F000002C04D52D210098029A9047009064206D
:102200006F2801D1082506E020210143782901D05B
:102210000A2500E010250B272600642803D1002C96
:1022200001D571420E0004007F1E04973000290082
:10223000FFF74FFA3031C8B23A2802DB200051389C
:10224000091805A8C0190490017030002900FFF793
:1022500040FA060001D0002FE6DC049C00980B2118
:10226000CD1BB3D0029E2178B047641C6D1EFAD1FD
:102270000296ABE7019909680C68091D019A116083
:10228000BEE7019800680468001D01990860782085
:10229000B6E7019800680468001D019908602000F5
:1022A00000F014F90500009890D0029E2178B04704
:1022B000641C6D1EFAD1029688E770470100422225
:1022C0001201D21E004207D002D4521E0018FCD5C3
:1022D000C10A400512058918704700000100EED5BB
:1022E0004042F446FFF7EBFF0122D207114360475B
:1022F0008B4200D1824205D98446100062468C464A
:1023000019006346DF184C18640D7F0D3AD0661C27
:10231000760537D0E61B352E34DCDB022B43DB0A97
:102320000C0DC9022943C912202E0DDB1700203ED7
:1023300006D01F00F741F3405F400026012A774195
:10234000C01871410DD217E01700F741F240574015
:10235000F3415A40B340F3405A4000268018594197
:102360000AD3A21C52050FD0C207012F72411700D9
:102370004008CB0718434908641C24054208AF41B4
:1023800070416141F0BC7047641C21050020F9E7F1
:102390006B4010E06B40ABE7F742F3D1E943F1E764
:1023A0002442EFD100200021ECE7F0B40125ED0735
:1023B0000F005F40EED40C00871A9C4105D2C01B71
:1023C000A141D219634169406B40AE0ADF184C1835
:1023D000F442E1D2640D7F0DE2D0E61B362ED1DC53
:1023E000DB022B43DB0AA4460C0DC9022943C90AB0
:1023F000012E28DC04D1D6075208DF073A435B08D8
:10240000EF0A76429041994114D039423BD1B61936
:1024100040414941761C394204D1761C001849419B
:102420003942FAD0B9436746B74208D9A41B2405FC
:102430002143A7E70042EAD13642E8D1A2E7E40A05
:10244000E10700209EE7202E0BDD203E1F00F34019
:10245000F7415F40012A002257417E429841914155
:102460000BE01700F741F2405740F3415A40B340A8
:10247000F3405A407E42904199410A0303D2641EC0
:10248000B619404149410027641E24054208AE4167
:1024900078416141F0BC704730B4012464054D00BF
:1024A000EC420BD85D00EC4208D80C001C436400E1
:1024B0000443144304D2994200D1904230BC704787
:1024C000FCD08B42FAD18242F8E77047431C017876
:1024D000401C0942FBD1C01A704770477047FEE7A5
:1024E0007047F0B583B083480021465E8248445E61
:1024F0008248455E824FB868401CB860B8680F21BA
:10250000C943884201D30020B860B8686421FFF74E
:10251000E0F8002900D0C1E00621380000F008F9F9
:1025200039000020FEF745FD7648007800284FD19D
:10253000385E00F027F90100734800F02EF9734966
:1025400000F083F9724900F080F900F0D3F900211E
:10255000795E002902DD6F49088003E080B24142C4
:102560006C4801800220385E00F00CF901006648DA
:1025700000F013F9654900F068F9654900F065F964
:1025800000F0B8F90221795E002902DD6249088075
:1025900003E080B24142604801800420385E00F0D0
:1025A000F1F80100584800F0F8F8584900F04DF9EA
:1025B000574900F04AF900F09DF90421795E00299D
:1025C00002DD5649088003E080B241425348018051
:1025D0005048008802905048008801904F48008879
:1025E000009048480078002834D10298361836B256
:1025F0000198241824B200982D182DB2484886421C
:1026000003DA844201DA854248DB42480088361A00
:1026100036B241480088241A24B2404800882D1A56
:102620002DB230000A21FFF751F8401C39490880CB
:1026300020000A21FFF74AF8401C3749088028008B
:102640000A21FFF743F8401C3449088001202D4936
:10265000087023E02B48017801291FD12D490988F2
:10266000761A36B22C490988641A24B22B49098893
:102670006D1A2DB2002E0BD50021002C06D5002D91
:102680000E460C460AD50025017007E0002602E040
:10269000002C00D50024002D00D5002515490E8002
:1026A00002981C49088014490C8001981A49088036
:1026B00012490D80009819490880B868C82149005E
:1026C000FFF707F8002913D128000A21FEF7FEFFC3
:1026D00005B220000A21FEF7F9FF04B230000A21FA
:1026E000FEF7F4FF01B22B0022000E48FFF7C6FCF4
:1026F00003B0F0BD94000020960000209800002058
:1027000024000020DC0200200000744200007A4413
:10271000000020419A000020D8020020DA020020A8
:10272000E9030000E02E04107047704770477047BF
:102730000022FFE71300103906D330B4140015004F
:1027400010393CC0FCD230BC490700D30CC000D5C6
:1027500004C0890002D30280801C002900D50270C9
:10276000704770479D2102000AD002D4491E92187A
:10277000FCD5C905100A1206524100D3012A48416E
:10278000704700009D210200EED55242F446FFF74B
:10279000EBFF0122D2071043604730B405004D40E3
:1027A0000122D20715404B180418240E2ED01B0E00
:1027B00032D0FF2C34D0FF2B3AD0E41800020902AB
:1027C00010431143000A090A9446C2B24A43000A60
:1027D000C3B24B43000A4843110A5B181A43D2B2F2
:1027E000190A091801D44918641E080A7F3C23DB22
:1027F000FE2C08DAE405090611436346994160415D
:10280000284330BC7047FF20C005F9E728001B0EA5
:10281000FF2BF6D1D043F4E72800FF2CF1D1F9E7E4
:102820004002F7D1FF2B01D14902F3D1E005E7E7E0
:10283000D8054902E4D0EDE743020020641CDFD153
:102840005B129B1CDCD9D805DAE730B405004D409B
:102850000122D20715404B180418240E28D01B0E55
:102860002FD0FF2C34D0FF2B37D0E41A00020902FE
:102870001043114343084808D10D1B1A02D2641EAD
:10288000DB181B18DB18834200D31B1A4941F9D30C
:102890007F3426DDFE2C08DAE4054808C907194311
:1028A00091416041284330BC7047FF20C005F9E7E3
:1028B00028001B0E03D0FF2BF5D14902F3D0D043E3
:1028C000F1E7FF2C01D14002F9D1FF20C005E9E773
:1028D0004002F4D1FF2BF8D1F1E728004902E2D001
:1028E000EDE70B0200202442DCD15B129B1CD9D9FE
:1028F000D805D7E70122D2070118090E7F3910D475
:1029000049421F310FD4001805D2C0011043C840FE
:1029100000D5D0437047C0011043C84005D44042A1
:102920007047002070470042F3D510007047704791
:1029300060490028086803D0012202430A607047FA
:102940000122904308607047F0B50400216801251A
:10295000594E5A487269D2082A4001D1090100E053
:10296000C900FEF7B6FEC10931810904490A401ABF
:10297000401C400881B23F2902DD3F388006800EAE
:10298000307360209F21327C0A4023795B01034031
:102990001343337432781140627952011040084376
:1029A00030700821F720327C0240A379DB00082731
:1029B0001F401743377432781040A279D20011407B
:1029C00001433170E179002907D1FD20317C0140BC
:1029D00031743178084030701CE002200229317CCB
:1029E0000BD101433174FB21327C0A4032743278BE
:1029F00010433070307801400BE001433174042102
:102A0000327C0423134333743278104330703078AF
:102A10000143317070692A490140207A2840400200
:102A200008437061706927490140207A40082840B6
:102A3000000208437061706923490140607A2840B0
:102A4000800308437061706920490140607A400842
:102A50000540E803084370611020EF21327C0A40F2
:102A6000A37A1B0103401343337432781140A27AD6
:102A70001201104008433070F0BDC005C00D14496C
:102A80000880704701001348002901D5006800E064
:102A9000808AFFE70140481E8041C043C00F704755
:102AA0000D490A78C7231340C000382202401A4358
:102AB0000A707047300030401C0030400000127A2D
:102AC000FFFDFFFFFFFEFFFFFFBFFFFFFF7FFFFFD9
:102AD0000000304004003040340030402D2041637D
:102AE00063656C65726F6D6574657220616E6420DC
:102AF0004779726F73636F70653A204F4B0A0D0010
:102B00002D20416363656C65726F6D65746572201D
:102B1000616E64204779726F73636F70653A204607
:102B200041494C0A0D0000002D20507265737375E9
:102B3000726520616E642054656D70657261747594
:102B400072653A204F4B0A0D000000002D20507294
:102B500065737375726520616E642054656D706570
:102B60007261747572653A204641494C0A0D000045
:102B70002D2048756D696469747920616E642054F4
:102B8000656D70657261747572653A204F4B0A0D00
:102B9000000000002D2048756D696469747920611A
:102BA0006E642054656D70657261747572653A204B
:102BB0004641494C0A0D00002D204D61676E657439
:102BC0006F6D657465723A204F4B0A0D2D2050725F
:102BD0006F78696D6974792053656E736F723A20EE
:102BE000000000002D204D61676E65746F6D657487
:102BF00065723A204641494C0A0D2D2050726F787B
:102C0000696D6974792053656E736F723A200000A4
:102C1000F0B585B0070001210920FEF729F88020D2
:102C2000400000906C46012525710026A671667152
:102C30006846FEF7FFFBE802009025716846FEF744
:102C4000F9FB0297032002A908714871CE804E72E9
:102C500008728D7202A8FFF777FE0020FFF720FFB1
:102C60000120FFF765FE05B0F0BDF8B5002701288B
:102C700004D0022802D00020C043F2BD002913D0A6
:102C8000002A0FD017000C00150026786D1E20209A
:102C9000FFF7F8FE0128FAD03000FFF7EEFE641CC3
:102CA000002DF2D13800F2BD0020F2BD80B5FDF755
:102CB0004DFF00F041F800F045F8FEF7FFFD00F091
:102CC00001F8FCE710B51A4C2088401C2080002039
:102CD000205E184A904201DB0020208060800220A4
:102CE000205E0421615E884203DA0020FFF7A8F924
:102CF00002E00020FFF7B3F90220205E0621615EAA
:102D0000884203DA0120FFF79BF902E00120FFF778
:102D1000A6F90220205E0821615E884203DA0220C3
:102D2000FFF78EF910BD0220FFF799F910BD0000E2
:102D300090000020E903000002200149087070475C
:102D4000DD02002080B5E1204002FFF761FF00F0C6
:102D50001DF800F001F801BDE0B501210120FDF7EB
:102D600087FF6846FEF7EFFB80200090684606214B
:102D700001710021817101214171FEF75BFB00218E
:102D80008020FEF7E6FB03B000BD70470748084906
:102D9000416008490A681202120AC0231B06134345
:102DA0000B600021816007210160704710E000E0A6
:102DB0007E3E000020ED00E0433A5C536F636961A2
:102DC0006C446973745C626C756574696C655C53A2
:102DD0005453572D424C554554494C452D444B2096
:102DE000312E332E305C4C6962726172795C5344CF
:102DF0004B5F4576616C5F426C75654E5247315C46
:102E00007372635C4854533232312E630000000009
:102E100057726F6E6720706172616D657465727351
:102E20002076616C75653A2066696C652025732093
:102E30006F6E206C696E652025640D0A000000002D
:102E400070B40123002413E00168001D194202D070
:102E50004D466D1E49190C60091D121F042AFAD235
:102E60000D00960701D50C80AD1C1A4000D02C70C7
:102E70000268001D002AE7D170BC704730B50168B8
:102E80004118446862088A188368E40704D54C46F0
:102E90001B1901E0641C06D191420BD00C7864B27E
:102EA000491C0D78491C1D705B1C002CF2D4641E5B
:102EB000F7D5F1E70C3030BD10B50749794418312A
:102EC000064C7C44163404E0081D0A6889188847BB
:102ED0000100A142F8D110BD2C000000A0000000AC
:102EE0005265643A256425252C20477265656E3A43
:102EF000256425252C20426C75653A256425250A14
:102F00000D0000003DFFFFFF04000000080000204E
:102F1000040000000C000020040000001400002049
:102F20000400000018000020040000003000002011
:102F30000C00000024000020500000005C00002075
:102F400014000000CC0200200000000031FFFFFF51
:102F5000B800000014000000C000002021FFFFFFA7
:102F6000BB0000000A0000001000002011FFFFFF5E
:102F7000A2000000120000001C000020FDF7A0FCD1
:102F8000002801D0FFF798FF00BF00BF002000BF5E
:102F900000BFFFF78BFE00F000F880B500F002F8EC
:102FA00001BD70470746384600F002F8FBE770475E
:102FB00080B500BF00BF024A11001820ABBEFBE77E
:102FC0002600020080B56946087001220120FFF743
:102FD0004CFE012802D16846007802BD0020C043A3
:102FE00002BD38B505000C002000FFF7EBFFA04242
:102FF00000D00025280032BD00BF00BF00BF00BFC9
:10300000FFF7BCFF7047704781008100810081009D
:10301000F00007010003000400060003000804108C
:0400000510042FF9BB
:00000001FF
