:020000041004E6
:1000000000600020718705103380051035800510D1
:10001000AA5555AA45554C420000000000000000BA
:100020000000000000000000000000003980051002
:100030000000000000000000531004103B80051079
:10004000438005107312041000000000000000003F
:1000500045800510431604104D800510272B041011
:100060000000000000000000000000000000000090
:1000700000000000532B04102B36041023450410FD
:100080000000000047160410DF230410332504107D
:100090008F2604102327041047500410DB46041059
:1000A0000000000000000000000000000000000050
:1000B0000000000000000000000000000000000040
:1000C000FDB5B4B03C98049102A93B2288540020AD
:1000D0000D9028A8401C27900DE00498349A904772
:1000E0000490002801D100F042FE0D98401C0D90B4
:1000F0003598401C359035980178002910D0252975
:10010000EBD100200790089009900A900B900C907A
:10011000002102240120129008200190359D05E065
:100120000D9800F026FE0800129901436D1C2878F6
:100130002028F8D023280BD02B2804D02D2804D039
:10014000302808D00AE02143F0E708000421ECE75A
:1001500008000821E9E708001021E6E72A280FD166
:10016000369802681068121D369B1A600F9000289E
:1001700004D542420F920800042101436D1C12E095
:1001800000200F90624A09E00F9B934205DA9E001F
:10019000F3185B00181830380F906D1C2878030096
:1001A000303B0A2BF0D328782E2803D00020C04300
:1001B0000E9027E06D1C28782A2808D13698006810
:1001C0000268001D369B18600E926D1C1AE02D28E7
:1001D00002D12D226D1C00E0002200200E900CE0C8
:1001E000002A09D10E9B4A4EB34205DA9E00F3184D
:1001F0005B00181830380E906D1C28780300303BD7
:100200000A2BEDD302A801872E7831003E487844AE
:10021000FF30093800F092FE002801D06D1C00E08C
:10022000002602A83A214654405C682804D1287868
:1002300068280BD1622005E06C2807D128786C284B
:1002400004D1712002A93A2288546D1C16A8069088
:10025000287869460870681C359068460278100056
:1002600025382DD02038022800D800E2133801D1DB
:1002700000F0A1FC0B3801D100F03AFD401E01D185
:1002800000F0E7FC401E022800D8F0E1001F01D179
:1002900000F0DFFC401F00D148E1401E01D100F01A
:1002A0008AFC401E00D1EBE0C01E10D0801E01D1A0
:1002B00000F081FCC01E01D100F07DFC00F023FDA8
:1002C000252016A908701298079000F027FD36988F
:1002D00000680468001D369908600594002C00D061
:1002E000BAE002A83B21405C002800D1ADE0002428
:1002F000E44306487844143000F068FE201A01D028
:1003000000F035FD00F00AFD546801008868010026
:10031000CBCCCC0C641E01D000F01FFD3495079DA2
:1003200016AC002D0FD0349E227802A9300000F0C8
:10033000D9FD002802D4641C6D1EF5D13496002826
:1003400001D000F014FD3020694608700A9C002C92
:100350000DDD349D01236A4602A9280000F0D3FD7B
:10036000002801D000F003FD641EF3D13495059CF4
:10037000089D002D0FD0349E227802A9300000F095
:10038000B1FD002802D4641C6D1EF5D134960028FE
:1003900001D000F0ECFC302769460F700B9C002C5C
:1003A0000DDD349D01236A4602A9280000F0ABFD53
:1003B000002801D000F0DBFC641EF3D134950598D1
:1003C00008994418099D002D0FD0349E227802A967
:1003D000300000F087FD002802D4641C6D1EF5D1AA
:1003E0003496002801D000F0C2FC684607700C9CCF
:1003F000002C0DDD349D01236A4602A9280000F07F
:1004000082FD002801D000F0B2FC641EF3D13495C7
:1004100002A83821405C400700D46CE620206946E1
:1004200008700198002800DC65E6019C349D0123DA
:100430006A4602A9280000F066FD002801D000F0FD
:1004400096FC641EF3D1349555E63E487844FF305F
:100450000B38059000F062FC0E9D002D03D52000A6
:1004600000F0D8FD09E02A000021200000F0E6FDA0
:10047000002801D0001B00E02800089000F04EFC8E
:10048000369800680268001D369908600020C04355
:100490000021104002AA03C216A80590069A3C2328
:1004A00002A803C8002904D1002802D10E9C002C08
:1004B00013D05B1E05072D0F3035EEB23A2E00DB50
:1004C0002735D55400090C072043090901D100281C
:1004D00003D0059CD518AC42EBD33C20C01A089041
:1004E000D11805910E99884208DA081A0A9002A8D4
:1004F000018FBD4A0A40028700F010FC002901D498
:1005000000F00CFC02A93822895C14220A40102A4F
:1005100001D000F003FC0F99079A891A0A9A891AE8
:10052000081A002801DC00F0F9FB42E302A83B2195
:10053000415C002908D00024E44349487844FF3056
:100540002130D9E66C6601003A21405C622868D00F
:10055000682819D06A2844D06C2806D071284ED05B
:10056000742830D07A2820D06CE036980068016872
:10057000001D369A1060002976D10024E4433948E2
:100580007844FF301F38B7E6369800680168001DD0
:10059000369A1060002905D10024E443314878449C
:1005A000C230A9E60D980880B8E336980068016863
:1005B000001D369A1060002956D10024E4432948D2
:1005C0007844A03098E6369800680168001D369A95
:1005D0001060002948D10024E44322487844843044
:1005E0008AE6369800680268001D36990860002A7D
:1005F00013D10024E4431B48784468307CE63698E5
:1006000000680268001D36990860002A05D10024A0
:10061000E443144878444C306EE60D98C11703C289
:100620007CE3369800680168001D369A1060002946
:1006300005D10024E4430B48784428305CE60D984B
:1006400008706BE3369800680168001D369A1060E8
:10065000002909D10024E44302487844801D4BE678
:1006600004650100186501000D98086056E336988E
:100670000368DB1D072083433698036003CB369D58
:100680002B6002AB03C3C80F02D007982D210AE0EC
:1006900002A8008F204202D007982B2103E0C00758
:1006A00005D50798202116AB1954401C079016A8B1
:1006B00007994318059328AC02A803C814AD03C5D5
:1006C0000E98002801D5062007E007D1684600787B
:1006D00020210143672901D112980E9002A803C876
:1006E000080041004915491C10D100030ED0032019
:1006F0000890613A1A2A04D23C497944FF311139F1
:1007000015E03B497944FF31173910E002A803C8CE
:10071000080041004915491C0ED100030CD10320EB
:100720000890613A1A2A16D332497944C631032215
:10073000180000F0A9FCF1E202A8C0C885A003C817
:100740003940002280235B03994208D2002079407F
:1007500032AB03C313E0284979449C31E7E7774B78
:100760003B40774F1F4332AAC0C2080D75A20CCA86
:10077000101876494843764900F0A9FC020032A8D7
:1007800003C802AB03C302A803C872A6C0CE0640CA
:100790000F4003D1002E01D10025B8E014A830C8C5
:1007A0006D006D0825920720801A05DD02002000EB
:1007B000290000F070FB0AE042420020674900F087
:1007C0006AFB02000B002000290000F0DAFC202266
:1007D0006B461B781A436B465A706A465278662AF3
:1007E0000CD1259A0A320AE0EFFF0000C86301002D
:1007F000C8630100CC630100C463010006220E9BA4
:100800009A18142A00DD142228AB30241C705C1CBA
:1008100002E014A803C8139A002A3CDD14AB03C3FA
:10082000139214A803C800F00DFD26900646083464
:10083000042530000A2100F04DFC0F0030000A2191
:1008400000F048FC06003037601E077030000A21B7
:1008500000F040FC0F0030000A2100F03BFC0600D5
:10086000A41E303727706D1EE3D108341398083862
:1008700013900028CDDD269800F0FCFC02000B0050
:1008800014A803C800F069FD0022354B00F0DCFD20
:1008900014AA03C2C5E72798201A28A94C1C259D35
:1008A00002E0401E6D1E641C21783029F9D0694693
:1008B0004978662901D1691C06E0694649786529AD
:1008C00001D1129900E000210E9A5618B04200DAC8
:1008D000461E002E1BD4864204DAA05D342801DDBA
:1008E000392000E030203100621E521801E0761EEF
:1008F000521E491E13788342F9D0392802D1605C18
:10090000401C6054002902D5641E761C6D1C68468C
:100910000078694648700E9F30B2002803DC129EB2
:10092000054C7C44123468464178202008436628F0
:1009300018D16D1C2EE000BF8C620100FFFF0F80FC
:100940000000E03F02FCFFFFFFFFFFFF9775000084
:10095000A0860100FFFFFFFFFFFFFF7F0000F03FC9
:1009600084D7974167285CD128B20321C9438842C4
:1009700041DBB8423FDA6D1C02A8008F0199C0B27A
:10098000084203D130B2B84200DA070028B23F1A59
:1009900000D5002728B2002800DDA8E00898411CF7
:1009A00008913021059A1154002F05DC02A8008F10
:1009B0000199C0B2084205D00898411C08912E2127
:1009C000059A115428B241428F4200DA7D422DB27D
:1009D00068420B907D1930B2854200DA2E0036B2A3
:1009E0000996320021000598089BC01800F04CFBC6
:1009F000A81B0C90C7E030B2B84206DA02A9098FF2
:100A0000019AC9B2114200D107007F1E00D500270C
:100A100068464078672801D1652000E04520694696
:100A200048700898411C08912178059A1154611C5E
:100A3000002F05DC02A8008F019AC0B2104218D026
:100A40000898421C08922E22059B1A54002F10DD94
:100A5000741E20B2874200DA3C0022B20598089B3F
:100A6000C01800F011FB24B2089800190890381B38
:100A70000B9005980899401869464978017029B289
:100A8000002903D42B214170861C03E02D224270E3
:100A9000861C4D42002412A928000D0005E00A2101
:100AA00000F015FB2970641C6D1C00B20028F6DCF8
:100AB000012C08DC6846407820210143652902D1D9
:100AC00030203070761C002C09D130203070761C1C
:100AD00007E0641E12A8005D30303070761C002CD8
:100AE000F7DC059808994018301A09904BE030B2AD
:100AF00029B288421DDA32B221000598089BC0183D
:100B000000F0C2FA36B20898801908902DB2A91BDD
:100B10000B91002F05DC02A9098F019AC9B211427D
:100B200005D02E21059A11540998401C09900C9764
:100B300029E02AB221000598089BC01800F0A4FA09
:100B400028B2089909180891751B002F05DC02AA24
:100B5000128F019BD2B21A4204D04A1C08922E2254
:100B6000059B5A5429B28F4200DA3D002AB221185F
:100B70000598089BC01800F087FA2DB20898401914
:100B80000890781B0B9002A83821405C142101408A
:100B9000102900D0C2E00798089940180B99401816
:100BA000099940180C9940180F99884200DBB5E06C
:100BB000081A0A90B2E002AA3A20105C622808D013
:100BC00068280ED06A2814D06C281DD0712810D047
:100BD0001AE0369801680868091D369B1960C0B292
:100BE00018E0369801680868091D369B196080B2C4
:100BF00010E036980368DB1D0720834336980360B6
:100C000003CB369C236006E0369801680868091D0E
:100C1000369B1960002102AB03C3108F0199C0B24B
:100C200008425BD002A803C8002901D1002855D092
:100C3000684600782021014378294FD1079816A9EA
:100C400030220A54401C421C07926A4612780A5409
:100C500044E002AA3A20105C622808D068280ED02E
:100C60006A2814D06C281DD0712810D01AE036984C
:100C700001680868091D369B196040B218E0369873
:100C800001680868091D369B196000B210E03698AB
:100C90000368DB1D072083433698036003CB369D32
:100CA0002B6006E0369801680868091D369B1960BC
:100CB000C11702AB03C3002902DA07982D2109E00E
:100CC000108F204202D007982B2103E0C00705D5E2
:100CD0000798202116AA1154401C079016A80799BE
:100CE000401805906846017802A800F044F815E025
:100CF00012980790369800680168001D369A1060B7
:100D000016A801700AE0252016A90870129807900D
:100D100068460078002801D04A7007940F98079918
:100D2000401A0A99401A0899401A0B99401A0999D1
:100D3000401A0C99401A019002A83821405C4007E3
:100D400001D5FFF7ECFA20206946087001980028C9
:100D500001DCFFF7E4FA019C349D01236A4602A9F5
:100D6000280000F0D0F8002801D1FFF7D3FA0020C6
:100D7000C04337B0F0BDF2B586B0040025696F29D5
:100D800001D1082707E0084620210143782901D036
:100D90000A2700E010273C2603CC083C04AA03C223
:100DA0006A46127E642A03D06A46127E692A09D1F5
:100DB000002907DA04A803C800220023121A8B4175
:100DC00004A80CC004A803C800290DD100280BD129
:100DD000206B002808D1082F3BD13820205C000769
:100DE00037D53B26302033E00294009504A830C864
:100DF000761E0196200029003A00FB1700F0E6FB62
:100E00003032D0B23A2803DB6846007E51381218DF
:100E100000988255200029003A00FB1700F0D6FB0D
:100E200004000D0001D1002C05D00298C068009983
:100E300089198842DCD3029C009D082F09D13820F3
:100E4000205C000705D5A85D302802D0761E302032
:100E5000A8553C20801BA061A919E160216B884244
:100E600006DA081A2062208F1C490140218710E011
:100E700000290ED53821615C14220A40102A08D1BD
:100E8000616B6269891A226A891A081A002800DDD2
:100E9000206207B0F0BDF8B50026114F04000D0028
:100EA000009214E0C00707D532003B002000290063
:100EB00000F0CAFA04000D000098401000903000C5
:100EC000390032003B0000F0BFFA06000F00009826
:100ED0000028E7D120002900F4BD0000EFFF00004A
:100EE0000000244010B503000C001100A0689847D2
:100EF000A060002804D0E06A401CE062002010BD21
:100F00000020C04310BDF8B50024002B11D007000D
:100F10000E0014001D002178B068B847B0600028AA
:100F200009D0F06A401CF0620020641C6D1EF2D1F2
:100F300004002000F2BD0020C043F9E7C9B20278E6
:100F40008A4203D0401C002AF9D100207047F1B436
:100F50000168421841684808131800988068C9075A
:100F60001ED5494640181BE01778521C0770401CDC
:100F7000761EF9D1002C13D01678521C89080D402A
:100F8000032D01D11578521C290271184D424119C7
:100F9000A41C05D00D78491C0570401C641EF9D1B5
:100FA0009A420FD01178521C032503260E4002D11D
:100FB0001678F61C521C0C090F2CD9D114780F345A
:100FC000521CD5E700980C30F2BC704780B5002861
:100FD00001D100BF07A006490B68002B03D02222D5
:100FE0000021984701E000F026FB222002BD00000E
:100FF00020090020636F6E73747261696E742068DB
:10100000616E646C65723A20626164206D65737311
:1010100061676500431C0178401C0942FBD1C01A7E
:1010200070470C0802170D010102090901010602AF
:1010300009FFFFFFFFFF0909FFFFFFFFC9B2521EB3
:1010400005D30378401C8B42F9D1401E7047002025
:101050007047704770B4103A03D378C9103A78C01B
:10106000FBD2530701D318C918C001D508C908C05D
:10107000D20704D30B880380891C801C002A01D569
:101080000B78037070BC70478B0701D18307E1D0E8
:10109000124205D00B78491C0370401C521EF9D136
:1010A0007047F446002804D4494200F013F8404247
:1010B00060474042002905D45FD000F00BF8404261
:1010C00049426047494200F005F8494260470346FB
:1010D0000B43E6D40022030A8B420BD203098B4256
:1010E00019D243088B422ED2411A00D201465241F6
:1010F00010467047FF2209023FD012068B4205D3EB
:10110000121209028B4201D31212090203098B4207
:1011100019D300E0090AC3098B4201D3CB01C01ADD
:10112000524183098B4201D38B01C01A52414309BA
:101130008B4201D34B01C01A524103098B4201D3A8
:101140000B01C01A5241C3088B4201D3CB00C01A15
:10115000524183088B4201D38B00C01A524143088D
:101160008B4201D34B00C01A5241884200D3401A2F
:101170005241CFD201461046704708B500F060FAE0
:1011800008BDF0B40E005E400125ED072E40B446C8
:10119000AE0ADF184C18F4423BD2F74241D2640D3C
:1011A00043D07F0D38D0E41BC902DB0229432B4317
:1011B000CF0ADB0A0600B61A9F4104D2641EB61994
:1011C0007F41B6185F416812800D241800188442D0
:1011D00022DAE80C0021B6197F41B61A9F4102D2EB
:1011E000B6185F413F1C40414941F4D3241C21DD26
:1011F0002405B6197F41B61A9F4105D33743C60768
:1012000037430026012F7041614166463143F0BCEF
:101210007047FCD1F74205D20020C1434905490877
:10122000F3E704D00020C143F1E77F0DFAD000209E
:101230006146ECE72442FAD1401C61410F03F6D32A
:101240000020E2E74A1812D2400DC90208430121EA
:10125000C9070843520D40210901521A521C06D4F5
:1012600052421F3201D4D0407047C017704700204F
:1012700070477047010042221201D21E004207D07F
:1012800002D4521E0018FCD5C10A40051205891867
:1012900070470000F0B40125ED070F005F404FD408
:1012A0008B4200D1824205D98446100062468C46AA
:1012B00019006346DF184C18640D7F0D3AD0661C88
:1012C000760537D0E61B352E34DCDB022B43DB0AF8
:1012D0000C0DC9022943C912202E0DDB1700203E38
:1012E00006D01F00F741F3405F400026012A7741F6
:1012F000C01871410DD217E01700F741F240574076
:10130000F3415A40B340F3405A40002680185941F7
:101310000AD3A21C52050FD0C207012F7241170039
:101320004008CB0718434908641C24054208AF4114
:1013300070416141F0BC7047641C21050020F9E751
:101340006B4010E06B40ABE7F742F3D1E943F1E7C4
:101350002442EFD100200021ECE7F0B40125ED0795
:101360000F005F40EED40C00871A9C4105D2C01BD1
:10137000A141D219634169406B40AE0ADF184C1895
:10138000F442E1D2640D7F0DE2D0E61B362ED1DCB3
:10139000DB022B43DB0AA4460C0DC9022943C90A10
:1013A000012E28DC04D1D6075208DF073A435B0838
:1013B000EF0A76429041994114D039423BD1B61997
:1013C00040414941761C394204D1761C00184941FC
:1013D0003942FAD0B9436746B74208D9A41B24055D
:1013E0002143A7E70042EAD13642E8D1A2E7E40A66
:1013F000E10700209EE7202E0BDD203E1F00F3407A
:10140000F7415F40012A002257417E4298419141B5
:101410000BE01700F741F2405740F3415A40B34008
:10142000F3405A407E42904199410A0303D2641E20
:10143000B619404149410027641E24054208AE41C7
:1014400078416141F0BC7047F0B50E005E40012567
:10145000ED072E40B446AE0ADF184C18F44208D20D
:10146000F7420ED2640D01D07F0D12D100206146EB
:10147000F0BD05D1F74201D87F0D05D10020C14351
:10148000F0BDFBD1640DF9D00020C14349054908E6
:101490008FE0E419C902DB0229432B43DB0A460D26
:1014A000C00231438E4630B487B295B27D432E0CD4
:1014B000ADB2140C7C43A419260C240425439CB221
:1014C0007C43A419190C7943270CC919A4B20F0441
:1014D0003C43090C000C97B247432E0CBE19354310
:1014E000ADB2170C4743360CBF19A6B2BF193E0464
:1014F0003543240C3E0C36199FB24743BF19BCB28A
:101500003E0C89191F0C47437F183E043443390CA5
:10151000704680B297B247432E0CBE193543ADB228
:10152000170C4743360CBF19A6B2BF193E0435430A
:10153000240C3E0C36199FB24743BF19BCB23E0C77
:1015400089191F0C47437F183E043443390C7746F2
:101550003F0C90B278432E0C80190604ADB22E4396
:10156000050CA0B22D18120C7A435019020C80B24F
:10157000240CA4189AB27A43121914042043120CB2
:1015800089181B0C7B43C91830BCEF0A394203D1C0
:10159000B61940414941641E6F12BF0DE41B0BDBBD
:1015A000FF19BC4211DA240500274208AE417841F8
:1015B000614166463143F0BD641C05D1401C614168
:1015C000CF0201D34908F4E750E75DE7124224D087
:1015D000994228D970B500251B4202D00C00002189
:1015E00009E00024012649186441944200D3A41A5A
:1015F0007641F8D33100012601E0764109D2001886
:1016000064416D41A41A9D41F7D2A4185D41B619F9
:10161000F5D3300022002B0070BD1B42D8D108B595
:1016200000F010F808BD01D19042D3D202000B00A7
:1016300000210020704780B5012000F005F801BDB1
:10164000704770477047704780B500BF00BF024ABF
:1016500011001820ABBEFBE72600020070B50300A6
:101660000A001C0021780125954211D2605D00021C
:10167000484001000020082808DA0E0403D54E0077
:101680009249714000E04900401CF4E76D1CEBE713
:10169000080080B270BD21480168214A51438C4A3C
:1016A000891801600068000C4004400C704710B5B8
:1016B0001C4800F03BFE00242000C0B2082810D2D5
:1016C00019482100C9B26C22514341184A1C21001B
:1016D000C9B26C235943415C144800F027FE641CD6
:1016E000EAE77C4800F022FE10BDF8B57A480068B1
:1016F000000402D5794800F035FE2C240094002621
:101700003500774F2A000099380000F03FFE754FF2
:1017100032002100380000F039FEF1BD1C09002024
:10172000FD430300F4740510CC0200203086051040
:1017300070B56D4E300000F0F9FD6C4800F0F6FD1C
:101740006B4801886B4800F0F1FD6B4801886B48DD
:1017500000F0ECFD6A4801786A4800F0E7FD614D51
:10176000A86A00F03DFE02000B00674800F0DEFDB5
:101770005B4CA06A00F034FE02000B00634800F0EE
:10178000D5FDA96AA06A00F044FE00F029FE02001F
:101790000B005F4800F0CAFD5E480078022801D1C6
:1017A0005D4900E05D495E4800F0C0FD4A4C21689B
:1017B0005C4800F0BBFD5C4801685C4800F0B6FD89
:1017C000300000F0B3FD2068C00701D5B0A100E0F3
:1017D000B0A1574800F0AAFD2068800701D5ACA150
:1017E00000E0ACA1AC4800F0A1FD2068400701D5A5
:1017F000A7A100E0A7A1A94800F098FD2068000774
:1018000001D5A3A100E0A3A1A54800F08FFD2068A9
:10181000C00601D59EA100E09EA1A24800F086FD71
:101820002068800601D59AA100E09AA19E4800F0A8
:101830007DFD2068400601D595A100E095A19B485B
:1018400000F074FD2068000601D591A100E091A18F
:10185000974800F06BFD2068C00501D58CA100E021
:101860008CA1944800F062FD2068800501D588A114
:1018700000E088A1904800F059FD2068400501D59E
:1018800083A100E083A18D4800F050FD2068000591
:1018900001D57FA100E07FA1894800F047FD2068C5
:1018A000800401D57AA100E07AA1864800F03EFDCF
:1018B0002068400401D576A100E076A1D24800F06E
:1018C00035FD300000F032FD70BD00002110000039
:1018D000C39E2600247705102C060020240000203B
:1018E000900000208808002030760510B087051091
:1018F0002A090020B48305102C0900204486051015
:1019000030090020607605103481051054810510DF
:10191000B87805108106002058870510F486051058
:10192000588505105886051018090020D083051029
:101930006C860510F0B589B000F066FE0890B34DD6
:10194000686900281FD068682968401A079068698C
:10195000FFF790FC0022AE4BFFF776FD06000F006C
:101960000798FFF787FC02000B0030003900FFF7F3
:1019700008FC00F05BFE0700089868606868286053
:101980000020686100E00027A86A8021090400F0B7
:101990007FFE16D8A86A00F023FDB8A20CCAFFF794
:1019A00053FD00900191380000F01AFDB5A20CCA59
:1019B000FFF74AFD009A019BFFF76CFC00F036FE32
:1019C00000E03800A862AC4C606900281FD0606855
:1019D0002168401A07906069FFF74CFC00228C4B8D
:1019E000FFF732FD009001910798FFF743FC0200DA
:1019F0000B0000980199FFF7C4FB00F017FE0600EA
:101A000008986060606820600020606100E0002647
:101A1000A06A8021090400F03BFE16D8A06A00F0FD
:101A2000DFFC96A20CCAFFF70FFD00900191300079
:101A300000F0D6FC93A20CCAFFF706FD009A019BAA
:101A4000FFF728FC00F0F2FD00E03000A062E06942
:101A50000490A0690390206A0290300000F0C0FC5E
:101A600000900191380000F0BBFC02000B000592D1
:101A700006930898FA218900FFF72CFB0100059ACC
:101A8000069B914800F052FC0020686209B0F0BD4E
:101A90004F4E00002E200000708505107481051047
:101AA000EC8305109481051088850510B48105101C
:101AB000088405102C7C0510D4810510507C05107D
:101AC000F4810510A0850510F8B58AB008A86F4903
:101AD0000CC90CC008390838012706A86C490CC984
:101AE0000CC008390838FFF700FE06AA06210020BE
:101AF00000F0E2FD04002000C0B2002808D022005F
:101B0000D2B26649634800F011FC2000C0B279E00F
:101B10000421012000F0D4FD00F0D6FD06003000C5
:101B2000C0B2002808D03200D2B25C495A4800F056
:101B3000FDFB3000C0B265E0584C2100584800F071
:101B4000F5FB05A8019004A8009004AB9B1C08229B
:101B500000213800C0B200F0BBFD05002800C0B273
:101B6000002808D02A00D2B221004E4800F0DEFB47
:101B70002800C0B246E021004B4800F0D7FB08A87F
:101B8000039008200290002001900820009000237C
:101B90006846028A6846418A002000F0B1FD0600CE
:101BA0003000C0B2002808D03200D2B221003F4835
:101BB00000F0BCFB3000C0B224E021003C4800F043
:101BC000B5FB00F0AFFD05002800C0B2002808D02A
:101BD0002A00D2B22100374800F0A8FB2800C0B28A
:101BE00010E02100344800F0A1FB172033490880A1
:101BF0000020334908603549086008680222024322
:101C00000A6000200BB0F0BD248405108808002075
:101C10000000204010B58AB007A82A491CC91CC082
:101C20000C390C380021002000F0F0FD0020069057
:101C300000200590002004900020039007A8029047
:101C40000920019000200090002396225200C82114
:101C5000002000F0E6FD04002000C0B2002808D0FB
:101C60002200D2B20D491A4800F060FB2000C0B239
:101C700000E000200AB010BD900000206666666695
:101C80006666EE3F9A9999999999A93FB887051088
:101C9000C0870510747C0510E0780510C887051012
:101CA000987C0510BC7C0510148205101C7405106E
:101CB00028750510507705107C7705102C09002039
:101CC0001809002064870510E07105102C0600201B
:101CD0005C750510F0B587B0BC4D286880070DD540
:101CE000FFF798FF694608746846007C002800D01A
:101CF0006AE1286802218843286065E10127286895
:101D00003840002800D15FE1286800040ED5B04CAF
:101D1000200000F02CFB002808D0AE48016802200B
:101D20004143200000F016FBFFF704FE2868400442
:101D30000DD5A948008800F095FD694608746846ED
:101D4000007C002803D12868A44901402960A44CE4
:101D50002068C00506D5FFF7EBFC2068A1490140CB
:101D6000216031E107262068304000283DD02068FE
:101D70000740002F06D01B20050020680121884362
:101D8000206012E02078800706D5642005002068D6
:101D900002218843206008E02078400705D5FB2019
:101DA000050020680421884320608F4C2A00D2B2AD
:101DB0002100AF4800F0BAFA2A00D2B20E32082051
:101DC000424392B22900C9B289B28348008800F028
:101DD000EBFD694608746846007C002800D1F3E0FA
:101DE0002100A44800F0A2FAEEE02078000727D5F1
:101DF000286800061CD4402628683040002817D1E7
:101E00007548008800F07FFE694608746846007CCB
:101E1000002805D06846017CA54800F087FAD3E089
:101E2000286806432E602068082188432060CBE0A4
:101E3000A04800F07BFA2068082188432060C3E0B6
:101E40002078800625D5102728683840002820D122
:101E5000A54800F06BFA9620800000900023102225
:101E600008215D48008800F052FE69460874684603
:101E7000007C002805D06846017C9C4800F056FA9A
:101E8000A2E0286807432F60206820218843206053
:101E90009AE02068000512D5954D2878032804D1D2
:101EA000944800F043FA2E7004E0934800F03EFAA4
:101EB00003202870206891490140216084E028684F
:101EC000400700D480E0B6480078022802D1286894
:101ED000400479D4202728683840002870D1B148C0
:101EE0000590B14C0599E06800F01EFE0598083099
:101EF0000690AE4800880B3869464882002668463E
:101F0000408A0221FFF7E3F83100C9B2814209DAC1
:101F1000FFF7C1FB06993200D2B202235A4388521E
:101F2000761CECE76846418A05980830FFF796FB77
:101F30000599091D80B200F0F7FD9A4803906846A4
:101F4000408A0830C0B202900020019080208000BA
:101F500000906748037896480288964801881E4892
:101F6000008800F0CDFB694608746846007C642850
:101F700006D1286807432F60606A401C606223E036
:101F80006846007C00281FD16069002802D100F05B
:101F90003BFB206082480078022804D12868802119
:101FA000C90101432960606980490988C91E401838
:101FB000606100F029FB6060E068401CE06003E0C5
:101FC0007948416A491C416207B0F0BD2C060020E7
:101FD00024000020D08705102A090020FFBFFFFF42
:101FE00018090020FFFEFFFFC8870510F3B581B078
:101FF000040000273E003000C0B26946098980B263
:10200000884234D2380005002800C0B208281DD20A
:10201000A6493000C0B2205C2A00D2B26C235A43D9
:102020008A5C904210D1A2480268009201238C463B
:102030002A00D2B26C214A4361468918896E8B40CE
:10204000009A1343036001E06D1CDDE72800C0B275
:10205000082803D096480068800506D5FFF727FBBF
:10206000934801689B4A0A400260761CC3E7F7BDAB
:102070009076051008790510F8B505000C001700DA
:102080001E00954804801720484908801B2093496A
:102090000870210089B2924800F048F9914801681F
:1020A00001220A4302600168102291430160F1BDE0
:1020B00090750510A473051070B506000D0014008E
:1020C0002200D2B2290089B2874800F02FF9FFF729
:1020D0000CFB844800210160754A116001680222EE
:1020E0000A43026070BD0000E07C0510E872051034
:1020F00080060020047D0510287D0510FFF7FFFFF6
:10210000F5B583B00E0000F07FFA07000498009048
:10211000009800F013FD0500744C207A002804D1CB
:102120002760681E2061012020722069854207D146
:1021300029006F4800F0FAF8E069401CE06110E007
:102140002069401C85420CD02069854203D2E06999
:10215000401CE06105E0A06940192169401A401E59
:10216000A0613100C9B2083900980830FFF776FA4B
:10217000694688800098001D00F0E0FC6946898867
:10218000814202D0206A401C2062256160693100D2
:10219000C9B24018606100F037FA606005B0F0BD68
:1021A0008106002088060020880800202C090020D5
:1021B0002609002024090020FDB50E00089F3000EC
:1021C00080B24C490988491C884208D13A006846C7
:1021D0000189C9B2300080B2FFF792FF3AE03000C7
:1021E00080B245490988891C88422ED13878012857
:1021F0000BD13C48016804220A43026001203F4998
:1022000008703F4800F092F80DE0387802280AD1B3
:102210003448016804220A430260022037490870EA
:10222000384800F083F8802424022E4D286820408E
:1022300000280FD13448016802204143334800F0A0
:1022400089F8286804432C6004E0310089B23048E2
:1022500000F06CF8F7BDF1B582B00C0017001E005D
:10226000089D2C492C4800F061F8280080B20190AC
:10227000300080B200903B009BB2220092B26846D0
:102280000189264800F052F8200014490870F7BD73
:1022900014490A68224B13400B60704710B4114A6E
:1022A00013682024A343136010BC7047CC020020A5
:1022B0001809002038B504000D001A4805800948A7
:1022C000016880220A430260290089B2164800F0A2
:1022D0002DF831BDFFFDFFFF2A0900203009002045
:1022E000547405102C0600209871051090000020F1
:1022F000B885051028090020260900208106002045
:10230000A8770510D4770510D08705102400002089
:1023100040840510C88705104C7D0510C06D051060
:10232000FFBFFFFF2C090020707D05100EB4C0B563
:10233000020003A801900020009001AB0121044895
:1023400078440C30FDF7BCFE029906B0084700BF88
:102350008162010038B505000C006C6000F054F992
:10236000286031BD0168426889180160704710B566
:10237000040000F049F92168401A401C616881425C
:1023800001D2012000E00020C0B210BD1206130AE5
:102390001A43130C1A4300BF094205D0830707D024
:1023A0000270401C491EF9D1704700000022FFE76F
:1023B0001300103906D330B41400150010393CC096
:1023C000FCD230BC490700D30CC000D504C0890042
:1023D00002D30280801C002900D50270704770472C
:1023E000012212060118CA420AD28A420DD83822A6
:1023F000120609098918C20FD20711434007704716
:1024000000D049080909014301E0C10FC9070020B4
:1024100070470122D20703004B402ED4431A01D249
:10242000C01AC91830B44B180418240E1B0E22D041
:10243000FF2C20D0E31A182B1DDC09021143C40D18
:10244000641E0002104394461925ED1A0A00AA40A2
:10245000D940451801D36D08A41CE405D209280A07
:102460002D062A436546AA41604103181B0EFF2B27
:1024700001D3C00DC00530BC7047514006E051404B
:10248000CCE70122D20703004B40F8D4431A03D211
:10249000C01AC9185040514030B44B1809021143BA
:1024A0000418240E1B0E40D0FF2C3AD025009D416D
:1024B0000BD31ED8C50D4002401A0BD3ED05010009
:1024C000400AC90591416841D5E7C50D4002491848
:1024D000401AD0D001214008491C0018FCD58C427C
:1024E00004D36D1A000AED054019C4E7E805104051
:1024F000C1E7182DBFDCAC1C0D00E140E5414D40AB
:10250000012D4941C40D00021043451A01D46D1933
:102510009543641EE405280A2D069541604130BCB0
:102520007047FF2BA7D1D843A5E72442A3D10020B1
:10253000A1E77047F0B5020052B2002A23D503226A
:102540000F24334B05006DB22540083DAD0804262D
:102550007543060076B23440083CA4080426744350
:102560001E59FF27BC461400044008277C436746D9
:10257000A740BE438C01E4B2024008277A4394404E
:1025800034435C511BE0234A0323040064B2A408D3
:1025900004256C431459FF251E00064008277E437E
:1025A000B540AC438D01EDB20340082673439D4016
:1025B000254303005BB29B0804246343D550F0BD60
:1025C00010B5040080204004844201D3012010E0B3
:1025D0002002000A401E1049086003210020C04369
:1025E000FFF7A8FF00200D49086007200C4908608C
:1025F000002010BD0B480168491C0160704780B580
:102600000948FFF7DDFF01BD06480068704700007C
:102610001CED00E000E400E014E000E018E000E061
:1026200010E000E004090020FF7C000001225205B8
:102630004B18DA4201D9581570475B0D0722D201B9
:102640009B1A10D9FF2B1DD2DB050122D2070A40AD
:1026500013430903020D1143490AC200524100D934
:10266000491CC81870470AD1800A0A030243521253
:10267000921C04D9D3070B40D00518437047C80FEC
:10268000C0077047C80F0002FF30C0057047704791
:102690000CB4012212060318DA4207D84B18DA42AA
:1026A00004D802000A43921802D281420CBC70473F
:1026B000FCD088420CBC704710B500F04BFA10BD3E
:1026C00010B500F0D5FA10BD10B500F0F3FA10BD4A
:1026D0007CB5069D079C002805D0860705D14607D6
:1026E00003D4060701D442207CBD002903D0012970
:1026F00001D00229F7D10095019400F0A5FB7CBD23
:10270000F0B585B084460AA8F0C868468581C681C0
:1027100003A8019002970094604600F093FC05B076
:10272000F0BD7047F8B586B02E4C10222E4920001F
:1027300000F050FE2D4800900623012221000220C7
:1027400000F06EFE05002800C0B2002843D1284CDE
:1027500010222849200000F03DFE244E2648059016
:10276000012004901020039000200290002001908E
:102770003020009080239B0022000221308800F04E
:102780006AFE05002800C0B2002824D110221B498F
:10279000200000F01FFE1A4F059701200490102022
:1027A000039001200290002001900C2000908023D3
:1027B0009B0022000221308800F04DFE0500280019
:1027C000C0B2002807D13A880B4801880D48FFF7AE
:1027D000ADFD002003E00C48FFF7A8FD472007B03F
:1027E000F0BD00BFD4080020C486051024090020D5
:1027F000E4080020D486051026090020E486051090
:1028000028090020A8720510087C051010B50A469A
:102810001F2801D9122010BD0146104600F03AFED3
:1028200010BDFFB587B0109D159E169C01930295B3
:10283000009407A807C81F46334600F059FE002839
:102840000ED11398149903AA069443C211981299B1
:1028500001900095029107A807C83B4600F076FE5C
:102860000BB0F0BD10B500F08DFE10BD38B5050001
:102870000C002100280000F0A7FE31BD10B50400B7
:10288000200000F0D3FE10BD80B501F0A5F902BD17
:10289000F8B584B007000E0015001C006846808E55
:1028A00003900C9802906846808D01906846008DD8
:1028B000009023009BB22A00D2B231003800C0B28F
:1028C00001F016FA05B0F0BDFEB507000E001500C8
:1028D0001C000AA80078029009A8007801900898C6
:1028E00000902300DBB22A00D2B23100C9B2380016
:1028F000C0B201F0F1FAFEBD38B505000C002100B0
:10290000280001F0A7FB32BDF8B507000E00150046
:102910001C002300DBB22A003100380001F0BCFBB0
:10292000F2BD0120704780B501F0FAFB01BD10B582
:1029300004002000C0B201F017FC10BD10B5040067
:10294000200001F089FC10BD10B504002000C0B2C9
:1029500001F080FD10BD38B505000C002100C9B2A2
:10296000280001F0D7FD32BD80B501F0DBFD01BDCF
:1029700080B501F0F9FD01BD10B50400200001F0A3
:10298000FFFD10BD10B50400200001F03DFE10BD9C
:1029900010B50400200001F05EFE10BD10B504006B
:1029A000200001F081FE10BD70B506000D0014007E
:1029B000220092B2290089B2300080B201F07DFE7F
:1029C00070BD80B501F08AFE01BDF8B507000E00AC
:1029D00015001C0023002A003100C9B23800C0B223
:1029E00001F0A6FEF2BDF8B507000E0015001C00B0
:1029F00023009BB22A0092B2310089B2380080B223
:102A000001F02AFFF2BD10B50400200001F05EFFC6
:102A100010BD10B50400200080B201F081FF10BD90
:102A20000120704780B501F0D5FF01BD10B504004D
:102A30002000C0B202F080F810BD10B504002000E4
:102A400002F096F810BD80B502F0AEF801BD10B5E9
:102A50000400200002F0C0F810BD0120704710B53E
:102A60000400200002F0F2F810BD10B504002000B0
:102A700002F00AF910BD10B50400200002F03EF982
:102A800010BD10B50400200002F052F910BD10B5C1
:102A90000400200002F062F910BD10B5040020000F
:102AA00002F074F910BD10B50400200002F086F9A0
:102AB00010BD10B50400200002F0A2F910BD10B541
:102AC0000400200002F0D0F910BD10B50400200071
:102AD00002F0E4F910BD10B50400200002F02CFA59
:102AE00010BD10B50400200002F05CFA10BD10B556
:102AF0000400200002F082FA10BD10B5040020008E
:102B000002F0A2FA10BD10B502F0E2FA10BD3EB517
:102B10006C46069D20806180A280E3802581684606
:102B200002F0FEFA3EBD704784460870000A487005
:102B3000000A8870000AC87060467047C3788278BF
:102B4000417800781B021A4309021204084310431B
:102B500070477047F0B5444F0446386885B0783008
:102B600016460D46002C19D0062C11D0082C0CD07E
:102B7000182C0AD0282C0BD02A2C09D02C2C0AD0A7
:102B80002E2C0BD0D02C42D043E0102D08D040E0AA
:102B9000022D05D03DE0012D02D03AE0062D38D1BE
:102BA0000A460019314600F015FC2C2C28D130784B
:102BB000002825D0FFF734FF012824D01B201F3028
:102BC0004009401C41004118012002F023FBFFF79F
:102BD00027FF012819D01B201F3040094100411850
:102BE00022484078401AC01EC1B2002002F012FBF9
:102BF00038684022403001781143F92211400170B9
:102C0000002005B0F0BDFB20D9E7FB20E4E7012D53
:102C100004D0FFF705FF012804D007E0107802F088
:102C200005FBEEE7D12C01D1082D01D01220E8E7F9
:102C300002223146684600F0CDFB0222B11C01A8F9
:102C400000F0C8FB0222311D02A800F0C3FB0222E3
:102C5000B11D03A800F0BEFB684683890289818804
:102C60000088FFF7C0FECCE7780600207C0000203B
:102C700010B5012818D8072916D80C4A126813462F
:102C80002033187759778007C906000E090E0143D3
:102C90000020074BA03204E08401E418A172401C1C
:102CA000C0B2147B8442F7D8002010BD7806002003
:102CB00000010020F0B55FA099B000685E49159052
:102CC0005E4A08688418092212028218526B25464F
:102CD000403514922A7AD20702D0622019B0F0BD92
:102CE000AA8B01235B029A4201D9AB8303E0172A26
:102CF00001D21722AA83149AA0301392067B0DE00A
:102D0000761EF6B2139871010F18B8680F90384606
:102D10002022002100F06CFB0F98B860002EEFD14C
:102D200020460830E0606460A060246008301390A2
:102D300060612061FF220021083002F088FA2046FD
:102D4000FF220021243002F082FA2046AA7F0021CF
:102D5000303002F07CFA2046FF2200213C3002F0A5
:102D600076FA00222A7210461721334B05E0149E92
:102D70004701BE19401C7180C0B21E68A036367B68
:102D80008642F4D8002028832F8C688C002614906B
:102D900008E02820E16C70430918204602F05FFA31
:102DA000761CB6B2BE42F4D3002608E03020216D76
:102DB00070430918139802F052FA761CB6B21498B0
:102DC0008642F3D3012002F051FA012468460470D0
:102DD0001B4941802346042269460CA802F052FA9E
:102DE000002822D16846018E81821649018304267B
:102DF00006858475202108A881720024C47204739A
:102E000007214173847305A90DA802F0EBFA00288D
:102E10000BD1684604874687818E15AB0EAA008EBB
:102E200002F07EFC002800D158E7002028724720DD
:102E300054E700000000FFFF780600202C07000088
:102E400001180000052A0000FFB50C4678A103C94F
:102E500095B001910090002108A801730321C902D7
:102E600068464186012108A8734E017435681746EB
:102E7000AE3502F089FC002808D17049306840184E
:102E800002F016FDA878002802D0462019B0F0BD47
:102E90000BA81599FFF75FFD0028F7D1072010A9AF
:102EA0000871012C05D0022C0AD0002C0ED0422033
:102EB000ECE708A8017B1020014308A8017305E096
:102EC00011A90BA8FFF718FD0028DFD110A802797F
:102ED00001230CA9284602F0D5F900287ED1022250
:102EE0002946189800F076FA2988684681811521CC
:102EF000490201820784012686734E2108A8817049
:102F00000024C470067107214171867103A902A8CB
:102F100002F068FA002861D1022202A91E9800F08E
:102F200059FA082F02D26846478502E00820694610
:102F3000488569460C850B4628880AAA098902F04B
:102F4000EFFB00286DD13E496846018202270784C5
:102F500008A8847103A902A802F044FA002860D1ED
:102F6000022202A91F9800F035FA684604706946EB
:102F700044704F850B4628880AAA098902F0D0FBC5
:102F800000284ED108A8007BC00723D02C496846F2
:102F9000C91C01820821018408A88770047103A953
:102FA00002A802F01FFA00283BD1FF216846C17138
:102FB0008171C17081704170017044710471694602
:102FC000082048850B4628880AAA098902F0A8FB30
:102FD000002826D108A8007B800600E021E022D549
:102FE0002988684681811649A53101820684867345
:102FF00008A88770C470047107214171847103A906
:1030000002A802F0EFF900280BD169460E700C857A
:103010004E850B4628880AAA098902F081FB002800
:1030200001D0472032E708A8007BA87000202DE7D8
:10303000626C75656E72672178060020EF060000ED
:10304000012A0000FFB5002099B0239A0B9012903E
:1030500005461490064615901C46DB480B46006852
:10306000DA49229F41180391002108910991518862
:10307000069111880A913B2149014018007DC00743
:1030800006D00FA9184602F01DFC00280AD102E064
:1030900047201DB0F0BD10AA0F991B9802F02AFC22
:1030A000002801D06020F4E71998002803D06007B9
:1030B00001D5012000E000201390A007800F1C9094
:1030C000109817902030C078012840D11798C04B35
:1030D00001899942F9D11798069904680A98228CB7
:1030E0004118914233D8204620301690807801282C
:1030F00016D0E08B04901798806900788006800FC6
:103100007ED0039840301890007A800778D51C98BC
:103110000028F5D0AE4F0F99FF372031206814E01A
:10312000BA4214D3B942DDD80497E4E70389A84A28
:10313000934203D12322125C012A08D0BB4203D15F
:103140002322125C012A03D000688842EED134E1C8
:1031500005900028FBD09C480921026809025118FB
:10316000496B0027009162E0780100990390085AAA
:1031700001055AD01999002901D0884255D10599E5
:103180007A008B69511C595C9A5C0902891889B2D2
:103190000D91890749D00222059902F0BAFB002857
:1031A00004D01998002840D0652072E7002008A9B3
:1031B000C8551C98C00718D0179880690078C006B9
:1031C00013D50D98C00710D00120C8550543009AAB
:1031D000039880184088159A904206D91590009A55
:1031E0000398105A0005000D14901C9880071CD5F8
:1031F000179880690078800617D50D98800700E041
:1032000083E012D50220CA5D05430243CA550099E6
:103210000398401840881599884206D9159000995E
:103220000398085A0005000D14907F1CFFB26648F1
:103230000068A030037BBB4296D8002D65D018985B
:10324000007A00065FD4604801680920000208186F
:10325000416B00201BE042018E5A360515D0AE07A7
:103260000BD556183669B7070DD408AF3F5CBF07BA
:1032700003D5360701D546200BE7EE0705D05218D7
:10328000127CD20701D0432003E7401CC0B2834226
:10329000E1D81598C01E86B20498864200D9064629
:1032A000A8070FD520220020149902F05BFB129092
:1032B00000287DD0F01C82B20021129802F074FB2D
:1032C000002811D1E80720D020220020149902F014
:1032D00049FB0B90002807D0F01C82B200210B980C
:1032E00002F062FB002810D0802001F0BFFF12988E
:1032F000002802D0002102F05FFB0B98002802D0CA
:10330000002102F059FB6420C3E6A1690A98069ADD
:103310000818249900F05EF816988078012801D1E9
:103320000498E083002D46D0274B0920196800023D
:103330000818416B002008AA0CE04301CF5A3F0552
:1033400006D05F18BC463B69175C3B4367463B6150
:10335000401CC0B21C4B1B68A0331B7B8342ECD8C3
:10336000A8070DD512980090F01C82B221461C319E
:103370000220A36902F03EFB0220129902F059FBE1
:10338000E80718D00B980090F61C2146B2B21C3109
:103390000120A36902F02EFB1398002805D00B989A
:1033A0008021C07C08430B99C87401200B9900E070
:1033B00005E002F03EFB00206BE6422069E680203B
:1033C00001F054FF9FE70000780600202C07000062
:1033D00003280000FEB504000D00160001960095BC
:1033E0002700019A00993800FDF74EFE3800FEBD17
:1033F000FEB504000D001600019600952700009A06
:1034000001993800FEF7C2FF3800FEBD70B5060016
:103410000D00140022002900300002F031FB70BDC5
:1034200070B586B014461D460A4603466946881C98
:103430000A9E02F034FB002804D1012C04D0022C97
:1034400002D0422006B070BD23462A466946304667
:1034500001F018FFF6E7F0B587B01C460B460546AD
:1034600000A9023101A80C9F0D9E02F018FB002854
:103470000ED16846058084828775C6750E990176DF
:103480000F994176109981766946119801F0AAFF4B
:1034900007B0F0BDF0B5154A412312685B01D3189F
:1034A0001A6C154608321F2901D93020F0BD0024BE
:1034B0009E6B1F6C365D3E55641CE4B2082CF7D33E
:1034C000002405E00678641C1670401CE4B2521C0F
:1034D0008C42F7D3186C891D4170986B9D631864FA
:1034E0008033186A45800020F0BD00007806002077
:1034F000F0B5054600200F46079E059C174309D0EE
:10350000202905D30127BF03BA4201D8914201D92E
:103510004220F0BD194621430AD09C42F8D3094904
:103520008C4203D00849A41F8C42F1D2062BEFD362
:10353000002D03D0022D01D0032DE9D1032EE7D8B1
:10354000F0BD0000FFFF00007B0C0000F0B58DB067
:103550000C4616A9E0C90021089109910A910B9126
:103560001599049105A9E0C112A962C900930191BE
:1035700013460146039602952246012002F0A2FA64
:103580000DB0F0BD70B5054602F056FB040019D031
:10359000208AC00416D520222946002002F0E2F934
:1035A00005000DD00146204602F064FB284602F0DB
:1035B00069FB01212069090388432061002070BD57
:1035C000642070BD462070BDF3B589B00D4602F091
:1035D0006FFB8002800A01218905084300226B46A7
:1035E0001024114601E0032A04D2D7000646FE400B
:1035F0001E7000E01970521C5B1C641E2406240E11
:10360000F1D1002304AA6946099800F045FD032280
:103610006946281DFFF7DEFE032204A9681CFFF798
:10362000D9FE012028700BB0F0BD7047F0B5A1B0F5
:1036300001780E91456881681091C76801691C91F5
:103640004069002417940490FF26169415941E9444
:103650000894A81CFFF772FA297800024906C90FDE
:1036600008433860681DFFF769FA0002000A7860B5
:1036700028460830FFF762FA29780002C909084392
:10368000019028460B30FFF759FA0002000A029019
:10369000786800021A90800F012802D1387801283A
:1036A00000D00020129002980002810F012903D15E
:1036B0000199C9B2012900D0002114911A99890FEA
:1036C00002D13978012900D000211991800F03D14E
:1036D0000198C0B201281FD000212878FF4B0507B0
:1036E000186807900246FF321B321F92FC4A2D0FCA
:1036F00082181D92002211920F920C9201221892B0
:10370000E0301B92027C0B92002A00D0012213921F
:103710000B9A012A02D005E00121DEE7407C002857
:1037200000D101240E98002811D001284ED0032D7D
:1037300002D0052D00D001240498007E03286ED00D
:1037400002286DD001286CD004286AD09BE0032D9C
:1037500006D0052D04D0042D04D0012D05D009E09C
:10376000012407E001200F9004E01398002801D104
:103770000120119010981590801C17901098083017
:103780001690049820300079032810D001280ED01C
:1037900000220C92049200280BD0012809D00020AE
:1037A00018900B98012806D0012D09D09FE0012226
:1037B000EFE70120F4E7012D74D1002900D00124A6
:1037C0001498002801D101201190BFE0002D02D0F3
:1037D000012D00D0012404982030007901280ED05A
:1037E00000220C92199A002A01D0002809D0012247
:1037F0000492149A002A06D0012D09D01CE001225F
:10380000EFE70022F4E7012D16D10B9A012A09D027
:103810000B9A002A0ED0149A002A0BD00CE02BE051
:1038200028E02BE02323079A5B01D2181279012AA2
:1038300000D1012401221192129A002A02D00B9A7F
:10384000002A06D1002801D101220F92129A002AE3
:1038500007D00B9A012A45D1002805D101201E90DE
:1038600002E00B9801283DD1012D77D100296DD0C0
:1038700001246BE0052D06D1012404E012990029F2
:1038800008D0002A06D000210F91032D04D0052D69
:1038900009D00FE00121F7E704992031497BC907DE
:1038A00006D107E023E004992031497B890701D53F
:1038B00001210C910C990491012111911099891CFD
:1038C000179110990831169110991591012A07D175
:1038D000012801D0042803D11999002900D001241E
:1038E000052D28D0012D31D00E98012836D01798FB
:1038F000FFF724F91599000209784906C90F084312
:1039000009901798C01CFFF719F90002000A0A90E5
:103910000E98012822D01698FFF710F91599000289
:103920000978C90908430D901698C01CFFF706F9DD
:103930000002000A1EE012990029D8D0012801D007
:103940000428D4D101200890D1E707E0012107988D
:1039500089024018C16D0991006ED8E71C98016971
:1039600040690A02C303DB0F00041A43000A090E70
:1039700008430D921090002C72D11298002865D047
:103980000B98002813D0139800285FD01A99386834
:1039900002F098F9514B01469D221868D200821816
:1039A000FF2905D0FE2926D0C8008018C67981E0FD
:1039B000052D02D10E99022904D0F221095CFF29BC
:1039C00013D018E00121384602F0A4F941087F29FC
:1039D00003D0C1001D980818E8E708990498084327
:1039E00001D0012466E0002464E01121890141181E
:1039F000497EFF2903D00E9901291DD013E0FF3025
:103A0000072239460130FFF7E5FC344900200968F8
:103A1000F222505408464030C279EF231A40C27156
:103A20000E98012801D0049C44E02320400108188E
:103A300005E001200F903DE0232149014018C079A5
:103A40000228CED20C980028F3D0CAE71998002893
:103A500002D00B98012804D0139800280CD104E060
:103A60002FE00020049C1B9024E0232107984901AB
:103A70004018007A00281DD01A99386802F0D2F94F
:103A8000FF2817D0C1001D980818C67937201F9944
:103A900070434018017D002900D001212030807D35
:103AA000002803D00020002902D003E00120FAE71B
:103AB000002896D109480168112080010818067570
:103AC0004675139800284ED0FF2E10D00898002875
:103AD0000DD0024801681120800103E07806002023
:103AE0006C0400000818807DB04200D001241E98AC
:103AF00000280BD0FF2E09D0364801681120800124
:103B00000818807EB04201D0012445E0002C43D14A
:103B10001498002829D0012D27D12E4B019A18681E
:103B2000C11DF9310D69AA4205D1029A49691202F3
:103B300009028A4219D01125AD014119497E189C0C
:103B4000FF2910D1FF30072201A90930FFF742FCFD
:103B50002048EF23016808464030C2791A40C271FC
:103B6000002049194876002C16D11B98002813D044
:103B70000C98FF2E07D000280ED0372046431F9800
:103B80003018807806E0002806D07868010238688E
:103B900002F070F90028B7D00F98002807D00D98D0
:103BA0003968884210D11098796888420CD1002C6D
:103BB0000AD1119800280AD001990998884203D1A6
:103BC00002990A98884202D0012021B0F0BD00205D
:103BD000FBE7000078060020F8B502F077F9434CC7
:103BE000074621680A468031886FCB6F381A18184B
:103BF000C8674B6F000B984236D30020E032C8678D
:103C00005074107C00282BD00025232676010BE071
:103C10003721694308180146FF31FF304031303009
:103C2000FFF7D2FC6D1CEDB220688119097AA94218
:103C3000EED800250BE03721694308180146FF3113
:103C4000FF3047311F30FFF7BFFC6D1CEDB220681D
:103C50008119097AA942EED8216801208919887151
:103C600021680120E03148742068F8210F5072B6B5
:103C700001464031CA7910231A43CA7162B601461F
:103C8000E0310A7C002A24D0897CFF25002906D156
:103C9000FF30013002F03EF82068E03085741126D4
:103CA0002168B6018819407EFF2813D0372250437F
:103CB0004018FF30FF3100223030093102F010F996
:103CC000002808D0216800208919C875206880194B
:103CD00045760020F8BD206801218219FF30D1759A
:103CE000013081680161C1684161EFE77806002019
:103CF000FFB595B0002675480296039600881746D2
:103D00000D4672494007C00D0C314018C089012191
:103D1000490740184088FF2344186D481121006866
:103D2000890141184A7D3721514309181B335B5CD7
:103D30000793E3799B09012B04D123785B0601D516
:103D4000012300E00023069323235B01C018407980
:103D5000012817D9FF2A15D01598002804D0607BB8
:103D60008009012805D00DE00622FF3102A841316B
:103D700006E02078000605D521460622083102A873
:103D8000FFF728FB0698002836D03C2F00D105AD60
:103D90004F480168112080010818407DFF2826D077
:103DA0000622A11C6846FFF715FB07984949C60083
:103DB000474806220068301841182846FFF70AFBDA
:103DC000434801682320721840011018007B3722F5
:103DD000801CA871112080010818407D50434018B4
:103DE000FF300622A11C4830FFF7F4FA06E0062255
:103DF000A11C2846FFF7EEFA009601963448A4214C
:103E00000068095CC90701D0002600E010260C9765
:103E1000189F15990991696808950902090E0A9178
:103E200002A90791694606911E9913911F99129153
:103E3000209908230903090C119121998036C9B2F0
:103E40000F91F10603D50B22BF210E4009E0372167
:103E5000490141184A78920635D5C978890732D583
:103E600009223107890E08180121C902401840694A
:103E7000314602F04FF8040025D00C982071E780FD
:103E8000099820720A9860722046251D06220A3081
:103E90000899FFF79FFA284606220C300799FFF78A
:103EA00099FA2846062212300699FFF793FA1398DA
:103EB0002883129868831198A8830F98A8772146C1
:103EC000304602F085F819B0F0BD0000C0000020B7
:103ED000780600206D040000FFB55B49964609682E
:103EE0005A4A8DB08D18372252018A18944652785A
:103EF0001127169B04920C46BF010020179E9206C4
:103F0000A034CF190833002A3DDA6246D27852072E
:103F100039D50D9A012A36D97246012A33D10E9A23
:103F2000002A30D03A7D0120FF2A19D06F4649C7B8
:103F3000372042435018FF300130807EC0004118C6
:103F400043480B182079C00701D0002000E0102062
:103F5000A12108437146109A10E0012011B0F0BD74
:103F6000694649C12079C00701D0002000E0102037
:103F7000A121169B0843012271469B1C02F03CF8CC
:103F800000285CD1E9E7F022525C012AE6D13F7DAE
:103F9000FF2FE3D02079C00701D0002400E01024D7
:103FA000A12004437046079010980990372047439A
:103FB0007818FF300130807E0593C00042182448F5
:103FC0000B96101808901898029003221330104393
:103FD000401C8308E00603D50722BF20044007E009
:103FE00004988006B9D5604680788007B5D505224B
:103FF0002007800E40180121C9024018406921465F
:1040000001F088FF06001AD0079830710998707186
:104010003546371D18350622B01D0899FFF7DAF925
:1040200002983872FD602846029A0599FFF7D2F986
:104030000B9838743146204601F0CAFF8DE7296A93
:104040000020087089E700007806002004090000BD
:104050006D0400007CB50446E1200D46800002F0AE
:1040600011F80BA103C900900191684602F01CF8F9
:10407000012002F039F8002801D047207CBD2078CB
:104080002021084320700920287000207CBD0000FA
:104090001F0200000000000030B50D461D49144607
:1040A00009684122520189180922D206096D126954
:1040B00091B0891A184A09021288090A12070AD50A
:1040C000002B08D1154AFF39914204D322462946D4
:1040D00002F00EF81AE00146102204A8FFF77AF960
:1040E0001022294608A8FFF775F904A8009008A82F
:1040F00001900CA80290002069460873684602F0FF
:1041000037F810220CA92046FFF764F9002011B0FF
:1041100030BD000078060020C000002002FF7F00B4
:1041200038B51048002104680846AE3402F05AF849
:10413000694648702079C10704D001216A46117090
:1041400088432071C0B2810705D502216A461170EB
:10415000FD210840207102216A46084602F060F9FC
:1041600038BD000078060020FEB5394909220968EB
:1041700012028A18136B582242439C1841225201A2
:104180008D183449800146182289208F2021895DAD
:10419000521C228140006269002700B2101A60613F
:1041A000F07A4018C0B2252800D32538F072A079E3
:1041B000C0072ED0284640300090408E2189401AFA
:1041C0000004000C25D123480C3800884007400F1C
:1041D00002F060F98446A07940084000A0712846AA
:1041E000C030017A4908490001720099A3894A8DBB
:1041F000C98D0905090C934205D1A3698B4202D1EF
:104200006346002B01D0402701E008238373A2817D
:10421000A161A079800719D57620405B2189401AD9
:104220000004000C12D18021495960350091A97E0B
:104230000191A179FD221140A17131466846052204
:10424000213102F04DF90120400507433846FEBDFB
:1042500078060020CC000020F0B58FB007684168D8
:104260000A917949794A0968008989180B910121D5
:10427000099100210891400514D50B988469C669FD
:104280002078617B05072D0F8909012903D1C00919
:1042900001D0012000E000200890022D0CD9062D4D
:1042A00008D109E00B983C6B066A207805072D0FB2
:1042B000042D01D000200990E0798009012804D163
:1042C0002078400601D5012100E0002160480170FE
:1042D000E020C05D00283DD00120864600208446B5
:1042E0003078132100901DE000200D904218231813
:1042F000B25C9B789A4201D001220D92401CC0B260
:104300000628F3D37046002804D00D98002801D069
:10431000012000E000208646891F6046401CC0B294
:10432000C9B2844600988445DED3704600287AD00E
:104330000098401CC0B2042800D90420307012221A
:10434000711CF01D02F0CCF8314606221331A01C7E
:1043500002F0C6F8062D02D0022D02D002E002259E
:1043600000E0032520784006C00F0490012D0AD0FC
:104370006078801FC606F60E3348F0210068095C9D
:10438000012914D02FE000266946204602F0B1F83A
:104390002D480068E030007C0028EDD10098396895
:1043A00088424FD10198796888424BD11BE0112196
:1043B000890141180A7DFF2A15D025490B78012B68
:1043C00001D102234B7037235A431218FF320132B6
:1043D000927E4978D2001018232252018018007B67
:1043E0004018C0B20490099800282BD00A982037B2
:1043F000807B02960094019038792A46049B0899A4
:10440000FEF762FA00281DD10A982146807B0290AF
:1044100008310D48009601910068A0300079C0076E
:1044200002D0002001E00DE01020A1210843A31CD0
:104430002946049A02F068F8002803D00B9800215E
:10444000006A01700FB0F0BD78060020040900007A
:1044500082060020FEB52D490B68412149015C18F8
:104460000921090259180A6B7B2109015D180126EF
:1044700001E0401CC0B2082842D22F7D3146814065
:104480000F42F6D058214143891889784907490FCE
:104490000529EED10021009101917D2521466D0273
:1044A000C0314D818873582148438518184605222C
:1044B0006946483002F014F88020009901517A21B1
:1044C00001980855A88906222989504309300818FF
:1044D00087B2696B0E480860686B0522876068794F
:1044E00030436871696B6846C91C01F0F9FFA8790F
:1044F0000221C006C00E0843A8714034E786FEBD05
:10450000C034207AFD2108402072FEBD78060020CC
:104510000308010002780907090F0A43027000200E
:104520007047704730B50E4885B005682C46AE35EB
:104530002879BA34400711D5E87A01280ED115211F
:104540004902684641800121017060886B46054A36
:1045500002F024F8002801D10220E87205B030BD35
:1045600078060020FFFF000003480249C1600349AC
:1045700041617047A9E0041058060020D1D9041009
:104580007FB5AC218172817B05468A072A350446B6
:10459000002A09DA102200216846FEF729FF694641
:1045A0002B460A46AD250FE0C80701D1480719D5AB
:1045B00021464A312246E07A5232000701D52B4685
:1045C00001E023463A33AE2520890005000D02F0B4
:1045D00025F800280BD03A2801D00C2800D1002063
:1045E00004B070BDC808C000A0734620F8E7A17BE6
:1045F000CA0703D010221143A173F125C9B2C9081B
:10460000C900A173A572EBE710B57421095CC90755
:104610000BD1817AA42909D0AC2916D0AF2904D1B5
:10462000417F002914D0D021817210BD0446102191
:10463000543002F061F8E07A0007204602D5FEF718
:1046400020FA10BD02F068F810BDFEF795F910BD14
:1046500002F095F810BD10B504684168A268FF200B
:10466000137B8A7A002A0DD0F12A0BD0A12A0FD011
:10467000A52A13D0A62A04D1042B02D1204602F089
:104680009BF810BD0B2BFCD1204602F007F910BDA2
:10469000022BFCD1204602F043F910BD032BFCD1C4
:1046A000204602F073F910BD10B50146807AA928A2
:1046B00002D1002002F06AF910BD70B514460D4613
:1046C0000646FEF7ADF9002805D0224629463046B9
:1046D00002F088F970BD112070BD704770B51349A4
:1046E00009220968120200208B18AC22525C1AE0E1
:1046F00058241D6B44432C1954252D5DED0610D50F
:10470000412040010818C030428A018A608902F0C5
:1047100069F93A2804D04034207DEF210840207503
:1047200070BD401CC0B28242E2D870BD7806002045
:10473000FFB50746464881B000880D464549092225
:104740000968120240078A18400F126B5823584319
:104750001418412040010E18FEF762F9002822D0FB
:10476000142D04D0152D20D0072D59D05CE0214602
:10477000039802F095F90121206989040843214634
:1047800040312061087D022210430875820609D558
:104790006279520852006271DF2210400875002FC2
:1047A0004ED151E0012005B0F0BD25464035287DB1
:1047B000C007F7D02146039802F072F9204600F0B6
:1047C00085F8002825D0A18FE08F814200D20846CD
:1047D000E8806989A889814200D2084668822A89CE
:1047E000E9898A4200D211462982628F2888824252
:1047F00000D21046C9080E3989B26880884200D3B9
:104800000846A880049800680121490608430499D5
:104810000860287D400840002875002F10D113E063
:104820000398C078142802D0002005B0F0BD4034B1
:10483000207D04214008400008432075002F03D04C
:104840000820C036F073ADE70820C036B073A9E782
:10485000C000002078060020F8B51C4615460E461C
:104860000746FEF7DDF8002805D002F035F90028EC
:1048700003D00C20F8BD1120F8BD1249412209686F
:10488000520189183A4600201B3AE12A00D3302011
:104890003346FF3B0C4A493B934200D330202B4622
:1048A0001B3BE12B00D330202346FF3B493B934287
:1048B00000D3302072B6C0318F82CE820D834C83FC
:1048C00062B6F8BD780600200107000070B5014609
:1048D000403004884A8F0025944200D31446C28990
:1048E00003899A4200D21346CA8F898F8A4200D325
:1048F0000A46868941898E4200D231464688A642C0
:1049000000D00125C488944200D00125028A9A4231
:1049100000D00125408A884200D00125284670BD7C
:1049200070B5032102F0FEF8082801D3022070BD03
:1049300026490922096812028918096B5822504336
:104940000C186079666B800701D03A2070BDE18F4A
:10495000A08F02F02BF925464035E880A9896889A7
:1049600002F024F968822988608F02F01FF96880BC
:10497000E989288902F01AF92882C0080E3881B224
:10498000688802F013F9A88011483060656B2046F2
:1049900002223C30E91C01F0A3FD20460222691DE1
:1049A0004A3001F09DFD20460222E91D3A3001F017
:1049B00097FD2946204602220931483001F090FD3A
:1049C0006079012108436071002070BD78060020E5
:1049D00003091500F0B5574D1B2029688001081800
:1049E000007E91B080076FD502F0FAF801286CD1F3
:1049F000002402F0C3F9064602F0FAF8012800D1BB
:104A0000032430007ED0372702267F01012802D000
:104A100002287CD13BE06946022002F07BF90320AA
:104A200008A902F077F9002C06D17921286809013C
:104A30004118012002F06EF92868A421095CC90719
:104A400001D0002100E010210E436946112310918E
:104A5000F10603D50922BF210E4007E0C1194A78AB
:104A6000920654D58978090651D507223107890E57
:104A700009180120C00208184069314601F04AFABD
:104A8000070044D0381D3C714022109936E0694639
:104A9000022002F03FF9002C04D02022FF216846BA
:104AA000FEF7A6FC2868A421095CC90701D00021F3
:104AB00000E010210E43694609230891F10605D54F
:104AC0000A22BF210E4009E029E030E0C1194A78EE
:104AD00092061CD5C978C90719D008223107890E5A
:104AE00009180120C00208184069314601F012FA85
:104AF00007000CD03C71381D08992022401CFEF79D
:104B000069FC00E003E03946304601F061FA1B2001
:104B1000296880010818017EFD221140017672B6D5
:104B2000286880224030C1791143C17162B611B04A
:104B3000F0BD00007806002010B5012813D10A4C02
:104B400008222068817E11438176202207493C306B
:104B5000FEF740FC05492068202220315C30FEF73A
:104B600039FC02F015F910BD7C060020606D0510BF
:104B700030B50446C07A0025000710D5208902F020
:104B800017F9002801D0082509E0E07A012108433F
:104B9000E072044804220068817E11438176284631
:104BA00030BD00007C06002010B50A4C2068807ED5
:104BB00041060DD5902108420AD102F019F90028CA
:104BC00006D12168BF22887E10408022104388765B
:104BD00010BD00007C06002070B504680579E07AFD
:104BE00000072FD5208902F0E3F8E17A490849004F
:104BF000E172154C002804D12168FB238A7E1A40FB
:104C00008A762168002D05D0CA7E1032CA76002827
:104C100004D007E0C87E401CC87603E0887ECF221F
:104C20001040887620680321C07E05090007000F28
:104C3000FCF750FA4019032804D302F0F7F8216872
:104C40000020C87670BD00007C06002070B50D4DB8
:104C50000178441C2868827E5206520E8276002912
:104C600002D002F0E3F870BD02F0ECF8002802D0A8
:104C700002F08EF870BD2868402221463C30FEF7D5
:104C8000A9FB70BD7C06002070B51A4C0278236821
:104C9000411C987EC00626D5002A05D01648002162
:104CA0000068A030027B21E018462022D030FEF7B9
:104CB00091FB20682022817E114313E07C20DD6F70
:104CC0004843281810D00589002D0DD0C57A2D062F
:104CD0000AD5012300220B2102F0BCF82068CF2264
:104CE000817E1140817670BD491CC9B28A42E5D8E7
:104CF00070BD00007C0600207806002010B50B4A2D
:104D0000016812688968927D4068C97B022A03D1D4
:104D10000A0701D4032010BD1823C27ADB431943CC
:104D20000A40C272FDF789FE10BD00007C0600201B
:104D300010B5C17F012908D0042906D0022907D067
:104D4000032901D102F09CF810BDA521817210BD8C
:104D5000C17B491CC17301F0DFFC10BD10B5C17FE0
:104D6000012908D0042906D0022909D0032901D13C
:104D700002F086F810BD0146002002F0C7F810BD11
:104D8000C17B491CC173B521817210BD38B514C8EF
:104D9000D07F02280FD10848D17B0068491E0369E3
:104DA0000094CB40DB070146DB0F90313C3054329E
:104DB000803302F0E8F838BD7C06002038B514C80E
:104DC000D17F0023032904D00C480229006804D0B5
:104DD0000AE0AA209072EB2038BDD17B0369491EFE
:104DE000CB40DB07DB0F803301463C31903064322F
:104DF000009402F0C8F8002038BD00007C060020B6
:104E00001CB50446C07F042806D0AA21022820D061
:104E1000012800D1A1721CBD01A8009010482346B2
:104E20000068224601466433543290313C3002F02F
:104E3000D2F8B920A07201A802F0F9F80949FCF7EC
:104E400049F920890A460105090D022002F0FAF805
:104E50001CBDE07B1428DDD2A420A0721CBD000084
:104E60007C06002040420F0038B514C80A48D17FA4
:104E700000230068022906D1D17B0369491ECB407B
:104E8000DB07DB0F8033014690313C306432009405
:104E900002F079F838BD00007C060020FEB50468F9
:104EA000416802918668C568BA2028700020306089
:104EB000E17F1F4804291ED002291BD10068E77B2F
:104EC00001697A1ED140CB07029900910146DB0FA0
:104ED000224654323C319030803302F054F821465F
:104EE00010222A310298FEF791FA3060142F01D275
:104EF000B4202870FEBD01A9009100682346014638
:104F00002246643354323C31903002F064F8B920C8
:104F1000287001A802F08BF80649FCF7DBF820891D
:104F20000A460105090D022002F08CF8FEBD0000C2
:104F30007C06002040420F0070B50446174801254A
:104F40000268402100203C3202F0A8F800280AD173
:104F5000134879210068090142182021002002F03D
:104F60009DF8002803D0002501F060FF0EE0E07AF4
:104F7000C1434906890F09D07421095D0025C9077D
:104F800006D0400602D5204602F098F8284670BDAB
:104F90008106FBD49B210840E072F4E77C060020E8
:104FA0007806002010B50446807AAA280BD0BA28CB
:104FB00009D0B92810D07420005DC00702D1204666
:104FC000FDF7ECFC10BD204602F0AEF80028F9D049
:104FD000012300220B210DE0E07F0428F2D1E07EC6
:104FE000410602D5BA20A07210BD0006FCD50123EF
:104FF00000220C21204601F02DFF10BD10B50368E2
:1050000041689A68FF20147B8A7AA22A0BD0B22AC0
:1050100009D0AB2A01D0BB2A04D10D2C02D11846ED
:1050200002F0D4F810BD0C2CFCD17422525CD207D3
:10503000CA7A05D05206F5D4184602F001F910BD1F
:105040009206F9D410BD7047F8B5026841689268BD
:10505000FF20137B0E2B13D1CB7ADB0610D5CB7F31
:10506000022B0DD14B7E022B0AD174235B5CDB0734
:105070008B7A06D0B22B0AD0B42B08D0B52B06D031
:10508000F8BDA22B03D0A42B01D0A52BF8D1088901
:10509000372105050D484901006802264118C97AE3
:1050A0002D0D547B012349060ED502218F020830B5
:1050B000C0191C22406900F02DFF010004D08D8032
:1050C0008C71304600F084FF0020F8BD7806002087
:1050D00070B50646462502F007F904001CD0208A68
:1050E000800519D420223146002000F03BFC060048
:1050F00011D001460025204602F002F9A1212069C5
:105100008901084320610548A0610320A07330464F
:1051100000F0B8FD00E06425284670BD5D6505100F
:10512000FEB50488418801918688C788008900906F
:10513000204602F0FBF8050066D0E878002863D02E
:10514000A8780007400F01D046255EE020222146C6
:10515000002000F007FC040048D001992C48891F6A
:1051600081424BD8B11F814248D80198B04245D8FE
:10517000FF20F530874241D20099781C70438900A6
:1051800088423BD822490098091F0A38884235D8FE
:10519000A06812210173A068E9784173A068082112
:1051A0008173A0680021C173A068019901740199FD
:1051B000A068090A4174A068310A8674A068C174A5
:1051C000A068390A0775A0684175A06800998175C3
:1051D0000099A068090AC1750C20E08021460520CD
:1051E00002F0BEF8002803D0412508E064250CE059
:1051F000A87806210843A870002506E04225002172
:10520000204600F0D9FB00E042252846FEBD000004
:105210007A0C0000044A092312681B02D218D26AD1
:1052200040008018417070477806002070B5054630
:105230000024204601F0BCFD002801D0462404E0F3
:10524000012D02D10120FDF7F1FB204670BD0023A6
:105250000360436041720272C372837270470860D8
:1052600042684A60426811604160704704490A68B8
:105270003B21490151180A7D02430A75704700001D
:1052800078060020FFB58FB014460E78102205A8CE
:10529000891CFBF7F9FE4F484F490068451802F09A
:1052A00085F800281ED1002C57D0012E09D1684660
:1052B000808A4A49884204D12846A9680830814238
:1052C0004BD12846103029690390814209D00AA9A0
:1052D000284602F087F86846018D601E0D908142D5
:1052E00002D2482013B0F0BD284608300CA9049023
:1052F00002F078F86846008E002814D0EF680AA9FA
:105300003846183002F06EF8384620300CA902F00A
:1053100069F86846398D008D09186846008E401C72
:10532000081887B200E0012701200004C01BA0423A
:1053300001D26120D6E72C692868019012980128D3
:1053400002D0022803D008E00520C00200E0244873
:105350006085012E03D0022E05D04220C2E72046F0
:105360000830022202E020460830102205A9FEF78C
:1053700031F8204631462030064601730F98214609
:1053800007802785039802F037F821460498FFF735
:1053900066FF27461837E7616662A76126620D98A7
:1053A00084B20BE02846019902F026F838460199AC
:1053B000FFF755FF2868641EA4B20190002CF1D1BC
:1053C0000F9801880D98081882B2002002F024F886
:1053D000002087E7780600202C0700000118000055
:1053E00001280000F3B5A5B008881A9088780C460B
:1053F00011901022091D13A8FBF746FEA08A1090F9
:10540000A17D68460172E07D0F90207E2090677E2E
:10541000A07E1F90002006460146129020A8018120
:105420000F20BB4C2390BB4920684018199001F015
:10543000BDFF00280BD101211098490288425FD896
:1054400021A91A9800F03EFA002802D0602027B067
:10545000F0BD2198179002F003F81A9988420CD1F8
:1054600002A801901698009013AD0ECD119801F08E
:10547000FFFF002801D06320E9E76846017A88062B
:10548000800F05D0012012902068A030007B4600DC
:10549000C80703D01298401CB61C1290080603D50A
:1054A0001298401CB61C129017980DA918301D9028
:1054B00001F098FF6846129C808EA41CA04237D34E
:1054C00017980EA92030019001F08CFF6846018FDB
:1054D00000290DD01798179A6B46406A9B8E128D43
:1054E0005918808B5118081AA04201D26120AEE7EA
:1054F0001798846911982568012803D0022803D0E1
:105500004220A4E7052000E01320E0832A46394624
:105510000F9801F0E5FF422899D0199FE28B4037A0
:10552000788B398B411A109810188019814201DA52
:1055300048208CE70EA9019801F054FF6846008FBF
:105540000028179802D0406A808B00E0008D2599D2
:10555000401C0880259801210088A08325980222FC
:105560000088401CA8836C4820812046203017907A
:10557000C1700021817081711998398B406D40187C
:105580006946A061097A0170A06929461C31401C56
:10559000FDF720FF11980128A0697DD0102213A9E2
:1055A000C01CFDF717FF2846102213A90830FDF78D
:1055B00011FF388B133038832E4620361198F07047
:1055C0001098E8831F98B070109820841098288451
:1055D0001998398B406D4018A8610021109AFDF789
:1055E00007FF398B10980818388317990120087124
:1055F00017990020487130716846007A810701D5FB
:105600000121317101070227002902DA317939437A
:105610003171410703D531790422114331714006BC
:1056200003D530790821084330710F9870712098A4
:10563000B07121461D9801F0DFFE21460198FFF769
:105640000EFE29461D9801F0D7FE29460198FFF766
:1056500006FE1298002841D068461A998181A18BD4
:10566000C18107844784012408A8047122A80A90F4
:1056700008A88473239941730F993820014008A822
:1056800001730721C173002505746846007AC007BD
:1056900008D02248694600E02BE0088203A924A82C
:1056A00001F02AFF6846007A8006800F07D01B4869
:1056B0006946401E088203A924A801F01DFF684620
:1056C000007A00060AD5292109026846018208A845
:1056D0004473057303A924A801F00EFF25980188DF
:1056E0001298401C081882B2002001F095FE00209C
:1056F000ADE6022213A9C01CFDF76CFE284602226B
:1057000013A90830FDF766FE388B401D53E70000F3
:10571000780600202C070000032800000329000061
:10572000F0B5074617480E4600683B21490140186E
:10573000007D85B01D461446C00706D003A9384633
:1057400000F0C0F800280AD102E0472005B0F0BD03
:1057500004AA3046039900F0CDF8002801D060205B
:10576000F4E70499228860880968002A00D0088C30
:1057700032466E4631C6032339460020FDF762FCEF
:10578000E4E7000078060020F0B5454C09252668BE
:105790002D027019006E0027416B4248AE368DB065
:1057A000814242D00621684600F0A6FF694648794A
:1057B000C021084369464871206806224019006EDE
:1057C000243001F049FF0746102105A800F094FF9E
:1057D000206810224019006E05A9001D01F03CFF51
:1057E0000743102109A800F087FF20681022401904
:1057F000006E09A9143001F02FFF0146394313D17F
:10580000206829494019006E264F40188008810001
:10581000264808183946049001F062FF0498006891
:10582000B84201D1002700E0FB2722685019006E22
:10583000A63224300190062001460090002001F09D
:105840002DFC002802D12068A6300190701D009A1E
:105850000199FDF7BFFD22681026314600208032F5
:1058600001F01CFC002807D0206832464119096E5F
:105870008030091DFDF7AEFD2268314600209032D0
:1058800001F00CFC002807D0206832464119096E4F
:1058900090301431FDF79EFD38460DB0F0BD00008C
:1058A00078060020AAAAAAAA3400FCEF000004107F
:1058B00010B5034906220968B331FDF78BFD10BD11
:1058C0007806002010B5094A094B1268D21893686F
:1058D000083206E01C8D844202D100200B6010BD0E
:1058E0001B689342F6D1412010BD000078060020CD
:1058F0002C07000010B50B6A203106E09C8B844217
:1059000002D10020136010BD1B688B42F6D14120EC
:1059100010BDF8B516460D460746002401F00EFFEF
:10592000002806D032462946384601F02DFF0446AD
:1059300004E020356879002802D00E242046F8BD06
:105940002879C10701D1012E09D0810701D4022E87
:1059500003D04007F2D4042EF0D10324EEE7022452
:10596000ECE77047F8B50D460E49092309681B029C
:10597000C918CE6A1F21521E0A431D3297B2002455
:10598000394601F051FF00280AD13946B06801F0CC
:1059900073FF044608340068A0600020E074A5800E
:1059A0002046F8BD7806002010B5121D806892B21E
:1059B00001F07AFF10BD0000F8B50E460C4909222F
:1059C00009681202891808380746CC6A01F0A2FF5C
:1059D00005463946A06801F0A7FF72B67100605C09
:1059E000401B605420794019207162B6F8BD000058
:1059F00078060020F8B5069C1F4615460646002C82
:105A000013D0A06802220D30FDF7E4FCE81E82B23C
:105A10003B460721204601F0A2FFE580A068012E49
:105A200005D01D2101730020F8BD4720F8BD1B21C2
:105A3000F8E77CB50C4605466A4601A901F098FFD7
:105A4000002801D041207CBD6846E18880888142E1
:105A500000D9E08000980088A080204600F012F96C
:105A60000098012D07D001690822114302229143B9
:105A7000016100207CBD016949084900F8E7000088
:105A8000A446521E08D303780C78401C491CA3423C
:105A9000F7D0181B6446704700206446704770B505
:105AA0001C4613460D46012C03D0022C03D0422085
:105AB00070BD022200E010221946FDF78BFC2C700D
:105AC000002070BDFFB595B00E46054620210CA8FC
:105AD000FCF76CFC00200490564800270468681E00
