:020000041004E6
:1000000000600020CD070410C1000410D7000410C8
:10001000AA5555AA45554C420000000000000000BA
:10002000000000000000000000000000ED000410CF
:10003000000000000000000003010410190104107A
:100040002F01041045010410000000000000000012
:100050005B01041071010410870104109D0104105C
:100060000000000000000000000000000000000090
:1000700000000000B3010410C9010410DF010410E6
:1000800000000000F50104100B020410210204100E
:10009000370204104D020410AB0704106302041071
:1000A0000000000000000000000000000000000050
:1000B0000000000000000000000000000000000040
:1000C00080B56D4800686D49884203D008300068EB
:1000D000804701BDFEE780B56748006867498842F0
:1000E00003D00C300068804701BDFEE780B5624850
:1000F00000686249884203D02C300068804701BD07
:10010000FEE780B55C4800685C49884203D038301F
:100110000068804701BDFEE780B557480068574931
:10012000884203D03C300068804701BDFEE780B5BF
:10013000514800685149884203D0403000688047E8
:1001400001BDFEE780B54C4800684C49884203D0A9
:1001500044300068804701BDFEE780B5464800682E
:100160004649884203D050300068804701BDFEE711
:1001700080B5414800684149884203D05430006846
:10018000804701BDFEE780B53B4800683B49884297
:1001900003D058300068804701BDFEE780B536487F
:1001A00000683649884203D05C300068804701BD52
:1001B000FEE780B5304800683049884203D074308B
:1001C0000068804701BDFEE780B52B4800682B49D9
:1001D000884203D078300068804701BDFEE780B5D3
:1001E000254800682549884203D07C300068804754
:1001F00001BDFEE780B5204800682049884203D051
:1002000084300068804701BDFEE780B51A48006869
:100210001A49884203D088300068804701BDFEE754
:1002200080B5154800681549884203D08C300068B5
:10023000804701BDFEE780B50F4800680F4988423E
:1002400003D090300068804701BDFEE780B50A48C2
:1002500000680A49884203D094300068804701BD95
:10026000FEE780B5044800680449884203D09C300A
:100270000068804701BDFEE7100000200000041068
:100280000023DB4300E0001D884204D202689A424A
:10029000F9D0012070470020704738B505000C00E8
:1002A00003E0A8B200F07CF86D1CA9B28C42F8D231
:1002B00031BDF8B5324C334833490025334A136811
:1002C000002B02D10B68002B1CD0314B16689E42CC
:1002D00002D10E68002E15D016689E4202D10E681B
:1002E0009E420FD01668002E04D10E680027FF43EF
:1002F000BE4207D016689E421AD10E680027FF43FF
:10030000BE4215D1060023492348FFF7B9FF002854
:1003100007D0224804607C213F20FFF7BEFF1F4822
:100320000560301D0068316881F308888047FEE76A
:100330001668002E02D10E689E420DD00026F643AC
:100340001768B74202D10F68002F05D01768B7426F
:1003500010D10F689F420DD10F4E1139FFF790FF5A
:100360000028DED00D4F3C603E210120FFF795FFB5
:100370003D60D6E71068B04200D10868FEE7000093
:10038000CCBCECFC0008041010F805101008041098
:10039000AA5555AAFFE7071000F805101400002021
:1003A00008490968084A91420AD108493F220A814E
:1003B0004006000C886111200880088AC007FCD51F
:1003C0007047000014000020CCBCECFC0000104082
:1003D000FEB501243448017801220A430270002648
:1003E00032480660032500F073F8694608806846C5
:1003F0000088002801D16D1EF5D1684600882028AC
:1004000036DB684600880125400525D4684600F0A3
:10041000BDF868464178090180780843122800DA5F
:10042000002523480068000705D4002D14D00120C2
:1004300000F020F810E01F4FF8681F4E3168081ACE
:10044000283800020012002806DD002D02D001200D
:1004500000F010F8306838601848047000F0EDF8CB
:10046000BFF34F8F164817490860BFF34F8FFEE761
:100470000120FEBD70B580214902144B9CB20C4393
:10048000114A002804D01460106808400AD0FBE725
:1004900098789D78FB262E409E70146014680C405E
:1004A000FCD1987070BD00000800204014000020AE
:1004B000C000002004000048180000200C000020AC
:1004C0000400FA050CED00E00C0000481C000020C0
:1004D0002B4802782B4801880020002A44D10922A9
:1004E0000A40092A00D1202011220A40112A02D1F3
:1004F00002004020104321220A40212A02D102009A
:100500008020104341220A40412A03D1020080206A
:100510004000104381220A40812A03D1020080203A
:1005200080001043FF22921C13000B40934203D122
:1005300002008020C0001043134A13000B40934276
:1005400003D1020080200001104305220A40052A41
:1005500002D10200102010438907890F03290ED110
:100560000100082008437047022A01D1012070478A
:10057000042A01D102207047082A00D104207047C4
:100580000800904008001048010400000F21114AA3
:1005900013681B090B404370136819408170D268BF
:1005A000426001210C4B9A4208D10C4A12680C4B54
:1005B0009A4201D1042202E0022200E001220270EC
:1005C0004278002A00D1417006490988491C8900F7
:1005D000816070471C00904041A000021C00001088
:1005E00044A000F214001040EFF31482EFF30981ED
:1005F000002080F31488BFF36F8FF0B543464C465C
:1006000055465E466746F8B4164CEFF30883236000
:1006100006B4154C2068154C2060154C2068154C0C
:100620002060154C2068154C2060154C2768002070
:100630002060BFF34F8F30BF27600A4C246884F3DB
:10064000088882B003BCF8BC9846A146AA46B346C7
:10065000BC46F0BC04BC80F3098881F31488BFF366
:100660006F8F10470800002004ED00E024000020F8
:1006700024ED00E02800002000E200E05C00002003
:100680000800204070B40123002413E00168001D1D
:10069000194202D04D466D1E49190C60091D121FEA
:1006A000042AFAD20D00960701D50C80AD1C1A4021
:1006B00000D02C700268001D002AE7D170BC704782
:1006C00030B501684118446862088A188368E407F5
:1006D00004D54C461B1901E0641C06D191420BD095
:1006E0000C7864B2491C0D78491C1D705B1C002CF1
:1006F000F2D4641EF7D5F1E70C3030BD10B50749D0
:1007000079441831064C7C44163404E0081D0A680C
:10071000891888470100A142F8D110BD08000000E7
:100720006400000061FFFFFF0400000008000020DB
:10073000040000000C000020040000001400002051
:100740000400000018000020040000003000002019
:10075000100000001C000020040000005C000020CD
:10076000000000005DFFFFFF7000000014000000AB
:10077000C00000204DFFFFFF6A0000000A000000DB
:1007800010000020FFF724FE002801D0FFF7B6FF7D
:1007900000BF00BF002000BF00BFFFF78AFD00F0D0
:1007A00000F880B500F002F801BD704707463846F2
:1007B00000F002F8FBE7000080B500BF00BF024A6E
:1007C00011001820ABBEFBE72600020000BF00BFEF
:1007D00000BF00BFFFF7D6FF8100810081008100CC
:0707E000F00003000004100B
:04000005100407CD0F
:00000001FF
:020000041004E6
:100800000060002043B30510F59D0510F79D05100D
:10081000AA5555AA45554C420000000000000000B2
:10082000000000000000000000000000F99D05101D
:1008300000000000000000000B3F0410FB9D0510AD
:100840001D9E05104F400410000000000000000035
:10085000759E0510FB400410899E05100792041038
:100860000000000000000000000000000000000088
:10087000000000002F9204107BA504103BA7041079
:10088000000000006342041067420410FB63041080
:10089000A76F0410D77704107BAE0410499E051093
:1008A0000000000000000000000000000000000048
:1008B0000000000000000000000000000000000038
:1008C000002101604160FE2292058260C2600161E8
:1008D00041618161C161016241628162C162016302
:1008E0004163894B8363894BC363016441648164C1
:1008F000C164016541658265C165016641668266C4
:10090000C166016742678167C1678022815002002A
:10091000853201231370517091708830016003712A
:100920004371817170470EB4F0B58EB00500784CFC
:1009300013AA90204000211804A800F013FF13AE62
:100940003200183296204000211804A8183000F018
:1009500009FF32000C329C204000211804A80C3002
:1009600000F000FF774F3878002800D194E01C9AFF
:1009700004A9200000F05EFC78691C9902F050FE8A
:10098000714902F04DFE0600624902F0A1FE00D856
:100990004E1E20008530019004A80C3000F0C0FFEE
:1009A000002852D1032104A80C3000F0D5FF00909C
:1009B00001980078002801D00098E0620098E16A70
:1009C00002F0D2FE03900146300002F029FE0290B0
:1009D000E06A029902F090FEE062FE20800531009C
:1009E00002F0C2FE06000398029902F019FE216B84
:1009F00002F082FE0100300002F012FE02002263CB
:100A0000454B0098190002F007FF14D3434E310004
:100A100002F05EFE0FD9E06A190002F0FDFE0AD373
:100A2000310002F055FE06D910003D4902F050FE9B
:100A300001D9012000E000200199087204A80C30BF
:100A4000210034314CC84CC102E0002001990872E9
:100A50001C9A04A801001831200000F06FFC1C99BA
:100A6000200000F05FF820005C304EC84EC5103DFD
:100A700020006C30290010314CC84CC12000783067
:100A800029001C314CC84CC1B878002804D029007A
:100A90002800283001F0ADF8787800282FD0260003
:100AA00090361C9A04A9300000F0C4FB1C9A04A8DC
:100AB00001001831300000F041FC1C99300000F0BA
:100AC00031F82100EC31280034304CC94CC00A68A0
:100AD00002602000FC30290044314CC84CC1842005
:100AE00040002018290050311CC81CC1B8780028CB
:100AF00005D02900343128005C3001F07AF80EB0BE
:100B00000498F0BC04B00047F4FD343FF4FD34BF5A
:100B1000680500200100803F9A99193F9B99993FF1
:100B20007012833AF0B595B00400074802F078FDE2
:100B3000050004488069290002F072FD06000148A2
:100B400004E000BF2C0500200000C842C069290055
:100B500002F066FD050020008430C07800280BD02C
:100B60008027FF053000390002F05AFD06002800FA
:100B7000390002F055FD050020008430007A00287D
:100B800000D1002620008430407A002800D10025C2
:100B9000200084304078002801D0FE26B6052200CF
:100BA00021004C3112A800F0F0FE14980490014688
:100BB000002002F035FD070013980190390002F083
:100BC000D3FD03903800129902F0CEFD0700129970
:100BD000002002F025FD00900199002002F020FD88
:100BE0000100009802F0C0FD0290014602F018FDDD
:100BF00001903800390002F013FD00900399084677
:100C000002F00EFD002102F077FD009902F074FD64
:100C1000019902F071FD02F01FFE07908C4902F06D
:100C200057FD13D8FE208005079902F048FE00907A
:100C3000039902F0F5FC03900098390002F0F0FCF3
:100C400007000299009802F0EBFC02E000200390FC
:100C500000270290049802F087FE310002F0E0FCC9
:100C6000FC21890502F0DCFC060002F0F9FF069089
:100C7000300002F0FAFF00900146039802F0D0FC29
:100C800005900098390002F0CBFC0600009902980C
:100C900002F0C6FC0700206D0490606D0390A06D0B
:100CA0000290E06C0190069902F0BAFC0090059960
:100CB000029802F0B5FC009902F01EFD0090039826
:100CC000310002F0ADFC009902F016FD009004988E
:100CD000390002F0A5FC0100009802F045FDE06536
:100CE0000699049802F09CFC00900599039802F084
:100CF00097FC0100009802F037FD00900298310047
:100D000002F08EFC009902F0F7FC00900198390087
:100D100002F086FC009902F0EFFC20660699039829
:100D200002F07EFC00900599049802F079FC00998D
:100D300002F0E2FC00900198310002F071FC010029
:100D4000009802F011FD00900298390002F068FC52
:100D5000009902F0D1FC60660699029802F060FCEE
:100D600000900599019802F05BFC0100009802F0E8
:100D7000FBFC00903100049802F052FC0100009846
:100D800002F0F2FC06000398390002F049FC010071
:100D9000300002F0E9FCA0668420205C002800D02E
:100DA000EDE0FE26B605200084304078002800D013
:100DB00035462200343221005C3108A800F0E5FD00
:100DC000099F0899084602F02BFC00903800390072
:100DD00002F026FC009902F08FFC02F03DFD0200BB
:100DE00007981B4902F074FC04D83800110002F087
:100DF00066FD00E0002009900898002102F00CFD3B
:100E000000D2144E099802F0AFFD070012483900D5
:100E100002F006FC114902F052FD02001048C078B1
:100E200001281FD110000E49496802F0F5FC03D2D9
:100E3000012021008431887209488068110002F085
:100E4000EBFC0FD2002021008431887210E000BF3B
:100E500001000034000080BF00003443DB0F494034
:100E60002C05002020008430807A002800D0002546
:100E70003800290002F0D4FBFC21890502F0D0FBE8
:100E8000050002F0EDFE0190280002F0EEFE0500E4
:100E90000020290002F0C4FB0790069028003100D2
:100EA00002F0BEFB0500606E0590069902F0B8FBEB
:100EB0000600A06E0490079902F0B2FB0700206EB6
:100EC0000390E06D0290019902F0AAFB390002F054
:100ED00013FC310002F010FC00900398290002F08E
:100EE0009FFB0100009802F03FFC0B9001990398D2
:100EF00002F096FB310002F037FC390002F0FCFBF7
:100F000006000298290002F08BFB310002F0F4FB8E
:100F10000C900699029802F083FB0600079903984B
:100F200002F07EFB07000199059802F079FB390079
:100F300002F0E2FB310002F017FC00900498290057
:100F400002F06EFB009902F0D7FB0D900199049816
:100F500002F066FB310002F007FC390002F004FCED
:100F600006000598290002F05BFB0100300002F04A
:100F7000FBFB0E900BA821005C316CC86CC1E06DCE
:100F800001008022120651400991216E0A0080233F
:100F90001B065A400892626E130080252D066B4096
:100FA0000793A36E01930023E3662367FE239B054B
:100FB000636725006C350EABC0CDC0C32E681E60C4
:100FC000002311930690059104920F9F10980390AF
:100FD00001990E9802F024FB05000999002002F007
:100FE0001FFB290002F088FB05000899039802F016
:100FF00017FB290002F080FB05000798390002F07A
:101000000FFB0100280002F0AFFB029001983900AD
:1010100002F006FB05000999039802F001FB0100AC
:10102000280002F0A1FB05000899002002F0F8FA60
:10103000290002F061FB050007990E9802F0F0FA12
:10104000290002F059FB05000199039802F0E8FA23
:1010500006000998390002F0E3FA310002F04CFB77
:10106000060008990E9802F0DBFA0100300002F049
:101070007BFB06000799002002F0D2FA310002F053
:101080003BFB06000199002002F0CAFA0090099982
:101090000E9802F0C5FA0100009802F065FB00907E
:1010A0000898390002F0BCFA0100009802F05CFBDD
:1010B00007000799039802F0B3FA0100380002F024
:1010C00053FB07000698390002F0AAFA0090029933
:1010D000019802F0A5FA009902F00EFB0090049826
:1010E000290002F09DFA009902F006FB0090059895
:1010F000310002F095FA0100009802F035FB0A90E9
:101100000598390002F08CFA00900299049802F0D8
:1011100087FA0100009802F027FB0090019829004F
:1011200002F07EFA009902F0E7FA0090069831008A
:1011300002F076FA009902F0DFFA0B900498390079
:1011400002F06EFA00900299059802F069FA00998F
:1011500002F0D2FA00900698290002F061FA01002C
:10116000009802F001FB00900198310002F058FA5B
:10117000009902F0C1FA0C900198390002F050FA7F
:1011800007000299069802F04BFA0100380002F0BD
:10119000EBFA07000598290002F042FA0100380036
:1011A00002F0E2FA05000498310002F039FA010079
:1011B000280002F0D9FA0D9004210AA800F0CCFB17
:1011C0000100FE20800502F07AFB05000A98290044
:1011D00002F026FA0A900B98290002F021FA0B90EF
:1011E0000C98290002F01CFA0C900D98290002F0CE
:1011F00017FA0D900AA821006C312CC82CC1206868
:10120000114602F0B1FAA0676068216F02F0ACFAF3
:10121000E067A068616F02F0A7FA802160502000AB
:1012200084304078002803D00020210084314870A9
:1012300015B0F0BDF0B583B004000E001100D44825
:10124000C06802F0EDF9D34902F0EAF90500D2498D
:1012500002F03EFA00D84D1E300000F061FB00287D
:1012600002D107CE07C40C3C0321200000F074FB20
:101270000600FE208005310002F021FB07002068F7
:10128000390002F0CDF920606068390002F0C8F939
:101290006060A068390002F0C3F9A0608520205C7E
:1012A000002800D0E660E7683000390002F05CFA00
:1012B0000190290002F0B4F90090390002F01CFA04
:1012C0000700E760FE208005290002F04DFA0500C6
:1012D0000199009802F0A4F90100206902F00CFACB
:1012E000290002F09DF900902061114D380029007D
:1012F00002F002FA400040080E4902F0E9F90ED966
:101300003000290002F0F8F940004008094902F0D5
:10131000DFF904D90098084902F0DAF901D8002071
:1013200000E0012021008531C87103B0F0BD00004C
:10133000000080BFCECCCC3DCECC4C3DF4B58AB0C5
:1013400004000D0000200990089007900321280058
:1013500000F002FB06008E4800690A9902F060F96D
:101360008C4902F05DF907008B4902F0B1F900D811
:101370004F1E8520205C002805D0286860616868C1
:10138000A061A868E061481E390002F0EDF9009004
:10139000606903902868039902F0E6F9029001461B
:1013A000380002F03DF901900398019902F0A4F988
:1013B000069060610298019902F032F9216A02F008
:1013C0009BF9009902F02CF905902062A069039026
:1013D0006868039902F0C8F902900146380002F0EB
:1013E0001FF901900398019902F086F90490A06119
:1013F0000298019902F014F9616A02F07DF90099EE
:1014000002F00EF903906062E0690190A86801990A
:1014100002F0AAF902900146380002F001F9070033
:10142000019902F069F90190E0610299380002F037
:10143000F7F8A16A02F060F90100009802F0F0F8F4
:101440000200A2620023E068400040085049096B96
:1014500002F0E2F93AD220694D49896A02F0DCF9DA
:1014600034D24B48416B28684000400802F0D4F960
:101470002CD268684000400802F0CEF926D2A86855
:101480004000400802F0C8F920D206984000400809
:1014900002F0C2F91AD204984000400802F0BCF9E8
:1014A00014D201984000400802F0B6F90ED2384834
:1014B000C16A059802F0B0F908D2039802F0ACF9BD
:1014C00004D2100002F0A8F900D2012318000DD0B8
:1014D000882020582E49896B02F09EF909D20A997A
:1014E00002F00AF988216050002302E000208821E0
:1014F00060502000853083709748007801286BD1B8
:10150000882020582249896B02F0E2F850D8200048
:1015100085304078002841D01D48406A0A9902F081
:101520007FF81C4902F07CF806001B4902F0D0F855
:1015300000D84E1E481E310002F016F90700216C3B
:1015400002F06EF800902968300002F069F801009E
:10155000009802F0D1F82064616C380002F060F865
:1015600000906968300002F05BF80100009802F01A
:10157000C3F86064A16C380002F052F80700A96853
:10158000300002F04DF80100380002F0B5F80EE02E
:101590002C0500200000C8420100803F01202100EE
:1015A0008531487060692064A0696064E069A06466
:1015B0002868216C02F0D8F828606868616C02F035
:1015C000D3F86860A868A16C02F0CEF8A860032187
:1015D000280000F0C1F906003000002102F04AFBAB
:1015E00013D0FE208005310002F069F90700296858
:1015F00002F016F809906968380002F011F80890B6
:10160000A968380002F00CF807900A99300002F03F
:1016100007F8524902F004F8514902F050F9050068
:1016200002F01EFB0590280002F01FFB050009993F
:1016300001F0F6FF04900899280001F0F1FF0390F3
:101640000799280001F0ECFF0600676E256EE06D3B
:101650000290A06E0190049901F0E2FF00900299BF
:10166000059801F0DDFF0100009802F045F80090B8
:101670002800310001F0D4FF0100009802F03CF88E
:1016800000900399380001F0CBFF0100009802F0B0
:101690006BF8E0640198039901F0C2FF0090029991
:1016A000300001F0BDFF0100009802F05DF80090ED
:1016B0000599280001F0B4FF0100009802F01CF821
:1016C00000900499380001F0ABFF0100009802F08F
:1016D00013F820650199300001F0A2FF00900299F3
:1016E000039801F09DFF0100009802F005F80090BA
:1016F0000499280001F094FF0100009802F034F8EA
:1017000000900599380001F08BFF0100009801F06E
:10171000F3FF60650198059901F082FF009002993E
:10172000049801F07DFF0100009802F01DF8009080
:101730002800039901F074FF0100009802F014F8EA
:1017400005003800310001F06BFF0100280002F0B5
:101750000BF8A0650BB0F0BD4C050020DB0F494035
:101760000000B443F0B581B005000E001700002062
:10177000305602F09FFA396801F052FF0400012050
:10178000305602F097FA0100786801F049FF210015
:1017900001F0B2FF04000220305602F08BFA010083
:1017A000B86801F03DFF210001F0A6FF286003208A
:1017B000305602F07FFA396801F032FF040004204D
:1017C000305602F077FA0100786801F029FF210015
:1017D00001F092FF04000520305602F06BFA010080
:1017E000B86801F01DFF210001F086FF6860062047
:1017F000305602F05FFA396801F012FF040007204A
:10180000305602F057FA0100786801F009FF210014
:1018100001F072FF04000820305602F04BFAB9685C
:1018200001F0FEFE210001F067FFA86001B0F0BDED
:1018300030B581B004000D00092102F05BFA2A786E
:1018400010004238182800D220326878010042394E
:10185000182900D22030A9780B00423B182B00D267
:101860002031D2B2642A18D0652A08D06E2A08D056
:10187000732A0CD0752A0ED0772A04D010E00122EA
:1018800003E0012205E00022D243227008E000229A
:10189000D243E27004E0012201E00022D243A271AF
:1018A000C0B2642818D0652808D06E2808D07328E4
:1018B0000CD075280ED0772804D010E0012003E06A
:1018C000012005E00020C043607008E00020C04314
:1018D000207104E0012001E00020C043E071C9B2A2
:1018E000642918D0652908D06E2908D073290CD036
:1018F00075290ED0772904D010E0012003E00120E3
:1019000005E00020C043A07008E00020C0436071E3
:1019100004E0012001E00020C043207201B030BD8E
:1019200000B581B002000023D02189051068400075
:10193000400801F071FF0CD250684000400801F0EF
:101940006BFF06D290684000400801F065FF00D2AE
:101950000123180001B000BDF0B581B000260027BA
:101960000A000DD00C000500B8002958080001F04D
:1019700057FE310001F0C0FE06007F1CA742F3DBDA
:10198000300001F069FF01B0F0BDF1B592B00DA8D3
:1019900038CA38C0002010900F6838008022120624
:1019A0005040089048680290504007908868019025
:1019B00050400690C868009005900E9804900F98CB
:1019C000039000990D9801F02BFE040000203900CF
:1019D00001F026FE210001F08FFE04000299039819
:1019E00001F01EFE210001F087FE04000199049819
:1019F00001F016FE0100200001F0B6FE040000997F
:101A0000049801F00DFE05000398390001F008FE6E
:101A10000100280001F0A8FE05000299002001F055
:101A2000FFFD290001F068FE050001990D9801F005
:101A3000F7FD290001F060FE05000099039801F010
:101A4000EFFD06000498390001F0EAFD310001F0D5
:101A500053FE060002990D9801F0E2FD01003000EE
:101A600001F082FE06000199002001F0D9FD31004D
:101A700001F042FE06000099002001F0D1FD009027
:101A800039000D9801F0CCFD0100009801F06CFECA
:101A900007000299049801F0C3FD0100380001F02D
:101AA00063FE07000199039801F0BAFD01003800B8
:101AB00001F05AFE07000898390001F0B1FD0090CE
:101AC0000598210001F0ACFD009901F015FE009091
:101AD0000698290001F0A4FD009901F00DFE009088
:101AE0000798310001F09CFD0100009801F03CFED8
:101AF00009900798390001F093FD009006982100A5
:101B000001F08EFD0100009801F02EFE0090059876
:101B1000290001F085FD009901F0EEFD0090089884
:101B2000310001F07DFD009901F0E6FD0A90069874
:101B3000390001F075FD00900798210001F070FD5B
:101B4000009901F0D9FD00900898290001F068FD86
:101B50000100009801F008FE00900598310001F0A6
:101B60005FFD009901F0C8FD0B900598390001F068
:101B700057FD07000898210001F052FD01003800D0
:101B800001F0F2FD04000798290001F049FD010071
:101B9000200001F0E9FD04000698310001F040FD4D
:101BA0000100200001F0E0FD0C90042109A8FFF7DE
:101BB000D3FE0100FE20800501F081FE040009989B
:101BC000210001F02DFD09900A98210001F028FD67
:101BD0000A900B98210001F023FD0B900C98210036
:101BE00001F01EFD0C9009A812991CC81CC113B06D
:101BF000F0BDF0B585B007004E688D680C68C86808
:101C00000290002101F008FE13D29048310001F04B
:101C100007FD06008D48290001F002FD05008B48F4
:101C2000210001F0FDFC04000299884801F0F8FC55
:101C300002903000310001F0F3FC039028002900ED
:101C400001F0EEFC0100039801F056FD0100802038
:101C5000C00501F0E5FC0100FE20800501F084FDD7
:101C600001900298290001F0DBFC00903000210077
:101C700001F0D6FC009901F03FFD8021C90501F07B
:101C8000CFFC019902F051F88021090648403860E4
:101C90002000210001F0C4FC0100039801F02CFD9C
:101CA00001008020C00501F0BBFC0100FE20800582
:101CB00001F05AFD01903000290001F0B1FC0090C4
:101CC0000298210001F0ACFC009901F015FD802183
:101CD000C90501F0A5FC019902F027F88021090649
:101CE000484078600298310001F09AFC0600280014
:101CF000210001F095FC0100300001F035FD80214C
:101D0000C90501F08DFC02F07FF8802109064840EA
:101D1000B8603C682000002101F07EFD04D24C48F0
:101D2000210001F0E9FC38604A4C3868210001F0DC
:101D300077FC494901F0C3FD38607868210001F063
:101D40006FFC454901F0BBFD7860B868210001F0E7
:101D500067FC414901F0B3FDB86005B0F0BDF1B5D5
:101D60003E4C3F4820183F498863D220C0002718C6
:101D70007F63BC6300263E708020C005009901F09F
:101D80009EFDFE25AD05691C01F0A2FC00D82800CF
:101D900078603548B8603548F8603548386135486E
:101DA00078613548B861FD61344838623220B884C2
:101DB0001420F8843248F862642038863148B862CA
:101DC00001202070304827183E800020C0437880D2
:101DD0009A20C00020180021002200230EC0009984
:101DE0002A4801F01DFC2A4901F069FD02F074F84F
:101DF00002F08CF838827E820099264801F010FCAF
:101E0000234901F05CFD02F067F802F07FF8B88228
:101E1000FE82B42149009E20C000201801F06CFF12
:101E20001D4820180021002200230EC02421CD20AF
:101E3000C000201801F060FFCB20C000201805630F
:101E4000056205614563067001B0F0BD000080BF0A
:101E5000DB0FC94000003443DB0F4940B4060020CB
:101E6000C4060000001300200AD7233C17B7D1385E
:101E7000EC51B83D000044420000614348E1FA3EA5
:101E80009A99993E0000A040CC0400000000C8428E
:101E900000007A44000048425C060000FFB58FB0A5
:101EA0000FA807C800F080F9BC48846B65682969F1
:101EB000002001F021FC696901F01EFCA96901F014
:101EC0001BFC0B909A20C00029180FA800F058FFA7
:101ED000019020680A902068C0690B9901F09CFC71
:101EE00005D32068006A019901F096FC04D260686D
:101EF0000021AB4A801807E06068A9494018C188F2
:101F00008288914201D2491CC1806468A44820188B
:101F10000090C08800998988884200D023E1CB20B6
:101F2000C000201809900078012800DC83E002A896
:101F30000021002200230EC002AB0FAD0CA903222A
:101F400008930791069405920A980078012828685A
:101F500025D19449615801F007FC060007980660F6
:101F60000698CD21C90047183868310001F058FBA8
:101F70000100029801F0C0FB02907868310001F086
:101F80004FFB0100039801F0B7FB0390B8683100E4
:101F900001F046FB049901F0AFFB049005E0814994
:101FA000615801F0E1FB0899086006980C30069032
:101FB0000798001D0790241D2D1D0898001D0890EE
:101FC0000598401E0590BFD1049D039E02990846C6
:101FD00001F026FB04003000310001F021FB21005C
:101FE00001F08AFB04002800290001F019FB210000
:101FF00001F082FB01F030FC0999496B01F0B4FB60
:10200000400040080A99C96A01F006FC01D200208C
:1020100006E00098408800990988884202D2401C56
:10202000009948800098408800990988884202D128
:102030000120099908705948846B226890680B99AF
:1020400001F0EAFB00D38EE0D068019901F0E4FBD7
:1020500000D388E06068944941180A88002A17D0A4
:102060000222895E4A005118890041181C310FA8CC
:1020700000F086FE019022685069019901F0CCFBC6
:1020800006D20846916901F0C7FB01D200F084FB3B
:102090004248806B4168844A8C18218800290BD003
:1020A00002681069019901F0B7FB5CD2084691699A
:1020B00001F0B2FB57D20BE00F9801F044FFA06192
:1020C000109801F040FFE061119801F03CFF2062A0
:1020D0000220255E6D1C2800642101F05EFF642152
:1020E0004843281A60800FA800F0E2F82B48806B64
:1020F00040686D4943181988642901DA491C198020
:102100000C220FA902241B5F5C00E3189B00C0187F
:102110001C3001F0BDFF2148806B4168624A8A5A39
:102120000068C08C82421ED3CB20C000085C02280D
:1021300019DC0FA807C800F04BFB002813D0174884
:10214000806B4068CB21C9004118574A805A6428E7
:1021500001D1032000E00220087000200F49896BA4
:1021600049681232885212980FA90C4A926B526831
:102170009A23DB00D21838C938C20849896B4968EC
:10218000084A8918342201F063FF0448806B4068D4
:10219000CB21C900405C13B0F0BD0000001300204B
:1021A000DC0400005C060000F7B582B03F48806B9D
:1021B00045680668002728780028029802D06860E1
:1021C0002F611EE0696801F0CFFA040070682100F9
:1021D00001F026FA0190696801F08EFA6860FE202D
:1021E0008005716801F0C0FA00902100019801F0AB
:1021F00017FA0100286901F07FFA009901F010FA3E
:10220000286103982978002902D0A8606F611EE038
:10221000A96801F0A9FA04007068210001F000FA31
:102220000190A96801F068FAA860FE208005716835
:1022300001F09AFA00902100019801F0F1F90100F3
:10224000686901F059FA009901F0EAF968610498A7
:102250002978002902D0E860AF611EE0E96801F04A
:1022600083FA04007068210001F0DAF90700E868D9
:10227000390001F041FAE860FE208005716801F044
:1022800073FA06002000390001F0CAF9A96901F0CB
:1022900033FA310001F0C4F9A8612878002801D090
:1022A0000020287005B0F0BDCC0400000013002011
:1022B000F0B591B00600514CA06B406801905049B8
:1022C0004018029030680299896901F04DFA0500C2
:1022D00070680299C96901F047FA0090B0680299E4
:1022E000096A01F041FA0390014601F099F90600EC
:1022F0000099084601F094F90700A06B006810905F
:102300002800290001F08CF90100109800780028BD
:1023100078D104950098059003980690FE208005DA
:102320000790380001F0E8F9310001F0E5F90F906D
:1023300008900024039404AD019F00260420001B94
:102340000D90B0003918009129680E910D99C907B8
:1023500010D50E9904AA105801F062F901000098F6
:102360009E22D200805801F0C7F900999E22D20027
:102370008850761C0D98400827D00D90B0009E2103
:10238000C9007918091800910E9904AA105801F093
:1023900047F90099096801F0AFF900990860761CC7
:1023A0000096B0009E21C90079180E180E9904AA53
:1023B000105801F035F9316801F09EF93060009E47
:1023C000761C0D98401E0D90D8D1A020C0003E185C
:1023D00029680F9801F024F90100306801F08CF9A8
:1023E0003060641C28372D1D0398401C0390042C7A
:1023F00000DB28E126000428E7DA9FE7001300202D
:10240000CC0400000491059706968024E40528007A
:10241000210001F005F905000A950098210001F05E
:10242000FFF806000B960398210001F0F9F80C90D4
:102430000098290001F0F4F807900398290001F0B2
:10244000EFF808900398310001F0EAF809900025B0
:10245000039504AC00260920471B01982C216943F1
:102460004018009020680D90F80711D50D9904A828
:10247000B200805801F0D4F8010000989E22D200EA
:10248000805801F039F900999E22D2008850761CBC
:1024900078082CD00E900198A9004919C900471856
:1024A000B00039189E22D200891800910D9904AA13
:1024B000105801F0B5F80099096801F01DF900996C
:1024C0000860761C0096B00039189E22D2008E1843
:1024D0000D9904AA105801F0A3F8316801F00CF925
:1024E0003060009E761C0E98401E0E90D3D101984D
:1024F000B4494018A9004919C90046183068216834
:1025000001F0FAF830606D1C241D0398401C039004
:10251000082D00DD97E02E000828E8DC9BE70497F3
:102520000099084601F07CF8059006968020C005C9
:10253000290001F075F805000A9500998020C00572
:1025400001F06EF806000B968020C005210001F016
:1025500067F80C900098290001F062F807902800B5
:10256000210001F05DF808903000210001F058F8DA
:1025700009900025029504AC00260920471B01980C
:102580002C2169434018009020680390F80711D56A
:10259000039904A8B200805801F042F801000098A5
:1025A0009E22D200805801F0DFF800999E22D200CE
:1025B0008850761C78082ED00D900198A9004919F2
:1025C000C9004718B00039189E22D200891800911E
:1025D000039904AA105801F023F80100009800683C
:1025E00001F0C2F800990860761C0096B000391816
:1025F0009E22D2008E18039904AA105801F010F8F8
:102600000100306801F0B0F83060009E761C0D9833
:10261000401E0D90D1D101986A494018A90049196E
:10262000C90046183068216801F09EF830606D1CC2
:10263000241D0298401C0290082D00DDAAE02E0007
:102640000828E8DC99E702980088642800D0A1E017
:10265000019802990222895E4A00511889004418A3
:10266000E0690299896901F07FF80500206A029902
:10267000C96901F079F803900090606A0299096ACB
:1026800001F072F80400210000F0CAFF06002800E3
:10269000290000F0C5FF070010980078002800D03E
:1026A0003DE70495009805900694FE20800507906C
:1026B0000399084600F0B4FF390001F01DF831001D
:1026C00001F01AF80D9008900024029404AD019FC7
:1026D00000260420001B0190B000391800912968E1
:1026E00003910199C90710D5039904AA105800F065
:1026F00097FF010000989E22D200805801F034F824
:1027000000999E22D2008850761C0198400829D05A
:102710000190B0009E21C900791809180091039911
:1027200004AA105800F07CFF01000098006801F036
:102730001BF800990860761C0096B0009E21C90025
:1027400079180E18039904AA105800F069FF0100C7
:10275000306801F009F83060009E761C0198401E38
:102760000190D6D1A020C0003E1828680D9900F035
:1027700057FF0100306800F0F7FF3060641C283715
:102780002D1D0298401C0290042C03DA2600042818
:10279000E8DA9EE711B0F0BD00B581B00A48806B61
:1027A00040680A4941180022D2434A8000220A8028
:1027B000B42149009E22D200801801F09DFA01B098
:1027C00000BD00001405000000130020CC04000030
:1027D000F7B5FFB095B0012069460872B548846B23
:1027E0006568B42252009E20C000291830A801F06C
:1027F0002FFC3B4828182DA94CC84CC120680078F4
:10280000012808D12422CD20C00029188AA801F06F
:102810001FFC092200E00422002130AD491C914236
:1028200012DA00200029F9DD8B005B18DB00EB18C1
:102830008C002C1986003618F600A6598700DE5148
:10284000401C8842F6DBE9E708A930A800F0C1FA8D
:102850009848846B20680078002845D1FC26B6058E
:102860000899300000F0DCFE089060681C494418AC
:102870001C4945182868089900F03EFF2060099916
:10288000300000F0CDFE0990696800F035FF60600F
:102890000A99300000F0C4FE0A90A96800F02CFFED
:1028A000A0600A9E099F0898014600F0B9FE0B99A6
:1028B00000F022FF05003900380000F0B1FE0100F1
:1028C000280000F019FF05003100300000F0A8FEDC
:1028D0000100280000F010FF00F0BEFF2063A7E118
:1028E0005C060000E4040000089830900B9A3192D6
:1028F0000C9832900E9933913A92099A3B920D9B23
:102900003C930F9A3D92449045930A9846901098B4
:1029100047904E914F92509067485190032208A9DA
:1029200030A800F056FA089880210906484008901F
:102930006048806B4068DE494418DE4945182868C5
:10294000089900F0D9FE20600999802000064140D6
:102950000991686800F0D0FE60600A98802109063D
:1029600048400A90A96800F0C7FEA060FE208005DC
:102970000B9030AC0425099E0A9F216D380000F0B1
:102980004FFE0190A16A300000F04AFE00902168DD
:10299000089800F045FE002100F0AEFE009900F01E
:1029A000ABFE0100019800F0A7FEA16F00F0A4FEAD
:1029B000A067241D6D1EDED15099380000F030FE56
:1029C00004004F99300000F02BFE05004E98089946
:1029D00000F026FE002100F08FFE0100280000F02C
:1029E0008BFE0100200000F087FE519900F084FE6C
:1029F000519030AC03252068519900F060FF802190
:102A00000906484020606068519900F058FF802115
:102A1000090648406060A068519900F050FF80218D
:102A200009064840A06028346D1EE4D101200090C2
:102A30001BAB03AA30A90A2000F02FFA0022CC4BCE
:102A4000039840004008190000F0E6FE02D2039807
:102A500043005B080398400040088021090400F00F
:102A600037FE02D8039842005208049C60004008D8
:102A7000190000F0D1FE01D263005B081000610074
:102A8000490800F0C9FE01D262005208059C6000AE
:102A90004008190000F0C0FE01D263005B0810007E
:102AA0006100490800F0B8FE01D2620052080148F6
:102AB00004E000BF00130020000080BF846B100002
:102AC000190000F0FCFE01002068806A00F0A4FEFE
:102AD00000D22CE166681BAC03270398410049082B
:102AE000CD20C0003518FE20800500F0E8FE00F083
:102AF000B3FE0100206800F0E2FE28600498410067
:102B00004908FE20800500F0DAFE00F0A5FE010075
:102B1000606800F0D4FE6860059841004908FE2016
:102B2000800500F0CCFE00F097FE0100A06800F0E8
:102B3000C6FEA8600C340C367F1ECED124A91BA87B
:102B400000F09CFB0025079530A806908948806B13
:102B500017904068019030A80090002014958100E3
:102B6000009A561824AA5418069982001218D20006
:102B70008918019ACD23DB00D2181592149D149068
:102B800016910020306015980168206800F048FD1B
:102B90000100002000F0B0FD070037601598406884
:102BA000E16800F03DFD0100380000F0A5FD0700E0
:102BB000376015988068A16900F032FD0100380087
:102BC00000F09AFD306014998D4201D0169908608A
:102BD0001498401C1490169828301690241D361D09
:102BE00014980328CDDB6D1C0098283000900198C4
:102BF0000C3001900698001D06900798401C079025
:102C0000032D04DA280007990329ECDAA6E71798C0
:102C1000406830A90322CD23DB00C3180C681C6078
:102C20004C685C608C689C6028310C30521EF2D17C
:102C300011A80021002200230EC011A894AD4D4917
:102C4000896B1591496807910C4618A903231490C4
:102C50000691019400931598006816900078012859
:102C6000286829D11249615800F07EFD06000698B7
:102C700006600198CD21C90047183968300000F07E
:102C8000CFFC119900F038FD11907968300000F008
:102C9000C7FC129900F030FD1290B968300000F0C6
:102CA000BFFC0100139800F027FD13900AE000BF5D
:102CB0005C060000E40400002F49615800F054FD58
:102CC0001499086001980C3001900698001D069038
:102CD000241D2D1D1498001D14900098401E009076
:102CE000B9D1139D129E1198014600F099FC040081
:102CF0003100300000F094FC0100200000F0FCFCEA
:102D000004002900280000F08BFC0100200000F0E6
:102D1000F3FC00F0A1FD0799184A895800F024FD42
:102D2000410049081698C06A00F076FD1AD2FFF7F4
:102D300033FD2DA80F49896B49680F4A89181CC8B3
:102D40001CC10C48806B01680978012907D1242235
:102D50008AA94068CD23DB00C01801F079F9002072
:102D6000694608726846007A7FB018B0F0BD00006E
:102D7000FFFF7F7F001300205C0600008C06000030
:102D8000F0B581B005000F002868396800F0ECFC50
:102D900004006868796800F0E7FC0600A868B96874
:102DA00000F0E2FC05002000210000F039FC0400E6
:102DB0003000310000F034FC210000F09DFC0400E4
:102DC0002800290000F02CFC210000F095FC01B047
:102DD000F0BDF2B5E2B01400B4225200010007A821
:102DE00001F036F90020210055D00094641C0294B3
:102DF000002407A982001218D2008918069107A999
:102E00002C22424389180591810004910190019878
:102E1000844222D0A0000519ED0007A804994018AB
:102E200040590599096800F04AFD019E02998E42B9
:102E300013DA0390B10007A8401947180398069ABF
:102E4000515800F0EDFB0100386800F08DFC38604F
:102E5000761CF6B202988642ECDB641C0098844231
:102E6000D5DB0198401C00998842C1DB629C00259B
:102E70008E0007A88019A9004919C900405807A960
:102E80002C226A43895800F01AFDA90060506D1C7D
:102E900000988542EDDB63B0F0BDFEB590B00190C7
:102EA00085001098083046591098876841680800D6
:102EB00000F0B6FB04003800390000F0B1FB21003F
:102EC00000F01AFC04003000310000F0A9FB2100E2
:102ED00000F012FC0390109808300199C9004618C0
:102EE0001098001D40190090109805680398002163
:102EF00000F0C0FE09D11198056000980068119992
:102F00004860306811998860FCE0009800682900EA
:102F100000F0F2FB316800F0EFFBD34900F0CFFC8A
:102F200004003068210000F01FFC02900098006847
:102F3000210000F019FC06002800210000F014FC1C
:102F4000010000F06DFB05003000310000F068FB6F
:102F5000290000F0D1FB05000299084600F060FB53
:102F6000290000F0C9FB050003998020C00500F08E
:102F700057FB290000F0C0FBBC4900F0A0FC00F0AA
:102F80006BFC0600002706AD009401987843800092
:102F9000029010980068002F18D1009900F0E4FB0F
:102FA000310000F08CFC06901098001D02994058EA
:102FB000310000F084FC6860109808300299405895
:102FC000022F11D1009900F0CFFB0DE0310000F08D
:102FD00076FC2860012FE7D11098001D0299405817
:102FE000009900F0C1FBE3E7310000F068FCA86045
:102FF0007F1C0C35032FC8DB0596099804900C98AC
:1030000003900D9802900B9E0E9F0A9D2800390098
:1030100000F006FB04000298310000F001FB010003
:10302000200000F0A1FB069900F0FAFA04000398D2
:10303000310000F0F5FA06000498390000F0F0FACB
:103040000100300000F090FB079900F0E9FA210040
:1030500000F052FB04000499029800F0E1FA060027
:103060000398290000F0DCFA0100300000F07CFB3E
:10307000089900F0D5FA210000F03EFBFC218905FB
:1030800000F0CEFA7A4900F0C7FB01D2794C0CE08F
:10309000FE21890500F01CFB01D8002405E000F0AA
:1030A00063FC714900F00BFC040005998020C00509
:1030B00000F0B6FA0500200000F0D2FD290000F073
:1030C000AFFA009900F018FB119948606A48210096
:1030D00000F012FB00F0C4FD290000F0A1FA0099F5
:1030E00000F00AFB1199886000995F4800F098FA97
:1030F0001199496800F038FB1199896800F034FB98
:10310000119908601898002800D1ABE012980024AB
:10311000109D029000200023029AA11C0A91611CBC
:103120000991019E069000201060109837005F43BF
:10313000BF00C019019604930594089503920024DA
:1031400005002F6808980199614389004658059841
:10315000012804980ED1A04205D1380011990968C0
:1031600000F002FB07000598A0422CD13000119915
:10317000896825E0A04211D109980790009007982E
:10318000032100F00AFF410009180098401A80004E
:1031900011990958380000F0E7FA07000598A04295
:1031A00011D10A98079000900798032100F0F5FECE
:1031B000410009180098401A800011990958300000
:1031C00000F0D2FA06003800310000F029FA039925
:1031D000096800F091FA03990860641C2D1D032C06
:1031E000AFDB019E059C089D010000F019FA01006B
:1031F00000F016FA069900F07FFA0690049B5B1C1B
:10320000039A0C32032B8EDB0196069800F024FB08
:10321000060002980068002100F02CFD04D0310067
:1032200000F04DFB029908600298C068002100F090
:1032300021FD04D0310000F042FB0299C8600298E1
:103240008069002100F016FD04D0310000F037FB4A
:1032500002998861641C2D1D0298001D0290032CA8
:1032600000DA57E713B0F0BD000040400000C04056
:10327000FFFF7FBF920A863F920A0640F0B585B0F5
:1032800004000E0000200025694608716068E168AE
:1032900000F0F0FC0AD1A068A16900F0EBFC05D1B8
:1032A0006069E16900F0E6FC00D101252169206A2E
:1032B00000F0B6F907006169E06900F0B1F90100BA
:1032C000380000F051FA30606169A06900F0A8F997
:1032D0000700E168206A00F0A3F90100380000F05F
:1032E00043FAF060E168E06900F09AF907002169AB
:1032F000A06900F095F90100380000F035FA0700E8
:10330000B761A0680390206802900146306800F021
:1033100087F900906168F06800F082F9009900F088
:10332000EBF900900398390000F07AF9009900F069
:10333000E3F90700002100F09DFC71D0216A02989A
:1033400000F06EF90090A169039800F069F901009E
:10335000009800F009FA3061A169606800F060F936
:103360000090E169206800F05BF90100009800F02E
:10337000FBF9F0612169206800F052F90090E168E2
:10338000606800F04DF90100009800F0EDF930623E
:10339000002D29D1E169A06800F042F90500216AF9
:1033A000606800F03DF90100280000F0DDF9706070
:1033B0006169606800F034F905002169A06800F0D7
:1033C0002FF90100280000F0CFF9B060E168A06893
:1033D00000F026F905006169206800F021F901007C
:1033E000280000F0C1F904E0F0687060B069B060D6
:1033F000F069706103243068390000F060FA3060D1
:103400007068390000F05BFA7060B068390000F055
:1034100056FAB0600C36641EEDD101206946087181
:103420006846007905B0F0BD30B581B064216348CD
:10343000026801239A430260614A01209060936808
:10344000002B21D0491E27D0F9E76A4908706A4D40
:103450002800FDF735FA28009030FDF731FA67A40F
:103460002100902040002818FEF7E2F92100962064
:1034700040002818FEF7DCF921009C2040002818A5
:10348000FEF7D6F901B030BD002905D05C491160C6
:1034900011685C4A9142D8D05B490968090C09045B
:1034A0005A4A9142D1D0FEE7524B1B78002B00D1F3
:1034B000704770B514000E004F4D01009020400081
:1034C0002818FEF7B5F93100962040002818FEF7BD
:1034D000AFF921009C2040002818FEF7A9F970BD23
:1034E00044490978002901D0494948707047414949
:1034F0000978002901D04649087070473D4909788C
:10350000002901D04249887070473A49097800295A
:1035100001D0404908707047364B1B78002B00D112
:10352000704710B592B00400C86807900869089009
:103530004869099088690D90C8690E90086A0F90D3
:1035400008680A9048680B9088680C90109207A948
:1035500083B06846282200F07BFD0EBC2000FDF7FA
:10356000E2F912B010BD10B5224C2278002A0FD01B
:1035700000290DD000F09EFB0100274800F09FF9C4
:10358000FEF7EDFBA06B0068002101702349C162CA
:1035900010BD10B584B0174C217800290BD00168FC
:1035A00000914168019180680290231D684607C818
:1035B000FEF774FC607004B010BD0000002000E055
:1035C0000030024081B00B490A78002A10D04A68C6
:1035D00002608A684260CA6882604978002906D021
:1035E000012904D0022902D0032900D0002101734F
:1035F00001B070470013002068050020656E75005B
:10360000C2A507F4CDB5E8B5F8070010000055AA2B
:103610002C0500204C05002000007A449A99993E20
:1036200030B405004D400122D20715404B18041854
:10363000240E2ED01B0E32D0FF2C34D0FF2B3AD0CC
:10364000E4180002090210431143000A090A9446D3
:10365000C2B24A43000AC3B24B43000A4843110AAC
:103660005B181A43D2B2190A091801D44918641E0A
:10367000080A7F3C23DBFE2C08DAE4050906114327
:10368000634699416041284330BC7047FF20C00524
:10369000F9E728001B0EFF2BF6D1D043F4E72800F2
:1036A000FF2CF1D1F9E74002F7D1FF2B01D14902FC
:1036B000F3D1E005E7E7D8054902E4D0EDE743029E
:1036C0000020641CDFD15B129B1CDCD9D805DAE733
:1036D0000CB4012212060318DA4207D84B18DA425A
:1036E00004D802000A43921802D281420CBC7047EF
:1036F000FCD088420CBC70470122D20703004B402B
:103700002ED4431A01D2C01AC91830B44B18041869
:10371000240E1B0E22D0FF2C20D0E31A182B1DDC08
:1037200009021143C40D641E00021043944619257A
:10373000ED1A0A00AA40D940451801D36D08A41C0F
:10374000E405D209280A2D062A436546AA416041AC
:1037500003181B0EFF2B01D3C00DC00530BC7047F2
:10376000514006E05140CCE70122D20703004B4014
:10377000F8D4431A03D2C01AC9185040514030B48B
:103780004B18090211430418240E1B0E40D0FF2CC5
:103790003AD025009D410BD31ED8C50D4002401ADA
:1037A0000BD3ED050100400AC90591416841D5E7F9
:1037B000C50D40024918401AD0D001214008491CCB
:1037C0000018FCD58C4204D36D1A000AED0540198F
:1037D000C4E7E8051040C1E7182DBFDCAC1C0D00A4
:1037E000E140E5414D40012D4941C40D0002104327
:1037F000451A01D46D199543641EE405280A2D0667
:103800009541604130BC7047FF2BA7D1D843A5E755
:103810002442A3D10020A1E70CB401221206031810
:10382000DA4207D84B18DA4204D802000A43921849
:1038300002D288420CBC7047FCD08142FAE70C08E7
:1038400002170D01010209090101060209FFFFFF2C
:10385000FFFF0909FFFFFFFF0122D205011825D252
:10386000090E22D0FF2920D0CB05984310437D318B
:10387000490800D300189318C01A80009B18801ABA
:1038800006D452080ED2C01A9B180018801AF8D518
:10389000520806D2C0189B1A0018801AF1D5520897
:1038A000F8D35B1EC905580848417047D042FCD880
:1038B000090EFAD0C84300B500BF00BF00BD30B448
:1038C00005004D400122D20715404B180418240E64
:1038D00028D01B0E2FD0FF2C34D0FF2B37D0E41A6A
:1038E000000209021043114343084808D10D1B1A76
:1038F00002D2641EDB181B18DB18834200D31B1A8C
:103900004941F9D37F3426DDFE2C08DAE405480866
:10391000C907194391416041284330BC7047FF20DB
:10392000C005F9E728001B0E03D0FF2BF5D1490293
:10393000F3D0D043F1E7FF2C01D14002F9D1FF20B1
:10394000C005E9E74002F4D1FF2BF8D1F1E72800E8
:103950004902E2D0EDE70B0200202442DCD15B12E9
:103960009B1CD9D9D805D7E7F8B541000A16521CD7
:1039700001D1090241D1C10F01D0042400E0022489
:1039800046007608FE25AD0528003100FFF7ECFE65
:10399000070030002900FFF7AFFE3900FFF740FEB7
:1039A000FFF75AFF02001548002802D580210906BA
:1039B000081A310002D580231B06591A884202DBFF
:1039C0003000110010E0002D02D580200006451BBC
:1039D000300002D580210906081A85420ADB02213F
:1039E00061400C0010003100FFF769FF210000F07A
:1039F00085FBF2BD00BF00BF0148F2BDF304353FB7
:103A0000FFFFFF7FF8B504000D0088482100FFF795
:103A100007FE0600700040089E21C905FFF7FCFE66
:103A200046D2FC2080054100490880221206300061
:103A3000104008433100FFF75FFE00F067FA060010
:103A400033D000F037F9E2218905FFF7E9FD0700DF
:103A500077483900FFF7E4FD01002000FFF784FEFE
:103A6000040074483900FFF7DBFD01002000FFF778
:103A70007BFE040070483900FFF7D2FD01002000F2
:103A8000FFF772FE04006D483900FFF7C9FD010021
:103A90002000FFF769FE040069483900FFF7C0FD08
:103AA00001002000FFF760FE0400B007800F6BE00C
:103AB00060000016401C08D160000116491C02D1AC
:103AC000000200D0AFE05F48F2BD600005D1002DDC
:103AD00000D1A8E0FE24A405A5E03100FC2080056B
:103AE0004200520880231B06080018401043FFF7CD
:103AF00003FE41000DD09622090E511A182904DB4D
:103B0000060080200006064004E0002901DDC840D0
:103B100088400600700032D0E22080053100FFF7B7
:103B20007FFD070042483900FFF77AFD01002000C1
:103B3000FFF71AFE04003F483900FFF771FD01004E
:103B40002000FFF711FE04003B483900FFF768FD35
:103B500001002000FFF708FE040038483900FFF795
:103B60005FFD01002000FFF7FFFD0400344839002D
:103B7000FFF756FD01002000FFF7F6FD04003000BE
:103B800000F0C4F98007800F2E186000400802D5AD
:103B900080210906081AE621890502D5802212062D
:103BA000511AF507ED0F884204DA002D36D0FE24B5
:103BB000A40533E020002100FFF732FD0700002DAF
:103BC00012D021483900FFF72BFD2049FFF794FD63
:103BD0003900FFF725FD1E49FFF78EFD3900FFF77D
:103BE0001FFDFE21890516E020003900FFF718FDB2
:103BF000050018483900FFF713FD01001648FFF7CC
:103C00007BFD3900FFF70CFD1449FFF775FD290016
:103C1000FFF706FD2100FFF76FFD0400B00702D596
:103C20008020000644402000F2BD000083F9223FBE
:103C30000000C94600A0FD400020A23A0000343335
:103C40000030C22EFFFFFF7F9349B2BA36A02A3D53
:103C5000DFFFFFBE6E8C4CB94283083CA1AA2ABE8E
:103C600080B50121FFF7CEFE02BD80B50021FFF730
:103C7000C9FE02BD944602000A43921808D0884249
:103C800006D1012212060018D042084600D8804210
:103C9000624670479D2102000AD002D4491E921844
:103CA000FCD5C905100A1206524100D3012A484129
:103CB000704700009D210200EED55242F446FFF706
:103CC000EBFF0122D207104360470268531C0360D8
:103CD000117070471206130A1A43130C1A4300BFDF
:103CE000094205D0830709D00270401C491EF9D152
:103CF000704700000022F3E70022FFE713001039AD
:103D000006D330B41400150010393CC0FCD230BCCE
:103D1000490700D30CC000D504C0890002D302803B
:103D2000801C002900D50270704770B505000C009A
:103D3000200000F07DFA48004015401C2DD02800DE
:103D400000F076FA48004015401C26D0E80F03D05A
:103D50006D006D08082600E00026E00F04D0640026
:103D60006408300006264640200002D5802109065E
:103D7000081A290002D580221206511A884204DA54
:103D800020002900FFF79BFD37E06000400837D096
:103D900028002100FFF793FD32E068000116491C5E
:103DA00003D1000201D0280070BD60000116491C3B
:103DB00003D1000201D0200070BD61000916491C2A
:103DC0000AD1600208D169000916491C04D16802B1
:103DD00002D1FE20800500E00020E90F01D0082676
:103DE00000E00026E10F02D0310006264E406900B7
:103DF0000916491C04D1690202D1310002264E4045
:103E0000310000F07BF970BDF8B5040060000116C8
:103E1000491C01D1000234D1600032D0E00F06D13C
:103E20000025200007D580210906081A03E0640058
:103E300064080825F5E7E621890502D580221206E7
:103E4000511A884202DA002D18D11AE0FE26B60572
:103E500030002100FFF788FC070020003100FFF749
:103E60004BFC3900FFF7DCFBFFF7F6FC02001848BB
:103E7000002808D580210906081A04E080200006E1
:103E800044402000F2BD210002D580231B06591AB0
:103E9000884202DB2000110010E0002E02D58020B5
:103EA0000006861B200002D580210906081A8642DA
:103EB0000ADB022169400D0010002100FFF7FFFC22
:103EC000290000F01BF9F2BD00BF00BF0148F2BDA0
:103ED000F304353FFFFFFF7F4200120E7E3A0BDDF9
:103EE0001821891A10DDFF210906C943D14000427B
:103EF00000D44018884370477F22C10D090601D9BC
:103F0000D007704700D0D005704770470122D20714
:103F10000118090E7F3910D449421F310FD40018FF
:103F200005D2C0011043C84000D5D0437047C0013E
:103F30001043C84005D440427047002070470042FB
:103F4000F3D51000704741000916491C0ED04100FE
:103F50000CD09622090E511A182903DB802109067C
:103F600008407047002901DDC84088407047F4468A
:103F7000002804D4494200F013F840426047404210
:103F8000002905D45FD000F00BF840424942604759
:103F9000494200F005F84942604703460B43E6D426
:103FA0000022030A8B420BD203098B4219D2430829
:103FB0008B422ED2411A00D2014652411046704720
:103FC000FF2209023FD012068B4205D312120902CA
:103FD0008B4201D31212090203098B4219D300E06C
:103FE000090AC3098B4201D3CB01C01A524183098C
:103FF0008B4201D38B01C01A524143098B4201D33A
:104000004B01C01A524103098B4201D30B01C01A64
:104010005241C3088B4201D3CB00C01A52418308DE
:104020008B4201D38B00C01A524143088B4201D30B
:104030004B00C01A5241884200D3401A5241CFD29D
:1040400001461046704708B500F00CF908BD7047EE
:1040500070B4103A03D378C9103A78C0FBD2530732
:1040600001D318C918C001D508C908C0D20704D3A4
:104070000B880380891C801C002A01D50B780370F3
:1040800070BC7047521E22D30B78491C0370401C31
:104090008B07F7D18307DBD0DB4219D0401E121FFC
:1040A00008D308C943701B0A43801B0C0371001D11
:1040B000121FF6D2D20707D30B88437001D08A783B
:1040C000C2701B0A8370704701D00B784370704731
:1040D000121F06D308C903801B0C4380001D121F4A
:1040E000F8D2D20705D30B88038005D08B78837074
:1040F000704701D00B78037070477047F8B5050022
:1041000002D580221206101AFE26B605320002D50C
:1041100080231B069A1A0C00904201D1354D54E0C1
:104120003548002802D580210906081A290002D541
:1041300080221206511A884215DA304F28003900C1
:10414000FFF76EFA01002E48FFF7D6FA009028001C
:104150003900FFF7D1FA01000098FFF7B0FB050026
:1041600020000124044368004008E621890506D5A3
:1041700080221206511A02D580221206101A81429C
:1041800023DA28002900FFF74BFA0700280039003E
:10419000FFF746FA01001B48FFF742FA2900FFF734
:1041A000ABFA050018483900FFF73AFA0100174842
:1041B000FFF7A2FA3900FFF733FA3100FFF79CFA54
:1041C00001002800FFF77BFB0500A00702D5802037
:1041D00000064540600706D00DA1C00E0858290012
:1041E000FFF78AFA0500200702D580200006454027
:1041F0002800F2BDDB0F493FA330893ED7B3DD3F36
:10420000000080BF6AD5033F2B94A93DB82A593FCF
:1042100000000000920A063FDB0FC93F920A863F6A
:10422000DB0FC93F920A0640DB0F4940368D27401D
:10423000012212060118CA420AD28A420DD8382237
:10424000120609098918C20FD207114340077047A7
:1042500000D049080909014301E0C10FC907002046
:10426000704770477047704780B50021002001F00B
:1042700028FE0121002001F0CEFD69460870694644
:10428000002001F0D7FD684600780028F7D1002112
:1042900001F0C7FE0121002001F0D3FE0121002022
:1042A00001F0DFFE0321002001F0F1FE01210020DA
:1042B00001F06AFC0121002001F075FC01210020C1
:1042C00001F08DFC0321002001F020FC03210020DF
:1042D00001F046FC0021002001F002FC0621002034
:1042E00001F028FC0121002001F0A9FD02F086F870
:1042F00001BD80B50221002002F0D2F90121002089
:1043000002F00EFA0021002002F0F4F90021002052
:1043100002F0B7F90121002002F0D8F901BD80B503
:104320001121002002F0BAFA0121002002F038FA2F
:104330001421002002F04FFA0121002002F0E6FAD9
:104340000121002002F0FDFA0021002002F0C3FA52
:104350000121002002F089FA01BD80B50021002072
:1043600002F010FC0021002002F038FC01210020A6
:1043700002F067FC0321002002F0A8FC00210020CD
:1043800002F0CCFC4021002002F018FD802100202A
:1043900002F0F1FC0021002002F077FC002002F086
:1043A000DDFB01BD78B589B007A87E490CC90CC0FA
:1043B0000721012002F02CFD02F02EFD06A801903D
:1043C00005A8009005AB9B1C07220021012002F0EC
:1043D00027FD07A80090072300226846818AC08A2B
:1043E00002F036FD002004906F48039000200290F8
:1043F00010200190072000900023002201210120BD
:1044000002F030FD002002F077FD012002F074FD83
:10441000022002F071FDB74C0B212000FFF76CFC6D
:104420000126A672B44802F0BFFD00F04BFEE07B0F
:10443000002801D0FFF773FFA07B002801D0FFF711
:104440008CFF607B002801D0FFF753FF207B002802
:1044500001D0FFF709FF00F0D7FE00F079F9052041
:1044600002F071FF0B25012003F09AF8042003F0FD
:10447000DDF80028FAD003F0EDF8022100B203F0D5
:104480000BF860646D1EEED1002002F05CFF606CE2
:104490009A49FFF7C5F8FFF739FD01000CA003F0BA
:1044A000EFF8606C9649FFF713F901D8954800E0E2
:1044B000954803F0E5F8606C9449FFF709F900D8D6
:1044C000A675002002F03FFF02F015FF0AB070BD94
:1044D000426174746572792025646D563A2000003B
:1044E00038B584B0002846D0FEF79EFF2FA200BF4B
:1044F0002FA100BF2FA0FEF7D7FF0120FFF705F87F
:104500000120FEF7F4FF0120FEF7F8FF0020FEF780
:10451000E7FF01212820FFF726F86846FFF752F849
:104520006846007B032803D07948007B022818D115
:10453000784D704C00982900FFF772F8FFF7E6FC01
:10454000206201982900FFF76BF8FFF7DFFC60623B
:1045500002982900FFF764F8FFF7D8FCA062012158
:1045600004E06D480021002200230EC0614841761E
:104570000121417414E0FEF757FF0020FEF7C5FF4C
:104580000020FEF7B4FF0020FEF7B8FF0020FEF782
:10459000A7FF00212820FEF7E6FF002055494874B8
:1045A00005B030BD8493051040E201006E657500D2
:1045B000777375007773750078B593B00AA800BF5C
:1045C0005AA10CC90CC000BF5AA11C22FFF740FD24
:1045D00008AA07A9802003F067F808A80CAC0178A6
:1045E0006176417821768178E175C178A17501798C
:1045F000617540792075494E0AAD300003F06AF8C4
:104600000021C94388423DD0300003F065F868704E
:10461000300003F061F86071761C300003F05CF844
:10462000A870300003F058F8A071761C300003F039
:1046300053F8E870300003F04FF8E071761C30005A
:1046400003F04AF82871300003F046F82072761C17
:10465000300003F041F86871300003F03DF86072FB
:10466000761C300003F038F8A871300003F034F8FD
:10467000A072761C300003F02FF8E871300003F0D0
:104680002BF8E0720421012002F0C2FB2449122021
:1046900003F060F8B02149000020069005900490D6
:1046A00003900AA8029008200190002000900123A6
:1046B0000A0003F05AF8607E0490207E0390E07DAB
:1046C0000290A07D0190607D0090237D6A1C0721EF
:1046D000144802F0D5FF0CA91A2003F067F805482A
:1046E000807D002803D11049012003F067F814B041
:1046F00070BD0000B8120020801A060000007A4445
:1047000001000040F8510410005204100100504014
:10471000CC1300200000FA43D812002000E8071054
:10472000B403002008A80510204E00000942434EA3
:104730002D303032020A00080942434E2D3030320B
:104740000DFF01056AFE05400000000000000000AA
:1047500080B503F041F803F071FA03F0D4FA04F0E5
:1047600057F8002802D100BF02A000E006A002F026
:1047700087FF01BD4F5441207375636365737320D8
:1047800061646465640A00004F5441206572726F71
:10479000720A0000FEB56A4E6A4C6078002868D044
:1047A000607D00285DD000206075642103F006F86C
:1047B000822040003518E07B002822D0882040006D
:1047C00031180020086002F040F8E868FFF772FA3C
:1047D000E6218905FEF724FFA8600700FFF796FB96
:1047E000642141430091FFF765FA01003800FEF7AC
:1047F000BBFF5549FEF714FFFFF788FB0099081827
:104800002861A07B002826D0842040003218311D6A
:10481000002002F0BAF8B0883081DD4F0420285E15
:10482000FFF748FA3900FFF74AF80190FFF76EFBEF
:104830008100091849000091FFF73CFA0100019836
:10484000FEF792FF01003800FEF7EAFEFFF75EFB7D
:104850000099081870810A20325E3189286903F0B6
:1048600049FCA07D002800D01EE300220021022088
:1048700018E32079002847D0607D00283CD000252F
:104880006575052002F05FFD042002F0CFFE0028D0
:10489000FAD002F0DFFE022100B202F0FDFD0600B8
:1048A000606CFFF7C5FCB6A20CCA04F0DFFA0090FA
:1048B00001913000FFF7BCFCB3A20CCA04F0D6FA99
:1048C000009A019B04F094FB04F06CFC6064FA21F4
:1048D0008900002002F072FF606CD849FEF7F8FEF4
:1048E00002D80121A17500E0A575D549FEF798FE13
:1048F00004F08AFC03F012FBA07D002800D0D3E274
:10490000002200210220CDE2A079002809D1E07820
:10491000002806D12078002803D1A078002800D1F3
:1049200050E2607D002800D13CE200206075C54D5A
:10493000287800281BD0607E002807D0642206E07B
:10494000C8030020B81200200000C8420022FF2146
:10495000481C03F0FFFB607E002801D0642200E0C9
:104960000022FF21402003F0F5FB002028703500D5
:104970008435207B002800D183E037009C37062156
:104980003800FFF7B9F93900002001F058F9AC4FB1
:104990001820285EFFF78EF9C549FEF741FE390061
:1049A000FEF78DFF28631A20285EFFF783F9C049C0
:1049B000FEF736FE3900FEF782FF68631C20285E92
:1049C000FFF778F9BA49FEF72BFE3900FEF777FFBB
:1049D000A86306213000A430FFF78EF93100A4311E
:1049E000002001F027F92020285EFFF763F9B14984
:1049F000FEF716FEE8632220285EFFF75BF9AD495B
:104A0000FEF70EFE28642420285EFFF753F9A9491B
:104A1000FEF706FE6864286BFFF778FAA864686BF7
:104A2000FFF774FAE864A86BFFF770FA2865E86B83
:104A3000FFF76CFA6865286CFFF768FAA865686C80
:104A4000FFF764FAE865286B3900FEF738FF286045
:104A5000686B3900FEF733FF6860A86B3900FEF71A
:104A60002EFFA860E86B3900FEF729FFE860286C8C
:104A70003900FEF724FF2861686C3900FEF71FFF3C
:104A80006861607B002800D1B3E03100AC310020C8
:104A900001F05BFEFF27BF052820285EFFF70AF91B
:104AA00001003800FEF7BCFDFFF730FA28662A2027
:104AB000285EFFF7FFF801003800FEF7B1FDFFF7B1
:104AC00025FA68662C20285EFFF7F4F8010038000C
:104AD000FEF7A6FDFFF71AFAA866A07E002809D007
:104AE0000020A076607620626062A062012128200A
:104AF000FEF739FD607E00285BD1286EFFF7DAF8FB
:104B00006D49FEF78DFDE866686EFFF7D3F86A49D8
:104B1000FEF786FD2867A86EFFF7CCF86649FEF71A
:104B20007FFD68673000F030FEF733FD634F3800DB
:104B3000FEF748FD387B032801D0022839D1012037
:104B4000607638685E49FEF76BFDFFF7DFF920629B
:104B500078685B49FEF764FDFFF7D8F96062B868D2
:104B60005749FEF75DFDFFF7D1F9A062002128202B
:104B7000FEF7F9FC607E00280CD064220BE000BF39
:104B8000AE47E17A14AEEF3F7B14AE47E17A843F43
:104B9000000020410022FF21481C03F0DBFA607E68
:104BA000002801D0642200E00022FF21402003F011
:104BB000D1FA414F286E216A401AFFF77BF80100B5
:104BC0003800FEF72DFDB067686E616A401AFFF786
:104BD00071F801003800FEF723FDF067A86EA16AA6
:104BE000401AFFF767F801003800FEF719FD802131
:104BF0007050E078002802D1A079002845D0AB4A57
:104C00003100783130001030FEF786FC7769326968
:104C1000F0690021FEF700FE16D21000BF49FEF732
:104C2000FFFCFFF773F90090BC493800FEF7F8FC71
:104C3000FFF76CF90700B069B84915E0CDCC4C40DE
:104C400000007A44EE020020B5491000FEF7E8FCAF
:104C5000FFF75CF90090B2493800FEF7E1FCFFF77E
:104C600055F90700B069AE49FEF7DAFCFFF74EF9D7
:104C7000822149007050EF670098A867B06BA9497E
:104C8000FEF7CEFCFFF742F9B081207C002861D00E
:104C9000A07800285ED000216A4611803078002874
:104CA00010D0022845D033D3042848D019D351E07E
:104CB0000000744200008C426F12033BCC130020B2
:104CC0000000FA430121802004F047FB69462920B7
:104CD00004F056FD68460088BE4988423AD1032058
:104CE00014E0292004F084FB0221292004F098FC20
:104CF0001421292004F0F3FB6421292004F00EFD87
:104D0000292004F0C6FB0028EBD10120307021E0FF
:104D1000B11C292004F0C3FBB07800281AD002206F
:104D20003070B11D292004F033FD292004F09BFBD5
:104D300010E004203070802004F00CFB0AE0707852
:104D4000401C7070C0B2042804DB71703170802088
:104D500004F003FB2078002807D03200E432310051
:104D6000D8313000CC3003F069F9A079002802D0A6
:104D7000B08903F009F9E078002803D03000FC3056
:104D800003F09FF8A078002808D03078022805D1D9
:104D9000F18880200002084303F014F92821002044
:104DA00002F00CFDA0780028A07D05D000287BD162
:104DB00000220021012075E0002875D10022002189
:104DC00002206FE0E079002833D004F046FDF07057
:104DD000002804D0202806D0302808D01FE004F096
:104DE000EDFC002000E0022002F0AEF817E0002009
:104DF00002F0B9F8012002F0B6F8022002F0B3F890
:104E0000E07D00280BD0207E002808D104F0E4FDCE
:104E1000802802D10120207601E00020E0750020EA
:104E200004F0ECFEA07D00283ED1002200210120EC
:104E300038E0607900280BD0FA214900002002F008
:104E4000BDFCA07D00282FD100220021022029E0F6
:104E5000607A002805D0A07D002825D100221021ED
:104E60001FE0A07A002803D0022002F06DF813E0C2
:104E7000A07A002810D1207D00280DD1A07D002827
:104E800012D18020000104F062FA012802D1002230
:104E9000042106E0042203E0A07D002804D10022C2
:104EA0001146032004F0B2FE03B0F0BD0AD7233D43
:104EB00038B50800CA4CA0830025A56304F000FEA5
:104EC000002004F09BFE012004F098FE022004F074
:104ED00095FEC82040000090002311220821A08BDD
:104EE00005F02CFB0B212000FEF706FF002002F04E
:104EF0003AF8012002F037F8022002F034F8657524
:104F00006421002002F05AFC05F024FB206400BF5D
:104F100005A002F0B5FB0120207531BD00401CC684
:104F200000401C460000C842446576696365206302
:104F30006F6E6E65637465640A0D0000FEB500F067
:104F400063F9A74C0B212000FEF7D6FE0126A672BE
:104F5000002500202075A08302F005F8012002F052
:104F600002F8022001F0FFFF03F03EFC052002F0F2
:104F7000EAF9042002F05AFB0028FAD002F06AFB9A
:104F8000022100B202F088FA0700606CFFF750F9C6
:104F9000B4A20CCA03F06AFF009001913800FFF739
:104FA00047F9B2A20CCA03F061FF009A019B04F01A
:104FB0001FF804F0F7F86064B049FEF789FB01D8E8
:104FC000A67500E0A575002002F0BDF9FFF7F4FA20
:104FD00003B0F0BDCCEA000080B5080003F00CF986
:104FE00001BD000010B5002803D002281BD004D357
:104FF00010BD01207A49487510BD794C207D0028EC
:10500000FAD100BF11A002F03BFB002001F0ABFF82
:10501000012001F0A8FF022001F0A5FF05F0A3FA8E
:105020000020A07210BD002001F09DFF012001F0C2
:105030009AFF022001F097FF05F095FABFF34F8F1A
:105040008C488F490860BFF34F8FFEE7456E74654B
:1050500072696E6720736C6565702E2E2E0A0D00C6
:10506000F8B507000E001D00069CEAB221003000D2
:1050700003F028F92300EAB23100380003F03EFDC6
:10508000F1BD022900D0704780B5100003F02AFE60
:1050900001BD0020524908767047704780B57949B4
:1050A00005F06CFA010000BF01A002F0E9FA01BDB1
:1050B00050617373206B6579207265713A202564A5
:1050C00000000000FEB5002669460E7045A002F003
:1050D000D7FA6946002000F099FE0127404C664D42
:1050E000684600786C2805D1280002F0C9FA2773B9
:1050F000A77405E02800243002F0C2FA2673A674D3
:105100006946002001F0A9FB68460078B32805D164
:1051100028004C3002F0B4FAE77304E02800703045
:1051200002F0AEFAE6736946002001F025FC6846FD
:105130000078BC2805D12800943002F0A1FAA773AA
:1051400004E02800B83002F09BFAA67369460020FC
:1051500001F003FB68460078402805D167732800FA
:10516000DC3002F08DFA05E084204000281802F0BF
:1051700087FA66730021802004F0EFF80A212920C5
:1051800005F048FA0121802004F0E7F864250A219F
:10519000292005F03FFA00A9891C292004F0F0FA23
:1051A000394869468880684640888988884201D0A5
:1051B0006D1EECD10021802004F0CFF868464088B5
:1051C00069468988884204D10BA002F059FA2774F5
:1051D00004E000BF0AA002F053FA267403B0F0BD49
:1051E000B81200205363616E20666F722073656E83
:1051F000736F72733A0A0D004F4B0A0D00000000E6
:105200004641494C0A0D000010B5AB4C207B0028EC
:1052100007D00021002000F079FC0021002000F0E0
:105220009FFCE07B002803D00021002001F0D3FA8E
:10523000607B002803D00221002001F022FAA07B2D
:10524000002803D00121002001F01FFD207C002850
:1052500003D00021802004F080F800BF0BA002F0F2
:105260000FFA10BDCDCCCCCCCCCCEC3F9A9999990F
:105270009999B93F0400FA05FC940510CDCC4C4037
:105280000CED00E040E20100CCEA000053656E73D3
:105290006F7220696E206C6F772D706F7765723A30
:1052A000204F4B0A0D00000038B5834CC17882783E
:1052B00012020A43417809041143027812060A4394
:1052C000E26301794579E06B403800D1DFE0C03816
:1052D00000D1DCE0C0229200801A04D0774A801A04
:1052E00000D1AEE0E5E0662909D0702947D07329E6
:1052F00025D0742900D184E0772962D0D9E0002D2F
:105300000ED0012D00D0D4E06D4802F0B9F901F0C3
:10531000F1F801226621900202F01CFF01200BE04F
:10532000684802F0ADF901F0F8F80022662180200B
:10533000C00002F00FFF002063490870B9E0002DA3
:105340000ED0012D00D0B4E0604802F099F901F0D0
:10535000EEF801227321900202F0FCFE01200BE026
:105360005B4802F08DF901F019F9002273218020C9
:10537000C00002F0EFFE00205349C87099E0002DF4
:1053800010D0012D00D094E0524802F079F901F0DC
:105390002BF901F061F901227021900202F0DAFE8E
:1053A00001200BE04C4802F06BF901F036F90022C5
:1053B00070218020C00002F0CDFE002042494870DC
:1053C00077E0002D0ED0012D73D100BF43A002F075
:1053D00057F901F068F801227721900202F0BAFE35
:1053E00001200BE044A002F04BF901F079F8002213
:1053F00077218020C00002F0ADFE00203249087104
:1054000057E0002D0ED0012D53D100BF41A002F076
:1054100037F901F024F801227421900202F09AFE7B
:1054200001200BE03FA002F02BF901F02DF8002243
:1054300074218020C00002F08DFE002022494871B6
:1054400037E000290BD0012915D101F07DFD00BF07
:1054500039A002F015F92A000121480709E001F0FE
:1054600082FD00BF38A002F00BF92A000021802045
:10547000800502F06FFE607900281AD0002001F04C
:1054800081FD002800D0012002F0BCFD11E00029C0
:105490000BD0FF290DD1607E002801D0642200E0EE
:1054A0000022E06B02F056FE03E00020607601204F
:1054B000A076012032BD0000B812002000FCFF1FC2
:1054C0008C930510A49305101C000020BC930510BC
:1054D000D4930510EC93051004940510456E616299
:1054E0006C65643A20486172647761726520576127
:1054F0006B6575700A0D000044697361626C6564C8
:105500003A2048617264776172652057616B6575F6
:10551000700A0D00456E61626C65643A2054696CD6
:10552000740A0D0044697361626C65643A205469C1
:105530006C740A0D00000000456E61626C65643A8F
:10554000204C45440A0D000044697361626C656437
:105550003A204C45440A0D0070B584B005000E0099
:10556000012404222900804805F088F800280AD187
:1055700000247E4D7E49280005F096F87D4908609C
:1055800081B2280094E0042229007B4805F076F8D7
:10559000002810D10024754D302001903220009059
:1055A0003123764A7649280005F07EF87149086073
:1055B00081B228007CE008222900724805F05EF8DC
:1055C00000280CD10024694D6F4B704A70492800A7
:1055D00005F06AF86749086081B2280068E009228E
:1055E00029006C4805F04AF8002810D100245F4DCE
:1055F00030200190322000903123674A674928000B
:1056000005F052F85B49086081B2280050E00A2298
:105610002900634805F032F800280BD1534C61494A
:10562000200005F041F85349086081B2200002F0E3
:10563000BAFD94E00B2229005B4805F01FF8002812
:1056400039D100245948466C30005949FEF740F8DA
:105650000FD85849FEF7E0F80BD25749FDF7E0FFA5
:10566000FEF754FC020000BF54A1404805F01CF8AE
:105670001AE05149FDF7D4FFFEF748FC0500300061
:10568000FEF7D6FD0022C0231B0603F0B1FC00226A
:10569000B74B03F0EBFB05F027F802002B0000BF2F
:1056A0004DA1324805F000F83249086081B22F4818
:1056B00002F079FD54E00822290000BF4BA004F05D
:1056C000DDFF00284CD1761E092E34DB7D2001F051
:1056D000EFFF012002F02DF80128FAD168460021E1
:1056E0000022002300241EC0E87B0006A97B0904D9
:1056F0004018697B09024018297B40180190E87A1C
:105700000006A97A09044018697A09024018297A22
:10571000401800906946974801F0F2FF012002F01E
:1057200008F80128FAD1114C9349200004F0BCFF7D
:10573000104908600FE00D4C2FA1200004F0B4FFC9
:105740000C4D286081B2200002F02DFDBD492000E3
:1057500004F0AAFF286081B2200002F024FD00249A
:10576000200004B070BD00001C940510800D0020C6
:105770009C99051008140020249405102C94051001
:10578000F899051040940510789405106C94051054
:105790004C94051084940510A8940510909405105D
:1057A000BC940510C8940510DC940510B8120020B4
:1057B000010050406766564000007A44506F77659C
:1057C00072656420627920555342206174202564FB
:1057D0006D56200D0A00000043523230333220252E
:1057E0006425252025646D56200D0A007365744ECE
:1057F000616D6520000000000A496E7365727420B7
:10580000746865206E6F6465206E616D650D0A00B9
:1058100038B5A54C21000831002000F0F4F901252D
:105820006078002802D1E079002810D0607BC008A1
:1058300028420CD0002001F087FB9C4801F020FF9B
:1058400000F00FFF20820321208A02F0F5FA207871
:10585000002802D1E07900280FD0207A28420CD00D
:10586000002001F071FB012001F06EFB43A001F06C
:1058700007FF0221102002F0DFFAA078002802D1F1
:10588000E079002811D0207AC00828420DD00120EC
:1058900001F05AFB022001F057FB00BF3CA001F0D1
:1058A000EFFE0221402002F0C7FAE078002802D182
:1058B000E079002811D0207A800828420DD00020FD
:1058C00001F042FB022001F03FFB00BF35A001F0D8
:1058D000D7FE0221202002F0AFFA2079002802D161
:1058E000E079002813D0207A400828420FD0002009
:1058F00001F02AFB012001F027FB022001F024FB2C
:105900002DA001F0BDFE0221802002F095FA607901
:10591000002802D1E07900280DD0607B00092842E0
:1059200009D0012001F010FB2AA001F0A9FE0221FC
:10593000082002F081FAA079002802D1E07900283D
:105940000BD0207A0009284207D0022001F0FCFA8F
:1059500000F05FFD022102F06FFA002001F003FB6E
:10596000012001F000FB022001F0FDFA31BD000032
:105970000000594000E80710389A05104576656E1A
:10598000743A20467265652046616C6C0A0D000011
:105990004576656E743A20446F75626C652054617B
:1059A000700A0D004576656E743A2053696E676C17
:1059B00065205461700A0D004576656E743A204882
:1059C000617264776172652057616B6575700A0D4D
:1059D000000000004576656E743A2054696C740AC4
:1059E0000D000000F8B5324A50233248324C0025F1
:1059F000555FED00E562266B7619676BF61BB70104
:105A0000BE1BB600F7113F0EBE1936122663656342
:105A1000864201DA060003E0284DAE4200DB464232
:105A20001680921C5B1EE2D103F00BFF002808D009
:105A300050211F4803F040FFE076402801D10120AB
:105A4000E075F1BD5C9A0510F8B51D4A5023194860
:105A5000194C0025555FED00E562266B7619676BE2
:105A6000F61BB701BE1BB600F7113F0EBE1936126A
:105A700026636563864201DA060003E00F4DAE42FD
:105A800000DB46421680921C5B1EE2D103F0D9FE79
:105A9000002808D050210A4803F00EFFE076402885
:105AA00001D10120E075F1BD1C000020E894051033
:105AB000201000200880FFFFB8120020F97F0000AE
:105AC000800F002080B51000DBB20A0000F0E8F97A
:105AD00080B51000DBB20A006B2101F08FFA02BD25
