:020000041005E5
:101800000060002047C20610B59D0610B79D061067
:10181000AA5555AA45554C420000000000000000A2
:10182000000000000000000000000000B99D06104C
:1018300000000000000000000B4F0510BB9D0610CB
:10184000DD9D06104F500510000000000000000054
:10185000DD9E0610FB500510699F06106FB705103E
:101860000000000000000000000000000000000078
:10187000000000009BBF051047C9051087C905106F
:10188000000000006352051067520510A77D051087
:1018900083A305102FB505103BDA0510AD9E061089
:1018A0000000000000000000000000000000000038
:1018B0000000000000000000000000000000000028
:1018C000002101604160FE2292058260C2600161D8
:1018D00041618161C161016241628162C1620163F2
:1018E0004163894B8363894BC363016441648164B1
:1018F000C164016541658265C165016641668266B4
:10190000C166016742678167C1678022815002001A
:10191000853201231370517091708830016003711A
:101920004371817170470EB4F0B58EB00500784CEC
:1019300013AA90204000211804A800F013FF13AE52
:101940003200183296204000211804A8183000F008
:1019500009FF32000C329C204000211804A80C30F2
:1019600000F000FF774F3878002800D194E01C9AEF
:1019700004A9200000F05EFC78691C9902F050FE7A
:10198000714902F04DFE0600624902F0A1FE00D846
:101990004E1E20008530019004A80C3000F0C0FFDE
:1019A000002852D1032104A80C3000F0D5FF00908C
:1019B00001980078002801D00098E0620098E16A60
:1019C00002F0D2FE03900146300002F029FE0290A0
:1019D000E06A029902F090FEE062FE20800531008C
:1019E00002F0C2FE06000398029902F019FE216B74
:1019F00002F082FE0100300002F012FE02002263BB
:101A0000454B0098190002F007FF14D3434E3100F4
:101A100002F05EFE0FD9E06A190002F0FDFE0AD363
:101A2000310002F055FE06D910003D4902F050FE8B
:101A300001D9012000E000200199087204A80C30AF
:101A4000210034314CC84CC102E0002001990872D9
:101A50001C9A04A801001831200000F06FFC1C99AA
:101A6000200000F05FF820005C304EC84EC5103DED
:101A700020006C30290010314CC84CC12000783057
:101A800029001C314CC84CC1B878002804D029006A
:101A90002800283001F0ADF8787800282FD02600F3
:101AA00090361C9A04A9300000F0C4FB1C9A04A8CC
:101AB00001001831300000F041FC1C99300000F0AA
:101AC00031F82100EC31280034304CC94CC00A6890
:101AD00002602000FC30290044314CC84CC18420F5
:101AE00040002018290050311CC81CC1B8780028BB
:101AF00005D02900343128005C3001F07AF80EB0AE
:101B00000498F0BC04B00047F4FD343FF4FD34BF4A
:101B1000FC0400200100803F9A99193F9B99993F4E
:101B20007012833AF0B595B00400074802F078FDD2
:101B3000050004488069290002F072FD0600014892
:101B400004E000BFC00400200000C842C0692900B2
:101B500002F066FD050020008430C07800280BD01C
:101B60008027FF053000390002F05AFD06002800EA
:101B7000390002F055FD050020008430007A00286D
:101B800000D1002620008430407A002800D10025B2
:101B9000200084304078002801D0FE26B6052200BF
:101BA00021004C3112A800F0F0FE14980490014678
:101BB000002002F035FD070013980190390002F073
:101BC000D3FD03903800129902F0CEFD0700129960
:101BD000002002F025FD00900199002002F020FD78
:101BE0000100009802F0C0FD0290014602F018FDCD
:101BF00001903800390002F013FD00900399084667
:101C000002F00EFD002102F077FD009902F074FD54
:101C1000019902F071FD02F01FFE07908C4902F05D
:101C200057FD13D8FE208005079902F048FE00906A
:101C3000039902F0F5FC03900098390002F0F0FCE3
:101C400007000299009802F0EBFC02E000200390EC
:101C500000270290049802F087FE310002F0E0FCB9
:101C6000FC21890502F0DCFC060002F0F9FF069079
:101C7000300002F0FAFF00900146039802F0D0FC19
:101C800005900098390002F0CBFC060000990298FC
:101C900002F0C6FC0700206D0490606D0390A06DFB
:101CA0000290E06C0190069902F0BAFC0090059950
:101CB000029802F0B5FC009902F01EFD0090039816
:101CC000310002F0ADFC009902F016FD009004987E
:101CD000390002F0A5FC0100009802F045FDE06526
:101CE0000699049802F09CFC00900599039802F074
:101CF00097FC0100009802F037FD00900298310037
:101D000002F08EFC009902F0F7FC00900198390077
:101D100002F086FC009902F0EFFC20660699039819
:101D200002F07EFC00900599049802F079FC00997D
:101D300002F0E2FC00900198310002F071FC010019
:101D4000009802F011FD00900298390002F068FC42
:101D5000009902F0D1FC60660699029802F060FCDE
:101D600000900599019802F05BFC0100009802F0D8
:101D7000FBFC00903100049802F052FC0100009836
:101D800002F0F2FC06000398390002F049FC010061
:101D9000300002F0E9FCA0668420205C002800D01E
:101DA000EDE0FE26B605200084304078002800D003
:101DB00035462200343221005C3108A800F0E5FDF0
:101DC000099F0899084602F02BFC00903800390062
:101DD00002F026FC009902F08FFC02F03DFD0200AB
:101DE00007981B4902F074FC04D83800110002F077
:101DF00066FD00E0002009900898002102F00CFD2B
:101E000000D2144E099802F0AFFD070012483900C5
:101E100002F006FC114902F052FD02001048C078A1
:101E200001281FD110000E49496802F0F5FC03D2C9
:101E3000012021008431887209488068110002F075
:101E4000EBFC0FD2002021008431887210E000BF2B
:101E500001000034000080BF00003443DB0F494024
:101E6000C004002020008430807A002800D00025A3
:101E70003800290002F0D4FBFC21890502F0D0FBD8
:101E8000050002F0EDFE0190280002F0EEFE0500D4
:101E90000020290002F0C4FB0790069028003100C2
:101EA00002F0BEFB0500606E0590069902F0B8FBDB
:101EB0000600A06E0490079902F0B2FB0700206EA6
:101EC0000390E06D0290019902F0AAFB390002F044
:101ED00013FC310002F010FC00900398290002F07E
:101EE0009FFB0100009802F03FFC0B9001990398C2
:101EF00002F096FB310002F037FC390002F0FCFBE7
:101F000006000298290002F08BFB310002F0F4FB7E
:101F10000C900699029802F083FB0600079903983B
:101F200002F07EFB07000199059802F079FB390069
:101F300002F0E2FB310002F017FC00900498290047
:101F400002F06EFB009902F0D7FB0D900199049806
:101F500002F066FB310002F007FC390002F004FCDD
:101F600006000598290002F05BFB0100300002F03A
:101F7000FBFB0E900BA821005C316CC86CC1E06DBE
:101F800001008022120651400991216E0A0080232F
:101F90001B065A400892626E130080252D066B4086
:101FA0000793A36E01930023E3662367FE239B053B
:101FB000636725006C350EABC0CDC0C32E681E60B4
:101FC000002311930690059104920F9F109803909F
:101FD00001990E9802F024FB05000999002002F0F7
:101FE0001FFB290002F088FB05000899039802F006
:101FF00017FB290002F080FB05000798390002F06A
:102000000FFB0100280002F0AFFB0290019839009D
:1020100002F006FB05000999039802F001FB01009C
:10202000280002F0A1FB05000899002002F0F8FA50
:10203000290002F061FB050007990E9802F0F0FA02
:10204000290002F059FB05000199039802F0E8FA13
:1020500006000998390002F0E3FA310002F04CFB67
:10206000060008990E9802F0DBFA0100300002F039
:102070007BFB06000799002002F0D2FA310002F043
:102080003BFB06000199002002F0CAFA0090099972
:102090000E9802F0C5FA0100009802F065FB00906E
:1020A0000898390002F0BCFA0100009802F05CFBCD
:1020B00007000799039802F0B3FA0100380002F014
:1020C00053FB07000698390002F0AAFA0090029923
:1020D000019802F0A5FA009902F00EFB0090049816
:1020E000290002F09DFA009902F006FB0090059885
:1020F000310002F095FA0100009802F035FB0A90D9
:102100000598390002F08CFA00900299049802F0C8
:1021100087FA0100009802F027FB0090019829003F
:1021200002F07EFA009902F0E7FA0090069831007A
:1021300002F076FA009902F0DFFA0B900498390069
:1021400002F06EFA00900299059802F069FA00997F
:1021500002F0D2FA00900698290002F061FA01001C
:10216000009802F001FB00900198310002F058FA4B
:10217000009902F0C1FA0C900198390002F050FA6F
:1021800007000299069802F04BFA0100380002F0AD
:10219000EBFA07000598290002F042FA0100380026
:1021A00002F0E2FA05000498310002F039FA010069
:1021B000280002F0D9FA0D9004210AA800F0CCFB07
:1021C0000100FE20800502F07AFB05000A98290034
:1021D00002F026FA0A900B98290002F021FA0B90DF
:1021E0000C98290002F01CFA0C900D98290002F0BE
:1021F00017FA0D900AA821006C312CC82CC1206858
:10220000114602F0B1FAA0676068216F02F0ACFAE3
:10221000E067A068616F02F0A7FA8021605020009B
:1022200084304078002803D0002021008431487099
:1022300015B0F0BDF0B583B004000E001100D44815
:10224000C06802F0EDF9D34902F0EAF90500D2497D
:1022500002F03EFA00D84D1E300000F061FB00286D
:1022600002D107CE07C40C3C0321200000F074FB10
:102270000600FE208005310002F021FB07002068E7
:10228000390002F0CDF920606068390002F0C8F929
:102290006060A068390002F0C3F9A0608520205C6E
:1022A000002800D0E660E7683000390002F05CFAF0
:1022B0000190290002F0B4F90090390002F01CFAF4
:1022C0000700E760FE208005290002F04DFA0500B6
:1022D0000199009802F0A4F90100206902F00CFABB
:1022E000290002F09DF900902061114D380029006D
:1022F00002F002FA400040080E4902F0E9F90ED956
:102300003000290002F0F8F940004008094902F0C5
:10231000DFF904D90098084902F0DAF901D8002061
:1023200000E0012021008531C87103B0F0BD00003C
:10233000000080BFCECCCC3DCECC4C3DF4B58AB0B5
:1023400004000D0000200990089007900321280048
:1023500000F002FB06008E4800690A9902F060F95D
:102360008C4902F05DF907008B4902F0B1F900D801
:102370004F1E8520205C002805D0286860616868B1
:10238000A061A868E061481E390002F0EDF90090F4
:10239000606903902868039902F0E6F9029001460B
:1023A000380002F03DF901900398019902F0A4F978
:1023B000069060610298019902F032F9216A02F0F8
:1023C0009BF9009902F02CF905902062A069039016
:1023D0006868039902F0C8F902900146380002F0DB
:1023E0001FF901900398019902F086F90490A06109
:1023F0000298019902F014F9616A02F07DF90099DE
:1024000002F00EF903906062E0690190A8680199FA
:1024100002F0AAF902900146380002F001F9070023
:10242000019902F069F90190E0610299380002F027
:10243000F7F8A16A02F060F90100009802F0F0F8E4
:102440000200A2620023E068400040085049096B86
:1024500002F0E2F93AD220694D49896A02F0DCF9CA
:1024600034D24B48416B28684000400802F0D4F950
:102470002CD268684000400802F0CEF926D2A86845
:102480004000400802F0C8F920D2069840004008F9
:1024900002F0C2F91AD204984000400802F0BCF9D8
:1024A00014D201984000400802F0B6F90ED2384824
:1024B000C16A059802F0B0F908D2039802F0ACF9AD
:1024C00004D2100002F0A8F900D2012318000DD0A8
:1024D000882020582E49896B02F09EF909D20A996A
:1024E00002F00AF988216050002302E000208821D0
:1024F00060502000853083709748007801286BD1A8
:10250000882020582249896B02F0E2F850D8200038
:1025100085304078002841D01D48406A0A9902F071
:102520007FF81C4902F07CF806001B4902F0D0F845
:1025300000D84E1E481E310002F016F90700216C2B
:1025400002F06EF800902968300002F069F801008E
:10255000009802F0D1F82064616C380002F060F855
:1025600000906968300002F05BF80100009802F00A
:10257000C3F86064A16C380002F052F80700A96843
:10258000300002F04DF80100380002F0B5F80EE01E
:10259000C00400200000C8420100803F012021004B
:1025A0008531487060692064A0696064E069A06456
:1025B0002868216C02F0D8F828606868616C02F025
:1025C000D3F86860A868A16C02F0CEF8A860032177
:1025D000280000F0C1F906003000002102F04AFB9B
:1025E00013D0FE208005310002F069F90700296848
:1025F00002F016F809906968380002F011F80890A6
:10260000A968380002F00CF807900A99300002F02F
:1026100007F8524902F004F8514902F050F9050058
:1026200002F01EFB0590280002F01FFB050009992F
:1026300001F0F6FF04900899280001F0F1FF0390E3
:102640000799280001F0ECFF0600676E256EE06D2B
:102650000290A06E0190049901F0E2FF00900299AF
:10266000059801F0DDFF0100009802F045F80090A8
:102670002800310001F0D4FF0100009802F03CF87E
:1026800000900399380001F0CBFF0100009802F0A0
:102690006BF8E0640198039901F0C2FF0090029981
:1026A000300001F0BDFF0100009802F05DF80090DD
:1026B0000599280001F0B4FF0100009802F01CF811
:1026C00000900499380001F0ABFF0100009802F07F
:1026D00013F820650199300001F0A2FF00900299E3
:1026E000039801F09DFF0100009802F005F80090AA
:1026F0000499280001F094FF0100009802F034F8DA
:1027000000900599380001F08BFF0100009801F05E
:10271000F3FF60650198059901F082FF009002992E
:10272000049801F07DFF0100009802F01DF8009070
:102730002800039901F074FF0100009802F014F8DA
:1027400005003800310001F06BFF0100280002F0A5
:102750000BF8A0650BB0F0BDE0040020DB0F494092
:102760000000B443F0B581B005000E001700002052
:10277000305602F09FFA396801F052FF0400012040
:10278000305602F097FA0100786801F049FF210005
:1027900001F0B2FF04000220305602F08BFA010073
:1027A000B86801F03DFF210001F0A6FF286003207A
:1027B000305602F07FFA396801F032FF040004203D
:1027C000305602F077FA0100786801F029FF210005
:1027D00001F092FF04000520305602F06BFA010070
:1027E000B86801F01DFF210001F086FF6860062037
:1027F000305602F05FFA396801F012FF040007203A
:10280000305602F057FA0100786801F009FF210004
:1028100001F072FF04000820305602F04BFAB9684C
:1028200001F0FEFE210001F067FFA86001B0F0BDDD
:1028300030B581B004000D00092102F05BFA2A785E
:1028400010004238182800D220326878010042393E
:10285000182900D22030A9780B00423B182B00D257
:102860002031D2B2642A18D0652A08D06E2A08D046
:10287000732A0CD0752A0ED0772A04D010E00122DA
:1028800003E0012205E00022D243227008E000228A
:10289000D243E27004E0012201E00022D243A2719F
:1028A000C0B2642818D0652808D06E2808D07328D4
:1028B0000CD075280ED0772804D010E0012003E05A
:1028C000012005E00020C043607008E00020C04304
:1028D000207104E0012001E00020C043E071C9B292
:1028E000642918D0652908D06E2908D073290CD026
:1028F00075290ED0772904D010E0012003E00120D3
:1029000005E00020C043A07008E00020C0436071D3
:1029100004E0012001E00020C043207201B030BD7E
:1029200000B581B002000023D02189051068400065
:10293000400801F071FF0CD250684000400801F0DF
:102940006BFF06D290684000400801F065FF00D29E
:102950000123180001B000BDF0B581B000260027AA
:102960000A000DD00C000500B8002958080001F03D
:1029700057FE310001F0C0FE06007F1CA742F3DBCA
:10298000300001F069FF01B0F0BDF1B592B00DA8C3
:1029900038CA38C0002010900F6838008022120614
:1029A0005040089048680290504007908868019015
:1029B00050400690C868009005900E9804900F98BB
:1029C000039000990D9801F02BFE040000203900BF
:1029D00001F026FE210001F08FFE04000299039809
:1029E00001F01EFE210001F087FE04000199049809
:1029F00001F016FE0100200001F0B6FE040000996F
:102A0000049801F00DFE05000398390001F008FE5E
:102A10000100280001F0A8FE05000299002001F045
:102A2000FFFD290001F068FE050001990D9801F0F5
:102A3000F7FD290001F060FE05000099039801F000
:102A4000EFFD06000498390001F0EAFD310001F0C5
:102A500053FE060002990D9801F0E2FD01003000DE
:102A600001F082FE06000199002001F0D9FD31003D
:102A700001F042FE06000099002001F0D1FD009017
:102A800039000D9801F0CCFD0100009801F06CFEBA
:102A900007000299049801F0C3FD0100380001F01D
:102AA00063FE07000199039801F0BAFD01003800A8
:102AB00001F05AFE07000898390001F0B1FD0090BE
:102AC0000598210001F0ACFD009901F015FE009081
:102AD0000698290001F0A4FD009901F00DFE009078
:102AE0000798310001F09CFD0100009801F03CFEC8
:102AF00009900798390001F093FD00900698210095
:102B000001F08EFD0100009801F02EFE0090059866
:102B1000290001F085FD009901F0EEFD0090089874
:102B2000310001F07DFD009901F0E6FD0A90069864
:102B3000390001F075FD00900798210001F070FD4B
:102B4000009901F0D9FD00900898290001F068FD76
:102B50000100009801F008FE00900598310001F096
:102B60005FFD009901F0C8FD0B900598390001F058
:102B700057FD07000898210001F052FD01003800C0
:102B800001F0F2FD04000798290001F049FD010061
:102B9000200001F0E9FD04000698310001F040FD3D
:102BA0000100200001F0E0FD0C90042109A8FFF7CE
:102BB000D3FE0100FE20800501F081FE040009988B
:102BC000210001F02DFD09900A98210001F028FD57
:102BD0000A900B98210001F023FD0B900C98210026
:102BE00001F01EFD0C9009A812991CC81CC113B05D
:102BF000F0BDF0B585B007004E688D680C68C868F8
:102C00000290002101F008FE13D29048310001F03B
:102C100007FD06008D48290001F002FD05008B48E4
:102C2000210001F0FDFC04000299884801F0F8FC45
:102C300002903000310001F0F3FC039028002900DD
:102C400001F0EEFC0100039801F056FD0100802028
:102C5000C00501F0E5FC0100FE20800501F084FDC7
:102C600001900298290001F0DBFC00903000210067
:102C700001F0D6FC009901F03FFD8021C90501F06B
:102C8000CFFC019902F051F88021090648403860D4
:102C90002000210001F0C4FC0100039801F02CFD8C
:102CA00001008020C00501F0BBFC0100FE20800572
:102CB00001F05AFD01903000290001F0B1FC0090B4
:102CC0000298210001F0ACFC009901F015FD802173
:102CD000C90501F0A5FC019902F027F88021090639
:102CE000484078600298310001F09AFC0600280004
:102CF000210001F095FC0100300001F035FD80213C
:102D0000C90501F08DFC02F07FF8802109064840DA
:102D1000B8603C682000002101F07EFD04D24C48E0
:102D2000210001F0E9FC38604A4C3868210001F0CC
:102D300077FC494901F0C3FD38607868210001F053
:102D40006FFC454901F0BBFD7860B868210001F0D7
:102D500067FC414901F0B3FDB86005B0F0BDF1B5C5
:102D60003E4C3F4820183F498863D220C0002718B6
:102D70007F63BC6300263E708020C005009901F08F
:102D80009EFDFE25AD05691C01F0A2FC00D82800BF
:102D900078603548B8603548F8603548386135485E
:102DA00078613548B861FD61344838623220B884B2
:102DB0001420F8843248F862642038863148B862BA
:102DC00001202070304827183E800020C0437880C2
:102DD0009A20C00020180021002200230EC0009974
:102DE0002A4801F01DFC2A4901F069FD02F074F83F
:102DF00002F08CF838827E820099264801F010FC9F
:102E0000234901F05CFD02F067F802F07FF8B88218
:102E1000FE82B42149009E20C000201801F06CFF02
:102E20001D4820180021002200230EC02421CD209F
:102E3000C000201801F060FFCB20C00020180563FF
:102E4000056205614563067001B0F0BD000080BFFA
:102E5000DB0FC94000003443DB0F49404806002027
:102E6000C4060000F41100200AD7233C17B7D1385C
:102E7000EC51B83D000044420000614348E1FA3E95
:102E80009A99993E0000A040CC0400000000C8427E
:102E900000007A44000048425C060000FFB58FB095
:102EA0000FA807C800F080F9BC48846B65682969E1
:102EB000002001F021FC696901F01EFCA96901F004
:102EC0001BFC0B909A20C00029180FA800F058FF97
:102ED000019020680A902068C0690B9901F09CFC61
:102EE00005D32068006A019901F096FC04D260685D
:102EF0000021AB4A801807E06068A9494018C188E2
:102F00008288914201D2491CC1806468A44820187B
:102F10000090C08800998988884200D023E1CB20A6
:102F2000C000201809900078012800DC83E002A886
:102F30000021002200230EC002AB0FAD0CA903221A
:102F400008930791069405920A980078012828684A
:102F500025D19449615801F007FC060007980660E6
:102F60000698CD21C90047183868310001F058FB98
:102F70000100029801F0C0FB02907868310001F076
:102F80004FFB0100039801F0B7FB0390B8683100D4
:102F900001F046FB049901F0AFFB049005E0814984
:102FA000615801F0E1FB0899086006980C30069022
:102FB0000798001D0790241D2D1D0898001D0890DE
:102FC0000598401E0590BFD1049D039E02990846B6
:102FD00001F026FB04003000310001F021FB21004C
:102FE00001F08AFB04002800290001F019FB2100F0
:102FF00001F082FB01F030FC0999496B01F0B4FB50
:10300000400040080A99C96A01F006FC01D200207C
:1030100006E00098408800990988884202D2401C46
:10302000009948800098408800990988884202D118
:103030000120099908705948846B226890680B999F
:1030400001F0EAFB00D38EE0D068019901F0E4FBC7
:1030500000D388E06068944941180A88002A17D094
:103060000222895E4A005118890041181C310FA8BC
:1030700000F086FE019022685069019901F0CCFBB6
:1030800006D20846916901F0C7FB01D200F084FB2B
:103090004248806B4168844A8C18218800290BD0F3
:1030A00002681069019901F0B7FB5CD2084691698A
:1030B00001F0B2FB57D20BE00F9801F044FFA06182
:1030C000109801F040FFE061119801F03CFF206290
:1030D0000220255E6D1C2800642101F05EFF642142
:1030E0004843281A60800FA800F0E2F82B48806B54
:1030F00040686D4943181988642901DA491C198010
:103100000C220FA902241B5F5C00E3189B00C0186F
:103110001C3001F0BDFF2148806B4168624A8A5A29
:103120000068C08C82421ED3CB20C000085C0228FD
:1031300019DC0FA807C800F04BFB002813D0174874
:10314000806B4068CB21C9004118574A805A6428D7
:1031500001D1032000E00220087000200F49896B94
:1031600049681232885212980FA90C4A926B526821
:103170009A23DB00D21838C938C20849896B4968DC
:10318000084A8918342201F063FF0448806B4068C4
:10319000CB21C900405C13B0F0BD0000F411002049
:1031A000DC0400005C060000F7B582B03F48806B8D
:1031B00045680668002728780028029802D06860D1
:1031C0002F611EE0696801F0CFFA040070682100E9
:1031D00001F026FA0190696801F08EFA6860FE201D
:1031E0008005716801F0C0FA00902100019801F09B
:1031F00017FA0100286901F07FFA009901F010FA2E
:10320000286103982978002902D0A8606F611EE028
:10321000A96801F0A9FA04007068210001F000FA21
:103220000190A96801F068FAA860FE208005716825
:1032300001F09AFA00902100019801F0F1F90100E3
:10324000686901F059FA009901F0EAF96861049897
:103250002978002902D0E860AF611EE0E96801F03A
:1032600083FA04007068210001F0DAF90700E868C9
:10327000390001F041FAE860FE208005716801F034
:1032800073FA06002000390001F0CAF9A96901F0BB
:1032900033FA310001F0C4F9A8612878002801D080
:1032A0000020287005B0F0BDCC040000F41100200F
:1032B000F0B591B00600514CA06B406801905049A8
:1032C0004018029030680299896901F04DFA0500B2
:1032D00070680299C96901F047FA0090B0680299D4
:1032E000096A01F041FA0390014601F099F90600DC
:1032F0000099084601F094F90700A06B006810904F
:103300002800290001F08CF90100109800780028AD
:1033100078D104950098059003980690FE208005CA
:103320000790380001F0E8F9310001F0E5F90F905D
:1033300008900024039404AD019F00260420001B84
:103340000D90B0003918009129680E910D99C907A8
:1033500010D50E9904AA105801F062F901000098E6
:103360009E22D200805801F0C7F900999E22D20017
:103370008850761C0D98400827D00D90B0009E21F3
:10338000C9007918091800910E9904AA105801F083
:1033900047F90099096801F0AFF900990860761CB7
:1033A0000096B0009E21C90079180E180E9904AA43
:1033B000105801F035F9316801F09EF93060009E37
:1033C000761C0D98401E0D90D8D1A020C0003E184C
:1033D00029680F9801F024F90100306801F08CF998
:1033E0003060641C28372D1D0398401C0390042C6A
:1033F00000DB28E126000428E7DA9FE7F41100202B
:10340000CC0400000491059706968024E40528006A
:10341000210001F005F905000A950098210001F04E
:10342000FFF806000B960398210001F0F9F80C90C4
:103430000098290001F0F4F807900398290001F0A2
:10344000EFF808900398310001F0EAF809900025A0
:10345000039504AC00260920471B01982C216943E1
:103460004018009020680D90F80711D50D9904A818
:10347000B200805801F0D4F8010000989E22D200DA
:10348000805801F039F900999E22D2008850761CAC
:1034900078082CD00E900198A9004919C900471846
:1034A000B00039189E22D200891800910D9904AA03
:1034B000105801F0B5F80099096801F01DF900995C
:1034C0000860761C0096B00039189E22D2008E1833
:1034D0000D9904AA105801F0A3F8316801F00CF915
:1034E0003060009E761C0E98401E0E90D3D101983D
:1034F000B4494018A9004919C90046183068216824
:1035000001F0FAF830606D1C241D0398401C0390F4
:10351000082D00DD97E02E000828E8DC9BE70497E3
:103520000099084601F07CF8059006968020C005B9
:10353000290001F075F805000A9500998020C00562
:1035400001F06EF806000B968020C005210001F006
:1035500067F80C900098290001F062F807902800A5
:10356000210001F05DF808903000210001F058F8CA
:1035700009900025029504AC00260920471B0198FC
:103580002C2169434018009020680390F80711D55A
:10359000039904A8B200805801F042F80100009895
:1035A0009E22D200805801F0DFF800999E22D200BE
:1035B0008850761C78082ED00D900198A9004919E2
:1035C000C9004718B00039189E22D200891800910E
:1035D000039904AA105801F023F80100009800682C
:1035E00001F0C2F800990860761C0096B000391806
:1035F0009E22D2008E18039904AA105801F010F8E8
:103600000100306801F0B0F83060009E761C0D9823
:10361000401E0D90D1D101986A494018A90049195E
:10362000C90046183068216801F09EF830606D1CB2
:10363000241D0298401C0290082D00DDAAE02E00F7
:103640000828E8DC99E702980088642800D0A1E007
:10365000019802990222895E4A0051188900441893
:10366000E0690299896901F07FF80500206A0299F2
:10367000C96901F079F803900090606A0299096ABB
:1036800001F072F80400210000F0CAFF06002800D3
:10369000290000F0C5FF070010980078002800D02E
:1036A0003DE70495009805900694FE20800507905C
:1036B0000399084600F0B4FF390001F01DF831000D
:1036C00001F01AF80D9008900024029404AD019FB7
:1036D00000260420001B0190B000391800912968D1
:1036E00003910199C90710D5039904AA105800F055
:1036F00097FF010000989E22D200805801F034F814
:1037000000999E22D2008850761C0198400829D04A
:103710000190B0009E21C900791809180091039901
:1037200004AA105800F07CFF01000098006801F026
:103730001BF800990860761C0096B0009E21C90015
:1037400079180E18039904AA105800F069FF0100B7
:10375000306801F009F83060009E761C0198401E28
:103760000190D6D1A020C0003E1828680D9900F025
:1037700057FF0100306800F0F7FF3060641C283705
:103780002D1D0298401C0290042C03DA2600042808
:10379000E8DA9EE711B0F0BD00B581B00A48806B51
:1037A00040680A4941180022D2434A8000220A8018
:1037B000B42149009E22D200801801F09DFA01B088
:1037C00000BD000014050000F4110020CC0400002E
:1037D000F7B5FFB095B0012069460872B548846B13
:1037E0006568B42252009E20C000291830A801F05C
:1037F0002FFC3B4828182DA94CC84CC120680078E4
:10380000012808D12422CD20C00029188AA801F05F
:103810001FFC092200E00422002130AD491C914226
:1038200012DA00200029F9DD8B005B18DB00EB18B1
:103830008C002C1986003618F600A6598700DE5138
:10384000401C8842F6DBE9E708A930A800F0C1FA7D
:103850009848846B20680078002845D1FC26B6057E
:103860000899300000F0DCFE089060681C4944189C
:103870001C4945182868089900F03EFF2060099906
:10388000300000F0CDFE0990696800F035FF6060FF
:103890000A99300000F0C4FE0A90A96800F02CFFDD
:1038A000A0600A9E099F0898014600F0B9FE0B9996
:1038B00000F022FF05003900380000F0B1FE0100E1
:1038C000280000F019FF05003100300000F0A8FECC
:1038D0000100280000F010FF00F0BEFF2063A7E108
:1038E0005C060000E4040000089830900B9A3192C6
:1038F0000C9832900E9933913A92099A3B920D9B13
:103900003C930F9A3D92449045930A9846901098A4
:1039100047904E914F92509067485190032208A9CA
:1039200030A800F056FA089880210906484008900F
:103930006048806B4068DE494418DE4945182868B5
:10394000089900F0D9FE20600999802000064140C6
:103950000991686800F0D0FE60600A98802109062D
:1039600048400A90A96800F0C7FEA060FE208005CC
:103970000B9030AC0425099E0A9F216D380000F0A1
:103980004FFE0190A16A300000F04AFE00902168CD
:10399000089800F045FE002100F0AEFE009900F00E
:1039A000ABFE0100019800F0A7FEA16F00F0A4FE9D
:1039B000A067241D6D1EDED15099380000F030FE46
:1039C00004004F99300000F02BFE05004E98089936
:1039D00000F026FE002100F08FFE0100280000F01C
:1039E0008BFE0100200000F087FE519900F084FE5C
:1039F000519030AC03252068519900F060FF802180
:103A00000906484020606068519900F058FF802105
:103A1000090648406060A068519900F050FF80217D
:103A200009064840A06028346D1EE4D101200090B2
:103A30001BAB03AA30A90A2000F02FFA0022CC4BBE
:103A4000039840004008190000F0E6FE02D20398F7
:103A500043005B080398400040088021090400F0FF
:103A600037FE02D8039842005208049C60004008C8
:103A7000190000F0D1FE01D263005B081000610064
:103A8000490800F0C9FE01D262005208059C60009E
:103A90004008190000F0C0FE01D263005B0810006E
:103AA0006100490800F0B8FE01D2620052080148E6
:103AB00004E000BFF4110020000080BF846B100000
:103AC000190000F0FCFE01002068806A00F0A4FEEE
:103AD00000D22CE166681BAC03270398410049081B
:103AE000CD20C0003518FE20800500F0E8FE00F073
:103AF000B3FE0100206800F0E2FE28600498410057
:103B00004908FE20800500F0DAFE00F0A5FE010065
:103B1000606800F0D4FE6860059841004908FE2006
:103B2000800500F0CCFE00F097FE0100A06800F0D8
:103B3000C6FEA8600C340C367F1ECED124A91BA86B
:103B400000F09CFB0025079530A806908948806B03
:103B500017904068019030A80090002014958100D3
:103B6000009A561824AA5418069982001218D200F6
:103B70008918019ACD23DB00D2181592149D149058
:103B800016910020306015980168206800F048FD0B
:103B90000100002000F0B0FD070037601598406874
:103BA000E16800F03DFD0100380000F0A5FD0700D0
:103BB000376015988068A16900F032FD0100380077
:103BC00000F09AFD306014998D4201D0169908607A
:103BD0001498401C1490169828301690241D361DF9
:103BE00014980328CDDB6D1C0098283000900198B4
:103BF0000C3001900698001D06900798401C079015
:103C0000032D04DA280007990329ECDAA6E71798B0
:103C1000406830A90322CD23DB00C3180C681C6068
:103C20004C685C608C689C6028310C30521EF2D16C
:103C300011A80021002200230EC011A894AD4D4907
:103C4000896B1591496807910C4618A903231490B4
:103C50000691019400931598006816900078012849
:103C6000286829D11249615800F07EFD06000698A7
:103C700006600198CD21C90047183968300000F06E
:103C8000CFFC119900F038FD11907968300000F0F8
:103C9000C7FC129900F030FD1290B968300000F0B6
:103CA000BFFC0100139800F027FD13900AE000BF4D
:103CB0005C060000E40400002F49615800F054FD48
:103CC0001499086001980C3001900698001D069028
:103CD000241D2D1D1498001D14900098401E009066
:103CE000B9D1139D129E1198014600F099FC040071
:103CF0003100300000F094FC0100200000F0FCFCDA
:103D000004002900280000F08BFC0100200000F0D6
:103D1000F3FC00F0A1FD0799184A895800F024FD32
:103D2000410049081698C06A00F076FD1AD2FFF7E4
:103D300033FD2DA80F49896B49680F4A89181CC8A3
:103D40001CC10C48806B01680978012907D1242225
:103D50008AA94068CD23DB00C01801F079F9002062
:103D6000694608726846007A7FB018B0F0BD00005E
:103D7000FFFF7F7FF41100205C0600008C0600002E
:103D8000F0B581B005000F002868396800F0ECFC40
:103D900004006868796800F0E7FC0600A868B96864
:103DA00000F0E2FC05002000210000F039FC0400D6
:103DB0003000310000F034FC210000F09DFC0400D4
:103DC0002800290000F02CFC210000F095FC01B037
:103DD000F0BDF2B5E2B01400B4225200010007A811
:103DE00001F036F90020210055D00094641C0294A3
:103DF000002407A982001218D2008918069107A989
:103E00002C22424389180591810004910190019868
:103E1000844222D0A0000519ED0007A8049940189B
:103E200040590599096800F04AFD019E02998E42A9
:103E300013DA0390B10007A8401947180398069AAF
:103E4000515800F0EDFB0100386800F08DFC38603F
:103E5000761CF6B202988642ECDB641C0098844221
:103E6000D5DB0198401C00998842C1DB629C00258B
:103E70008E0007A88019A9004919C900405807A950
:103E80002C226A43895800F01AFDA90060506D1C6D
:103E900000988542EDDB63B0F0BDFEB590B00190B7
:103EA00085001098083046591098876841680800C6
:103EB00000F0B6FB04003800390000F0B1FB21002F
:103EC00000F01AFC04003000310000F0A9FB2100D2
:103ED00000F012FC0390109808300199C9004618B0
:103EE0001098001D40190090109805680398002153
:103EF00000F0C0FE09D11198056000980068119982
:103F00004860306811998860FCE0009800682900DA
:103F100000F0F2FB316800F0EFFBD34900F0CFFC7A
:103F200004003068210000F01FFC02900098006837
:103F3000210000F019FC06002800210000F014FC0C
:103F4000010000F06DFB05003000310000F068FB5F
:103F5000290000F0D1FB05000299084600F060FB43
:103F6000290000F0C9FB050003998020C00500F07E
:103F700057FB290000F0C0FBBC4900F0A0FC00F09A
:103F80006BFC0600002706AD009401987843800082
:103F9000029010980068002F18D1009900F0E4FBFF
:103FA000310000F08CFC06901098001D02994058DA
:103FB000310000F084FC6860109808300299405885
:103FC000022F11D1009900F0CFFB0DE0310000F07D
:103FD00076FC2860012FE7D11098001D0299405807
:103FE000009900F0C1FBE3E7310000F068FCA86035
:103FF0007F1C0C35032FC8DB0596099804900C989C
:1040000003900D9802900B9E0E9F0A9D2800390088
:1040100000F006FB04000298310000F001FB0100F3
:10402000200000F0A1FB069900F0FAFA04000398C2
:10403000310000F0F5FA06000498390000F0F0FABB
:104040000100300000F090FB079900F0E9FA210030
:1040500000F052FB04000499029800F0E1FA060017
:104060000398290000F0DCFA0100300000F07CFB2E
:10407000089900F0D5FA210000F03EFBFC218905EB
:1040800000F0CEFA7A4900F0C7FB01D2794C0CE07F
:10409000FE21890500F01CFB01D8002405E000F09A
:1040A00063FC714900F00BFC040005998020C005F9
:1040B00000F0B6FA0500200000F0D2FD290000F063
:1040C000AFFA009900F018FB119948606A48210086
:1040D00000F012FB00F0C4FD290000F0A1FA0099E5
:1040E00000F00AFB1199886000995F4800F098FA87
:1040F0001199496800F038FB1199896800F034FB88
:10410000119908601898002800D1ABE0129800249B
:10411000109D029000200023029AA11C0A91611CAC
:104120000991019E069000201060109837005F43AF
:10413000BF00C019019604930594089503920024CA
:1041400005002F6808980199614389004658059831
:10415000012804980ED1A04205D1380011990968B0
:1041600000F002FB07000598A0422CD13000119905
:10417000896825E0A04211D109980790009007981E
:10418000032100F00AFF410009180098401A80003E
:1041900011990958380000F0E7FA07000598A04285
:1041A00011D10A98079000900798032100F0F5FEBE
:1041B000410009180098401A8000119909583000F0
:1041C00000F0D2FA06003800310000F029FA039915
:1041D000096800F091FA03990860641C2D1D032CF6
:1041E000AFDB019E059C089D010000F019FA01005B
:1041F00000F016FA069900F07FFA0690049B5B1C0B
:10420000039A0C32032B8EDB0196069800F024FBF8
:10421000060002980068002100F02CFD04D0310057
:1042200000F04DFB029908600298C068002100F080
:1042300021FD04D0310000F042FB0299C8600298D1
:104240008069002100F016FD04D0310000F037FB3A
:1042500002998861641C2D1D0298001D0290032C98
:1042600000DA57E713B0F0BD000040400000C04046
:10427000FFFF7FBF920A863F920A0640F0B585B0E5
:1042800004000E0000200025694608716068E1689E
:1042900000F0F0FC0AD1A068A16900F0EBFC05D1A8
:1042A0006069E16900F0E6FC00D101252169206A1E
:1042B00000F0B6F907006169E06900F0B1F90100AA
:1042C000380000F051FA30606169A06900F0A8F987
:1042D0000700E168206A00F0A3F90100380000F04F
:1042E00043FAF060E168E06900F09AF9070021699B
:1042F000A06900F095F90100380000F035FA0700D8
:10430000B761A0680390206802900146306800F011
:1043100087F900906168F06800F082F9009900F078
:10432000EBF900900398390000F07AF9009900F059
:10433000E3F90700002100F09DFC71D0216A02988A
:1043400000F06EF90090A169039800F069F901008E
:10435000009800F009FA3061A169606800F060F926
:104360000090E169206800F05BF90100009800F01E
:10437000FBF9F0612169206800F052F90090E168D2
:10438000606800F04DF90100009800F0EDF930622E
:10439000002D29D1E169A06800F042F90500216AE9
:1043A000606800F03DF90100280000F0DDF9706060
:1043B0006169606800F034F905002169A06800F0C7
:1043C0002FF90100280000F0CFF9B060E168A06883
:1043D00000F026F905006169206800F021F901006C
:1043E000280000F0C1F904E0F0687060B069B060C6
:1043F000F069706103243068390000F060FA3060C1
:104400007068390000F05BFA7060B068390000F045
:1044100056FAB0600C36641EEDD101206946087171
:104420006846007905B0F0BD30B581B064216348BD
:10443000026801239A430260614A012090609368F8
:10444000002B21D0491E27D0F9E76A4908706A4D30
:104450002800FDF735FA28009030FDF731FA67A4FF
:104460002100902040002818FEF7E2F92100962054
:1044700040002818FEF7DCF921009C204000281895
:10448000FEF7D6F901B030BD002905D05C491160B6
:1044900011685C4A9142D8D05B490968090C09044B
:1044A0005A4A9142D1D0FEE7524B1B78002B00D1E3
:1044B000704770B514000E004F4D01009020400071
:1044C0002818FEF7B5F93100962040002818FEF7AD
:1044D000AFF921009C2040002818FEF7A9F970BD13
:1044E00044490978002901D0494948707047414939
:1044F0000978002901D04649087070473D4909787C
:10450000002901D04249887070473A49097800294A
:1045100001D0404908707047364B1B78002B00D102
:10452000704710B592B00400C868079008690890F9
:104530004869099088690D90C8690E90086A0F90C3
:1045400008680A9048680B9088680C90109207A938
:1045500083B06846282200F07BFD0EBC2000FDF7EA
:10456000E2F912B010BD10B5224C2278002A0FD00B
:1045700000290DD000F09EFB0100274800F09FF9B4
:10458000FEF7EDFBA06B0068002101702349C162BA
:1045900010BD10B584B0174C217800290BD00168EC
:1045A00000914168019180680290231D684607C808
:1045B000FEF774FC607004B010BD0000002000E045
:1045C0000030024081B00B490A78002A10D04A68B6
:1045D00002608A684260CA6882604978002906D011
:1045E000012904D0022902D0032900D0002101733F
:1045F00001B07047F4110020FC040020656E7500C6
:10460000C2A507F4CDB5E8B5F8070010000055AA1B
:10461000C0040020E004002000007A449A99993EEA
:1046200030B405004D400122D20715404B18041844
:10463000240E2ED01B0E32D0FF2C34D0FF2B3AD0BC
:10464000E4180002090210431143000A090A9446C3
:10465000C2B24A43000AC3B24B43000A4843110A9C
:104660005B181A43D2B2190A091801D44918641EFA
:10467000080A7F3C23DBFE2C08DAE4050906114317
:10468000634699416041284330BC7047FF20C00514
:10469000F9E728001B0EFF2BF6D1D043F4E72800E2
:1046A000FF2CF1D1F9E74002F7D1FF2B01D14902EC
:1046B000F3D1E005E7E7D8054902E4D0EDE743028E
:1046C0000020641CDFD15B129B1CDCD9D805DAE723
:1046D0000CB4012212060318DA4207D84B18DA424A
:1046E00004D802000A43921802D281420CBC7047DF
:1046F000FCD088420CBC70470122D20703004B401B
:104700002ED4431A01D2C01AC91830B44B18041859
:10471000240E1B0E22D0FF2C20D0E31A182B1DDCF8
:1047200009021143C40D641E00021043944619256A
:10473000ED1A0A00AA40D940451801D36D08A41CFF
:10474000E405D209280A2D062A436546AA4160419C
:1047500003181B0EFF2B01D3C00DC00530BC7047E2
:10476000514006E05140CCE70122D20703004B4004
:10477000F8D4431A03D2C01AC9185040514030B47B
:104780004B18090211430418240E1B0E40D0FF2CB5
:104790003AD025009D410BD31ED8C50D4002401ACA
:1047A0000BD3ED050100400AC90591416841D5E7E9
:1047B000C50D40024918401AD0D001214008491CBB
:1047C0000018FCD58C4204D36D1A000AED0540197F
:1047D000C4E7E8051040C1E7182DBFDCAC1C0D0094
:1047E000E140E5414D40012D4941C40D0002104317
:1047F000451A01D46D199543641EE405280A2D0657
:104800009541604130BC7047FF2BA7D1D843A5E745
:104810002442A3D10020A1E70CB401221206031800
:10482000DA4207D84B18DA4204D802000A43921839
:1048300002D288420CBC7047FCD08142FAE70C08D7
:1048400002170D01010209090101060209FFFFFF1C
:10485000FFFF0909FFFFFFFF0122D205011825D242
:10486000090E22D0FF2920D0CB05984310437D317B
:10487000490800D300189318C01A80009B18801AAA
:1048800006D452080ED2C01A9B180018801AF8D508
:10489000520806D2C0189B1A0018801AF1D5520887
:1048A000F8D35B1EC905580848417047D042FCD870
:1048B000090EFAD0C84300B500BF00BF00BD30B438
:1048C00005004D400122D20715404B180418240E54
:1048D00028D01B0E2FD0FF2C34D0FF2B37D0E41A5A
:1048E000000209021043114343084808D10D1B1A66
:1048F00002D2641EDB181B18DB18834200D31B1A7C
:104900004941F9D37F3426DDFE2C08DAE405480856
:10491000C907194391416041284330BC7047FF20CB
:10492000C005F9E728001B0E03D0FF2BF5D1490283
:10493000F3D0D043F1E7FF2C01D14002F9D1FF20A1
:10494000C005E9E74002F4D1FF2BF8D1F1E72800D8
:104950004902E2D0EDE70B0200202442DCD15B12D9
:104960009B1CD9D9D805D7E7F8B541000A16521CC7
:1049700001D1090241D1C10F01D0042400E0022479
:1049800046007608FE25AD0528003100FFF7ECFE55
:10499000070030002900FFF7AFFE3900FFF740FEA7
:1049A000FFF75AFF02001548002802D580210906AA
:1049B000081A310002D580231B06591A884202DBEF
:1049C0003000110010E0002D02D580200006451BAC
:1049D000300002D580210906081A85420ADB02212F
:1049E00061400C0010003100FFF769FF210000F06A
:1049F00085FBF2BD00BF00BF0148F2BDF304353FA7
:104A0000FFFFFF7FF8B504000D0088482100FFF785
:104A100007FE0600700040089E21C905FFF7FCFE56
:104A200046D2FC2080054100490880221206300051
:104A3000104008433100FFF75FFE00F067FA060000
:104A400033D000F037F9E2218905FFF7E9FD0700CF
:104A500077483900FFF7E4FD01002000FFF784FEEE
:104A6000040074483900FFF7DBFD01002000FFF768
:104A70007BFE040070483900FFF7D2FD01002000E2
:104A8000FFF772FE04006D483900FFF7C9FD010011
:104A90002000FFF769FE040069483900FFF7C0FDF8
:104AA00001002000FFF760FE0400B007800F6BE0FC
:104AB00060000016401C08D160000116491C02D19C
:104AC000000200D0AFE05F48F2BD600005D1002DCC
:104AD00000D1A8E0FE24A405A5E03100FC2080055B
:104AE0004200520880231B06080018401043FFF7BD
:104AF00003FE41000DD09622090E511A182904DB3D
:104B0000060080200006064004E0002901DDC840C0
:104B100088400600700032D0E22080053100FFF7A7
:104B20007FFD070042483900FFF77AFD01002000B1
:104B3000FFF71AFE04003F483900FFF771FD01003E
:104B40002000FFF711FE04003B483900FFF768FD25
:104B500001002000FFF708FE040038483900FFF785
:104B60005FFD01002000FFF7FFFD0400344839001D
:104B7000FFF756FD01002000FFF7F6FD04003000AE
:104B800000F0C4F98007800F2E186000400802D59D
:104B900080210906081AE621890502D5802212061D
:104BA000511AF507ED0F884204DA002D36D0FE24A5
:104BB000A40533E020002100FFF732FD0700002D9F
:104BC00012D021483900FFF72BFD2049FFF794FD53
:104BD0003900FFF725FD1E49FFF78EFD3900FFF76D
:104BE0001FFDFE21890516E020003900FFF718FDA2
:104BF000050018483900FFF713FD01001648FFF7BC
:104C00007BFD3900FFF70CFD1449FFF775FD290006
:104C1000FFF706FD2100FFF76FFD0400B00702D586
:104C20008020000644402000F2BD000083F9223FAE
:104C30000000C94600A0FD400020A23A0000343325
:104C40000030C22EFFFFFF7F9349B2BA36A02A3D43
:104C5000DFFFFFBE6E8C4CB94283083CA1AA2ABE7E
:104C600080B50121FFF7CEFE02BD80B50021FFF720
:104C7000C9FE02BD944602000A43921808D0884239
:104C800006D1012212060018D042084600D8804200
:104C9000624670479D2102000AD002D4491E921834
:104CA000FCD5C905100A1206524100D3012A484119
:104CB000704700009D210200EED55242F446FFF7F6
:104CC000EBFF0122D207104360470268531C0360C8
:104CD000117070471206130A1A43130C1A4300BFCF
:104CE000094205D0830709D00270401C491EF9D142
:104CF000704700000022F3E70022FFE7130010399D
:104D000006D330B41400150010393CC0FCD230BCBE
:104D1000490700D30CC000D504C0890002D302802B
:104D2000801C002900D50270704770B505000C008A
:104D3000200000F07DFA48004015401C2DD02800CE
:104D400000F076FA48004015401C26D0E80F03D04A
:104D50006D006D08082600E00026E00F04D0640016
:104D60006408300006264640200002D5802109064E
:104D7000081A290002D580221206511A884204DA44
:104D800020002900FFF79BFD37E06000400837D086
:104D900028002100FFF793FD32E068000116491C4E
:104DA00003D1000201D0280070BD60000116491C2B
:104DB00003D1000201D0200070BD61000916491C1A
:104DC0000AD1600208D169000916491C04D16802A1
:104DD00002D1FE20800500E00020E90F01D0082666
:104DE00000E00026E10F02D0310006264E406900A7
:104DF0000916491C04D1690202D1310002264E4035
:104E0000310000F07BF970BDF8B5040060000116B8
:104E1000491C01D1000234D1600032D0E00F06D12C
:104E20000025200007D580210906081A03E0640048
:104E300064080825F5E7E621890502D580221206D7
:104E4000511A884202DA002D18D11AE0FE26B60562
:104E500030002100FFF788FC070020003100FFF739
:104E60004BFC3900FFF7DCFBFFF7F6FC02001848AB
:104E7000002808D580210906081A04E080200006D1
:104E800044402000F2BD210002D580231B06591AA0
:104E9000884202DB2000110010E0002E02D58020A5
:104EA0000006861B200002D580210906081A8642CA
:104EB0000ADB022169400D0010002100FFF7FFFC12
:104EC000290000F01BF9F2BD00BF00BF0148F2BD90
:104ED000F304353FFFFFFF7F4200120E7E3A0BDDE9
:104EE0001821891A10DDFF210906C943D14000426B
:104EF00000D44018884370477F22C10D090601D9AC
:104F0000D007704700D0D005704770470122D20704
:104F10000118090E7F3910D449421F310FD40018EF
:104F200005D2C0011043C84000D5D0437047C0012E
:104F30001043C84005D440427047002070470042EB
:104F4000F3D51000704741000916491C0ED04100EE
:104F50000CD09622090E511A182903DB802109066C
:104F600008407047002901DDC84088407047F4467A
:104F7000002804D4494200F013F840426047404200
:104F8000002905D45FD000F00BF840424942604749
:104F9000494200F005F84942604703460B43E6D416
:104FA0000022030A8B420BD203098B4219D2430819
:104FB0008B422ED2411A00D2014652411046704710
:104FC000FF2209023FD012068B4205D312120902BA
:104FD0008B4201D31212090203098B4219D300E05C
:104FE000090AC3098B4201D3CB01C01A524183097C
:104FF0008B4201D38B01C01A524143098B4201D32A
:105000004B01C01A524103098B4201D30B01C01A54
:105010005241C3088B4201D3CB00C01A52418308CE
:105020008B4201D38B00C01A524143088B4201D3FB
:105030004B00C01A5241884200D3401A5241CFD28D
:1050400001461046704708B500F00CF908BD7047DE
:1050500070B4103A03D378C9103A78C0FBD2530722
:1050600001D318C918C001D508C908C0D20704D394
:105070000B880380891C801C002A01D50B780370E3
:1050800070BC7047521E22D30B78491C0370401C21
:105090008B07F7D18307DBD0DB4219D0401E121FEC
:1050A00008D308C943701B0A43801B0C0371001D01
:1050B000121FF6D2D20707D30B88437001D08A782B
:1050C000C2701B0A8370704701D00B784370704721
:1050D000121F06D308C903801B0C4380001D121F3A
:1050E000F8D2D20705D30B88038005D08B78837064
:1050F000704701D00B78037070477047F8B5050012
:1051000002D580221206101AFE26B605320002D5FC
:1051100080231B069A1A0C00904201D1354D54E0B1
:105120003548002802D580210906081A290002D531
:1051300080221206511A884215DA304F28003900B1
:10514000FFF76EFA01002E48FFF7D6FA009028000C
:105150003900FFF7D1FA01000098FFF7B0FB050016
:1051600020000124044368004008E621890506D593
:1051700080221206511A02D580221206101A81428C
:1051800023DA28002900FFF74BFA0700280039002E
:10519000FFF746FA01001B48FFF742FA2900FFF724
:1051A000ABFA050018483900FFF73AFA0100174832
:1051B000FFF7A2FA3900FFF733FA3100FFF79CFA44
:1051C00001002800FFF77BFB0500A00702D5802027
:1051D00000064540600706D00DA1C00E0858290002
:1051E000FFF78AFA0500200702D580200006454017
:1051F0002800F2BDDB0F493FA330893ED7B3DD3F26
:10520000000080BF6AD5033F2B94A93DB82A593FBF
:1052100000000000920A063FDB0FC93F920A863F5A
:10522000DB0FC93F920A0640DB0F4940368D27400D
:10523000012212060118CA420AD28A420DD8382227
:10524000120609098918C20FD20711434007704797
:1052500000D049080909014301E0C10FC907002036
:10526000704770477047704700B581B0002100203B
:1052700001F091FE0121002001F02DFE6946087029
:105280006946002001F041FE684600780028F7D109
:10529000002101F070FF0121002001F087FF0121B2
:1052A000002001F09EFF0321002001F0B5FF012145
:1052B000002001F095FC0121002001F0ACFC01214F
:1052C000002001F0C8FC0321002001F03FFC032175
:1052D000002001F06DFC0021002001F01DFC0621E2
:1052E000002001F04BFC0121002001F01EFE02F025
:1052F0005BFA01B000BD00B581B00221002002F0D0
:10530000DAFB0121002002F022FC0021002002F043
:1053100004FC0021002002F0B4FB0121002002F077
:10532000E4FB01B000BD00B581B01121002002F006
:10533000C4FC0121002002F039FC1421002002F0FD
:1053400052FC0121002002F0F4FC0121002002F0B7
:105350000DFD0021002002F0CFFC0121002002F011
:1053600091FC01B000BD00B581B00021002002F029
:1053700037FE0021002002F069FE0121002002F02A
:105380009AFE0321002002F0ECFE0021002002F032
:1053900019FF4021002002F073FF8021002002F05D
:1053A00043FF0021002002F0B2FE002002F0F6FDD3
:1053B00001B000BD70B58AB007A884490CC90CC003
:1053C0000721012002F08EFF02F090FF06A8019055
:1053D00005A8009005AB9B1C07220021012002F0CC
:1053E00089FF07A80090072300226846818AC08AA7
:1053F00002F098FF0020049075480390002002906E
:10540000102001900720009000230022012101209C
:1054100002F092FF002002F0D9FF012002F0D6FF37
:10542000022002F0D3FFBC4C0B212000FFF764FCEC
:105430000126A672B94803F027F800F021FEE07BB0
:10544000002801D0FFF76FFFA07B002801D0FFF7F5
:105450008AFF607B002801D0FFF74DFF207B0028EA
:1054600001D0FFF701FF00F0A3FE03F097F903F06E
:10547000C7FB03F02AFC052004F09BFA0B25012052
:1054800004F0B8FB042004F0FBFB0028FAD004F081
:1054900011FC022100B204F029FB60646D1EEED104
:1054A000002004F086FA606C9D49FFF7B9F8FFF719
:1054B0002DFD010010A004F00BFC606C9949FFF772
:1054C00007F901D8984800E0984804F001FC606CA6
:1054D0009749FFF7FDF800D8A675002004F069FA97
:1054E00004F03FFAA07D002803D10121C80204F096
:1054F000ADFC0AB070BD0000426174746572792021
:1055000025646D563A20000030B585B0002846D09D
:10551000FEF78AFF2FA200BF2FA100BF2FA0FEF72A
:10552000C3FF0120FEF7F1FF0120FEF7E0FF01209D
:10553000FEF7E4FF0020FEF7D3FF01212820FFF74C
:1055400012F86846FFF73EF86846007B032803D050
:105550007848007B022818D1774D6F4C00982900BD
:10556000FFF75EF8FFF7D2FC206201982900FFF7F1
:1055700057F8FFF7CBFC606202982900FFF750F85C
:10558000FFF7C4FCA062012104E06C480021002266
:1055900000230EC0604841760121417414E0FEF7FB
:1055A00043FF0020FEF7B1FF0020FEF7A0FF002020
:1055B000FEF7A4FF0020FEF793FF00212820FEF74E
:1055C000D2FF00205449487405B030BDB89F061082
:1055D00040E201006E6575007773750077737500A2
:1055E00070B594B00AA856490CC90CC055491C2284
:1055F000FFF72EFD08AA07A9802004F04BFC08A89D
:105600000CAC01786176417821768178E175C178BA
:10561000A17501796175407920754B4E0AAD300056
:1056200004F04EFC0021C94388423DD0300004F014
:1056300049FC6870300004F045FC6071761C300055
:1056400004F040FCA870300004F03CFCA071761C13
:10565000300004F037FCE870300004F033FCE071F7
:10566000761C300004F02EFC2871300004F02AFC77
:105670002072761C300004F025FC6871300004F0C4
:1056800021FC6072761C300004F01CFCA871300014
:1056900004F018FCA072761C300004F013FCE871D2
:1056A000300004F00FFCE0720421012002F01AFE29
:1056B0000021002004F044FCB021490000200690A5
:1056C0000590049003900AA8029008200190002001
:1056D000009001230A0004F03EFC607E0490207ECE
:1056E0000390E07D0290A07D0190607D0090237D7D
:1056F0006A1C0721154804F0EBFA0CA91A2004F0E3
:105700004BFC0548807D002803D11149012004F09D
:105710004BFC14B070BD0000AC110020801A0600D4
:1057200000007A4401000040A0610510A861051046
:1057300001005040D81200200000FA43CC11002094
:10574000C09F0610C89F061000E807100CB706108F
:10575000204E0000F0B583B0694D6A4C6078002897
:1057600066D0607D00285BD000206075642104F065
:105770001BFC822040002E18E07B002822D08820CD
:10578000400029180020086002F068FAF068FFF76E
:1057900091FAE6218905FEF743FFB0600700FFF7A5
:1057A000B5FB642141430091FFF784FA0100380002
:1057B000FEF7DAFF5449FEF733FFFFF7A7FB009926
:1057C00008183061A07B002824D0842040002A18CB
:1057D000291D002002F0F6FAA88828810420305EF6
:1057E000FFF768FADD49FFF76AF80700FFF78EFB5D
:1057F0008100091849000091FFF75CFA01003800A8
:10580000FEF7B2FFD549FEF70BFFFFF77FFB0099CC
:10581000081868810A202A5E2989306903F058FC3B
:10582000A07D002800D025E30022002102201FE3F4
:105830002079002847D0607D00283CD00025657580
:10584000052004F0B6F8042004F01AFA0028FAD073
:1058500004F030FA022100B204F048F90600606C4E
:10586000FFF7E6FCB9A20CCA04F0ABFB0090019173
:105870003000FFF7DDFCB7A20CCA04F0A2FB009ACF
:10588000019B04F060FC04F038FD6064FA2189009B
:10589000002004F089FB606CDB49FEF719FF02D899
:1058A0000121A17500E0A575D849FEF7B9FE04F005
:1058B00055FD03F017FBA07D002800D0DAE200229E
:1058C00000210220D4E2A079002809D1E078002844
:1058D00006D12078002803D1A078002800D157E213
:1058E000607D002800D143E200206075C84E30780A
:1058F00000281CD0607E002808D0642207E000BF8A
:105900005C030020AC1100200000C8420022FF21EF
:10591000481C03F00FFC607E002801D0642200E0E8
:105920000022FF21402003F005FC002030702E00F3
:105930008436207B002800D18AE02F009C37062186
:105940003800FFF7D9F93900002001F0DAF9CB4F20
:105950001820305EFFF7AEF901003800FEF760FE58
:10596000AA49FEF7ACFF30631A20305EFFF7A2F9B8
:1059700001003800FEF754FEA449FEF7A0FF706353
:105980001C20305EFFF796F901003800FEF748FE54
:105990009E49FEF794FFB0632F00A437062138001C
:1059A000FFF7AAF93900002001F0A1F9B44F202037
:1059B000305EFFF77FF901003800FEF731FEF0633B
:1059C0002220305EFFF776F901003800FEF728FE4E
:1059D00030642420305EFFF76DF93946FEF720FE73
:1059E00007007764306BFFF791FAB064706BFFF7D4
:1059F0008DFAF064B06BFFF789FA3065F06BFFF752
:105A000085FA7065306CFFF781FAB0653800FFF7F2
:105A10007DFAF065306B7D49FEF751FF3060706BA9
:105A20007A49FEF74CFF7060B06B7849FEF747FF8C
:105A3000B060F06B7549FEF742FFF060306C73495F
:105A4000FEF73DFF306138007049FEF738FF7061A6
:105A5000607B002800D1B2E02900AC31002002F0C8
:105A600091F8FF27BF052820305EFFF723F90100DA
:105A70003800FEF7D5FDFFF749FA30662A20305E80
:105A8000FFF718F901003800FEF7CAFDFFF73EFAEC
:105A900070662C20305EFFF70DF901003800FEF72C
:105AA000BFFDFFF733FAB066A07E002809D00020C2
:105AB000A076607620626062A06201212820FEF755
:105AC00052FD607E00285AD1306EFFF7F3F86D4921
:105AD000FEF7A6FDF066706EFFF7ECF86949FEF779
:105AE0009FFD3067B06EFFF7E5F86649FEF798FD59
:105AF00070672800F030FEF74CFD634F3800FEF76A
:105B000061FD387B032801D0022838D1012060765E
:105B100038685E49FEF784FDFFF7F8F9206278687F
:105B20005A49FEF77DFDFFF7F1F96062B868574901
:105B3000FEF776FDFFF7EAF9A06200212820FEF7C4
:105B400012FD607E00280BD064220AE0AE47E17AA5
:105B500014AEEF3F7B14AE47E17A843F0000204152
:105B60000022FF21481C03F0E5FA607E002801D0E6
:105B7000642200E00022FF21402003F0DBFA414FC5
:105B8000306E216A401AFFF795F801003800FEF7E1
:105B900047FDA867706E616A401AFFF78BF8010035
:105BA0003800FEF73DFDE867B06EA16A401AFFF7C6
:105BB00081F801003800FEF733FD80216850E0785D
:105BC000002802D1A079002845D0AB4A29007831BD
:105BD00028001030FEF7A0FC6F692A69E8690021EF
:105BE000FEF71AFE16D21000C049FEF719FDFFF7A6
:105BF0008DF90090BD493800FEF712FDFFF786F9D8
:105C00000700A869B94915E0CDCC4C4000007A44A2
:105C1000EE020020B6491000FEF702FDFFF776F90C
:105C20000090B3493800FEF7FBFCFFF76FF907005F
:105C3000A869AF49FEF7F4FCFFF768F98221490033
:105C40006850F7670098B067A86BAA49FEF7E8FCB0
:105C5000FFF75CF9A881207C002861D0A07800289B
:105C60005ED000216A4611802878002810D00228D2
:105C700045D033D3042848D019D351E000007442F2
:105C800000008C426F12033BD81200200000FA4340
:105C90000121802004F0B2F86946292004F04AFD71
:105CA00068460088BF4988423AD1032014E0292081
:105CB00004F068FB0221292004F088FC142129202B
:105CC00004F0E1FB6421292004F000FD292004F008
:105CD000B0FB0028EBD10120287021E0A91C29206D
:105CE00004F0AFFBA87800281AD002202870A91D64
:105CF000292004F02EFD292004F081FB10E004206F
:105D00002870802004F077F80AE06878401C6870FA
:105D1000C0B2042804DB69702970802004F06EF89A
:105D20002078002807D02A00E4322900D831280042
:105D3000CC3003F06FF9A079002802D0A88903F0D5
:105D400009F9E078002803D02800FC3003F09BF824
:105D5000A078002808D02878022805D1E98880207A
:105D60000002084303F018F92821002004F01CF970
:105D7000A0780028A07D05D000287BD1002200213A
:105D8000012075E0002875D10022002102206FE07B
:105D9000E079002833D004F044FDE870002804D0F6
:105DA000202806D0302808D01FE004F0EBFC0020AB
:105DB00000E0022002F033FB17E0002002F040FB7D
:105DC000012002F03DFB022002F03AFBE07D0028BA
:105DD0000BD0207E002808D104F0E6FD802802D1F7
:105DE0000120207601E00020E075002004F0EEFEA6
:105DF000A07D00283ED100220021012038E06079FA
:105E000000280BD0FA214900002004F0CDF8A07D35
:105E100000282FD100220021022029E0607A0028EA
:105E200005D0A07D002825D1002210211FE0A07AF6
:105E3000002803D0022002F0F2FA13E0A07A002832
:105E400010D1207D00280DD1A07D002812D1802006
:105E5000000103F0C7FF012802D10022042106E05F
:105E6000042203E0A07D002804D100221146032073
:105E700004F0B4FE03B0F0BD0AD7233D30B581B0C5
:105E80000800C64CA0830025A56304F002FE002094
:105E900004F09CFE012004F099FE022004F096FE1E
:105EA000C82040000090002311220821A08B05F09B
:105EB0001FFB0B212000FEF71FFF002002F0C0FA9D
:105EC000012002F0BDFA022002F0BAFA65756421E1
:105ED000002004F069F805F017FB206406A003F029
:105EE000F7FE0120207501B030BD000000401CC647
:105EF00000401C460000C842446576696365206323
:105F00006F6E6E65637465640A0D0000F0B583B052
:105F100000F04EF9A14C0B212000FEF7EDFE01260A
:105F2000A672002500202075A08302F089FA0120C6
:105F300002F086FA022002F083FA052003F039FD10
:105F4000042003F09DFE0028FAD003F0B3FE0221E6
:105F500000B203F0CBFD0700606CFFF769F9ABA25C
:105F60000CCA04F02EF8009001913800FFF760F998
:105F7000A8A20CCA04F025F8009A019B04F0E3F8EB
:105F800004F0BBF96064A949FEF7A2FB01D8A6752D
:105F900000E0A575002003F00CFDFFF721FB03B026
:105FA000F0BD0000CCEA000000B581B0080003F0AD
:105FB00017F901B000BD000010B5002803D0022879
:105FC0001BD004D310BD01207449487510BD734C1B
:105FD000207D0028FAD100BF11A003F079FE002037
:105FE00002F02EFA012002F02BFA022002F028FA29
:105FF00005F093FA0020A07210BD002002F020FAF4
:10600000012002F01DFA022002F01AFA05F085FACA
:10601000BFF34F8F824886490860BFF34F8FFEE77A
:10602000456E746572696E6720736C6565702E2E9F
:106030002E0A0D0000B581B008000299DAB203F013
:1060400035F901B000BD70470020744908767047EB
:106050007047000000B581B0764905F069FA01008B
:1060600002A003F035FE01B000BD00005061737363
:10607000206B6579207265713A202564000000006C
:10608000F0B581B0002769460F70664803F020FE26
:106090006946002000F015FF404C634D68460078CB
:1060A0006C2806D1280003F013FE01202073A07491
:1060B00005E02800243003F00BFE2773A77469461F
:1060C000002001F0D5FD68460078B32806D12800ED
:1060D0004C3003F0FDFD0120E07304E02800703037
:1060E00003F0F6FDE7736946002001F05DFE6846A7
:1060F0000078BC2806D12800943003F0E9FD012087
:10610000A07304E02800B83003F0E2FDA7736946ED
:10611000002001F041FD68460078402806D10120AA
:1061200060732800DC3003F0D3FD05E084204000DC
:10613000281803F0CDFD67730021802003F05EFE78
:106140000A21292005F050FA0121802003F056FE93
:106150006425394E0A21292005F046FA00A9891C38
:10616000292004F0E7FA68464088B04201D06D1E4D
:10617000F0D10021802003F041FE68464088B04203
:1061800006D100BF06A003F0A3FD0120207403E0A8
:1061900005A003F09DFD277401B0F0BDAC110020F7
:1061A0004F4B0A0D000000004641494C0A0D00000B
:1061B00010B5AD4C207B002807D00021002000F056
:1061C000C5FC0021002000F0F3FCE07B002803D098
:1061D0000021002001F007FD607B002803D0022190
:1061E000002001F04EFCA07B002803D001210020FC
:1061F00001F08DFF207C002803D00021802003F0D7
:10620000FDFD00BF0DA003F063FD10BDCDCCCCCCD7
:10621000CCCCEC3F9A9999999999B93FAC1100204F
:106220000400FA05E49F06108CA40610CDCC4C4067
:106230000CED00E040E20100CCEA000053656E7313
:106240006F7220696E206C6F772D706F7765723A70
:10625000204F4B0A0D00000030B581B0824CC17850
:10626000827812020A434178090411430278120627
:106270000A43E26301794579E06B403800D1DEE002
:10628000C03800D1DBE0C0229200801A04D0774AE7
:10629000801A00D1ADE0E4E0662909D0702947D02A
:1062A000732925D0742900D183E0772962D0D8E002
:1062B000002D0ED0012D00D0D3E06D4803F008FD75
:1062C00001F002FB01226621900202F033FF01205F
:1062D0000BE0684803F0FCFC01F00FFB0022662194
:1062E0008020C00002F026FF002063490870B8E05B
:1062F000002D0ED0012D00D0B3E0604803F0E8FC83
:1063000001F00AFB01227321900202F013FF012029
:106310000BE05B4803F0DCFC01F039FB0022732149
:106320008020C00002F006FF00205349C87098E0AA
:10633000002D10D0012D00D093E0524803F0C8FC8E
:1063400001F050FB01F084FB01227021900202F069
:10635000F1FE01200BE04C4803F0BAFC01F05BFBBE
:10636000002270218020C00002F0E4FE002042499B
:10637000487076E0002D0DD0012D72D143A003F0BE
:10638000A7FC01F075FA01227721900202F0D2FEFB
:1063900001200BE044A003F09BFC01F086FA0022F0
:1063A00077218020C00002F0C5FE0020324908712C
:1063B00057E0002D0ED0012D53D100BF41A003F0B6
:1063C00087FC01F029FA01227421900202F0B2FE4A
:1063D00001200BE03FA003F07BFC01F036FA002225
:1063E00074218020C00002F0A5FE002022494871DF
:1063F00037E000290BD0012915D102F010F800BFB9
:1064000039A003F065FC2A000121480709E002F0E9
:1064100017F800BF38A003F05BFC2A0000218020A1
:10642000800502F087FE607900281AD0002002F073
:1064300018F8002800D0012002F0CEFD11E000295C
:106440000BD0FF290DD1607E002801D0642200E02E
:106450000022E06B02F06EFE03E000206076012077
:10646000A076012001B030BDAC11002000FCFF1F60
:10647000F89F061010A006101C00002028A006108F
:1064800040A0061058A0061070A00610456E61626C
:106490006C65643A20486172647761726520576167
:1064A0006B6575700A0D000044697361626C656408
:1064B0003A2048617264776172652057616B657537
:1064C000700A0D00456E61626C65643A2054696C17
:1064D000740A0D0044697361626C65643A20546902
:1064E0006C740A0D00000000456E61626C65643AD0
:1064F000204C45440A0D000044697361626C656478
:106500003A204C45440A0D0070B584B005000E00D9
:106510000124042229008A4805F0CAF800280AD17B
:106520000024884D8849280005F0D8F8874908607C
:1065300081B2280092E004222900854805F0B8F8CD
:10654000002810D100247F4D30200190322000908F
:106550003123804A8049280005F0C0F87B49086053
:1065600081B228007AE0082229007C4805F0A0F8D2
:1065700000280CD10024734D794B7A4A7A492800BF
:1065800005F0ACF87149086081B2280066E0092284
:106590002900764805F08CF8002810D10024694DB8
:1065A00030200190322000903123714A7149280037
:1065B00005F094F86549086081B228004EE00A228F
:1065C00029006D4805F074F800280BD15D4C6B492B
:1065D000200005F083F85D49086081B2200002F0D8
:1065E000D4FD92E00B222900654805F061F80028EF
:1065F00037D100246348466C30006349FEF768F8E1
:106600000ED86249FEF708F90AD26149FEF708F888
:10661000FEF77CFC02005F494A4805F05FF819E08C
:106620005B49FDF7FDFFFEF771FC05003000FEF74A
:10663000FFFD0022C0231B0603F085FD0022564B00
:1066400003F0BFFC05F06AF802002B0053A13D489F
:1066500005F044F83D49086081B23A4802F095FDE2
:106660006AE00822290000BF51A005F021F80028A7
:106670004DD1761E092E34DB7D2003F00FFC012066
:1066800003F04DFC0128FAD16846002100220023C6
:1066900000241EC0E87B0006A97B09044018697B22
:1066A00009024018297B40180190E87A0006A97A6F
:1066B00009044018697A09024018297A40180090A4
:1066C0006946A74803F012FC012003F028FC0128CA
:1066D000FAD11C4CA349200005F000F81B490860C2
:1066E0000FE0184C35A1200004F0F8FF174D28608A
:1066F00081B2200002F049FD9B49200004F0EEFF2A
:10670000286081B2200002F040FD002414E0112234
:10671000290000BF2FA004F0CBFF00280CD1094DA9
:1067200031A1280004F0DAFF0849086081B228008E
:1067300002F02BFD05F01CF8200004B070BD000035
:1067400088A00610140D0020FCA7061020130020BE
:1067500090A0061098A006106CA80610ACA0061019
:10676000E4A00610D8A00610B8A00610F0A00610ED
:1067700014A10610FCA0061028A1061034A10610D2
:1067800048A10610AC110020010050406766564039
:1067900000007A4454A106100000594043523230A0
:1067A000333220256425252025646D56200D0A00EE
:1067B0007365744E616D6520000000000A496E73B8
:1067C00065727420746865206E6F6465206E616DFB
:1067D000650D0A004F5441536572766963654D61DA
:1067E0006E61676572000000526573657474696E4E
:1067F0006720485720666F72204F54410D0A0000F1
:1068000030B581B0954C21000831002000F03BFAF2
:1068100001256078002802D1E079002810D0607B43
:10682000C00828420CD0002001F0F9FDB34803F065
:106830004FFA01F014F920820321208A02F0DEFAD7
:106840002078002802D1E07900280FD0207A284251
:106850000CD0002001F0E3FD012001F0E0FDA8488C
:1068600003F036FA0221102002F0C8FAA0780028BE
:1068700002D1E079002810D0207AC00828420CD03C
:10688000012001F0CCFD022001F0C9FD37A003F08A
:106890001FFA0221402002F0B1FAE078002802D16C
:1068A000E079002811D0207A800828420DD00020FD
:1068B00001F0B5FD022001F0B2FD00BF30A003F0F1
:1068C00007FA0221202002F099FA2079002802D14B
:1068D000E079002813D0207A400828420FD0002009
:1068E00001F09DFD012001F09AFD022001F097FDCD
:1068F00028A003F0EDF90221802002F07FFA6079F0
:10690000002802D1E07900280DD0607B00092842E0
:1069100009D0012001F083FD25A003F0D9F902215F
:10692000082002F06BFAA079002802D1E079002853
:106930000BD0207A0009284207D0022001F06FFD19
:1069400000F042FF022102F059FA002001F078FD28
:10695000012001F075FD022001F072FD01B030BD93
:1069600000E80710ACA80610D0A806104576656EA2
:10697000743A20446F75626C65205461700A0D0092
:106980004576656E743A2053696E676C6520546174
:10699000700A0D004576656E743A2048617264771E
:1069A0006172652057616B6575700A0D000000000B
:1069B0004576656E743A2054696C740A0D000000C7
:1069C000F0B581B050204F4B4F49504C00255D5FD2
:1069D000ED00E562266B7619676BF61BB701BE1BEF
:1069E000B600F7113F0EBE193612266365638E425C
:1069F00001DA0F0005E0464FBE4201DB4F4200E0E6
:106A000037001F80401C0227DF5FFF00E762F61996
:106A1000751BAE01751BAD00EE11360E75192D12EA
:106A2000256367638D4201DA0D0003E0384EB542FD
:106A300000DB4D425D80401C1B1DA028C6DB03F01F
:106A4000E4FE002808D050212E4803F019FFE0761C
:106A5000402801D10120E07501B0F0BD1C000020EC
:106A6000F0B581B000202B4B2749284C00255D5FF5
:106A7000ED00E562266B7619676BF61BB701BE1B4E
:106A8000B600F7113F0EBE193612266365638E42BB
:106A900001DA0F0005E01E4FBE4201DB4F4200E06D
:106AA00037001F80401C0227DF5FFF00E762F619F6
:106AB000751BAE01751BAD00EE11360E75192D124A
:106AC000256367638D4201DA0D0003E0104EB54285
:106AD00000DB4D425D80401C1B1D5028C6DB03F0CF
:106AE00094FE002808D050210A4803F0C9FEE07641
:106AF000402801D10120E07501B0F0BD70A1061061
:106B000084A10610B40F00200880FFFFAC11002004
:106B1000F97F0000140F002010B582B00C00012393
:106B200010226B21684601F063FD68460078F3216E
:106B30000140A0000C2202400A4368460270012373
:106B400010226B2101F0CAFC02B010BD10B582B05A
:106B50000C00012310226B21684601F049FD6846B4
:106B600000780007000F21010143684601700123EE
:106B700010226B2101F0B2FC02B010BD10B582B042
:106B80000C00012311226B21684601F031FD68469B
:106B90000078F121014060000E2202400A4368465D
:106BA0000270012311226B2101F098FC02B010BD8C
:106BB00010B582B00C00012311226B21684601F050
:106BC00017FD684600780007000F21010143684661
:106BD0000170012311226B2101F080FC02B010BD75
:106BE00010B582B00C00012312226B21684601F01F
:106BF000FFFC68460078BF210140A0014022104000
:106C0000084369460870012312226B21684601F08F
:106C100065FC02B010BD10B582B00C000223142236
:106C20006B21684601F0E4FC684601784906490E8C
:106C30006208D2010A4302704178EF220A40210122
:106C40001023194011434170022314226B2101F0DB
:106C500045FC02B010BD10B582B00C000123162215
:106C60006B21684601F0C4FC684600784006400E7F
:106C7000E101014368460170012316226B2101F0F6
:106C80002DFC02B010BD30B581B00D0005231A22D5
:106C90006B21280001F0ACFC012301226B21684626
:106CA00001F0A6FC3F246846007820408021014383
:106CB00068460170012301226B2101F00FFC0323C0
:106CC00012226B21681D01F093FC012301226B212C
:106CD000684601F08DFC6846007804406846047000
:106CE000012301226B2101F0F9FB01B030BD00B599
:106CF00081B00800062322226B2101F079FC01B04B
:106D000000BD00B581B00800062328226B2101F0E8
:106D10006FFC01B000BD30B581B00D000123012230
:106D20006B21684601F064FC3F24684600782040EF
:106D30008021014368460170012301226B2101F08B
:106D4000CDFB022362226B21280001F051FC0123BC
:106D500001226B21684601F04BFC68460078044034
:106D600068460470012301226B2101F0B7FB01B0DA
:106D700030BD30B581B0012301226B21684601F09E
:106D800037FC80253F246846007820402843694628
:106D90000870012301226B21684601F09FFB01234B
:106DA00064226B2100A8401C01F022FC6846407858
:106DB000054368464570012364226B21401C01F0A5
:106DC0008DFB012301226B21684601F011FC68460E
:106DD0000078044068460470012301226B2101F011
:106DE0007DFB01B030BDF0B581B00E00170001236E
:106DF00001226B2100A8401C01F0FAFB3F256846E8
:106E000040782840802101436846417001230122D7
:106E10006B21401C01F062FB012317226B216846A5
:106E200001F0E6FB9F2468460078204020210143C2
:106E300068460170012317226B2101F04FFB0123EB
:106E400002226B21684601F0D3FB300A00010121C8
:106E5000014368460170012302226B2101F03EFBD1
:106E600068460670012308226B2101F037FB0223DC
:106E700009226B21380001F0BBFB012317226B2193
:106E8000684601F0B5FB6846007804406846047027
:106E9000012317226B2101F021FB012301226B2129
:106EA00000A8401C01F0A4FB6846407805406846F5
:106EB0004570012301226B21401C01F00FFB01B042
:106EC000F0BD00B581B0080001230F226B2101F055
:106ED0008FFB01B000BD10B582B00C00012312225F
:106EE0006B21684601F084FB68460078FE21014072
:106EF000E007C00F084369460870012312226B2186
:106F0000684601F0EBFA02B010BD10B582B00C007B
:106F1000012312226B21684601F06AFB6946097859
:106F2000CA07D20F227002B010BD10B582B00C009B
:106F3000012312226B21684601F05AFB6846007853
:106F4000FB210140A000042210400843694608705C
:106F5000012312226B21684601F0C0FA02B010BD75
:106F600010B582B00C00012356226B21684601F057
:106F70003FFB68460078EF210140200110221040BD
:106F8000084369460870012356226B21684601F0C8
:106F9000A5FA02B010BD10B582B00C000123182272
:106FA0006B21684601F024FB68460078FD21014012
:106FB000E0094000084369460870012318226B214C
:106FC000684601F08BFA012362226B21684601F0CA
:106FD0000FFB68460078E7210140E00018220240DC
:106FE0000A4368460270012362226B2101F076FA9F
:106FF00002B010BD70B582B00C00012301226B21DC
:1070000000A8401C01F0F4FA80263F25684640782D
:107010002840304369464870012301226B2100A8B3
:10702000401C01F05BFA01230A226B21A01C01F035
:1070300055FA01230B226B21E01C01F04FFA0123CA
:107040000C226B21201D01F049FA012301226B2142
:1070500000A8401C01F0CCFA68464078054068461C
:107060004570012301226B21401C01F037FAA07802
:10707000002805D1E078002802D12079002803D02B
:1070800060780221014302E06078FD2101406170D7
:1070900001230D226B21200001F020FA01235E2242
:1070A0006B21601C01F01AFA012358226B216846FB
:1070B00001F09EFA2078002803D16078FC2101407D
:1070C00005D06846007806436846067005E06846C5
:1070D00000784006400E69460870012358226B2153
:1070E000684601F0FBF902B070BD30B581B00C000C
:1070F000012301226B21684601F07AFA3F25684698
:107100000078284080210143684601700123012254
:107110006B2101F0E3F901230A226B21A01C01F08D
:1071200067FA01230B226B21E01C01F061FA0123B5
:107130000C226B21201D01F05BFA012301226B213F
:10714000684601F055FA68460078054068460570C3
:10715000012301226B2101F0C1F901230D226B21D2
:10716000200001F045FA01235E226B21601C01F032
:107170003FFA01B030BD10B582B00C0001231222DD
:107180006B21684601F034FA68460078EF2101402F
:107190002001102210400843694608700123122282
:1071A0006B21684601F09AF902B010BD10B582B0AB
:1071B0000C00012312226B21684601F019FA68467F
:1071C0000078DF2101406001202210400843694619
:1071D0000870012312226B21684601F07FF902B08A
:1071E00010BD10B582B00C00012313226B2168463C
:1071F00001F0FEF968460078DF210140600120229D
:107200001040084369460870012313226B21684629
:1072100001F064F902B010BD30B581B00C0001235B
:1072200056226B21684601F0E3F968460078BE21DA
:107230000140E007C00F0843A10140221140014373
:1072400068460170012356226B2101F047F90123A2
:1072500001226B2100A8401C01F0CAF93F256846B5
:107260004078284080210143684641700123012273
:107270006B21401C01F032F9012317226B21684673
:1072800001F0B6F9684600784006400E6108C90171
:10729000014368460170012317226B2101F01EF99A
:1072A000012301226B2100A8401C01F0A1F96846CE
:1072B0004078054068464570012301226B21401C3F
:1072C00001F00CF901B030BD10B582B00C00012303
:1072D0005B226B21684601F08BF968460078C0217B
