:020000041005E5
:1018000000600020AB330610E9170610EB17061036
:10181000AA5555AA45554C420000000000000000A2
:10182000000000000000000000000000ED1706109E
:101830000000000000000000F7330510EF1706104D
:10184000F917061007350510000000000000000021
:101850009D180610B73E0510151906107F8005105B
:101860000000000000000000000000000000000078
:101870000000000063810510438A0510F78A0510F7
:1018800000000000E341051087420510EB4F0510F2
:1018900077560510278005101B8F05100F8B05103C
:1018A0000000000000000000000000000000000038
:1018B0000000000000000000000000000000000028
:1018C000F0B5FE48FE4E016841204001B2680C1898
:1018D00085B0D00173D5204680300090806B817A2E
:1018E000EE2319408172304651030125C06800295A
:1018F00042DB510105D500200921C9064860357039
:1019000036E0510012D5C178491E0906090EC17092
:1019100003D10922D2065160357041790A0627D5D4
:101920004906490E41718169416121E0E5490A4258
:101930000AD0214620318D70520202D503228A70CE
:1019400000E08D708169416101792246C1704032A9
:101950009179002908D00921C9068968A16400216C
:101960000223E1649377A16541794906490E4171EB
:1019700000204621085539E031698A89012149074B
:1019800052185288436B5218934209D19278142A04
:1019900006D1034640331A7DDF273A402A431A75A1
:1019A000806A408840187D210078095D0843C006A0
:1019B00006D4002009213570C906486010E082E293
:1019C000606D00F06FFB01460920C0060269236DBF
:1019D000D21A1202120A914202D2357000214160DD
:1019E000F06801220169D20391430161B26850029B
:1019F00013D5306980890121490740184088401873
:101A00007061F1684B6B834207D180780D2804D157
:101A100001200B69000483430B613746002A48DA32
:101A20000098806B4188012040070818F861092060
:101A3000C0064069C00DC00708D0002009217D7094
:101A4000C90648603D70A048B061F1E0F8684121E6
:101A50000069490108420AD000F034FB012829D06E
:101A60001C22F9694878024201D0001F4870F869C9
:101A70007D2201781155C94389071DD0F868006996
:101A8000C0036FD500F01EFB01286CD01F20F96940
:101A90004978084266D0002009217D70C906486057
:101AA0003D708948B861F8680121026909048A43D8
:101AB0000261BDE0FC22D4E7867841781A2E74D208
:101AC000824A925DFF2A70D08A426ED1022E14D0D3
:101AD000F9684A79D20659D4062E15D00A69D3037B
:101AE00027D5002009227D70D20650603D707648CF
:101AF000B8610A69001182435BE0F868406B0560D9
:101B0000F9682320487193E00122B86992031043D9
:101B1000B8616F4A086910401522520210430861EB
:101B20002046C030C17BBA7891422FD10821C173C1
:101B30007EE0002E18D0012E29D0032E2CD00A2EA4
:101B400034D00B2E37D0082E38D0092E39D00C2E99
:101B50003AD002465F4B3146012000F0B5FA00282A
:101B600066D149E05BE058E00A46214600F0AEFA53
:101B7000F8698179C079000208435749400240184A
:101B80005649896A814200D80846606550E00A4695
:101B9000214600F0BFFA4BE0B86980231843B861D2
:101BA0004120000402430A6142E027E08920C0018D
:101BB00005E00A613CE04A480240FAE7102002438F
:101BC000F7E70120000326E096070423002E08DA39
:101BD000BE691E4302239A430823BE61CF263355B4
:101BE00002E0D60700D11A432A430A610522C01C2D
:101BF0002C3100F0A6FA1BE0072E06D0F868082268
:101C0000016911430161C67112E0F869C0780E28BC
:101C10000ED101208006B8610AE0FF2037E7214697
:101C2000FB683A69F86900F095FAB9690843B86148
:101C3000234FF8683969066A0A8A01235B07D218BC
:101C400001925288D21800237A610293BB6811274F
:101C5000BF043B421ED15F011CD4476B974201D0A9
:101C6000012700E000270397904201D0012700E000
:101C70000027BC46002E0DD0039F002F0AD06746D8
:101C8000002F07D0F77CFF0904D03768002F01D060
:101C9000012702975B0202D4029B002B75D0437987
:101CA0009F0701D5002E1DD05B085B00476B974254
:101CB00057D143719378042B19D02AE0AC0000204F
:101CC000640000200000408008001000EA2F05108A
:101CD000DFFBFEFF7C0000209AFDFFFF30030020A9
:101CE000BFFFFEFF2B431F462F434771DEE723460E
:101CF000C033DF7B082F05D1E24FBF78DF737D272C
:101D00007F029F81DF4B01279B69FF063B43DD4F2D
:101D1000BB614379DB060CD5DA4B09275D700023E4
:101D2000FF067B60D74BD84F1D709B693B43D54F57
:101D3000BB619278152A32D1074640373A7DFD23A0
:101D40001A40BC463A75130729D5CE4B01279B692B
:101D50007F063B43CB4FBB61F7231A4063461A759E
:101D60001DE082421BD0338AB77C0022DB1933820C
:101D70007369B361B274338AF788BB4202D2F77CCD
:101D8000FF0903D03668202205E068E0DB0602D1B7
:101D9000B3691B68B361BB4B9F693A439A6142794F
:101DA0000027D20717D0B74A436B53619A78052AA8
:101DB0003BD1026920231A43026100200870487158
:101DC000487088718870C871C8700872087148724C
:101DD0008020487229E0002E0AD000F005FA002881
:101DE00006D1A8483322C16852010969114209D0BD
:101DF000A4490122C868486105800169D2031143E2
:101E0000016112E0A14A317C136809221202C9065D
:101E10009A18C90ED26B0127891C89184161019A51
:101E200051803146C06800F0EFF9964E2121F068EC
:101E30008901006908420AD000F044F9012809D05C
:101E40001F2271694878024201D0001D4870002F9E
:101E500002D004E0FF22F4E70199B08A4880894E5D
:101E6000F26810694106890F1ED080063178C00FD4
:101E7000012902D0B16849030BD50028306903D08D
:101E8000C17D082319430AE0C37DF7210B40C375C8
:101E90000AE000283069C17D03D0F7231940C175DD
:101EA00002E008231943C17521463369F06900F047
:101EB000EDF93078012808D000997548896B032224
:101EC000091D00F06BFA05B0F0BD6E480121C26833
:101ED00000695379C77A9C4620231E5C00238372D5
:101EE000204620300190807803281BD193796548E3
:101EF000002B17D163469B069B0F13D1634B1B68C6
:101F00002033DB7C002B0DD1136A002B0AD1CF23A9
:101F10001B5D8078834205D09089411C7043C019B5
:101F200089B287B2108F1389400048435918118134
:101F300001998978002902D15169091A51610099E2
:101F40008E6BB17A11231943B17221464D4BC031CA
:101F5000CE7B9B789E420AD18B891B1A8B8110D530
:101F6000484E4C4B7570B1691943B16109E0536932
:101F70004449002B05DC0E464D708969464B1943D8
:101F8000B1616146890605D53E49444E4D708B6965
:101F900033438B6111792646D1704036B571E16CBF
:101FA00080B20818E0649079FB2108409071C00766
:101FB0001AD0B08E1189401A012180B2C90388421B
:101FC00006D33048364A45708169114381610BE080
:101FD000002809D101230021204600F0E7F9294912
:101FE00089690843274988612648C1688A7990072A
:101FF00024D5338F0E8923489B1B5B1C01269BB283
:10200000F603B34205D34570254A816911438161C6
:1020100014E0002B12D1FD231A408A710269009945
:102020002132496811700B0A53700B0C9370090E22
:10203000D17060340069E17E20304171384600F093
:1020400001FA10490A69D072019800268670487812
:10205000002802D0887800F003FA0C4C5821206840
:102060000D540921090240184078002802D00120AF
:1020700000F0CAFA012000F0C7FB20684030067665
:1020800005B0F0BD6400002008000100AC00002095
:10209000FA00300008804000080004000800020038
:1020A000080008000649C20B09684004096A400C90
:1020B000CB0958435143000A081820308009704763
:1020C000AC000020002070470020704770B50C461F
:1020D0000546C178602001551646281D00F0DAFE3D
:1020E0004034A084A81D00F0D5FE20852846083085
:1020F00000F0D0FEA08528460A3000F0CBFE2086F6
:1021000028460C3000F0C6FEA086B07901210843B5
:10211000B07170BD70B5054616460C46C01C00F087
:10212000BEFE84210851E9797B20015528460830FC
:1021300000F0B0FE40342087B07902210843B0712E
:1021400070BD04E003780B70401C491C521E002A2D
:10215000F8D17047F8B51D46144606460027FFF72C
:10216000B1FF01280CD01F2071780840060036D03E
:102170000020E86100F09EFE002803D0E86907E037
:10218000FF20F1E769893246012000F0A3FEE861F3
:10219000002801D0102722E0E07D80214840E07532
:1021A0001049286908421AD06079401E6071607930
:1021B000FF2814D1A079401EA071A079FF280ED16C
:1021C000E079401EE071E079FF2808D1207A401EB6
:1021D0002072207AFF2802D1607A401E6072384651
:1021E000F8BD000020280000064801684920400191
:1021F0000818417AC07A814201D901207047002035
:1022000070470000AC000020F8B50C46CA88098A67
:102210004030521A8088102695B2A84205D2054651
:10222000E07C4006400EE07403E02068002800D106
:102230000026002904D1207B800701D5022000E080
:102240000120CF060643FF0EE81982B20E48A169AD
:102250000368092000021818C06B001D00F05CFE26
:1022600060610948A5740168092000020818C16B63
:10227000B81C0E5404480168092000020818C06BFD
:10228000FF1CC555F8BD0000AC000020FFB5156966
:102290001E46A8032E3689B01C461746002832DA9F
:1022A000102269463046FFF74CFF0924E4060398E4
:1022B000A0610298E0610198206200986062354850
:1022C0000168E0140818016FA162C06EE0620A980C
:1022D0008030016C2163C06B606300F041FEA06B35
:1022E0000390E06B02902C480168019140680090D7
:1022F000102231466846FFF724FF01204004854341
:102300003D610DB0F0BDE8053CD505A80146009043
:1023100010223046FFF715FFFF2001308543412092
:10232000800205433D610998082201A9C01CFFF7FE
:1023300008FF0998214604222A310B30FFF701FFDC
:10234000154805A9283800F01DFE0924E406029866
:10235000A0620198E062786B082203A90D30FFF7B4
:10236000F0FE049820630398606300F0F9FD0A49C9
:1023700005A8083900F006FE102231460098FFF744
:10238000E0FEBEE7A07A0006BBD40A9800F003FE88
:10239000B7E70000AC0000204000004803E00870F0
:1023A000000A491C521E002AF9D17047FFB581B0BE
:1023B00000230093049B012B2BD04B8C204D1C0140
:1023C0000B8C9C46CB7E6B438D8BAE46CD8B96693A
:1023D000A64205D19689664502D1168FAE4201D03C
:1023E0004026009696790427760876003E4396713B
:1023F00094615461644694811587049A012A17D028
:102400000B6170464A68400010184860009805B09B
:10241000F0BD034640331D461B8E094E1C01AB8D9B
:102420009C4660231B5C7343AE8C2D8DB646CEE775
:1024300083657146C26C49005118C164E6E700002B
:10244000E2040000054925224143090C5143401A8A
:1024500080B2252800D32538C0B27047EB060000B3
:10246000F1B5674941220868520182B08218009292
:102470007B2212018618AC22155C04460346029AA0
:10248000C034363395427DD90921090240181746D8
:102490005821006B4F430025B91C4554029800F0A9
:1024A00085FD00280CD15648BF1D01680920000297
:1024B0000818006BC05D002802D00098C03005727B
:1024C00072B64F48029D0768012039462031CA7D07
:1024D000A8408243CA75317D814331751978080758
:1024E0007AD44A070298520F82427CD0304620307C
:1024F000827E5507029A6D0F954276D181760F2024
:1025000018704122A06852017063BD18A86D21693E
:10251000A9652061686D6169696560612146284629
:1025200018315C3000F05CFD3648A37E39180A781B
:102530000B70A276A86C2168A9642060E86C6168C1
:10254000E96460601120C00139180A78E37E0B70DD
:1025500021462846E2761C31643000F041FD2146D8
:1025600028461E31683000F03BFD214628462031C8
:102570006C3000F035FD214628462231703000F0E5
:102580002FFD00E03BE0214628462431743000F066
:1025900027FD214628462631783000F021FD1948D4
:1025A00080351D303918204628300A7803780B70A2
:1025B00002701448E26A2630381801680260E1624D
:1025C0000721E06809050843A96B0322091DFFF7ED
:1025D000E5FE0AE000E006E03A20805D410702984F
:1025E000490F814201D10F2018702036B07E41077B
:1025F0000298490F814201D10F20B07662B6FEBD2C
:10260000AC0000207E080000F0B57D4D044641215D
:102610002868490191B04018089000200D9072B6CA
:1026200000F0F0FC002801D1002C07D074480024F1
:1026300001680920000208184678DDE062B60D98AE
:1026400011B0F0BDF0077DD06E49A00140180E908A
:102650006B480168092000020818016B582060438C
:102660000D18A978286A4907490F02294AD1A97982
:10267000490747D4002845D0288F40000990000220
:10268000FFF710FD039000200F905D483621006891
:10269000095C0A070AD44907490FA14206D1012162
:1026A00080300F91416C0191806C06E00899C96CF3
:1026B00001910F21C9014018406E0090FF205F304A
:1026C000FFF7F0FC4F490C39497AC90041180098CE
:1026D000411A0398081A07900E980B214156203092
:1026E000059100780A900020029028890690092020
:1026F000C00601690798401A070201203F0AC00579
:10270000874229D36BE001200D9003990798401A66
:10271000079002984018029009990198401A019078
:10272000696909980818686105990A98081A40B2F9
:1027300005900698401E80B206900598002804DA9D
:10274000253000E055E040B205900920C00601693F
:102750000798401A07023F0A6420FFF7A3FC2949A3
:102760000C39497AC900411825480068806A081860
:10277000B84207D20120C005874203D209990198C7
:102780008842C0D802990098401A00020D99000AA8
:1027900000290CD01A4901220968D2028918096F50
:1027A000411A09020912002901DD00210D910F993A
:1027B000002906D01249019A096880314A64886468
:1027C00008E0089A0199D1640D490A680F21C901EE
:1027D000511848660E990598C872069828810848CD
:1027E000012201680920000208184178A2409143A3
:1027F0004170641CE4B27608002E00D022E71DE789
:10280000AC000020CC000020F1B5F74F7B203968E8
:1028100000010D18084696B0683012900920000299
:102820000818006B1390412040010E180920C006C3
:1028300000690790002003900824EC48FFF732FC61
:1028400002900020149072B63868F7224030C179A7
:102850001140C171129801210171129801684A0753
:10286000520F4271C9081298C900016062B61698E9
:10287000002801D007980DE06420FFF713FC0799AA
:102880004218DB48417AD8480068806A0818101856
:102890000002000A00F0E2FB686B04903A20405D01
:1028A0000E90082842D2012003900E9858214843E8
:1028B000139940180590CF48876ACD48407AC000E8
:1028C00000F032FD01460598008F40020818C74904
:1028D00049424018874200D238467065B820815975
:1028E0000A7948798979000210438907890B0143E5
:1028F0000598FF314030028A408AC33110184018D1
:1029000000F01AFD07465F200001FFF7CBFBB8423D
:1029100004D95F200001FFF7C5FB00E038460499A9
:102920000918B348407AC00008181490706DFFF77A
:10293000B9FB049940180190002007460690287DB5
:10294000002809D10E98082806D3A949002008803C
:102950000921C906486065E168680890686C0A90BA
:1029600029680798401A00020412A148008840070D
:10297000400F00F01BFB002801D0002007E0002CD6
:10298000FBDB204600F0D0FC0A99884200DA0A906E
:102990000120800708240C9000200F90297D3AE048
:1029A0000E9A904234D0904A12682032927D1207DB
:1029B000120F82422CD0EB6A4200069307929F5A74
:1029C00005976B6A9A5A089B92017B43D3180A9A1F
:1029D0009C46934212DACA0710D02A6B079B089FC5
:1029E000D25A521C93B21A467A43059F9444FA185D
:1029F00092B213460592079F069AD3530C9A6346E8
:102A0000944505D2CA0703D0059A0C9304460F9249
:102A10004908401CC0B20029C2D10C98FFF742FB04
:102A200029684718A86A6100405A8001FFF73AFBFD
:102A3000C01906906E48407A5822C1006A48006862
:102A4000125C002A6C4A12690CD0BB1A029A52001E
:102A50009B1A169A002A01D0002001E0806A4018D3
:102A6000181A0BE0BB1A029A52089A1A169B002BEE
:102A700001D0002001E0806A4018101A0002000A0C
:102A80000121C9050590884209D3082C7ED0204633
:102A900000F056FC55490C9840180A9068640121D2
:102AA0000598C905884200D372E7082C6ED00F98AC
:102AB00000282DD0089948430590FFF7F3FA2968BC
:102AC00040180002000A2860696C0598081A6864BA
:102AD0000C990598081A00210C9013E0EA6A480046
:102AE00005909446105A0F9A801A04E02B6B059AB1
:102AF000401C9A5A10180028F8DB059B6246491CB6
:102B0000D052C9B238480068A030007B8842E5D86E
:102B10000E98082876D20498C01B01020120090AE9
:102B2000C005814222D302983A1A1498101A010261
:102B30000120090AC005814201D314980DE00199D2
:102B4000511A0902090A814208D301204002FFF705
:102B5000A9FA02994900791A081A01900199049872
:102B6000081A0002000A00F0DFFB70650299019864
:102B70004018C01B01020120090AC005814255D23C
:102B800002994A0006995218049900E04AE0511A45
:102B90000902090A814235D20E98582148431399F7
:102BA00042185820214641431398D37B0818C17B13
:102BB000994201D3102100E00021C9061ED4817979
:102BC000CA0702D07221895B03E0890707D5762105
:102BD000895B0289891A491E0904090C12D04079BF
:102BE00000060FD422E00DE0AC00002066020000D9
:102BF000C0000020300300200000004850799021E0
:102C0000084213D1082C15D09E490C9840186864CE
:102C1000582013996043401880784007400F0128DE
:102C20003FD007E00398002804D003D0049F0E9CF7
:102C3000019806903802000A009006980102090ADD
:102C4000012080020691FFF72DFA03900120400237
:102C5000FFF728FA074606990098081A00020012A2
:102C6000002809DD0399000A884200D90146039132
:102C7000B84200D838460746082C7DD082480088E4
:102C80004007400FA0424FD058201399604340188E
:102C9000059080784007400F052812D0022810D0F8
:102CA00042E03146803103208A6840028242C1D02E
:102CB000C9688142BED000F081FB4005400DC719B4
:102CC000B8E70598A101006A02906F480818818B47
:102CD000059880B2814227D00298002824D002991A
:102CE0000598FFF791FA694902980A68007C092162
:102CF0000902C0065118C00EC96B801C4018029012
:102D0000059821210069890108420DD0FFF7DAF901
:102D100001283BD01F2002994978084204D002982C
:102D200040780299001D4870584857490068203083
:102D30008474482020430880334680335A6B907A4D
:102D4000C106C90E6001014391729A6B917AC9065E
:102D5000C90E014391720098306500F053F90128C3
:102D600016D04A4800682030017D4748407A081A4A
:102D7000316DC000081800E03AE000020121000AAD
:102D8000490641180920C00641600EE0FF20C2E755
:102D90000121306D090641180920C00641603B48F9
:102DA00000682030017D38484172082C24D2582018
:102DB00044431398241872B61298A1780068490702
:102DC000C008C000490F0843314908400099C900B4
:102DD00008431299086062B6A0784007400F0328A4
:102DE0000FD0FFF76FF901280FD00698C01B19E02C
:102DF00000200921C906486023490020088017B037
:102E0000F0BD03990698401A0CE04034208A618A8C
:102E10004018FF30C33000F08FFA874200D938469F
:102E20000699081A0002000AE863A88B8001FFF7E0
:102E300039F929680026441812483138FFF732F969
:102E4000201A0002000A2864104C2E8420684030AA
:102E5000407E002807D000F0CFFA20684030417E45
:102E600049084900417620684030407E0028C6D09D
:102E700000F0E6FA20684030417EFD2211404176A4
:102E8000BDE7000066020000C0000020AC0000208A
:102E9000070000F801784078000208437047017885
:102EA000427813028278C078120400061043184357
:102EB0000843704706480168492040010818017A14
:102EC000807A814201D901207047002070470000BC
:102ED000AC000020F8B50D460E49092309681B0215
:102EE000C918CE6A1F21521E0A431D3297B2002410
:102EF000394600F0C9FA00280AD13946B06800F016
:102F0000EBFA044608340068A0600020E074A58055
:102F10002046F8BDAC00002070B50C461F21521EA3
:102F20000A430546521C002011044E0D17D02146BD
:102F300008316A1A2846002A01DD082A03DB20220C
:102F400000F0E2FA04E0082208C9521E08C0FBD1D2
:102F500020352046761E24683604360CE7D170BD35
:102F600008B56420694608700921C9066A461078C8
:102F7000401E10704869C00402D410780028F5D1B2
:102F8000107808BDCA6802608A6842604A68826038
:102F90000968C160704710B504468034606C002831
:102FA00003D000F0C1FA0020606410BD0B497B2201
:102FB000096812018A182032927E36311207120FE8
:102FC000824206D009780A0705D44907490F814291
:102FD00001D101207047002070470000AC000020A4
:102FE00002880B8803800A8070470C0802170D01C5
:102FF000010209090101060209FFFFFFFFFF09099C
:10300000FFFFFFFF30B41348092203680120C0020C
:103010001818D206006F11690F4C411A0902258851
:10302000090A2D0702D430BC01207047647A9B6ADC
:10303000E400E3188B4209D20123DB05994205D253
:1030400059000843506030BC0120704730BC00205C
:1030500070470000AC000020C0000020F1B5B04A6D
:103060007B211068090190B0411804914121490168
:1030700045180446C034014636310D9100210291B5
:10308000A849497AC9000C91816A0B9104992031B1
:103090000E91897E079108297ED2092109024018E4
:1030A000016B174607985822504308180890079854
:1030B00081019C480C3008180A90C07A2E46403690
:1030C0000990B08B00F06AFA39684031098E4018D7
:1030D00080B20390E96C039800F06EFAE96C090283
:1030E0000F1AB07F00F06DFA3818FEF7DBFFA96CFD
:1030F00041180C98081A0002000A01901099411A10
:103100000B98081A00020121000AC90588427DD2E5
:103110000499019848630998FFF794F90A99C872CD
:103120000D980078C143090706D041070798490F59
:103130004007400F81422BD10E980821807E084322
:103140000D990870A86C2060E86C60600198A06020
:103150000298E060A86D2061686D6061B08B20838B
:10316000B07FA076284660300178E176B18CA183EB
:10317000318DE183B18D2184318E6184B18EA18442
:10318000318FE184C17E2820015584204059E062BE
:103190000D980078420700E07BE00799520F49073D
:1031A000490F8A4261D0F72108400D995C4F0870A1
:1031B0004007400F07900920396800020818016B8A
:1031C00007985822504308180490079881015548E1
:1031D0000C3008180A90C07A0990208B00F0DEF9B4
:1031E00039684031098E401880B2039061680398B5
:1031F00000F0E2F9616809020F1AA07E00F0E1F91F
:103200003818FEF74FFF2168411800E043E00C98A2
:10321000081A070210983F0A391A0B98081A000278
:103220000121000AC905884257D2A7600998FFF713
:1032300009F90A99C87201980899C01B00024979D6
:10324000000A9022114210D10121C90588420AD3F7
:103250000498C17B0898C07B401C814203D8049825
:103260004079C00601D500F0B3F9E96C039800F08D
:103270004DFA0446B07F00F051FAA96D20184018AD
:103280000721090508438035A96B0322091DFFF7B3
:1032900085F811B0F0BD0898008F41000A982030E1
:1032A00002780998101880B209900898089A008945
:1032B000401C108108984069421A08984261089899
:1032C000C07BFF2802D2089A401CD073E86C4018DB
:1032D000E864079800F02AFAFCE604980A99008F3F
:1032E000400020310A780999511889B2099104994E
:1032F000049A0989491C1181049949690A1A049997
:103300004A610499C97BFF2902D2049A491CD173EE
:10331000616808186060079800F008FA66E7000026
:10332000AC000020C000002008B500216A461180D2
:10333000694600F05DFA08BD4101401880097047F8
:10334000F8B501461B480922006812028218136B67
:1033500058224A439E18412252018518164A880174
:103360008718B07800244007400F052802D00128B4
:1033700005D010E0084600F053FA04460BE02A4658
:103380008032108A002802D0401E108203E00124FF
:103390000846FFF765F8F07BFF2801D2401CF07368
:1033A000002C06D02346324629460020009700F024
:1033B00039FAF8BDAC000020CC00002000210B2021
:1033C0000007026852070DD5026804239A43026081
:1033D000026808231A43026004E0491C052901DD44
:1033E0000020704742689207F7D54168C907FCD0B2
:1033F000806880B270477047FEB50F484121006871
:10340000490144180D4906224118684600F008FD9C
:10341000A66BE56B636B246C00206A46811C175C0D
:103420005F54175C7754175C6F54175C401C6754EB
:103430000628F3DB0020FEBDAC000020EF060000F4
:103440007CB50E4C0E492068062245180D494118DE
:10345000684600F0E5FC296A06226846891CFEF7EA
:1034600070FE0921206809024018016D0622684695
:10347000891CFEF766FE00207CBD0000AC00002029
:1034800004090000EF06000070B5124A0923126813
:103490001B02D2180123D26A83435B00491E4124D8
:1034A0009B184909491CC9B272B615798D420ED3D1
:1034B0001E785B78AD19EDB25B18AB4207D84000BF
:1034C000135C00245B1813541079401A107162B613
:1034D000204670BDAC000020491EC904090E72B61A
:1034E00002788A420CD9511AC9B24A1ED3B203706B
:1034F000426888001058990052580021116000E07D
:10350000002062B670477047814202D25318984239
:1035100003D300B500F0B2FC00BD521E03D38B5C98
:103520008354521EFBD2704718B40168184ACB6806
:1035300013608C68012354604C6894600968D16002
:103540004168144ACC6814608C6854604C6894607C
:103550000968D16064216A4611700922D2066C465E
:103560002178491E21705169C90402D421780029AB
:10357000F5D122782270084A8168D4680C6094687A
:103580004C6054688C601268CA60037318BC704742
:103590001800004828000048380000481FB5054CB6
:1035A00040071ECC03946C460EC4000F6946085AAF
:1035B00004B010BD3433061089084143880A401C0A
:1035C0007047032802D06320C043704766207047CD
:1035D000F8B54C4D4121286849014418264640362B
:1035E000B08BFFF7DBFF29684031098E401880B2AD
:1035F000E16C00F08BF80746B07F00F08FF8A16D0A
:103600003818411807200005014300913E4A2968F7
:103610008818363100F03FFC3F21286849014218E4
:10362000917A4B07014620318E7D5B0F37093F01B0
:103630003B4393727207520F8A75334AA831921F27
:10364000801800F02DFC2868A16CC0300268A264CC
:1036500001602868E16CC4300268E2640160286897
:103660000099CC221150D030A16D0268A265016092
:103670002868616DD430026862650160296820465F
:103680005C30D83100F011FC296820465E30DA3118
:1036900000F001FC296820466030DB3100F0FBFBC4
:1036A000296820466430DC3100F0FFFB29682046A1
:1036B0006830DE3100F0F9FB296820466C30E031DB
:1036C00000F0F3FB296820467030E23100F0EDFB9A
:1036D000296820467430E43100F0E7FB2968204671
:1036E0007830E63100F0E1FB296820467B30E83194
:1036F00000F0D1FB296820468430EC3100F0D0FB8B
:10370000F8BD0000AC000020EA0700004143080AB1
:10371000292109014843C00A401C7047012801D0F3
:1037200001487047002070477A030000FEB5034649
:103730002D483F270268092000021018016B58200D
:1037400058430C184120400110181146274E7F01A4
:103750009D01D219AE19927AC03100259A420CD13E
:10376000024640321746928E3F8F009784273F587B
:10377000012301977B273F5C07E08A8CCF8C009761
:10378000CF6A0023019728277F5C0297A779FF075C
:1037900008D02789D21B1204120C03D12246FEF74F
:1037A00005FE0546A079810710D522890099891A5E
:1037B000491C0904090C09D1FD21084001ABA07185
:1037C0003146052221311846FEF7BBFC002D0AD0F8
:1037D0000548009601684120400109182B46224601
:1037E000002000F01FF8FEBDAC000020CC0000203F
:1037F00010B50A4A830B12688004526A800C140ABE
:1038000060435A438009101800228A5E821A1046CB
:103810004030C009C3019A1A0A8010BDAC000020D4
:1038200000207047FFB506468DB050890690FF48CE
:103830000921006809020B904018006B0A90517929
:103840001D461446480601D4E80757D000200790CB
:10385000208F0090A089A3698446A0784007400F7C
:1038600005282DD003282BD001200990BF2001402E
:1038700061710E99EF07084640301031002F0AD0D1
:1038800000223C2107910E99069200928283944671
:1038900013468280083137270B9A7F01D219577857
:1038A000BF060FD5D778BF070CD580886246029334
:1038B00001920390069B079A099800F0FBFA1DE01D
:1038C0000020D2E71A030079130C009A6746039789
:1038D000049302920590486801910002000E009046
:1038E0000B98A0300079C00701D0002000E0102024
:1038F0008030099B069A079900F0DEFA0E9F280790
:10390000C037002873DA2069E90301D5162117E0D2
:10391000A90301D5132113E0290301D528210FE0C4
:10392000E90201D53D210BE0690201D5222107E022
:10393000690329D56179090601D4082100E03E21F7
:103940000191B97B582251430A9A8918A14201D1A9
:103950000821B973F97B582251430A9A8918A14268
:1039600001D10821F97305218902084222D02804D7
:1039700020D5208A4004AD4800680ED5A0300079DB
:10398000C00703D0002002E01F21D9E710208030BB
:10399000069A019900F0D4FA0CE0A0300079C00733
:1039A00001D0002000E0102000238030069A019909
:1039B00000F0F2FA206A002801D000F01BFB00277B
:1039C00027629A4867620068A421095CC90701D090
:1039D000002500E010250699039101990223803506
:1039E0000591E90604D50222BF210D4007E01DE044
:1039F0001B2189014118897EC90614D50022290797
:103A0000890E09180120C00208184069294600F0F3
:103A100013FB010007D00F71039ACA80059A0A723E
:103A2000284600F067FB002527618DE1680620D558
:103A3000A0784007400F052801D1A16961610021EC
:103A400005280BD0208BA2890004000D0190009264
:103A5000238F8020069A00F061FB75E1606B43893B
:103A6000028901930092C3888020069A00F056FBD9
:103A70006AE0680723D5802000906C481B2100680D
:103A800089014118C97E0223069F0907CDD59902F5
:103A900040180C224069009900F0CEFA0100C4D011
:103AA0008F80F2788A713379727912021A430A810F
:103AB000B379F27912021A434A81009842E128054B
:103AC000800F06D00E98694631C1684600F05CFB55
:103AD0003AE1574805423DD0E80401D5002000E016
:103AE0001A20079006980490F01C029080214F48FD
:103AF000009101683720400108184278032392069C
:103B00001AD58078000717D50120C00208180E22A8
:103B10004069009900F090FA059000280CD00799B0
:103B200001710499C18008220830029900F078F9E7
:103B30000599009800F0DEFAA0784007400F0528AC
:103B400002D0022803D0FFE00820B873FCE0082070
:103B5000F873F9E0680424D5208A400433480068EB
:103B60000CD5A0300079C00701D0002000E0102063
:103B700000218030069A00F0E3F90CE0A0300079D3
:103B8000C00701D0002000E0102001230021803078
:103B9000069A00F001FAA0784007400F0528D3D01C
:103BA000D2E028021ED5208A00051AD51F48F178D8
:103BB0000068A0300079C00701D0002000E010208C
:103BC00000238030069A00F0E7F9A0784007400F04
:103BD000052801D10820B873432120698902884350
:103BE0002061B1E00E992A06803112480091002A26
:103BF0002CDA31460D31019102A907910B49169F2C
:103C0000096808220918F01C2637FEF79AFAF17A9B
:103C1000307B0822000208430099C8830799019865
:103C2000FEF78FFA04223946019805E0AC00002027
:103C300000100004640900000830FEF782FA0098C2
:103C40000299C1630098039901647DE029013ED582
:103C50007149A4220968525CD20701D0002700E014
:103C6000102708180390069A00980292C08B03232D
:103C700080370590F80603D50622BF20074009E0EB
:103C8000372040010818427892065DD58078C0063A
:103C90005AD504223807800E41180120C0020818A6
:103CA0004069394600F0C8F9049000284CD0001D46
:103CB00000900299018000980822801C039900F06E
:103CC000AFF8009805994181384604993AE0A80276
:103CD00009D50820B873514800884007400F401CA0
:103CE00000F053FA30E0A8012ED580200190204644
:103CF000403041880991018A0891C1880491408A25
:103D00000790454837210068490141184A78069FC5
:103D10000323920618D58978490615D50121C902D1
:103D2000401806224069019900F086F901000BD085
:103D30008F80099ACA80089A0A81049A4A81079A50
:103D40008A81019800F0D6F9A8060AD5206A016890
:103D5000216200210160226A002A00D1616200F024
:103D600049F9E8061AD5FEF7ADF9012852D01F2708
:103D70007078B11C0740E0693A46806800F006FAA6
:103D8000E069C780E069002707603178E06989074A
:103D9000890F0173E06900F025FAE761E80137D582
:103DA0001698C18901204007091849880818017828
:103DB0004906CD0F07A900F033FAA1200190A67B98
:103DC0000798099008980A9013480721006809028B
:103DD000411809790223C9071AD09902001D401819
:103DE0000F224069019900F027F9040010D02671D4
:103DF000271D6571042209A9A01D00F011F80422F5
:103E00000AA9B81D00F00CF82146019800F072F9DB
:103E100011B0F0BDFF27ABE7AC000020C0000020D0
:103E200010B5040000F02AF8200010BD10B5040001
:103E3000080011000200200000F0FCF9200010BD75
:103E400080B500F021FA02BD70B4103A03D378C9EE
:103E5000103A78C0FBD2530701D318C918C001D556
:103E600008C908C0D20704D30B880380891C801CB2
:103E7000002A01D50B78037070BC70478B0701D105
:103E80008307E1D0124205D00B78491C0370401C17
:103E9000521EF9D1704702780B7803700A70704790
:103EA00002680B6803600A60704702880B88038011
:103EB0000A80704770477047FFB51F4605230646C6
:103EC000C1061E4881B0006803D50522BF210E40FF
:103ED00009E03721490141184A78920629D58978A5
:103EE000C90726D003223107890E08180121C9020B
:103EF00040184069314600F09FF804001CD0029839
:103F000020710398E08027720A9860722046251D70
:103F100006220A300B99FFF783FF0C98A8810D98B1
:103F2000E8810E9828820F98A8742146304600F048
:103F3000E1F8002005B0F0BD0720FBE7AC00002051
:103F400070B50E4601230446C106124815460068A6
:103F500003D50422BF210C4008E01B218901411830
:103F6000C97F090601D4002070BD02222107890EF5
:103F700008180121C90240184069214600F05CF888
:103F8000010005D00E71CD80204600F0B3F8EAE7BD
:103F9000072070BDAC000020F8B51D460F46022377
:103FA0000446C10612481646006803D50322BF2105
:103FB0000C4008E01B2189014118897E090601D4C3
:103FC0000020F8BD01222107890E08180121C9022D
:103FD00040184069214600F02FF8010006D00F710B
:103FE000CE800D72204600F085F8E9E70720F8BD85
:103FF000AC00002070B5C17C0E4D4906490EC1745D
:10400000044601232868D9024018902600224069FE
:10401000314600F011F8010003D030464C6000F04A
:1040200069F84920296840010918487A401C4872FB
:1040300070BD0000AC000020FFB5044600262C4FE8
:1040400083B09C460D46080616D572B601AB6A468B
:104050006146204600F027F900280BD06846818889
:104060000098827892089200827001806180012617
:1040700062B615E062B621E001AB6A4661462046B1
:1040800000F011F9002819D0680609D46846818823
:1040900000988278920892008270018061800126E7
:1040A0000098AA00817840238907890F1A4011439C
:1040B00081700599C170002E0ED115E0002000908E
:1040C00072B6A8060FD401203968C002081801682A
:1040D00008221143016062B672B63868F722403098
:1040E000C1791140C17162B6009807B0F0BD0000FF
:1040F000AC0000200A46400608D5D0783A280AD2FB
:10410000111D054B80001B581046184790788008F9
:104110008000801C88707047DC1A0610F8B51D46B8
:104120000F4603230446C10616481646006803D509
:104130001022BF210C400BE03721490141184A7879
:10414000920602D58978490701D40020F8BD0D22D6
:104150002107890E08180121C9024018406921462B
:10416000FFF76AFF01000AD00F71CE800D81069A19
:104170004A81079A8A812046FFF7BCFFE5E70720BE
:10418000F8BD0000AC00002070477047F8B5044649
:104190000D46501E1F210843401C00041646470DC3
:1041A0001ED0204608302946421A002A01DD082A7E
:1041B00003DB2022FFF7A8F904E0082208C9521EF9
:1041C00008C0FBD12035202E01D2304600E020204F
:1041D000A080301A7F1E24683F0486B23F0CE0D1D5
:1041E000F8BD704770B50D4D044601232868D9020B
:1041F000401890261A4640693146FFF71DFF01001E
:1042000003D030464C60FFF775FF49202968400114
:104210000918087A401C087270BD0000AC0000202C
:1042200010B50B4601784906CA0F811C184600F0EC
:1042300070F810BD1206130A1A43130C1A4300BF7C
:10424000094205D0830707D00270401C491EF9D1EE
:10425000704700000022FFE71300103906D330B486
:104260001400150010393CC0FCD230BC490700D303
:104270000CC000D504C0890002D30280801C002934
:1042800000D5027070477047A446521E08D30378C9
:104290000C78401C491CA342F7D0181B6446704799
:1042A000002064467047F0B54488491CA4B2E5B2CA
:1042B000A40809B21C808EB287883619BE4204D980
:1042C000A6B2891B6D1C09B2EDB2A40024180834F3
:1042D00014601C88AD076418A400AD0F2C43A4B271
:1042E0001C800388E31A9C07A40F012C02D803D179
:1042F000002B01DD00230AE00123002907DA116801
:104300008C78A408A400641C8C70083010601846D7
:10431000F0BD70B5044616460D460846FEF7BFFDD3
:104320002060281DFEF7B6FD31044018606070BDA6
:10433000F1B5FFB093B00C001500EFF310801890AA
:1043400072B600209F49087000F0DAFB060092A8C0
:10435000007800F02FFC6946087092A8007800F001
:10436000B8FD92A90978884200D908006946097801
:10437000814200D901008E4200D90E0068460670C5
:1043800091486946097889004018416D491C41658A
:104390006846007800280AD068460078012807D1CE
:1043A0008A48007A0021894A117230BF10727BE37B
:1043B00068464470E148057068464078DF490871F6
:1043C00001A800F0D5FDDD48007A6990804800889A
:1043D000689080480068679000208AAB7E4F81001B
:1043E0007A585A50401C0828F9DB7C48C06966900E
:1043F0007B48806965908025ED0528686490686831
:104400006390A8686290E868619028696090686924
:104410005F90A8695E90E8691C90E86A5D90286BDF
:104420005C90686B5B90288F5A90686C59906D48CF
:10443000006858906B48007C57906A48008B5690F3
:104440006848007F559068480078549066484068F6
:1044500053906548007A5290634880895190624831
:10446000007F5090614800784F90604800794E90EE
:104470005E48007A4D905D48007B4C905B48007C24
:104480004B90C54800684A90C34840684990C2486C
:10449000007C4890C048007D4790C0480078469016
:1044A000BE4880884590BD4880684490BB4880895C
:1044B00043900022BA4C1005011990000B6816AE0B
:1044C00033504B6814AE33508B8B12AE33500B8C81
:1044D00010AE33508B8C0EAE33500B8D0CAE335070
:1044E000CB6A0AAE33504C23CB5A08AE33504C3112
:1044F0004B6806AE3350C96804AB1950521C012AF0
:10450000D9DDB020000600684290A64800684190BE
:10451000A44840684090A34880893F90A148008A01
:104520003E90A04840693D909E48007E3C909D484A
:10453000808D3B909B48006B3A909A48406B399035
:104540009848806B38909748C06B37909548006CBE
:1045500036909448406C3590934800883490924847
:10456000808833909048007B32908F48007C319057
:104570008D48808A30908C48007E2F908B48008830
:104580002E908A4880882D908848007B2C90874800
:10459000007C2B908548808A2A908448007E299050
:1045A0008348006828908248406827900748006840
:1045B00026900648007A25907E480068002817D18A
:1045C0007D4816E00C000020CC0200200000704066
:1045D0000400104000E100E000E400E004ED00E031
:1045E000080090400C0030402C003040500030401B
:1045F00000201B90002271481A90142050431A99F1
:104600004018910043687AAE7350036882AE7350CD
:10461000836872AE7350C0686AAB5850521C082A47
:10462000E9DB8120C005406824908120C005007B23
:1046300023908120C005408B22908120C005008BF3
:1046400021908120C005406A20908120C005806AA9
:104650001F908120C00500881E90594800681D9059
:1046600068460078032806D156480068C0218905AD
:1046700001435448016000215348006850381990A4
:10468000CD4A10651046026D13688E008351491C97
:10469000121D02651429F6DB28480079274909789C
:1046A0002A68520A514088436ED101A8407800011F
:1046B00001A989780143112904DD002043490860DC
:1046C00000F042FD3F48006841490860012000F0C9
:1046D00099FE00F0ADFE002000F094FE3D4E3E48F5
:1046E0000078002800D081E03C480068400636D4BD
:1046F0003B480268394B19685140C948394C246815
:10470000056AAC421FD11B689A4203D0C54A1268A1
:104710000A4018D1344909688022520513000B4021
:104720000468224093420ED18022D20411400068D6
:104730000240914213D01E4802E000BF000020401A
:10474000006880070BD51F49C8680209D01C802368
:104750005B03984219D2CA6812098242FBD301A8AE
:104760004178090180780843112805DD012000F017
:10477000EBFCD1481549086068460078032803D14E
:10478000104801680E4006608EE1C8680009CB4BF6
:10479000D3189842F9D1E2E700004040240040409D
:1047A0000000A0400400F0400400D0400400E040BD
:1047B00010E000E0000C704051E5CC1A080000A0A9
:1047C000080000C004000048001805101400002074
:1047D00018000020FFFFFFCF0C00002000E200E0E7
:1047E000A8030020A4030020A00300200120B44956
:1047F000088200208880886000226F491998086527
:10480000086D9300CB580360521C001D0865142AE4
:10481000F6DB6898AB4908806798824908600020F9
:1048200081008AAA52587A50401C0828F8DB669802
:104830007B49C8616598A449886164982860639839
:1048400068606298A8606198E8605E98A8615F9867
:104850006861609828611C98A8621C98E8615D985E
:10486000E8625C9828635B9868635A98288759982F
:104870006864964858990160579901745699018364
:10488000559901772030549901705399416052999C
:104890000172519981815099017724304F990170AB
:1048A0004E9901714D9901724C9901734B990174A4
:1048B00087484A990160499941604899017447992C
:1048C0000175243046990170459981804499816031
:1048D00043998181002210050119900016AB1B58E5
:1048E0000B6014AB1B584B6012AB1B588B8310AB87
:1048F0001B580B840EAB1B588B840CAB1B580B85C1
:104900000AAB1B58CB624C3108AB1B580B8006AB73
:104910001B584B6004AB1858C860521C012ADADDE2
:104920004298B021090608606A492798486000202B
:104930008860289A0A606849419A0A60409A4A60E9
:104940003F9A8A813E9A0A823D9A4A613C9A0A7647
:104950003A9A0A63399A4A63389A8A63379ACA63D9
:10496000369A0A64359A4A643B9A8A855B49349A36
:104970000A80339A8A80329A0A73319A0A74584AA2
:10498000309B13408B822F9B0B7656492E9B0B80BE
:104990002D9B8B802C9B0B732B9B0B742A9B1A409B
:1049A0008A82299A0A765049269A0A60259A0A72BA
:1049B0001B994E4A02E000BFCC0200201160142176
:1049C00041431A9A891882007AAB9B584B6082AB9C
:1049D0009B580B6072AB9B588B606AAB9A58CA604D
:1049E000401C0828EBDB8120C005249941602399F5
:1049F00001732299418321990183209941621F9972
:104A000081621E9901801D98394908602E480078FE
:104A1000002834D168464078002830D0284803E088
:104A200004ED00E000E100E0018809220A40092AC3
:104A300002D1E96989051FD4018811220A40112A8F
:104A400002D1E969490517D4018821220A40212AA7
:104A500002D1E96909050FD4018841220A40412A9F
:104A600002D1E969C90407D4008881210140812964
:104A700005D1E869800402D501201E490860684616
:104A80000078032803D11C4801680E40066069982D
:104A90001A49087268460078032801D1012100E014
:104AA0000021002000F070FB189880F3108800208F
:104AB0007FB014B0F0BD0000CCBCECFC0400F0FFF3
:104AC0000800104804001040080090400C003040DE
:104AD0000000404010E000E00400F0400400D0403E
:104AE000BFFF00000400E04000007040000C704078
:104AF000080000C000E200E0040000480000204080
:104B0000F8B5294D002029680A4640321378D27939
:104B1000934347D14A6E120E44D13E22525C002A82
:104B200040D1431E21488D6A467A1A460024F60079
:104B3000AD190926F606376900887D190707012097
:104B4000002F06DAC302CB181C6F631B1B021B125B
:104B500028D407273F02C919496ACF0103D54A1B48
:104B6000120212121ED401252D07002B06DA002A8C
:104B70000ADA75600E48856003200AE011200006FD
:104B800004437460002A03DB2943084600F09EFCBE
:104B900002200549096840314A78002A02D00020E5
:104BA00048700320F8BD0000AC000020C0000020C9
:104BB00040000048032070471FB50421012000F089
:104BC000ADFC01009C4C03D0200000F0ABFCFEE7E4
:104BD00000F0BCFC002805D001002000303000F0BF
:104BE000A1FC02E0C1A000F09DFC02A80190801C85
:104BF000009003AB08220021012000F0ABFC00284C
:104C000005D001002000543000F08CFC1FBD00BF17
:104C1000BEA000F087FC1FBD78B58FB000F046FB4A
:104C200000F0B0FCE120400200F0BDFC012000F0EB
:104C3000E7FC824CBE204000201800F01DFD010062
:104C400005D08A204000201800F06CFCFEE705200B
:104C500000F0B1F8002000F03DFD012000F03AFD29
:104C6000022000F037FDFFF7A7FF00F0F5F87448C9
:104C700000F058FD0021002000F03CFE0021002043
:104C800000F04DFE0121002000F062FE0121002015
:104C900000F074FE0021002000F096FE02210020AA
:104CA00000F0E2FE4021002000F034FF012100204E
:104CB00000F009FF0021802000F0D1FF0B25614E9C
:104CC000012001F0B9F8042001F000F90028FAD021
:104CD00001F00CF9022100B201F05EF870606D1E67
:104CE000EED1594901F01EF90FD8584901F02EF9BB
:104CF00001F084F9010000BF94A000F013FC012032
:104D00003070022000F000FD01E000F0BDF807A8BF
:104D100086A12022FFF798F80021002001F08BF9EE
:104D2000002802D00100200024E02000303000F0F4
:104D3000F9FB0020069005900490039002900190EA
:104D400000900023A022A021032001F07FF9002879
:104D500003D0010020005C300CE020008C3000F01B
:104D6000E1FB07A91E2001F092F9002805D00100FF
:104D70002000B83000F0D6FB03E02000E83000F05F
:104D8000D1FB00BF78A1A4204000201800F0CAFB8E
:104D900004E0002204210320FFF7CAFA01F082F99F
:104DA00030780028FAD18020000100F055FF01285A
:104DB000EFD00422EEE73EB504000121080201F025
:104DC000B3F90121080401F0AFF9002001F04DF81A
:104DD0001F4D0021280001F04DFA002001F02CF8B1
:104DE000802000041B490860042001F058FA0220CA
:104DF00001F055FA00F0DAFF280001F0FFF9002178
:104E0000012001F042FA012001F03CF8012001F0FC
:104E100049F8052C0ED100206946087005224A7019
:104E200002220A71CA708870684600F0C6FF01202D
:104E300001F002F837BD0000F42006101013061030
:104E4000801A0600240000200100504000007A442F
:104E5000080000A080E100E0E0B50121012001F0A0
:104E600063F9684600F0F2FE802000906846062153
:104E70000171002181710121417100F07FFE00214B
:104E8000802000F0ECFE07BD70B586B00121012046
:104E900001F04AF90025684605700221417001269B
:104EA000867000F07FFA01A800F0D0FE01A885808E
:104EB000F4020194857100F061FE03940496059557
:104EC00003A800F0D3FE0121200000F0F0FE06B0A0
:104ED00070BD80B500F0A3FB002803D100F0A4FB57
:104EE000002801D0002002BD032002BD6163695F7C
:104EF000676174745F696E69742829202D2D3E20C6
:104F0000535543434553530D0A0000006163695FE5
:104F10006761705F696E69742829202D2D3E2053CA
:104F20005543434553530D0A000000000201061A81
:104F3000FF30000215E20A39F473F54BC4A12F17B4
:104F4000D1AD07A96100000000C800004465766982
:104F5000636520697320706F776572656420617482
:104F60002025646D563A2000312E312E300000008D
:104F70000F21114A13681B090B4043701368194035
:104F80008170D268426001210C4B9A4208D10C4AD0
:104F900012680C4B9A4201D1042202E0022200E086
:104FA000012202704278002A00D141700649098826
:104FB000491C8900816070471C00904041A000029C
:104FC0001C00001044A000F2140010407FB5040043
:104FD0000D0016006846FFF7CBFF68460178217088
:104FE00041782970807830707FBD704710B5C2005D
:104FF00018231340FF249C40E2438907090E99407F
:10500000030004D55D481B071B0F083B00E09F48C9
:105010009B089B00C01803681A401143016010BD33
:10502000FEB501245648017801220A430270002689
:1050300054480660032501F081F8694608806846F7
:105040000088002801D16D1EF5D16846008820280F
:1050500036DB684600880125400525D46846FFF701
:1050600087FF68464178090180780843122800DAF2
:10507000002587480068000705D4002D14D00120C2
:1050800000F062F810E0834FF868834E3168081A28
:10509000283800020012002806DD002D02D0012071
:1050A00000F052F8306838607C48047000F0E9F98C
:1050B000BFF34F8F7A487B490860BFF34F8FFEE7FD
:1050C0000120FEBD10B500220021A44804E00B0021
:1050D000415C5918491CC9B2435C002BF7D1CB1C69
:1050E000202B12DA0223435421234418637008232F
:1050F000A3704318DA709A4A80235B02401880B28A
:105100001843106010681840FCD110BD70B5002124
:105110000023924A04E01C00D35CE3185B1CDBB262
:10512000D45C002CF7D102253524DE1C202E05DAB4
:10513000D554D6187470B070D218D170894A1570D1
:1051400054709070D17070BD70B580214902854B4C
:105150009CB20C43824A002804D0146010680840B6
:105160000AD0FBE798789D78FB262E409E7014604D
:1051700014680C40FCD1987070BD00001CED00E07C
:105180000800204014000020F2B58AB0040003A8F3
:105190007DA11C22FEF758FE6846FFF7E9FE704D20
:1051A0000126002C58D003A8442181736E490A7847
:1051B000012313430B704C21C17220210172B221D3
:1051C00041745B21017569498B6B694A1C0C9442DF
:1051D00009D1C47D8F272740C775C47D1B01702767
:1051E0001F402743C7754B6B1C0C944209D144796F
:1051F000CF272740477144791B0130271F402743A1
:10520000477109680B0C934208D1C27DFC231340FF
:10521000C375C27D8907890F1143C175C17AFB220D
:105220000A40C27269464A7812018C781443112CE4
:1052300006DDC17D04220A43C275C07DFFF766FF0B
:10524000300403A989B20143296029680140FCD1D7
:10525000112C01DDFFF736FF134988890028FBD0A8
:105260000AA800788E8117220A8000224A6000284E
:1052700007D0686810216A680A40102303409A42E8
:10528000F9D03C483C4908600BB0F0BD00E400E0B8
:10529000C000002004000048180000200C0000207E
:1052A0000400FA050CED00E00C00104880B5082061
:1052B0003249088003210120C043FFF797FE0321F4
:1052C0000020C043FFF792FE03210020FFF78EFE6F
:1052D00003210120FFF78AFE03210420FFF786FE49
:1052E00003210520FFF782FE00210620FFF77EFE46
:1052F00003210720FFF77AFE03210D20FFF776FE3A
:1053000003210E20FFF772FE03210F20FFF76EFE30
:1053100003211120FFF76AFE03211220FFF766FE2A
:1053200003211320FFF762FE03211420FFF75EFE26
:1053300003211520FFF75AFE03211620FFF756FE22
:1053400003211720FFF752FE01210120FFF71CFF68
:105350000B480C49086062B601BD000064030020E0
:105360000C0000481C00002008002040B00700107E
:1053700055AA0000CCBCECFC140000200400104036
:1053800066000E0020009040023F00023E30023CCA
:1053900020023B4C023A400239B202345B02350B28
:1053A00000000000F0B502781F2301248178002955
:1053B00021D0417852B2D50018262E40FF27B740A1
:1053C000FD438907090EB140160004D5134A36077C
:1053D000360F083E00E0124AB608B6009219166869
:1053E000354029431160007803409C400D49400935
:1053F00080000C50F0BD13409C400B4851098900BF
:105400004450F0BD09490028086803D00422024333
:105410000A60704704229043086070471CED00E06A
:1054200000E400E000E100E080E100E010ED00E0D9
:10543000EFF31482EFF30981002080F31488BFF3A7
:105440006F8FF0B543464C4655465E466746F8B406
:10545000164CEFF30883236006B4154C2068154CF6
:105460002060154C2068154C2060154C2068154CA8
:105470002060154C276800202060BFF34F8F30BF9D
:1054800027600A4C246884F3088882B003BCF8BC07
:105490009846A146AA46B346BC46F0BC04BC80F37D
:1054A000098881F31488BFF36F8F1047080000202C
:1054B00004ED00E0A003002024ED00E0A4030020A0
:1054C00000E200E0A80300200800204030B5EFF320
:1054D000108172B60922D2061269FF25821A1202C1
:1054E00014120C4A91351368AC4208DC01221206F2
:1054F00090431A464032D479DF252C40D471C20142
:105500000724D20924021B195A62034A906081F3CE
:10551000108830BDAC0000204000004810B500F0FD
:10552000D3FE10BD0EB4C0B5020003A80190002048
:10553000009001AB0121044878440C3000F0E6FEF5
:10554000029906B0084700BF77DD000010B501F0F2
:105550009DF910BD7CB5069D079C002805D08607E7
:1055600005D1460703D4060701D442207CBD00299B
:1055700003D0012901D00229F7D10095019401F04F
:105580004FFA7CBD0220014908707047B00300202B
:1055900010B50400202001F0F9FB0128FAD020000A
:1055A00001F0EBFB10BDF0B585B00700012109202B
:1055B00000F0BAFD8020400000906C460125257166
:1055C0000026A6716671684600F0D8FAE8020090DD
:1055D0002571684600F0D2FA0297032002A90871EB
:1055E0004871CE804E7208728D7202A801F022FBC3
:1055F000002001F0DFFB012001F010FB05B0F0BD41
:105600001CB50400684604210170032141708470B8
:10561000FFF7C8FE2100102001F0A5FB13BD80B5E7
:10562000802001F0B3FB22E080B5082001F0AEFB42
:10563000012800D0002002BD70B50024012804D04C
:10564000022802D00020C04370BD002901D10020F3
:1056500070BD0D00160004E02878FFF799FF6D1C5F
:10566000641C3000461E0028F6D1200070BD401E8C
:105670008041C00F02BD704710B5837F0122002416
:1056800092024168082B03D94224914202D310E0D0
:10569000914201D242240CE0014634220648FEF732
:1056A000BFFB01F0ADFB002801DA482401E001F066
:1056B000E5FB204610BD000030030020012802D089
:1056C000022803D004E08020C00170470120704709
:1056D000082070471CB504000121012000F024FDC2
:1056E0002000FFF7EBFF00906846062101710021C2
:1056F00081710121417100F041FA2000FFF7DEFFC6
:10570000012100F0ACFA13BD80B5FFF7D7FF0021EF
:1057100000F0A5FA01BD80B5FFF7D0FF012100F030
:105720009EFA01BD78B585B004000121654800F0FE
:10573000FBFC1020009004256E4635710020B071EE
:105740007071684600F01AFA2020009035716846A2
:1057500000F014FA02A801F05FFC012002A9087110
:105760000294594C200001F0FDFB5849200001F043
:1057700083FC002006B070BDFCB583B006001700A6
:105780000025684605804180858080214901C180CF
:10579000890001816946097C491C41814A4C2000ED
:1057A00001F055FC200001F057FC0128FAD06946B1
:1057B000200001F039FC3900FFE7200001F043FC34
:1057C00037006846067C04E0395C200001F03BFCB1
:1057D0006D1CE8B2B042F7D3200001F04FFC032863
:1057E0000CD080210903200001F03EFC0028F3D0FA
:1057F0003749200001F040FC002000E0012005B006
:10580000F0BDFFB583B000266C4626806846007C5C
:105810006080A68080204001E0802681012767818A
:10582000294D280001F013FC280001F015FC012887
:10583000FAD06946280001F0F7FB6846017D280090
:1058400001F001FC280001F019FC03282CD03907D5
:10585000280001F009FC0028F4D03907280001F0E5
:105860000BFC27806846007C6080A6803803E080BF
:10587000800020816846007E60816946280001F032
:10588000D3FB039E6846047E280001F0F7FB032843
:105890000AD0F904280001F0E7FB0028F4D00C49F5
:1058A000280001F0E9FB06E0012009E0280001F0F2
:1058B000CCFB3070761C2000441EC0B20028F5D10D
:1058C00007B0F0BD010400000000A0407F809F737E
:1058D0000000081080B51000DBB20A006B21FFF752
:1058E00090FF02BD80B51000DBB20A006B21FFF70C
:1058F00043FF02BD38B505000C0001236A461021A4
:10590000FFF7E8FF684600780007000F2101014318
:105910006846017001236A46102100F015F838B579
:1059200005000C0001236A461121FFF7D3FF6846EA
:1059300000780007000F2101014368460170012330
:105940006A46112100F000F82800FFF7CBFF32BDB6
:1059500038B505000C0001236A461221FFF7BAFF93
:1059600068460078EF2101402001102210400843D2
:105970006946087001236A461221E5E738B505003B
:105980000C0001236A461221FFF7A4FF6846007845
:10599000DF21014060012022104008436946087061
:1059A00001236A461221CFE780B51000DBB20A005E
:1059B0005D21FFF726FF02BD80B51000DBB20A00B3
:1059C0005D21FFF7D9FE02BD38B505000C000123AB
:1059D00000AA521C1021FFF7E7FF002805D1012380
:1059E0006A4611212800FFF7DFFF002810D1684622
:1059F00040788F2101402001702202400A4368460E
:105A00004270012300AA521C10212800FFF7D4FF86
:105A1000002812D168460078FC210140E0080222EB
:105A200010402207D30F03430B4368460370012342
:105A30006A4611212800FFF7BFFF32BD80B5100074
:105A4000022B02DB0A0080211143DBB20A0007E0CF
:105A500080B51000DBB20A001E21FFF78DFE02BDEB
:105A60001E21FFF7CEFE02BD38B505000C00012354
:105A70006A466021FFF7E2FF68460078FC2101409A
:105A8000A007800F00E0104008436946087001231A
:105A90006A4660212800FFF7DBFF32BD80B51800A1
:105AA000022A02DB0B0080211943D3B20A005F21D6
:105AB000FFF7A7FE02BD80B51800D3B20A005F2130
:105AC000FFF75AFE02BD38B505000C0005D0012CC9
:105AD00003D022490E4800F043F86B4601222021F2
:105AE0002800FFF7DBFF00280FD16846007840064A
:105AF000400EE1010143684601706B4601222021FE
:105B00002800FFF7D8FF002800D0012032BD000098
:105B1000E423061038B505000C0005D0402C03D056
:105B20001449134800F01CF86B460122222128007A
:105B3000FFF7B4FF00280ED168460078BF2101406E
:105B40000C43684604706B46012222212800FFF7AF
:105B5000B2FF002800D0012032BD00006102000029
:105B600080B50A0001000448FFF7DCFCFEE70000F6
:105B7000E42306103903000028290610F0B5047943
:105B800022000021544B002C04D11C680568AC4352
:105B90001C6006E0062C04D100221C680568254321
:105BA0001D600568CD40ED0738D5082909DA8D005C
:105BB0009E6A0F27AF40BE431700AF4037439F6236
:105BC0002CE00D00083D082D0BD20D00083DAD0066
:105BD000DE6A0F27AF40BE431700AF403743DF6296
:105BE0001CE00D00103D082D0BD20D00103DAD0046
:105BF0001E6B0F27AF40BE431700AF4037431F63F4
:105C00000CE018290ADB0D00183DAD009E8E0F2711
:105C1000AF40BE431700AF4037439F86491C1A2947
:105C2000BFDB01684279012A9A6802D11143996069
:105C300001E08A439A60016880790128586802D19E
:105C400001435960F0BD88435860F0BD00210160F8
:105C500001718171417170478021C90535E01F4A8A
:105C6000012901D1106070475060704702681C49DB
:105C70004368012B0B6802D11A430A6001E0934389
:105C80000B6082680368012A03D18A6813438B6022
:105C900004E0002A07D18A689A438A604A6800684B
:105CA00082434A607047486803434B6070470D4A1F
:105CB0000029116802D008431060704781431160C9
:105CC000704709490860704708490968084000D0D2
:105CD0000120C0B270470000040000403C000040BA
:105CE000100000401C00004028000040240000403C
:105CF000FEB50C000125714E3168890C294002D097
:105D00008E27FF0500E06E4F69460880180001F0FD
:105D1000C5F90190009800B201F0D0F90321326872
:105D200092090A40012A03D032689209114006D133
:105D30003168890C0D4001D0624F00E0624F694626
:105D40000C70390001F0C5F9654900F0FFF801F069
:105D500015FA04000D000199FE20800501F027FAD4
:105D600001F00CFA06000F0068460078022806D100
:105D70005CA003C822002B0001F0A9FA05E059A09D
:105D800003C822002B0001F005FB32003B0001F0AC
:105D900078FB01F038FCFEBD80B500230222012112
:105DA000FFF7A6FF564900F0D1F802BD8120C005DB
:105DB000018808220A430280704710B53F490A68EB
:105DC000C0239A4303789B01C0241C4014430C60F9
:105DD00042780F2A0A6804D18023DB0313430B6047
:105DE0000BE0484B13400B600A680E239A4343783C
:105DF0005B000E241C4014430C600A6830239A4355
:105E000003791B0130241C4014430C608278082A5B
:105E10000A6803D180231B01134301E03A4B13406E
:105E20000B600A68394B1340C0780002C022920010
:105E300002401A430A6010BD8121C90501280FD113
:105E40004A68920D024003D008888022520009E07F
:105E50000A88042313430B800A8810430880704784
:105E60000888102202430A8070478121C905012851
:105E7000088803D180229200024301E0244A0240B4
:105E80000A8070478121C9050128088802D10222B1
:105E9000024305E0402202430A8008881E4A02406D
:105EA0000A8070478121C9050128088802D1802213
:105EB000024301E0194A02400A8070470400804012
:105EC00000720A4700031547002C214701001448BF
:105ED000FFE700780140080000D001207047000073
:105EE0009A991940333333333333E33F0948016818
:105EF0004A03D20F01D1408A7047008A70470000E0
:105F00001F858B40FFFFBFFFFFF7FFFFFFFCFFFF79
:105F1000FFFD000004008040FDFF00007FFF000047
:105F2000100080400CB4012212060318DA4207D890
:105F30004B18DA4204D802000A43921802D2814276
:105F40000CBC7047FCD088420CBC704730B40500D4
:105F50004D400122D20715404B180418240E2ED0B4
:105F60001B0E32D0FF2C34D0FF2B3AD0E4180002A5
:105F7000090210431143000A090A9446C2B24A4377
:105F8000000AC3B24B43000A4843110A5B181A4384
:105F9000D2B2190A091801D44918641E080A7F3CB4
:105FA00023DBFE2C08DAE405090611436346994118
:105FB0006041284330BC7047FF20C005F9E7280046
:105FC0001B0EFF2BF6D1D043F4E72800FF2CF1D1B4
:105FD000F9E74002F7D1FF2B01D14902F3D1E005E7
:105FE000E7E7D8054902E4D0EDE743020020641C4E
:105FF000DFD15B129B1CDCD9D805DAE70122D2077E
:106000000118090E7F3910D449421F310FD40018EE
:1060100005D2C0011043C84000D5D0437047C0012D
:106020001043C84005D440427047002070470042EA
:10603000F3D51000704710B50A461F2801D9122069
:1060400010BD0146104601F00FFB10BDFFB587B033
:10605000109D159E169C01930295009407A807C8F1
:106060001F46334601F02EFB00280ED113981499D9
:1060700003AA069443C211981299019000950291C7
:1060800007A807C83B4601F04BFB0BB0F0BD10B5AD
:106090000A461F2801D9122010BD0146104601F002
:1060A0005BFB10BD70B501F093FB1D4C0125206812
:1060B000ED0241190979002909D1A0300079C00702
:1060C00027D001F013FC01F047FC01F053FC01F074
:1060D000D7FC2068014640310A78C9798A4317D134
:1060E0003E21095C002913D10E490A8812070FD5F9
:1060F0000922D2061269497A836A4019006FC900E1
:10610000801A000259180012814201DA01F01AFDCA
:1061100070BD01F0C3FD01F0E1FD01F0ADFED2E77D
:10612000AC000020C0000020304A0129116802D1D3
:106130000843106070478143116070472C48027813
:106140002C4801880020002A44D109220A40092A4B
:1061500000D1202011220A40112A02D10200402041
:10616000104321220A40212A02D10200802010433C
:1061700041220A40412A03D10200802040001043FE
:1061800081220A40812A03D102008020800010432E
:10619000FF22921C13000B40934203D10200802087
:1061A000C0001043144A13000B40934203D1020075
:1061B00080200001104305220A40052A02D1020076
:1061C000102010438907890F03290ED101000820F0
:1061D00008437047022A01D101207047042A01D1E7
:1061E00002207047082A00D1042070472000904008
:1061F00008009040080010480104000001680122D6
:10620000914301600021016041608160C1602549C6
:10621000254A904202D10868F02228E0234A9042A1
:1062200003D10868F022120121E0214A904203D1F3
:106230000868F02212021AE01E4A904203D1086850
:10624000F022120313E01C4A904203D10868F022A6
:1062500012040CE0194A904203D10868F02212059A
:1062600005E0174A904204D10868F0221206024362
:106270000A6070470029016803D001220A430260C6
:10628000704701229143016070470E4A002911783E
:1062900002D0084310707047814311707047014964
:1062A00008607047040000A01C0000A0300000A09F
:1062B000440000A0580000A06C0000A0800000A0D6
:1062C000940000A02400904010B5012818D8072998
:1062D00016D80C4A1268134620331877597780076E
:1062E000C906000E090E01430020074BA03204E04E
:1062F0008401E418A172401CC0B2147B8442F7D818
:10630000002010BDAC00002000010020F8B596B0C0
:10631000050017001E001C98049103A92B22885425
:1063200000200A9002950E9700960EE0252912D0C3
:106330000498029A90470490002800D1D2E00A986D
:10634000401C0A900E98401C0E900E98017800296F
:10635000ECD10A98C8E00020079008900990022626
:1063600008210191012404210E9D00E020436D1CB1
:106370002A78202AFAD0232A0AD02B2A04D02D2AC0
:1063800004D0302A08D00AE03043F0E70843EEE7B3
:10639000020008201043EAE702001020FAE72A2A48
:1063A0000ED1009A17683A683F1D009B1F600C923F
:1063B000002A03D553420C93014308006D1C14E0DE
:1063C00000210C91004A0BE0CBCCCC0C0C9B9342EF
:1063D00005DA9F00FB185B00591830390C916D1CD1
:1063E00029780B00303B0A2BF0D329782E2903D0D3
:1063F0000021C9430B9127E06D1C29782A2908D177
:10640000009909680A68091D009B19600B926D1CB0
:106410001AE02D2902D12D236D1C00E0002300215C
:106420000B910CE0002B09D10B9ABC4FBA4205DA54
:106430009700BA185200511830390B916D1C297809
:106440000A00303A0A2AEDD303A908852F783900CB
:10645000B3A001F0DFFD002801D038006D1C03AFB0
:106460002A217854785C682805D12878682802D1D8
:10647000622078546D1C10A806902A78681C0E9033
:10648000252A15D0582A52D0632A00D1BCE0642AAC
:1064900000D17FE0692A00D17CE06F2A47D0702AC2
:1064A0003AD0732A08D0752A41D0782A3FD0B5E077
:1064B000079410A90A70BAE0009800680468001DEB
:1064C000009908600594002C13D12B20385C00281B
:1064D0000CD00024E44300BF93A001F0A5FD201AD6
:1064E00000D1A4E00020C04317B0F0BD95A00590F6
:1064F0009DE00B9D002D03D5200001F0B9FD09E0C2
:106500002A000021200001F0BBFD002801D0001B63
:1065100000E0280008908AE0009800680168001DEB
:10652000009A1060039110A80590782168E0785CCB
:10653000622803D0682809D06C280FE00098016811
:106540000868091D009B1960C0B20DE00098016841
:106550000868091D009B196080B205E00098016879
:106560000868091D009B19600390388D0199C0B21D
:10657000084240D0039800283DD0202010437828BE
:1065800039D1079810A930230B54401C431C0793A2
:106590000A5430E0785C622803D0682809D06C285F
:1065A0000FE0009801680868091D009B196040B25F
:1065B0000DE0009801680868091D009B196000B291
:1065C00005E0009801680868091D009B19600390A8
:1065D000002802D507982D2109E0388D304202D0DD
:1065E00007982B2103E0C00705D50798202110ABA1
:1065F0001954401C079010A80799401805901100E5
:1066000003A800F0A0F812E0079400980068016861
:10661000001D009A106010A8017008E00794252062
:1066200010A90870100002D0079610A842700C98AC
:106630000799401A0999401A0899401A0F90282082
:10664000385C400713D42020694608710F98002851
:106650000DDD0F9C029D012301AA03A9280000F073
:10666000FAF8002800D03DE7641EF4D10295079D9A
:1066700010AC002D0ED0029E227803A9300000F04D
:10668000D9F8002802D4641C6D1EF5D102960028AA
:1066900000D027E7302069460871099C002C0CDDEA
:1066A000029D012301AA03A9280000F0D4F80028C4
:1066B00000D017E7641EF4D10295059C089D002DBB
:1066C0000ED0029E227803A9300000F0B3F8002813
:1066D00002D4641C6D1EF5D10296002800D001E79B
:1066E0002820385C400700D42FE620206946087136
:1066F0000F98002800DC28E60F9C029D0E9F009E4C
:10670000012301AA03A9280000F0A5F8002800D061
:10671000E8E6641E00D105E6F2E70000CBCCCC0C25
:10672000686C747A4C0000007072696E74665F73F6
:106730003A2062616420257320617267756D656E11
:10674000740000000000F0B583B00A00C4686F292F
:1067500001D1082506E020211143782901D00A251E
:1067600000E01025182701680E00642A01D0692A6C
:1067700003D1002901D571420E00002E0CD1016A0F
:10678000002909D1082D31D12821415C09072DD5D7
:1067900017273021E17529E00290684602707F1EBC
:1067A00001973000290001F076FC3031C8B23A2858
:1067B00003DB6846007851380918E155300029009C
:1067C00001F069FC060004D002988068E119884253
:1067D000E5D30298082D09D12821415C090705D588
:1067E000E15D302902D07F1E3021E1551821C91BFF
:1067F0004161E2198260026A914206DA511A8161AE
:10680000018D0B4A0A40028510E0002A0ED528228D
:10681000825C14231340102B08D1426A0369D21AF8
:106820008369D21A511A012900DB816103B0F0BDDE
:10683000EFFF000010B503000C00110060689847DE
:106840006060002804D0E069401CE061002010BDB9
:106850000020C04310BDF8B50024002B11D0070064
:106860000E0014001D0021787068B8477060002881
:1068700009D0F069401CF0610020641C6D1EF2D14B
:1068800004002000F2BD0020C043F9E7F0B55FA08E
:1068900099B000685E4915905E4A0868841809221C
:1068A00012028218526B2546403514922A7AD2077A
:1068B00002D0622019B0F0BDAA8B01235B029A427C
:1068C00001D9AB8303E0172A01D21722AA83149AB5
:1068D000A0301392067B0DE0761EF6B2139871017C
:1068E0000F18B8680F90384620220021FDF79EFA55
:1068F0000F98B860002EEFD120460830E060646049
:10690000A06024600830139060612061FF220021A4
:10691000083001F017FC2046FF220021243001F04E
:1069200011FC2046AA7F0021303001F00BFC2046EC
:10693000FF2200213C3001F005FC00222A721046A3
:106940001721334B05E0149E4701BE19401C71808E
:10695000C0B21E68A036367B8642F4D80020288359
:106960002F8C688C0026149008E02820E16C70437E
:106970000918204601F0EEFB761CB6B2BE42F4D3F5
:10698000002608E03020216D70430918139801F0AB
:10699000E1FB761CB6B214988642F3D3012001F0D5
:1069A000E1FB0124684604701B4941802346042210
:1069B00069460CA801F0E2FB002822D16846018E4E
:1069C000818216490183042606858475202108A842
:1069D00081720024C472047307214173847305A972
:1069E0000DA801F07BFC00280BD168460487468780
:1069F000818E15AB0EAA008E01F00EFE002800D18C
:106A000058E700202872472054E700000000FFFFED
:106A1000AC0000202C07000001180000052A00002F
:106A2000FFB50C4678A103C995B0019100900021F3
:106A300008A801730321C90268464186012108A8FC
:106A4000734E017435681746AE3501F019FE002803
:106A500008D170493068401801F0A6FEA8780028D7
:106A600002D0462019B0F0BD0BA8159901F0A6FE82
:106A70000028F7D1072010A90871012C05D0022C9D
:106A80000AD0002C0ED04220ECE708A8017B102091
:106A9000014308A8017305E011A90BA801F09CFEB1
:106AA0000028DFD110A8027901230CA9284601F0A3
:106AB00065FB00287ED1022229461898FDF7B0F91F
:106AC00029886846818115214902018207840126AF
:106AD00086734E2108A881700024C47006710721B6
:106AE0004171867103A902A801F0F8FB002861D169
:106AF000022202A91E98FDF793F9082F02D26846D8
:106B0000478502E008206946488569460C850B46A2
:106B100028880AAA098901F07FFD00286DD13E4925
:106B2000684601820227078408A8847103A902A885
:106B300001F0D4FB002860D1022202A91F98FDF7C2
:106B40006FF968460470694644704F850B46288883
:106B50000AAA098901F060FD00284ED108A8007B2F
:106B6000C00723D02C496846C91C01820821018432
:106B700008A88770047103A902A801F0AFFB0028E0
:106B80003BD1FF216846C1718171C1708170417034
:106B90000170447104716946082048850B462888B5
:106BA0000AAA098901F038FD002826D108A8007B2F
:106BB000800600E021E022D52988684681811649B7
:106BC000A53101820684867308A88770C470047199
:106BD00007214171847103A902A801F07FFB0028FD
:106BE0000BD169460E700C854E850B4628880AAA83
:106BF000098901F011FD002801D0472032E708A8DB
:106C0000007BA87000202DE7626C75656E726721AD
:106C1000AC000020EF060000012A00006B490028AC
:106C2000086803D0012202430A60704701229043A2
:106C300008607047F0B5040021680125644E65487E
:106C40007269D2082A4001D1090100E0C90001F0AF
:106C500022FAC10931810904490A401A401C40083E
:106C600081B23F2902DD3F388006800E30736020FC
:106C70009F21327C0A4023795B0103401343337424
:106C80003278114062795201104008433070082177
:106C9000F720327C0240A379DB0008271F4017430E
:106CA000377432781040A279D2001140014331701C
:106CB000E179002907D1FD20317C01403174317820
:106CC000084030701CE002200229317C0BD10143C6
:106CD0003174FB21327C0A403274327810433070B8
:106CE000307801400BE0014331740421327C0423ED
:106CF000134333743278104330703078014331706D
:106D0000706935490140207A28404002084370618B
:106D1000706932490140207A400828400002084347
:106D2000706170692E490140607A284080030843F1
:106D3000706170692B490140607A40080540E803A2
:106D4000084370611020EF21327C0A40A37A1B01B6
:106D500003401343337432781140A27A1201104079
:106D600008433070F0BD204A0029118802D0084342
:106D700010807047814311807047C005C00D1B49CA
:106D80000880704719480088C0B270470100184851
:106D9000002901D5006800E0808A02E00100154862
:106DA00000880140080000D00120C0B2704712499D
:106DB0000880704711490A78C7231340C000382261
:106DC000FFE702401A430A7070470000300030406D
:106DD0001C0030400000127AFFFDFFFFFFFEFFFFA6
:106DE000FFBFFFFFFF7FFFFF380030400000304053
:106DF000040030403C00304044003040340030401B
:106E000070B50025ED43FBF75DF901282FD0002375
:106E100018490322888BFF24401E10438A7F513477
:106E200062438218088B282460431218488B302450
:106E3000604312180846203040782C246043101814
:106E40000D4A181884184869A0420ED11320C001B9
:106E500084420AD90D69FBF735F9C1B2284601F021
:106E6000BDFC01F0EDFD401B251A284670BDFF2337
:106E7000B533CDE73003002051190000F8B50626E0
:106E8000324840250560324800270780A9050920BF
:106E9000C00641602F4A9160016801602E480321BD
:106EA00004694269601E08433946401CFCF7BEFF76
:106EB000FBF708F9C1B2204601F090FC01F0C0FDDB
:106EC00001F0C0FD01F012FE244917208881244CF6
:106ED0002068421901465770FA20886228201070F5
:106EE00001F005FE012805D120681022403001780C
:106EF0001143017001F0FDFD012805D120688022B9
:106F0000403001781143017020680146403002781A
:106F1000324302700020C043086601F0EDFD01F02D
:106F2000F7FD01F027FE20680121203001770721BD
:106F300041770120FFF7C8F901F05EFE00F0A0FDE7
:106F400002488038056002210160F8BD80E100E060
:106F5000C00000204000004830030020000010481E
:106F6000AC00002070B504000D00206801218843AA
:106F7000206020684349014068794003C022D20163
:106F800002400A43226029683F48404A6B795B000F
:106F9000D25A4A43801A3026F6433D4A914209D2DA
:106FA000490001F078F821680E402660616889B2D6
:106FB000C0220EE0374A91420ED24A00511801F029
:106FC0006AF821680E40102131432160616889B25E
:106FD000802292020A4362606168890A8902EA8813
:106FE0001143616020852068062188432979490082
:106FF00006220A4002432260287A0128206803D131
:1070000008210143216002E00821884320602068B4
:1070100001210143216070BD1F4901600021017100
:107020004171C180017270470B884A8852001A432F
:107030008B881A43CB881A430B891A434989C903A1
:107040001143C160704701747047007E704701684A
:1070500080220A430260704700680106C90F01D010
:107060000120704702207047006BFFE701400800D5
:1070700000D00120C0B270478163704740690007AB
:10708000800F7047FF9FFFFF0024F4005C0000208A
:10709000A1860100811A0600881300009D210200CC
:1070A0000AD002D4491E9218FCD5C905100A12064E
:1070B000524100D3012A4841704700009D2102003F
:1070C000EED55242F446FFF7EBFF0122D207104300
:1070D000604730B405004D400122D20715404B18DF
:1070E0000418240E28D01B0E2FD0FF2C34D0FF2BD9
:1070F00037D0E41A0002090210431143430848083C
:10710000D10D1B1A02D2641EDB181B18DB18834238
:1071100000D31B1A4941F9D37F3426DDFE2C08DA4F
:10712000E4054808C907194391416041284330BC30
:107130007047FF20C005F9E728001B0E03D0FF2B86
:10714000F5D14902F3D0D043F1E7FF2C01D1400241
:10715000F9D1FF20C005E9E74002F4D1FF2BF8D1B7
:10716000F1E728004902E2D0EDE70B0200202442BB
:10717000DCD15B129B1CD9D9D805D7E701221206B6
:107180000118CA420AD28A420DD8382212060909C9
:107190008918C20FD20711434007704700D0490831
:1071A0000909014301E0C10FC9070020704701220E
:1071B000D20703004B402ED4431A01D2C01AC9187B
:1071C00030B44B180418240E1B0E22D0FF2C20D0F4
:1071D000E31A182B1DDC09021143C40D641E0002C2
:1071E000104394461925ED1A0A00AA40D9404518C3
:1071F00001D36D08A41CE405D209280A2D062A43F0
:107200006546AA41604103181B0EFF2B01D3C00D38
:10721000C00530BC7047514006E05140CCE7012228
:10722000D20703004B40F8D4431A03D2C01AC9183E
:107230005040514030B44B18090211430418240E39
:107240001B0E40D0FF2C3AD025009D410BD31ED8F9
:10725000C50D4002401A0BD3ED050100400AC905D7
:1072600091416841D5E7C50D40024918401AD0D078
:1072700001214008491C0018FCD58C4204D36D1A2A
:10728000000AED054019C4E7E8051040C1E7182DD4
:10729000BFDCAC1C0D00E140E5414D40012D4941F2
:1072A000C40D00021043451A01D46D199543641EA4
:1072B000E405280A2D069541604130BC7047FF2B3C
:1072C000A7D1D843A5E72442A3D10020A1E7F0B479
:1072D0000125ED070F005F404FD48B4200D1824261
