:020000041004E6
:1000000000600020CD070410C1000410D7000410C8
:10001000AA5555AA45554C420000000000000000BA
:10002000000000000000000000000000ED000410CF
:10003000000000000000000003010410190104107A
:100040002F01041045010410000000000000000012
:100050005B01041071010410870104109D0104105C
:100060000000000000000000000000000000000090
:1000700000000000B3010410C9010410DF010410E6
:1000800000000000F50104100B020410210204100E
:10009000370204104D020410AB0704106302041071
:1000A0000000000000000000000000000000000050
:1000B0000000000000000000000000000000000040
:1000C00080B56D4800686D49884203D008300068EB
:1000D000804701BDFEE780B56748006867498842F0
:1000E00003D00C300068804701BDFEE780B5624850
:1000F00000686249884203D02C300068804701BD07
:10010000FEE780B55C4800685C49884203D038301F
:100110000068804701BDFEE780B557480068574931
:10012000884203D03C300068804701BDFEE780B5BF
:10013000514800685149884203D0403000688047E8
:1001400001BDFEE780B54C4800684C49884203D0A9
:1001500044300068804701BDFEE780B5464800682E
:100160004649884203D050300068804701BDFEE711
:1001700080B5414800684149884203D05430006846
:10018000804701BDFEE780B53B4800683B49884297
:1001900003D058300068804701BDFEE780B536487F
:1001A00000683649884203D05C300068804701BD52
:1001B000FEE780B5304800683049884203D074308B
:1001C0000068804701BDFEE780B52B4800682B49D9
:1001D000884203D078300068804701BDFEE780B5D3
:1001E000254800682549884203D07C300068804754
:1001F00001BDFEE780B5204800682049884203D051
:1002000084300068804701BDFEE780B51A48006869
:100210001A49884203D088300068804701BDFEE754
:1002200080B5154800681549884203D08C300068B5
:10023000804701BDFEE780B50F4800680F4988423E
:1002400003D090300068804701BDFEE780B50A48C2
:1002500000680A49884203D094300068804701BD95
:10026000FEE780B5044800680449884203D09C300A
:100270000068804701BDFEE7100000200000041068
:100280000023DB4300E0001D884204D202689A424A
:10029000F9D0012070470020704738B505000C00E8
:1002A00003E0A8B200F07CF86D1CA9B28C42F8D231
:1002B00031BDF8B5324C334833490025334A136811
:1002C000002B02D10B68002B1CD0314B16689E42CC
:1002D00002D10E68002E15D016689E4202D10E681B
:1002E0009E420FD01668002E04D10E680027FF43EF
:1002F000BE4207D016689E421AD10E680027FF43FF
:10030000BE4215D1060023492348FFF7B9FF002854
:1003100007D0224804607C213F20FFF7BEFF1F4822
:100320000560301D0068316881F308888047FEE76A
:100330001668002E02D10E689E420DD00026F643AC
:100340001768B74202D10F68002F05D01768B7426F
:1003500010D10F689F420DD10F4E1139FFF790FF5A
:100360000028DED00D4F3C603E210120FFF795FFB5
:100370003D60D6E71068B04200D10868FEE7000093
:10038000CCBCECFC0008041010F805101008041098
:10039000AA5555AAFFE7071000F805101400002021
:1003A00008490968084A91420AD108493F220A814E
:1003B0004006000C886111200880088AC007FCD51F
:1003C0007047000014000020CCBCECFC0000104082
:1003D000FEB501243448017801220A430270002648
:1003E00032480660032500F073F8694608806846C5
:1003F0000088002801D16D1EF5D1684600882028AC
:1004000036DB684600880125400525D4684600F0A3
:10041000BDF868464178090180780843122800DA5F
:10042000002523480068000705D4002D14D00120C2
:1004300000F020F810E01F4FF8681F4E3168081ACE
:10044000283800020012002806DD002D02D001200D
:1004500000F010F8306838601848047000F0EDF8CB
:10046000BFF34F8F164817490860BFF34F8FFEE761
:100470000120FEBD70B580214902144B9CB20C4393
:10048000114A002804D01460106808400AD0FBE725
:1004900098789D78FB262E409E70146014680C405E
:1004A000FCD1987070BD00000800204014000020AE
:1004B000C000002004000048180000200C000020AC
:1004C0000400FA050CED00E00C0000481C000020C0
:1004D0002B4802782B4801880020002A44D10922A9
:1004E0000A40092A00D1202011220A40112A02D1F3
:1004F00002004020104321220A40212A02D102009A
:100500008020104341220A40412A03D1020080206A
:100510004000104381220A40812A03D1020080203A
:1005200080001043FF22921C13000B40934203D122
:1005300002008020C0001043134A13000B40934276
:1005400003D1020080200001104305220A40052A41
:1005500002D10200102010438907890F03290ED110
:100560000100082008437047022A01D1012070478A
:10057000042A01D102207047082A00D104207047C4
:100580000800904008001048010400000F21114AA3
:1005900013681B090B404370136819408170D268BF
:1005A000426001210C4B9A4208D10C4A12680C4B54
:1005B0009A4201D1042202E0022200E001220270EC
:1005C0004278002A00D1417006490988491C8900F7
:1005D000816070471C00904041A000021C00001088
:1005E00044A000F214001040EFF31482EFF30981ED
:1005F000002080F31488BFF36F8FF0B543464C465C
:1006000055465E466746F8B4164CEFF30883236000
:1006100006B4154C2068154C2060154C2068154C0C
:100620002060154C2068154C2060154C2768002070
:100630002060BFF34F8F30BF27600A4C246884F3DB
:10064000088882B003BCF8BC9846A146AA46B346C7
:10065000BC46F0BC04BC80F3098881F31488BFF366
:100660006F8F10470800002004ED00E024000020F8
:1006700024ED00E02800002000E200E05C00002003
:100680000800204070B40123002413E00168001D1D
:10069000194202D04D466D1E49190C60091D121FEA
:1006A000042AFAD20D00960701D50C80AD1C1A4021
:1006B00000D02C700268001D002AE7D170BC704782
:1006C00030B501684118446862088A188368E407F5
:1006D00004D54C461B1901E0641C06D191420BD095
:1006E0000C7864B2491C0D78491C1D705B1C002CF1
:1006F000F2D4641EF7D5F1E70C3030BD10B50749D0
:1007000079441831064C7C44163404E0081D0A680C
:10071000891888470100A142F8D110BD08000000E7
:100720006400000061FFFFFF0400000008000020DB
:10073000040000000C000020040000001400002051
:100740000400000018000020040000003000002019
:10075000100000001C000020040000005C000020CD
:10076000000000005DFFFFFF7000000014000000AB
:10077000C00000204DFFFFFF6A0000000A000000DB
:1007800010000020FFF724FE002801D0FFF7B6FF7D
:1007900000BF00BF002000BF00BFFFF78AFD00F0D0
:1007A00000F880B500F002F801BD704707463846F2
:1007B00000F002F8FBE7000080B500BF00BF024A6E
:1007C00011001820ABBEFBE72600020000BF00BFEF
:1007D00000BF00BFFFF7D6FF8100810081008100CC
:0707E000F00003000004100B
:04000005100407CD0F
:00000001FF
:020000041004E6
:1008000000600020DB1705103F160510411605108B
:10081000AA5555AA45554C420000000000000000B2
:10082000000000000000000000000000431605105A
:100830000000000000000000F7230410451605101A
:100840004D160510072504100000000000000000F0
:100850004F160510B72E0410511605105B660410D4
:100860000000000000000000000000000000000088
:10087000000000003F6704101F700410D3700410C4
:1008800000000000E3310410873204100B3F041015
:10089000534B041003660410F7740410EB7004103B
:1008A0000000000000000000000000000000000048
:1008B0000000000000000000000000000000000038
:1008C000F0B5FE48FE4E016841204001B2680C18A8
:1008D00085B0D00173D5204680300090806B817A3E
:1008E000EE2319408172304651030125C06800296A
:1008F00042DB510105D500200921C9064860357049
:1009000036E0510012D5C178491E0906090EC170A2
:1009100003D10922D2065160357041790A0627D5E4
:100920004906490E41718169416121E0E5490A4268
:100930000AD0214620318D70520202D503228A70DE
:1009400000E08D708169416101792246C1704032B9
:100950009179002908D00921C9068968A16400217C
:100960000223E1649377A16541794906490E4171FB
:1009700000204621085539E031698A89012149075B
:1009800052185288436B5218934209D19278142A14
:1009900006D1034640331A7DDF273A402A431A75B1
:1009A000806A408840187D210078095D0843C006B0
:1009B00006D4002009213570C906486010E082E2A3
:1009C000606D00F06FFB01460920C0060269236DCF
:1009D000D21A1202120A914202D2357000214160ED
:1009E000F06801220169D20391430161B2685002AB
:1009F00013D5306980890121490740184088401883
:100A00007061F1684B6B834207D180780D2804D167
:100A100001200B69000483430B613746002A48DA42
:100A20000098806B4188012040070818F861092070
:100A3000C0064069C00DC00708D0002009217D70A4
:100A4000C90648603D70A048B061F1E0F8684121F6
:100A50000069490108420AD000F034FB012829D07E
:100A60001C22F9694878024201D0001F4870F869D9
:100A70007D2201781155C94389071DD0F8680069A6
:100A8000C0036FD500F01EFB01286CD01F20F96950
:100A90004978084266D0002009217D70C906486067
:100AA0003D708948B861F8680121026909048A43E8
:100AB0000261BDE0FC22D4E7867841781A2E74D218
:100AC000824A925DFF2A70D08A426ED1022E14D0E3
:100AD000F9684A79D20659D4062E15D00A69D3038B
:100AE00027D5002009227D70D20650603D707648DF
:100AF000B8610A69001182435BE0F868406B0560E9
:100B0000F9682320487193E00122B86992031043E9
:100B1000B8616F4A086910401522520210430861FB
:100B20002046C030C17BBA7891422FD10821C173D1
:100B30007EE0002E18D0012E29D0032E2CD00A2EB4
:100B400034D00B2E37D0082E38D0092E39D00C2EA9
:100B50003AD002465F4B3146012000F0B5FA00283A
:100B600066D149E05BE058E00A46214600F0AEFA63
:100B7000F8698179C079000208435749400240185A
:100B80005649896A814200D80846606550E00A46A5
:100B9000214600F0BFFA4BE0B86980231843B861E2
:100BA0004120000402430A6142E027E08920C0019D
:100BB00005E00A613CE04A480240FAE7102002439F
:100BC000F7E70120000326E096070423002E08DA49
:100BD000BE691E4302239A430823BE61CF263355C4
:100BE00002E0D60700D11A432A430A610522C01C3D
:100BF0002C3100F0A6FA1BE0072E06D0F868082278
:100C0000016911430161C67112E0F869C0780E28CC
:100C10000ED101208006B8610AE0FF2037E72146A7
:100C2000FB683A69F86900F095FAB9690843B86158
:100C3000234FF8683969066A0A8A01235B07D218CC
:100C400001925288D21800237A610293BB6811275F
:100C5000BF043B421ED15F011CD4476B974201D0B9
:100C6000012700E000270397904201D0012700E010
:100C70000027BC46002E0DD0039F002F0AD06746E8
:100C8000002F07D0F77CFF0904D03768002F01D070
:100C9000012702975B0202D4029B002B75D0437997
:100CA0009F0701D5002E1DD05B085B00476B974264
:100CB00057D143719378042B19D02AE0AC0000205F
:100CC000640000200000408008001000EA1F0410AB
:100CD000DFFBFEFF7C0000209AFDFFFF30030020B9
:100CE000BFFFFEFF2B431F462F434771DEE723461E
:100CF000C033DF7B082F05D1E24FBF78DF737D273C
:100D00007F029F81DF4B01279B69FF063B43DD4F3D
:100D1000BB614379DB060CD5DA4B09275D700023F4
:100D2000FF067B60D74BD84F1D709B693B43D54F67
:100D3000BB619278152A32D1074640373A7DFD23B0
:100D40001A40BC463A75130729D5CE4B01279B693B
:100D50007F063B43CB4FBB61F7231A4063461A75AE
:100D60001DE082421BD0338AB77C0022DB1933821C
:100D70007369B361B274338AF788BB4202D2F77CDD
:100D8000FF0903D03668202205E068E0DB0602D1C7
:100D9000B3691B68B361BB4B9F693A439A6142795F
:100DA0000027D20717D0B74A436B53619A78052AB8
:100DB0003BD1026920231A43026100200870487168
:100DC000487088718870C871C8700872087148725C
:100DD0008020487229E0002E0AD000F005FA002891
:100DE00006D1A8483322C16852010969114209D0CD
:100DF000A4490122C868486105800169D2031143F2
:100E0000016112E0A14A317C136809221202C9066D
:100E10009A18C90ED26B0127891C89184161019A61
:100E200051803146C06800F0EFF9964E2121F068FC
:100E30008901006908420AD000F044F9012809D06C
:100E40001F2271694878024201D0001D4870002FAE
:100E500002D004E0FF22F4E70199B08A4880894E6D
:100E6000F26810694106890F1ED080063178C00FE4
:100E7000012902D0B16849030BD50028306903D09D
:100E8000C17D082319430AE0C37DF7210B40C375D8
:100E90000AE000283069C17D03D0F7231940C175ED
:100EA00002E008231943C17521463369F06900F057
:100EB000EDF93078012808D000997548896B032234
:100EC000091D00F06BFA05B0F0BD6E480121C26843
:100ED00000695379C77A9C4620231E5C00238372E5
:100EE000204620300190807803281BD193796548F3
:100EF000002B17D163469B069B0F13D1634B1B68D6
:100F00002033DB7C002B0DD1136A002B0AD1CF23B9
:100F10001B5D8078834205D09089411C7043C019C5
:100F200089B287B2108F1389400048435918118144
:100F300001998978002902D15169091A51610099F2
:100F40008E6BB17A11231943B17221464D4BC031DA
:100F5000CE7B9B789E420AD18B891B1A8B8110D540
:100F6000484E4C4B7570B1691943B16109E0536942
:100F70004449002B05DC0E464D708969464B1943E8
:100F8000B1616146890605D53E49444E4D708B6975
:100F900033438B6111792646D1704036B571E16CCF
:100FA00080B20818E0649079FB2108409071C00776
:100FB0001AD0B08E1189401A012180B2C90388422B
:100FC00006D33048364A45708169114381610BE090
:100FD000002809D101230021204600F0E7F9294922
:100FE00089690843274988612648C1688A7990073A
:100FF00024D5338F0E8923489B1B5B1C01269BB293
:10100000F603B34205D34570254A816911438161D6
:1010100014E0002B12D1FD231A408A710269009955
:101020002132496811700B0A53700B0C9370090E32
:10103000D17060340069E17E20304171384600F0A3
:1010400001FA10490A69D072019800268670487822
:10105000002802D0887800F003FA0C4C5821206850
:101060000D540921090240184078002802D00120BF
:1010700000F0CAFA012000F0C7FB20684030067675
:1010800005B0F0BD6400002008000100AC000020A5
:10109000FA00300008804000080004000800020048
:1010A000080008000649C20B09684004096A400CA0
:1010B000CB0958435143000A081820308009704773
:1010C000AC000020002070470020704770B50C462F
:1010D0000546C178602001551646281D00F0DAFE4D
:1010E0004034A084A81D00F0D5FE20852846083095
:1010F00000F0D0FEA08528460A3000F0CBFE208606
:1011000028460C3000F0C6FEA086B07901210843C5
:10111000B07170BD70B5054616460C46C01C00F097
:10112000BEFE84210851E9797B200155284608300C
:1011300000F0B0FE40342087B07902210843B0713E
:1011400070BD04E003780B70401C491C521E002A3D
:10115000F8D17047F8B51D46144606460027FFF73C
:10116000B1FF01280CD01F2071780840060036D04E
:101170000020E86100F09EFE002803D0E86907E047
:10118000FF20F1E769893246012000F0A3FEE86103
:10119000002801D0102722E0E07D80214840E07542
:1011A0001049286908421AD06079401E6071607940
:1011B000FF2814D1A079401EA071A079FF280ED17C
:1011C000E079401EE071E079FF2808D1207A401EC6
:1011D0002072207AFF2802D1607A401E6072384661
:1011E000F8BD0000202800000648016849204001A1
:1011F0000818417AC07A814201D901207047002045
:1012000070470000AC000020F8B50C46CA88098A77
:101210004030521A8088102695B2A84205D2054661
:10122000E07C4006400EE07403E02068002800D116
:101230000026002904D1207B800701D5022000E090
:101240000120CF060643FF0EE81982B20E48A169BD
:101250000368092000021818C06B001D00F05CFE36
:1012600060610948A5740168092000020818C16B73
:10127000B81C0E5404480168092000020818C06B0D
:10128000FF1CC555F8BD0000AC000020FFB5156976
:101290001E46A8032E3689B01C461746002832DAAF
:1012A000102269463046FFF74CFF0924E4060398F4
:1012B000A0610298E0610198206200986062354860
:1012C0000168E0140818016FA162C06EE0620A981C
:1012D0008030016C2163C06B606300F041FEA06B45
:1012E0000390E06B02902C480168019140680090E7
:1012F000102231466846FFF724FF01204004854351
:101300003D610DB0F0BDE8053CD505A80146009053
:1013100010223046FFF715FFFF20013085434120A2
:10132000800205433D610998082201A9C01CFFF70E
:1013300008FF0998214604222A310B30FFF701FFEC
:10134000154805A9283800F01DFE0924E406029876
:10135000A0620198E062786B082203A90D30FFF7C4
:10136000F0FE049820630398606300F0F9FD0A49D9
:1013700005A8083900F006FE102231460098FFF754
:10138000E0FEBEE7A07A0006BBD40A9800F003FE98
:10139000B7E70000AC0000204000004803E0087000
:1013A000000A491C521E002AF9D17047FFB581B0CE
:1013B00000230093049B012B2BD04B8C204D1C0150
:1013C0000B8C9C46CB7E6B438D8BAE46CD8B96694A
:1013D000A64205D19689664502D1168FAE4201D04C
:1013E0004026009696790427760876003E4396714B
:1013F00094615461644694811587049A012A17D038
:101400000B6170464A68400010184860009805B0AB
:10141000F0BD034640331D461B8E094E1C01AB8DAB
:101420009C4660231B5C7343AE8C2D8DB646CEE785
:1014300083657146C26C49005118C164E6E700003B
:10144000E2040000054925224143090C5143401A9A
:1014500080B2252800D32538C0B27047EB060000C3
:10146000F1B5674941220868520182B082180092A2
:101470007B2212018618AC22155C04460346029AB0
:10148000C034363395427DD90921090240181746E8
:101490005821006B4F430025B91C4554029800F0B9
:1014A00085FD00280CD15648BF1D016809200002A7
:1014B0000818006BC05D002802D00098C03005728B
:1014C00072B64F48029D0768012039462031CA7D17
:1014D000A8408243CA75317D814331751978080768
:1014E0007AD44A070298520F82427CD0304620308C
:1014F000827E5507029A6D0F954276D181760F2034
:1015000018704122A06852017063BD18A86D21694E
:10151000A9652061686D6169696560612146284639
:1015200018315C3000F05CFD3648A37E39180A782B
:101530000B70A276A86C2168A9642060E86C6168D1
:10154000E96460601120C00139180A78E37E0B70ED
:1015500021462846E2761C31643000F041FD2146E8
:1015600028461E31683000F03BFD214628462031D8
:101570006C3000F035FD214628462231703000F0F5
:101580002FFD00E03BE0214628462431743000F076
:1015900027FD214628462631783000F021FD1948E4
:1015A00080351D303918204628300A7803780B70B2
:1015B00002701448E26A2630381801680260E1625D
:1015C0000721E06809050843A96B0322091DFFF7FD
:1015D000E5FE0AE000E006E03A20805D410702985F
:1015E000490F814201D10F2018702036B07E41078B
:1015F0000298490F814201D10F20B07662B6FEBD3C
:10160000AC0000207E080000F0B57D4D044641216D
:101610002868490191B04018089000200D9072B6DA
:1016200000F0F0FC002801D1002C07D07448002401
:1016300001680920000208184678DDE062B60D98BE
:1016400011B0F0BDF0077DD06E49A00140180E909A
:101650006B480168092000020818016B582060439C
:101660000D18A978286A4907490F02294AD1A97992
:10167000490747D4002845D0288F40000990000230
:10168000FFF710FD039000200F905D4836210068A1
:10169000095C0A070AD44907490FA14206D1012172
:1016A00080300F91416C0191806C06E00899C96C03
:1016B00001910F21C9014018406E0090FF205F305A
:1016C000FFF7F0FC4F490C39497AC90041180098DE
:1016D000411A0398081A07900E980B2141562030A2
:1016E000059100780A900020029028890690092030
:1016F000C00601690798401A070201203F0AC00589
:10170000874229D36BE001200D9003990798401A76
:10171000079002984018029009990198401A019088
:10172000696909980818686105990A98081A40B209
:1017300005900698401E80B206900598002804DAAD
:10174000253000E055E040B205900920C00601694F
:101750000798401A07023F0A6420FFF7A3FC2949B3
:101760000C39497AC900411825480068806A081870
:10177000B84207D20120C005874203D209990198D7
:101780008842C0D802990098401A00020D99000AB8
:1017900000290CD01A4901220968D2028918096F60
:1017A000411A09020912002901DD00210D910F994A
:1017B000002906D01249019A096880314A64886478
:1017C00008E0089A0199D1640D490A680F21C901FE
:1017D000511848660E990598C872069828810848DD
:1017E000012201680920000208184178A2409143B3
:1017F0004170641CE4B27608002E00D022E71DE799
:10180000AC000020CC000020F1B5F74F7B203968F8
:1018100000010D18084696B06830129009200002A9
:101820000818006B1390412040010E180920C006D3
:1018300000690790002003900824EC48FFF732FC71
:1018400002900020149072B63868F7224030C179B7
:101850001140C171129801210171129801684A0763
:10186000520F4271C9081298C900016062B61698F9
:10187000002801D007980DE06420FFF713FC0799BA
:101880004218DB48417AD8480068806A0818101866
:101890000002000A00F0E2FB686B04903A20405D11
:1018A0000E90082842D2012003900E9858214843F8
:1018B000139940180590CF48876ACD48407AC000F8
:1018C00000F032FD01460598008F40020818C74914
:1018D00049424018874200D238467065B820815985
:1018E0000A7948798979000210438907890B0143F5
:1018F0000598FF314030028A408AC33110184018E1
:1019000000F01AFD07465F200001FFF7CBFBB8424D
:1019100004D95F200001FFF7C5FB00E038460499B9
:101920000918B348407AC00008181490706DFFF78A
:10193000B9FB049940180190002007460690287DC5
:10194000002809D10E98082806D3A949002008804C
:101950000921C906486065E168680890686C0A90CA
:1019600029680798401A00020412A148008840071D
:10197000400F00F01BFB002801D0002007E0002CE6
:10198000FBDB204600F0D0FC0A99884200DA0A907E
:101990000120800708240C9000200F90297D3AE058
:1019A0000E9A904234D0904A12682032927D1207EB
:1019B000120F82422CD0EB6A4200069307929F5A84
:1019C00005976B6A9A5A089B92017B43D3180A9A2F
:1019D0009C46934212DACA0710D02A6B079B089FD5
:1019E000D25A521C93B21A467A43059F9444FA186D
:1019F00092B213460592079F069AD3530C9A6346F8
:101A0000944505D2CA0703D0059A0C9304460F9259
:101A10004908401CC0B20029C2D10C98FFF742FB14
:101A200029684718A86A6100405A8001FFF73AFB0D
:101A3000C01906906E48407A5822C1006A48006872
:101A4000125C002A6C4A12690CD0BB1A029A52002E
:101A50009B1A169A002A01D0002001E0806A4018E3
:101A6000181A0BE0BB1A029A52089A1A169B002BFE
:101A700001D0002001E0806A4018101A0002000A1C
:101A80000121C9050590884209D3082C7ED0204643
:101A900000F056FC55490C9840180A9068640121E2
:101AA0000598C905884200D372E7082C6ED00F98BC
:101AB00000282DD0089948430590FFF7F3FA2968CC
:101AC00040180002000A2860696C0598081A6864CA
:101AD0000C990598081A00210C9013E0EA6A480056
:101AE00005909446105A0F9A801A04E02B6B059AC1
:101AF000401C9A5A10180028F8DB059B6246491CC6
:101B0000D052C9B238480068A030007B8842E5D87E
:101B10000E98082876D20498C01B01020120090AF9
:101B2000C005814222D302983A1A1498101A010271
:101B30000120090AC005814201D314980DE00199E2
:101B4000511A0902090A814208D301204002FFF715
:101B5000A9FA02994900791A081A01900199049882
:101B6000081A0002000A00F0DFFB70650299019874
:101B70004018C01B01020120090AC005814255D24C
:101B800002994A0006995218049900E04AE0511A55
:101B90000902090A814235D20E9858214843139907
:101BA00042185820214641431398D37B0818C17B23
:101BB000994201D3102100E00021C9061ED4817989
:101BC000CA0702D07221895B03E0890707D5762115
:101BD000895B0289891A491E0904090C12D04079CF
:101BE00000060FD422E00DE0AC00002066020000E9
:101BF000C0000020300300200000004850799021F0
:101C0000084213D1082C15D09E490C9840186864DE
:101C1000582013996043401880784007400F0128EE
:101C20003FD007E00398002804D003D0049F0E9C07
:101C3000019806903802000A009006980102090AED
:101C4000012080020691FFF72DFA03900120400247
:101C5000FFF728FA074606990098081A00020012B2
:101C6000002809DD0399000A884200D90146039142
:101C7000B84200D838460746082C7DD082480088F4
:101C80004007400FA0424FD058201399604340189E
:101C9000059080784007400F052812D0022810D008
:101CA00042E03146803103208A6840028242C1D03E
:101CB000C9688142BED000F081FB4005400DC719C4
:101CC000B8E70598A101006A02906F480818818B57
:101CD000059880B2814227D00298002824D002992A
:101CE0000598FFF791FA694902980A68007C092172
:101CF0000902C0065118C00EC96B801C4018029022
:101D0000059821210069890108420DD0FFF7DAF911
:101D100001283BD01F2002994978084204D002983C
:101D200040780299001D4870584857490068203093
:101D30008474482020430880334680335A6B907A5D
:101D4000C106C90E6001014391729A6B917AC9066E
:101D5000C90E014391720098306500F053F90128D3
:101D600016D04A4800682030017D4748407A081A5A
:101D7000316DC000081800E03AE000020121000ABD
:101D8000490641180920C00641600EE0FF20C2E765
:101D90000121306D090641180920C00641603B4809
:101DA00000682030017D38484172082C24D2582028
:101DB00044431398241872B61298A1780068490712
:101DC000C008C000490F0843314908400099C900C4
:101DD00008431299086062B6A0784007400F0328B4
:101DE0000FD0FFF76FF901280FD00698C01B19E03C
:101DF00000200921C906486023490020088017B047
:101E0000F0BD03990698401A0CE04034208A618A9C
:101E10004018FF30C33000F08FFA874200D93846AF
:101E20000699081A0002000AE863A88B8001FFF7F0
:101E300039F929680026441812483138FFF732F979
:101E4000201A0002000A2864104C2E8420684030BA
:101E5000407E002807D000F0CFFA20684030417E55
:101E600049084900417620684030407E0028C6D0AD
:101E700000F0E6FA20684030417EFD2211404176B4
:101E8000BDE7000066020000C0000020AC0000209A
:101E9000070000F801784078000208437047017895
:101EA000427813028278C078120400061043184367
:101EB0000843704706480168492040010818017A24
:101EC000807A814201D901207047002070470000CC
:101ED000AC000020F8B50D460E49092309681B0225
:101EE000C918CE6A1F21521E0A431D3297B2002420
:101EF000394600F0C9FA00280AD13946B06800F026
:101F0000EBFA044608340068A0600020E074A58065
:101F10002046F8BDAC00002070B50C461F21521EB3
:101F20000A430546521C002011044E0D17D02146CD
:101F300008316A1A2846002A01DD082A03DB20221C
:101F400000F0E2FA04E0082208C9521E08C0FBD1E2
:101F500020352046761E24683604360CE7D170BD45
:101F600008B56420694608700921C9066A461078D8
:101F7000401E10704869C00402D410780028F5D1C2
:101F8000107808BDCA6802608A6842604A68826048
:101F90000968C160704710B504468034606C002841
:101FA00003D000F0C1FA0020606410BD0B497B2211
:101FB000096812018A182032927E36311207120FF8
:101FC000824206D009780A0705D44907490F8142A1
:101FD00001D101207047002070470000AC000020B4
:101FE00002880B8803800A8070470C0802170D01D5
:101FF000010209090101060209FFFFFFFFFF0909AC
:10200000FFFFFFFF30B41348092203680120C0021C
:102010001818D206006F11690F4C411A0902258861
:10202000090A2D0702D430BC01207047647A9B6AEC
:10203000E400E3188B4209D20123DB05994205D263
:1020400059000843506030BC0120704730BC00206C
:1020500070470000AC000020C0000020F1B5B04A7D
:102060007B211068090190B0411804914121490178
:1020700045180446C034014636310D9100210291C5
:10208000A849497AC9000C91816A0B9104992031C1
:102090000E91897E079108297ED2092109024018F4
:1020A000016B174607985822504308180890079864
:1020B00081019C480C3008180A90C07A2E464036A0
:1020C0000990B08B00F06AFA39684031098E4018E7
:1020D00080B20390E96C039800F06EFAE96C090293
:1020E0000F1AB07F00F06DFA3818FEF7DBFFA96C0D
:1020F00041180C98081A0002000A01901099411A20
:102100000B98081A00020121000AC90588427DD2F5
:102110000499019848630998FFF794F90A99C872DD
:102120000D980078C143090706D041070798490F69
:102130004007400F81422BD10E980821807E084332
:102140000D990870A86C2060E86C60600198A06030
:102150000298E060A86D2061686D6061B08B20839B
:10216000B07FA076284660300178E176B18CA183FB
:10217000318DE183B18D2184318E6184B18EA18452
:10218000318FE184C17E2820015584204059E062CE
:102190000D980078420700E07BE00799520F49074D
:1021A000490F8A4261D0F72108400D995C4F0870B1
:1021B0004007400F07900920396800020818016B9A
:1021C00007985822504308180490079881015548F1
:1021D0000C3008180A90C07A0990208B00F0DEF9C4
:1021E00039684031098E401880B2039061680398C5
:1021F00000F0E2F9616809020F1AA07E00F0E1F92F
:102200003818FEF74FFF2168411800E043E00C98B2
:10221000081A070210983F0A391A0B98081A000288
:102220000121000AC905884257D2A7600998FFF723
:1022300009F90A99C87201980899C01B00024979E6
:10224000000A9022114210D10121C90588420AD307
:102250000498C17B0898C07B401C814203D8049835
:102260004079C00601D500F0B3F9E96C039800F09D
:102270004DFA0446B07F00F051FAA96D20184018BD
:102280000721090508438035A96B0322091DFFF7C3
:1022900085F811B0F0BD0898008F41000A982030F1
:1022A00002780998101880B209900898089A008955
:1022B000401C108108984069421A089842610898A9
:1022C000C07BFF2802D2089A401CD073E86C4018EB
:1022D000E864079800F02AFAFCE604980A99008F4F
:1022E000400020310A780999511889B2099104995E
:1022F000049A0989491C1181049949690A1A0499A7
:102300004A610499C97BFF2902D2049A491CD173FE
:10231000616808186060079800F008FA66E7000036
:10232000AC000020C000002008B500216A461180E2
:10233000694600F05DFA08BD410140188009704708
:10234000F8B501461B480922006812028218136B77
:1023500058224A439E18412252018518164A880184
:102360008718B07800244007400F052802D00128C4
:1023700005D010E0084600F053FA04460BE02A4668
:102380008032108A002802D0401E108203E001240F
:102390000846FFF765F8F07BFF2801D2401CF07378
:1023A000002C06D02346324629460020009700F034
:1023B00039FAF8BDAC000020CC00002000210B2031
:1023C0000007026852070DD5026804239A43026091
:1023D000026808231A43026004E0491C052901DD54
:1023E0000020704742689207F7D54168C907FCD0C2
:1023F000806880B270477047FEB50F484121006881
:10240000490144180D4906224118684600F008FDAC
:10241000A66BE56B636B246C00206A46811C175C1D
:102420005F54175C7754175C6F54175C401C6754FB
:102430000628F3DB0020FEBDAC000020EF06000004
:102440007CB50E4C0E492068062245180D494118EE
:10245000684600F0E5FC296A06226846891CFEF7FA
:1024600070FE0921206809024018016D06226846A5
:10247000891CFEF766FE00207CBD0000AC00002039
:1024800004090000EF06000070B5124A0923126823
:102490001B02D2180123D26A83435B00491E4124E8
:1024A0009B184909491CC9B272B615798D420ED3E1
:1024B0001E785B78AD19EDB25B18AB4207D84000CF
:1024C000135C00245B1813541079401A107162B623
:1024D000204670BDAC000020491EC904090E72B62A
:1024E00002788A420CD9511AC9B24A1ED3B203707B
:1024F000426888001058990052580021116000E08D
:10250000002062B670477047814202D25318984249
:1025100003D300B500F0B2FC00BD521E03D38B5CA8
:102520008354521EFBD2704718B40168184ACB6816
:1025300013608C68012354604C6894600968D16012
:102540004168144ACC6814608C6854604C6894608C
:102550000968D16064216A4611700922D2066C466E
:102560002178491E21705169C90402D421780029BB
:10257000F5D122782270084A8168D4680C6094688A
:102580004C6054688C601268CA60037318BC704752
:102590001800004828000048380000481FB5054CC6
:1025A00040071ECC03946C460EC4000F6946085ABF
:1025B00004B010BD6417051089084143880A401C07
:1025C0007047032802D06320C043704766207047DD
:1025D000F8B54C4D4121286849014418264640363B
:1025E000B08BFFF7DBFF29684031098E401880B2BD
:1025F000E16C00F08BF80746B07F00F08FF8A16D1A
:102600003818411807200005014300913E4A296807
:102610008818363100F03FFC3F21286849014218F4
:10262000917A4B07014620318E7D5B0F37093F01C0
:102630003B4393727207520F8A75334AA831921F37
:10264000801800F02DFC2868A16CC0300268A264DC
:1026500001602868E16CC4300268E26401602868A7
:102660000099CC221150D030A16D0268A2650160A2
:102670002868616DD430026862650160296820466F
:102680005C30D83100F011FC296820465E30DA3128
:1026900000F001FC296820466030DB3100F0FBFBD4
:1026A000296820466430DC3100F0FFFB29682046B1
:1026B0006830DE3100F0F9FB296820466C30E031EB
:1026C00000F0F3FB296820467030E23100F0EDFBAA
:1026D000296820467430E43100F0E7FB2968204681
:1026E0007830E63100F0E1FB296820467B30E831A4
:1026F00000F0D1FB296820468430EC3100F0D0FB9B
:10270000F8BD0000AC000020EA0700004143080AC1
:10271000292109014843C00A401C7047012801D003
:1027200001487047002070477A030000FEB5034659
:102730002D483F270268092000021018016B58201D
:1027400058430C184120400110181146274E7F01B4
:102750009D01D219AE19927AC03100259A420CD14E
:10276000024640321746928E3F8F009784273F588B
:10277000012301977B273F5C07E08A8CCF8C009771
:10278000CF6A0023019728277F5C0297A779FF076C
:1027900008D02789D21B1204120C03D12246FEF75F
:1027A00005FE0546A079810710D522890099891A6E
:1027B000491C0904090C09D1FD21084001ABA07195
:1027C0003146052221311846FEF7BBFC002D0AD008
:1027D0000548009601684120400109182B46224611
:1027E000002000F01FF8FEBDAC000020CC0000204F
:1027F00010B50A4A830B12688004526A800C140ACE
:1028000060435A438009101800228A5E821A1046DB
:102810004030C009C3019A1A0A8010BDAC000020E4
:1028200000207047FFB506468DB050890690FF48DE
:102830000921006809020B904018006B0A90517939
:102840001D461446480601D4E80757D000200790DB
:10285000208F0090A089A3698446A0784007400F8C
:1028600005282DD003282BD001200990BF2001403E
:1028700061710E99EF07084640301031002F0AD0E1
:1028800000223C2107910E99069200928283944681
:1028900013468280083137270B9A7F01D219577867
:1028A000BF060FD5D778BF070CD580886246029344
:1028B00001920390069B079A099800F0FBFA1DE02D
:1028C0000020D2E71A030079130C009A6746039799
:1028D000049302920590486801910002000E009056
:1028E0000B98A0300079C00701D0002000E0102034
:1028F0008030099B069A079900F0DEFA0E9F2807A0
:10290000C037002873DA2069E90301D5162117E0E2
:10291000A90301D5132113E0290301D528210FE0D4
:10292000E90201D53D210BE0690201D5222107E032
:10293000690329D56179090601D4082100E03E2107
:102940000191B97B582251430A9A8918A14201D1B9
:102950000821B973F97B582251430A9A8918A14278
:1029600001D10821F97305218902084222D02804E7
:1029700020D5208A4004AD4800680ED5A0300079EB
:10298000C00703D0002002E01F21D9E710208030CB
:10299000069A019900F0D4FA0CE0A0300079C00743
:1029A00001D0002000E0102000238030069A019919
:1029B00000F0F2FA206A002801D000F01BFB00278B
:1029C00027629A4867620068A421095CC90701D0A0
:1029D000002500E010250699039101990223803516
:1029E0000591E90604D50222BF210D4007E01DE054
:1029F0001B2189014118897EC90614D500222907A7
:102A0000890E09180120C00208184069294600F003
:102A100013FB010007D00F71039ACA80059A0A724E
:102A2000284600F067FB002527618DE1680620D568
:102A3000A0784007400F052801D1A16961610021FC
:102A400005280BD0208BA2890004000D0190009274
:102A5000238F8020069A00F061FB75E1606B43894B
:102A6000028901930092C3888020069A00F056FBE9
:102A70006AE0680723D5802000906C481B2100681D
:102A800089014118C97E0223069F0907CDD5990205
:102A900040180C224069009900F0CEFA0100C4D021
:102AA0008F80F2788A713379727912021A430A811F
:102AB000B379F27912021A434A81009842E128055B
:102AC000800F06D00E98694631C1684600F05CFB65
:102AD0003AE1574805423DD0E80401D5002000E026
:102AE0001A20079006980490F01C029080214F480D
:102AF00000910168372040010818427803239206AC
:102B00001AD58078000717D50120C00208180E22B8
:102B10004069009900F090FA059000280CD00799C0
:102B200001710499C18008220830029900F078F9F7
:102B30000599009800F0DEFAA0784007400F0528BC
:102B400002D0022803D0FFE00820B873FCE0082080
:102B5000F873F9E0680424D5208A400433480068FB
:102B60000CD5A0300079C00701D0002000E0102073
:102B700000218030069A00F0E3F90CE0A0300079E3
:102B8000C00701D0002000E0102001230021803088
:102B9000069A00F001FAA0784007400F0528D3D02C
:102BA000D2E028021ED5208A00051AD51F48F178E8
:102BB0000068A0300079C00701D0002000E010209C
:102BC00000238030069A00F0E7F9A0784007400F14
:102BD000052801D10820B873432120698902884360
:102BE0002061B1E00E992A06803112480091002A36
:102BF0002CDA31460D31019102A907910B49169F3C
:102C0000096808220918F01C2637FEF79AFAF17AAB
:102C1000307B0822000208430099C8830799019875
:102C2000FEF78FFA04223946019805E0AC00002037
:102C300000100004640900000830FEF782FA0098D2
:102C40000299C1630098039901647DE029013ED592
:102C50007149A4220968525CD20701D0002700E024
:102C6000102708180390069A00980292C08B03233D
:102C700080370590F80603D50622BF20074009E0FB
:102C8000372040010818427892065DD58078C0064A
:102C90005AD504223807800E41180120C0020818B6
:102CA0004069394600F0C8F9049000284CD0001D56
:102CB00000900299018000980822801C039900F07E
:102CC000AFF8009805994181384604993AE0A80286
:102CD00009D50820B873514800884007400F401CB0
:102CE00000F053FA30E0A8012ED580200190204654
:102CF000403041880991018A0891C1880491408A35
:102D00000790454837210068490141184A78069FD5
:102D10000323920618D58978490615D50121C902E1
:102D2000401806224069019900F086F901000BD095
:102D30008F80099ACA80089A0A81049A4A81079A60
:102D40008A81019800F0D6F9A8060AD5206A0168A0
:102D5000216200210160226A002A00D1616200F034
:102D600049F9E8061AD5FEF7ADF9012852D01F2718
:102D70007078B11C0740E0693A46806800F006FAB6
:102D8000E069C780E069002707603178E06989075A
:102D9000890F0173E06900F025FAE761E80137D592
:102DA0001698C18901204007091849880818017838
:102DB0004906CD0F07A900F033FAA1200190A67BA8
:102DC0000798099008980A9013480721006809029B
:102DD000411809790223C9071AD09902001D401829
:102DE0000F224069019900F027F9040010D02671E4
:102DF000271D6571042209A9A01D00F011F8042205
:102E00000AA9B81D00F00CF82146019800F072F9EB
:102E100011B0F0BDFF27ABE7AC000020C0000020E0
:102E200010B5040000F02AF8200010BD10B5040011
:102E3000080011000200200000F0FCF9200010BD85
:102E400080B500F021FA02BD70B4103A03D378C9FE
:102E5000103A78C0FBD2530701D318C918C001D566
:102E600008C908C0D20704D30B880380891C801CC2
:102E7000002A01D50B78037070BC70478B0701D115
:102E80008307E1D0124205D00B78491C0370401C27
:102E9000521EF9D1704702780B7803700A707047A0
:102EA00002680B6803600A60704702880B88038021
:102EB0000A80704770477047FFB51F4605230646D6
:102EC000C1061E4881B0006803D50522BF210E400F
:102ED00009E03721490141184A78920629D58978B5
:102EE000C90726D003223107890E08180121C9021B
:102EF00040184069314600F09FF804001CD0029849
:102F000020710398E08027720A9860722046251D80
:102F100006220A300B99FFF783FF0C98A8810D98C1
:102F2000E8810E9828820F98A8742146304600F058
:102F3000E1F8002005B0F0BD0720FBE7AC00002061
:102F400070B50E4601230446C106124815460068B6
:102F500003D50422BF210C4008E01B218901411840
:102F6000C97F090601D4002070BD02222107890E05
:102F700008180121C90240184069214600F05CF898
:102F8000010005D00E71CD80204600F0B3F8EAE7CD
:102F9000072070BDAC000020F8B51D460F46022387
:102FA0000446C10612481646006803D50322BF2115
:102FB0000C4008E01B2189014118897E090601D4D3
:102FC0000020F8BD01222107890E08180121C9023D
:102FD00040184069214600F02FF8010006D00F711B
:102FE000CE800D72204600F085F8E9E70720F8BD95
:102FF000AC00002070B5C17C0E4D4906490EC1746D
:10300000044601232868D90240189026002240690E
:10301000314600F011F8010003D030464C6000F05A
:1030200069F84920296840010918487A401C48720B
:1030300070BD0000AC000020FFB5044600262C4FF8
:1030400083B09C460D46080616D572B601AB6A469B
:103050006146204600F027F900280BD06846818899
:103060000098827892089200827001806180012627
:1030700062B615E062B621E001AB6A4661462046C1
:1030800000F011F9002819D0680609D46846818833
:1030900000988278920892008270018061800126F7
:1030A0000098AA00817840238907890F1A401143AC
:1030B00081700599C170002E0ED115E0002000909E
:1030C00072B6A8060FD401203968C002081801683A
:1030D00008221143016062B672B63868F7224030A8
:1030E000C1791140C17162B6009807B0F0BD00000F
:1030F000AC0000200A46400608D5D0783A280AD20B
:10310000111D054B80001B58104618479078800809
:103110008000801C88707047E4FE0410F8B51D46DE
:103120000F4603230446C10616481646006803D519
:103130001022BF210C400BE03721490141184A7889
:10314000920602D58978490701D40020F8BD0D22E6
:103150002107890E08180121C9024018406921463B
:10316000FFF76AFF01000AD00F71CE800D81069A29
:103170004A81079A8A812046FFF7BCFFE5E70720CE
:10318000F8BD0000AC00002070477047F8B5044659
:103190000D46501E1F210843401C00041646470DD3
:1031A0001ED0204608302946421A002A01DD082A8E
:1031B00003DB2022FFF7A8F904E0082208C9521E09
:1031C00008C0FBD12035202E01D2304600E020205F
:1031D000A080301A7F1E24683F0486B23F0CE0D1E5
:1031E000F8BD704770B50D4D044601232868D9021B
:1031F000401890261A4640693146FFF71DFF01002E
:1032000003D030464C60FFF775FF49202968400124
:103210000918087A401C087270BD0000AC0000203C
:1032200010B50B4601784906CA0F811C184600F0FC
:1032300070F810BD1206130A1A43130C1A4300BF8C
:10324000094205D0830707D00270401C491EF9D1FE
:10325000704700000022FFE71300103906D330B496
:103260001400150010393CC0FCD230BC490700D313
:103270000CC000D504C0890002D30280801C002944
:1032800000D5027070477047A446521E08D30378D9
:103290000C78401C491CA342F7D0181B64467047A9
:1032A000002064467047F0B54488491CA4B2E5B2DA
:1032B000A40809B21C808EB287883619BE4204D990
:1032C000A6B2891B6D1C09B2EDB2A4002418083403
:1032D00014601C88AD076418A400AD0F2C43A4B281
:1032E0001C800388E31A9C07A40F012C02D803D189
:1032F000002B01DD00230AE00123002907DA116811
:103300008C78A408A400641C8C70083010601846E7
:10331000F0BD70B5044616460D460846FEF7BFFDE3
:103320002060281DFEF7B6FD31044018606070BDB6
:10333000F1B5FFB093B00C001500EFF310801890BA
:1033400072B600209F49087000F0DAFB060092A8D0
:10335000007800F02FFC6946087092A8007800F011
:1033600055FD92A90978884200D908006946097874
:10337000814200D901008E4200D90E0068460670D5
:1033800091486946097889004018416D491C41659A
:103390006846007800280AD068460078012807D1DE
:1033A0008A48007A0021894A117230BF10727BE38B
:1033B00068464470E148057068464078DF49087106
:1033C00001A800F065FDDD48007A6990804800881A
:1033D000689080480068679000208AAB7E4F81002B
:1033E0007A585A50401C0828F9DB7C48C06966901E
:1033F0007B48806965908025ED0528686490686841
:103400006390A8686290E868619028696090686934
:103410005F90A8695E90E8691C90E86A5D90286BEF
:103420005C90686B5B90288F5A90686C59906D48DF
:10343000006858906B48007C57906A48008B569003
:103440006848007F55906848007854906648406806
:1034500053906548007A5290634880895190624841
:10346000007F5090614800784F90604800794E90FE
:103470005E48007A4D905D48007B4C905B48007C34
:103480004B90C54800684A90C34840684990C2487C
:10349000007C4890C048007D4790C0480078469026
:1034A000BE4880884590BD4880684490BB4880896C
:1034B00043900022BA4C1005011990000B6816AE1B
:1034C00033504B6814AE33508B8B12AE33500B8C91
:1034D00010AE33508B8C0EAE33500B8D0CAE335080
:1034E000CB6A0AAE33504C23CB5A08AE33504C3122
:1034F0004B6806AE3350C96804AB1950521C012A00
:10350000D9DDB020000600684290A64800684190CE
:10351000A44840684090A34880893F90A148008A11
:103520003E90A04840693D909E48007E3C909D485A
:10353000808D3B909B48006B3A909A48406B399045
:103540009848806B38909748C06B37909548006CCE
:1035500036909448406C3590934800883490924857
:10356000808833909048007B32908F48007C319067
:103570008D48808A30908C48007E2F908B48008840
:103580002E908A4880882D908848007B2C90874810
:10359000007C2B908548808A2A908448007E299060
:1035A0008348006828908248406827900748006850
:1035B00026900648007A25907E480068002817D19A
:1035C0007D4816E00C000020CC0200200000704076
:1035D0000400104000E100E000E400E004ED00E041
:1035E000080090400C0030402C003040500030402B
:1035F00000201B90002271481A90142050431A9901
:103600004018910043687AAE7350036882AE7350DD
:10361000836872AE7350C0686AAB5850521C082A57
:10362000E9DB8120C005406824908120C005007B33
:1036300023908120C005408B22908120C005008B03
:1036400021908120C005406A20908120C005806AB9
:103650001F908120C00500881E90594800681D9069
:1036600068460078032806D156480068C0218905BD
:1036700001435448016000215348006850381990B4
:10368000CD4A10651046026D13688E008351491CA7
:10369000121D02651429F6DB2848007927490978AC
:1036A0002A68520A514088436ED101A8407800012F
:1036B00001A989780143112904DD002043490860EC
:1036C00000F0D2FC3F48006841490860012000F04A
:1036D000F9FD00F005FE002000F0F4FD3D4E3E48EF
:1036E0000078002800D081E03C480068400636D4CD
:1036F0003B480268394B19685140C948394C246825
:10370000056AAC421FD11B689A4203D0C54A1268B1
:103710000A4018D1344909688022520513000B4031
:103720000468224093420ED18022D20411400068E6
:103730000240914213D01E4802E000BF000020402A
:10374000006880070BD51F49C8680209D01C802378
:103750005B03984219D2CA6812098242FBD301A8BE
:103760004178090180780843112805DD012000F027
:103770007BFCD1481549086068460078032803D1CE
:10378000104801680E4006608EE1C8680009CB4B06
:10379000D3189842F9D1E2E70000404024004040AD
:1037A0000000A0400400F0400400D0400400E040CD
:1037B00010E000E0000C704051E5CC1A080000A0B9
:1037C000080000C004000048000804101400002095
:1037D00018000020FFFFFFCF0C00002000E200E0F7
:1037E000B8000020B4000020280000200120B449C7
:1037F000088200208880886000226F491998086537
:10380000086D9300CB580360521C001D0865142AF4
:10381000F6DB6898AB490880679882490860002009
:1038200081008AAA52587A50401C0828F8DB669812
:103830007B49C8616598A449886164982860639849
:1038400068606298A8606198E8605E98A8615F9877
:103850006861609828611C98A8621C98E8615D986E
:10386000E8625C9828635B9868635A98288759983F
:103870006864964858990160579901745699018374
:1038800055990177203054990170539941605299AC
:103890000172519981815099017724304F990170BB
:1038A0004E9901714D9901724C9901734B990174B4
:1038B00087484A990160499941604899017447993C
:1038C0000175243046990170459981804499816041
:1038D00043998181002210050119900016AB1B58F5
:1038E0000B6014AB1B584B6012AB1B588B8310AB97
:1038F0001B580B840EAB1B588B840CAB1B580B85D1
:103900000AAB1B58CB624C3108AB1B580B8006AB83
:103910001B584B6004AB1858C860521C012ADADDF2
:103920004298B021090608606A492798486000203B
:103930008860289A0A606849419A0A60409A4A60F9
:103940003F9A8A813E9A0A823D9A4A613C9A0A7657
:103950003A9A0A63399A4A63389A8A63379ACA63E9
:10396000369A0A64359A4A643B9A8A855B49349A46
:103970000A80339A8A80329A0A73319A0A74584AB2
:10398000309B13408B822F9B0B7656492E9B0B80CE
:103990002D9B8B802C9B0B732B9B0B742A9B1A40AB
:1039A0008A82299A0A765049269A0A60259A0A72CA
:1039B0001B994E4A02E000BFCC0200201160142186
:1039C00041431A9A891882007AAB9B584B6082ABAC
:1039D0009B580B6072AB9B588B606AAB9A58CA605D
:1039E000401C0828EBDB8120C00524994160239905
:1039F00001732299418321990183209941621F9982
:103A000081621E9901801D98394908602E4800780E
:103A1000002834D168464078002830D0284803E098
:103A200004ED00E000E100E0018809220A40092AD3
:103A300002D1E96989051FD4018811220A40112A9F
:103A400002D1E969490517D4018821220A40212AB7
:103A500002D1E96909050FD4018841220A40412AAF
:103A600002D1E969C90407D4008881210140812974
:103A700005D1E869800402D501201E490860684626
:103A80000078032803D11C4801680E40066069983D
:103A90001A49087268460078032801D1012100E024
:103AA0000021002000F000FB189880F3108800200F
:103AB0007FB014B0F0BD0000CCBCECFC0400F0FF03
:103AC0000800104804001040080090400C003040EE
:103AD0000000404010E000E00400F0400400D0404E
:103AE000BFFF00000400E04000007040000C704088
:103AF000080000C000E200E0040000480000204090
:103B0000F8B5294D002029680A4640321378D27949
:103B1000934347D14A6E120E44D13E22525C002A92
:103B200040D1431E21488D6A467A1A460024F60089
:103B3000AD190926F606376900887D1907070120A7
:103B4000002F06DAC302CB181C6F631B1B021B126B
:103B500028D407273F02C919496ACF0103D54A1B58
:103B6000120212121ED401252D07002B06DA002A9C
:103B70000ADA75600E48856003200AE0112000060D
:103B800004437460002A03DB2943084600F0F6FB77
:103B900002200549096840314A78002A02D00020F5
:103BA00048700320F8BD0000AC000020C0000020D9
:103BB00040000048032070471FB50421012000F099
:103BC00005FC0100804C03D0200000F003FCFEE760
:103BD00000F014FC002805D001002000303000F077
:103BE000F9FB02E090A000F0F5FB02A80190801C18
:103BF000009003AB08220021012000F003FC002804
:103C000005D001002000543000F0E4FB1FBD00BFD0
:103C10008DA000F0DFFB1FBD18B58FB000F0D6FA05
:103C200000F008FCE120400200F015FC674CBE20CB
:103C30004000201800F068FC010005D08A204000F8
:103C4000201800F0C7FBFEE7002000F07DF8002000
:103C500000F088FC012000F085FC022000F082FCCE
:103C6000FFF7AAFF00F0BAF8594800F095FC0021D0
:103C7000002000F079FD0021002000F08AFD0121E4
:103C8000002000F09FFD0121002000F0B1FD002187
:103C9000002000F0D3FD0221002000F01FFE402193
:103CA000002000F071FE0121002000F046FE0021FE
:103CB000802000F00BFF07A86BA12022FFF7C4F8BB
:103CC0000021002000F00EFF002802D0010020009B
:103CD00024E02000303000F07DFB002006900590AD
:103CE000049003900290019000900023A022A02154
:103CF000032000F002FF002803D0010020005C3008
:103D00000CE020008C3000F065FB07A91E2000F0BD
:103D100015FF002805D001002000B83000F05AFB44
:103D200003E02000E83000F055FB00BF56A1A420BE
:103D30004000201800F04EFB00F00CFF0022002194
:103D40000320FFF7F5FAF7E73EB50400012108026A
:103D500000F042FF0121080400F03EFF002001F0C6
:103D600004F81C4D0021280001F072F8002000F03A
:103D7000E3FF8020000418490860042001F07DF86A
:103D8000022001F07AF800F091FF280001F024F8F9
:103D90000021012001F067F8012000F0F3FF01206D
:103DA00001F000F8052C0ED10020694608700522AC
:103DB0004A7002220A71CA708870684600F07DFF5E
:103DC000012000F0B9FF37BDFC040510ECF8041029
:103DD000801A0600080000A080E100E0E0B50121A3
:103DE000012000F0F9FE684600F06AFE8020009095
:103DF000684606210171002181710121417100F0A5
:103E0000F7FD0021802000F061FE07BD80B500F0C5
:103E10004FFB002803D100F050FB002801D0002008
:103E200002BD032002BD00006163695F67617474B5
:103E30005F696E69742829202D2D3E205355434318
:103E40004553530D0A0000006163695F6761705F4D
:103E5000696E69742829202D2D3E20535543434512
:103E600053530D0A000000000201061AFF30000241
:103E700015E20A39F473F54BC4A12F17D1AD07A988
:103E80006100000000C80000312E312E300000001B
:103E90000F21114A13681B090B4043701368194026
:103EA0008170D268426001210C4B9A4208D10C4AC1
:103EB00012680C4B9A4201D1042202E0022200E077
:103EC000012202704278002A00D141700649098817
:103ED000491C8900816070471C00904041A000028D
:103EE0001C00001044A000F2140010407FB5040034
:103EF0000D0016006846FFF7CBFF68460178217079
:103F000041782970807830707FBD704710B5C2004D
:103F100018231340FF249C40E2438907090E99406F
:103F2000030004D55D481B071B0F083B00E09F48BA
:103F30009B089B00C01803681A401143016010BD24
:103F4000FEB501245648017801220A43027000267A
:103F500054480660032500F049FE6946088068461B
:103F60000088002801D16D1EF5D168460088202800
:103F700036DB684600880125400525D46846FFF7F2
:103F800087FF68464178090180780843122800DAE3
:103F9000002587480068000705D4002D14D00120B3
:103FA00000F062F810E0834FF868834E3168081A19
:103FB000283800020012002806DD002D02D0012062
:103FC00000F052F8306838607C48047000F0B1F9B5
:103FD000BFF34F8F7A487B490860BFF34F8FFEE7EE
:103FE0000120FEBD10B500220021A44804E00B0012
:103FF000415C5918491CC9B2435C002BF7D1CB1C5A
:10400000202B12DA0223435421234418637008231F
:10401000A3704318DA709A4A80235B02401880B27A
:104020001843106010681840FCD110BD70B5002115
:104030000023924A04E01C00D35CE3185B1CDBB253
:10404000D45C002CF7D102253524DE1C202E05DAA5
:10405000D554D6187470B070D218D170894A1570C2
:1040600054709070D17070BD70B580214902854B3D
:104070009CB20C43824A002804D0146010680840A7
:104080000AD0FBE798789D78FB262E409E7014603E
:1040900014680C40FCD1987070BD00001CED00E06D
:1040A0000800204014000020F2B58AB0040003A8E4
:1040B0007DA11C22FEF7C8FE6846FFF7E9FE704DA1
:1040C0000126002C58D003A8442181736E490A7838
:1040D000012313430B704C21C17220210172B221C4
:1040E00041745B21017569498B6B694A1C0C9442D0
:1040F00009D1C47D8F272740C775C47D1B01702758
:104100001F402743C7754B6B1C0C944209D144795F
:10411000CF272740477144791B0130271F40274391
:10412000477109680B0C934208D1C27DFC231340F0
:10413000C375C27D8907890F1143C175C17AFB22FE
:104140000A40C27269464A7812018C781443112CD5
:1041500006DDC17D04220A43C275C07DFFF766FFFC
:10416000300403A989B20143296029680140FCD1C8
:10417000112C01DDFFF736FF134988890028FBD099
:104180000AA800788E8117220A8000224A6000283F
:1041900007D0686810216A680A40102303409A42D9
:1041A000F9D03C483C4908600BB0F0BD00E400E0A9
:1041B000C000002004000048180000200C0000206F
:1041C0000400FA050CED00E00C00104880B5082052
:1041D0003249088003210120C043FFF797FE0321E5
:1041E0000020C043FFF792FE03210020FFF78EFE60
:1041F00003210120FFF78AFE03210420FFF786FE3A
:1042000003210520FFF782FE00210620FFF77EFE36
:1042100003210720FFF77AFE03210D20FFF776FE2A
:1042200003210E20FFF772FE03210F20FFF76EFE21
:1042300003211120FFF76AFE03211220FFF766FE1B
:1042400003211320FFF762FE03211420FFF75EFE17
:1042500003211520FFF75AFE03211620FFF756FE13
:1042600003211720FFF752FE01210120FFF71CFF59
:104270000B480C49086062B601BD000064030020D1
:104280000C0000481C00002008002040B00700106F
:1042900055AA0000CCBCECFC140000200400104027
:1042A00066000E0020009040023F00023E30023CBB
:1042B00020023B4C023A400239B202345B02350B19
:1042C0000000000005490028086803D004220243CA
:1042D0000A607047042290430860704710ED00E0C8
:1042E000EFF31482EFF30981002080F31488BFF309
:1042F0006F8FF0B543464C4655465E466746F8B468
:10430000164CEFF30883236006B4154C2068154C57
:104310002060154C2068154C2060154C2068154C09
:104320002060154C276800202060BFF34F8F30BFFE
:1043300027600A4C246884F3088882B003BCF8BC68
:104340009846A146AA46B346BC46F0BC04BC80F3DE
:10435000098881F31488BFF36F8F1047080000208D
:1043600004ED00E02800002024ED00E0B40000206F
:1043700000E200E0B80000200800204030B5EFF374
:10438000108172B60922D2061269FF25821A120222
:1043900014120C4A91351368AC4208DC0122120653
:1043A00090431A464032D479DF252C40D471C201A3
:1043B0000724D20924021B195A62034A906081F330
:1043C000108830BDAC0000204000004810B500F05F
:1043D00069FD10BD0EB4C0B5020003A80190002015
:1043E000009001AB0121044878440C3000F07CFDC2
:1043F000029906B0084700BFF7D2000010B501F0DF
:1044000033F810BD7CB5069D079C002805D08607B3
:1044100005D1460703D4060701D442207CBD0029FC
:1044200003D0012901D00229F7D10095019401F0B0
:10443000E5F87CBD02200149087070478803002020
:1044400010B50400202001F081FA0128FAD02000E4
:1044500001F077FA10BDF0B585B007000121092001
:1044600000F0BAFB8020400000906C4601252571C9
:104470000026A6716671684600F0BAFAE80200905C
:104480002571684600F0B4FA0297032002A908716A
:104490004871CE804E7208728D7202A801F0B8F990
:1044A000002001F061FA012001F0A6F905B0F0BD8D
:1044B00080B5802001F04AFA22E080B5082001F0A2
:1044C00045FA012800D0002002BD70B50024012863
:1044D00004D0022802D00020C04370BD002901D1C1
:1044E000002070BD0D00160004E02878FFF7A8FF3B
:1044F0006D1C641C3000461E0028F6D1200070BDE3
:10450000401E8041C00F02BD10B5837F01220024F0
:1045100092024168082B03D94224914202D310E051
:10452000914201D242240CE0014634220648FEF7B3
:1045300077FC01F039FA002801DA482401E001F0A3
:1045400071FA204610BD000030030020012802D07F
:10455000022803D004E08020C0017047012070478A
:10456000082070471CB504000121012000F034FB35
:104570002000FFF7EBFF0090684606210171002143
:1045800081710121417100F033FA2000FFF7DEFF55
:10459000012100F09BFA13BD78B585B0040001211C
:1045A000654800F019FB1020009004256E46357117
:1045B0000020B0717071684600F01AFA2020009057
:1045C0003571684600F014FA02A801F0F9FA0120EA
:1045D00002A908710294594C200001F097FA584939
:1045E000200001F01DFB002006B070BDFCB583B0BB
:1045F00006001700002568460580418085808021DF
:104600004901C180890001816946097C491C4181B9
:104610004A4C200001F0EFFA200001F0F1FA0128E5
:10462000FAD06946200001F0D3FA3900FFE72000F4
:1046300001F0DDFA37006846067C04E0395C2000B2
:1046400001F0D5FA6D1CE8B2B042F7D3200001F0BA
:10465000E9FA03280CD080210903200001F0D8FAE0
:104660000028F3D03749200001F0DAFA002000E0FA
:10467000012005B0F0BDFFB583B000266C46268052
:104680006846007C6080A68080204001E080268112
:1046900001276781294D280001F0ADFA280001F0BB
:1046A000AFFA0128FAD06946280001F091FA68466D
:1046B000017D280001F09BFA280001F0B3FA0328DD
:1046C0002CD03907280001F0A3FA0028F4D03907CC
:1046D000280001F0A5FA27806846007C6080A6804B
:1046E0003803E080800020816846007E6081694652
:1046F000280001F06DFA039E6846047E280001F050
:1047000091FA03280AD0F904280001F081FA002860
:10471000F4D00C49280001F083FA06E0012009E0FA
:10472000280001F066FA3070761C2000441EC0B2EA
:104730000028F5D107B0F0BD010400000000A04042
:104740007F809F730000081080B51000DBB20A0064
:104750006B21FFF790FF02BD80B51000DBB20A00AD
:104760006B21FFF743FF02BD38B505000C000123A4
:104770006A461021FFF7E8FF684600780007000F3F
:10478000210101436846017001236A46102100F0AF
:1047900015F838B505000C0001236A461121FFF712
:1047A000D3FF684600780007000F210101436846E7
:1047B000017001236A46112100F000F82800FFF77C
:1047C000CBFF32BD38B505000C0001236A4612212B
:1047D000FFF7BAFF68460078EF2101402001102260
:1047E000104008436946087001236A461221E5E734
:1047F00038B505000C0001236A461221FFF7A4FF1B
:1048000068460078DF210140600120221040084303
:104810006946087001236A461221CFE780B510006F
:10482000DBB20A005D21FFF726FF02BD80B5100054
:10483000DBB20A005D21FFF7D9FE02BD38B50500E5
:104840000C00012300AA521C1021FFF7E7FF0028EB
:1048500005D101236A4611212800FFF7DFFF002858
:1048600010D1684640788F2101402001702202401B
:104870000A4368464270012300AA521C10212800F6
:10488000FFF7D4FF002812D168460078FC210140D0
:10489000E008022210402207D30F03430B4368466F
:1048A000037001236A4611212800FFF7BFFF32BDC4
:1048B00080B51000022B02DB0A0080211143DBB21D
:1048C0000A0007E080B51000DBB20A001E21FFF7E6
:1048D0008DFE02BD1E21FFF7CEFE02BD38B50500DC
:1048E0000C0001236A466021FFF7E2FF684600786A
:1048F000FC210140A007800F00E0104008436946FA
:10490000087001236A4660212800FFF7DBFF32BDF3
:1049100080B51800022A02DB0B0080211943D3B2B4
:104920000A005F21FFF7A7FE02BD80B51800D3B2D1
:104930000A005F21FFF75AFE02BD38B505000C00E2
:1049400005D0012C03D022490E4800F043F86B46F5
:10495000012220212800FFF7DBFF00280FD1684645
:1049600000784006400EE1010143684601706B4645
:10497000012220212800FFF7D8FF002800D00120C5
:1049800032BD0000EC07051038B505000C0005D05D
:10499000402C03D01449134800F01CF86B46012248
:1049A00022212800FFF7B4FF00280ED168460078C6
:1049B000BF2101400C43684604706B46012222214E
:1049C0002800FFF7B2FF002800D0012032BD000010
:1049D0006102000080B50A0001000448FFF7FAFCFC
:1049E000FEE70000EC07051039030000300D05104C
:1049F000F0B5047922000021384B002C04D11C684A
:104A00000568AC431C6006E0062C04D100221C683B
:104A1000056825431D600568CD40ED0738D5082998
:104A200009DA8D009E6A0F27AF40BE431700AF40E2
:104A300037439F622CE00D00083D082D0BD20D007E
:104A4000083DAD00DE6A0F27AF40BE431700AF4000
:104A50003743DF621CE00D00103D082D0BD20D0026
:104A6000103DAD001E6B0F27AF40BE431700AF4097
:104A700037431F630CE018290ADB0D00183DAD0019
:104A80009E8E0F27AF40BE431700AF4037439F862F
:104A9000491C1A29BFDB01684279012A9A6802D1B0
:104AA0001143996001E08A439A6001688079012886
:104AB000586802D101435960F0BD88435860F0BD89
:104AC000002101600171817141717047044A01291F
:104AD00001D1106070475060704700000400004032
:104AE0003C00004010B50A461F2801D9122010BD15
:104AF0000146104601F0A6F810BDFFB587B0109D25
:104B0000159E169C01930295009407A807C81F469E
:104B1000334601F0C5F800280ED11398149903AA62
:104B2000069443C21198129901900095029107A82A
:104B300007C83B4601F0E2F80BB0F0BD10B50A46DD
:104B40001F2801D9122010BD0146104601F0F2F8CD
:104B500010BD704770B501F029F91D4C0125206882
:104B6000ED0241190979002909D1A0300079C00767
:104B700027D001F0A9F901F0DDF901F0E9F901F020
:104B80006DFA2068014640310A78C9798A4317D105
:104B90003E21095C002913D10E490A8812070FD55E
:104BA0000922D2061269497A836A4019006FC90046
:104BB000801A000259180012814201DA01F0B0FA9D
:104BC00070BD01F059FB01F077FB01F043FCD2E727
:104BD000AC000020C0000020304A0129116802D139
:104BE0000843106070478143116070472C48027879
:104BF0002C4801880020002A44D109220A40092AB1
:104C000000D1202011220A40112A02D102004020A6
:104C1000104321220A40212A02D1020080201043A1
:104C200041220A40412A03D1020080204000104363
:104C300081220A40812A03D1020080208000104393
:104C4000FF22921C13000B40934203D102008020EC
:104C5000C0001043144A13000B40934203D10200DA
:104C600080200001104305220A40052A02D10200DB
:104C7000102010438907890F03290ED10100082055
:104C800008437047022A01D101207047042A01D14C
:104C900002207047082A00D104207047200090406D
:104CA0000800904008001048010400008120C00561
:104CB000018808220A430280704710B53F490A68FC
:104CC000C0239A4303789B01C0241C4014430C600A
:104CD00042780F2A0A6804D18023DB0313430B6058
:104CE0000BE0374B13400B600A680E239A4343785E
:104CF0005B000E241C4014430C600A6830239A4366
:104D000003791B0130241C4014430C608278082A6C
:104D10000A6803D180231B01134301E0294B134090
:104D20000B600A68284B1340C0780002C022920032
:104D300002401A430A6010BD8121C90501280FD124
:104D40004A68920D024003D008888022520009E090
:104D50000A88042313430B800A8810430880704795
:104D60000888102202430A8070478121C905012862
:104D7000088803D180229200024301E0134A0240D6
:104D80000A8070478121C9050128088802D10222C2
:104D9000024305E0402202430A8008880C4A024090
:104DA0000A8070478121C9050128088802D1802224
:104DB000024301E0074A02400A8070470400804035
:104DC000FFFFBFFFFFF7FFFFFFFCFFFFFFFD00003E
:104DD000FDFF00007FFF0000016801229143016098
:104DE0000021016041608160C1602549254A9042EF
:104DF00002D10868F02228E0234A904203D10868D3
:104E0000F022120121E0214A904203D10868F022E9
:104E100012021AE01E4A904203D10868F0221203DF
:104E200013E01C4A904203D10868F02212040CE0FF
:104E3000194A904203D10868F022120505E0174A8A
:104E4000904204D10868F022120602430A607047BB
:104E50000029016803D001220A4302607047012241
:104E60009143016070470E4A0029117802D008432F
:104E70001070704781431170704701490860704796
:104E8000040000A01C0000A0300000A0440000A00E
:104E9000580000A06C0000A0800000A0940000A0BA
:104EA0002400904010B5012818D8072916D80C4ABC
:104EB000126813462033187759778007C906000E09
:104EC000090E01430020074BA03204E08401E418DE
:104ED000A172401CC0B2147B8442F7D8002010BDE0
:104EE000AC00002000010020F8B596B005001700C6
:104EF0001E001C98049103A92B22885400200A90BC
:104F000002950E9700960EE0252912D00498029A79
:104F100090470490002800D1D2E00A98401C0A90E3
:104F20000E98401C0E900E9801780029ECD10A983A
:104F3000C8E00020079008900990022608210191FE
:104F4000012404210E9D00E020436D1C2A78202AB4
:104F5000FAD0232A0AD02B2A04D02D2A04D0302AB2
:104F600008D00AE03043F0E70843EEE702000820EB
:104F70001043EAE702001020FAE72A2A0ED1009A2D
:104F800017683A683F1D009B1F600C92002A03D5EA
:104F900053420C93014308006D1C14E000210C9156
:104FA000004A0BE0CBCCCC0C0C9B934205DA9F0063
:104FB000FB185B00591830390C916D1C29780B00D7
:104FC000303B0A2BF0D329782E2903D00021C94386
:104FD0000B9127E06D1C29782A2908D100990968CE
:104FE0000A68091D009B19600B926D1C1AE02D299F
:104FF00002D12D236D1C00E0002300210B910CE059
:10500000002B09D10B9ABC4FBA4205DA9700BA18A7
:105010005200511830390B916D1C29780A00303A32
:105020000A2AEDD303A908852F783900B3A001F02F
:10503000DFFA002801D038006D1C03AF2A21785414
:10504000785C682805D12878682802D162207854D5
:105050006D1C10A806902A78681C0E90252A15D081
:10506000582A52D0632A00D1BCE0642A00D17FE0E4
:10507000692A00D17CE06F2A47D0702A3AD0732A7F
:1050800008D0752A41D0782A3FD0B5E0079410A9FE
:105090000A70BAE0009800680468001D0099086072
:1050A0000594002C13D12B20385C00280CD0002450
:1050B000E44300BF93A001F0A5FA201A00D1A4E0B8
:1050C0000020C04317B0F0BD95A005909DE00B9D5A
:1050D000002D03D5200001F0B9FA09E02A000021D3
:1050E000200001F0BBFA002801D0001B00E02800DE
:1050F00008908AE0009800680168001D009A10601E
:10510000039110A80590782168E0785C622803D0AC
:10511000682809D06C280FE0009801680868091D0C
:10512000009B1960C0B20DE0009801680868091D75
:10513000009B196080B205E0009801680868091DAD
:10514000009B19600390388D0199C0B2084240D08D
:10515000039800283DD020201043782839D10798A3
:1051600010A930230B54401C431C07930A5430E011
:10517000785C622803D0682809D06C280FE000987A
:1051800001680868091D009B196040B20DE0009895
:1051900001680868091D009B196000B205E00098CD
:1051A00001680868091D009B19600390002802D55A
:1051B00007982D2109E0388D304202D007982B2125
:1051C00003E0C00705D50798202110AB1954401CF7
:1051D000079010A8079940180590110003A800F047
:1051E000A0F812E00794009800680168001D009A7A
:1051F000106010A8017008E00794252010A908701D
:10520000100002D0079610A842700C980799401A17
:105210000999401A0899401A0F902820385C4007D5
:1052200013D42020694608710F9800280DDD0F9CCB
:10523000029D012301AA03A9280000F0FAF8002822
:1052400000D03DE7641EF4D10295079D10AC002DFF
:105250000ED0029E227803A9300000F0D9F8002871
:1052600002D4641C6D1EF5D10296002800D027E7F9
:10527000302069460871099C002C0CDD029D012339
:1052800001AA03A9280000F0D4F8002800D017E7ED
:10529000641EF4D10295059C089D002D0ED0029E3F
:1052A000227803A9300000F0B3F8002802D4641C6F
:1052B0006D1EF5D10296002800D001E72820385C49
:1052C000400700D42FE62020694608710F98002877
:1052D00000DC28E60F9C029D0E9F009E012301AA80
:1052E00003A9280000F0A5F8002800D0E8E6641E15
:1052F00000D105E6F2E70000CBCCCC0C686C747AE8
:105300004C0000007072696E74665F733A206261CF
:105310006420257320617267756D656E74000000EE
:105320000000F0B583B00A00C4686F2901D10825D8
:1053300006E020211143782901D00A2500E010253C
:10534000182701680E00642A01D0692A03D10029B8
:1053500001D571420E00002E0CD1016A002909D13D
:10536000082D31D12821415C09072DD5172730217F
:10537000E17529E00290684602707F1E01973000B7
:10538000290001F076F93031C8B23A2803DB6846CB
:10539000007851380918E1553000290001F069F909
:1053A000060004D002988068E1198842E5D302988B
:1053B000082D09D12821415C090705D5E15D302977
:1053C00002D07F1E3021E1551821C91B4161E2192D
:1053D0008260026A914206DA511A8161018D0B4A9C
:1053E0000A40028510E0002A0ED52822825C142390
:1053F0001340102B08D1426A0369D21A8369D21A6A
:10540000511A012900DB816103B0F0BDEFFF0000FC
:1054100010B503000C001100606898476060002818
:1054200004D0E069401CE061002010BD0020C043B2
:1054300010BDF8B50024002B11D007000E00140099
:105440001D0021787068B8477060002809D0F069A5
:10545000401CF0610020641C6D1EF2D1040020008D
:10546000F2BD0020C043F9E7F0B55FA099B0006835
:105470005E4915905E4A0868841809221202821853
:10548000526B2546403514922A7AD20702D0622008
:1054900019B0F0BDAA8B01235B029A4201D9AB83FC
:1054A00003E0172A01D21722AA83149AA03013927C
:1054B000067B0DE0761EF6B2139871010F18B868DE
:1054C0000F90384620220021FDF7B0FC0F98B860FD
:1054D000002EEFD120460830E0606460A0602460B8
:1054E0000830139060612061FF220021083001F034
:1054F00017F92046FF220021243001F011F920463F
:10550000AA7F0021303001F00BF92046FF22002154
:105510003C3001F005F900222A7210461721334B66
:1055200005E0149E4701BE19401C7180C0B21E6880
:10553000A036367B8642F4D8002028832F8C688CD6
:105540000026149008E02820E16C704309182046DA
:1055500001F0EEF8761CB6B2BE42F4D3002608E0A5
:105560003020216D70430918139801F0E1F8761C82
:10557000B6B214988642F3D3012001F0E1F8012479
:10558000684604701B4941802346042269460CA8E2
:1055900001F0E2F8002822D16846018E8182164986
:1055A0000183042606858475202108A881720024C1
:1055B000C472047307214173847305A90DA801F017
:1055C0007BF900280BD1684604874687818E15AB8E
:1055D0000EAA008E01F00EFB002800D158E7002033
:1055E0002872472054E700000000FFFFAC000020B5
:1055F0002C07000001180000052A0000FFB50C462A
:1056000078A103C995B001910090002108A8017309
:105610000321C90268464186012108A8734E01741E
:1056200035681746AE3501F019FB002808D17049DE
:105630003068401801F0A6FBA878002802D0462068
:1056400019B0F0BD0BA8159901F0A6FB0028F7D101
:10565000072010A90871012C05D0022C0AD0002CBB
:105660000ED04220ECE708A8017B1020014308A8D7
:10567000017305E011A90BA801F09CFB0028DFD104
:1056800010A8027901230CA9284601F065F800282A
:105690007ED1022229461898FDF7C2FB2988684668
:1056A00081811521490201820784012686734E21DA
:1056B00008A881700024C4700671072141718671A9
:1056C00003A902A801F0F8F8002861D1022202A97A
:1056D0001E98FDF7A5FB082F02D26846478502E019
:1056E00008206946488569460C850B4628880AAA21
:1056F000098901F07FFA00286DD13E496846018290
:105700000227078408A8847103A902A801F0D4F82D
:10571000002860D1022202A91F98FDF781FB68468C
:105720000470694644704F850B4628880AAA098987
:1057300001F060FA00284ED108A8007BC00723D0F2
:105740002C496846C91C01820821018408A8877079
:10575000047103A902A801F0AFF800283BD1FF2192
:105760006846C1718171C17081704170017044716E
:1057700004716946082048850B4628880AAA0989C9
:1057800001F038FA002826D108A8007B800600E046
:1057900021E022D52988684681811649A5310182F8
:1057A0000684867308A88770C4700471072141714C
:1057B000847103A902A801F07FF800280BD1694683
:1057C0000E700C854E850B4628880AAA098901F0BF
:1057D00011FA002801D0472032E708A8007BA87002
:1057E00000202DE7626C75656E726721AC000020A9
:1057F000EF060000012A000061490028086803D074
:10580000012202430A6070470122904308607047FA
:10581000F0B50400216801255A4E5B487269D20830
:105820002A4001D1090100E0C90000F022FFC109AE
:1058300031810904490A401A401C400881B23F29BD
:1058400002DD3F388006800E307360209F21327C5D
:105850000A4023795B0103401343337432781140CB
:10586000627952011040084330700821F720327CE1
:105870000240A379DB0008271F40174337743278B2
:105880001040A279D200114001433170E179002922
:1058900007D1FD20317C01403174317808403070EF
:1058A0001CE002200229317C0BD101433174FB2121
:1058B000327C0A40327432781043307030780140C4
:1058C0000BE0014331740421327C0423134333740D
:1058D00032781043307030780143317070692B4951
:1058E0000140207A284040020843706170692849CD
:1058F0000140207A40082840000208437061706926
:1059000024490140607A284080030843706170692F
:1059100021490140607A40080540E803084370616E
:105920001020EF21327C0A40A37A1B01034013436D
:10593000337432781140A27A12011040084330705B
:10594000F0BDC005C00D154908807047010014481E
:10595000002901D5006800E0808AFFE701400800C7
:1059600000D00120C0B270470E490A78C723134007
:10597000C0003822FFE702401A430A707047000057
:10598000300030401C0030400000127AFFFDFFFF65
:10599000FFFEFFFFFFBFFFFFFF7FFFFF0000304064
:1059A000040030403400304070B50025ED43FBF773
:1059B00089FB01282FD0002318490322888BFF245C
:1059C000401E10438A7F513462438218088B28247A
:1059D00060431218488B3024604312180846203068
:1059E00040782C24604310180D4A18188418486910
:1059F000A0420ED11320C00184420AD90D69FBF7E1
:105A000061FBC1B2284601F0D7F901F007FB401B4A
:105A1000251A284670BDFF23B533CDE7300300209B
:105A200051190000F8B50626324840250560324875
:105A300000270780A9050920C00641602F4A916010
:105A4000016801602E48032104694269601E084311
:105A50003946401CFDF7EAF9FBF734FBC1B220469A
:105A600001F0AAF901F0DAFA01F0DAFA01F02CFB00
:105A7000244917208881244C206842190146577018
:105A8000FA2088622820107001F01FFB012805D140
:105A900020681022403001781143017001F017FB9B
:105AA000012805D12068802240300178114301701F
:105AB0002068014640300278324302700020C04323
:105AC000086601F007FB01F011FB01F041FB2068C3
:105AD000012120300177072141770120FFF7E2F90A
