:020000041004E6
:1000000000600020D5070410C1000410D7000410C0
:10001000AA5555AA45554C420000000000000000BA
:10002000000000000000000000000000ED000410CF
:10003000000000000000000003010410190104107A
:100040002F01041045010410000000000000000012
:100050005B01041071010410870104109D0104105C
:100060000000000000000000000000000000000090
:1000700000000000B3010410C9010410DF010410E6
:1000800000000000F50104100B020410210204100E
:10009000370204104D020410B30704106302041069
:1000A0000000000000000000000000000000000050
:1000B0000000000000000000000000000000000040
:1000C00080B56D4800686D49884203D008300068EB
:1000D000804701BDFEE780B56748006867498842F0
:1000E00003D00C300068804701BDFEE780B5624850
:1000F00000686249884203D02C300068804701BD07
:10010000FEE780B55C4800685C49884203D038301F
:100110000068804701BDFEE780B557480068574931
:10012000884203D03C300068804701BDFEE780B5BF
:10013000514800685149884203D0403000688047E8
:1001400001BDFEE780B54C4800684C49884203D0A9
:1001500044300068804701BDFEE780B5464800682E
:100160004649884203D050300068804701BDFEE711
:1001700080B5414800684149884203D05430006846
:10018000804701BDFEE780B53B4800683B49884297
:1001900003D058300068804701BDFEE780B536487F
:1001A00000683649884203D05C300068804701BD52
:1001B000FEE780B5304800683049884203D074308B
:1001C0000068804701BDFEE780B52B4800682B49D9
:1001D000884203D078300068804701BDFEE780B5D3
:1001E000254800682549884203D07C300068804754
:1001F00001BDFEE780B5204800682049884203D051
:1002000084300068804701BDFEE780B51A48006869
:100210001A49884203D088300068804701BDFEE754
:1002200080B5154800681549884203D08C300068B5
:10023000804701BDFEE780B50F4800680F4988423E
:1002400003D090300068804701BDFEE780B50A48C2
:1002500000680A49884203D094300068804701BD95
:10026000FEE780B5044800680449884203D09C300A
:100270000068804701BDFEE7100000200000041068
:100280000023DB4300E0001D884204D202689A424A
:10029000F9D0012070470020704738B505000C00E8
:1002A00003E0A8B200F07CF86D1CA9B28C42F8D231
:1002B00031BDF8B5324C334833490025334A136811
:1002C000002B02D10B68002B1CD0314B16689E42CC
:1002D00002D10E68002E15D016689E4202D10E681B
:1002E0009E420FD01668002E04D10E680027FF43EF
:1002F000BE4207D016689E421AD10E680027FF43FF
:10030000BE4215D1060023492348FFF7B9FF002854
:1003100007D0224804607C213F20FFF7BEFF1F4822
:100320000560301D0068316881F308888047FEE76A
:100330001668002E02D10E689E420DD00026F643AC
:100340001768B74202D10F68002F05D01768B7426F
:1003500010D10F689F420DD10F4E1139FFF790FF5A
:100360000028DED00D4F3C603E210120FFF795FFB5
:100370003D60D6E71068B04200D10868FEE7000093
:10038000CCBCECFC0008041010F805101008041098
:10039000AA5555AAFFE7071000F805101400002021
:1003A00008490968084A91420AD108493F220A814E
:1003B0004006000C886111200880088AC007FCD51F
:1003C0007047000014000020CCBCECFC0000104082
:1003D000FEB501243448017801220A430270002648
:1003E00032480660032500F073F8694608806846C5
:1003F0000088002801D16D1EF5D1684600882028AC
:1004000036DB684600880125400525D4684600F0A3
:10041000BDF868464178090180780843122800DA5F
:10042000002523480068000705D4002D14D00120C2
:1004300000F020F810E01F4FF8681F4E3168081ACE
:10044000283800020012002806DD002D02D001200D
:1004500000F010F8306838601848047000F0EDF8CB
:10046000BFF34F8F164817490860BFF34F8FFEE761
:100470000120FEBD70B580214902144B9CB20C4393
:10048000114A002804D01460106808400AD0FBE725
:1004900098789D78FB262E409E70146014680C405E
:1004A000FCD1987070BD00000800204014000020AE
:1004B000C000002004000048180000200C000020AC
:1004C0000400FA050CED00E00C0000481C000020C0
:1004D0002B4802782B4801880020002A44D10922A9
:1004E0000A40092A00D1202011220A40112A02D1F3
:1004F00002004020104321220A40212A02D102009A
:100500008020104341220A40412A03D1020080206A
:100510004000104381220A40812A03D1020080203A
:1005200080001043FF22921C13000B40934203D122
:1005300002008020C0001043134A13000B40934276
:1005400003D1020080200001104305220A40052A41
:1005500002D10200102010438907890F03290ED110
:100560000100082008437047022A01D1012070478A
:10057000042A01D102207047082A00D104207047C4
:100580000800904008001048010400000F21114AA3
:1005900013681B090B404370136819408170D268BF
:1005A000426001210C4B9A4208D10C4A12680C4B54
:1005B0009A4201D1042202E0022200E001220270EC
:1005C0004278002A00D1417006490988491C8900F7
:1005D000816070471C00904041A000021C00001088
:1005E00044A000F214001040EFF31482EFF30981ED
:1005F000002080F31488BFF36F8FF0B543464C465C
:1006000055465E466746F8B4164CEFF30883236000
:1006100006B4154C2068154C2060154C2068154C0C
:100620002060154C2068154C2060154C2768002070
:100630002060BFF34F8F30BF27600A4C246884F3DB
:10064000088882B003BCF8BC9846A146AA46B346C7
:10065000BC46F0BC04BC80F3098881F31488BFF366
:100660006F8F10470800002004ED00E024000020F8
:1006700024ED00E02800002000E200E05C00002003
:100680000800204070B40123002413E00168001D1D
:10069000194202D04D466D1E49190C60091D121FEA
:1006A000042AFAD20D00960701D50C80AD1C1A4021
:1006B00000D02C700268001D002AE7D170BC704782
:1006C00030B501684118446862088A188368E407F5
:1006D00004D54C461B1901E0641C06D191420BD095
:1006E0000C7864B2491C0D78491C1D705B1C002CF1
:1006F000F2D4641EF7D5F1E70C3030BD10B50749D0
:1007000079441831064C7C44163404E0081D0A680C
:10071000891888470100A142F8D110BD08000000E7
:100720006C00000061FFFFFF0400000008000020D3
:10073000040000000C000020040000001400002051
:100740000400000018000020080000001C00002029
:1007500004000000300000200800000024000020F9
:10076000040000005C0000200000000055FFFFFFB7
:100770007000000014000000C000002045FFFFFFD3
:100780006A0000000A00000010000020FFF720FEB1
:10079000002801D0FFF7B2FF00BF00BF002000BF5C
:1007A00000BFFFF786FD00F000F880B500F002F80A
:1007B00001BD70470746384600F002F8FBE700002D
:1007C00080B500BF00BF024A11001820ABBEFBE796
:1007D0002600020000BF00BF00BF00BFFFF7D6FF2A
:0F07E0008100810081008100F0000300000410FF
:04000005100407D507
:00000001FF
