:020000041004E6
:1008000000600020D3220510811F0510831F0510F2
:10081000AA5555AA45554C420000000000000000B2
:10082000000000000000000000000000851F05100F
:10083000000000000000000013270410871F0510AF
:100840008F1F0510F32904100000000000000000B5
:10085000911F051073340410991F051003520410E2
:100860000000000000000000000000000000000088
:100870000000000013540410EF590410835F0410AB
:10088000000000009F370410433804103744041060
:10089000674C0410374E041043640410DB5F0410EF
:1008A0000000000000000000000000000000000048
:1008B0000000000000000000000000000000000038
:1008C000F0B5FE48FE4E016841204001B2680C18A8
:1008D00085B0D00173D5204680300090806B817A3E
:1008E000EE2319408172304651030125C06800296A
:1008F00042DB510105D500200921C9064860357049
:1009000036E0510012D5C178491E0906090EC170A2
:1009100003D10922D2065160357041790A0627D5E4
:100920004906490E41718169416121E0E5490A4268
:100930000AD0214620318D70520202D503228A70DE
:1009400000E08D708169416101792246C1704032B9
:100950009179002908D00921C9068968A16400217C
:100960000223E1649377A16541794906490E4171FB
:1009700000204621085539E031698A89012149075B
:1009800052185288436B5218934209D19278142A14
:1009900006D1034640331A7DDF273A402A431A75B1
:1009A000806A408840187D210078095D0843C006B0
:1009B00006D4002009213570C906486010E082E2A3
:1009C000606D00F06FFB01460920C0060269236DCF
:1009D000D21A1202120A914202D2357000214160ED
:1009E000F06801220169D20391430161B2685002AB
:1009F00013D5306980890121490740184088401883
:100A00007061F1684B6B834207D180780D2804D167
:100A100001200B69000483430B613746002A48DA42
:100A20000098806B4188012040070818F861092070
:100A3000C0064069C00DC00708D0002009217D70A4
:100A4000C90648603D70A048B061F1E0F8684121F6
:100A50000069490108420AD000F048FB012829D06A
:100A60001C22F9694878024201D0001F4870F869D9
:100A70007D2201781155C94389071DD0F8680069A6
:100A8000C0036FD500F032FB01286CD01F20F9693C
:100A90004978084266D0002009217D70C906486067
:100AA0003D708948B861F8680121026909048A43E8
:100AB0000261BDE0FC22D4E7867841781A2E74D218
:100AC000824A925DFF2A70D08A426ED1022E14D0E3
:100AD000F9684A79D20659D4062E15D00A69D3038B
:100AE00027D5002009227D70D20650603D707648DF
:100AF000B8610A69001182435BE0F868406B0560E9
:100B0000F9682320487193E00122B86992031043E9
:100B1000B8616F4A086910401522520210430861FB
:100B20002046C030C17BBA7891422FD10821C173D1
:100B30007EE0002E18D0012E29D0032E2CD00A2EB4
:100B400034D00B2E37D0082E38D0092E39D00C2EA9
:100B50003AD002465F4B3146012000F0B7FA002838
:100B600066D149E05BE058E00A46214600F0C0FA51
:100B7000F8698179C079000208435749400240185A
:100B80005649896A814200D80846606550E00A46A5
:100B9000214600F0D1FA4BE0B86980231843B861D0
:100BA0004120000402430A6142E027E08920C0019D
:100BB00005E00A613CE04A480240FAE7102002439F
:100BC000F7E70120000326E096070423002E08DA49
:100BD000BE691E4302239A430823BE61CF263355C4
:100BE00002E0D60700D11A432A430A610522C01C3D
:100BF0002C3100F0B8FA1BE0072E06D0F868082266
:100C0000016911430161C67112E0F869C0780E28CC
:100C10000ED101208006B8610AE0FF2037E72146A7
:100C2000FB683A69F86900F0A7FAB9690843B86146
:100C3000234FF8683969066A0A8A01235B07D218CC
:100C400001925288D21800237A610293BB6811275F
:100C5000BF043B421ED15F011CD4476B974201D0B9
:100C6000012700E000270397904201D0012700E010
:100C70000027BC46002E0DD0039F002F0AD06746E8
:100C8000002F07D0F77CFF0904D03768002F01D070
:100C9000012702975B0202D4029B002B75D0437997
:100CA0009F0701D5002E1DD05B085B00476B974264
:100CB00057D143719378042B19D02AE09403002074
:100CC0004C030020000040800800100006230410A0
:100CD000DFFBFEFF640300209AFDFFFF5C000020A5
:100CE000BFFFFEFF2B431F462F434771DEE723461E
:100CF000C033DF7B082F05D1E24FBF78DF737D273C
:100D00007F029F81DF4B01279B69FF063B43DD4F3D
:100D1000BB614379DB060CD5DA4B09275D700023F4
:100D2000FF067B60D74BD84F1D709B693B43D54F67
:100D3000BB619278152A32D1074640373A7DFD23B0
:100D40001A40BC463A75130729D5CE4B01279B693B
:100D50007F063B43CB4FBB61F7231A4063461A75AE
:100D60001DE082421BD0338AB77C0022DB1933821C
:100D70007369B361B274338AF788BB4202D2F77CDD
:100D8000FF0903D03668202205E068E0DB0602D1C7
:100D9000B3691B68B361BB4B9F693A439A6142795F
:100DA0000027D20717D0B74A436B53619A78052AB8
:100DB0003BD1026920231A43026100200870487168
:100DC000487088718870C871C8700872087148725C
:100DD0008020487229E0002E0AD000F017FA00287F
:100DE00006D1A8483322C16852010969114209D0CD
:100DF000A4490122C868486105800169D2031143F2
:100E0000016112E0A14A317C136809221202C9066D
:100E10009A18C90ED26B0127891C89184161019A61
:100E200051803146C06800F001FA964E2121F068E9
:100E30008901006908420AD000F058F9012809D058
:100E40001F2271694878024201D0001D4870002FAE
:100E500002D004E0FF22F4E70199B08A4880894E6D
:100E6000F26810694106890F1ED080063178C00FE4
:100E7000012902D0B16849030BD50028306903D09D
:100E8000C17D082319430AE0C37DF7210B40C375D8
:100E90000AE000283069C17D03D0F7231940C175ED
:100EA00002E008231943C17521463369F06900F057
:100EB000FFF93078012808D000997548896B032222
:100EC000091D00F07DFA05B0F0BD6E480121C26831
:100ED00000695379C77A9C4620231E5C00238372E5
:100EE000204620300190807803281BD193796548F3
:100EF000002B17D163469B069B0F13D1634B1B68D6
:100F00002033DB7C002B0DD1136A002B0AD1CF23B9
:100F10001B5D8078834205D09089411C7043C019C5
:100F200089B287B2108F1389400048435918118144
:100F300001998978002902D15169091A51610099F2
:100F40008E6BB17A11231943B17221464D4BC031DA
:100F5000CE7B9B789E420AD18B891B1A8B8110D540
:100F6000484E4C4B7570B1691943B16109E0536942
:100F70004449002B05DC0E464D708969464B1943E8
:100F8000B1616146890605D53E49444E4D708B6975
:100F900033438B6111792646D1704036B571E16CCF
:100FA00080B20818E0649079FB2108409071C00776
:100FB0001AD0B08E1189401A012180B2C90388422B
:100FC00006D33048364A45708169114381610BE090
:100FD000002809D101230021204600F0F9F9294910
:100FE00089690843274988612648C1688A7990073A
:100FF00024D5338F0E8923489B1B5B1C01269BB293
:10100000F603B34205D34570254A816911438161D6
:1010100014E0002B12D1FD231A408A710269009955
:101020002132496811700B0A53700B0C9370090E32
:10103000D17060340069E17E20304171384600F0A3
:1010400013FA10490A69D072019800268670487810
:10105000002802D0887800F015FA0C4C582120683E
:101060000D540921090240184078002802D00120BF
:1010700000F0DCFA012000F0D9FB20684030067651
:1010800005B0F0BD4C0300200800010094030020CF
:10109000FA00300008804000080004000800020048
:1010A000080008000649C20B09684004096A400CA0
:1010B000CB0958435143000A081820308009704773
:1010C0009403002080B500F0F7FE01BD80B500F06C
:1010D0001DFF02BD80B500F0ADFF02BD80B500F080
:1010E000E3FF02BD80B501F009F802BD01207047A1
:1010F00070B50C460546C178602001551646281D7E
:1011000001F056F84034A084A81D01F051F8208564
:101110002846083001F04CF8A08528460A3001F036
:1011200047F8208628460C3001F042F8A086B079B6
:1011300001210843B07170BD70B5054616460C46D6
:10114000C01C01F03AF884210851E9797B2001554F
:101150002846083001F02CF840342087B07902216D
:101160000843B07170BD04E003780B70401C491C4B
:10117000521E002AF8D17047F8B51D46144606469F
:101180000027FFF7B3FF01280CD01F20717808401B
:10119000060036D00020E86101F01AF8002803D0DC
:1011A000E86907E0FF20F1E769893246012001F094
:1011B0001FF8E861002801D0102722E0E07D80219F
:1011C0004840E0751049286908421AD06079401EED
:1011D00060716079FF2814D1A079401EA071A079B8
:1011E000FF280ED1E079401EE071E079FF2808D198
:1011F000207A401E2072207AFF2802D1607A401E99
:1012000060723846F8BD00002028000006480168DA
:10121000492040010818417AC07A814201D9012051
:10122000704700207047000094030020F8B50C467A
:10123000CA88098A4030521A8088102695B2A8427E
:1012400005D20546E07C4006400EE07403E02068CD
:10125000002800D10026002904D1207B800701D579
:10126000022000E00120CF060643FF0EE81982B2FB
:101270000E48A1690368092000021818C06B001D00
:1012800000F0D8FF60610948A574016809200002D8
:101290000818C16BB81C0E540448016809200002EC
:1012A0000818C06BFF1CC555F8BD00009403002052
:1012B000FFB515691E46A8032E3689B01C46174691
:1012C000002832DA102269463046FFF74CFF092425
:1012D000E4060398A0610298E061019820620098FA
:1012E000606235480168E0140818016FA162C06EA1
:1012F000E0620A988030016C2163C06B606300F08B
:10130000BDFFA06B0390E06B02902C480168019137
:1013100040680090102231466846FFF724FF012004
:10132000400485433D610DB0F0BDE8053CD505A8FE
:101330000146009010223046FFF715FFFF200130D4
:1013400085434120800205433D610998082201A997
:10135000C01CFFF708FF0998214604222A310B30F0
:10136000FFF701FF154805A9283800F099FF092467
:10137000E4060298A0620198E062786B082203A953
:101380000D30FFF7F0FE049820630398606300F0CF
:1013900075FF0A4905A8083900F082FF102231467E
:1013A0000098FFF7E0FEBEE7A07A0006BBD40A98DB
:1013B00000F07FFFB7E700009403002040000048E2
:1013C00003E00870000A491C521E002AF9D1704738
:1013D000FFB581B000230093049B012B2BD04B8CD5
:1013E000204D1C010B8C9C46CB7E6B438D8BAE46F7
:1013F000CD8B9669A64205D19689664502D1168F96
:10140000AE4201D0402600969679042776087600F1
:101410003E43967194615461644694811587049AA1
:10142000012A17D00B6170464A68400010184860C6
:10143000009805B0F0BD034640331D461B8E094E93
:101440001C01AB8D9C4660231B5C7343AE8C2D8DC1
:10145000B646CEE783657146C26C49005118C16437
:10146000E6E70000E2040000054925224143090C9B
:101470005143401A80B2252800D32538C0B27047A6
:10148000EB060000F1B5674941220868520182B0BD
:10149000821800927B2212018618AC22155C044649
:1014A0000346029AC034363395427DD90921090298
:1014B000401817465821006B4F430025B91C45546E
:1014C000029800F001FF00280CD15648BF1D0168AA
:1014D000092000020818006BC05D002802D00098A7
:1014E000C030057272B64F48029D07680120394628
:1014F0002031CA7DA8408243CA75317D8143317550
:10150000197808077AD44A070298520F82427CD091
:1015100030462030827E5507029A6D0F954276D173
:1015200081760F2018704122A06852017063BD18A7
:10153000A86D2169A9652061686D6169696560614F
:101540002146284618315C3000F0D8FE3648A37E8C
:1015500039180A780B70A276A86C2168A9642060FB
:10156000E86C6168E96460601120C00139180A788C
:10157000E37E0B7021462846E2761C31643000F091
:10158000BDFE214628461E31683000F0B7FE2146D8
:10159000284620316C3000F0B1FE21462846223129
:1015A000703000F0ABFE00E03BE0214628462431DD
:1015B000743000F0A3FE214628462631783000F032
:1015C0009DFE194880351D303918204628300A788C
:1015D00003780B7002701448E26A263038180168EC
:1015E0000260E1620721E06809050843A96B032254
:1015F000091DFFF7E5FE0AE000E006E03A20805D05
:1016000041070298490F814201D10F2018702036FE
:10161000B07E41070298490F814201D10F20B07678
:1016200062B6FEBD940300207E080000F0B57D4D3B
:10163000044641212868490191B0401808900020D3
:101640000D9072B600F06CFE002801D1002C07D07E
:101650007448002401680920000208184678DDE07B
:1016600062B60D9811B0F0BDF0077DD06E49A001B3
:1016700040180E906B480168092000020818016BA1
:10168000582060430D18A978286A4907490F022994
:101690004AD1A979490747D4002845D0288F40006E
:1016A00009900002FFF7FEFC039000200F905D48B8
:1016B00036210068095C0A070AD44907490FA1428C
:1016C00006D1012180300F91416C0191806C06E0C0
:1016D0000899C96C01910F21C9014018406E009012
:1016E000FF205F30FFF7DEFC4F490C39497AC90013
:1016F00041180098411A0398081A07900E980B2178
:1017000041562030059100780A90002002902889E7
:1017100006900920C00601690798401A07020120B7
:101720003F0AC005874229D36BE001200D90039941
:101730000798401A0790029840180290099901985A
:10174000401A0190696909980818686105990A9812
:10175000081A40B205900698401E80B2069005987F
:10176000002804DA253000E055E040B20590092059
:10177000C00601690798401A07023F0A6420FFF774
:1017800091FC29490C39497AC9004118254800685B
:10179000806A0818B84207D20120C005874203D2E8
:1017A000099901988842C0D802990098401A00020D
:1017B0000D99000A00290CD01A4901220968D202A9
:1017C0008918096F411A09020912002901DD002157
:1017D0000D910F99002906D01249019A09688031AC
:1017E0004A64886408E0089A0199D1640D490A683E
:1017F0000F21C901511848660E990598C8720698BC
:10180000288108480122016809200002081841784F
:10181000A24091434170641CE4B27608002E00D0CF
:1018200022E71DE794030020CC000020F1B5F74F1C
:101830007B20396800010D18084696B06830129078
:10184000092000020818006B1390412040010E1877
:101850000920C00600690790002003900824EC4886
:10186000FFF720FC02900020149072B63868F7222F
:101870004030C1791140C171129801210171129853
:1018800001684A07520F4271C9081298C9000160E5
:1018900062B61698002801D007980DE06420FFF783
:1018A00001FC07994218DB48417AD8480068806AF1
:1018B000081810180002000A00F05EFD686B049022
:1018C0003A20405D0E90082842D2012003900E98E5
:1018D00058214843139940180590CF48876ACD484E
:1018E000407AC00000F0AEFE01460598008F40022D
:1018F0000818C74949424018874200D238467065E7
:10190000B82081590A7948798979000210438907FA
:10191000890B01430598FF314030028A408AC33168
:101920001018401800F096FE07465F200001FFF7F0
:10193000B9FBB84204D95F200001FFF7B3FB00E018
:10194000384604990918B348407AC0000818149022
:10195000706DFFF7A7FB049940180190002007461F
:101960000690287D002809D10E98082806D3A94999
:10197000002008800921C906486065E16868089070
:10198000686C0A9029680798401A00020412A1485E
:1019900000884007400F00F097FC002801D000208D
:1019A00007E0002CFBDB204600F04CFE0A99884241
:1019B00000DA0A900120800708240C9000200F9084
:1019C000297D3AE00E9A904234D0904A1268203233
:1019D000927D1207120F82422CD0EB6A42000693CE
:1019E00007929F5A05976B6A9A5A089B92017B430C
:1019F000D3180A9A9C46934212DACA0710D02A6B6F
:101A0000079B089FD25A521C93B21A467A43059FED
:101A10009444FA1892B213460592079F069AD3533C
:101A20000C9A6346944505D2CA0703D0059A0C93D5
:101A300004460F924908401CC0B20029C2D10C983C
:101A4000FFF730FB29684718A86A6100405A8001F7
:101A5000FFF728FBC01906906E48407A5822C10053
:101A60006A480068125C002A6C4A12690CD0BB1AE2
:101A7000029A52009B1A169A002A01D0002001E017
:101A8000806A4018181A0BE0BB1A029A52089A1A78
:101A9000169B002B01D0002001E0806A4018101A2C
:101AA0000002000A0121C9050590884209D3082CCB
:101AB0007ED0204600F0D2FD55490C9840180A907F
:101AC000686401210598C905884200D372E7082C93
:101AD0006ED00F9800282DD0089948430590FFF745
:101AE000E1FA296840180002000A2860696C05982C
:101AF000081A68640C990598081A00210C9013E0E4
:101B0000EA6A480005909446105A0F9A801A04E039
:101B10002B6B059A401C9A5A10180028F8DB059B7D
:101B20006246491CD052C9B238480068A030007BD8
:101B30008842E5D80E98082876D20498C01B010286
:101B40000120090AC005814222D302983A1A14984A
:101B5000101A01020120090AC005814201D314981C
:101B60000DE00199511A0902090A814208D30120A6
:101B70004002FFF797FA02994900791A081A019072
:101B800001990498081A0002000A00F05BFD7065D4
:101B9000029901984018C01B01020120090AC005E2
:101BA000814255D202994A0006995218049900E0E0
:101BB0004AE0511A0902090A814235D20E98582189
:101BC0004843139942185820214641431398D37B28
:101BD0000818C17B994201D3102100E00021C906F9
:101BE0001ED48179CA0702D07221895B03E089077C
:101BF00007D57621895B0289891A491E0904090CD7
:101C000012D0407900060FD422E00DE094030020AA
:101C100066020000C00000205C00002000000048B8
:101C200050799021084213D1082C15D09E490C9868
:101C30004018686458201399604340188078400722
:101C4000400F01283FD007E00398002804D003D0BC
:101C5000049F0E9C019806903802000A0090069896
:101C60000102090A012080020691FFF71BFA039086
:101C700001204002FFF716FA074606990098081A55
:101C800000020012002809DD0399000A884200D9E9
:101C900001460391B84200D838460746082C7DD04B
:101CA000824800884007400FA0424FD05820139927
:101CB00060434018059080784007400F052812D0F7
:101CC000022810D042E03146803103208A68400269
:101CD0008242C1D0C9688142BED000F0FDFC4005FF
:101CE000400DC719B8E70598A101006A02906F4836
:101CF0000818818B059880B2814227D0029800286D
:101D000024D002990598FFF791FA694902980A6868
:101D1000007C09210902C0065118C00EC96B801C45
:101D200040180290059821210069890108420DD0D0
:101D3000FFF7DCF901283BD01F20029949780842BF
:101D400004D0029840780299001D487058485749BD
:101D50000068203084744820204308803346803354
:101D60005A6B907AC106C90E6001014391729A6B59
:101D7000917AC906C90E014391720098306500F04E
:101D8000CFFA012816D04A4800682030017D474824
:101D9000407A081A316DC000081800E03AE00002ED
:101DA0000121000A490641180920C00641600EE0E1
:101DB000FF20C2E70121306D090641180920C00645
:101DC00041603B4800682030017D38484172082C52
:101DD00024D2582044431398241872B61298A1783C
:101DE00000684907C008C000490F0843314908404E
:101DF0000099C90008431299086062B6A0784007AC
:101E0000400F03280FD0FFF771F901280FD0069873
:101E1000C01B19E000200921C906486023490020A1
:101E2000088017B0F0BD03990698401A0CE04034C2
:101E3000208A618A4018FF30C33000F00BFC8742D3
:101E400000D938460699081A0002000AE863A88BF0
:101E50008001FFF727F92968002644181248313815
:101E6000FFF720F9201A0002000A2864104C2E8483
:101E700020684030407E002807D000F04BFC2068EE
:101E80004030417E49084900417620684030407E1C
:101E90000028C6D000F062FC20684030417EFD2260
:101EA00011404176BDE7000066020000C00000203E
:101EB00094030020070000F870B51349092209684F
:101EC000120200208B18AC22525C1AE058241D6BC1
:101ED00044432C1954252D5DED0610D541204001B9
:101EE0000818C030428A018A608900F05BFC3A28F9
:101EF00004D04034207DEF210840207570BD401C87
:101F0000C0B28242E2D870BD94030020FFB50746FC
:101F1000464881B000880D464549092209681202E9
:101F200040078A18400F126B582358431418412059
:101F300040010E18FFF7DAF8002822D0142D04D043
:101F4000152D20D0072D59D05CE02146039800F0D4
:101F500087FC012120698904084321464031206122
:101F6000087D022210430875820609D5627952085D
:101F700052006271DF2210400875002F4ED151E0EF
:101F8000012005B0F0BD25464035287DC007F7D0BB
:101F90002146039800F064FC204600F085F80028F4
:101FA00025D0A18FE08F814200D20846E880698960
:101FB000A889814200D2084668822A89E9898A4232
:101FC00000D211462982628F2888824200D21046B0
:101FD000C9080E3989B26880884200D30846A880B3
:101FE0000498006801214906084304990860287D87
:101FF000400840002875002F10D113E00398C078E6
:10200000142802D0002005B0F0BD4034207D04210A
:102010004008400008432075002F03D00820C03638
:10202000F073ADE70820C036B073A9E7C000002008
:1020300094030020F8B51C4615460E460746FFF7E8
:1020400055F8002805D000F027FC002803D00C200C
:10205000F8BD1120F8BD12494122096852018918C2
:102060003A4600201B3AE12A00D330203346FF3B9A
:102070000C4A493B934200D330202B461B3BE12BBB
:1020800000D330202346FF3B493B934200D330200E
:1020900072B6C0318F82CE820D834C8362B6F8BD9A
:1020A000940300200107000070B501464030048809
:1020B0004A8F0025944200D31446C28903899A426C
:1020C00000D21346CA8F898F8A4200D30A46868976
:1020D00041898E4200D231464688A64200D0012571
:1020E000C488944200D00125028A9A4200D001257A
:1020F000408A884200D00125284670BD70B5032172
:1021000000F0F0FB082801D3022070BD2649092207
:10211000096812028918096B582250430C1860791B
:10212000666B800701D03A2070BDE18FA08F00F070
:102130001DFC25464035E880A989688900F016FC19
:1021400068822988608F00F011FC6880E9892889FD
:1021500000F00CFC2882C0080E3881B2688800F0BC
:1021600005FCA88011483060656B204602223C3097
:10217000E91CFEF7F8FF20460222691D4A30FEF7EF
:10218000F2FF20460222E91D3A30FEF7ECFF294615
:102190002046022209314830FEF7E5FF607901212F
:1021A00008436071002070BD9403002003091500EE
:1021B00001784078000208437047017842781302A2
:1021C0008278C07812040006104318430843704711
:1021D00006480168492040010818017A807A814246
:1021E00001D90120704700207047000094030020AF
:1021F000F8B50D460E49092309681B02C918CE6AB5
:102200001F21521E0A431D3297B20024394600F0A6
:10221000B1FB00280AD13946B06800F0D3FB044670
:1022200008340068A0600020E074A5802046F8BD56
:102230009403002070B50C461F21521E0A43054628
:10224000521C002011044E0D17D0214608316A1A85
:102250002846002A01DD082A03DB202200F0CAFB01
:1022600004E0082208C9521E08C0FBD120352046D0
:10227000761E24683604360CE7D170BD08B564209C
:10228000694608700921C9066A461078401E107018
:102290004869C00402D410780028F5D1107808BD30
:1022A000CA6802608A6842604A6882600968C160E0
:1022B000704710B504468034606C002803D000F0ED
:1022C000A9FB0020606410BD0B497B220968120144
:1022D0008A182032927E36311207120F824206D0BF
:1022E00009780A0705D44907490F814201D1012025
:1022F00070470020704700009403002002880B887C
:1023000003800A8070470C0802170D0101020909B9
:102310000101060209FFFFFFFFFF0909FFFFFFFFA1
:1023200030B41348092203680120C0021818D206ED
:10233000006F11690F4C411A09022588090A2D07FF
:1023400002D430BC01207047647A9B6AE400E31831
:102350008B4209D20123DB05994205D2590008437B
:10236000506030BC0120704730BC00207047000036
:1023700094030020C0000020F1B5B04A7B21106812
:10238000090190B0411804914121490145180446C2
:10239000C034014636310D9100210291A849497A95
:1023A000C9000C91816A0B91049920310E91897EAC
:1023B000079108297ED2092109024018016B1746AE
:1023C00007985822504308180890079881019C48A4
:1023D0000C3008180A90C07A2E4640360990B08B0F
:1023E00000F052FB39684031098E401880B20390EA
:1023F000E96C039800F056FBE96C09020F1AB07FF4
:1024000000F055FB3818FEF74DFEA96C41180C98EA
:10241000081A0002000A01901099411A0B98081A34
:1024200000020121000AC90588427DD20499019861
:1024300048630998FFF718F80A99C8720D98007850
:10244000C143090706D041070798490F4007400FCD
:1024500081422BD10E980821807E08430D99087087
:10246000A86C2060E86C60600198A0600298E06051
:10247000A86D2061686D6061B08B2083B07FA0760D
:10248000284660300178E176B18CA183318DE183FB
:10249000B18D2184318E6184B18EA184318FE1842C
:1024A000C17E2820015584204059E0620D980078B3
:1024B000420700E07BE00799520F4907490F8A4223
:1024C00061D0F72108400D995C4F08704007400F1C
:1024D00007900920396800020818016B07985822F4
:1024E0005043081804900798810155480C3008188B
:1024F0000A90C07A0990208B00F0C6FA3968403102
:10250000098E401880B203906168039800F0CAFAFF
:10251000616809020F1AA07E00F0C9FA3818FEF7A8
:10252000C1FD2168411800E043E00C98081A070239
:1025300010983F0A391A0B98081A00020121000A64
:10254000C905884257D2A7600998FEF78DFF0A99FE
:10255000C87201980899C01B00024979000A9022AC
:10256000114210D10121C90588420AD30498C17BC8
:102570000898C07B401C814203D804984079C0066B
:1025800001D500F09BFAE96C039800F035FB044696
:10259000B07F00F039FBA96D20184018072109050C
:1025A00008438035A96B0322091DFEF709FF11B00E
:1025B000F0BD0898008F41000A98203002780998F1
:1025C000101880B209900898089A0089401C108160
:1025D00008984069421A089842610898C07BFF2811
:1025E00002D2089A401CD073E86C4018E86407983F
:1025F00000F012FBFCE604980A99008F400020319D
:102600000A780999511889B209910499049A09899B
:10261000491C1181049949690A1A04994A6104996B
:10262000C97BFF2902D2049A491CD173616808183A
:102630006060079800F0F0FA66E70000940300205D
:10264000C000002008B500216A461180694600F0EC
:1026500045FB08BD4101401880097047F8B50146A7
:102660001B480922006812028218136B58224A4341
:102670009E18412252018518164A88018718B078A1
:1026800000244007400F052802D0012805D010E0A3
:10269000084600F03BFB04460BE02A468032108AD5
:1026A000002802D0401E108203E001240846FEF7F5
:1026B000E9FEF07BFF2801D2401CF073002C06D00D
:1026C0002346324629460020009700F021FBF8BD42
:1026D00094030020CC00002000210B20000702689A
:1026E00052070DD5026804239A430260026808234A
:1026F0001A43026004E0491C052901DD00207047EF
:1027000042689207F7D54168C907FCD0806880B25B
:1027100070477047FEB50F484121006849014418D1
:102720000D4906224118684600F0F0FDA66BE56BE6
:10273000636B246C00206A46811C175C5F54175C35
:102740007754175C6F54175C401C67540628F3DB02
:102750000020FEBD94030020EF0600007CB50E4C67
:102760000E492068062245180D494118684600F0B8
:10277000CDFD296A06226846891CFEF7F4FC092172
:10278000206809024018016D06226846891CFEF780
:10279000EAFC00207CBD0000940300200409000036
:1027A000EF060000F7B52C4F0E464121386849016D
:1027B000441882B015460321029800F093F8009067
:1027C0000920396800020818016B0098582250430C
:1027D0000F180098FFF778FD002807D0CF20005D84
:1027E0000099082905D3022005B0F0BDCE20005D78
:1027F000F6E74037397D4A0701D51A20F4E732461B
:102800001B3AE12A05D22A46FF3A144B493A9A422A
:1028100001D33020E8E78A0601D4C90701D00C2093
:10282000E2E7082801D23A20DEE7C034A08AB042AD
:1028300000D20646E08AA84200D205467888B04217
:1028400004D1388AA84201D10020CDE72A4631467A
:10285000029800F06FFDC7E7940300204941000093
:1028600070B50C46054602224031C01CFEF77BFCC9
:10287000214602224E31681DFEF775FC21460222D8
:102880003E31E81DFEF76FFC2146284602224C31FE
:102890000930FEF768FC70BD70B511480924026864
:1028A0001F20800110180379002024021419A0327F
:1028B0000146157B10E0DA070BD05822266B4A43FD
:1028C000B21892785207520F052A01D0022A00D17D
:1028D00001205B08491CC9B28D42ECD870BD0000D4
:1028E00094030020F8B507461F48092605687B2099
:1028F00000012C182846363036023F0584463F0D2D
:10290000AE19237D08200022A0350097B6462D7B06
:102910000EE0DE0709D07646366B58275743F61986
:102920007689009FB74200D110465B08521CD2B294
:102930009542EED82034A27E1207120F824202D1B5
:10294000CB0700D10820824207D0624612781307D5
:1029500007D45207520F824203D1C90700D1082081
:10296000F8BD8907FBD5F8BD94030020884200D349
:102970000846704770B5124A092312681B02D21824
:102980000123D26A83435B00491E41249B184909F5
:10299000491CC9B272B615798D420ED31E785B7888
:1029A000AD19EDB25B18AB4207D84000135C0024B0
:1029B0005B1813541079401A107162B6204670BD2E
:1029C00094030020491EC904090E72B602788A4297
:1029D0000CD9511AC9B24A1ED3B20370426888009A
:1029E0001058990052580021116000E0002062B692
:1029F00070477047814202D25318984203D300B502
:102A000000F01AFD00BD521E03D38B5C8354521E8E
:102A1000FBD2704718B40168184ACB6813608C6801
:102A2000012354604C6894600968D1604168144A7D
:102A3000CC6814608C6854604C6894600968D160FC
:102A400064216A4611700922D2066C462178491E1B
:102A500021705169C90402D421780029F5D1227866
:102A60002270084A8168D4680C6094684C6054688D
:102A70008C601268CA60037318BC70471800004865
:102A800028000048380000481FB5054C40071ECC00
:102A900003946C460EC4000F6946085A04B010BD7A
:102AA0006022051089084143880A401C70470328AA
:102AB00002D06320C043704766207047F8B54C4D84
:102AC000412128684901441826464036B08BFFF75B
:102AD000DBFF29684031098E401880B2E16C00F0BC
:102AE0008BF80746B07F00F08FF8A16D38184118B9
:102AF00007200005014300913E4A296888183631B5
:102B000000F0A7FC3F21286849014218917A4B0741
:102B1000014620318E7D5B0F37093F013B439372A5
:102B20007207520F8A75334AA831921F801800F03D
:102B300095FC2868A16CC0300268A2640160286816
:102B4000E16CC4300268E264016028680099CC221C
:102B50001150D030A16D0268A26501602868616DD6
:102B6000D430026862650160296820465C30D83143
:102B700000F079FC296820465E30DA3100F069FC0B
:102B8000296820466030DB3100F063FC296820466C
:102B90006430DC3100F067FC296820466830DE31A3
:102BA00000F061FC296820466C30E03100F05BFCED
:102BB000296820467030E23100F055FC2968204633
:102BC0007430E43100F04FFC296820467830E6315B
:102BD00000F049FC296820467B30E83100F039FCE0
:102BE000296820468430EC3100F038FCF8BD000044
:102BF00094030020EA0700004143080A2921090143
:102C00004843C00A401C7047012801D00148704762
:102C1000002070477A030000FEB503462D483F2789
:102C20000268092000021018016B582058430C1844
:102C30004120400110181146274E7F019D01D219F5
:102C4000AE19927AC03100259A420CD10246403228
:102C50001746928E3F8F009784273F580123019794
:102C60007B273F5C07E08A8CCF8C0097CF6A0023DC
:102C7000019728277F5C0297A779FF0708D027894B
:102C8000D21B1204120C03D12246FEF7A1FB05460B
:102C9000A079810710D522890099891A491C090455
:102CA000090C09D1FD21084001ABA0713146052274
:102CB00021311846FEF757FA002D0AD00548009634
:102CC00001684120400109182B462246002000F0EF
:102CD0001FF8FEBD94030020CC00002010B50A4A66
:102CE000830B12688004526A800C140A60435A43B2
:102CF0008009101800228A5E821A10464030C009EE
:102D0000C3019A1A0A8010BD940300200020704766
:102D1000FFB506468DB050890690FF48092100682E
:102D200009020B904018006B0A9051791D46144619
:102D3000480601D4E80757D000200790208F009064
:102D4000A089A3698446A0784007400F05282DD0AC
:102D500003282BD001200990BF20014061710E99FA
:102D6000EF07084640301031002F0AD000223C21E6
:102D700007910E99069200928283944613468280B0
:102D8000083137270B9A7F01D2195778BF060FD524
:102D9000D778BF070CD580886246029301920390D2
:102DA000069B079A099800F063FB1DE00020D2E71C
:102DB0001A030079130C009A674603970493029252
:102DC0000590486801910002000E00900B98A03019
:102DD0000079C00701D0002000E010208030099B5E
:102DE000069A079900F046FB0E9F2807C037002877
:102DF00073DA2069E90301D5162117E0A90301D58B
:102E0000132113E0290301D528210FE0E90201D5A0
:102E10003D210BE0690201D5222107E0690329D594
:102E20006179090601D4082100E03E210191B97BB6
:102E3000582251430A9A8918A14201D10821B97335
:102E4000F97B582251430A9A8918A14201D10821DD
:102E5000F97305218902084222D0280420D5208A4E
:102E60004004AD4800680ED5A0300079C00703D0FB
:102E7000002002E01F21D9E710208030069A019936
:102E800000F03CFB0CE0A0300079C00701D000202E
:102E900000E0102000238030069A019900F05AFBD0
:102EA000206A002801D000F083FB002727629A489F
:102EB00067620068A421095CC90701D0002500E011
:102EC0001025069903910199022380350591E906A1
:102ED00004D50222BF210D4007E01DE01B2189011E
:102EE0004118897EC90614D500222907890E0918C0
:102EF0000120C00208184069294600F07BFB010050
:102F000007D00F71039ACA80059A0A72284600F00A
:102F1000CFFB002527618DE1680620D5A07840070A
:102F2000400F052801D1A1696161002105280BD05E
:102F3000208BA2890004000D01900092238F802035
:102F4000069A00F0C9FB75E1606B43890289019321
:102F50000092C3888020069A00F0BEFB6AE06807F2
:102F600023D5802000906C481B21006889014118FE
:102F7000C97E0223069F0907CDD5990240180C226D
:102F80004069009900F036FB0100C4D08F80F278D0
:102F90008A713379727912021A430A81B379F2790C
:102FA00012021A434A81009842E12805800F06D098
:102FB0000E98694631C1684600F0C4FB3AE15748B3
:102FC00005423DD0E80401D5002000E01A2007901A
:102FD00006980490F01C029080214F4800910168EF
:102FE0003720400108184278032392061AD58078CA
:102FF000000717D50120C00208180E224069009969
:1030000000F0F8FA059000280CD007990171049996
:10301000C18008220830029900F078F905990098DB
:1030200000F046FBA0784007400F052802D0022898
:1030300003D0FFE00820B873FCE00820F873F9E043
:10304000680424D5208A4004334800680CD5A03099
:103050000079C00701D0002000E01020002180305E
:10306000069A00F04BFA0CE0A0300079C00701D0BE
:10307000002000E01020012300218030069A00F09B
:1030800069FAA0784007400F0528D3D0D2E0280283
:103090001ED5208A00051AD51F48F1780068A03097
:1030A0000079C00701D0002000E01020002380300C
:1030B000069A00F04FFAA0784007400F052801D18A
:1030C0000820B87343212069890288432061B1E058
:1030D0000E992A06803112480091002A2CDA3146D6
:1030E0000D31019102A907910B49169F0968082229
:1030F0000918F01C2637FEF736F8F17A307B0822E3
:10310000000208430099C88307990198FEF72BF83D
:1031100004223946019805E09403002000100004C1
:10312000640900000830FEF71EF800980299C16398
:103130000098039901647DE029013ED57149A422DC
:103140000968525CD20701D0002700E01027081858
:103150000390069A00980292C08B03238037059053
:10316000F80603D50622BF20074009E037204001BA
:103170000818427892065DD58078C0065AD5042298
:103180003807800E41180120C002081840693946EE
:1031900000F030FA049000284CD0001D00900299F5
:1031A000018000980822801C039900F0AFF8009875
:1031B00005994181384604993AE0A80209D50820CA
:1031C000B873514800884007400F401C00F0BBFA1C
:1031D00030E0A8012ED58020019020464030418863
:1031E0000991018A0891C1880491408A0790454855
:1031F00037210068490141184A78069F0323920647
:1032000018D58978490615D50121C902401806222A
:103210004069019900F0EEF901000BD08F80099A06
:10322000CA80089A0A81049A4A81079A8A81019879
:1032300000F03EFAA8060AD5206A01682162002142
:103240000160226A002A00D1616200F0B1F9E8064B
:103250001AD5FDF74BFF012852D01F277078B11CFB
:103260000740E0693A46806800F06EFAE069C7807E
:10327000E069002707603178E0698907890F0173E9
:10328000E06900F08DFAE761E80137D51698C18949
:103290000120400709184988081801784906CD0F10
:1032A00007A900F09BFAA1200190A67B079809903E
:1032B00008980A9013480721006809024118097903
:1032C0000223C9071AD09902001D40180F22406935
:1032D000019900F08FF9040010D02671271D657147
:1032E000042209A9A01D00F011F804220AA9B81DA2
:1032F00000F00CF82146019800F0DAF911B0F0BDA9
:10330000FF27ABE794030020C000002010B50400A5
:1033100000F092F8200010BD10B504000800110064
:103320000200200000F064FA200010BD80B500F01B
:1033300089FA02BDF7B50F4682B00321FFF7D2FA32
:103340000646FEF7C1FF0090082E02D3022005B00A
:10335000F0BD2A48412100684901451809210902A8
:103360004018016B582070430C1872B6A0784007C3
:10337000400F052804D0022802D00C2062B6E6E7F0
:103380006079800701D03A20F8E76787204640300F
:1033900004990181017D202211430175616B184858
:1033A0000860676B204602223C30F91CFDF7DBFE0B
:1033B00020460222791D4A30FDF7D5FE2046022222
:1033C000F91D3A30FDF7CFFE394620460222093179
:1033D0004830FDF7C8FE60790121084360717D2007
:1033E00000994002002904D0C035A881EE73002066
:1033F000C4E7C0356881AE73F9E70000940300208C
:103400000309140070B4103A03D378C9103A78C095
:10341000FBD2530701D318C918C001D508C908C089
:10342000D20704D30B880380891C801C002A01D595
:103430000B78037070BC70478B0701D18307E1D014
:10344000124205D00B78491C0370401C521EF9D162
:10345000704702780B7803700A70704702680B6837
:1034600003600A60704702880B8803800A807047F7
:1034700070477047FFB51F4605230646C1061E4824
:1034800081B0006803D50522BF210E4009E0372135
:10349000490141184A78920629D58978C90726D06A
:1034A00003223107890E08180121C902401840691A
:1034B000314600F09FF804001CD002982071039858
:1034C000E08027720A9860722046251D06220A3085
:1034D0000B99FFF71BFF0C98A8810D98E8810E98B7
:1034E00028820F98A8742146304600F0E1F80020A9
:1034F00005B0F0BD0720FBE79403002070B50E4631
:1035000001230446C10612481546006803D504226B
:10351000BF210C4008E01B2189014118C97F090621
:1035200001D4002070BD02222107890E0818012154
:10353000C90240184069214600F05CF8010005D03E
:103540000E71CD80204600F0B3F8EAE7072070BD89
:1035500094030020F8B51D460F4602230446C10619
:1035600012481646006803D50322BF210C4008E02C
:103570001B2189014118897E090601D40020F8BD6C
:1035800001222107890E08180121C902401840694B
:10359000214600F02FF8010006D00F71CE800D7289
:1035A000204600F085F8E9E70720F8BD94030020E5
:1035B00070B5C17C0E4D4906490EC1740446012305
:1035C0002868D9024018902600224069314600F050
:1035D00011F8010003D030464C6000F069F8492032
:1035E000296840010918487A401C487270BD0000E3
:1035F00094030020FFB5044600262C4F83B09C4660
:103600000D46080616D572B601AB6A4661462046DD
:1036100000F027F900280BD068468188009882784E
:1036200092089200827001806180012662B615E0E6
:1036300062B621E001AB6A466146204600F011F90E
:10364000002819D0680609D46846818800988278D5
:103650009208920082700180618001260098AA0081
:10366000817840238907890F1A4011438170059999
:10367000C170002E0ED115E00020009072B6A80691
:103680000FD401203968C0020818016808221143CC
:10369000016062B672B63868F7224030C1791140D5
:1036A000C17162B6009807B0F0BD0000940300201D
:1036B0000A46400608D5D0783A280AD2111D054B93
:1036C00080001B5810461847907880088000801CA6
:1036D00088707047EC080510F8B51D460F460323A7
:1036E0000446C10616481646006803D51022BF21BD
:1036F0000C400BE03721490141184A78920602D567
:103700008978490701D40020F8BD0D222107890ED0
:1037100008180121C902401840692146FFF76AFFD5
:1037200001000AD00F71CE800D81069A4A81079A56
:103730008A812046FFF7BCFFE5E70720F8BD0000BF
:103740009403002070477047F8B504460D46501E9C
:103750001F210843401C00041646470D1ED020467A
:1037600008302946421A002A01DD082A03DB2022FC
:10377000FFF740F904E0082208C9521E08C0FBD137
:103780002035202E01D2304600E02020A080301AC3
:103790007F1E24683F0486B23F0CE0D1F8BD70471D
:1037A00070B50D4D044601232868D90240189026B3
:1037B0001A4640693146FFF71DFF010003D030462D
:1037C0004C60FFF775FF4920296840010918087A05
:1037D000401C087270BD00009403002010B50B4619
:1037E00001784906CA0F811C184600F070F810BD18
:1037F0001206130A1A43130C1A4300BF094205D0DC
:10380000830707D00270401C491EF9D170470000A1
:103810000022FFE71300103906D330B4140015005E
:1038200010393CC0FCD230BC490700D30CC000D5D5
:1038300004C0890002D30280801C002900D50270D8
:1038400070477047A446521E08D303780C78401C7A
:10385000491CA342F7D0181B6446704700206446F9
:103860007047F0B54488491CA4B2E5B2A40809B277
:103870001C808EB287883619BE4204D9A6B2891B35
:103880006D1C09B2EDB2A4002418083414601C8821
:10389000AD076418A400AD0F2C43A4B21C800388AC
:1038A000E31A9C07A40F012C02D803D1002B01DDE1
:1038B00000230AE00123002907DA11688C78A408A4
:1038C000A400641C8C70083010601846F0BD70B500
:1038D000044616460D460846FEF76FFC2060281D7C
:1038E000FEF766FC31044018606070BDBFF34F8F77
:1038F000CF48D0490860BFF34F8FFEE7CE488178AC
:103900004170704710B5CC4C2078002807D00020BB
:10391000207000F03FFB9321A08C00F043FB607807
:1039200010BD80B5103000F052FB01BD10B500E0B5
:10393000521E130609D00300581C0C00611C1B7892
:103940002478A342F4D0012010BD002010BD000057
:10395000F0B58DB00AA800BFA1A11CC91CC00220EF
:1039600000F070FB06AC662020709A2060700C207E
:10397000A0702020E0700020207108266671A7202A
:10398000A071BA20E071E32020721120607206203D
:10399000A0728527E772C0202073F72060739720FC
:1039A000A0738A20E073A44D102206A928003830A5
:1039B000FFF7ACFC2800103000900A2301222900F8
:1039C0003831022000F066FB002837D166202070D5
:1039D0009A2060700C20A0702020E07000202071E0
:1039E0006671A720A071BA20E071E3202072112037
:1039F0006072A672E772C02020738C2060732E2044
:103A0000A0731220E073102206A928004830FFF7A7
:103A10007DFC2800123005900020049010200390B7
:103A200004200290002001900220009008232A0028
:103A300048320221288A00F048FB002800D0CCE060
:103A4000662020709A2060700C20A0702020E0700A
:103A5000002020716671A720A071BA20E071E320D8
:103A6000207211206072A672E772F02020739920F4
:103A700060730F20A0732120E073102206A9280094
:103A80004830FFF743FC28001430059000200490D4
:103A90001020039005200290002001900E2000903D
:103AA00009232A0048320221288A00F00EFB002850
:103AB00047D10AA803900920029000200190092014
:103AC00000900123AA8A298AA88C00F01DFB0028F7
:103AD00037D1662020709A2060700C20A0702020C2
:103AE000E070002020716671A720A071BA20E071FB
:103AF000E320207211206072A672E772802020738A
:103B0000AA2060739120A0732620E073102206A9DA
:103B100028004830FFF7FAFB2800163005900120F6
:103B200004901020039005200290002001900E20A8
:103B30000090D4232A0048320221288A00F0C5FAD6
:103B400000284AD1662020709A2060700C20A07056
:103B50002020E070002020716671A720A071BA209B
:103B6000E071E320207211206072A672E77260207B
:103B7000207357206073DC20A0732B20E073102289
:103B800006A928004830FFF7C1FB2800183005902F
:103B90000020049010200390042002900020019047
:103BA0001220009004232A0048320221288A00F0C3
:103BB0008CFA002811D18F4804908F48059004A8F2
:103BC0000390029600200190009601236A8A298AB8
:103BD000A88C00F099FA002800D047200DB0F0BD65
:103BE0000200000000000000000000001FB50100FE
:103BF000CB4C608B401C00F0AEFA002911D12000A4
:103C00000C300390042002900020019004200090CA
:103C10000123228B218AA08C00F076FA00206071AB
:103C200060831FBDBE4A01235371D08191817047CB
:103C30000400FA050CED00E0E0020020F8B584B0C5
:103C4000B74CA0840025A08A401C814228D1E57091
:103C5000257118790006D978090440189978090265
:103C6000401859784018E062187A0006D97909049A
:103C7000401899790902401859794018A0621978BA
:103C8000012901D0032901D1012100E0082121727D
:103C90006063A5832563E583042000F07BF9A7E03A
:103CA000208B861CB1421AD1E583A581E5812100D4
:103CB0000C3103910421029101950091012302002E
:103CC000218AA08C00F020FA002802D1022000F006
:103CD000D3F9607A032801D01720E08488E0E08AD5
:103CE000401C8142FAD16079002806D0608B401CCC
:103CF0006083207AFFF77AFF7AE0E08C001F009063
:103D0000C110090F081800110290C0010190A08B8A
:103D1000019988426CDA1000A28B03909748190031
:103D20000CE0855406E0E76ABA42FAD24F1C961BB3
:103D3000BE5D8654865C5E40E671521CA68BE379BC
:103D4000039FF7193F1FBA42EDDB03980818C01E06
:103D5000077846787E40807870405840E071A283B2
:103D6000238C5A1CE08BE6790F78BE4232D1029E3A
:103D700036018919CE7836028F78F6196684668CFA
:103D8000B0421FD1401CE0834978012906D0761C3F
:103D900002994E433101E26A914228D3A081E58124
:103DA000A68B3000019900F0D6F9002907D0E06A0F
:103DB000216B401A0199884219D2864217D30120FB
:103DC000A07114E06083002B00D10022E283E18B1C
:103DD000F02006E06083002B00D10022E283E18B1B
:103DE0000F20FFF71FFFA583207AFFF7FFFEE57185
:103DF00005B0F0BD1005F8001007E7FFF8B584B076
:103E00000400474DA879002800D17EE000F0FDF9BC
:103E10000100200000F002FA0400E88C001FC1102D
:103E2000090F081800110001001DC000C110090F82
:103E3000081800116B214843FA21890000F08BF922
:103E4000401CA04261DA0027AF71AF71688C2884F2
:103E5000A86A296B4018686300240021474E04E0DB
:103E60001034A4B2686B10306863AA8B944222DAD3
:103E7000686BAB6A10339842F2D0111B102904DB37
:103E8000311900F0B5F810220FE03119C978090690
:103E9000321992781204891832195278120289184C
:103EA000325D891800F093F804223119686BFFF72E
:103EB0003DFD0100D4D0002906D1286BA98B401804
:103EC00028630020AF8300E03C20E88128000C300C
:103ED0000390042002900197009001232A8B298AE5
:103EE000A88C00F011F9286BE96A88420DD30220F2
:103EF00000F0C9F822492348FFF713FD00212248AA
:103F0000FFF70FFD01202870A87005B0F0BD1F4815
:103F1000C91EC184417A02220A43427270470000DE
:103F2000E002002038B504001848417A01220A4313
:103F30004272C08C001FC110090F09180911090134
:103F4000091DC900FA25AD00C810000F4018001166
:103F50006B214843290000F0FEF8401D68430C49DE
:103F600000F0F9F80100C8200001009000238AB297
:103F700089B2200000F058F931BD00009C030020F8
:103F8000AA5555AA00F8051000080410E002002008
:103F9000E2040000024909686831C88000207047C7
:103FA0009403002010B500F04BF910BD1C490968BE
:103FB0001C4A91420AD11C493F220A814006000C4A
:103FC000886111200880088AC007FCD57047144A10
:103FD0001268144B9A420AD1134A3F231381800876
:103FE0009061116433201080108AC007FCD570479F
:103FF0000B4A12680B4B9A4211D10B4A3F23138193
:10400000800890610868106448685064886890640B
:10401000C868D064CC201080108AC007FCD57047D7
:1040200014000020CCBCECFC00001040012802D0A1
:10403000022802D004E0802070478020C001704731
:10404000402070471CB504000121012000F0FCF85D
:104050002000FFF7EBFF0090684606210171002168
:1040600081710121417100F059F92000FFF7DEFF55
:10407000012100F0C1F913BD80B5FFF7D7FF002182
:1040800000F0BAF901BD80B5FFF7D0FF012100F0C3
:10409000B3F901BD70B586B014461D460A46034605
:1040A0006946881C0A9E00F0B3F9002804D1012C4F
:1040B00004D0022C02D0422006B070BD23462A460E
:1040C0006946304600F0B8F9F6E7F0B587B01C460F
:1040D0000B46054600A9023101A80C9F0D9E00F079
:1040E00097F900280ED16846058084828775C675C9
:1040F0000E9901760F99417610998176694611984B
:1041000000F04AFA07B0F0BDF0B585B084460AA8C1
:10411000F0C868468581C68103A801900297009483
:10412000604600F0D7FB05B0F0BDF446002804D48B
:10413000494200F013F8404260474042002905D44C
:104140005FD000F00BF8404249426047494200F01E
:1041500005F84942604703460B43E6D40022030AB0
:104160008B420BD203098B4219D243088B422ED2C9
:10417000411A00D20146524110467047FF220902FF
:104180003FD012068B4205D3121209028B4201D393
:104190001212090203098B4219D300E0090AC3096C
:1041A0008B4201D3CB01C01A524183098B4201D308
:1041B0008B01C01A524143098B4201D34B01C01AF3
:1041C000524103098B4201D30B01C01A5241C3086B
:1041D0008B4201D3CB00C01A524183088B4201D3DA
:1041E0008B00C01A524143088B4201D34B00C01AC6
:1041F0005241884200D3401A5241CFD20146104664
:10420000704708B500F02EFD08BD10B50920C006A6
:1042100000690002000A00F027FD10BD401AC0101E
:1042200081004018001270473EB56C46069D208004
:104230006180A280E3802581684600F027FD3EBDB5
:1042400010B500F09DFD10BD304A0129116802D162
:104250000843106070478143116070472C48027812
:104260002C4801880020002A44D109220A40092A4A
:1042700000D1202011220A40112A02D10200402040
:10428000104321220A40212A02D10200802010433B
:1042900041220A40412A03D10200802040001043FD
:1042A00081220A40812A03D102008020800010432D
:1042B000FF22921C13000B40934203D10200802086
:1042C000C0001043144A13000B40934203D1020074
:1042D00080200001104305220A40052A02D1020075
:1042E000102010438907890F03290ED101000820EF
:1042F00008437047022A01D101207047042A01D1E6
:1043000002207047082A00D1042070472000904006
:10431000080090400800104801040000F0B504793E
:1043200022000021384B002C04D11C680568AC43E6
:104330001C6006E0062C04D100221C680568254399
:104340001D600568CD40ED0738D5082909DA8D00D4
:104350009E6A0F27AF40BE431700AF4037439F62AE
:104360002CE00D00083D082D0BD20D00083DAD00DE
:10437000DE6A0F27AF40BE431700AF403743DF620E
:104380001CE00D00103D082D0BD20D00103DAD00BE
:104390001E6B0F27AF40BE431700AF4037431F636C
:1043A0000CE018290ADB0D00183DAD009E8E0F278A
:1043B000AF40BE431700AF4037439F86491C1A29C0
:1043C000BFDB01684279012A9A6802D111439960E2
:1043D00001E08A439A60016880790128586802D117
:1043E00001435960F0BD88435860F0BD0021016071
:1043F0000171817141717047044A012901D1106036
:104400007047506070470000040000403C000040CE
:1044100070B51C4613460D46012C03D0022C03D068
:10442000422070BD022200E010221946FEF76EFF06
:104430002C70002070BD7047FFB58FB014460E7809
:10444000102205A8891CFEF7F7FF4F484F49006866
:10445000451800F0B3FC00281ED1002C57D0012EC7
:1044600009D16846808A4A49884204D12846A96809
:10447000083081424BD1284610302969039081428F
:1044800009D00AA9284600F0B5FC6846018D601ED7
:104490000D90814202D2482013B0F0BD284608306A
:1044A0000CA9049000F0A6FC6846008E002814D0E9
:1044B000EF680AA93846183000F09CFC38462030D6
:1044C0000CA900F097FC6846398D008D09186846E4
:1044D000008E401C081887B200E00127012000046C
:1044E000C01BA04201D26120D6E72C692868019048
:1044F0001298012802D0022803D008E00520C0024B
:1045000000E024486085012E03D0022E05D0422011
:10451000C2E720460830022202E02046083010227E
:1045200005A9FEF7F3FE204631462030064601730A
:104530000F98214607802785039800F065FC2146E7
:10454000049800F071FC27461837E7616662A7619E
:1045500026620D9884B20BE02846019900F054FCC5
:104560003846019900F060FC2868641EA4B20190EE
:10457000002CF1D10F9801880D98081882B2002004
:1045800000F05AFC002087E7940300202C0700006D
:104590000118000001280000F3B5A5B008881A90A2
:1045A00088780C4611901022091D13A8FEF744FFCD
:1045B000A08A1090A17D68460172E07D0F90207E58
:1045C0002090677EA07E1F90002006460146129034
:1045D00020A801810F20BB4C2390BB4920684018C4
:1045E000199000F0EBFB00280BD101211098490233
:1045F00088425FD821A91A9800F042FC002802D016
:10460000602027B0F0BD2198179000F051FC1A9956
:1046100088420CD102A801901698009013AD0ECDDF
:10462000119800F04DFC002801D06320E9E76846AE
:10463000017A8806800F05D0012012902068A030F2
:10464000007B4600C80703D01298401CB61C12908D
:10465000080603D51298401CB61C129017980DA995
:1046600018301D9000F0C6FB6846129C808EA41C7A
:10467000A04237D317980EA92030019000F0BAFB62
:104680006846018F00290DD01798179A6B46406A2B
:104690009B8E128D5918808B5118081AA04201D296
:1046A0006120AEE71798846911982568012803D026
:1046B000022803D04220A4E7052000E01320E08375
:1046C0002A4639460F9800F033FC422899D0199FAA
:1046D000E28B4037788B398B411A1098101880196B
:1046E000814201DA48208CE70EA9019800F082FB94
:1046F0006846008F0028179802D0406A808B00E03F
:10470000008D2599401C0880259801210088A083F0
:10471000259802220088401CA8836C4820812046EE
:1047200020301790C1700021817081711998398BE8
:10473000406D40186946A061097A0170A069294658
:104740001C31401CFEF7E2FD11980128A0697DD0C4
:10475000102213A9C01CFEF7D9FD2846102213A968
:104760000830FEF7D3FD388B133038832E462036C1
:104770001198F0701098E8831F98B07010982084FA
:10478000109828841998398B406D4018A861002131
:10479000109AFEF7C1FD398B1098081838831799C5
:1047A0000120087117990020487130716846007A1D
:1047B000810701D50121317101070227002902DAA1
:1047C000317939433171410703D5317904221143DD
:1047D0003171400603D530790821084330710F98B4
:1047E00070712098B07121461D9800F00DFB214694
:1047F000019800F019FB29461D9800F005FB294699
:10480000019800F011FB1298002841D068461A99CF
:104810008181A18BC18107844784012408A8047188
:1048200022A80A9008A88473239941730F9938200D
:10483000014008A801730721C1730025057468466B
:10484000007AC00708D02248694600E02BE00882C1
:1048500003A924A800F078FB6846007A8006800F40
:1048600007D01B486946401E088203A924A800F00F
:104870006BFB6846007A00060AD5292109026846C2
:10488000018208A84473057303A924A800F05CFB07
:10489000259801881298401C081882B2002000F068
:1048A000CBFA0020ADE6022213A9C01CFEF72EFDB4
:1048B0002846022213A90830FEF728FD388B401D38
:1048C00053E70000940300202C0700000328000099
:1048D00003290000FFB5002099B0239A0B90129095
:1048E00005461490064615901C46DB480B460068AA
:1048F000DA49229F411803910021089109915188BA
:10490000069111880A913B2149014018007DC0079A
:1049100006D00FA9184600F0B3FA00280AD102E029
:1049200047201DB0F0BD10AA0F991B9800F0BCFBEA
:10493000002801D06020F4E71998002803D0600710
:1049400001D5012000E000201390A007800F1C90EB
:10495000109817902030C078012840D11798C04B8C
:1049600001899942F9D11798069904680A98228C0E
:104970004118914233D82046203016908078012883
:1049800016D0E08B04901798806900788006800F1D
:104990007ED0039840301890007A800778D51C9814
:1049A0000028F5D0AE4F0F99FF372031206814E072
:1049B000BA4214D3B942DDD80497E4E70389A84A80
:1049C000934203D12322125C012A08D0BB4203D1B7
:1049D0002322125C012A03D000688842EED134E120
:1049E00005900028FBD09C48092102680902511853
:1049F000496B0027009162E0780100990390085A02
:104A000001055AD01999002901D0884255D105993C
:104A10007A008B69511C595C9A5C0902891889B229
:104A20000D91890749D00222059900F04CFB00281E
:104A300004D01998002840D0652072E7002008A90A
:104A4000C8551C98C00718D0179880690078C00610
:104A500013D50D98C00710D00120C8550543009A02
:104A6000039880184088159A904206D91590009AAC
:104A70000398105A0005000D14901C9880071CD54F
:104A8000179880690078800617D50D98800700E098
:104A900083E012D50220CA5D05430243CA5500993E
:104AA0000398401840881599884206D915900099B6
:104AB0000398085A0005000D14907F1CFFB2664849
:104AC0000068A030037BBB4296D8002D65D01898B3
:104AD000007A00065FD460480168092000020818C7
:104AE000416B00201BE042018E5A360515D0AE07FF
:104AF0000BD556183669B7070DD408AF3F5CBF0712
:104B000003D5360701D546200BE7EE0705D052182E
:104B1000127CD20701D0432003E7401CC0B283427D
:104B2000E1D81598C01E86B20498864200D9064680
:104B3000A8070FD5202200201499FDF759FB1290E9
:104B400000287DD0F01C82B20021129800F0E3FA18
:104B5000002811D1E80720D0202200201499FDF769
:104B600047FB0B90002807D0F01C82B200210B9865
:104B700000F0D1FA002810D0802000F0D3FA12986B
:104B8000002802D0002100F0D9FA0B98002802D0AA
:104B9000002100F0D3FA6420C3E6A1690A98069ABE
:104BA00008182499FEF7B2FB16988078012801D1E5
:104BB0000498E083002D46D0274B09201968000295
:104BC0000818416B002008AA0CE04301CF5A3F05AA
:104BD00006D05F18BC463B69175C3B4367463B61A8
:104BE000401CC0B21C4B1B68A0331B7B8342ECD81B
:104BF000A8070DD512980090F01C82B221461C31F6
:104C00000220A36900F0B8FA0220129900F0D3FA4A
:104C1000E80718D00B980090F61C2146B2B21C3160
:104C20000120A36900F0A8FA1398002805D00B987A
:104C30008021C07C08430B99C87401200B9900E0C7
:104C400005E000F0B8FA00206BE6422069E680201B
:104C500000F068FA9FE70000940300202C07000092
:104C6000032800007047704710B50749E122096822
:104C7000D2008C18A169401A0002000AFDF7E2FC7C
:104C80006169081810BD000094030020FEB5048877
:104C9000418801918688C78800890090204600F0ED
:104CA000B1FA050066D0E878002863D0A87800073C
:104CB000400F01D046255EE0202221460020FDF76E
:104CC00097FA040048D001992C48891F81424BD89B
:104CD000B11F814248D80198B04245D8FF20F53035
:104CE000874241D20099781C7043890088423BD8A2
:104CF00022490098091F0A38884235D8A068122135
:104D00000173A068E9784173A06808218173A068E5
:104D10000021C173A068019901740199A068090A72
:104D20004174A068310A8674A068C174A068390A09
:104D30000775A0684175A068009981750099A06801
:104D4000090AC1750C20E0802146052000F074FAA4
:104D5000002803D0412508E064250CE0A87806214E
:104D60000843A870002506E042250021204600F0F7
:104D7000E5F900E042252846FEBD00007A0C00005F
:104D800070B50D460B490024884204D80321FDF775
:104D9000A9FD082801D302240AE007490122096875
:104DA0002031C97D8240114202D1294600F06AFAC1
:104DB000204670BDFF0E00009403002010B50B4884
:104DC0000B49006844184034207AC00709D00020FD
:104DD00000F0AAFA217A890701D5002803D0002023
:104DE00010BD472010BD642010BD000094030020BA
:104DF0002C070000026800230B80824203D09BB284
:104E000012685B1CF8E7704700B50B4600F0AAFA81
:104E1000002808D003CB083B086003CB416000208A
:104E2000083B1860586000BD086042684A604268EC
:104E3000116041607047704730B50F4B0F4D1B68D4
:104E400004465B1940331B7A412085B09B0710D57F
:104E50006B469981DA81002018820420588203AAC7
:104E600004A96D4607C502231A4601212046FFF713
:104E700031FD05B030BD0000940300202C07000078
:104E800010B5094A094B1268D2189368083206E037
:104E90001C8D844202D100200B6010BD1B68934220
:104EA000F6D1412010BD0000940300202C07000023
:104EB00002480068AE30008870470000940300206C
:104EC0000FB410B5079C01282DD168468089174979
:104ED000884210D103A80FC800F04FFA00281DD156
:104EE00000F068FAFA281ED001281CD92078F32196
:104EF0000840207017E00D49491C884208D0C91E9F
:104F0000884205D0491C884202D0C91C88420AD177
:104F100003AC0FCC00F031FA002800D0632010BCA5
:104F200008BC04B018470020F9E70000022A00007E
:104F30002423184204D0C81F092803D82032D17175
:104F40000020704742207047F3B597B00D8848881D
:104F50000590081D1DC80DAE1DC68C8ACE8A087E20
:104F60001390C86920310190087800904878049027
:104F700088780390C87802900F79FFF71FFF002808
:104F800017D10120400284425FD8B4425DD8002F7F
:104F900001D1B44259D114A92846FFF771FF002866
:104FA00006D115AA1499059800F07EF8002802D0C1
:104FB000602019B0F0BD149D11A928461830FFF7E4
:104FC00019FF10A88088002810D0284612A9203088
:104FD000FFF710FF10A8838800892A8D1818696AC6
:104FE00010188A8B904203D16120E2E74820E0E765
:104FF00015982C4B02899A4227D12322125C012A50
:1050000023D1006800681690139801281FD16846C4
:10501000808E29221202801A030000F0EDF90604A6
:10502000180404070A18022C0FD110E0072C0CD129
:105030000DE0042C09D3E00707D1012F07D1A642C8
:1050400003D3042E01D3F00701D04220B1E7029828
:105050000B90039B049A0A9309920098019A0C976B
:1050600008900696059407920DA81DC8019002A805
:105070001CC013980B4600902A461699179800F00A
:10508000C9F9002895D168460649808EFF318842CB
:1050900005D01798018800200A46FFF7CDFE0020B2
:1050A00087E700000328000010B50B6A203106E0F6
:1050B0009C8B844202D10020136010BD1B688B4280
:1050C000F6D1412010BDF8B516460D46074600241E
:1050D00000F04CFA002806D032462946384600F047
:1050E0006BFA044604E020356879002802D00E24CB
:1050F0002046F8BD2879C10701D1012E09D08107CA
:1051000001D4022E03D04007F2D4042EF0D10324A0
:10511000EEE70224ECE710B5121D806892B200F0B1
:105120009BFA10BD04490A683B21490151180A7DC8
:1051300002430A757047000094030020F8B50E463C
:105140000C49092209681202891808380746CC6AF6
:1051500000F0B8FA05463946A06800F0BDFA72B60C
:105160007100605C401B605420794019207162B668
:10517000F8BD000094030020F8B5069C1F461546B4
:105180000646002C13D0A06802220D30FEF7BEF8B0
:10519000E81E82B23B460721204600F0B8FAE580BF
:1051A000A068012E05D01D2101730020F8BD472005
:1051B000F8BD1B21F8E77CB50C4605466A4601A9F7
:1051C00000F0AEFA002801D041207CBD6846E1889D
:1051D0008088814200D9E08000980088A080204625
:1051E00000F0C6FA0098012D07D00169082211438A
:1051F00002229143016100207CBD016949084900F8
:10520000F8E7704730B502460A480F230068DB0113
:105210000021C318A030047B07E0D86F0D014019AE
:105220000588954204D0491CC9B28C42F5D80020AB
:1052300030BD00009403002010B50C460146042840
:1052400005D0052903D0062901D0502010BDA06843
:10525000A2790272E088020AA0684272A068817294
:10526000A068090AC172E088001DE0800220207356
:10527000204600F093FA0028E8D0E088001FE08084
:10528000412010BDF8B5064625480F46006841216B
:1052900049014418092109024018016B5820704344
:1052A0000D183046FDF710F8002816D02046CF30F4
:1052B000CC3472B602780121B140082A02D36A794F
:1052C00092070ED06879800726D4154800682030F0
:1052D000C27D0A43C2753A201FE02046CE30CA3450
:1052E000E7E77A060F4B5208D2186B6B1A603A0642
:1052F00001D4132200E012226B7913436B71067004
:10530000288B2080403506486F7500682030C27DAC
:105310008A43C275002000E00C2062B6F8BD000090
:1053200094030020030202000D49092209681202B9
:105330008918C96A72B60122824350004218084B8C
:10534000095C09201B6800021818C06A52780079AD
:105350008A4202D9511A401AC0B262B670470000A0
:1053600094030020026804E08A4201D101207047C2
:1053700012688242F8D1002070471FB582B0002425
:10538000FFF796FD6946FFF77BFD009A6846116AB4
:105390000089203209E023235B5C012B04D10B89B7
:1053A000834201D1641CE4B209689142F3D12046E2
:1053B00006B010BDF8B50F48092100680902401871
:1053C0001426456F00206946087004466946284641
:1053D00000F016FA68460078FE2805D0FF2807D0AE
:1053E000002803D0FA20F8BD641CE4B2AD19EDE743
:1053F0002046F8BD9403002030B47446641E25781E
:10540000641CAB4200D21D46635D5B00E31830BCF8
:1054100018477047FFB55248524A006887B0821853
:10542000069210AA109B0126169F9288012B04D188
:105430004D4B9A4201D1A030067B069D3446403543
:10544000688B2B8B7C43C31A099820300390A342AE
:1054500022DA48200BB0F0BD2320405C012819D18E
:1054600008896C46208098420CD03F4C641EA042B4
:1054700008D0641CA04205D0641CA04202D0A41C29
:10548000A04207D1384CFF3CA04201D0904201D14C
:105490006220DFE7096801E029231B0203988142AB
:1054A000DAD109981B99846918982246FFF740FDC4
:1054B0004228CFD01C98012804D11598874201D2E8
:1054C0004220C7E71598E083204620301C990590BC
:1054D000817027840A98808B401CA0831098012833
:1054E00014D02046102211A90830FDF70FFF0599AE
:1054F0001098C8700698298B406D4018A061298BC0
:10550000384670430818288300250FE011A80FC8FB
:1055100008340FC4183CEAE72846A1697843081804
:10552000159A1799FDF7F2FE6D1CEDB2B542F3D353
:1055300005991898487105991998087105991A984C
:105540008871099821461830FFF75EFC21460398C0
:10555000FFF76AFC0798A18B018000207AE7000022
:10556000940300202C0700000229000070B50028D9
:105570001BD003050F48002100680D4A1B0DA03009
:105580001268047B0FE008467C267043D56F083014
:10559000285A0005000D984203D17C225143681817
:1055A00070BD491CC9B28C42EDD8002070BD00000E
:1055B000980300209403002070B515460C4606465B
:1055C00000F026F920346179012D09D00A0702D5AF
:1055D0004207920F0FD0CA0625D5020709D522E04F
:1055E000CA0702D04207920F05D08A0705D50207E5
:1055F00003D4082070BD052070BD490707D5C0073A
:1056000009D0E179304600F01AF95F2805D02079F9
:10561000C00704D005E00F2070BD0C2070BD022033
:1056200070BD002070BD890607D5C007F3D0E179B1
:10563000304600F004F95F28EFD02079810701D4CB
:10564000022D07D0410701D4042D03D00007E8D470
:10565000082DE6D1032070BDF7B50746184809218B
:10566000006809024018C46A41201646002F11D074
:10567000384600F0F4F80546B0420CD2301A81B238
:105680000198FDF777F9002804D132463946A06821
:1056900000F0EFF8FEBD32463946A06800F0E9F8A8
:1056A0006D1E761E69097209891A72B6019A520036
:1056B000A35C5B1AA35422795118217162B6FEBD16
:1056C000940300200021002804D0491C0068C9B2BE
:1056D0000028FAD108467047002917D072B6027820
:1056E000002A03D0436892009A58116010B4002336
:1056F0008B800278521CD2B2027044689200A15092
:1057000009680029F4D162B610BC7047704710B523
:105710001C4613460A468068214600F0F1F810BD89
:10572000F0B5944600220A806346104C1A600923A3
:1057300022681B028646D2184120526B00230FE0DC
:105740005D01AD182F697646374207D06F880E8805
:10575000B74203D90F806046056000205B1CDBB2B6
:105760002568A0352D7B9D42EAD8F0BD940300202A
:1057700010B5044601460420FFF75EFD002808D05E
:10578000044805490068401821463C3000F0ECF818
:10579000432010BD940300202C07000010B50446E0
:1057A00000202082A074A168A16161612060204670
:1057B00000F0F0F8452801D0412010BDA088032159
:1057C000FDF790F80446FCF77FFD002813D072B671
:1057D0000A48012201680920000209184878A240FD
:1057E0001043487062B60020FBF720FF002802D06B
:1057F0000020FCF71BF8002010BD000094030020DF
:10580000024A800080180068087070470000041089
:1058100010B50024FFF7AAFE00280ED00089C104AD
:1058200007D50124810401D5032402E0410400D5F9
:105830000524000401D408200443204610BD10B5FF
:105840000C46FFF793FE002807D0817A002904D088
:10585000007FA04201D3002010BD5F2010BD0021B9
:10586000002804D0491C0068C9B20028FAD14801B8
:10587000704730B400240B1E22D02034A4B29442CE
:105880001AD30A68002A35D072B60378002B03D0E9
:1058900044689B00E3581A600024948003785B1CE2
:1058A000DBB2037045689B00EA501268002AF4D10D
:1058B00062B6002008601DE00B4609680029DCD1B3
:1058C000111B491EC9040A0E72B6017891420CD907
:1058D000891AC9B24A1ED2B2027040688900920089
:1058E000415882580020106000E0002162B6196023
:1058F000002902D030BC0020704730BC47207047E0
:10590000FFB504465009000681B01F46000E06D0C0
:10591000002C23D0401E24680006000EF8D1D606C5
:10592000F60E17E02020851BBD4200D33D46A0198E
:105930002A4608300299FDF7E9FC029871194019CE
:105940000290781B87B2A088884201D2A819A08053
:1059500024680026002F04D0002CE3D1412005B09C
:10596000F0BD002005B0F0BD10B504460020086071
:10597000206800280CD0606801600846616000F073
:1059800031F8E17A4018E072A07A401CA07210BD94
:105990002160F2E710B5044680880321FCF7A2FFDE
:1059A000022172B6082815D20D4A13680922120284
:1059B0009A185823126B5843831CD35C002B09D0D0
:1059C000002110182160016A002906D0416A0C608C
:1059D0004521446262B6084610BD0462F8E7000043
:1059E0009403002010B58068FFF76CFE10BD70476F
:1059F000F8B596B0050017001E001C98049103A985
:105A00002B22885400200A9002950E9700960EE0F3
:105A1000252912D00498029A90470490002800D1BA
:105A2000D2E00A98401C0A900E98401C0E900E98E6
:105A300001780029ECD10A98C8E00020079008906E
:105A40000990022608210191012404210E9D00E005
:105A500020436D1C2A78202AFAD0232A0AD02B2A28
:105A600004D02D2A04D0302A08D00AE03043F0E7D1
:105A70000843EEE7020008201043EAE70200102086
:105A8000FAE72A2A0ED1009A17683A683F1D009B50
:105A90001F600C92002A03D553420C930143080067
:105AA0006D1C14E000210C91004A0BE0CBCCCC0C17
:105AB0000C9B934205DA9F00FB185B0059183039A4
:105AC0000C916D1C29780B00303B0A2BF0D3297800
:105AD0002E2903D00021C9430B9127E06D1C2978A2
:105AE0002A2908D1009909680A68091D009B1960D4
:105AF0000B926D1C1AE02D2902D12D236D1C00E0A4
:105B0000002300210B910CE0002B09D10B9ABC4F14
:105B1000BA4205DA9700BA185200511830390B9181
:105B20006D1C29780A00303A0A2AEDD303A90885AA
:105B30002F783900B3A000F01BFA002801D03800FC
:105B40006D1C03AF2A217854785C682805D1287829
:105B5000682802D1622078546D1C10A806902A781B
:105B6000681C0E90252A15D0582A52D0632A00D1DD
:105B7000BCE0642A00D17FE0692A00D17CE06F2A72
:105B800047D0702A3AD0732A08D0752A41D0782A93
:105B90003FD0B5E0079410A90A70BAE000980068F9
:105BA0000468001D009908600594002C13D12B2077
:105BB000385C00280CD00024E44300BF93A000F020
:105BC000E1F9201A00D1A4E00020C04317B0F0BDD5
:105BD00095A005909DE00B9D002D03D5200000F0C1
:105BE000F5F909E02A000021200000F0F7F900286B
:105BF00001D0001B00E0280008908AE000980068AF
:105C00000168001D009A1060039110A8059078218A
:105C100068E0785C622803D0682809D06C280FE01F
:105C2000009801680868091D009B1960C0B20DE06A
:105C3000009801680868091D009B196080B205E0A2
:105C4000009801680868091D009B19600390388D51
:105C50000199C0B2084240D0039800283DD02020CE
:105C60001043782839D1079810A930230B54401CD1
:105C7000431C07930A5430E0785C622803D06828FC
:105C800009D06C280FE0009801680868091D009B86
:105C9000196040B20DE0009801680868091D009B7A
:105CA000196000B205E0009801680868091D009BB2
:105CB00019600390002802D507982D2109E0388D3E
:105CC000304202D007982B2103E0C00705D5079882
:105CD000202110AB1954401C079010A807994018B8
:105CE0000590110003A800F0A0F812E007940098B6
:105CF00000680168001D009A106010A8017008E09B
:105D00000794252010A90870100002D0079610A84B
:105D100042700C980799401A0999401A0899401A3C
:105D20000F902820385C400713D420206946087162
:105D30000F9800280DDD0F9C029D012301AA03A9E5
:105D4000280000F0FAF8002800D03DE7641EF4D1E6
:105D50000295079D10AC002D0ED0029E227803A95B
:105D6000300000F0D9F8002802D4641C6D1EF5D173
:105D70000296002800D027E7302069460871099C68
:105D8000002C0CDD029D012301AA03A9280000F0CC
:105D9000D4F8002800D017E7641EF4D10295059CC2
:105DA000089D002D0ED0029E227803A9300000F03D
:105DB000B3F8002802D4641C6D1EF5D102960028A9
:105DC00000D001E72820385C400700D42FE62020CF
:105DD000694608710F98002800DC28E60F9C029D98
:105DE0000E9F009E012301AA03A9280000F0A5F838
:105DF000002800D0E8E6641E00D105E6F2E70000C6
:105E0000CBCCCC0C686C747A4C0000007072696E5C
:105E100074665F733A206261642025732061726743
:105E2000756D656E740000000000F0B583B00A0067
:105E3000C4686F2901D1082506E020211143782983
:105E400001D00A2500E01025182701680E00642AF9
:105E500001D0692A03D1002901D571420E00002E1C
:105E60000CD1016A002909D1082D31D12821415CCA
:105E700009072DD517273021E17529E002906846E2
:105E800002707F1E019730002900FEF767F930315C
:105E9000C8B23A2803DB6846007851380918E15542
:105EA00030002900FEF75AF9060004D002988068F5
:105EB000E1198842E5D30298082D09D12821415CD7
:105EC000090705D5E15D302902D07F1E3021E1555B
:105ED0001821C91B4161E2198260026A914206DA07
:105EE000511A8161018D0B4A0A40028510E0002A97
:105EF0000ED52822825C14231340102B08D1426A4D
:105F00000369D21A8369D21A511A012900DB81610F
:105F100003B0F0BDEFFF000010B503000C0011004E
:105F2000606898476060002804D0E069401CE06128
:105F3000002010BD0020C04310BDF8B50024002B88
:105F400011D007000E0014001D0021787068B847BA
:105F50007060002809D0F069401CF0610020641CCA
:105F60006D1EF2D104002000F2BD0020C043F9E70D
:105F7000C9B202788A4203D0401C002AF9D100201D
:105F80007047704780B5002801D100BF07A00649BF
:105F90000B68002B03D022220021984701E000F07B
:105FA00028F8222002BD0000680C0020636F6E7389
:105FB000747261696E742068616E646C65723A20F7
:105FC000626164206D65737361676500431C0178CD
:105FD000401C0942FBD1C01A70477047C9B2521E1B
:105FE00005D30378401C8B42F9D1401E7047002036
:105FF000704780B5012000F001F801BD80B500BFF9
:1060000000BF024A11001820ABBEFBE726000200C9
:1060100010B5C20018231340FF249C40E2438907B7
:10602000090E9940030004D55D481B071B0F083B70
:1060300000E09F489B089B00C01803681A4011436A
:10604000016010BDFEB501245648017801220A43C3
:1060500002700026544806600325FEF7FFF86946E3
:10606000088068460088002801D16D1EF5D1684679
:106070000088202836DB684600880125400525D4A5
:10608000684600F0A1F96846417809018078084324
:10609000122800DA002587480068000705D4002D83
:1060A00014D0012000F062F810E0834FF868834EAE
:1060B0003168081A283800020012002806DD002D79
:1060C00002D0012000F052F8306838607C4804703B
:1060D00000F0E1F9BFF34F8F7A487B490860BFF3C6
:1060E0004F8FFEE70120FEBD10B500220021A4481D
:1060F00004E00B00415C5918491CC9B2435C002BF9
:10610000F7D1CB1C202B12DA02234354212344184D
:1061100063700823A3704318DA709A4A80235B02E5
:10612000401880B21843106010681840FCD110BDB0
:1061300070B500210023924A04E01C00D35CE318F0
:106140005B1CDBB2D45C002CF7D102253524DE1CAD
:10615000202E05DAD554D6187470B070D218D170CC
:10616000894A157054709070D17070BD70B58021DF
:106170004902854B9CB20C43824A002804D014602B
:10618000106808400AD0FBE798789D78FB262E40DF
:106190009E70146014680C40FCD1987070BD0000B3
:1061A0001CED00E00800204014000020F2B58AB089
:1061B000040003A87DA11C22FDF724F9684600F025
:1061C00003F9704D0126002C58D003A84421817397
:1061D0006E490A78012313430B704C21C1722021B0
:1061E0000172B22141745B21017569498B6B694A67
:1061F0001C0C944209D1C47D8F272740C775C47DEC
:106200001B0170271F402743C7754B6B1C0C944222
:1062100009D14479CF272740477144791B013027A2
:106220001F402743477109680B0C934208D1C27D78
:10623000FC231340C375C27D8907890F1143C175C3
:10624000C17AFB220A40C27269464A7812018C78F0
:106250001443112C06DDC17D04220A43C275C07DA2
:10626000FFF766FF300403A989B20143296029685A
:106270000140FCD1112C01DDFFF736FF134988895D
:106280000028FBD00AA800788E8117220A800022FD
:106290004A60002807D0686810216A680A40102305
:1062A00003409A42F9D03C483C4908600BB0F0BD2D
:1062B00000E400E0C00000200400004818000020B6
:1062C0000C0000200400FA050CED00E00C00104862
:1062D00080B508203249088003210120C043FFF720
