:020000041004E6
:10000000006000203111051089F304109FF30410E3
:10001000DDCCBBAA45554C420000000000000000AA
:10002000000000000000000000000000B5F3041014
:100030000000000000000000CBF30410E1F3041006
:10004000FBF3041011F40410000000000000000095
:1000500027F404103DF4041053F404106DF404105C
:100060000000000000000000000000000000000090
:100070000000000083F4041099F40410AFF404109D
:1000800000000000C5F40410DBF40410F1F40410C7
:1000900007F504101DF504104B0B041033F5041084
:1000A0000000000000000000000000000000000050
:1000B0000000000000000000000000000000000040
:1000C000F1B5FFB095B00C001500EFF3108018905B
:1000D00072B60020A149087000F008FC060094A840
:1000E000007800F05DFC6946087094A8007800F084
:1000F000D5FC94A90978884200D908006946097896
:10010000814200D901008E4200D90E006846067077
:1001100093486946097889004018416D491C41653A
:100120006846007800280AD068460078012807D180
:100130008C48007A00218B4A117230BF1072A5E3FF
:1001400068464470E248057068464078E0490871A6
:1001500001A800F0BDFCDE48007A1E9082480088AD
:100160006A90824800686990002600208BAB804C22
:10017000810062585A50401C0828F9DB7D48C0694C
:1001800068907D48806967908025ED0528686690B5
:1001900068686590A8686490E868639028696290D0
:1001A00068696190A8696090E8691D90E86A5F904D
:1001B000286B5E90686B5D90288F5C90686C5B909C
:1001C0006E4800685A906D48007C59906B48008BCF
:1001D00058906A48007F5790694800785690684860
:1001E000406855906648007A5490654880895390DD
:1001F0006348007F529063480078519061480079CD
:1002000050906048007A4F905E48007B4E905D4869
:10021000007C4D90C64800684C90C54840684B90A3
:10022000C348007C4A90C248007D4990C14800788C
:100230004890C04880884790BE4880684690BD4836
:10024000808945900022BC481C9010051C994118DB
:1002500090000B6816AF3B504B6814AF3B508B8B34
:1002600012AF3B500B8C10AF3B508B8C0EAF3B5002
:100270000B8D0CAF3B50CB6A0AAF3B504C23CB5A93
:1002800008AF3B504C314B6806AF3B50C96804ABDC
:100290001950521C012AD6DDB02000060068449097
:1002A000A64800684390A54840684290A3488089CA
:1002B0004190A248008A4090A04840693F909F48E2
:1002C000007E3E909D48808D3D909C48006B3C9008
:1002D0009A48406B3B909948806B3A909748C06B26
:1002E00039909648006C38909448406C3790944808
:1002F000008836909248808835909148007B3490F1
:100300008F48007C33908E48808A32908C48007EE3
:1003100031908C48008830908A4880882F90894896
:10032000007B2E908748007C2D908648808A2C90F8
:100330008448007E2B90844800682A908248406858
:1003400029900848006828900648007A27907F483E
:100350000068002818D17E481B9016E00C00002091
:100360005C000020000070400400104000E100E04C
:1003700000E400E004ED00E0080090400C00304094
:100380002C003040500030401B96002271481A90DB
:10039000142050431A994018910043687BAF7B505A
:1003A000036883AF7B50836873AF7B50C0686BABCF
:1003B0005850521C082AE9DB8120C005406826906D
:1003C0008120C005007B25908120C005408B2490B2
:1003D0008120C005008B23908120C005406A2290B7
:1003E0008120C005806A21908120C005008820906E
:1003F000594800681F9068460078032806D157487E
:100400000068C02189050143544801600021544817
:10041000006850381990CF4A10651046026D136875
:100420008F00C351491C121D02651429F6DB2848B0
:100430000079274909782A68520A514088436ED1C9
:1004400001A84078000101A989780143112904DD40
:1004500044480660002000F027FC404800684249FC
:100460000860012000F05AFD00F066FD002000F059
:1004700055FD3E480078002800D087E03C480068E1
:10048000400636D43B480268394B19685140CC4885
:10049000394C2468056AAC421FD11B689A4203D0CC
:1004A000C84A12680A4018D13449096880225205A6
:1004B00013000B400468224093420ED18022D204E4
:1004C000114000680240914213D01F4802E000BF73
:1004D00000002040006880070BD52049C868020949
:1004E000D01C80235B0398421AD2CA681209824248
:1004F000FBD301A84178090180780843112805DD64
:10050000012000F0D1FB1E481649086068460078BB
:10051000032804D1114801681A4A0A400260B5E173
:10052000C8680009184BD3189842F9D1E1E700BF19
:1005300000004040240040400000A0400400F04083
:100540000400D0400400E04010E000E0000C7040E7
:1005500051E5CC1A080000A0080000C004000048C3
:100560000000041014000020180000200C000020DF
:1005700000E200E0840A0020800A00202800002019
:10058000CCBCECFCFFFFFFCF0400F0FF0120C3490F
:1005900008828E808E6000216E48199A0265026D75
:1005A0008B00C3581360491C121D02651429F6DB29
:1005B0006A98BB49088069988249086000208100D8
:1005C0008BAA52586250401C0828F8DB68987C4976
:1005D000C8616798B34988616698286065986860C3
:1005E0006498A8606398E8606098A8616198686101
:1005F000629828611D98A8621D98E8615F98E8627A
:100600005E9828635D9868635C9828875B98686447
:10061000A5485A99016059990174589901835799CD
:1006200001772030569901705599416054990172B3
:1006300053998181529901772430519901705099D1
:1006400001714F9901724E9901734D990174974848
:100650004C9901604B9941604A990174499901751F
:100660002430489901704799818046998160459965
:100670008181002210051C994118900016AB1B586F
:100680000B6014AB1B584B6012AB1B588B8310AB29
:100690001B580B840EAB1B588B840CAB1B580B8563
:1006A0000AAB1B58CB624C3108AB1B580B8006AB16
:1006B0001B584B6004AB1858C860521C012AD9DD86
:1006C0004498B021090608607948299941608660FC
:1006D0002A990160774843990160429941604199A4
:1006E0008181409901823F9941613E9901763C990F
:1006F00001633B9941633A9981633999C1633899A0
:100700000164379941643D9981856B483699018030
:100710003599818034990173339901746749329A0C
:100720000A408282319A02766548309A02802F9A76
:1007300082802E9A02732D9A02742C9A1140818223
:100740002B9901765F4828990160279901721B98BF
:100750005D4901E05C0000200860142070431A9994
:100760004018B1007BAA5258426083AA52580260D6
:1007700073AA525882606BAA5158C160761C082E29
:10078000EBDB8120C00526994160259901732499EE
:1007900041832399018322994162219981622099A1
:1007A00001801F98494908602E0D3E4800780028B6
:1007B00035D168464078002831D0384804E000BF81
:1007C00004ED00E000E100E0018809220A40092A66
:1007D00002D1E96989051FD4018811220A40112A32
:1007E00002D1E969314017D1018821220A40212A2A
:1007F00002D1E96909050FD4018841220A40412A42
:1008000002D1E969C90407D4008881210140812906
:1008100005D1E869800402D501202D4908602D4DDD
:1008200068460078032803D128682B4901402960D5
:100830001E982A49087268460078032801D10121D0
:1008400000E00021002000F051FA1E98C0071DD5DD
:1008500000F0CAFB6946088068460088304212D121
:100860001F48008800070ED5E8681E490968081A65
:100870000002001200D54042212804DAE8682D3039
:10088000EA689042FCD2152017490870189880F346
:10089000108800207FB016B0F0BD0000080010489E
:1008A00004001040080090400C0030400000404020
:1008B00010E000E00400F0400400D040BFFF000062
:1008C0000400E04000007040000C7040080000C0D0
:1008D00000E200E004000048FFFFFFCF00002040DE
:1008E000C0000020180000200000C040F8B5294DCD
:1008F000002029680A4640321378D279934347D1C1
:100900004A6E120E44D13E22525C002A40D1431E50
:1009100021488D6A467A1A460024F600AD19092648
:10092000F606376900887D1907070120002F06DACF
:10093000C302CB181C6F631B1B021B1228D4072792
:100940003F02C919496ACF0103D54A1B120212128C
:100950001ED401252D07002B06DA002A0ADA75605D
:100960000E48856003200AE01120000604437460ED
:10097000002A03DB2943084600F096FB02200549C4
:10098000096840314A78002A02D0002048700320CC
:10099000F8BD000080030020C00000204000004897
:1009A0000320704738B5334C20683349884209D159
:1009B000324D334828600021324800F0AEFB002061
:1009C0002860206030483149314A13688B4204D195
:1009D00003690024E443A34212D013688B4202D17E
:1009E0000369002B0CD012688A4209D10169294A97
:1009F000914205D14168006880F308888847FEE786
:100A000000F00EFA00F0B8FB002000F0C7FB012058
:100A100000F0C4FB022000F0C1FB012000F0D8FB75
:100A200000F0E9FBE120400200F0FEFB2324A0B22D
:100A300000F062FB641CA0B27E28F8D3164800F0D8
:100A400031FC002800D0FEE700F04EFC002800D06A
:100A5000FEE700F0B9FC00F067FC00F003FD0128A0
:100A600001D100F0F3FC002200210320FFF728FB56
:100A7000EFE7000004000020554201B01400002000
:100A8000CCBCECFC1018051000180510DDCCBBAA7E
:100A900010000410AA5555AA7006051080B500F084
:100AA000F0FB002803D100F0F1FB002801D000206A
:100AB00002BD032002BD0C0802170D010102090945
:100AC0000101060209FFFFFFFFFF0909FFFFFFFF0A
:100AD0000F21114A13681B090B404370136819401A
:100AE0008170D268426001210C4B9A4208D10C4AB5
:100AF00012680C4B9A4201D1042202E0022200E06B
:100B0000012202704278002A00D14170064909880A
:100B1000491C8900816070471C00904041A0000280
:100B20001C00001044A000F2140010407FB5040027
:100B30000D0016006846FFF7CBFF6846017821706C
:100B400041782970807830707FBD704710B5C20041
:100B500018231340FF249C40E2438907090E994063
:100B6000030004D55D481B071B0F083B00E05C48F1
:100B70009B089B00C01803681A401143016010BD18
:100B8000FEB501245748017801220A43027000266D
:100B900055480660032500F027FA69460880684634
:100BA0000088002801D16D1EF5D1684600882028F4
:100BB00036DB684600880125400525D46846FFF7E6
:100BC00087FF68464178090180780843122800DAD7
:100BD00000258C480068000705D4002D14D00120A2
:100BE00000F062F810E0884FF868884E3168081A03
:100BF000283800020012002806DD002D02D0012056
:100C000000F052F8306838608148047000F0BDF997
:100C1000BFF34F8F7F4880490860BFF34F8FFEE7D7
:100C20000120FEBD10B500220021A94804E00B0000
:100C3000415C5918491CC9B2435C002BF7D1CB1C4D
:100C4000202B12DA02234354212344186370082313
:100C5000A3704318DA709F4A80235B02401880B269
:100C60001843106010681840FCD110BD70B5002109
:100C70000023974A04E01C00D35CE3185B1CDBB242
:100C8000D45C002CF7D102253524DE1C202E05DA99
:100C9000D554D6187470B070D218D1708E4A1570B1
:100CA00054709070D17070BD70B5802149028A4B2C
:100CB0009CB20C43874A002804D014601068084096
:100CC0000AD0FBE798789D78FB262E409E70146032
:100CD00014680C40FCD1987070BD00001CED00E061
:100CE00000E400E00800204014000020F3B58BB0C1
:100CF00003A800BF82A11C2200F0F0FE6846FFF7A7
:100D0000E7FE744C01250BA80078002858D003A8F2
:100D10004421817371490A78012313430B704C21DC
:100D2000C17220210172B22141745B2101756C49AD
:100D30008B6B6C4A1E0C964209D1C67D8F273740BB
:100D4000C775C67D1B0170271F403743C7754B6BA6
:100D50001E0C964209D14679CF2737404771467914
:100D60001B0130271F403743477109680B0C934222
:100D700008D1C27DFC231340C375C27D8907890F4A
:100D80001143C175C17AFB220A40C27269464A7892
:100D900012018E781643112E06DDC17D04220A430E
:100DA000C275C07DFFF762FF280403A989B2014321
:100DB000216021680140FCD1112E01DDFFF732FFD7
:100DC000164988890028FBD00CA800788D8117224D
:100DD0000A8000224A60002807D0606810216268FB
:100DE0000A40102303409A42F9D00BA8007800284B
:100DF00002D015203C4908703C483D4908600DB0C0
:100E0000F0BD0000C00000200400004818000020D1
:100E10000C0000200400FA050CED00E00C00104866
:100E200080B508203349088003210120C043FFF723
:100E30008DFE03210020C043FFF788FE0321002020
:100E4000FFF784FE03210120FFF780FE0321042029
:100E5000FFF77CFE03210520FFF778FE0021062026
:100E6000FFF774FE03210720FFF770FE03210D201A
:100E7000FFF76CFE03210E20FFF768FE03210F2011
:100E8000FFF764FE03211120FFF760FE032112200B
:100E9000FFF75CFE03211320FFF758FE0321142007
:100EA000FFF754FE03211520FFF750FE0321162003
:100EB000FFF74CFE03211720FFF748FE0121012018
:100EC000FFF714FF0C480D49086062B601BD000031
:100ED000600A00200C0000481C0000200800204090
:100EE000B007001055AA00000000C040CCBCECFCCC
:100EF000140000200400104066000E002000904006
:100F0000023F00023E30023C20023B4C023A4002CB
:100F100039B202345B02350B00000000054900289D
:100F2000086803D0042202430A60704704229043F9
:100F30000860704710ED00E0EFF31482EFF30981D1
:100F4000002080F31488BFF36F8FF0B543464C4602
:100F500055465E466746F8B4164CEFF308832360A7
:100F600006B4154C2068154C2060154C2068154CB3
:100F70002060154C2068154C2060154C2768002017
:100F80002060BFF34F8F30BF27600A4C246884F382
:100F9000088882B003BCF8BC9846A146AA46B3466E
:100FA000BC46F0BC04BC80F3098881F31488BFF30D
:100FB0006F8F10470800002004ED00E0280000209B
:100FC00024ED00E0800A002000E200E0840A002016
:100FD00008002040304A0129116802D108431060FE
:100FE00070478143116070472C4802782C48018873
:100FF0000020002A44D109220A40092A00D12020D9
:1010000011220A40112A02D102004020104321225D
:101010000A40212A02D102008020104341220A40C6
:10102000412A03D1020080204000104381220A405F
:10103000812A03D10200802080001043FF22921CED
:1010400013000B40934203D102008020C0001043E4
:10105000144A13000B40934203D102008020000188
:10106000104305220A40052A02D102001020104335
:101070008907890F03290ED1010008200843704712
:10108000022A01D101207047042A01D102207047B1
:10109000082A00D1042070472000904008009040AA
:1010A000080010480104000030B5EFF3108172B65B
:1010B0000922D2061269FF25821A120214120C4A62
:1010C00091351368AC4208DC0122120690431A469F
:1010D0004032D479DF252C40D471C2010724D209D3
:1010E00024021B195A62034A906081F3108830BDB4
:1010F00080030020400000481C4909681C4A9142B6
:101100000AD11C493F220A814006000C8861112047
:101110000880088AC007FCD57047144A1268144B2F
:101120009A420AD1134A3F231381800890611164C7
:1011300033201080108AC007FCD570470B4A126814
:101140000B4B9A4211D10B4A3F23138180089061C7
:10115000086810644868506488689064C868D064FF
:10116000CC201080108AC007FCD5704714000020E6
:10117000CCBCECFC00001040022001490870704714
:10118000880A0020012802D0022803D004E0802031
:10119000C001704701207047082070471CB504004B
:1011A00001210120FFF716FF2000FFF7EBFF009061
:1011B000684606210171002181710121417100F011
:1011C000B5FC2000FFF7DEFF012100F017FD13BD85
:1011D00080B5FFF7D7FF002100F010FD01BD80B5FD
:1011E000FFF7D0FF012100F009FD01BD0A480168A9
:1011F000491C0160704709480949416009490A686A
:101200001202120AC0231B0613430B6000218160E7
:1012100007210160704700002400002010E000E07A
:10122000FE7C000020ED00E0F0B585B00700012154
:101230000920FFF7CFFE8020400000906C4601257A
:1012400025710026A6716671684600F06FFCE80201
:1012500000902571684600F069FC0297032002A9FE
:1012600008714871CE804E7208728D7202A800F02B
:10127000DDFC002000F081FD012000F0CBFC05B07A
:10128000F0BD80B5802000F06AFD07E080B5082041
:1012900000F065FD012800D0002002BD401E804105
:1012A000C00F02BD10B5837F012200249202416865
:1012B000082B03D94224914202D310E0914201D27B
:1012C00042240CE001463422064800F073FD00F091
:1012D00085FD002801DA482401E000F0BDFD20462C
:1012E00010BD00002C0A00201FB5684634A10CC9AF
:1012F0000CC06A460621002000F022FE00F024FE09
:1013000002A80190801C009003AB0722002101205D
:1013100000F01EFE00F0C8F804000421012000F0D7
:101320002FFE200004B010BD18B58BB0144C2078EF
:1013300000281BD007A800BF1DA1102200F0CEFB83
:101340001049122000F020FE002006900590049025
:10135000039007A802900E20019000200090012326
:101360000022002100F01BFE002020700CB010BDF8
:10137000704780B501200249087000F06FF801BD88
:10138000880300202403002080B51A00029BD2B2FB
:1013900000F000FA01BD80B500F022FE01BD022977
:1013A00000D0704780B5100000F0D4FA01BD0000F5
:1013B000094F5441536572766963654D6772000049
:1013C000123400E18002000070B500F00FFE1D4CE9
:1013D00001252068ED0241190979002909D1A030C1
:1013E0000079C00727D000F08FFE00F0C3FE00F0A8
:1013F000CFFE00F053FF2068014640310A78C979DA
:101400008A4317D13E21095C002913D10E490A886D
:1014100012070FD50922D2061269497A836A401948
:10142000006FC900801A000259180012814201DAC7
:1014300000F096FF70BD01F03FF801F05DF801F09B
:1014400029F9D2E780030020C0000020BFF34F8FAE
:10145000CD48CE490860BFF34F8FFEE7CC48817876
:101460004170704710B5CA4C2078002807D0002082
:10147000207001F0DDF99321A08C01F0E1F9607892
:1014800010BD10B500E0521E130609D00300581C11
:101490000C00611C1B782478A342F4D0012010BDFD
:1014A000002010BD00000000F0B58DB00AA800BFFC
:1014B000A1A11CC91CC00220FFF770FE06AC66206B
:1014C00020709A2060700C20A0702020E070002016
:1014D000207108266671A720A071BA20E071E32070
:1014E0002072112060720620A0728527E772C0204A
:1014F0002073F72060739720A0738A20E073A44DB7
:10150000102206A92800383000F054FC28001030C2
:1015100000900A23012229003831022001F094F9B9
:10152000002837D1662020709A2060700C20A070AF
:101530002020E070002020716671A720A071BA20E1
:10154000E071E320207211206072A672E772C02061
:1015500020738C2060732E20A0731220E073102261
:1015600006A92800483000F025FC2800123005901C
:10157000002004901020039004200290002001908D
:101580000220009008232A0048320221288A01F014
:1015900076F9002800D0CCE0662020709A20607098
:1015A0000C20A0702020E070002020716671A72020
:1015B000A071BA20E071E320207211206072A6723F
:1015C000E772F0202073992060730F20A073212010
:1015D000E073102206A92800483000F0EBFB280039
:1015E00014300590002004901020039005200290F4
:1015F000002001900E20009009232A004832022189
:10160000288A01F03CF9002847D10AA80390092054
:10161000029000200190092000900123AA8A298AC3
:10162000A88C01F04BF9002837D1662020709A2051
:1016300060700C20A0702020E07000202071667186
:10164000A720A071BA20E071E320207211206072FF
:10165000A672E77280202073AA2060739120A07385
:101660002620E073102206A92800483000F0A2FBD3
:1016700028001630059001200490102003900520CA
:101680000290002001900E200090D4232A004832BE
:101690000221288A01F0F3F800284AD16620207040
:1016A0009A2060700C20A0702020E0700020207133
:1016B0006671A720A071BA20E071E320207211208A
:1016C0006072A672E7726020207357206073DC207E
:1016D000A0732B20E073102206A92800483000F0E8
:1016E00069FB28001830059000200490102003901A
:1016F00004200290002001901220009004232A0070
:1017000048320221288A01F0BAF8002811D18F4806
:1017100004908F48059004A8039002960020019041
:10172000009601236A8A298AA88C01F0C7F800284C
:1017300000D047200DB0F0BD020000000000000006
:10174000000000001FB50100C84C608B401C01F078
:10175000DCF8002911D120000C3003900420029005
:1017600000200190042000900123228B218AA08C6C
:1017700001F0A4F80020607160831FBDBB4A012303
:101780005371D081918170470400FA050CED00E09F
:10179000CC020020F8B584B0B44CA0840025A08A07
:1017A000401C814228D1E570257118790006D9784E
:1017B0000904401899780902401859784018E062E5
:1017C000187A0006D9790904401899790902401855
:1017D00059794018A0621978012901D0032901D153
:1017E000012100E0082121726063A5832563E58360
:1017F000042001F01DF8A7E0208B861CB1421AD10D
:10180000E583A581E58121000C310391042102913A
:101810000195009101230200218AA08C01F04EF86D
:10182000002802D10220FFF7D3FC607A032801D000
:101830001720E08488E0E08A401C8142FAD1607978
:10184000002806D0608B401C6083207AFFF77AFF67
:101850007AE0E08C001F0090C110090F08180011F9
:101860000290C0010190A08B019988426CDA1000AF
:10187000A28B0390944819000CE0855406E0E76AB7
:10188000BA42FAD24F1C961BBE5D8654865C5E40FF
:10189000E671521CA68BE379039FF7193F1FBA42EA
:1018A000EDDB03980818C01E077846787E408078E4
:1018B00070405840E071A283238C5A1CE08BE6797B
:1018C0000F78BE4232D1029E36018919CE78360297
:1018D0008F78F6196684668CB0421FD1401CE08375
:1018E0004978012906D0761C02994E433101E26AFB
:1018F000914228D3A081E581A68B3000019901F0A7
:1019000004F8002907D0E06A216B401A0199884247
:1019100019D2864217D30120A07114E06083002BF6
:1019200000D10022E283E18BF02006E06083002BEF
:1019300000D10022E283E18B0F20FFF71FFFA58378
:10194000207AFFF7FFFEE57105B0F0BD1005180025
:101950001007EFFFF8B584B00400444DA8790028C3
:101960007AD001F02CF80100200001F031F80400D9
:10197000E88C001FC110090F081800110001001D9C
:10198000C000C110090F081800116B214843FA214B
:10199000890000F0BAFF401CA0425DDA0027AF7159
:1019A000AF71688C2884A86A296B4018686300248A
:1019B0000021454E04E01034A4B2686B1030686317
:1019C000AA8B944222DA686BAB6A10339842F2D049
:1019D000111B102904DB3119FFF7B0FB10220FE0B7
:1019E0003119C97809063219927812048918321906
:1019F000527812028918325D8918FFF78EFB042293
:101A00003119686BFFF73DFD0100D4D0002906D1E4
:101A1000286BA98B401828630020AF8300E03C208E
:101A2000E88128000C300390042002900197009078
:101A300001232A8B298AA88C00F040FF286BE96AD1
:101A4000884209D30220FFF7CAFB20492048FFF74C
:101A500064FB01202870A87005B0F0BD1D48C91EA8
:101A6000C184417A02220A4342727047CC020020AC
:101A700038B504001748417A01220A434272C08CEB
:101A8000001FC110090F091809110901091DC9001A
:101A9000FA25AD00C810000F401800116B21484313
:101AA000290000F032FF401D68430B4900F02DFF74
:101AB0000100C8200001009000238AB289B22000F2
:101AC00000F08CFF31BD00008C030020AA5555AA00
:101AD00010180510CC020020E204000070B4103A87
:101AE00003D378C9103A78C0FBD2530701D318C981
:101AF00018C001D508C908C0D20704D30B880380D9
:101B0000891C801C002A01D50B78037070BC7047BB
:101B10008B0701D18307E1D0124205D00B78491C15
:101B20000370401C521EF9D170477047F0B504791C
:101B300022000021354B002C04D11C680568AC4301
:101B40001C6006E0062C04D100221C6805682543B1
:101B50001D600568CD40ED0738D5082909DA8D00EC
:101B60009E6A0F27AF40BE431700AF4037439F62C6
:101B70002CE00D00083D082D0BD20D00083DAD00F6
:101B8000DE6A0F27AF40BE431700AF403743DF6226
:101B90001CE00D00103D082D0BD20D00103DAD00D6
:101BA0001E6B0F27AF40BE431700AF4037431F6384
:101BB0000CE018290ADB0D00183DAD009E8E0F27A2
:101BC000AF40BE431700AF4037439F86491C1A29D8
:101BD000BFDB01684279012A9A6802D111439960FA
:101BE00001E08A439A60016880790128586802D12F
:101BF00001435960F0BD88435860F0BD044A012993
:101C000001D1106070475060704700000400004030
:101C10003C0000405E490028086803D001220243CE
:101C20000A6070470122904308607047F0B50400D5
:101C300021680125574E58487269D2082A4001D1BF
:101C4000090100E0C90000F063FEC1093181090407
:101C5000490A401A401C400881B23F2902DD3F3842
:101C60008006800E307360209F21327C0A402379E9
:101C70005B0103401343337432781140627952019F
:101C80001040084330700821F720327C0240A379CD
:101C9000DB0008271F401743377432781040A279C1
:101CA000D200114001433170E179002907D1FD20B4
:101CB000317C014031743178084030701CE00220E2
:101CC0000229317C0BD101433174FB21327C0A4063
:101CD0003274327810433070307801400BE00143A9
:101CE00031740421327C042313433374327810435B
:101CF0003070307801433170706928490140207A92
:101D00002840400208437061706925490140207AEB
:101D10004008284000020843706170692149014071
:101D2000607A284080030843706170691E49014051
:101D3000607A40080540E803084370611020EF21F5
:101D4000327C0A40A37A1B01034013433374327878
:101D50001140A27A1201104008433070F0BD01001A
:101D60001248002901D5006800E0808AFFE70140A1
:101D7000080000D00120C0B270470D490A78C7237F
:101D80001340C0003822FFE702401A430A70704730
:101D9000300030401C0030400000127AFFFDFFFF91
:101DA000FFFEFFFFFFBFFFFFFF7FFFFF040030408C
:101DB0003400304010B50400FFF7AAFE200010BD2B
:101DC00010B50400080011000200200000F012FE0F
:101DD000200010BD80B500F037FE02BD70B50025B3
:101DE000ED4300F054FE01282FD0002318490322B0
:101DF000888BFF24401E10438A7F5134624382182F
:101E0000088B282460431218488B30246043121832
:101E10000846203040782C24604310180D4A1818CA
:101E200084184869A0420ED11320C00184420AD907
:101E30000D6900F02CFEC1B2284600F02BFE00F028
:101E40005BFF401B251A284670BDFF23B533CDE745
:101E50002C0A002051190000F8B50626324840250A
:101E60000560324800270780A9050920C0064160A7
:101E70002F4A9160016801602E480321046942697C
:101E8000601E08433946401CFFF79AFF00F0FFFD33
:101E9000C1B2204600F0FEFD00F02EFF00F02EFF44
:101EA00000F080FF244917208881244C20684219C3
:101EB00001465770FA2088622820107000F073FFE6
:101EC000012805D1206810224030017811430170AB
:101ED00000F06BFF012805D1206880224030017896
:101EE000114301702068014640300278324302708D
:101EF0000020C043086600F05BFF00F065FF00F0C3
:101F000095FF2068012120300177072141770120CA
:101F100000F0CEFF00F0EEFF00F0C0F9024880387C
:101F2000056002210160F8BD80E100E0C0000020F2
:101F3000400000482C0A00200000104880030020C8
:101F400010B501F033F810BD10B501F0BDF810BDAB
:101F50007CB5069D079C002805D0860705D146075D
:101F600003D4060701D442207CBD002903D00129F7
:101F700001D00229F7D10095019401F06FF97CBDE1
:101F800010B500F095FF10BD10B50A461F2801D905
:101F9000122010BD0146104601F05EFA10BDFFB5DB
:101FA00087B0109D159E169C01930295009407A87A
:101FB00007C81F46334601F07DFA00280ED113985A
:101FC000149903AA069443C211981299019000959E
:101FD000029107A807C83B4601F09AFA0BB0F0BD82
:101FE00010B50022114601F0AFFA10BDF0B5002681
:101FF00093B0701E0E904248E1210068C900441859
:102000000920C0060069374605022D0A72B6A0698C
:102010002146281A0002000A223101F009FB6169F9
:10202000A56140186061364800684030C1798A0671
:1020300063D420221143C17162B6256814E0A868F8
:102040006169401A00280ADCBA0001A8761C855094
:102050007F1CF6B2FFB2287B01F002FB03E00E9971
:10206000884200D20E902D68A542E8D12046083063
:1020700000250C901830129018E0AF0001A8761ED1
:10208000C159F6B2204601F029FB01A8C1590C98AC
:1020900001F034FB01A8C059007B3A2804D2129801
:1020A00012990078401E08706D1CEDB2002EE4D12C
:1020B0002068A04217D03D256D04284601F025FB7D
:1020C00001460E98814201D8284601E001F026FB26
:1020D000A169081800020121000A09064018FEF74C
:1020E000E3FF13B0F0BD72B600200549072209686E
:1020F0001202891848620349886062B6F1E700005D
:10210000800300204000004870B572B6184D40238F
:10211000286801464030C2791A43C27162B6DF2690
:10212000F600881901F00AFB002812D128688019EE
:1021300001F00BFB04460AE0204601F009FB0028F1
:1021400007D128682146801901F034FB2468002C4F
:10215000F2D12868801901F0F1FA012807D072B68F
:102160002868BF224030C1791140C17162B670BD8C
:102170008003002010B501F03FFB01F03FFB00F0B1
:1021800086FC012801D100F06EFC01F039FB10BD86
:10219000FEB572B63F4D0823286801464030C2792B
:1021A0001A43C27162B6002001276C46FF0282000A
:1021B0005218D219526952884300401CC0B2E252F0
:1021C0000328F4D372B6C81900210668016062B60C
:1021D000F00702D0002001F037FBB00702D5012044
:1021E00001F032FB700702D5022001F02DFB300711
:1021F00002D5032001F028FB002623E00D281AD287
:10220000211D254A8000125820469047002812D0F0
:1022100072B62868F7224030C1791140C17162B6A8
:1022200030E03A2807D21C49231D8000E8390A58BB
:10223000194620469047029829684018C0194069FD
:102240002188018071006846415AB00002902A68D6
:102250008018C019406902889208920014180288F8
:1022600008348A420ED0A27891070BD09107890FCB
:10227000012901D104460834A0788008C006E0781E
:10228000CFD5BBE7761CF6B2032EDBD301F0DEFA26
:10229000FEBD0000800300204CFA0410F8B52C4F5E
:1022A0003C68206E5C34401C002814D0002529486E
:1022B0000023C07B00283ED00926F6062648002DC4
:1022C0001CD000210A460B464169521C994204D198
:1022D000002902D004E00125E9E7204B9A42F2D31D
:1022E0002160006960603069A1680002090E000A7F
:1022F00009060143A16001F0C3FA1DE03169A2683B
:102300000902090A150E08D0018BC90712D04169CC
:10231000216000696060E37210E0881A00027D238A
:1023200000121B03984205DD100E00060843A06052
:1023300001F0A6FAF8BD6360002DFBD003CC01F0DC
:10234000ADFAFA2001F0EAF939688862F8BD0000B8
:10235000800300204C0A0020000010488813000071
:10236000FEB552480088582341075148490F02687A
:10237000092000021018026B59435418A2782569ED
:102380005207520F216A0092022A01D0052A20D159
:102390002A0404D46279920701D1002919D0A66ACF
:1023A000444A2B0443D563799B0715D0676B77802C
:1023B0000120C0038543256100F069FB012809D095
:1023C0001F217878014204D0218A890401D5001D9B
:1023D0007870FEBDFF21F4E70029FAD01542F8D14C
:1023E0000A7CC06BD206D20E921C1718B8B20190AC
:1023F0007080204601F096FA0120C00385432561D4
:1024000005110098052800D1AD0000F040FB01281F
:102410000BD01F217878014204D02169294201D0D4
:10242000001D787001987080FEBDFF21F2E7708872
:1024300001235B07C01863799C469B0704D0636B3C
:10244000834201D0012700E00027666B864202D05C
:102450002388834212D1002912D015420ED10123C4
:1024600000290ED086420CD02488844209D0096805
:10247000002906D0154204D1012103E00023EFE733
:102480000023002162469206920F03D00022002F03
:1024900006D101E00122FAE70B43C5D0002AC3D0E0
:1024A0000178102211430170FEBD0000C000002021
:1024B00080030020600600001FB50E480468AE349B
:1024C000E078010612D5A178C9070CD0800708D59D
:1024D000042069460873684601F066FA022001F09C
:1024E0008FFA0020E0704006400EE07001F0B0FA74
:1024F0001FBD000080030020F0B58BB000206349B1
:10250000029063480A68141872B610464030C579C4
:1025100002231D43C57162B625464035287AC0079F
:102520007DD00920000210180026476B49E0710198
:102530007A5A002A43D0C919069109694A021ED461
:102540008A0226D5022104910699012309880905EA
:10255000090D0391372149014118097B89070ED5DF
:10256000D9020830401823224069022101F072FA92
:10257000010004D0039A8A80049801F0C9FA0698F1
:1025800000880090069801F0D7FA009801F052FBFD
:1025900015E0480713D5069800880005000D01F0E6
:1025A00057FB002805D1069800880005000D01F0B2
:1025B00073FB069904200969814306980161761C22
:1025C000F6B23248AC210068095CB142AFD801F0E4
:1025D00009FD20462430064601F0B0F8012802D05B
:1025E000012001F0B5FD2046183001F0A7F80128C0
:1025F00002D0002001F0ACFD3C34204601F09EF8F2
:1026000001280FD002A9204601F09EFE0420029965
:1026100001F0B1FE0028F0D02046029900E032E03F
:1026200001F0CFFE287A00062DD5304601F086F85D
:10263000012828D1002001F0D7FEA98B23314909B8
:10264000491CC9B200F064F900281CD00F4D0446A3
:1026500028680123D90208304018422638224069F0
:10266000314601F0F7F901000DD000228A80CC80BC
:10267000304601F04DFA3B212A68490151180A7D84
:10268000802082430A750BB0F0BD0000800300205B
:102690002C070000F0B593B00020069072B6614D93
:1026A000042228684030C1791143C17162B601F03B
:1026B000B9FE00275C4E73E03068C16F7C20784320
:1026C0000C186BD02089002868D0617BC9075FD0C7
:1026D0000005000D21462A310190102211910CA80D
:1026E000FFF768FB07A9204601F09EFE00283CD0BA
:1026F000019801F0D9FE0B90207B80070CD0019847
:1027000001F0DAFE0246494B0021012001F0F6FEFD
:10271000207B00090001207302200490019803909F
:10272000032002903721286849014118897A012342
:10273000890712D5D90208304018132240690221B6
:1027400001F088F9010008D0039A8A80029A0023D8
:102750008A71CB71049801F0DBF90B983A280AD002
:10276000607B40084000607312E007A9019801F007
:10277000E5FE0B90F1E710220CA91198FFF71AFB68
:1027800072B62868FB224030C1791140C17162B62F
:10279000A07A002802D0204601F0D8FE7F1CFFB2AC
:1027A0002868A030007BB84286D834E006A930689B
:1027B00001F0CAFD0698808801F08EFF04002AD03F
:1027C00006988168097B052905D0214601F0AAFFFA
:1027D000FF2807D013E0A17AFB2918D0214602F088
:1027E00039F814E006988168097B032909D0E17A59
:1027F000090706D500900194684602F033F80028D6
:1028000005D00699306801F0DCFD13B0F0BD012160
:10281000069802F029F8306800F090FF0028C5D033
:10282000F3E70000800300208403002030750000DF
:10283000024909686831C880002070478003002081
:1028400010B502F02FF810BD70B586B014461D46C5
:102850000A4603466946881C0A9E02F027F80028AB
:1028600004D1012C04D0022C02D0422006B070BD4D
:1028700023462A466946304602F02CF8F6E7F0B5C2
:1028800087B01C460B46054600A9023101A80C9FE3
:102890000D9E02F00BF800280ED168460580848258
:1028A0008775C6750E9901760F99417610998176D4
:1028B0006946119802F0BEF807B0F0BDF0B585B0DA
:1028C00084460AA8F0C868468581C68103A801909D
:1028D00002970094604602F04BFA05B0F0BDF44652
:1028E000002804D4494200F013F8404260474042B7
:1028F000002905D45FD000F00BF840424942604700
:10290000494200F005F84942604703460B43E6D4CC
:102910000022030A8B420BD203098B4219D24308CF
:102920008B422ED2411A00D20146524110467047C6
:10293000FF2209023FD012068B4205D31212090270
:102940008B4201D31212090203098B4219D300E012
:10295000090AC3098B4201D3CB01C01A5241830932
:102960008B4201D38B01C01A524143098B4201D3E0
:102970004B01C01A524103098B4201D30B01C01A0B
:102980005241C3088B4201D3CB00C01A5241830885
:102990008B4201D38B00C01A524143088B4201D3B2
:1029A0004B00C01A5241884200D3401A5241CFD244
:1029B00001461046704708B502F0A2FB08BD10B5ED
:1029C0000920C00600690002000A02F09BFB10BD4E
:1029D000401AC01081004018001270473EB56C4686
:1029E000069D20806180A280E3802581684602F0F8
:1029F0009BFB3EBD1206130A1A43130C1A4300BF79
:102A0000094205D0830707D00270401C491EF9D146
:102A1000704700000022FFE71300103906D330B4DE
:102A20001400150010393CC0FCD230BC490700D35B
:102A30000CC000D504C0890002D30280801C00298C
:102A400000D5027070470000A446521E08D30378D8
:102A50000C78401C491CA342F7D0181B64467047F1
:102A600000206446704780B502F0D8FB01BD80B5F8
:102A700002F0FEFB02BD80B502F08EFC02BD80B507
:102A800002F0C4FC02BD80B502F0EAFC02BD0120E8
:102A900070470000F3B581B01322D201012101A8D3
:102AA00002F038FD914C04222060432101A802F07D
:102AB00031FD01252168ED02491988600422432176
:102AC00001A802F027FD216804224919C860FF21EE
:102AD000843101A802F01EFD21680C224919844DA1
:102AE0000861A97F01A80B3102F014FD09262168B5
:102AF000360289194865A97F202201A802F00AFD43
:102B00002168102289194864A97F01A802F002FDFA
:102B10002168282289198864052101A802F0FAFC9D
:102B20002168302289190865052101A802F0F2FC0C
:102B30002168FF228919C8640132012101A802F02D
:102B4000E9FC216858228919C865A97F01A802F00B
:102B5000E1FC2168202289190863A97F01A802F0FD
:102B6000D9FC216889194863AA8B012101A802F0C8
:102B7000D1FC0F272168FF01C9190860298B282281
:102B800001A802F0C7FC07212268090251188867D2
:102B9000698B302201A802F0BDFC072122680902DE
:102BA0005118C8670C22012101A802F0B3FC21686A
:102BB0000C228919C862012101A802F0ABFC21682E
:102BC00028228919C96A88602846203000904178F7
:102BD00001A802F09FFC216804228919C96A89684A
:102BE00088600098417801A8491C02F093FC216894
:102BF00010228919C96A89684860A97F01A802F072
:102C000089FC21680222C919C867A97F01A802F0BE
:102C100081FC21680222C9194865A97F01A802F038
:102C200079FC21680222C9198865A97F01A802F0F0
:102C300071FC21680222C919C865A97F01A802F0A8
:102C400069FC21680122C9190866A97F01A8491CED
:102C500002F060FC21681022C91988670B2101A8C5
:102C600002F058FC072122680902511888610422E9
:102C7000802101A802F04EFC216889198863029A1C
:102C8000DC204243012101A8443202F043FC2168C8
:102C90008919C863029AD8204243012101A82C3225
:102CA00002F038FC2168F02289190864012101A88A
:102CB00002F030FC0F4C7C222060A97F01A802F0BA
:102CC00029FC21680822C867032101A802F022FC20
:102CD0002168282280310860012101A802F01AFC35
:102CE0002168803148600198FEBD0000800300200B
:102CF0002C0A00208403002070470000F0B527480C
:102D00000921036809025C18606D1122D201054691
:102D10009A180C35556410640C3595640C35D564DF
:102D20000C3515650C3555650C35956502465432E4
:102D300062600C32A2600C32E260783020610020C8
:102D4000174A5C1811E0636C45015E195823434330
:102D50001D46276B3433FE500C234343666D84338A
:102D6000F3182835266B401C7351937F8342EAD8B1
:102D70000A4B00201C68641807E0A56C0601AE1918
:102D800045010835676B401C7E51957F8542F4D81C
:102D9000D0681A6851180866F0BD00008003002052
:102DA0002C0A002070470020704700207047000068
:102DB000C0200006016880220A4302600168802268
:102DC00091430160704700003EB5174D15482968D2
:102DD000827F0846A0310A7300246030047644766E
:102DE0008476E122C2768022027702224277302066
:102DF00008704C7002AA01A96846FDF797FE684664
:102E00000078A22201016846007A891C0002014371
:102E1000684600790003014328681152A03004710C
:102E20003EBD00002C0A00208003002070B502F097
:102E30007DFB02F095FB02F059FC02F08BFC02F0E6
:102E400099FC184C18492068184D40188110092029
:102E50002A68000210184167616889088167A168C3
:102E60008908C16702F0B2FC0F202968C001228BDB
:102E700008188281628BC281A28BC280628C02811F
:102E800022462032127882723B2252010020891899
:102E9000087502F0B9FC02F0C1FC02F0FDFC02F082
:102EA00009FD70BD2C0A00200000FCEF800300200B
:102EB00010B5012818D8072916D80C4A12681346ED
:102EC0002033187759778007C906000E090E014391
:102ED0000020074BA03204E08401E418A172401CDA
:102EE000C0B2147B8442F7D8002010BD80030020BC
:102EF0000001002070B52A4D284A28680021FF30C3
:102F00001B30FEF75DFF2868FF21F22211541122C9
:102F100092018218117651769176224AF4210A5054
:102F20002F235B01F822FF21C018FEF749FF1E4B3B
:102F300028687822FF21C018FEF742FF1A4B286844
:102F4000F8337822FF21C018FEF73AFF9D23286846
:102F5000DB007822FF21C018FEF732FF2326286805
:102F60007601002481190C722721490141180C7146
:102F70002B21490141180C70172189014018047751
:102F8000FFF71DFD296801230A46803290678819E2
:102F90000471E0314B74D467847170BD3903000053
:102FA00080030020905F01006C040000F0B5444FE6
:102FB0000446386885B0783016460D46002C19D086
:102FC000062C11D0082C0CD0182C0AD0282C0BD091
:102FD0002A2C09D02C2C0AD02E2C0BD0D02C42D04D
:102FE00043E0102D08D040E0022D05D03DE0012D3A
:102FF00002D03AE0062D38D10A4600193146FEF7D4
:10300000D9FE2C2C28D13078002825D0FFF73FFDA1
:10301000012824D01B201F304009401C41004118CA
:10302000012002F06DFCFFF732FD012819D01B20B2
:103030001F3040094100411822484078401AC01E04
:10304000C1B2002002F05CFC3868402240300178B8
:103050001143F92211400170002005B0F0BDFB20A2
:10306000D9E7FB20E4E7012D04D0FFF710FD01288C
:1030700004D007E0107802F04FFCEEE7D12C01D12C
:10308000082D01D01220E8E7022231466846FEF7FB
:1030900091FE0222B11C01A8FEF78CFE0222311D16
:1030A00002A8FEF787FE0222B11D03A8FEF782FEEA
:1030B00068468389028981880088FFF7DCFCCCE7B9
:1030C000800300204C0A0020F0B55FA099B0006892
:1030D0005E4915905E4A0868841809221202821817
:1030E000526B2546403514922A7AD20702D06220CC
:1030F00019B0F0BDAA8B01235B029A4201D9AB83C0
:1031000003E0172A01D21722AA83149AA03013923F
:10311000067B0DE0761EF6B2139871010F18B868A1
:103120000F90384620220021FEF74AFE0F98B86023
:10313000002EEFD120460830E0606460A06024607B
:103140000830139060612061FF220021083002F0F6
:10315000F4FB2046FF220021243002F0EEFB204643
:10316000AA7F0021303002F0E8FB2046FF22002138
:103170003C3002F0E2FB00222A7210461721334B4A
:1031800005E0149E4701BE19401C7180C0B21E6844
:10319000A036367B8642F4D8002028832F8C688C9A
:1031A0000026149008E02820E16C7043091820469E
:1031B00000F0A4FA761CB6B2BE42F4D3002608E0B2
:1031C0003020216D70430918139800F097FA761C8F
:1031D000B6B214988642F3D3012002F0B7FB012463
:1031E000684604701B4941802346042269460CA8A6
:1031F00001F070FB002822D16846018E81821649B9
:103200000183042606858475202108A88172002484
:10321000C472047307214173847305A90DA801F0DA
:1032200009FC00280BD1684604874687818E15ABC0
:103230000EAA008E02F096FB002800D158E700206D
:103240002872472054E700000000FFFF80030020A1
:103250002C07000001180000052A0000FFB50C46ED
:1032600078A103C995B001910090002108A80173CD
:103270000321C90268464186012108A8734E0174E2
:1032800035681746AE3502F0A1FB002808D1704919
:103290003068401802F02EFCA878002802D04620A2
:1032A00019B0F0BD0BA8159902F02EFC0028F7D13B
:1032B000072010A90871012C05D0022C0AD0002C7F
:1032C0000ED04220ECE708A8017B1020014308A89B
:1032D000017305E011A90BA802F024FC0028DFD13E
:1032E00010A8027901230CA9284601F0F3FA00285E
:1032F0007ED1022229461898FEF75CFD298868468F
:1033000081811521490201820784012686734E219D
:1033100008A881700024C47006710721417186716C
:1033200003A902A801F086FB002861D1022202A9AC
:103330001E98FEF73FFD082F02D26846478502E03F
:1033400008206946488569460C850B4628880AAAE4
:10335000098902F007FB00286DD13E4968460182C9
:103360000227078408A8847103A902A801F062FB60
:10337000002860D1022202A91F98FEF71BFD6846B3
:103380000470694644704F850B4628880AAA09894B
:1033900002F0E8FA00284ED108A8007BC00723D02D
:1033A0002C496846C91C01820821018408A887703D
:1033B000047103A902A801F03DFB00283BD1FF21C5
:1033C0006846C1718171C170817041700170447132
:1033D00004716946082048850B4628880AAA09898D
:1033E00002F0C0FA002826D108A8007B800600E081
:1033F00021E022D52988684681811649A5310182BC
:103400000684867308A88770C4700471072141710F
:10341000847103A902A801F00DFB00280BD16946B5
:103420000E700C854E850B4628880AAA098902F081
:1034300099FA002801D0472032E708A8007BA8703D
:1034400000202DE7626C75656E7267218003002095
:10345000EF060000012A0000F0B5154A412312686A
:103460005B01D3181A6C154608321F2901D9302088
:10347000F0BD00249E6B1F6C365D3E55641CE4B2AB
:10348000082CF7D3002405E00678641C1670401C55
:10349000E4B2521C8C42F7D3186C891D4170986BB2
:1034A0009D6318648033186A45800020F0BD0000D9
:1034B00080030020F0B5054600200F46079E059CBE
:1034C000174309D0202905D30127BF03BA4201D8E9
:1034D000914201D94220F0BD194621430AD09C42B5
:1034E000F8D309498C4203D00849A41F8C42F1D279
:1034F000062BEFD3002D03D0022D01D0032DE9D1EF
:10350000032EE7D8F0BD0000FFFF00007B0C000099
:10351000F0B58DB00C4616A9E0C9002108910991BB
:103520000A910B911599049105A9E0C112A962C9EC
:10353000009301911346014603960295224601200D
:1035400002F0F2FA0DB0F0BDF7B5064636480F4668
:103550000068364982B04418304602F09FFB0500EF
:1035600060D020462430009000F0E8F8002859D1BF
:103570002869000356D5009800F0E7F804464FE0AC
:10358000A088B0424BD120223146002002F0A4FB9B
:10359000060018D0A068002F017B427B15D033466F
:1035A000049802F0BBFB002001222969D204914358
:1035B000296100282AD0692802D0304602F0C2FBD7
:1035C000002005B0F0BD6420FBE70A2906D00C29D5
:1035D0000AD00E290ED0082912D023E03246214607
:1035E000284602F0C5FBDFE732462146284602F0B6
:1035F00054FCD9E732462146284602F0EFFCD3E7D7
:1036000032462146284602F0B3FDCDE72146009818
:1036100000F0D0F80121204601F026F9CDE724681A
:10362000002CADD14120CCE7800300202C07000006
:1036300010B50A4A830B12688004526A800C140A7F
:1036400060435A438009101800228A5E821A10468D
:103650004030C009C3019A1A0A8010BD80030020BF
:1036600010B5030002F0EEFE3A332D2D2D1E213051
:10367000332A2A2A2A2A2A2A2A2A242424242424C5
:1036800024242424242424242424242424242424FA
:1036900024242424242424242424242727272727DB
:1036A0002727273302F0DCFE10BD02F0EFFE10BD2D
:1036B00002F010FF10BD02F01BFF10BD02F048FF2A
:1036C00010BD02F067FF10BD02F0A0FF10BD3A3838
:1036D000C0B20428FAD202F09AFF10BD00B50B4622
:1036E00002F096FF002808D003CB083B086003CB0C
:1036F00041600020083B1860586000BD08604268C7
:103700004A60426811604160704708B500216A460E
:1037100011806946FFF78CFF08BD00000649C20B07
:1037200009684004096A400CCB0958435143000A18
:1037300008182030800970478003002000680028A6
:1037400001D00020704701207047006870470000DA
:1037500010B5044600202082A074A168A1616161B7
:103760002060204602F060FF452801D0412010BDB6
:10377000A088032102F080FF044602F0C1FF002868
:1037800013D072B60A480122016809200002091804
:103790004878A2401043487062B6002002F0CAFF89
:1037A000002802D0002003F0C5F8002010BD000062
:1037B0008003002010B504460068884209D10268E1
:1037C000226000220260206800280BD1626009E0BC
:1037D000104602688A42FBD10A68026062688A4227
:1037E00000D16060084603F0EBFBE17A081AE07252
:1037F000A07A401EA07210BD0020704770470000E4
:10380000F8B5104E30682030C57D002D19D0002449
:1038100009273F0210E0E9070BD0C019016B5820BF
:10382000604308184030417D204603F0CFFB00285C
:1038300007D06D08641CE4B23068AC21095CA14279
:10384000E9D8F8BD80030020704700003EB50B4862
:1038500001AA0468694602A8683403F009FC00283C
:103860000BD06846007AE18801228240114204D0E0
:1038700069460978019AFDF792FD3EBD800300205C
:103880000449002008610448012100686030C171CA
:1038900070470000000010488003002070B51A4AED
:1038A0001A4CD37B2268002B11D01A4E184B80097A
:1038B000CDB2584375430B0A2D0A734310355B197B
:1038C000154D80305B09000A6943090C04E0192397
:1038D00012481B04FF21E931114D118669805362A2
:1038E000106209482038008EFFF718FFE91488425B
:1038F00000D3481E40052168000E20310875298834
:10390000090700D4687270BD4C0A002080030020B3
:1039100053070000F6BC080055050000C2F528005A
:10392000C0000020F8B50C46CA88098A4030521AF7
:103930008088102695B2A84205D20546E07C400654
:10394000400EE07403E02068002800D10026002922
:1039500004D1207B800701D5022000E00120CF06A2
:103960000643FF0EE81982B20E48A16903680920D8
:1039700000021818C06B001D03F09AFB6061094833
:10398000A5740168092000020818C16BB81C0E5408
:1039900004480168092000020818C06BFF1CC555C7
:1039A000F8BD00008003002070B5144EE12231689C
:1039B000D2008D182C681DE0017B227B914218D12A
:1039C00021462846FFF78AFE284621460830FFF7A1
:1039D00095FE207B3A2803D220352878401E287097
:1039E00072B63068DF224030C1791140C17162B6D1
:1039F00070BD2468AC42DFD170BD000080030020A0
:103A000010B50446C1061148006803D51522BF2130
:103A10000C4006E0372149014118897AC90710D0C6
:103A200012222107890E08180121C9024018406995
:103A30000023214600F00EF8010004D0204600F0DB
:103A400067F8002010BD072010BD00008003002093
:103A500070470000FFB5044600262C4F83B09C46FB
:103A60000D46080616D572B601AB6A466146204679
:103A700003F042FB00280BD06846818800988278CA
:103A800092089200827001806180012662B615E082
:103A900062B621E001AB6A466146204603F02CFB8A
:103AA000002819D0680609D4684681880098827871
:103AB0009208920082700180618001260098AA001D
:103AC000817840238907890F1A4011438170059935
:103AD000C170002E0ED115E00020009072B6A8062D
:103AE0000FD401203968C002081801680822114368
:103AF000016062B672B63868F7224030C179114071
:103B0000C17162B6009807B0F0BD000080030020CC
:103B10000A46400608D5D0783A280AD2111D054B2E
:103B200080001B5810461847907880088000801C41
:103B30008870704764F90410F0B504463B483C496E
:103B4000006885B04518218A890419D5022104919D
:103B5000372149014118897B412627880123C9075C
:103B60000ED0D90208304018312240690221FFF7F7
:103B700071FF010004D08F808E710498FFF7C8FF99
:103B8000294620880122183103F0ECFA29462088C2
:103B90000122303103F0E6FA29462088012224313F
:103BA00003F0E0FA2946208800223C3103F0DAFADB
:103BB00020880005000D03F0EFFA85002946113139
:103BC00068460173FFF7F0FE29461231684601731B
:103BD000FFF7EAFE2946133168460173FFF7E4FE5A
:103BE000684614350573FFF7DFFE208803F0F0FA0E
:103BF000208801050D48090D026825208001101854
:103C0000028B914201D100210183E069002802D09A
:103C1000012100F029FE202200212046A568FEF7A0
:103C2000CFF81720A560608005B0F0BD80030020AC
:103C30002C07000010B5412400F04EFD002805D0EF
:103C40006030017D8022114301750024204610BDA3
:103C500010B594B0044600F03FFD00281AD041781A
:103C60006A46C907C90F801C03F06AFB00280DD003
:103C7000204600F031FD00280CD0817AF12907D1CF
:103C8000807EC10704D0800702D5002014B010BD8B
:103C90005E20FBE74020F9E7F1B5FFB001248BB0CF
:103CA000600205900027CC4807970168CB48C94DB2
:103CB000081803908A980AAA0005000D05A903F0C8
:103CC000A1FB0690002872D104260AA80599421883
:103CD000203AD27F0B2A23D00026002004900AA885
:103CE0008119022201A80291FEF764F868468188D2
:103CF00009AB08AA039803F0A3FB012817D00228F8
:103D00007ED068468088854200D30546844200D92B
:103D10002046044602988078012872D013363CE190
:103D2000491E761E36040591360CCFD1D5E708988A
:103D30000090002F66D10099022228310298FEF7E8
:103D400049F800281ED100982030017B0298807825
:103D5000814217D1012808D1009802990222083027
:103D6000C91CFEF737F8002815D002988078022881
:103D700008D10098029910220830C91CFEF72AF8D1
:103D8000002808D00098008DA84200D80546A0421F
:103D900000D22046044602990AA88978012907D052
:103DA00013360599B6B28E4204D3012707E006E127
:103DB000761DF6E78119022201A8FDF7FBFF0399A2
:103DC000009808318E462FE084466946026A8B8847
:103DD00020300DE0918B994203D3012F7ED199427F
:103DE0007CD9A94200D80D46A14200D30C461268E6
:103DF0008242EFD10498002804D16046006802E0B6
:103E000015E0BFE08AE070450ED0018D994203D3E2
:103E1000012F09D1994207D98D4200D30D468C421A
:103E200000D80C46012F59D17045CDD1BAE0089881
:103E30000090002F72D1009902221C310298FDF7E8
:103E4000C9FF00281ED100982030C17802988078E0
:103E5000814217D1012808D1009802990222083026
:103E6000C91CFDF7B7FF00281AD0029880780228F5
:103E700008D10098029910220830C91CFDF7AAFF4A
:103E800000280DD00098808BA84200D80546A0429B
:103E900000D22046044602988078012826D003E00C
:103EA00002988078012805D013360798B6B2012809
:103EB0001ED021E000984A490089884216D18A988C
:103EC00001F0ECFE0146009803F0D8FA0099098C45
:103ED0004843009989694018022200E038E00299BD
:103EE000491DFDF767FF01200790D4E7761DDCE749
:103EF000B61C0020B6B207900598864201D3012770
:103F000005E00AA88119022201A8FDF753FF039AD0
:103F10000099083209980968944630E01AE086460C
:103F20006A46938820300DE08A8B9A4203D3012F92
:103F30000ED19A420CD9AA4200D81546A24200D30B
:103F4000144609688142EFD1049800282AD102E082
:103F50000120049026E07046006860450FD0028D75
:103F6000016A9A4203D3012F09D19A4207D9954297
:103F700000D31546944200D81446012FE8D160457D
:103F8000CDD10FE00298C078022805D102980079BF
:103F9000292801D1B61CB6B2761D0598B6B2864264
:103FA00000D301270598811B042902D3864200D241
:103FB00093E604980028FBD1A54203D906987FB068
:103FC0000CB0F0BD224629468A9803F07FFA06908D
:103FD000F5E70000FFFF0000800300202C07000031
:103FE00002290000F0B55848584A016885B08A187F
:103FF000049209221202891800274D6B95E07E0178
:10400000A85B00287BD070190090C06900284BD0B5
:1040100000990969CA0532D54A0530D5806801245E
:10402000A402007BA143009A1D28116139D01B28EE
:1040300037D0009A927B824202D0012802D030E031
:10404000012806D10098C0698068407B401C8242EC
:1040500069D1C80509D5A95B022003F05BFA009875
:10406000FF2201690132914301610098816988470B
:10407000452816D1009801692143016111E0012111
:1040800000F0F2FB00980021C16100980122016953
:10409000920291430161022211464220009B03F0EB
:1040A00047FAA85B00283ED0049824300190FFF71F
:1040B0004CFB044635E020680390A068AB5B017BB5
:1040C000A0881A05120D904201D11D2904D09042FA
:1040D00026D11B2932D023E000990969CA040FD4E4
:1040E00001221203009811430161A95B032003F030
:1040F0004DFAA95B2246022003F05AFA08E012E0CA
:104100006946088102AB02220321422003F010FA23
:1041100021460198FFF74EFB0121204600F0A4FB49
:10412000039C002CC7D17F1CFFB207480068A03059
:10413000007BB84200D962E705B0F0BD22461946BF
:10414000022003F07DFAE3E7800300202C07000043
:10415000F0B57B497B4A096885B08E18012806D0E6
:10416000304618300090FFF7F0FA0446E5E030469C
:1041700024300390FFF7E9FA0546BAE0A8682F68F3
:10418000007B0290A88801F089FD040073D021888B
:104190002022002001F0A0FD019000286CD0E888CA
:1041A0006188884204D900220420019B029920E002
:1041B0004620009002980E284ED00ADC801E030094
:1041C00002F040F90B1C13221329132F133813414B
:1041D000130016285AD004DC102846D0122804D127
:1041E0004BE018285BD01D2872D000220620019BCE
:1041F000029901F093FD002000905CE029462046E2
:10420000019A03F065FA4FE02A4621463046019BA9
:1042100003F0B8FA48E029462046019A03F0A6FBCD
:1042200042E02069000353D429462046019A01F058
:104230009FFF39E0206900034AD429462046019AAD
:1042400001F096FD30E02069000341D42946204664
:10425000019A01F022FE27E02069000338D42946A4
:104260002046019A01F0BAFE1EE029462046019A36
:1042700003F074FC18E033E03EE02069800327D4AB
:1042800029462046019A03F05BFD0DE0206980037A
:104290001ED429462046019A03F0F0FD04E0294689
:1042A0002046019A03F0A6FE0090452810D0692808
:1042B0000ED046280CD001212069090688432061D0
:1042C000019801F03FFD0098002809D010E0FFE7B9
:1042D0000021019800F0C8FA009845280CD0F2E7B8
:1042E00029460398FFF766FA0121284600F0BCFA38
:1042F0003D46002D00D041E705B0F0BDA06826681E
:10430000077BA08801F0CAFC05000DD0522F01D018
:10431000D22F06D1286940030ED42146284603F047
:1043200049FF2869400307D421460098FFF742FA65
:104330000121204600F098FA3446002CDED1DBE75C
:10434000800300202C07000010B5044600680860B8
:10435000206802682260002202602068002800D1E4
:104360006260086802F02CFEE17A081AE072A07A16
:10437000401EA07210BD10B50C460146042805D0A1
:10438000052903D0062901D0502010BDA068A279CC
:104390000272E088020AA0684272A0688172A06876
:1043A000090AC172E088001DE080022020732046C7
:1043B000FFF7CEF90028E8D0E088001FE080412018
:1043C00010BD10B50446006808602068002800D1C0
:1043D00061600846216002F0F3FDE17A4018E07266
:1043E000A07A401CA07210BD0D4909220968120272
:1043F0008918C96A72B60122824350004218084BDC
:10440000095C09201B6800021818C06A52780079FC
:104410008A4202D9511A401AC0B262B670470000EF
:104420008003002070470000F3B585B000270446E4
:10443000054606460197807A2A353236BC2824D0B4
:10444000F12811D1E07A00071FD420462030002344
:1044500002AA2946039003F043FF0222314602A834
:10446000FDF7B8FC002807D022462946304603F065
:1044700071FF412007B0F0BD0A48009700682B4645
:1044800001AA0399803003F0B5FF1022002106989D
:10449000FDF796FC227F29460698FDF78BFC00204D
:1044A000E8E700008003002010B50146002241200B
:1044B00003F0B4FF10BD000030B502460D4800689F
:1044C000A030007B002A014612D00B4C13050020BF
:1044D0001B0D22680AE07C244443D56F08342C5B12
:1044E0002405240D9C4203D0401CC0B28142F2D866
:1044F00030BD000080030020840300207FB500242D
:10450000002902D0012902D002E0082500E00025A0
:10451000A9186A4611730293012809D000280AD10C
:104520001046FFF741FA684603F0C6FF044602E072
:104530001046FFF739FA204604B070BD0A4610B5A0
:104540000146002003F06AFF10BD0000F0B50446EC
:10455000807A2546603599B0102820D0D1287BD0AC
:10456000D22879D0D32877D0D42875D0D52873D045
:10457000F02875D0FE2877D0A2287FD0B2287DD031
:10458000B42868D0BF28204677D003F0A6FFE07A91
:10459000000702D5204603F0A1FF19B0F0BD6078F6
:1045A00004AAC107C90FA01C02F0CAFE0227494E87
:1045B00000282AD003F094FF002824D0287DC007CB
:1045C00021D003F097FFFA281DD000281BD0E079F6
:1045D000400618D502200390372130684901411860
:1045E000C97A2589012309070DD5DE020830801913
:1045F0001A2239464069FFF72DFA010003D08D8059
:104600000398FFF785FA00204DE004A9204603F047
:1046100093FF20890104BAD50221019105053721B4
:10462000306849014118897A2D0D01230907AED55B
:10463000DE0208308019152239464069FFF70AFA70
:104640000100A4D08D800198FFF762FA9FE703E094
:1046500006E009E012E02AE0204603F0D9FF96E7E1
:10466000204604F063F892E7287D00068FD57C226F
:1046700000212046FDF7A4FB89E727E0E17A01202D
:10468000090704D5204604F08DF80028DED0E17F2C
:10469000022902D1E17EC906D8D50028D6D0287DCE
:1046A000C00702D0B420A07271E7A420FBE7204627
:1046B0001021643004F078F8E07A000703D5204632
:1046C00004F082F863E7B521A17260E704F07DF899
:1046D0005DE700008003002070B500281BD00305B3
:1046E0000F48002100680D4A1B0DA0301268047BA2
:1046F0000FE008467C267043D56F0830285A000525
:10470000000D984203D17C225143681870BD491CAA
:10471000C9B28C42EDD8002070BD00008403002097
:1047200080030020FEB506468068FF25077B887A57
:104730000C46D0280BD0E07A00070DD568460096CD
:10474000019404F05EF80546FF2805D07CE0304671
:1047500004F059F8002577E07420005DC0076DD0A3
:10476000A07A002808D0F12806D0B5284FD0B62866
:1047700054D0FB2859D067E0012F65D1002720894C
:10478000FFF79AFE02460021304B0846FFF7B6FEBF
:10479000207BC143890705D0810715D50121084336
:1047A00020730CE00C21084030D0042807D00828E2
:1047B0002BD00C2800D10127002F05D144E0207B0D
:1047C0000107890F012904D02146304604F086F8FC
:1047D00039E0FB2108400821084320731C48372199
:1047E000006849014118897A022489060DD5022101
:1047F0008B020830C018172240690023FFF72AF9FE
:10480000010002D02046FFF783F94320FEBD032FAD
:104810001AD12146304604F01FF914E0042F13D1B9
:104820002146304604F056F90DE0012F0CD101234A
:1048300000220921204604F0DDF904E068460096D4
:10484000019404F0ECF905462846FEBD30750000E1
:104850008003002010B50A4681681046497B04F0A9
:10486000E1F910BD1F207047F8B50E460C4909222A
:1048700009681202891808380746CC6A04F004FA5D
:1048800005463946A06804F009FA72B67100605C0A
:10489000401B605420794019207162B6F8BD0000B9
:1048A0008003002010B504F015FA10BD70B51C4649
:1048B00013460D46012C03D0022C03D0422070BDBC
:1048C000022200E010221946FDF774FA2C70002035
:1048D00070BD0000FFB58FB014460E78102205A8F9
:1048E000891CFDF715F94F484F490068451804F039
:1048F0000FFA00281ED1002C57D0012E09D168468E
:10490000808A4A49884204D12846A96808308142F1
:104910004BD12846103029690390814209D00AA959
:10492000284604F011FA6846018D601E0D90814200
:1049300002D2482013B0F0BD284608300CA90490DC
:1049400004F002FA6846008E002814D0EF680AA925
:104950003846183004F0F8F9384620300CA904F035
:10496000F3F96846398D008D09186846008E401CA1
:10497000081887B200E0012701200004C01BA042F4
:1049800001D26120D6E72C6928680190129801288D
:1049900002D0022803D008E00520C00200E024482D
:1049A0006085012E03D0022E05D04220C2E72046AA
:1049B0000830022202E020460830102205A9FDF747
:1049C000F9F9204631462030064601730F982146FA
:1049D000078027850398FEF781FE21460498FEF79D
:1049E0008DFE27461837E7616662A76126620D983B
:1049F00084B20BE028460199FEF770FE3846019913
:104A0000FEF77CFE2868641EA4B20190002CF1D150
:104A10000F9801880D98081882B2002002F056FD08
:104A2000002087E7800300202C0700000118000009
:104A300001280000F3B5A5B008881A9088780C46C4
:104A400011901022091D13A8FDF762F8A08A10909A
:104A5000A17D68460172E07D0F90207E2090677EE8
:104A6000A07E1F90002006460146129020A80181DA
:104A70000F20BB4C2390BB4920684018199004F0CC
:104A800047F900280BD101211098490288425FD8CC
:104A900021A91A9804F062F9002802D0602027B0FA
:104AA000F0BD2198179004F071F91A9988420CD141
:104AB00002A801901698009013AD0ECD119804F045
:104AC0006DF9002801D06320E9E76846017A88067D
:104AD000800F05D0012012902068A030007B460096
:104AE000C80703D01298401CB61C1290080603D5C4
:104AF0001298401CB61C129017980DA918301D90E2
:104B000004F022F96846129C808EA41CA04237D380
:104B100017980EA92030019004F016F96846018F0D
:104B200000290DD01798179A6B46406A9B8E128DFC
:104B30005918808B5118081AA04201D26120AEE7A3
:104B40001798846911982568012803D0022803D09A
:104B50004220A4E7052000E01320E0832A463946DE
:104B60000F9804F053F9422899D0199FE28B4037EF
:104B7000788B398B411A109810188019814201DA0C
:104B800048208CE70EA9019804F0DEF86846008FF3
:104B90000028179802D0406A808B00E0008D25998C
:104BA000401C0880259801210088A08325980222B6
:104BB0000088401CA8836C48208120462030179034
:104BC000C1700021817081711998398B406D401836
:104BD0006946A061097A0170A06929461C31401C10
:104BE000FDF7E8F811980128A0697DD0102213A9DB
:104BF000C01CFDF7DFF82846102213A90830FDF786
:104C0000D9F8388B133038832E4620361198F0703F
:104C10001098E8831F98B07010982084109828840A
:104C20001998398B406D4018A8610021109AFDF742
:104C3000C7F8398B10980818388317990120087124
:104C400017990020487130716846007A810701D5B4
:104C50000121317101070227002902DA3179394334
:104C60003171410703D53179042211433171400676
:104C700003D530790821084330710F98707120985E
:104C8000B07121461D98FEF729FD21460198FEF7D7
:104C900035FD29461D98FEF721FD29460198FEF7AE
:104CA0002DFD1298002841D068461A998181A18B68
:104CB000C18107844784012408A8047122A80A90AE
:104CC00008A88473239941730F993820014008A8DC
:104CD00001730721C173002505746846007AC00777
:104CE00008D02248694600E02BE0088203A924A8E6
:104CF00004F098F86846007A8006800F07D01B48B9
:104D00006946401E088203A924A804F08BF868466F
:104D1000007A00060AD5292109026846018208A8FE
:104D20004473057303A924A804F07CF8259801882E
:104D30001298401C081882B2002002F0C7FB002025
:104D4000ADE6022213A9C01CFDF734F82846022262
:104D500013A90830FDF72EF8388B401D53E70000EB
:104D6000800300202C070000032800000329000016
:104D7000FFB5002099B0239A0B901290054614902D
:104D8000064615901C46DB480B460068DA49229F10
:104D900041180391002108910991518806911188C9
:104DA0000A913B2149014018007DC00706D00FA998
:104DB000184603F0D3FF00280AD102E047201DB0B7
:104DC000F0BD10AA0F991B9804F0DCF8002801D060
:104DD0006020F4E71998002803D0600701D501206E
:104DE00000E000201390A007800F1C9010981790EF
:104DF0002030C078012840D11798C04B01899942D2
:104E0000F9D11798069904680A98228C41189142A2
:104E100033D82046203016908078012816D0E08BB9
:104E200004901798806900788006800F7ED00398E0
:104E300040301890007A800778D51C980028F5D06B
:104E4000AE4F0F99FF372031206814E0BA4214D3D7
:104E5000B942DDD80497E4E70389A84A934203D115
:104E60002322125C012A08D0BB4203D12322125C08
:104E7000012A03D000688842EED134E10590002871
:104E8000FBD09C480921026809025118496B002790
:104E9000009162E0780100990390085A01055AD008
:104EA0001999002901D0884255D105997A008B695A
:104EB000511C595C9A5C0902891889B20D918907C5
:104EC00049D00222059904F06CF8002804D0199802
:104ED000002840D0652072E7002008A9C8551C981A
:104EE000C00718D0179880690078C00613D50D98B0
:104EF000C00710D00120C8550543009A03988018B8
:104F00004088159A904206D91590009A0398105A35
:104F10000005000D14901C9880071CD51798806917
:104F20000078800617D50D98800700E083E012D541
:104F30000220CA5D05430243CA55009903984018F0
:104F400040881599884206D9159000990398085A07
:104F50000005000D14907F1CFFB266480068A03069
:104F6000037BBB4296D8002D65D01898007A0006C6
:104F70005FD460480168092000020818416B0020D6
:104F80001BE042018E5A360515D0AE070BD55618D8
:104F90003669B7070DD408AF3F5CBF0703D53607A6
:104FA00001D546200BE7EE0705D05218127CD20738
:104FB00001D0432003E7401CC0B28342E1D81598DA
:104FC000C01E86B20498864200D90646A8070FD5AF
:104FD00020220020149900F07FFE129000287DD03E
:104FE000F01C82B20021129804F003F8002811D1BD
:104FF000E80720D020220020149900F06DFE0B90CD
:10500000002807D0F01C82B200210B9803F0F1FFBA
:10501000002810D0802000F099FC1298002802D0BF
:105020000021FFF721FC0B98002802D00021FFF798
:105030001BFC6420C3E6A1690A98069A0818249903
:10504000FCF7B8FE16988078012801D10498E08317
:10505000002D46D0274B0920196800020818416B23
:10506000002008AA0CE04301CF5A3F0506D05F1884
:10507000BC463B69175C3B4367463B61401CC0B282
:105080001C4B1B68A0331B7B8342ECD8A8070DD5B3
:1050900012980090F01C82B221461C310220A369B4
:1050A00003F0AEFF0220129903F0C9FFE80718D001
:1050B0000B980090F61C2146B2B21C310120A36966
:1050C00003F09EFF1398002805D00B988021C07C28
:1050D00008430B99C87401200B9900E005E003F028
:1050E000AEFF00206BE6422069E6802000F02EFC37
:1050F0009FE70000800300202C0700000328000029
:105100007047000010B50749E1220968D2008C18E9
:10511000A169401A0002000AFEF7F7FA616908184F
:1051200010BD000080030020FEB504884188019175
:105130008688C78800890090204603F0A7FF0500F5
:1051400066D0E878002863D0A8780007400F01D027
:1051500046255EE020222146002000F0BDFD04002F
:1051600048D001992C48891F81424BD8B11F8142F8
:1051700048D80198B04245D8FF20F530874241D247
:105180000099781C7043890088423BD822490098D6
:10519000091F0A38884235D8A06812210173A06817
:1051A000E9784173A06808218173A0680021C17368
:1051B000A068019901740199A068090A4174A06866
:1051C000310A8674A068C174A068390A0775A0689E
:1051D0004175A068009981750099A068090AC17598
:1051E0000C20E08021460520FFF7C5F8002803D0F9
:1051F000412508E064250CE0A87806210843A87042
:10520000002506E0422500212046FFF72DFB00E0A7
:1052100042252846FEBD00007A0C000070B51349F7
:1052200009220968120200208B18AC22525C1AE095
:1052300058241D6B44432C1954252D5DED0610D5C3
:10524000412040010818C030428A018A608903F079
:1052500037FF3A2804D04034207DEF2108402075E4
:1052600070BD401CC0B28242E2D870BD80030020F5
:10527000FFB50746464881B000880D4645490922DA
:105280000968120240078A18400F126B58235843CE
:105290001418412040010E18FDF7F9FB002822D018
:1052A000142D04D0152D20D0072D59D05CE02146B7
:1052B000039803F063FF0121206989040843214614
:1052C00040312061087D022210430875820609D50D
:1052D0006279520852006271DF2210400875002F77
:1052E0004ED151E0012005B0F0BD25464035287D66
:1052F000C007F7D02146039803F040FF204600F096
:1053000085F8002825D0A18FE08F814200D2084681
:10531000E8806989A889814200D2084668822A8982
:10532000E9898A4200D211462982628F2888824206
:1053300000D21046C9080E3989B26880884200D36D
:105340000846A8800498006801214906084304998A
:105350000860287D400840002875002F10D113E018
:105360000398C078142802D0002005B0F0BD403466
:10537000207D04214008400008432075002F03D001
:105380000820C036F073ADE70820C036B073A9E737
:10539000C000002080030020F8B51C4615460E46CC
:1053A0000746FDF774FB002805D003F003FF002833
:1053B00003D00C20F8BD1120F8BD12494122096824
:1053C000520189183A4600201B3AE12A00D33020C6
:1053D0003346FF3B0C4A493B934200D330202B46D7
:1053E0001B3BE12B00D330202346FF3B493B93423C
:1053F00000D3302072B6C0318F82CE820D834C83B1
:1054000062B6F8BD800300200107000070B50146B8
:10541000403004884A8F0025944200D31446C28944
:1054200003899A4200D21346CA8F898F8A4200D3D9
:105430000A46868941898E4200D231464688A64274
:1054400000D00125C488944200D00125028A9A42E6
:1054500000D00125408A884200D00125284670BD31
:1054600070B5032101F008F9082801D3022070BDAE
:1054700026490922096812028918096B58225043EB
:105480000C186079666B800701D03A2070BDE18FFF
:10549000A08F03F0B5FE25464035E880A9896889CC
:1054A00003F0AEFE68822988608F03F0A9FE688051
:1054B000E989288903F0A4FE2882C0080E3881B249
:1054C000688803F09DFEA88011483060656B204617
:1054D00002223C30E91C03F097FE20460222691D9F
:1054E0004A3003F091FE20460222E91D3A3003F0D3
:1054F0008BFE2946204602220931483003F084FE03
:105500006079012108436071002070BD8003002094
:105510000309150010B5034600680324401E20430C
:105520005143401C4118196010BD000070B50B4874
:10553000E1210068C90044182646646008362460EA
:10554000E6600025A6602069290141183046FEF773
:10555000D5F86D1CEDB20B2DF5D370BD8003002086
:10556000F8B55D4C4120256840012818002201460D
:105570000923027620311B020A73ED182E6DFB27DA
:10558000283686632D6DFF265035456308358562C4
:1055900007258D73416B0A70456B0621697024687D
:1055A000E1180D6D7835C563096D0825A0310164DA
:1055B0000146C0314A720A72CD738D731B250D826C
:1055C00049364E828F82454FCF82FB270F83434F50
:1055D0004F838D83CE834249626521653E4C0146EF
:1055E0002668B518F618376D603516462D7E2A36B2
:1055F000BD552668F618376D16465236BD552668D5
:10560000F618376D16467A36BD552668F618376D8A
:105610001646A236BD550D70521CD2B2491C062A40
:10562000DED300250D70826B06215170426B5170E4
:10563000024680325561294695611BE009252D02FD
:105640005B1958254D431F6B2B46264E0A33FE52DD
:10565000092327681B02FB181F6B2B4600262033EB
:10566000FE50092327681B02FB1824351B6B491CBD
:105670005E51C9B22368AC25ED5C8D42DED80025B1
:1056800001219583C9020184556409202168000223
:105690000918096C936B891C598021680818006CE3
:1056A000516B801C48801048818D206840300186F5
:1056B00003F0B4FD1F212068890141183F220D71BC
:1056C000520108218018817203F0F4FD03F006FEF8
:1056D00020682030C574F8BD800300204808000011
:1056E000862E0000FFFF00002C0A002070B517482E
:1056F0000921006809024018C46A042200212046DA
:10570000FCF75EFB124D688C23304009401CC1B28F
:10571000002000F0F5F8688CA97F23304009801C38
:105720004843401CC1B2012000F0EAF8284620306E
:10573000A16840784870A06803F0DCFDA06872B6EC
:10574000007862B62071002070BD00008003002048
:105750002C0A002006480021026849204001101848
:105760000172417203218172C172002070470000F2
:105770008003002070B50023134A1DE00F25ED01C2
:1057800040191901C66F0024C81C34541068401910
:10579000C66F081D345410684019C06F4452106819
:1057A0004019C66F08460830345210680C31401951
:1057B000C06F5B1C4450DBB21068AC21095C99429D
:1057C000DCD8002070BD00008003002010B50D4C17
:1057D000FF220021206800F0B0F8206800218176C7
:1057E000C17601224273072383731023C3730276A9
:1057F0000175016102738175C175084603F0AFFD43
:1058000010BD000084030020034800210068AE3072
:10581000C1708170704700008003002070B51C4C7F
:105820001B2120688901411800260E76194B4E76FF
:105830000622FF21C018FCF7C3FA372520686D0146
:105840004019067020214170FDF721F901281CD074
:105850001F2021680F4B49198870206809330722DF
:105860000021C018FCF7ACFA0A4B2068103305225F
:10587000FF21C018FCF7A4FADF232068DB00FF2219
:105880000021C01800F059F870BD5F20E1E700006A
:1058900080030020DA06000010B50448044B0068BD
:1058A00004220021C018FCF78BFA10BD80030020F1
:1058B0000407000070B503F053FD104C012520686B
:1058C000ED0240198068402103F058FD2168491914
:1058D0004861C868402103F051FD21684919886179
:1058E0000869FF21813103F049FD216808224B1925
:1058F000D86100211846FCF763FA70BD80030020D0
:10590000044A092312681B02D218D26A4000801888
:10591000417070478003002070B505460024204682
:1059200003F032FD002801D0462404E0012D02D10D
:10593000012003F014FD204670BD00230360436086
:1059400041720272C37283727047000004490A6890
:105950003B21490151180A7D02430A757047000036
:1059600080030020F0B5074617480E4600683B212B
:1059700049014018007D85B01D461446C00706D079
:1059800003A9384603F0EAF900280AD102E04720CB
:1059900005B0F0BD04AA3046039903F0F3FA0028DD
:1059A00001D06020F4E70499228860880968002A01
:1059B00000D0088C32466E4631C60323394600209B
:1059C000FFF7D6F9E4E7000080030020F0B5454C6E
:1059D000092526682D027019006E0027416B424888
:1059E000AE368DB0814242D00621684602F0DCFE20
:1059F00069464879C02108436946487120680622F3
:105A00004019006E243003F0DFFC0746102105A882
:105A100002F0CAFE206810224019006E05A9001D80
:105A200003F0D2FC0743102109A802F0BDFE206854
:105A300010224019006E09A9143003F0C5FC01467C
:105A4000394313D1206829494019006E264F401868
:105A5000800881002648081839460490FBF75DFB52
:105A600004980068B84201D1002700E0FB272268B3
:105A70005019006EA6322430019006200146009095
:105A8000002003F0CBFC002802D12068A630019052
:105A9000701D009A0199FCF78DF922681026314695
:105AA0000020803203F0BAFC002807D0206832467C
:105AB0004119096E8030091DFCF77CF922683146D6
:105AC0000020903203F0AAFC002807D0206832465C
:105AD0004119096E90301431FCF76CF938460DB05D
