:020000041005E5
:101800000060002023240610D1200610D3200610EB
:10181000AA5555AA45554C420000000000000000A2
:10182000000000000000000000000000D5200610AD
:101830000000000000000000F7330510D72006105C
:10184000DF20061007350510000000000000000032
:10185000E1200610B73E0510E9200610EF490510FB
:101860000000000000000000000000000000000078
:10187000000000000B4F051063560510B75B051004
:1018800000000000E341051087420510C348051021
:101890001B490510EB4905107B67051027600510F3
:1018A0000000000000000000000000000000000038
:1018B0000000000000000000000000000000000028
:1018C000F0B5FE48FE4E016841204001B2680C1898
:1018D00085B0D00173D5204680300090806B817A2E
:1018E000EE2319408172304651030125C06800295A
:1018F00042DB510105D500200921C9064860357039
:1019000036E0510012D5C178491E0906090EC17092
:1019100003D10922D2065160357041790A0627D5D4
:101920004906490E41718169416121E0E5490A4258
:101930000AD0214620318D70520202D503228A70CE
:1019400000E08D708169416101792246C1704032A9
:101950009179002908D00921C9068968A16400216C
:101960000223E1649377A16541794906490E4171EB
:1019700000204621085539E031698A89012149074B
:1019800052185288436B5218934209D19278142A04
:1019900006D1034640331A7DDF273A402A431A75A1
:1019A000806A408840187D210078095D0843C006A0
:1019B00006D4002009213570C906486010E082E293
:1019C000606D00F06FFB01460920C0060269236DBF
:1019D000D21A1202120A914202D2357000214160DD
:1019E000F06801220169D20391430161B26850029B
:1019F00013D5306980890121490740184088401873
:101A00007061F1684B6B834207D180780D2804D157
:101A100001200B69000483430B613746002A48DA32
:101A20000098806B4188012040070818F861092060
:101A3000C0064069C00DC00708D0002009217D7094
:101A4000C90648603D70A048B061F1E0F8684121E6
:101A50000069490108420AD000F034FB012829D06E
:101A60001C22F9694878024201D0001F4870F869C9
:101A70007D2201781155C94389071DD0F868006996
:101A8000C0036FD500F01EFB01286CD01F20F96940
:101A90004978084266D0002009217D70C906486057
:101AA0003D708948B861F8680121026909048A43D8
:101AB0000261BDE0FC22D4E7867841781A2E74D208
:101AC000824A925DFF2A70D08A426ED1022E14D0D3
:101AD000F9684A79D20659D4062E15D00A69D3037B
:101AE00027D5002009227D70D20650603D707648CF
:101AF000B8610A69001182435BE0F868406B0560D9
:101B0000F9682320487193E00122B86992031043D9
:101B1000B8616F4A086910401522520210430861EB
:101B20002046C030C17BBA7891422FD10821C173C1
:101B30007EE0002E18D0012E29D0032E2CD00A2EA4
:101B400034D00B2E37D0082E38D0092E39D00C2E99
:101B50003AD002465F4B3146012000F0B5FA00282A
:101B600066D149E05BE058E00A46214600F0AEFA53
:101B7000F8698179C079000208435749400240184A
:101B80005649896A814200D80846606550E00A4695
:101B9000214600F0BFFA4BE0B86980231843B861D2
:101BA0004120000402430A6142E027E08920C0018D
:101BB00005E00A613CE04A480240FAE7102002438F
:101BC000F7E70120000326E096070423002E08DA39
:101BD000BE691E4302239A430823BE61CF263355B4
:101BE00002E0D60700D11A432A430A610522C01C2D
:101BF0002C3100F0A6FA1BE0072E06D0F868082268
:101C0000016911430161C67112E0F869C0780E28BC
:101C10000ED101208006B8610AE0FF2037E7214697
:101C2000FB683A69F86900F095FAB9690843B86148
:101C3000234FF8683969066A0A8A01235B07D218BC
:101C400001925288D21800237A610293BB6811274F
:101C5000BF043B421ED15F011CD4476B974201D0A9
:101C6000012700E000270397904201D0012700E000
:101C70000027BC46002E0DD0039F002F0AD06746D8
:101C8000002F07D0F77CFF0904D03768002F01D060
:101C9000012702975B0202D4029B002B75D0437987
:101CA0009F0701D5002E1DD05B085B00476B974254
:101CB00057D143719378042B19D02AE0B800002043
:101CC000700000200000408008001000EA2F05107E
:101CD000DFFBFEFF880000209AFDFFFFCC04002000
:101CE000BFFFFEFF2B431F462F434771DEE723460E
:101CF000C033DF7B082F05D1E24FBF78DF737D272C
:101D00007F029F81DF4B01279B69FF063B43DD4F2D
:101D1000BB614379DB060CD5DA4B09275D700023E4
:101D2000FF067B60D74BD84F1D709B693B43D54F57
:101D3000BB619278152A32D1074640373A7DFD23A0
:101D40001A40BC463A75130729D5CE4B01279B692B
:101D50007F063B43CB4FBB61F7231A4063461A759E
:101D60001DE082421BD0338AB77C0022DB1933820C
:101D70007369B361B274338AF788BB4202D2F77CCD
:101D8000FF0903D03668202205E068E0DB0602D1B7
:101D9000B3691B68B361BB4B9F693A439A6142794F
:101DA0000027D20717D0B74A436B53619A78052AA8
:101DB0003BD1026920231A43026100200870487158
:101DC000487088718870C871C8700872087148724C
:101DD0008020487229E0002E0AD000F005FA002881
:101DE00006D1A8483322C16852010969114209D0BD
:101DF000A4490122C868486105800169D2031143E2
:101E0000016112E0A14A317C136809221202C9065D
:101E10009A18C90ED26B0127891C89184161019A51
:101E200051803146C06800F0EFF9964E2121F068EC
:101E30008901006908420AD000F044F9012809D05C
:101E40001F2271694878024201D0001D4870002F9E
:101E500002D004E0FF22F4E70199B08A4880894E5D
:101E6000F26810694106890F1ED080063178C00FD4
:101E7000012902D0B16849030BD50028306903D08D
:101E8000C17D082319430AE0C37DF7210B40C375C8
:101E90000AE000283069C17D03D0F7231940C175DD
:101EA00002E008231943C17521463369F06900F047
:101EB000EDF93078012808D000997548896B032224
:101EC000091D00F06BFA05B0F0BD6E480121C26833
:101ED00000695379C77A9C4620231E5C00238372D5
:101EE000204620300190807803281BD193796548E3
:101EF000002B17D163469B069B0F13D1634B1B68C6
:101F00002033DB7C002B0DD1136A002B0AD1CF23A9
:101F10001B5D8078834205D09089411C7043C019B5
:101F200089B287B2108F1389400048435918118134
:101F300001998978002902D15169091A51610099E2
:101F40008E6BB17A11231943B17221464D4BC031CA
:101F5000CE7B9B789E420AD18B891B1A8B8110D530
:101F6000484E4C4B7570B1691943B16109E0536932
:101F70004449002B05DC0E464D708969464B1943D8
:101F8000B1616146890605D53E49444E4D708B6965
:101F900033438B6111792646D1704036B571E16CBF
:101FA00080B20818E0649079FB2108409071C00766
:101FB0001AD0B08E1189401A012180B2C90388421B
:101FC00006D33048364A45708169114381610BE080
:101FD000002809D101230021204600F0E7F9294912
:101FE00089690843274988612648C1688A7990072A
:101FF00024D5338F0E8923489B1B5B1C01269BB283
:10200000F603B34205D34570254A816911438161C6
:1020100014E0002B12D1FD231A408A710269009945
:102020002132496811700B0A53700B0C9370090E22
:10203000D17060340069E17E20304171384600F093
:1020400001FA10490A69D072019800268670487812
:10205000002802D0887800F003FA0C4C5821206840
:102060000D540921090240184078002802D00120AF
:1020700000F0CAFA012000F0C7FB20684030067665
:1020800005B0F0BD7000002008000100B80000207D
:10209000FA00300008804000080004000800020038
:1020A000080008000649C20B09684004096A400C90
:1020B000CB0958435143000A081820308009704763
:1020C000B8000020002070470020704770B50C4613
:1020D0000546C178602001551646281D00F0DAFE3D
:1020E0004034A084A81D00F0D5FE20852846083085
:1020F00000F0D0FEA08528460A3000F0CBFE2086F6
:1021000028460C3000F0C6FEA086B07901210843B5
:10211000B07170BD70B5054616460C46C01C00F087
:10212000BEFE84210851E9797B20015528460830FC
:1021300000F0B0FE40342087B07902210843B0712E
:1021400070BD04E003780B70401C491C521E002A2D
:10215000F8D17047F8B51D46144606460027FFF72C
:10216000B1FF01280CD01F2071780840060036D03E
:102170000020E86100F09EFE002803D0E86907E037
:10218000FF20F1E769893246012000F0A3FEE861F3
:10219000002801D0102722E0E07D80214840E07532
:1021A0001049286908421AD06079401E6071607930
:1021B000FF2814D1A079401EA071A079FF280ED16C
:1021C000E079401EE071E079FF2808D1207A401EB6
:1021D0002072207AFF2802D1607A401E6072384651
:1021E000F8BD000020280000064801684920400191
:1021F0000818417AC07A814201D901207047002035
:1022000070470000B8000020F8B50C46CA88098A5B
:102210004030521A8088102695B2A84205D2054651
:10222000E07C4006400EE07403E02068002800D106
:102230000026002904D1207B800701D5022000E080
:102240000120CF060643FF0EE81982B20E48A169AD
:102250000368092000021818C06B001D00F05CFE26
:1022600060610948A5740168092000020818C16B63
:10227000B81C0E5404480168092000020818C06BFD
:10228000FF1CC555F8BD0000B8000020FFB515695A
:102290001E46A8032E3689B01C461746002832DA9F
:1022A000102269463046FFF74CFF0924E4060398E4
:1022B000A0610298E0610198206200986062354850
:1022C0000168E0140818016FA162C06EE0620A980C
:1022D0008030016C2163C06B606300F041FEA06B35
:1022E0000390E06B02902C480168019140680090D7
:1022F000102231466846FFF724FF01204004854341
:102300003D610DB0F0BDE8053CD505A80146009043
:1023100010223046FFF715FFFF2001308543412092
:10232000800205433D610998082201A9C01CFFF7FE
:1023300008FF0998214604222A310B30FFF701FFDC
:10234000154805A9283800F01DFE0924E406029866
:10235000A0620198E062786B082203A90D30FFF7B4
:10236000F0FE049820630398606300F0F9FD0A49C9
:1023700005A8083900F006FE102231460098FFF744
:10238000E0FEBEE7A07A0006BBD40A9800F003FE88
:10239000B7E70000B80000204000004803E00870E4
:1023A000000A491C521E002AF9D17047FFB581B0BE
:1023B00000230093049B012B2BD04B8C204D1C0140
:1023C0000B8C9C46CB7E6B438D8BAE46CD8B96693A
:1023D000A64205D19689664502D1168FAE4201D03C
:1023E0004026009696790427760876003E4396713B
:1023F00094615461644694811587049A012A17D028
:102400000B6170464A68400010184860009805B09B
:10241000F0BD034640331D461B8E094E1C01AB8D9B
:102420009C4660231B5C7343AE8C2D8DB646CEE775
:1024300083657146C26C49005118C164E6E700002B
:10244000E2040000054925224143090C5143401A8A
:1024500080B2252800D32538C0B27047EB060000B3
:10246000F1B5674941220868520182B08218009292
:102470007B2212018618AC22155C04460346029AA0
:10248000C034363395427DD90921090240181746D8
:102490005821006B4F430025B91C4554029800F0A9
:1024A00085FD00280CD15648BF1D01680920000297
:1024B0000818006BC05D002802D00098C03005727B
:1024C00072B64F48029D0768012039462031CA7D07
:1024D000A8408243CA75317D814331751978080758
:1024E0007AD44A070298520F82427CD0304620307C
:1024F000827E5507029A6D0F954276D181760F2024
:1025000018704122A06852017063BD18A86D21693E
:10251000A9652061686D6169696560612146284629
:1025200018315C3000F05CFD3648A37E39180A781B
:102530000B70A276A86C2168A9642060E86C6168C1
:10254000E96460601120C00139180A78E37E0B70DD
:1025500021462846E2761C31643000F041FD2146D8
:1025600028461E31683000F03BFD214628462031C8
:102570006C3000F035FD214628462231703000F0E5
:102580002FFD00E03BE0214628462431743000F066
:1025900027FD214628462631783000F021FD1948D4
:1025A00080351D303918204628300A7803780B70A2
:1025B00002701448E26A2630381801680260E1624D
:1025C0000721E06809050843A96B0322091DFFF7ED
:1025D000E5FE0AE000E006E03A20805D410702984F
:1025E000490F814201D10F2018702036B07E41077B
:1025F0000298490F814201D10F20B07662B6FEBD2C
:10260000B80000207E080000F0B57D4D0446412151
:102610002868490191B04018089000200D9072B6CA
:1026200000F0F0FC002801D1002C07D074480024F1
:1026300001680920000208184678DDE062B60D98AE
:1026400011B0F0BDF0077DD06E49A00140180E908A
:102650006B480168092000020818016B582060438C
:102660000D18A978286A4907490F02294AD1A97982
:10267000490747D4002845D0288F40000990000220
:10268000FFF710FD039000200F905D483621006891
:10269000095C0A070AD44907490FA14206D1012162
:1026A00080300F91416C0191806C06E00899C96CF3
:1026B00001910F21C9014018406E0090FF205F304A
:1026C000FFF7F0FC4F490C39497AC90041180098CE
:1026D000411A0398081A07900E980B214156203092
:1026E000059100780A900020029028890690092020
:1026F000C00601690798401A070201203F0AC00579
:10270000874229D36BE001200D9003990798401A66
:10271000079002984018029009990198401A019078
:10272000696909980818686105990A98081A40B2F9
:1027300005900698401E80B206900598002804DA9D
:10274000253000E055E040B205900920C00601693F
:102750000798401A07023F0A6420FFF7A3FC2949A3
:102760000C39497AC900411825480068806A081860
:10277000B84207D20120C005874203D209990198C7
:102780008842C0D802990098401A00020D99000AA8
:1027900000290CD01A4901220968D2028918096F50
:1027A000411A09020912002901DD00210D910F993A
:1027B000002906D01249019A096880314A64886468
:1027C00008E0089A0199D1640D490A680F21C901EE
:1027D000511848660E990598C872069828810848CD
:1027E000012201680920000208184178A2409143A3
:1027F0004170641CE4B27608002E00D022E71DE789
:10280000B8000020CC000020F1B5F74F7B203968DC
:1028100000010D18084696B0683012900920000299
:102820000818006B1390412040010E180920C006C3
:1028300000690790002003900824EC48FFF732FC61
:1028400002900020149072B63868F7224030C179A7
:102850001140C171129801210171129801684A0753
:10286000520F4271C9081298C900016062B61698E9
:10287000002801D007980DE06420FFF713FC0799AA
:102880004218DB48417AD8480068806A0818101856
:102890000002000A00F0E2FB686B04903A20405D01
:1028A0000E90082842D2012003900E9858214843E8
:1028B000139940180590CF48876ACD48407AC000E8
:1028C00000F032FD01460598008F40020818C74904
:1028D00049424018874200D238467065B820815975
:1028E0000A7948798979000210438907890B0143E5
:1028F0000598FF314030028A408AC33110184018D1
:1029000000F01AFD07465F200001FFF7CBFBB8423D
:1029100004D95F200001FFF7C5FB00E038460499A9
:102920000918B348407AC00008181490706DFFF77A
:10293000B9FB049940180190002007460690287DB5
:10294000002809D10E98082806D3A949002008803C
:102950000921C906486065E168680890686C0A90BA
:1029600029680798401A00020412A148008840070D
:10297000400F00F01BFB002801D0002007E0002CD6
:10298000FBDB204600F0D0FC0A99884200DA0A906E
:102990000120800708240C9000200F90297D3AE048
:1029A0000E9A904234D0904A12682032927D1207DB
:1029B000120F82422CD0EB6A4200069307929F5A74
:1029C00005976B6A9A5A089B92017B43D3180A9A1F
:1029D0009C46934212DACA0710D02A6B079B089FC5
:1029E000D25A521C93B21A467A43059F9444FA185D
:1029F00092B213460592079F069AD3530C9A6346E8
:102A0000944505D2CA0703D0059A0C9304460F9249
:102A10004908401CC0B20029C2D10C98FFF742FB04
:102A200029684718A86A6100405A8001FFF73AFBFD
:102A3000C01906906E48407A5822C1006A48006862
:102A4000125C002A6C4A12690CD0BB1A029A52001E
:102A50009B1A169A002A01D0002001E0806A4018D3
:102A6000181A0BE0BB1A029A52089A1A169B002BEE
:102A700001D0002001E0806A4018101A0002000A0C
:102A80000121C9050590884209D3082C7ED0204633
:102A900000F056FC55490C9840180A9068640121D2
:102AA0000598C905884200D372E7082C6ED00F98AC
:102AB00000282DD0089948430590FFF7F3FA2968BC
:102AC00040180002000A2860696C0598081A6864BA
:102AD0000C990598081A00210C9013E0EA6A480046
:102AE00005909446105A0F9A801A04E02B6B059AB1
:102AF000401C9A5A10180028F8DB059B6246491CB6
:102B0000D052C9B238480068A030007B8842E5D86E
:102B10000E98082876D20498C01B01020120090AE9
:102B2000C005814222D302983A1A1498101A010261
:102B30000120090AC005814201D314980DE00199D2
:102B4000511A0902090A814208D301204002FFF705
:102B5000A9FA02994900791A081A01900199049872
:102B6000081A0002000A00F0DFFB70650299019864
:102B70004018C01B01020120090AC005814255D23C
:102B800002994A0006995218049900E04AE0511A45
:102B90000902090A814235D20E98582148431399F7
:102BA00042185820214641431398D37B0818C17B13
:102BB000994201D3102100E00021C9061ED4817979
:102BC000CA0702D07221895B03E0890707D5762105
:102BD000895B0289891A491E0904090C12D04079BF
:102BE00000060FD422E00DE0B800002066020000CD
:102BF000C0000020CC040020000000485079902143
:102C0000084213D1082C15D09E490C9840186864CE
:102C1000582013996043401880784007400F0128DE
:102C20003FD007E00398002804D003D0049F0E9CF7
:102C3000019806903802000A009006980102090ADD
:102C4000012080020691FFF72DFA03900120400237
:102C5000FFF728FA074606990098081A00020012A2
:102C6000002809DD0399000A884200D90146039132
:102C7000B84200D838460746082C7DD082480088E4
:102C80004007400FA0424FD058201399604340188E
:102C9000059080784007400F052812D0022810D0F8
:102CA00042E03146803103208A6840028242C1D02E
:102CB000C9688142BED000F081FB4005400DC719B4
:102CC000B8E70598A101006A02906F480818818B47
:102CD000059880B2814227D00298002824D002991A
:102CE0000598FFF791FA694902980A68007C092162
:102CF0000902C0065118C00EC96B801C4018029012
:102D0000059821210069890108420DD0FFF7DAF901
:102D100001283BD01F2002994978084204D002982C
:102D200040780299001D4870584857490068203083
:102D30008474482020430880334680335A6B907A4D
:102D4000C106C90E6001014391729A6B917AC9065E
:102D5000C90E014391720098306500F053F90128C3
:102D600016D04A4800682030017D4748407A081A4A
:102D7000316DC000081800E03AE000020121000AAD
:102D8000490641180920C00641600EE0FF20C2E755
:102D90000121306D090641180920C00641603B48F9
:102DA00000682030017D38484172082C24D2582018
:102DB00044431398241872B61298A1780068490702
:102DC000C008C000490F0843314908400099C900B4
:102DD00008431299086062B6A0784007400F0328A4
:102DE0000FD0FFF76FF901280FD00698C01B19E02C
:102DF00000200921C906486023490020088017B037
:102E0000F0BD03990698401A0CE04034208A618A8C
:102E10004018FF30C33000F08FFA874200D938469F
:102E20000699081A0002000AE863A88B8001FFF7E0
:102E300039F929680026441812483138FFF732F969
:102E4000201A0002000A2864104C2E8420684030AA
:102E5000407E002807D000F0CFFA20684030417E45
:102E600049084900417620684030407E0028C6D09D
:102E700000F0E6FA20684030417EFD2211404176A4
:102E8000BDE7000066020000C0000020B80000207E
:102E9000070000F801784078000208437047017885
:102EA000427813028278C078120400061043184357
:102EB0000843704706480168492040010818017A14
:102EC000807A814201D901207047002070470000BC
:102ED000B8000020F8B50D460E49092309681B0209
:102EE000C918CE6A1F21521E0A431D3297B2002410
:102EF000394600F0C9FA00280AD13946B06800F016
:102F0000EBFA044608340068A0600020E074A58055
:102F10002046F8BDB800002070B50C461F21521E97
:102F20000A430546521C002011044E0D17D02146BD
:102F300008316A1A2846002A01DD082A03DB20220C
:102F400000F0E2FA04E0082208C9521E08C0FBD1D2
:102F500020352046761E24683604360CE7D170BD35
:102F600008B56420694608700921C9066A461078C8
:102F7000401E10704869C00402D410780028F5D1B2
:102F8000107808BDCA6802608A6842604A68826038
:102F90000968C160704710B504468034606C002831
:102FA00003D000F0C1FA0020606410BD0B497B2201
:102FB000096812018A182032927E36311207120FE8
:102FC000824206D009780A0705D44907490F814291
:102FD00001D101207047002070470000B800002098
:102FE00002880B8803800A8070470C0802170D01C5
:102FF000010209090101060209FFFFFFFFFF09099C
:10300000FFFFFFFF30B41348092203680120C0020C
:103010001818D206006F11690F4C411A0902258851
:10302000090A2D0702D430BC01207047647A9B6ADC
:10303000E400E3188B4209D20123DB05994205D253
:1030400059000843506030BC0120704730BC00205C
:1030500070470000B8000020C0000020F1B5B04A61
:103060007B211068090190B0411804914121490168
:1030700045180446C034014636310D9100210291B5
:10308000A849497AC9000C91816A0B9104992031B1
:103090000E91897E079108297ED2092109024018E4
:1030A000016B174607985822504308180890079854
:1030B00081019C480C3008180A90C07A2E46403690
:1030C0000990B08B00F06AFA39684031098E4018D7
:1030D00080B20390E96C039800F06EFAE96C090283
:1030E0000F1AB07F00F06DFA3818FEF7DBFFA96CFD
:1030F00041180C98081A0002000A01901099411A10
:103100000B98081A00020121000AC90588427DD2E5
:103110000499019848630998FFF794F90A99C872CD
:103120000D980078C143090706D041070798490F59
:103130004007400F81422BD10E980821807E084322
:103140000D990870A86C2060E86C60600198A06020
:103150000298E060A86D2061686D6061B08B20838B
:10316000B07FA076284660300178E176B18CA183EB
:10317000318DE183B18D2184318E6184B18EA18442
:10318000318FE184C17E2820015584204059E062BE
:103190000D980078420700E07BE00799520F49073D
:1031A000490F8A4261D0F72108400D995C4F0870A1
:1031B0004007400F07900920396800020818016B8A
:1031C00007985822504308180490079881015548E1
:1031D0000C3008180A90C07A0990208B00F0DEF9B4
:1031E00039684031098E401880B2039061680398B5
:1031F00000F0E2F9616809020F1AA07E00F0E1F91F
:103200003818FEF74FFF2168411800E043E00C98A2
:10321000081A070210983F0A391A0B98081A000278
:103220000121000AC905884257D2A7600998FFF713
:1032300009F90A99C87201980899C01B00024979D6
:10324000000A9022114210D10121C90588420AD3F7
:103250000498C17B0898C07B401C814203D8049825
:103260004079C00601D500F0B3F9E96C039800F08D
:103270004DFA0446B07F00F051FAA96D20184018AD
:103280000721090508438035A96B0322091DFFF7B3
:1032900085F811B0F0BD0898008F41000A982030E1
:1032A00002780998101880B209900898089A008945
:1032B000401C108108984069421A08984261089899
:1032C000C07BFF2802D2089A401CD073E86C4018DB
:1032D000E864079800F02AFAFCE604980A99008F3F
:1032E000400020310A780999511889B2099104994E
:1032F000049A0989491C1181049949690A1A049997
:103300004A610499C97BFF2902D2049A491CD173EE
:10331000616808186060079800F008FA66E7000026
:10332000B8000020C000002008B500216A461180C6
:10333000694600F05DFA08BD4101401880097047F8
:10334000F8B501461B480922006812028218136B67
:1033500058224A439E18412252018518164A880174
:103360008718B07800244007400F052802D00128B4
:1033700005D010E0084600F053FA04460BE02A4658
:103380008032108A002802D0401E108203E00124FF
:103390000846FFF765F8F07BFF2801D2401CF07368
:1033A000002C06D02346324629460020009700F024
:1033B00039FAF8BDB8000020CC00002000210B2015
:1033C0000007026852070DD5026804239A43026081
:1033D000026808231A43026004E0491C052901DD44
:1033E0000020704742689207F7D54168C907FCD0B2
:1033F000806880B270477047FEB50F484121006871
:10340000490144180D4906224118684600F008FD9C
:10341000A66BE56B636B246C00206A46811C175C0D
:103420005F54175C7754175C6F54175C401C6754EB
:103430000628F3DB0020FEBDB8000020EF060000E8
:103440007CB50E4C0E492068062245180D494118DE
:10345000684600F0E5FC296A06226846891CFEF7EA
:1034600070FE0921206809024018016D0622684695
:10347000891CFEF766FE00207CBD0000B80000201D
:1034800004090000EF06000070B5124A0923126813
:103490001B02D2180123D26A83435B00491E4124D8
:1034A0009B184909491CC9B272B615798D420ED3D1
:1034B0001E785B78AD19EDB25B18AB4207D84000BF
:1034C000135C00245B1813541079401A107162B613
:1034D000204670BDB8000020491EC904090E72B60E
:1034E00002788A420CD9511AC9B24A1ED3B203706B
:1034F000426888001058990052580021116000E07D
:10350000002062B670477047814202D25318984239
:1035100003D300B500F0B2FC00BD521E03D38B5C98
:103520008354521EFBD2704718B40168184ACB6806
:1035300013608C68012354604C6894600968D16002
:103540004168144ACC6814608C6854604C6894607C
:103550000968D16064216A4611700922D2066C465E
:103560002178491E21705169C90402D421780029AB
:10357000F5D122782270084A8168D4680C6094687A
:103580004C6054688C601268CA60037318BC704742
:103590001800004828000048380000481FB5054CB6
:1035A00040071ECC03946C460EC4000F6946085AAF
:1035B00004B010BDB023061089084143880A401C9E
:1035C0007047032802D06320C043704766207047CD
:1035D000F8B54C4D4121286849014418264640362B
:1035E000B08BFFF7DBFF29684031098E401880B2AD
:1035F000E16C00F08BF80746B07F00F08FF8A16D0A
:103600003818411807200005014300913E4A2968F7
:103610008818363100F03FFC3F21286849014218E4
:10362000917A4B07014620318E7D5B0F37093F01B0
:103630003B4393727207520F8A75334AA831921F27
:10364000801800F02DFC2868A16CC0300268A264CC
:1036500001602868E16CC4300268E2640160286897
:103660000099CC221150D030A16D0268A265016092
:103670002868616DD430026862650160296820465F
:103680005C30D83100F011FC296820465E30DA3118
:1036900000F001FC296820466030DB3100F0FBFBC4
:1036A000296820466430DC3100F0FFFB29682046A1
:1036B0006830DE3100F0F9FB296820466C30E031DB
:1036C00000F0F3FB296820467030E23100F0EDFB9A
:1036D000296820467430E43100F0E7FB2968204671
:1036E0007830E63100F0E1FB296820467B30E83194
:1036F00000F0D1FB296820468430EC3100F0D0FB8B
:10370000F8BD0000B8000020EA0700004143080AA5
:10371000292109014843C00A401C7047012801D0F3
:1037200001487047002070477A030000FEB5034649
:103730002D483F270268092000021018016B58200D
:1037400058430C184120400110181146274E7F01A4
:103750009D01D219AE19927AC03100259A420CD13E
:10376000024640321746928E3F8F009784273F587B
:10377000012301977B273F5C07E08A8CCF8C009761
:10378000CF6A0023019728277F5C0297A779FF075C
:1037900008D02789D21B1204120C03D12246FEF74F
:1037A00005FE0546A079810710D522890099891A5E
:1037B000491C0904090C09D1FD21084001ABA07185
:1037C0003146052221311846FEF7BBFC002D0AD0F8
:1037D0000548009601684120400109182B46224601
:1037E000002000F01FF8FEBDB8000020CC00002033
:1037F00010B50A4A830B12688004526A800C140ABE
:1038000060435A438009101800228A5E821A1046CB
:103810004030C009C3019A1A0A8010BDB8000020C8
:1038200000207047FFB506468DB050890690FF48CE
:103830000921006809020B904018006B0A90517929
:103840001D461446480601D4E80757D000200790CB
:10385000208F0090A089A3698446A0784007400F7C
:1038600005282DD003282BD001200990BF2001402E
:1038700061710E99EF07084640301031002F0AD0D1
:1038800000223C2107910E99069200928283944671
:1038900013468280083137270B9A7F01D219577857
:1038A000BF060FD5D778BF070CD580886246029334
:1038B00001920390069B079A099800F0FBFA1DE01D
:1038C0000020D2E71A030079130C009A6746039789
:1038D000049302920590486801910002000E009046
:1038E0000B98A0300079C00701D0002000E0102024
:1038F0008030099B069A079900F0DEFA0E9F280790
:10390000C037002873DA2069E90301D5162117E0D2
:10391000A90301D5132113E0290301D528210FE0C4
:10392000E90201D53D210BE0690201D5222107E022
:10393000690329D56179090601D4082100E03E21F7
:103940000191B97B582251430A9A8918A14201D1A9
:103950000821B973F97B582251430A9A8918A14268
:1039600001D10821F97305218902084222D02804D7
:1039700020D5208A4004AD4800680ED5A0300079DB
:10398000C00703D0002002E01F21D9E710208030BB
:10399000069A019900F0D4FA0CE0A0300079C00733
:1039A00001D0002000E0102000238030069A019909
:1039B00000F0F2FA206A002801D000F01BFB00277B
:1039C00027629A4867620068A421095CC90701D090
:1039D000002500E010250699039101990223803506
:1039E0000591E90604D50222BF210D4007E01DE044
:1039F0001B2189014118897EC90614D50022290797
:103A0000890E09180120C00208184069294600F0F3
:103A100013FB010007D00F71039ACA80059A0A723E
:103A2000284600F067FB002527618DE1680620D558
:103A3000A0784007400F052801D1A16961610021EC
:103A400005280BD0208BA2890004000D0190009264
:103A5000238F8020069A00F061FB75E1606B43893B
:103A6000028901930092C3888020069A00F056FBD9
:103A70006AE0680723D5802000906C481B2100680D
:103A800089014118C97E0223069F0907CDD59902F5
:103A900040180C224069009900F0CEFA0100C4D011
:103AA0008F80F2788A713379727912021A430A810F
:103AB000B379F27912021A434A81009842E128054B
:103AC000800F06D00E98694631C1684600F05CFB55
:103AD0003AE1574805423DD0E80401D5002000E016
:103AE0001A20079006980490F01C029080214F48FD
:103AF000009101683720400108184278032392069C
:103B00001AD58078000717D50120C00208180E22A8
:103B10004069009900F090FA059000280CD00799B0
:103B200001710499C18008220830029900F078F9E7
:103B30000599009800F0DEFAA0784007400F0528AC
:103B400002D0022803D0FFE00820B873FCE0082070
:103B5000F873F9E0680424D5208A400433480068EB
:103B60000CD5A0300079C00701D0002000E0102063
:103B700000218030069A00F0E3F90CE0A0300079D3
:103B8000C00701D0002000E0102001230021803078
:103B9000069A00F001FAA0784007400F0528D3D01C
:103BA000D2E028021ED5208A00051AD51F48F178D8
:103BB0000068A0300079C00701D0002000E010208C
:103BC00000238030069A00F0E7F9A0784007400F04
:103BD000052801D10820B873432120698902884350
:103BE0002061B1E00E992A06803112480091002A26
:103BF0002CDA31460D31019102A907910B49169F2C
:103C0000096808220918F01C2637FEF79AFAF17A9B
:103C1000307B0822000208430099C8830799019865
:103C2000FEF78FFA04223946019805E0B80000201B
:103C300000100004640900000830FEF782FA0098C2
:103C40000299C1630098039901647DE029013ED582
:103C50007149A4220968525CD20701D0002700E014
:103C6000102708180390069A00980292C08B03232D
:103C700080370590F80603D50622BF20074009E0EB
:103C8000372040010818427892065DD58078C0063A
:103C90005AD504223807800E41180120C0020818A6
:103CA0004069394600F0C8F9049000284CD0001D46
:103CB00000900299018000980822801C039900F06E
:103CC000AFF8009805994181384604993AE0A80276
:103CD00009D50820B873514800884007400F401CA0
:103CE00000F053FA30E0A8012ED580200190204644
:103CF000403041880991018A0891C1880491408A25
:103D00000790454837210068490141184A78069FC5
:103D10000323920618D58978490615D50121C902D1
:103D2000401806224069019900F086F901000BD085
:103D30008F80099ACA80089A0A81049A4A81079A50
:103D40008A81019800F0D6F9A8060AD5206A016890
:103D5000216200210160226A002A00D1616200F024
:103D600049F9E8061AD5FEF7ADF9012852D01F2708
:103D70007078B11C0740E0693A46806800F006FAA6
:103D8000E069C780E069002707603178E06989074A
:103D9000890F0173E06900F025FAE761E80137D582
:103DA0001698C18901204007091849880818017828
:103DB0004906CD0F07A900F033FAA1200190A67B98
:103DC0000798099008980A9013480721006809028B
:103DD000411809790223C9071AD09902001D401819
:103DE0000F224069019900F027F9040010D02671D4
:103DF000271D6571042209A9A01D00F011F80422F5
:103E00000AA9B81D00F00CF82146019800F072F9DB
:103E100011B0F0BDFF27ABE7B8000020C0000020C4
:103E200010B5040000F02AF8200010BD10B5040001
:103E3000080011000200200000F0FCF9200010BD75
:103E400080B500F021FA02BD70B4103A03D378C9EE
:103E5000103A78C0FBD2530701D318C918C001D556
:103E600008C908C0D20704D30B880380891C801CB2
:103E7000002A01D50B78037070BC70478B0701D105
:103E80008307E1D0124205D00B78491C0370401C17
:103E9000521EF9D1704702780B7803700A70704790
:103EA00002680B6803600A60704702880B88038011
:103EB0000A80704770477047FFB51F4605230646C6
:103EC000C1061E4881B0006803D50522BF210E40FF
:103ED00009E03721490141184A78920629D58978A5
:103EE000C90726D003223107890E08180121C9020B
:103EF00040184069314600F09FF804001CD0029839
:103F000020710398E08027720A9860722046251D70
:103F100006220A300B99FFF783FF0C98A8810D98B1
:103F2000E8810E9828820F98A8742146304600F048
:103F3000E1F8002005B0F0BD0720FBE7B800002045
:103F400070B50E4601230446C106124815460068A6
:103F500003D50422BF210C4008E01B218901411830
:103F6000C97F090601D4002070BD02222107890EF5
:103F700008180121C90240184069214600F05CF888
:103F8000010005D00E71CD80204600F0B3F8EAE7BD
:103F9000072070BDB8000020F8B51D460F4602236B
:103FA0000446C10612481646006803D50322BF2105
:103FB0000C4008E01B2189014118897E090601D4C3
:103FC0000020F8BD01222107890E08180121C9022D
:103FD00040184069214600F02FF8010006D00F710B
:103FE000CE800D72204600F085F8E9E70720F8BD85
:103FF000B800002070B5C17C0E4D4906490EC17451
:10400000044601232868D9024018902600224069FE
:10401000314600F011F8010003D030464C6000F04A
:1040200069F84920296840010918487A401C4872FB
:1040300070BD0000B8000020FFB5044600262C4FDC
:1040400083B09C460D46080616D572B601AB6A468B
:104050006146204600F027F900280BD06846818889
:104060000098827892089200827001806180012617
:1040700062B615E062B621E001AB6A4661462046B1
:1040800000F011F9002819D0680609D46846818823
:1040900000988278920892008270018061800126E7
:1040A0000098AA00817840238907890F1A4011439C
:1040B00081700599C170002E0ED115E0002000908E
:1040C00072B6A8060FD401203968C002081801682A
:1040D00008221143016062B672B63868F722403098
:1040E000C1791140C17162B6009807B0F0BD0000FF
:1040F000B80000200A46400608D5D0783A280AD2EF
:10410000111D054B80001B581046184790788008F9
:104110008000801C887070471C090610F8B51D4689
:104120000F4603230446C10616481646006803D509
:104130001022BF210C400BE03721490141184A7879
:10414000920602D58978490701D40020F8BD0D22D6
:104150002107890E08180121C9024018406921462B
:10416000FFF76AFF01000AD00F71CE800D81069A19
:104170004A81079A8A812046FFF7BCFFE5E70720BE
:10418000F8BD0000B800002070477047F8B504463D
:104190000D46501E1F210843401C00041646470DC3
:1041A0001ED0204608302946421A002A01DD082A7E
:1041B00003DB2022FFF7A8F904E0082208C9521EF9
:1041C00008C0FBD12035202E01D2304600E020204F
:1041D000A080301A7F1E24683F0486B23F0CE0D1D5
:1041E000F8BD704770B50D4D044601232868D9020B
:1041F000401890261A4640693146FFF71DFF01001E
:1042000003D030464C60FFF775FF49202968400114
:104210000918087A401C087270BD0000B800002020
:1042200010B50B4601784906CA0F811C184600F0EC
:1042300070F810BD1206130A1A43130C1A4300BF7C
:10424000094205D0830707D00270401C491EF9D1EE
:10425000704700000022FFE71300103906D330B486
:104260001400150010393CC0FCD230BC490700D303
:104270000CC000D504C0890002D30280801C002934
:1042800000D5027070477047A446521E08D30378C9
:104290000C78401C491CA342F7D0181B6446704799
:1042A000002064467047F0B54488491CA4B2E5B2CA
:1042B000A40809B21C808EB287883619BE4204D980
:1042C000A6B2891B6D1C09B2EDB2A40024180834F3
:1042D00014601C88AD076418A400AD0F2C43A4B271
:1042E0001C800388E31A9C07A40F012C02D803D179
:1042F000002B01DD00230AE00123002907DA116801
:104300008C78A408A400641C8C70083010601846D7
:10431000F0BD70B5044616460D460846FEF7BFFDD3
:104320002060281DFEF7B6FD31044018606070BDA6
:10433000F8B596B0050017001E001C98049103A95B
:104340002B22885400200A9002950E9700960EE0CA
:10435000252912D00498029A90470490002800D191
:10436000D2E00A98401C0A900E98401C0E900E98BD
:1043700001780029ECD10A98C8E000200790089045
:104380000990022608210191012404210E9D00E0DC
:1043900020436D1C2A78202AFAD0232A0AD02B2AFF
:1043A00004D02D2A04D0302A08D00AE03043F0E7A8
:1043B0000843EEE7020008201043EAE7020010205D
:1043C000FAE72A2A0ED1009A17683A683F1D009B27
:1043D0001F600C92002A03D553420C93014308003E
:1043E0006D1C14E000210C91004A0BE0CBCCCC0CEE
:1043F0000C9B934205DA9F00FB185B00591830397B
:104400000C916D1C29780B00303B0A2BF0D32978D6
:104410002E2903D00021C9430B9127E06D1C297878
:104420002A2908D1009909680A68091D009B1960AA
:104430000B926D1C1AE02D2902D12D236D1C00E07A
:10444000002300210B910CE0002B09D10B9ABC4FEB
:10445000BA4205DA9700BA185200511830390B9158
:104460006D1C29780A00303A0A2AEDD303A9088581
:104470002F783900B3A000F01BFA002801D03800D3
:104480006D1C03AF2A217854785C682805D1287800
:10449000682802D1622078546D1C10A806902A78F2
:1044A000681C0E90252A15D0582A52D0632A00D1B4
:1044B000BCE0642A00D17FE0692A00D17CE06F2A49
:1044C00047D0702A3AD0732A08D0752A41D0782A6A
:1044D0003FD0B5E0079410A90A70BAE000980068D0
:1044E0000468001D009908600594002C13D12B204E
:1044F000385C00280CD00024E44300BF93A000F0F7
:10450000E1F9201A00D1A4E00020C04317B0F0BDAB
:1045100095A005909DE00B9D002D03D5200000F097
:10452000F5F909E02A000021200000F0F7F9002841
:1045300001D0001B00E0280008908AE00098006885
:104540000168001D009A1060039110A80590782161
:1045500068E0785C622803D0682809D06C280FE0F6
:10456000009801680868091D009B1960C0B20DE041
:10457000009801680868091D009B196080B205E079
:10458000009801680868091D009B19600390388D28
:104590000199C0B2084240D0039800283DD02020A5
:1045A0001043782839D1079810A930230B54401CA8
:1045B000431C07930A5430E0785C622803D06828D3
:1045C00009D06C280FE0009801680868091D009B5D
:1045D000196040B20DE0009801680868091D009B51
:1045E000196000B205E0009801680868091D009B89
:1045F00019600390002802D507982D2109E0388D15
:10460000304202D007982B2103E0C00705D5079858
:10461000202110AB1954401C079010A8079940188E
:104620000590110003A800F0A0F812E0079400988C
:1046300000680168001D009A106010A8017008E071
:104640000794252010A90870100002D0079610A822
:1046500042700C980799401A0999401A0899401A13
:104660000F902820385C400713D420206946087139
:104670000F9800280DDD0F9C029D012301AA03A9BC
:10468000280000F0FAF8002800D03DE7641EF4D1BD
:104690000295079D10AC002D0ED0029E227803A932
:1046A000300000F0D9F8002802D4641C6D1EF5D14A
:1046B0000296002800D027E7302069460871099C3F
:1046C000002C0CDD029D012301AA03A9280000F0A3
:1046D000D4F8002800D017E7641EF4D10295059C99
:1046E000089D002D0ED0029E227803A9300000F014
:1046F000B3F8002802D4641C6D1EF5D10296002880
:1047000000D001E72820385C400700D42FE62020A5
:10471000694608710F98002800DC28E60F9C029D6E
:104720000E9F009E012301AA03A9280000F0A5F80E
:10473000002800D0E8E6641E00D105E6F2E700009C
:10474000CBCCCC0C686C747A4C0000007072696E33
:1047500074665F733A20626164202573206172671A
:10476000756D656E740000000000F0B583B00A003E
:10477000C4686F2901D1082506E02021114378295A
:1047800001D00A2500E01025182701680E00642AD0
:1047900001D0692A03D1002901D571420E00002EF3
:1047A0000CD1016A002909D1082D31D12821415CA1
:1047B00009072DD517273021E17529E002906846B9
:1047C00002707F1E01973000290000F0B2F83031EE
:1047D000C8B23A2803DB6846007851380918E15519
:1047E0003000290000F0A5F8060004D00298806887
:1047F000E1198842E5D30298082D09D12821415CAE
:10480000090705D5E15D302902D07F1E3021E15531
:104810001821C91B4161E2198260026A914206DADD
:10482000511A8161018D0B4A0A40028510E0002A6D
:104830000ED52822825C14231340102B08D1426A23
:104840000369D21A8369D21A511A012900DB8161E6
:1048500003B0F0BDEFFF000010B503000C00110025
:10486000606898476060002804D0E069401CE061FF
:10487000002010BD0020C04310BDF8B50024002B5F
:1048800011D007000E0014001D0021787068B84791
:104890007060002809D0F069401CF0610020641CA1
:1048A0006D1EF2D104002000F2BD0020C043F9E7E4
:1048B000C9B202788A4203D0401C002AF9D10020F4
:1048C0007047704780B5002801D100BF07A0064996
:1048D0000B68002B03D022220021984701E000F052
:1048E0007FF8222002BD000054050020636F6E7324
:1048F000747261696E742068616E646C65723A20CE
:10490000626164206D65737361676500431C0178A3
:10491000401C0942FBD1C01A70477047C9B2521EF1
:1049200005D30378401C8B42F9D1401E704700200C
:1049300070470022030A8B420BD203098B4219D223
:1049400043088B422ED2411A00D2014652411046F2
:104950007047FF2209023FD012068B4205D3121284
:1049600009028B4201D31212090203098B4219D3A7
:1049700000E0090AC3098B4201D3CB01C01A52419E
:1049800083098B4201D38B01C01A524143098B42E8
:1049900001D34B01C01A524103098B4201D30B01D1
:1049A000C01A5241C3088B4201D3CB00C01A5241F6
:1049B00083088B4201D38B00C01A524143088B42BB
:1049C00001D34B00C01A5241884200D3401A5241D1
:1049D000CFD201461046704708B500F007F808BD71
:1049E00080B5012000F004F801BD704770477047A2
:1049F00080B500BF00BF024A11001820ABBEFBE724
:104A00002600020010B5C20018231340FF249C406A
:104A1000E2438907090E9940030004D55D481B074E
:104A20001B0F083B00E09F489B089B00C0180368D1
:104A30001A401143016010BDFEB5012456480178AB
:104A400001220A430270002654480660032500F044
:104A5000BFF96946088068460088002801D16D1EAC
:104A6000F5D168460088202836DB68460088012595
:104A7000400525D4684600F00BFA684641780901E4
:104A800080780843122800DA00258748006800076C
:104A900005D4002D14D0012000F062F810E0834FFF
:104AA000F868834E3168081A28380002001200287E
:104AB00006DD002D02D0012000F052F83068386089
:104AC0007C48047000F04BFABFF34F8F7A487B4963
:104AD0000860BFF34F8FFEE70120FEBD10B5002236
:104AE0000021A44804E00B00415C5918491CC9B2DC
:104AF000435C002BF7D1CB1C202B12DA022343544A
:104B00002123441863700823A3704318DA709A4A6B
:104B100080235B02401880B2184310601068184070
:104B2000FCD110BD70B500210023924A04E01C00A6
:104B3000D35CE3185B1CDBB2D45C002CF7D10225FC
:104B40003524DE1C202E05DAD554D6187470B070CA
:104B5000D218D170894A157054709070D17070BDA0
:104B600070B580214902854B9CB20C43824A0028D3
:104B700004D01460106808400AD0FBE798789D784C
:104B8000FB262E409E70146014680C40FCD1987077
:104B900070BD00001CED00E0080020401400002063
:104BA000F2B58AB0040003A87DA11C22FFF74CF9DE
:104BB000684600F06DF9704D0126002C58D003A80E
:104BC000442181736E490A78012313430B704C21F1
:104BD000C17220210172B22141745B2101756949C2
:104BE0008B6B694A1C0C944209D1C47D8F272740E6
:104BF000C775C47D1B0170271F402743C7754B6BCA
:104C00001C0C944209D14479CF272740477144793D
:104C10001B0130271F402743477109680B0C934243
:104C200008D1C27DFC231340C375C27D8907890F5B
:104C30001143C175C17AFB220A40C27269464A78A3
:104C400012018C781443112C06DDC17D04220A4325
:104C5000C275C07DFFF766FF300403A989B2014326
:104C6000296029680140FCD1112C01DDFFF736FFD6
:104C7000134988890028FBD00AA800788E81172262
:104C80000A8000224A60002807D0686810216A68FC
:104C90000A40102303409A42F9D03C483C4908603E
:104CA0000BB0F0BD00E400E0C000002004000048AC
:104CB000180000200C0000200400FA050CED00E0B4
:104CC0000C00104880B508203249088003210120DB
:104CD000C043FFF797FE03210020C043FFF792FE79
:104CE00003210020FFF78EFE03210120FFF78AFE3B
:104CF00003210420FFF786FE03210520FFF782FE33
:104D000000210620FFF77EFE03210720FFF77AFE31
:104D100003210D20FFF776FE03210E20FFF772FE20
:104D200003210F20FFF76EFE03211120FFF76AFE1B
:104D300003211220FFF766FE03211320FFF762FE16
:104D400003211420FFF75EFE03211520FFF75AFE12
:104D500003211620FFF756FE03211720FFF752FE0E
:104D600001210120FFF71CFF0B480C49086062B6C7
:104D700001BD0000280500200C0000481C00002098
:104D800008002040B007001055AA0000CCBCECFC85
:104D9000140000200400104066000E002000904027
:104DA000023F00023E30023C20023B4C023A4002ED
:104DB00039B202345B02350B00000000304A012991
:104DC000116802D108431060704781431160704739
:104DD0002C4802782C4801880020002A44D109225E
:104DE0000A40092A00D1202011220A40112A02D1AA
:104DF00002004020104321220A40212A02D1020051
:104E00008020104341220A40412A03D10200802021
:104E10004000104381220A40812A03D102008020F1
:104E200080001043FF22921C13000B40934203D1D9
:104E300002008020C0001043144A13000B4093422C
:104E400003D1020080200001104305220A40052AF8
:104E500002D10200102010438907890F03290ED1C7
:104E60000100082008437047022A01D10120704741
:104E7000042A01D102207047082A00D1042070477B
:104E800020009040080090400800104801040000F5
:104E90000F21114A13681B090B4043701368194016
:104EA0008170D268426001210C4B9A4208D10C4AB1
:104EB00012680C4B9A4201D1042202E0022200E067
:104EC000012202704278002A00D141700649098807
:104ED000491C8900816070471C00904041A000027D
:104EE0001C00001044A000F2140010407FB5040024
:104EF0000D0016006846FFF7CBFF68460178217069
:104F000041782970807830707FBD7047EFF314824C
:104F1000EFF30981002080F31488BFF36F8FF0B5A1
:104F200043464C4655465E466746F8B4164CEFF38A
:104F30000883236006B4154C2068154C2060154C7E
:104F40002068154C2060154C2068154C2060154CCD
:104F5000276800202060BFF34F8F30BF27600A4CC6
:104F6000246884F3088882B003BCF8BC9846A14644
:104F7000AA46B346BC46F0BC04BC80F3098881F362
:104F80001488BFF36F8F10470800002004ED00E085
:104F90004805002024ED00E04C05002000E200E080
:104FA0005005002008002040F0B5E248412100688B
:104FB0004901E14A441895B082180392DF4A926889
:104FC000D3017DD55303DD4A12697AD4D1890120FA
:104FD0004007091849880E189189091849880F183F
:104FE000307806A905072D0F3046FFF719F9D34889
:104FF0008068002866DA022112A8032D02D0052D50
:105000006AD05FE1CD4DEA78D2065BD501226A71A4
:10501000C84A1268E032127C002A21D008AA117016
:105020000B9003980C9009960FA80E900A970D9478
:10503000104600F085F928712879012842D0012016
:105040000006A8612869018A20468030026A118022
:10505000018C28690182817A80221143817231E1B9
:1050600004A9304600F06EF9B01C01460A78737945
:1050700010464A78120210438A78C9781204104305
:105080000906084302023078317A4006C00F024315
:105090001846B37909061B021843F3791B04184319
:1050A00008430102104600F057F904992268914222
:1050B000C2D1059962689142BED1012806D002E0B2
:1050C0002FE185E07EE0E878400602D500202871D7
:1050D000B5E701202871F5E0984DEA78120771D5FF
:1050E00000220923DB065A60924A1268E032127CE1
:1050F000002A25D008AA11700B9003980C900996ED
:105100000FA80E900A970D94104600F019F9287117
:10511000012858D02869009006AB21463046EA683D
:1051200000F046F98349002009682031C874204600
:10513000C030C17BAA78914244D10821C173C1E03B
:1051400004A9304600F0FEF8B01C01460A787379D5
:1051500010464A78120210438A78C9781204104324
:105160000906084302023078317A4006C00F024334
:105170001846B37909061B021843F3791B04184338
:1051800008430102104600F0E7F801212971049953
:105190002268914217D105996268914213D1012882
:1051A00002D0E87800060ED5E878800607D5069884
:1051B000A168884207D10798E168884203D100209E
:1051C0002871A7E77EE0A4202969005B088279E0C6
:1051D0005A4B9589A022125B92B2954201D10122CD
:1051E0009A712322520182189279524D012A69D173
:1051F0001122920183189B7DFF2B63D037214B43F3
:105200001A18FF3241320394507B002836D109210D
:1052100009022E6813787618376D06462A36BB5574
:105220002E68521C7618376D06465236BB552E68CE
:105230007618376D06467A36BB552E687618376D68
:105240000646A236401CC0B2BB550628E1D32868EA
:1052500040224118086D2030037A13430372086D11
:105260004030037C13430374086D6030037E1343A6
:105270000376086DA0300178114301700398007E19
:10528000012819D11121286889014118897D372207
:1052900051430918FF202F30405C00280CD103989F
:1052A000FF31406B4831083000F0CEF9039880227E
:1052B000406B01781143017023212A6800204901C5
:1052C000511888711D480269917A090629D5158AF5
:1052D00023468033998C89B28D4222D12F25198A99
:1052E0002D5DD57200220925ED066A60FF254A1E54
:1052F0005535AA4200D81A82002904D101218161C2
:105300008078FDF7ADF80B48016809200002081805
:105310004078002802D00120FDF776F90120FDF742
:1053200073FA06488068400302D52046FDF733FE35
:1053300015B0F0BDB8000020040900007000002086
:105340001F20704710B50B460178CA090146083185
:105350001846FEF7DEFF10BDF0B4144A2F23126882
:105360005B01D21894461F27202200245208A3185C
:10537000DBB2BB4214D2DD0065442E686D682D029D
:10538000A94203D8A9420BD1B04209D31C46B0426E
:1053900006D1A94204D1FF2B04D0F0BC01207047F4
:1053A000002AE3D1F0BC002070470000B8000020C4
:1053B000FFB50D4606468DB000200921C906169F8F
:1053C0001446486030460E30FDF769FD0890B17C08
:1053D000F07C0202307D0004104308430A90707D87
:1053E000079030461630FDF755FD0C9030461830CA
:1053F000FDF750FD069030461A30FDF74BFD0B903F
:1054000030461C30FDF746FD019030461E302036F8
:105410000090F078C106C90E46090920C00609911E
:105420008068A86400203946E86421310522029191
:105430000098FCF786FE0221E170002022225055E0
:10544000E07306980C225043606100203122105511
:10545000019801230001A06128462171403003908A
:10546000837106987049400240187049896A8142E8
:1054700000D208460021686521810B98A08106981A
:1054800020870C9842000120921CEA64039A9683BC
:10549000039A9680A17121612080A06A0080A06A91
:1054A00044802046403001751B26FF216687493124
:1054B0002A460181C032138A1B2B02D1538A8B42A8
:1054C00001D010230375138BA387E68706804680DF
:1054D0008680C680528B42818181C1810182418256
:1054E000288C5349401C80B2884202D94942401856
:1054F00080B260812884C7200190A16AC872052209
:1055000002990098FCF71DFE0020F872218D398267
:10551000F8750898B8610A98F86120210998C8556B
:10552000FCF7D0FD8022012800D1BA7542200290FC
:105530000590404804902E4610983F498036002838
:1055400039D0B06B0080B26B0198D072308F788206
:1055500010983A4A00682861109840686861079876
:105560005043FF30F530A865039A012090770888F2
:10557000334A400712683F23400F5B01D2189072F4
:105580006079C022104360710020B872A078C00812
:10559000C000801CA070B26B1B2090720888A16AAA
:1055A0004001083088720020C0433082B16B032272
:1055B000C91D029825E0706B0080736B0198D8724A
:1055C000B08E78826079C02318436071BA72A07877
:1055D0001C4DC008C000401DA0700888A16A400191
:1055E00019308872716B0A20887200F03BF8716B79
:1055F0000322C91D0298FCF7D1FE716B03222846D5
:10560000091DFCF7CBFE0120FDF7FEF8A16A03227D
:10561000C91D0598FCF7C2FEA16A0322091D049862
:10562000FCF7BCFE11B0F0BD9AFDFFFFCC040020DA
:10563000FF0E0000FA003000C0000020E20400006D
:10564000B80000202C01B0000A7802704B7843703B
:105650008A788270CA78C2700B7903714A79427174
:10566000704770470B487B210068090140180A49C0
:105670000988C36A4907028C090F5A52036BC28B0F
:105680005A52836A428C5A52436A828B5A528169B7
:1056900041607047B8000020C0000020FFB5002026
:1056A00099B0239A0B9012900546149006461590D7
:1056B0001C46DB480B460068DA49229F41180391DB
:1056C0000021089109915188069111880A913B2186
:1056D00049014018007DC00706D00FA9184600F008
:1056E000A5F900280AD102E047201DB0F0BD10AA9C
:1056F0000F991B9800F0B2F9002801D06020F4E760
:105700001998002803D0600701D5012000E000208F
:105710001390A007800F1C90109817902030C0782D
:10572000012840D11798C04B01899942F9D11798A7
:10573000069904680A98228C4118914233D8204671
:10574000203016908078012816D0E08B04901798AE
:10575000806900788006800F7ED0039840301890D2
:10576000007A800778D51C980028F5D0AE4F0F99A5
:10577000FF372031206814E0BA4214D3B942DDD893
:105780000497E4E70389A84A934203D12322125CD9
:10579000012A08D0BB4203D12322125C012A03D084
:1057A00000688842EED134E105900028FBD09C4887
:1057B0000921026809025118496B0027009162E033
:1057C000780100990390085A01055AD019990029C7
:1057D00001D0884255D105997A008B69511C595CDA
:1057E0009A5C0902891889B20D91890749D0022271
:1057F000059900F042F9002804D01998002840D0FB
:10580000652072E7002008A9C8551C98C00718D069
:10581000179880690078C00613D50D98C00710D07E
:105820000120C8550543009A039880184088159AAE
:10583000904206D91590009A0398105A0005000D61
:1058400014901C9880071CD51798806900788006F2
:1058500017D50D98800700E083E012D50220CA5DBD
:1058600005430243CA55009903984018408815998A
:10587000884206D9159000990398085A0005000D32
:1058800014907F1CFFB266480068A030037BBB42C7
:1058900096D8002D65D01898007A00065FD460482D
:1058A0000168092000020818416B00201BE042013A
:1058B0008E5A360515D0AE070BD556183669B70780
:1058C0000DD408AF3F5CBF0703D5360701D546208E
:1058D0000BE7EE0705D05218127CD20701D0432007
:1058E00003E7401CC0B28342E1D81598C01E86B2BF
:1058F0000498864200D90646A8070FD5202200202A
:105900001499FDF7E7FA129000287DD0F01C82B2BE
:105910000021129800F0D9F8002811D1E80720D012
:10592000202200201499FDF7D5FA0B90002807D00B
:10593000F01C82B200210B9800F0C7F8002810D0AC
:10594000802000F0C9F81298002802D0002100F051
:10595000CFF80B98002802D0002100F0C9F864208D
:10596000C3E6A1690A98069A08182499FEF758FA1E
:1059700016988078012801D10498E083002D46D044
:10598000274B0920196800020818416B002008AA5B
:105990000CE04301CF5A3F0506D05F18BC463B6977
:1059A000175C3B4367463B61401CC0B21C4B1B6805
:1059B000A0331B7B8342ECD8A8070DD5129800902A
:1059C000F01C82B221461C310220A36900F0AEF81F
:1059D0000220129900F0C9F8E80718D00B9800903F
:1059E000F61C2146B2B21C310120A36900F09EF8DA
:1059F0001398002805D00B988021C07C08430B9990
:105A0000C87401200B9900E005E000F0AEF800201A
:105A10006BE6422069E6802000F05EF89FE7000018
:105A2000B80000202C0700000328000010B5094A28
:105A3000094B1268D2189368083206E01C8D844224
:105A400002D100200B6010BD1B689342F6D14120AB
:105A500010BD0000B80000202C07000010B50B6A34
:105A6000203106E09C8B844202D10020136010BDDF
:105A70001B688B42F6D1412010BDF8B516460D4685
:105A80000746002400F098F8002806D03246294640
:105A9000384600F0B7F8044604E02035687900285D
:105AA00002D00E242046F8BD2879C10701D1012E6D
:105AB00009D0810701D4022E03D04007F2D4042E6E
:105AC000F0D10324EEE70224ECE710B5121D806844
:105AD00092B200F0E7F810BD04490A683B21490181
:105AE00051180A7D02430A7570470000B800002073
:105AF000F8B50E460C4909220968120289180838BF
:105B00000746CC6A00F004F905463946A06800F063
:105B100009F972B67100605C401B6054207940192D
:105B2000207162B6F8BD0000B8000020F8B5069CF0
:105B30001F4615460646002C13D0A06802220D30E1
:105B4000FEF76EF9E81E82B23B460721204600F0C0
:105B500004F9E580A068012E05D01D210173002005
:105B6000F8BD4720F8BD1B21F8E77CB50C4605467B
:105B70006A4601A900F0FAF8002801D041207CBD56
:105B80006846E1888088814200D9E08000980088DA
:105B9000A080204600F012F90098012D07D001697D
:105BA0000822114302229143016100207CBD01695A
:105BB00049084900F8E7704770B500281BD0030575
:105BC0000F48002100680D4A1B0DA0301268047BAD
:105BD0000FE008467C267043D56F0830285A000530
:105BE000000D984203D17C225143681870BD491CB6
:105BF000C9B28C42EDD8002070BD0000BC0000206E
:105C0000B800002070B515460C46064600F0ECF8CA
:105C100020346179012D09D00A0702D54207920F7D
:105C20000FD0CA0625D5020709D522E0CA0702D03F
:105C30004207920F05D08A0705D5020703D4082032
:105C400070BD052070BD490707D5C00709D0E179AF
:105C5000304600F0E0F85F2805D02079C00704D076
:105C600005E00F2070BD0C2070BD022070BD00202B
:105C700070BD890607D5C007F3D0E179304600F042
:105C8000CAF85F28EFD02079810701D4022D07D010
:105C9000410701D4042D03D00007E8D4082DE6D134
:105CA000032070BDF7B507461848092100680902AE
:105CB0004018C46A41201646002F11D0384600F023
:105CC000BAF80546B0420CD2301A81B20198FDF7FD
:105CD000DBFB002804D132463946A06800F0B5F855
:105CE000FEBD32463946A06800F0AFF86D1E761E44
:105CF00069097209891A72B6019A5200A35C5B1A8B
:105D0000A35422795118217162B6FEBDB80000205B
:105D10000021002804D0491C0068C9B20028FAD12B
:105D200008467047002917D072B60278002A03D0BF
:105D3000436892009A58116010B400238B80027857
:105D4000521CD2B2027044689200A1500968002926
:105D5000F4D162B610BC7047704710B51C461346AC
:105D60000A468068214600F0B7F810BDF0B59446A9
:105D700000220A806346104C1A60092322681B0225
:105D80008646D2184120526B00230FE05D01AD180A
:105D90002F697646374207D06F880E88B74203D9FD
:105DA0000F806046056000205B1CDBB22568A035D3
:105DB0002D7B9D42EAD8F0BDB800002010B5044606
:105DC0000146042000F0BCF8002808D0044805492A
:105DD0000068401821463C3000F0D8F8432010BD40
:105DE000B80000202C07000010B50024FFF7E4FEE7
:105DF00000280ED00089C10407D50124810401D5F3
:105E0000032402E0410400D50524000401D4082045
:105E10000443204610BD10B50C46FFF7CDFE002808
:105E200007D0817A002904D0007FA04201D300204E
:105E300010BD5F2010BD0021002804D0491C00685F
:105E4000C9B20028FAD14801704730B400240B1EB3
:105E500022D02034A4B294421AD30A68002A35D042
:105E600072B60378002B03D044689B00E3581A6095
:105E70000024948003785B1CDBB2037045689B00B0
:105E8000EA501268002AF4D162B6002008601DE0D2
:105E90000B4609680029DCD1111B491EC9040A0EF2
:105EA00072B6017891420CD9891AC9B24A1ED2B28F
:105EB00002704068890092004158825800201060AA
:105EC00000E0002162B61960002902D030BC002039
:105ED000704730BC47207047FFB5044650090006A4
:105EE00081B01F46000E06D0002C23D0401E24682F
:105EF0000006000EF8D1D606F60E17E02020851B0E
:105F0000BD4200D33D46A0192A4608300299FDF74C
:105F100087FF0298711940190290781B87B2A088F8
:105F2000884201D2A819A08024680026002F04D03E
:105F3000002CE3D1412005B0F0BD002005B0F0BD3C
:105F400010B50C460146042805D0052903D00629C2
:105F500001D0502010BDA068A2790272E088020A28
:105F6000A0684272A0688172A068090AC172E088C4
:105F7000001DE08002202073204600F01DF800285C
:105F8000E8D0E088001FE080412010BD10B5044635
:105F900000200860206800280CD060680160084676
:105FA000616000F03BF8E17A4018E072A07A401C92
:105FB000A07210BD2160F2E710B5044600202082D7
:105FC000A074A168A16161612060204600F02CF8F6
:105FD000452801D0412010BDA088032100F04CF8D5
:105FE0000446FCF7E3FF002813D072B60A480122EA
:105FF00001680920000209184878A240104348703F
:1060000062B60020FCF700FB002802D00020FCF75D
:10601000FBFB002010BD0000B800002010B5806818
:10602000FFF776FE10BD704710B504468088032147
:1060300000F022F8022172B6082815D20D4A136822
:10604000092212029A185823126B5843831CD35CFE
:10605000002B09D0002110182160016A002906D008
:10606000416A0C604521446262B6084610BD046274
:10607000F8E70000B8000020F8B507461F480926D9
:1060800005687B2000012C182846363036023F0573
:1060900084463F0DAE19237D08200022A0350097CD
:1060A000B6462D7B0EE0DE0709D07646366B5827C4
:1060B0005743F6197689009FB74200D110465B0816
:1060C000521CD2B29542EED82034A27E1207120F93
:1060D000824202D1CB0700D10820824207D062461B
:1060E0001278130707D45207520F824203D1C9070F
:1060F00000D10820F8BD8907FBD5F8BDB800002005
:10610000F1B5FFB001248BB0600205900027CC48A8
:1061100007970168CB48C94D081803908A980AAAC6
:106120000005000D05A900F091F90690002872D134
:1061300004260AA805994218203AD27F0B2A23D0B8
:106140000026002004900AA88119022201A80291C9
:10615000FDF766FE6846818809AB08AA039800F03F
:1061600093F9012817D002287ED06846808885429E
:1061700000D30546844200D9204604460298807820
:10618000012872D013363CE1491E761E3604059173
:10619000360CCFD1D5E708980090002F66D1009932
:1061A000022228310298FDF74BFE00281ED10098EC
:1061B0002030017B02988078814217D1012808D1D4
:1061C0000098029902220830C91CFDF739FE002808
:1061D00015D002988078022808D1009802991022E0
:1061E0000830C91CFDF72CFE002808D00098008D4F
:1061F000A84200D80546A04200D220460446029993
:106200000AA88978012907D013360599B6B28E42BB
:1062100004D3012707E006E1761DF6E78119022283
:1062200001A8FDF7FDFD0399009808318E462FE087
:1062300084466946026A8B8820300DE0918B994232
:1062400003D3012F7ED199427CD9A94200D80D46B3
:10625000A14200D30C4612688242EFD10498002874
:1062600004D16046006802E015E0BFE08AE07045B6
:106270000ED0018D994203D3012F09D1994207D93C
:106280008D4200D30D468C4200D80C46012F59D1C7
:106290007045CDD1BAE008980090002F72D10099D6
:1062A00002221C310298FDF7CBFD00281ED1009878
:1062B0002030C17802988078814217D1012808D116
:1062C0000098029902220830C91CFDF7B9FD002888
:1062D0001AD002988078022808D1009802991022DA
:1062E0000830C91CFDF7ACFD00280DD00098808B4C
:1062F000A84200D80546A04200D220460446029893
:106300008078012826D003E002988078012805D003
:1063100013360798B6B201281ED021E000984A49EA
:106320000089884216D18A9800F0CCF8014600987E
:1063300000F0E6F80099098C4843009989694018F3
:10634000022200E038E00299491DFDF769FD0120B5
:106350000790D4E7761DDCE7B61C0020B6B20790A4
:106360000598864201D3012705E00AA88119022277
:1063700001A8FDF755FD039A0099083209980968AC
:10638000944630E01AE086466A46938820300DE055
:106390008A8B9A4203D3012F0ED19A420CD9AA427A
:1063A00000D81546A24200D3144609688142EFD1B5
:1063B000049800282AD102E00120049026E07046CB
:1063C000006860450FD0028D016A9A4203D3012F05
:1063D00009D19A4207D9954200D31546944200D874
:1063E0001446012FE8D16045CDD10FE00298C07866
:1063F000022805D102980079292801D1B61CB6B22D
:10640000761D0598B6B2864200D301270598811BF8
:10641000042902D3864200D293E604980028FBD1D7
:10642000A54203D906987FB00CB0F0BD224629469C
:106430008A9800F08DF80690F5E70000FFFF000055
:10644000B80000202C0700000229000070B594B0AD
:1064500015460E466C46FFF7AFFB002812D0417878
:106460002246C907C90F801C00F096F8002802D008
:106470005C2014B070BD0FA82A463146023000F0EF
:10648000EDF8F6E74020F4E7F0B58468083015E051
:10649000258D8D4203D1146018600120F0BD264681
:1064A0001C602036256A06E0AF8B8F4202D10220A5
:1064B0001560F0BD2D68B542F6D124688442E7D15D
:1064C0000020F0BD10B50D4900050B680921090237
:1064D00059184A6B0021000DA0331B7B0AE04C01C8
:1064E000145B2405240D844202D14801801810BD9C
:1064F000491CC9B28B42F2D8002010BDB800002060
:1065000030B5024623239B5C0020012B1AD112894F
:106510000D4B9A4216D10D4A092312681B02D3185B
:10652000A0325B6B127B0AE045010C885D5B2405A1
:106530002D05240D2D0DAC4204D0401CC0B282426A
:10654000F2D8002030BD000002290000B800002071
:1065500030B50F4B0F4D1B6804465B1940331B7A57
:10656000412085B09B0710D56B469981DA810020C8
:1065700018820420588203AA04A96D4607C5022385
:106580001A4601212046FFF789F805B030BD00000A
:10659000B80000202C070000FEB507462E480E4626
:1065A0000068092109024018456F00206946144619
:1065B0000870002E1BD0012E06D17879010601D576
:1065C000410614D4800912D07879400641D5694635
:1065D000284600F0A7F826461E3668460078FE28B2
:1065E00027D0FF2835D000282DD0FA20FEBD204628
:1065F0003E3001906946284600F094F868460078DD
:10660000FE2805D0FF2824D00028EED11435F1E76C
:106610002146284600F08EF86078C007C00FB042CF
:10662000F4D1062239460198FDF70AFC0028DDD096
:10663000ECE72146284600F07DF83146384600F068
:106640008BF80028D2D014356946284600F06AF845
:10665000C3E75C20FEBD0000B8000020F7B586B09F
:106660000F4600F08BF80446002069460872064683
:10667000386804900C20039002A9204600F052F8DC
:106680006846017A761CFF2932D0FE2904D0002901
:1066900002D0FA2009B0F0BD2148A20012181368F8
:1066A0006A461D0A15701D0C55701B0E9370641CF4
:1066B000A200121813686A46D3701D0A15711B0CCC
:1066C0005371641CA20010180568FE2906D1062229
:1066D00068460699FDF7B4FB00280BD0A8080419FA
:1066E000641C02A9204600F01DF803988642C7D317
:1066F0005C20CFE70498854201D94820CAE73D6075
:106700000026074F08E0641CA000C0190168089823
:10671000801900F03FF8361DAE42F4D30020B9E7EF
:1067200000000410024A800080180068087070475A
:1067300000000410F8B5074F0E4604460025A000DF
:10674000C0190168701900F025F8641C2D1D502D2A
:10675000F5D3F8BD0000041038B50B460446C11C43
:106760006A46184600F01EF8032221466846FDF7E7
:1067700067FB002800D0412038BD704704480168FD
:10678000092000020818416F806F08187047000048
:10679000B800002001700A0A42700A0C8270090ECB
:1067A000C170704770B588B016460C460546102279
:1067B00000216846FDF73AFB032221466846FDF7B3
:1067C0002FFB04AA6946284600F007F8032204A913
:1067D0003046FDF725FB08B070BD10B5002300F072
:1067E00001F810BDFFB50C4691B00146102204A877
:1067F000FDF716FB1022214608A8FDF711FB04A89F
:10680000009008A801900CA8029000266846067324
:10681000184841210068490145180927FF062C4600
:10682000803472B66846007B002808D062B6102219
:106830000CA91398FDF7F4FA002015B0F0BD286DEF
:106840003969401A0C4900020988000A09070BD56A
:106850001499002908D10949FF38884204D36846B1
:106860000673606430BF03E068466664FCF75CFE54
:1068700062B6D6E7B8000020C000002002FF7F000B
:1068800038B58AB008A800BFAFA10CC90CC006A8D3
:10689000AFA10CC90CC006AA0621002000F08EF999
:1068A00005009B4C02D02900200042E00421012079
:1068B00000F088F900F08AF9050003D029002000D3
:1068C000243036E0A4A000F085F905A8019004A8C2
:1068D000009004AB9B1C08220021012000F08EF9DF
:1068E000050003D029002000483022E0A2A000F0DB
:1068F00071F908A803900820029000200190082058
:10690000009000236846028A418A002000F08EF938
:10691000050003D0290020006C300AE02000A030E0
:1069200000F058F900F094F9050006D02900200085
:10693000D03000F04FF9280004E02000F43000F0DF
:1069400049F900200BB030BD7FB5724DA8684006F4
:1069500003D52026A868304003D07FBDA888001941
:10696000A8806888A98881421AD2441A152C00DBB5
:106970001424694840180390E0B20290002001906E
:10698000A0B20090012365480288654801882888E4
:1069900000F04CF96428E1D1A8680643AE607FBDE1
:1069A000A86840218843A8600020688010205D49C5
:1069B00008607FBDFEB500260025574F554C01905D
:1069C0006846018030E066802DE060885649884244
:1069D00000DB66800198405D618878540198405DD5
:1069E00000F035FA6088401C608081B27918491E39
:1069F00009780A2901D00D2915D180B20128E2D0E9
:106A00001122390064A000F04CFA002801D100F0F6
:106A100067FA61887E54A06840210143A16010207C
:106A200042490860A6806D1C684600888542CCDB20
:106A3000F7BD000000B58BB007A800BF5BA1102216
:106A4000FDF702FA0021002000F05AFA002006901B
:106A500005900490039007A802900E20019000205A
:106A6000009000230022002100F055FA304A00284F
:106A700004D00100100000F0ADF803E01000303049
:106A800000F0A8F80BB000BD10B5224CA06880073C
:106A900005D5FFF7CFFFA06802218843A060FFF76C
:106AA00053FF10BD1B480180816801220A438260A8
:106AB00070471848816801229143816081680222F1
:106AC0000A438260816804229143816081682022A8
:106AD000914381608168174A0A4082608168164A42
:106AE0000A4082608168154A0A4082608168144ABF
:106AF0000A408260704780B508001900029A00F0D1
:106B0000FFF801BD034881682022914381607047EE
:106B1000380A061064000020CC0200200205002084
:106B20000005002000E100E0FF01000080E100E03E
:106B3000F0130610FFFEFFFFFFFDFFFFFFFBFFFF4F
:106B4000FFF7FFFF70477047426C75654E52473143
:106B5000AA0000E1800200006163695F67617474EC
:106B60005F696E69742829202D2D3E2053554343BB
:106B70004553530D0A0000006163695F6761705FF0
:106B8000696E69742829202D2D3E205355434345B5
:106B900053530D0A000000004F544153657276694B
:106BA00063654D616E6167657200000009426C7536
:106BB000654E5247315F43686174000010B500F0C4
:106BC000CBF910BD10B500F055FA10BD10B500F0AE
:106BD00073FA10BD0EB4C0B5020003A801900020E6
:106BE000009001AB0121044878440C30FDF7A0FB74
:106BF000029906B0084700BF43B700007CB5069D68
:106C0000079C002805D0860705D1460703D4060750
:106C100001D442207CBD002903D0012901D00229E2
:106C2000F7D10095019400F011FB7CBDF0B585B063
:106C300084460AA8F0C868468581C68103A80190E9
:106C4000029700946046FEF729FD05B0F0BD70473D
:106C500038B586B03A4C10223DA120000830FDF72F
:106C6000DFF8384D0094062301222100083102206C
:106C700000F0EAFB00283CD1102200BF38A1200020
:106C80001830FDF7CDF8A01C0590012004901020CD
:106C90000390002002900190102000901423220005
:106CA00018320221208800F0EAFB002821D11022AE
:106CB0002FA120001830FDF7B3F8201D059001200A
:106CC00004901020039001200290002001900C20DD
:106CD00000901423220018320221208800F0CFFBFC
:106CE000002806D1A28861882800FFF773FF0020E2
:106CF00004E028004030FFF76DFF472007B030BDAB
:106D0000F8B50F4B9C88641CA0420BD100250EA443
:106D10000F001600BD4211DA715D2000FFF75AFF27
:106D20006D1CF7E75988891C884207D11078012823
:106D300004D10648016804220A430260F1BD000044
:106D40000005002028130610256300006C000020B9
:106D5000669A0C200008969EE2119EB1E0F273D96B
:106D6000669A0C200008969EE2119EB1E1F273D95A
:106D7000669A0C200008969EE2119EB1E2F273D949
:106D800010B50400202000F051FC0128FAD02000AA
:106D900000F043FC10BDF0B585B0070001210920CB
:106DA000FEF70CF88020400000906C46012525710C
:106DB0000026A6716671684600F06CFCE80200903F
:106DC0002571684600F066FC0297032002A908714D
:106DD0004871CE804E7208728D7202A800F07AFB64
:106DE000002000F034FC012000F068FB05B0F0BD8D
:106DF0001CB50400684604210170032141708470B1
:106E000000F0C2FC2100102000F0FDFB13BD80B596
:106E1000102000F013FC002808D101BD00F002FC96
:106E2000694608700121684600F015F8102000F04E
:106E3000FDFB0028F2D001BD80B50B490860E120C0
:106E40004002FFF7A8FF0120FFF7D2FF01BD80B588
:106E5000FFF796FF01BD044A1268002A00D170476F
:106E600080B5904701BD00002800002070B50024C7
:106E7000012804D0022802D00020C04370BD0029A0
:106E800001D1002070BD0D00160004E02878FFF746
:106E900077FF6D1C641C3000461E0028F6D12000D0
:106EA00070BD10B404E0002C0ED0401C491C521ED2
:106EB000002A09D00B7804789C42F4D002D200203A
:106EC000C04302E0012000E0002010BC7047000039
:106ED000BFF34F8F064807490860BFF34F8FFEE7A7
:106EE00080B5054805490860FFF7F2FF01BD0000C5
:106EF0000400FA050CED00E0554201B0040000204A
:106F000010B50A461F2801D9122010BD01461046AF
:106F100000F072FC10BDFFB587B0109D159E169C49
:106F200001930295009407A807C81F46334600F056
:106F300091FC00280ED11398149903AA069443C219
:106F40001198129901900095029107A807C83B4635
:106F500000F0AEFC0BB0F0BDF0B5444F044638680D
:106F600085B0783016460D46002C19D0062C11D06D
:106F7000082C0CD0182C0AD0282C0BD02A2C09D085
:106F80002C2C0AD02E2C0BD0D02C42D043E0102D2C
:106F900008D040E0022D05D03DE0012D02D03AE0BE
:106FA000062D38D10A4600193146FCF739FF2C2C42
:106FB00028D13078002825D0FBF784F8012824D088
:106FC0001B201F304009401C41004118012000F0E7
:106FD0008BFCFBF777F8012819D01B201F304009E4
:106FE0004100411822484078401AC01EC1B200201A
:106FF00000F07AFC38684022403001781143F922D1
:1070000011400170002005B0F0BDFB20D9E7FB2046
:10701000E4E7012D04D0FBF755F8012804D007E080
:10702000107800F06DFCEEE7D12C01D1082D01D0D5
:107030001220E8E7022231466846FCF7F1FE022200
:10704000B11C01A8FCF7ECFE0222311D02A8FCF7DE
:10705000E7FE0222B11D03A8FCF7E2FE6846838921
:1070600002898188008800F05CFCCCE7B800002031
:10707000EC04002010B5012818D8072916D80C4AAE
:10708000126813462033187759778007C906000E17
:10709000090E01430020074BA03204E08401E418EC
:1070A000A172401CC0B2147B8442F7D8002010BDEE
:1070B000B800002000010020F0B55FA099B0006882
:1070C0005E4915905E4A08688418092212028218E7
:1070D000526B2546403514922A7AD20702D062209C
:1070E00019B0F0BDAA8B01235B029A4201D9AB8390
:1070F00003E0172A01D21722AA83149AA030139210
:10710000067B0DE0761EF6B2139871010F18B86871
:107110000F90384620220021FCF788FE0F98B860B7
:10712000002EEFD120460830E0606460A06024604B
:107130000830139060612061FF220021083000F0C8
:10714000F2FB2046FF220021243000F0ECFB204619
:10715000AA7F0021303000F0E6FB2046FF2200210C
:107160003C3000F0E0FB00222A7210461721334B1E
:1071700005E0149E4701BE19401C7180C0B21E6814
:10718000A036367B8642F4D8002028832F8C688C6A
:107190000026149008E02820E16C7043091820466E
:1071A00000F0C9FB761CB6B2BE42F4D3002608E05C
:1071B0003020216D70430918139800F0BCFB761C39
:1071C000B6B214988642F3D30120FEF785FC012461
:1071D000684604701B4941802346042269460CA876
:1071E00000F0B0FB002822D16846018E818216494A
:1071F0000183042606858475202108A88172002455
:10720000C472047307214173847305A90DA800F0AB
:1072100049FC00280BD1684604874687818E15AB50
:107220000EAA008E00F0DCFD002800D158E70020F7
:107230002872472054E700000000FFFFB80000203C
:107240002C07000001180000052A0000FFB50C46BD
:1072500078A103C995B001910090002108A801739D
:107260000321C90268464186012108A8734E0174B2
:1072700035681746AE3500F0E7FD002808D17049A3
:107280003068401800F074FEA878002802D046202C
:1072900019B0F0BD0BA8159900F074FE0028F7D1C5
:1072A000072010A90871012C05D0022C0AD0002C4F
:1072B0000ED04220ECE708A8017B1020014308A86B
:1072C000017305E011A90BA800F06AFE0028DFD1C8
:1072D00010A8027901230CA9284600F033FB0028EE
