:020000041004E6
:100000000060002047F30410BBF10410BDF10410A0
:10001000AA5555AA45554C420000000000000000BA
:10002000000000000000000000000000BFF104100C
:1000300000000000000000009F110410C1F1041036
:10004000C3F10410CB2804100000000000000000E1
:10005000C5F10410BF2C0410CDF104105F42041050
:100060000000000000000000000000000000000090
:10007000000000006342041023490410474C0410A0
:1000800000000000CF2D04105B3A0410FB3A04106E
:10009000374104108F410410D7580410874C0410C6
:1000A0000000000000000000000000000000000050
:1000B0000000000000000000000000000000000040
:1000C000F1B5FFB095B00C001500EFF3108018905B
:1000D00072B60020A149087000F084FC060094A8C4
:1000E000007800F0D9FC6946087094A8007800F008
:1000F000D5FC94A90978884200D908006946097896
:10010000814200D901008E4200D90E006846067077
:1001100093486946097889004018416D491C41653A
:100120006846007800280AD068460078012807D180
:100130008C48007A00218B4A117230BF1072A5E3FF
:1001400068464470E248057068464078E0490871A6
:1001500001A800F0A5FCDE48007A1E9082480088C5
:100160006A90824800686990002600208BAB804C22
:10017000810062585A50401C0828F9DB7D48C0694C
:1001800068907D48806967908025ED0528686690B5
:1001900068686590A8686490E868639028696290D0
:1001A00068696190A8696090E8691D90E86A5F904D
:1001B000286B5E90686B5D90288F5C90686C5B909C
:1001C0006E4800685A906D48007C59906B48008BCF
:1001D00058906A48007F5790694800785690684860
:1001E000406855906648007A5490654880895390DD
:1001F0006348007F529063480078519061480079CD
:1002000050906048007A4F905E48007B4E905D4869
:10021000007C4D90C64800684C90C54840684B90A3
:10022000C348007C4A90C248007D4990C14800788C
:100230004890C04880884790BE4880684690BD4836
:10024000808945900022BC481C9010051C994118DB
:1002500090000B6816AF3B504B6814AF3B508B8B34
:1002600012AF3B500B8C10AF3B508B8C0EAF3B5002
:100270000B8D0CAF3B50CB6A0AAF3B504C23CB5A93
:1002800008AF3B504C314B6806AF3B50C96804ABDC
:100290001950521C012AD6DDB02000060068449097
:1002A000A64800684390A54840684290A3488089CA
:1002B0004190A248008A4090A04840693F909F48E2
:1002C000007E3E909D48808D3D909C48006B3C9008
:1002D0009A48406B3B909948806B3A909748C06B26
:1002E00039909648006C38909448406C3790944808
:1002F000008836909248808835909148007B3490F1
:100300008F48007C33908E48808A32908C48007EE3
:1003100031908C48008830908A4880882F90894896
:10032000007B2E908748007C2D908648808A2C90F8
:100330008448007E2B90844800682A908248406858
:1003400029900848006828900648007A27907F483E
:100350000068002818D17E481B9016E00C00002091
:10036000CC060020000070400400104000E100E0D6
:1003700000E400E004ED00E0080090400C00304094
:100380002C003040500030401B96002271481A90DB
:10039000142050431A994018910043687BAF7B505A
:1003A000036883AF7B50836873AF7B50C0686BABCF
:1003B0005850521C082AE9DB8120C005406826906D
:1003C0008120C005007B25908120C005408B2490B2
:1003D0008120C005008B23908120C005406A2290B7
:1003E0008120C005806A21908120C005008820906E
:1003F000594800681F9068460078032806D157487E
:100400000068C02189050143544801600021544817
:10041000006850381990CF4A10651046026D136875
:100420008F00C351491C121D02651429F6DB2848B0
:100430000079274909782A68520A514088436ED1C9
:1004400001A84078000101A989780143112904DD40
:1004500044480660002000F01BFC40480068424908
:100460000860012000F07EFD00F092FD002000F009
:1004700079FD3E480078002800D087E03C480068BD
:10048000400636D43B480268394B19685140CC4885
:10049000394C2468056AAC421FD11B689A4203D0CC
:1004A000C84A12680A4018D13449096880225205A6
:1004B00013000B400468224093420ED18022D204E4
:1004C000114000680240914213D01F4802E000BF73
:1004D00000002040006880070BD52049C868020949
:1004E000D01C80235B0398421AD2CA681209824248
:1004F000FBD301A84178090180780843112805DD64
:10050000012000F0C5FB1E481649086068460078C7
:10051000032804D1114801681A4A0A400260B5E173
:10052000C8680009184BD3189842F9D1E1E700BF19
:1005300000004040240040400000A0400400F04083
:100540000400D0400400E04010E000E0000C7040E7
:1005500051E5CC1A080000A0080000C004000048C3
:100560000000041014000020180000200C000020DF
:1005700000E200E0B8000020B4000020B00000203D
:10058000CCBCECFCFFFFFFCF0400F0FF0120C3490F
:1005900008828E808E6000216E48199A0265026D75
:1005A0008B00C3581360491C121D02651429F6DB29
:1005B0006A98BB49088069988249086000208100D8
:1005C0008BAA52586250401C0828F8DB68987C4976
:1005D000C8616798B34988616698286065986860C3
:1005E0006498A8606398E8606098A8616198686101
:1005F000629828611D98A8621D98E8615F98E8627A
:100600005E9828635D9868635C9828875B98686447
:10061000A5485A99016059990174589901835799CD
:1006200001772030569901705599416054990172B3
:1006300053998181529901772430519901705099D1
:1006400001714F9901724E9901734D990174974848
:100650004C9901604B9941604A990174499901751F
:100660002430489901704799818046998160459965
:100670008181002210051C994118900016AB1B586F
:100680000B6014AB1B584B6012AB1B588B8310AB29
:100690001B580B840EAB1B588B840CAB1B580B8563
:1006A0000AAB1B58CB624C3108AB1B580B8006AB16
:1006B0001B584B6004AB1858C860521C012AD9DD86
:1006C0004498B021090608607948299941608660FC
:1006D0002A990160774843990160429941604199A4
:1006E0008181409901823F9941613E9901763C990F
:1006F00001633B9941633A9981633999C1633899A0
:100700000164379941643D998185A64836990180F5
:10071000359981803499017333990174A249329AD1
:100720000A408282319A0276A048309A02802F9A3B
:1007300082802E9A02732D9A02742C9A1140818223
:100740002B9901769A4828990160279901721B9884
:10075000984901E0CC0600200860142070431A99E3
:100760004018B1007BAA5258426083AA52580260D6
:1007700073AA525882606BAA5158C160761C082E29
:10078000EBDB8120C00526994160259901732499EE
:1007900041832399018322994162219981622099A1
:1007A00001801F98844908602E0D3E48007800287B
:1007B00035D168464078002831D0384804E000BF81
:1007C00004ED00E000E100E0018809220A40092A66
:1007D00002D1E96989051FD4018811220A40112A32
:1007E00002D1E969314017D1018821220A40212A2A
:1007F00002D1E96909050FD4018841220A40412A42
:1008000002D1E969C90407D4008881210140812906
:1008100005D1E869800402D5012068490860684D67
:1008200068460078032803D128686649014029609A
:100830001E986549087268460078032801D1012195
:1008400000E00021002000F045FA1E98C0071DD5E9
:1008500000F0F6FB6946088068460088304212D1F5
:100860005A48008800070ED5E86859490968081AEF
:100870000002001200D54042212804DAE8682D3039
:10088000EA689042FCD2152052490870189880F30B
:10089000108800207FB016B0F0BD0000080010489E
:1008A00004001040080090400C0030400000404020
:1008B00010E000E00400F04010B500204649474A2F
:1008C0001378002B05D10B8809241C40092C00D17A
:1008D00001201378002B07D10B8811241C40112C08
:1008E00002D10300022018431378002B07D10B8894
:1008F00021241C40212C02D103000420184313782A
:10090000002B07D10B8841241C40412C02D103004D
:10091000082018431378002B07D10B8881241C4032
:10092000812C02D10300102018431378002B08D12A
:10093000FF239B1C0C881C409C4202D103002020FA
:1009400018431378002B07D1254B0C881C409C4280
:1009500002D10300402018431378002B08D10B88E4
:1009600005241C40052C03D10300802040001843BF
:100970001378002B07D109888907890F032902D131
:100980000100802008431178022903D10100802052
:10099000800008431178042903D101008020C000A1
:1009A000084310BD0400D040BFFF00000400E04039
:1009B00000007040000C7040080000C000E200E041
:1009C00004000048FFFFFFCF00002040C0000020CF
:1009D000180000200000C0400800104808009040A7
:1009E00001040000F8B5294D002029680A4640326C
:1009F0001378D279934347D14A6E120E44D13E22E6
:100A0000525C002A40D1431E21488D6A467A1A461C
:100A10000024F600AD190926F606376900887D190D
:100A200007070120002F06DAC302CB181C6F631BD7
:100A30001B021B1228D407273F02C919496ACF019C
:100A400003D54A1B120212121ED401252D07002BBA
:100A500006DA002A0ADA75600E48856003200AE08B
:100A60001120000604437460002A03DB2943084672
:100A700000F046FB02200549096840314A78002A07
:100A800002D0002048700320F8BD0000A400002020
:100A9000C00000204000004803207047032070473A
:100AA0000F21114A13681B090B404370136819404A
:100AB0008170D268426001210C4B9A4208D10C4AE5
:100AC00012680C4B9A4201D1042202E0022200E09B
:100AD000012202704278002A00D14170064909883B
:100AE000491C8900816070471C00904041A00002B1
:100AF0001C00001044A000F2140010407FB5040058
:100B00000D0016006846FFF7CBFF6846017821709C
:100B100041782970807830707FBD0C0802170D0174
:100B2000010209090101060209FFFFFFFFFF090990
:100B3000FFFFFFFF10B5C20018231340FF249C40A5
:100B4000E2438907090E9940030004D55D481B075D
:100B50001B0F083B00E05C489B089B00C018036823
:100B60001A401143016010BDFEB5012457480178B9
:100B700001220A430270002655480660032500F052
:100B80005FFA6946088068460088002801D16D1E1A
:100B9000F5D168460088202836DB684600880125A4
:100BA000400525D46846FFF77BFF68464178090178
:100BB00080780843122800DA00258C480068000776
:100BC00005D4002D14D0012000F062F810E0884F09
:100BD000F868884E3168081A283800020012002888
:100BE00006DD002D02D0012000F052F83068386098
:100BF0008148047000F0F5F9BFF34F8F7F488049BA
:100C00000860BFF34F8FFEE70120FEBD10B5002244
:100C10000021A94804E00B00415C5918491CC9B2E5
:100C2000435C002BF7D1CB1C202B12DA0223435458
:100C30002123441863700823A3704318DA709F4A75
:100C400080235B02401880B218431060106818407F
:100C5000FCD110BD70B500210023974A04E01C00B0
:100C6000D35CE3185B1CDBB2D45C002CF7D102250B
:100C70003524DE1C202E05DAD554D6187470B070D9
:100C8000D218D1708E4A157054709070D17070BDAA
:100C900070B5802149028A4B9CB20C43874A0028D8
:100CA00004D01460106808400AD0FBE798789D785B
:100CB000FB262E409E70146014680C40FCD1987086
:100CC00070BD00001CED00E000E400E008002040E2
:100CD00014000020F3B58BB003A800BF82A11C2232
:100CE00000F036FA6846FFF7DBFE744C01250BA8CE
:100CF0000078002858D003A84421817371490A78EC
:100D0000012313430B704C21C17220210172B221C7
:100D100041745B2101756C498B6B6C4A1E0C9642C9
:100D200009D1C67D8F273740C775C67D1B01702747
:100D30001F403743C7754B6B1E0C964209D146794D
:100D4000CF273740477146791B0130271F40374373
:100D5000477109680B0C934208D1C27DFC231340F4
:100D6000C375C27D8907890F1143C175C17AFB2202
:100D70000A40C27269464A7812018E781643112ED3
:100D800006DDC17D04220A43C275C07DFFF762FF04
:100D9000280403A989B20143216021680140FCD1E4
:100DA000112E01DDFFF732FF164988890028FBD09C
:100DB0000CA800788D8117220A8000224A60002842
:100DC00007D06068102162680A40102303409A42ED
:100DD000F9D00BA80078002802D015203C490870F3
:100DE0003C483D4908600DB0F0BD0000C000002047
:100DF00004000048180000200C0000200400FA0540
:100E00000CED00E00C00104880B508203349088044
:100E100003210120C043FFF78DFE03210020C043C2
:100E2000FFF788FE03210020FFF784FE0321012045
:100E3000FFF780FE03210420FFF77CFE032105203D
:100E4000FFF778FE00210620FFF774FE032107203C
:100E5000FFF770FE03210D20FFF76CFE03210E202B
:100E6000FFF768FE03210F20FFF764FE0321112026
:100E7000FFF760FE03211220FFF75CFE0321132021
:100E8000FFF758FE03211420FFF754FE032115201D
:100E9000FFF750FE03211620FFF74CFE0321172019
:100EA000FFF748FE01210120FFF714FF0C480D4910
:100EB000086062B601BD0000640700200C00004815
:100EC0001C00002008002040B007001055AA0000B8
:100ED0000000C040CCBCECFC14000020040010401A
:100EE00066000E0020009040023F00023E30023CAF
:100EF00020023B4C023A400239B202345B02350B0D
:100F000000000000F0B502781F2301248178002939
:100F100021D0417852B2D50018262E40FF27B74085
:100F2000FD438907090EB140160004D5134A360760
:100F3000360F083E00E0124AB608B600921916684D
:100F4000354029431160007803409C400D49400919
:100F500080000C50F0BD13409C400B4851098900A3
:100F60004450F0BD09490028086803D00422024318
:100F70000A60704704229043086070471CED00E04F
:100F800000E400E000E100E080E100E010ED00E0BE
:100F9000EFF31482EFF30981002080F31488BFF38C
:100FA0006F8FF0B543464C4655465E466746F8B4EB
:100FB000164CEFF30883236006B4154C2068154CDB
:100FC0002060154C2068154C2060154C2068154C8D
:100FD0002060154C276800202060BFF34F8F30BF82
:100FE00027600A4C246884F3088882B003BCF8BCEC
:100FF0009846A146AA46B346BC46F0BC04BC80F362
:10100000098881F31488BFF36F8F10470800002010
:1010100004ED00E0B000002024ED00E0B40000206A
:1010200000E200E0B800002008002040304A01291A
:10103000116802D108431060704781431160704706
:101040002C4802782C4801880020002A44D109222B
:101050000A40092A00D1202011220A40112A02D177
:1010600002004020104321220A40212A02D102001E
:101070008020104341220A40412A03D102008020EF
:101080004000104381220A40812A03D102008020BF
:1010900080001043FF22921C13000B40934203D1A7
:1010A00002008020C0001043144A13000B409342FA
:1010B00003D1020080200001104305220A40052AC6
:1010C00002D10200102010438907890F03290ED195
:1010D0000100082008437047022A01D1012070470F
:1010E000042A01D102207047082A00D10420704749
:1010F00020009040080090400800104801040000C3
:1011000030B5EFF3108172B60922D2061269FF25BD
:10111000821A120214120C4A91351368AC4208DC90
:101120000122120690431A464032D479DF252C4022
:10113000D471C2010724D20924021B195A62034A3E
:10114000906081F3108830BDA4000020400000486A
:1011500070B4103A03D378C9103A78C0FBD2530761
:1011600001D318C918C001D508C908C0D20704D3D3
:101170000B880380891C801C002A01D50B78037022
:1011800070BC70478B0701D18307E1D0124205D0B4
:101190000B78491C0370401C521EF9D170477047F0
:1011A000F0B5FE48FE4E016841204001B2680C18BF
:1011B00085B0D00173D5204680300090806B817A55
:1011C000EE2319408172304651030125C068002981
:1011D00042DB510105D500200921C9064860357060
:1011E00036E0510012D5C178491E0906090EC170BA
:1011F00003D10922D2065160357041790A0627D5FC
:101200004906490E41718169416121E0E5490A427F
:101210000AD0214620318D70520202D503228A70F5
:1012200000E08D708169416101792246C1704032D0
:101230009179002908D00921C9068968A164002193
:101240000223E1649377A16541794906490E417112
:1012500000204621085539E031698A890121490772
:1012600052185288436B5218934209D19278142A2B
:1012700006D1034640331A7DDF273A402A431A75C8
:10128000806A408840187D210078095D0843C006C7
:1012900006D4002009213570C906486010E082E2BA
:1012A000606D00F06FFB01460920C0060269236DE6
:1012B000D21A1202120A914202D235700021416004
:1012C000F06801220169D20391430161B2685002C2
:1012D00013D530698089012149074018408840189A
:1012E0007061F1684B6B834207D180780D2804D17F
:1012F00001200B69000483430B613746002A48DA5A
:101300000098806B4188012040070818F861092087
:10131000C0064069C00DC00708D0002009217D70BB
:10132000C90648603D70A048B061F1E0F86841210D
:101330000069490108420AD000F034FB012829D095
:101340001C22F9694878024201D0001F4870F869F0
:101350007D2201781155C94389071DD0F8680069BD
:10136000C0036FD500F01EFB01286CD01F20F96967
:101370004978084266D0002009217D70C90648607E
:101380003D708948B861F8680121026909048A43FF
:101390000261BDE0FC22D4E7867841781A2E74D22F
:1013A000824A925DFF2A70D08A426ED1022E14D0FA
:1013B000F9684A79D20659D4062E15D00A69D303A2
:1013C00027D5002009227D70D20650603D707648F6
:1013D000B8610A69001182435BE0F868406B056000
:1013E000F9682320487193E00122B8699203104301
:1013F000B8616F4A08691040152252021043086113
:101400002046C030C17BBA7891422FD10821C173E8
:101410007EE0002E18D0012E29D0032E2CD00A2ECB
:1014200034D00B2E37D0082E38D0092E39D00C2EC0
:101430003AD002465F4B3146012000F0B5FA002851
:1014400066D149E05BE058E00A46214600F0AEFA7A
:10145000F8698179C0790002084357494002401871
:101460005649896A814200D80846606550E00A46BC
:10147000214600F0BFFA4BE0B86980231843B861F9
:101480004120000402430A6142E027E08920C001B4
:1014900005E00A613CE04A480240FAE710200243B6
:1014A000F7E70120000326E096070423002E08DA60
:1014B000BE691E4302239A430823BE61CF263355DB
:1014C00002E0D60700D11A432A430A610522C01C54
:1014D0002C3100F0A6FA1BE0072E06D0F86808228F
:1014E000016911430161C67112E0F869C0780E28E4
:1014F0000ED101208006B8610AE0FF2037E72146BF
:10150000FB683A69F86900F095FAB9690843B8616F
:10151000234FF8683969066A0A8A01235B07D218E3
:1015200001925288D21800237A610293BB68112776
:10153000BF043B421ED15F011CD4476B974201D0D0
:10154000012700E000270397904201D0012700E027
:101550000027BC46002E0DD0039F002F0AD06746FF
:10156000002F07D0F77CFF0904D03768002F01D087
:10157000012702975B0202D4029B002B75D04379AE
:101580009F0701D5002E1DD05B085B00476B97427B
:1015900057D143719378042B19D02AE0A40000207E
:1015A0005C00002000004080080010001A0B0410AE
:1015B000DFFBFEFF740000209AFDFFFF30070020D4
:1015C000BFFFFEFF2B431F462F434771DEE7234635
:1015D000C033DF7B082F05D1E24FBF78DF737D2753
:1015E0007F029F81DF4B01279B69FF063B43DD4F55
:1015F000BB614379DB060CD5DA4B09275D7000230C
:10160000FF067B60D74BD84F1D709B693B43D54F7E
:10161000BB619278152A32D1074640373A7DFD23C7
:101620001A40BC463A75130729D5CE4B01279B6952
:101630007F063B43CB4FBB61F7231A4063461A75C5
:101640001DE082421BD0338AB77C0022DB19338233
:101650007369B361B274338AF788BB4202D2F77CF4
:10166000FF0903D03668202205E068E0DB0602D1DE
:10167000B3691B68B361BB4B9F693A439A61427976
:101680000027D20717D0B74A436B53619A78052ACF
:101690003BD1026920231A4302610020087048717F
:1016A000487088718870C871C87008720871487273
:1016B0008020487229E0002E0AD000F005FA0028A8
:1016C00006D1A8483322C16852010969114209D0E4
:1016D000A4490122C868486105800169D203114309
:1016E000016112E0A14A317C136809221202C90685
:1016F0009A18C90ED26B0127891C89184161019A79
:1017000051803146C06800F0EFF9964E2121F06813
:101710008901006908420AD000F044F9012809D083
:101720001F2271694878024201D0001D4870002FC5
:1017300002D004E0FF22F4E70199B08A4880894E84
:10174000F26810694106890F1ED080063178C00FFB
:10175000012902D0B16849030BD50028306903D0B4
:10176000C17D082319430AE0C37DF7210B40C375EF
:101770000AE000283069C17D03D0F7231940C17504
:1017800002E008231943C17521463369F06900F06E
:10179000EDF93078012808D000997548896B03224B
:1017A000091D00F06BFA05B0F0BD6E480121C2685A
:1017B00000695379C77A9C4620231E5C00238372FC
:1017C000204620300190807803281BD1937965480A
:1017D000002B17D163469B069B0F13D1634B1B68ED
:1017E0002033DB7C002B0DD1136A002B0AD1CF23D1
:1017F0001B5D8078834205D09089411C7043C019DD
:1018000089B287B2108F138940004843591811815B
:1018100001998978002902D15169091A5161009909
:101820008E6BB17A11231943B17221464D4BC031F1
:10183000CE7B9B789E420AD18B891B1A8B8110D557
:10184000484E4C4B7570B1691943B16109E0536959
:101850004449002B05DC0E464D708969464B1943FF
:10186000B1616146890605D53E49444E4D708B698C
:1018700033438B6111792646D1704036B571E16CE6
:1018800080B20818E0649079FB2108409071C0078D
:101890001AD0B08E1189401A012180B2C903884242
:1018A00006D33048364A45708169114381610BE0A7
:1018B000002809D101230021204600F0E7F9294939
:1018C00089690843274988612648C1688A79900751
:1018D00024D5338F0E8923489B1B5B1C01269BB2AA
:1018E000F603B34205D34570254A816911438161EE
:1018F00014E0002B12D1FD231A408A71026900996D
:101900002132496811700B0A53700B0C9370090E49
:10191000D17060340069E17E20304171384600F0BA
:1019200001FA10490A69D072019800268670487839
:10193000002802D0887800F003FA0C4C5821206867
:101940000D540921090240184078002802D00120D6
:1019500000F0CAFA012000F0C7FB2068403006768C
:1019600005B0F0BD5C00002008000100A4000020CC
:10197000FA0030000880400008000400080002005F
:10198000080008000649C20B09684004096A400CB7
:10199000CB0958435143000A08182030800970478A
:1019A000A4000020002070470020704770B50C464E
:1019B0000546C178602001551646281D00F0DAFE64
:1019C0004034A084A81D00F0D5FE208528460830AC
:1019D00000F0D0FEA08528460A3000F0CBFE20861D
:1019E00028460C3000F0C6FEA086B07901210843DD
:1019F000B07170BD70B5054616460C46C01C00F0AF
:101A0000BEFE84210851E9797B2001552846083023
:101A100000F0B0FE40342087B07902210843B07155
:101A200070BD04E003780B70401C491C521E002A54
:101A3000F8D17047F8B51D46144606460027FFF753
:101A4000B1FF01280CD01F2071780840060036D065
:101A50000020E86100F09EFE002803D0E86907E05E
:101A6000FF20F1E769893246012000F0A3FEE8611A
:101A7000002801D0102722E0E07D80214840E07559
:101A80001049286908421AD06079401E6071607957
:101A9000FF2814D1A079401EA071A079FF280ED193
:101AA000E079401EE071E079FF2808D1207A401EDD
:101AB0002072207AFF2802D1607A401E6072384678
:101AC000F8BD0000202800000648016849204001B8
:101AD0000818417AC07A814201D90120704700205C
:101AE00070470000A4000020F8B50C46CA88098A97
:101AF0004030521A8088102695B2A84205D2054679
:101B0000E07C4006400EE07403E02068002800D12D
:101B10000026002904D1207B800701D5022000E0A7
:101B20000120CF060643FF0EE81982B20E48A169D4
:101B30000368092000021818C06B001D00F05CFE4D
:101B400060610948A5740168092000020818C16B8A
:101B5000B81C0E5404480168092000020818C06B24
:101B6000FF1CC555F8BD0000A4000020FFB5156995
:101B70001E46A8032E3689B01C461746002832DAC6
:101B8000102269463046FFF74CFF0924E40603980B
:101B9000A0610298E0610198206200986062354877
:101BA0000168E0140818016FA162C06EE0620A9833
:101BB0008030016C2163C06B606300F041FEA06B5C
:101BC0000390E06B02902C480168019140680090FE
:101BD000102231466846FFF724FF01204004854368
:101BE0003D610DB0F0BDE8053CD505A8014600906B
:101BF00010223046FFF715FFFF20013085434120BA
:101C0000800205433D610998082201A9C01CFFF725
:101C100008FF0998214604222A310B30FFF701FF03
:101C2000154805A9283800F01DFE0924E40602988D
:101C3000A0620198E062786B082203A90D30FFF7DB
:101C4000F0FE049820630398606300F0F9FD0A49F0
:101C500005A8083900F006FE102231460098FFF76B
:101C6000E0FEBEE7A07A0006BBD40A9800F003FEAF
:101C7000B7E70000A40000204000004803E008701F
:101C8000000A491C521E002AF9D17047FFB581B0E5
:101C900000230093049B012B2BD04B8C204D1C0167
:101CA0000B8C9C46CB7E6B438D8BAE46CD8B966961
:101CB000A64205D19689664502D1168FAE4201D063
:101CC0004026009696790427760876003E43967162
:101CD00094615461644694811587049A012A17D04F
:101CE0000B6170464A68400010184860009805B0C3
:101CF000F0BD034640331D461B8E094E1C01AB8DC3
:101D00009C4660231B5C7343AE8C2D8DB646CEE79C
:101D100083657146C26C49005118C164E6E7000052
:101D2000E2040000054925224143090C5143401AB1
:101D300080B2252800D32538C0B27047EB060000DA
:101D4000F1B5674941220868520182B082180092B9
:101D50007B2212018618AC22155C04460346029AC7
:101D6000C034363395427DD90921090240181746FF
:101D70005821006B4F430025B91C4554029800F0D0
:101D800085FD00280CD15648BF1D016809200002BE
:101D90000818006BC05D002802D00098C0300572A2
:101DA00072B64F48029D0768012039462031CA7D2E
:101DB000A8408243CA75317D81433175197808077F
:101DC0007AD44A070298520F82427CD030462030A3
:101DD000827E5507029A6D0F954276D181760F204B
:101DE00018704122A06852017063BD18A86D216966
:101DF000A9652061686D6169696560612146284651
:101E000018315C3000F05CFD3648A37E39180A7842
:101E10000B70A276A86C2168A9642060E86C6168E8
:101E2000E96460601120C00139180A78E37E0B7004
:101E300021462846E2761C31643000F041FD2146FF
:101E400028461E31683000F03BFD214628462031EF
:101E50006C3000F035FD214628462231703000F00C
:101E60002FFD00E03BE0214628462431743000F08D
:101E700027FD214628462631783000F021FD1948FB
:101E800080351D303918204628300A7803780B70C9
:101E900002701448E26A2630381801680260E16274
:101EA0000721E06809050843A96B0322091DFFF714
:101EB000E5FE0AE000E006E03A20805D4107029876
:101EC000490F814201D10F2018702036B07E4107A2
:101ED0000298490F814201D10F20B07662B6FEBD53
:101EE000A40000207E080000F0B57D4D044641218D
:101EF0002868490191B04018089000200D9072B6F2
:101F000000F0E4FC002801D1002C07D07448002424
:101F100001680920000208184678DDE062B60D98D5
:101F200011B0F0BDF0077DD06E49A00140180E90B1
:101F30006B480168092000020818016B58206043B3
:101F40000D18A978286A4907490F02294AD1A979A9
:101F5000490747D4002845D0288F40000990000247
:101F6000FFF710FD039000200F905D4836210068B8
:101F7000095C0A070AD44907490FA14206D1012189
:101F800080300F91416C0191806C06E00899C96C1A
:101F900001910F21C9014018406E0090FF205F3071
:101FA000FFF7F0FC4F490C39497AC90041180098F5
:101FB000411A0398081A07900E980B2141562030B9
:101FC000059100780A900020029028890690092047
:101FD000C00601690798401A070201203F0AC005A0
:101FE000874229D36BE001200D9003990798401A8E
:101FF000079002984018029009990198401A0190A0
:10200000696909980818686105990A98081A40B220
:1020100005900698401E80B206900598002804DAC4
:10202000253000E055E040B205900920C006016966
:102030000798401A07023F0A6420FFF7A3FC2949CA
:102040000C39497AC900411825480068806A081887
:10205000B84207D20120C005874203D209990198EE
:102060008842C0D802990098401A00020D99000ACF
:1020700000290CD01A4901220968D2028918096F77
:10208000411A09020912002901DD00210D910F9961
:10209000002906D01249019A096880314A6488648F
:1020A00008E0089A0199D1640D490A680F21C90115
:1020B000511848660E990598C872069828810848F4
:1020C000012201680920000208184178A2409143CA
:1020D0004170641CE4B27608002E00D022E71DE7B0
:1020E000A4000020CC000020F1B5F74F7B20396818
:1020F00000010D18084696B06830129009200002C1
:102100000818006B1390412040010E180920C006EA
:1021100000690790002003900824EC48FFF732FC88
:1021200002900020149072B63868F7224030C179CE
:102130001140C171129801210171129801684A077A
:10214000520F4271C9081298C900016062B6169810
:10215000002801D007980DE06420FFF713FC0799D1
:102160004218DB48417AD8480068806A081810187D
:102170000002000A00F0D6FB686B04903A20405D34
:102180000E90082842D2012003900E98582148430F
:10219000139940180590CF48876ACD48407AC0000F
:1021A00000F026FD01460598008F40020818C74937
:1021B00049424018874200D238467065B82081599C
:1021C0000A7948798979000210438907890B01430C
:1021D0000598FF314030028A408AC33110184018F8
:1021E00000F00EFD07465F200001FFF7CBFBB84271
:1021F00004D95F200001FFF7C5FB00E038460499D1
:102200000918B348407AC00008181490706DFFF7A1
:10221000B9FB049940180190002007460690287DDC
:10222000002809D10E98082806D3A9490020088063
:102230000921C906486065E168680890686C0A90E1
:1022400029680798401A00020412A1480088400734
:10225000400F00F01BFB002801D0002007E0002CFD
:10226000FBDB204600F0C4FC0A99884200DA0A90A1
:102270000120800708240C9000200F90297D3AE06F
:102280000E9A904234D0904A12682032927D120702
:10229000120F82422CD0EB6A4200069307929F5A9B
:1022A00005976B6A9A5A089B92017B43D3180A9A46
:1022B0009C46934212DACA0710D02A6B079B089FEC
:1022C000D25A521C93B21A467A43059F9444FA1884
:1022D00092B213460592079F069AD3530C9A63460F
:1022E000944505D2CA0703D0059A0C9304460F9271
:1022F0004908401CC0B20029C2D10C98FFF742FB2C
:1023000029684718A86A6100405A8001FFF73AFB24
:10231000C01906906E48407A5822C1006A48006889
:10232000125C002A6C4A12690CD0BB1A029A520045
:102330009B1A169A002A01D0002001E0806A4018FA
:10234000181A0BE0BB1A029A52089A1A169B002B15
:1023500001D0002001E0806A4018101A0002000A33
:102360000121C9050590884209D3082C7ED020465A
:1023700000F04AFC55490C9840180A906864012105
:102380000598C905884200D372E7082C6ED00F98D3
:1023900000282DD0089948430590FFF7F3FA2968E3
:1023A00040180002000A2860696C0598081A6864E1
:1023B0000C990598081A00210C9013E0EA6A48006D
:1023C00005909446105A0F9A801A04E02B6B059AD8
:1023D000401C9A5A10180028F8DB059B6246491CDD
:1023E000D052C9B238480068A030007B8842E5D896
:1023F0000E98082876D20498C01B01020120090A11
:10240000C005814222D302983A1A1498101A010288
:102410000120090AC005814201D314980DE00199F9
:10242000511A0902090A814208D301204002FFF72C
:10243000A9FA02994900791A081A01900199049899
:10244000081A0002000A00F0D3FB70650299019897
:102450004018C01B01020120090AC005814255D263
:1024600002994A0006995218049900E04AE0511A6C
:102470000902090A814235D20E985821484313991E
:1024800042185820214641431398D37B0818C17B3A
:10249000994201D3102100E00021C9061ED48179A0
:1024A000CA0702D07221895B03E0890707D576212C
:1024B000895B0289891A491E0904090C12D04079E6
:1024C00000060FD422E00DE0A40000206602000008
:1024D000C000002030070020000000485079902103
:1024E000084213D1082C15D09E490C9840186864F6
:1024F000582013996043401880784007400F012806
:102500003FD007E00398002804D003D0049F0E9C1E
:10251000019806903802000A009006980102090A04
:10252000012080020691FFF72DFA0390012040025E
:10253000FFF728FA074606990098081A00020012C9
:10254000002809DD0399000A884200D90146039159
:10255000B84200D838460746082C7DD0824800880B
:102560004007400FA0424FD05820139960434018B5
:10257000059080784007400F052812D0022810D01F
:1025800042E03146803103208A6840028242C1D055
:10259000C9688142BED000F075FB4005400DC719E7
:1025A000B8E70598A101006A02906F480818818B6E
:1025B000059880B2814227D00298002824D0029941
:1025C0000598FFF791FA694902980A68007C092189
:1025D0000902C0065118C00EC96B801C4018029039
:1025E000059821210069890108420DD0FFF7DAF929
:1025F00001283BD01F2002994978084204D0029854
:1026000040780299001D48705848574900682030AA
:102610008474482020430880334680335A6B907A74
:10262000C106C90E6001014391729A6B917AC90685
:10263000C90E014391720098306500F047F90128F6
:1026400016D04A4800682030017D4748407A081A71
:10265000316DC000081800E03AE000020121000AD4
:10266000490641180920C00641600EE0FF20C2E77C
:102670000121306D090641180920C00641603B4820
:1026800000682030017D38484172082C24D258203F
:1026900044431398241872B61298A1780068490729
:1026A000C008C000490F0843314908400099C900DB
:1026B00008431299086062B6A0784007400F0328CB
:1026C0000FD0FFF76FF901280FD00698C01B19E053
:1026D00000200921C906486023490020088017B05E
:1026E000F0BD03990698401A0CE04034208A618AB4
:1026F0004018FF30C33000F083FA874200D93846D3
:102700000699081A0002000AE863A88B8001FFF707
:1027100039F929680026441812483138FFF732F990
:10272000201A0002000A2864104C2E8420684030D1
:10273000407E002807D000F0C3FA20684030417E78
:1027400049084900417620684030407E0028C6D0C4
:1027500000F0DAFA20684030417EFD2211404176D7
:10276000BDE7000066020000C0000020A4000020B9
:10277000070000F8017840780002084370470178AC
:10278000427813028278C07812040006104318437E
:102790000843704706480168492040010818017A3B
:1027A000807A814201D901207047002070470000E3
:1027B000A4000020F8B50D460E49092309681B0244
:1027C000C918CE6A1F21521E0A431D3297B2002437
:1027D000394600F0BDFA00280AD13946B06800F049
:1027E000DFFA044608340068A0600020E074A58089
:1027F0002046F8BDA400002070B50C461F21521ED3
:102800000A430546521C002011044E0D17D02146E4
:1028100008316A1A2846002A01DD082A03DB202233
:1028200000F0D6FA04E0082208C9521E08C0FBD105
:1028300020352046761E24683604360CE7D170BD5C
:1028400008B56420694608700921C9066A461078EF
:10285000401E10704869C00402D410780028F5D1D9
:10286000107808BDCA6802608A6842604A6882605F
:102870000968C160704710B504468034606C002858
:1028800003D000F0B5FA0020606410BD0B497B2234
:10289000096812018A182032927E36311207120F0F
:1028A000824206D009780A0705D44907490F8142B8
:1028B00001D101207047002070470000A4000020D3
:1028C00002880B8803800A807047704730B4134831
:1028D000092203680120C0021818D206006F11698E
:1028E0000F4C411A09022588090A2D0702D430BC71
:1028F00001207047647A9B6AE400E3188B4209D296
:102900000123DB05994205D259000843506030BCD1
:102910000120704730BC002070470000A400002058
:10292000C0000020F1B5B04A7B211068090190B0C9
:10293000411804914121490145180446C03401461B
:1029400036310D9100210291A849497AC9000C91B4
:10295000816A0B91049920310E91897E0791082993
:102960007ED2092109024018016B174607985822A8
:10297000504308180890079881019C480C300818AB
:102980000A90C07A2E4640360990B08B00F06AFA61
:1029900039684031098E401880B20390E96C039881
:1029A00000F06EFAE96C09020F1AB07F00F06DFAC0
:1029B0003818FEF7E7FFA96C41180C98081A0002B6
:1029C000000A01901099411A0B98081A000201217F
:1029D000000AC90588427DD2049901984863099884
:1029E000FFF7A0F90A99C8720D980078C14309074A
:1029F00006D041070798490F4007400F81422BD16D
:102A00000E980821807E08430D990870A86C2060FC
:102A1000E86C60600198A0600298E060A86D206199
:102A2000686D6061B08B2083B07FA07628466030EF
:102A30000178E176B18CA183318DE183B18D218460
:102A4000318E6184B18EA184318FE184C17E2820D2
:102A5000015584204059E0620D980078420700E05B
:102A60007BE00799520F4907490F8A4261D0F7214D
:102A700008400D995C4F08704007400F07900920EF
:102A8000396800020818016B07985822504308184B
:102A900004900798810155480C3008180A90C07AB4
:102AA0000990208B00F0DEF939684031098E40181A
:102AB00080B203906168039800F0E2F9616809024E
:102AC0000F1AA07E00F0E1F93818FEF75BFF2168CD
:102AD000411800E043E00C98081A070210983F0ADA
:102AE000391A0B98081A00020121000AC905884208
:102AF00057D2A7600998FFF715F90A99C87201988B
:102B00000899C01B00024979000A9022114210D195
:102B10000121C90588420AD30498C17B0898C07B6B
:102B2000401C814203D804984079C00601D500F0CA
:102B3000B3F9E96C039800F04DFA0446B07F00F059
:102B400051FAA96D2018401807210905084380355E
:102B5000A96B0322091DFFF791F811B0F0BD089889
:102B6000008F41000A98203002780998101880B22E
:102B700009900898089A0089401C108108984069BB
:102B8000421A089842610898C07BFF2802D2089A2E
:102B9000401CD073E86C4018E864079800F02AFAEB
:102BA000FCE604980A99008F400020310A780999C0
:102BB000511889B209910499049A0989491C118113
:102BC000049949690A1A04994A610499C97BFF2941
:102BD00002D2049A491CD173616808186060079892
:102BE00000F008FA66E70000A4000020C000002002
:102BF00008B500216A461180694600F05DFA08BDFB
:102C00004101401880097047F8B501461B48092268
:102C1000006812028218136B58224A439E18412200
:102C200052018518164A88018718B0780024400799
:102C3000400F052802D0012805D010E0084600F01A
:102C400053FA04460BE02A468032108A002802D04C
:102C5000401E108203E001240846FFF771F8F07B64
:102C6000FF2801D2401CF073002C06D023463246C8
:102C700029460020009700F039FAF8BDA400002092
:102C8000CC00002000210B200007026852070DD560
:102C9000026804239A430260026808231A43026010
:102CA00004E0491C052901DD0020704742689207B5
:102CB000F7D54168C907FCD0806880B2704770477B
:102CC000FEB50F4841210068490144180D4906220C
:102CD0004118684600F008FDA66BE56B636B246C39
:102CE00000206A46811C175C5F54175C7754175CA0
:102CF0006F54175C401C67540628F3DB0020FEBDB0
:102D0000A4000020EF0600007CB50E4C0E492068A0
:102D1000062245180D494118684600F0E5FC296A6D
:102D200006226846891CFEF77CFE092120680902FC
:102D30004018016D06226846891CFEF772FE0020CD
:102D40007CBD0000A400002004090000EF06000084
:102D500070B5124A092312681B02D2180123D26AE5
:102D600083435B00491E41249B184909491CC9B291
:102D700072B615798D420ED31E785B78AD19EDB21F
:102D80005B18AB4207D84000135C00245B18135457
:102D90001079401A107162B6204670BDA400002060
:102DA000491EC904090E72B602788A420CD9511A1A
:102DB000C9B24A1ED3B20370426888001058990005
:102DC00052580021116000E0002062B67047704741
:102DD000814202D25318984203D300B5FEF7D2F9CC
:102DE00000BD521E03D38B5C8354521EFBD270472E
:102DF00018B40168184ACB6813608C6801235460CA
:102E00004C6894600968D1604168144ACC681460C9
:102E10008C6854604C6894600968D16064216A468B
:102E200011700922D2066C462178491E2170516921
:102E3000C90402D421780029F5D122782270084AE9
:102E40008168D4680C6094684C6054688C60126827
:102E5000CA60037318BC7047180000482800004877
:102E6000380000481FB5054C40071ECC03946C4643
:102E70000EC4000F6946085A04B010BDD0F2041009
:102E800089084143880A401C7047032802D0632008
:102E9000C043704766207047F8B54C4D4121286803
:102EA0004901441826464036B08BFFF7DBFF2968FE
:102EB0004031098E401880B2E16C00F08BF8074673
:102EC000B07F00F08FF8A16D381841180720000579
:102ED000014300913E4A29688818363100F018FCF9
:102EE0003F21286849014218917A4B070146203159
:102EF0008E7D5B0F37093F013B4393727207520F80
:102F00008A75334AA831921F801800F006FC2868A1
:102F1000A16CC0300268A26401602868E16CC43012
:102F20000268E264016028680099CC221150D03018
:102F3000A16D0268A26501602868616DD4300268E5
:102F400062650160296820465C30D83100F0EAFBF8
:102F5000296820465E30DA3100F0DAFB2968204625
:102F60006030DB3100F0D4FB296820466430DC316E
:102F700000F0D8FB296820466830DE3100F0D2FB33
:102F8000296820466C30E03100F0CCFB29682046EF
:102F90007030E23100F0C6FB296820467430E4311D
:102FA00000F0C0FB296820467830E63100F0BAFB1B
:102FB000296820467B30E83100F0AAFB29682046CA
:102FC0008430EC3100F0A9FBF8BD0000A400002023
:102FD000EA0700004143080A292109014843C00AC1
:102FE000401C7047012801D00148704700207047FD
:102FF0007A030000FEB503462D483F2702680920EA
:1030000000021018016B582058430C184120400151
:1030100010181146274E7F019D01D219AE19927AE0
:10302000C03100259A420CD1024640321746928E9A
:103030003F8F009784273F58012301977B273F5CF0
:1030400007E08A8CCF8C0097CF6A0023019728274E
:103050007F5C0297A779FF0708D02789D21B12044B
:10306000120C03D12246FEF711FE0546A079810716
:1030700010D522890099891A491C0904090C09D123
:10308000FD21084001ABA0713146052221311846CF
:10309000FEF7C7FC002D0AD00548009601684120C4
:1030A000400109182B462246002000F01FF8FEBD03
:1030B000A4000020CC00002010B50A4A830B12683F
:1030C0008004526A800C140A60435A438009101825
:1030D00000228A5E821A10464030C009C3019A1A43
:1030E0000A8010BDA400002000207047FFB50646EE
:1030F0008DB050890690FF480921006809020B90A5
:103100004018006B0A9051791D461446480601D4B8
:10311000E80757D000200790208F0090A089A3696E
:103120008446A0784007400F05282DD003282BD0D7
:1031300001200990BF20014061710E99EF070846F8
:1031400040301031002F0AD000223C2107910E9907
:103150000692009282839446134682800831372774
:103160000B9A7F01D2195778BF060FD5D778BF07C2
:103170000CD580886246029301920390069B079AC1
:10318000099800F0D4FA1DE00020D2E71A03007974
:10319000130C009A674603970493029205904868BF
:1031A00001910002000E00900B98A0300079C0073A
:1031B00001D0002000E010208030099B069A07997A
:1031C00000F0B6FA0E9F2807C037002873DA20698E
:1031D000E90301D5162117E0A90301D5132113E056
:1031E000290301D528210FE0E90201D53D210BE09B
:1031F000690201D5222107E0690329D56179090611
:1032000001D4082100E03E210191B97B58225143AD
:103210000A9A8918A14201D10821B973F97B582271
:1032200051430A9A8918A14201D10821F973052155
:103230008902084222D0280420D5208A4004AD48C3
:1032400000680ED5A0300079C00703D0002002E04E
:103250001F21D9E710208030069A019900F0ACFABE
:103260000CE0A0300079C00701D0002000E0102061
:1032700000238030069A019900F0CAFA206A0028DB
:1032800001D000F0F3FA002727629A4867620068CD
:10329000A421095CC90701D0002500E0102506998A
:1032A00003910199022380350591E90604D5022294
:1032B000BF210D4007E01DE01B2189014118897ED7
:1032C000C90614D500222907890E09180120C00259
:1032D00008184069294600F0EBFA010007D00F7189
:1032E000039ACA80059A0A72284600F03FFB00251F
:1032F00027618DE1680620D5A0784007400F05289A
:1033000001D1A1696161002105280BD0208BA28920
:103310000004000D01900092238F8020069A00F097
:1033200039FB75E1606B4389028901930092C38880
:103330008020069A00F02EFB6AE0680723D58020E3
:1033400000906C481B21006889014118C97E022346
:10335000069F0907CDD5990240180C2240690099B3
:1033600000F0A6FA0100C4D08F80F2788A71337918
:10337000727912021A430A81B379F27912021A435E
:103380004A81009842E12805800F06D00E986946D0
:1033900031C1684600F034FB3AE1574805423DD060
:1033A000E80401D5002000E01A2007900698049058
:1033B000F01C029080214F480091016837204001A5
:1033C00008184278032392061AD58078000717D58B
:1033D0000120C00208180E224069009900F068FA26
:1033E000059000280CD0079901710499C18008222A
:1033F0000830029900F078F90599009800F0B6FAC3
:10340000A0784007400F052802D0022803D0FFE033
:103410000820B873FCE00820F873F9E0680424D5AC
:10342000208A4004334800680CD5A0300079C007DA
:1034300001D0002000E0102000218030069A00F02A
:10344000BBF90CE0A0300079C00701D0002000E0FB
:103450001020012300218030069A00F0D9F9A078CD
:103460004007400F0528D3D0D2E028021ED5208A7D
:1034700000051AD51F48F1780068A0300079C00710
:1034800001D0002000E0102000238030069A00F0D8
:10349000BFF9A0784007400F052801D10820B87374
:1034A00043212069890288432061B1E00E992A06F0
:1034B000803112480091002A2CDA31460D310191F9
:1034C00002A907910B49169F096808220918F01CE8
:1034D0002637FEF7A6FAF17A307B0822000208436D
:1034E0000099C88307990198FEF79BFA0422394690
:1034F000019805E0A4000020001000046409000009
:103500000830FEF78EFA00980299C163009803997B
:1035100001647DE029013ED57149A4220968525C0D
:10352000D20701D0002700E0102708180390069A60
:1035300000980292C08B032380370590F80603D5CC
:103540000622BF20074009E03720400108184278D2
:1035500092065DD58078C0065AD504223807800EC1
:1035600041180120C00208184069394600F0A0F94E
:10357000049000284CD0001D009002990180009812
:103580000822801C039900F0AFF80098059941814A
:10359000384604993AE0A80209D50820B873514882
:1035A00000884007400F401C00F02BFA30E0A801D3
:1035B0002ED5802001902046403041880991018A13
:1035C0000891C1880491408A0790454837210068D6
:1035D000490141184A78069F0323920618D5897835
:1035E000490615D50121C9024018062240690199F2
:1035F00000F05EF901000BD08F80099ACA80089A0A
:103600000A81049A4A81079A8A81019800F0AEF9EA
:10361000A8060AD5206A0168216200210160226A99
:10362000002A00D1616200F021F9E8061AD5FEF700
:10363000B9F9012852D01F277078B11C0740E06902
:103640003A46806800F0DEF9E069C780E06900274B
:1036500007603178E0698907890F0173E06900F03C
:10366000FDF9E761E80137D51698C18901204007C7
:1036700009184988081801784906CD0F07A900F0F4
:103680000BFAA1200190A67B0798099008980A9050
:103690001348072100680902411809790223C90764
:1036A0001AD09902001D40180F224069019900F0BC
:1036B000FFF8040010D02671271D6571042209A9A6
:1036C000A01D00F011F804220AA9B81D00F00CF8A2
:1036D0002146019800F04AF911B0F0BDFF27ABE791
:1036E000A4000020C000002010B50400FDF74AFD32
:1036F000200010BD10B504000800110002002000D9
:1037000000F0D4F9200010BD80B500F0F7F902BD3B
:1037100002780B7803700A70704702680B680360C8
:103720000A60704702880B8803800A8070477047E0
:10373000FFB51F4605230646C1061E4881B0006836
:1037400003D50522BF210E4009E037214901411868
:103750004A78920629D58978C90726D003223107ED
:10376000890E08180121C90240184069314600F04D
:103770009FF804001CD0029820710398E080277203
:103780000A9860722046251D06220A300B99FFF721
:10379000ABFF0C98A8810D98E8810E9828820F98AD
:1037A000A8742146304600F0E1F8002005B0F0BDD5
:1037B0000720FBE7A400002070B50E460123044655
:1037C000C10612481546006803D50422BF210C40EB
:1037D00008E01B2189014118C97F090601D4002096
:1037E00070BD02222107890E08180121C902401864
:1037F0004069214600F05CF8010005D00E71CD80D3
:10380000204600F0B3F8EAE7072070BDA4000020CE
:10381000F8B51D460F4602230446C1061248164657
:10382000006803D50322BF210C4008E01B21890159
:103830004118897E090601D40020F8BD0122210724
:10384000890E08180121C90240184069214600F07C
:103850002FF8010006D00F71CE800D72204600F0C7
:1038600085F8E9E70720F8BDA400002070B5C17C09
:103870000E4D4906490EC174044601232868D90239
:103880004018902600224069314600F011F80100EE
:1038900003D030464C6000F069F8492029684001A7
:1038A0000918487A401C487270BD0000A40000202E
:1038B000FFB5044600262C4F83B09C460D460806F3
:1038C00016D572B601AB6A466146204600F025F96E
:1038D00000280BD068468188009882789208920070
:1038E000827001806180012662B615E062B621E037
:1038F00001AB6A466146204600F00FF9002819D056
:10390000680609D4684681880098827892089200F7
:1039100082700180618001260098AA00817840238E
:103920008907890F1A40114381700599C170002ED3
:103930000ED115E00020009072B6A8060FD4012029
:103940003968C0020818016808221143016062B694
:1039500072B63868F7224030C1791140C17162B641
:10396000009807B0F0BD0000A40000200A46400601
:1039700008D5D0783A280AD2111D054B80001B5873
:1039800010461847907880088000801C8870704727
:10399000C0D90410F8B51D460F4603230446C106DE
:1039A00016481646006803D51022BF210C400BE0D4
:1039B0003721490141184A78920602D5897849078A
:1039C00001D40020F8BD0D222107890E081801211D
:1039D000C902401840692146FFF76AFF01000AD07A
:1039E0000F71CE800D81069A4A81079A8A812046FE
:1039F000FFF7BCFFE5E70720F8BD0000A4000020AA
:103A000070477047F8B504460D46501E1F21084305
:103A1000401C00041646470D1ED02046083029469B
:103A2000421A002A01DD082A03DB2022FFF7D0F921
:103A300004E0082208C9521E08C0FBD12035202E00
:103A400001D2304600E02020A080301A7F1E24687A
:103A50003F0486B23F0CE0D1F8BD704770B50D4D04
:103A6000044601232868D902401890261A46406966
:103A70003146FFF71DFF010003D030464C60FFF7D1
:103A800075FF4920296840010918087A401C08720E
:103A900070BD0000A400002010B50B460178490657
:103AA000CA0F811C184600F06EF810BD1206130AEA
:103AB0001A43130C1A4300BF094205D0830705D0EF
:103AC0000270401C491EF9D17047000013001039E4
:103AD00006D330B41400150010393CC0FCD230BC01
:103AE000490700D30CC000D504C0890002D302806E
:103AF000801C002900D5027070477047A446521EF2
:103B000008D303780C78401C491CA342F7D0181B3B
:103B100064467047002064467047F0B54488491CED
:103B2000A4B2E5B2A40809B21C808EB28788361907
:103B3000BE4204D9A6B2891B6D1C09B2EDB2A40025
:103B40002418083414601C88AD076418A400AD0F55
:103B50002C43A4B21C800388E31A9C07A40F012CF9
:103B600002D803D1002B01DD00230AE00123002944
:103B700007DA11688C78A408A400641C8C700830E3
:103B800010601846F0BD70B5044616460D4608464E
:103B9000FEF7F5FD2060281DFEF7ECFD310440180E
:103BA000606070BDF8B596B0050017001E001C9847
:103BB000049103A92B22885400200A9002950E97A5
:103BC00000960EE0252912D00498029A904704909E
:103BD000002800D1D2E00A98401C0A900E98401CA0
:103BE0000E900E9801780029ECD10A98C8E00020C8
:103BF00007900890099002260821019101240421D0
:103C00000E9D00E020436D1C2A78202AFAD0232A3A
:103C10000AD02B2A04D02D2A04D0302A08D00AE05A
:103C20003043F0E70843EEE7020008201043EAE7DC
:103C300002001020FAE72A2A0ED1009A17683A6883
:103C40003F1D009B1F600C92002A03D553420C932A
:103C5000014308006D1C14E000210C91004A0BE0A8
:103C6000CBCCCC0C0C9B934205DA9F00FB185B007D
:103C7000591830390C916D1C29780B00303B0A2BF8
:103C8000F0D329782E2903D00021C9430B9127E0D6
:103C90006D1C29782A2908D1009909680A68091D2C
:103CA000009B19600B926D1C1AE02D2902D12D2367
:103CB0006D1C00E0002300210B910CE0002B09D1CA
:103CC0000B9ABC4FBA4205DA9700BA185200511845
:103CD00030390B916D1C29780A00303A0A2AEDD34D
:103CE00003A908852F783900B3A000F01BFA00283B
:103CF00001D038006D1C03AF2A217854785C682805
:103D000005D12878682802D1622078546D1C10A84B
:103D100006902A78681C0E90252A15D0582A52D071
:103D2000632A00D1BCE0642A00D17FE0692A00D177
:103D30007CE06F2A47D0702A3AD0732A08D0752ABF
:103D400041D0782A3FD0B5E0079410A90A70BAE0B4
:103D5000009800680468001D009908600594002C14
:103D600013D12B20385C00280CD00024E44300BF82
:103D700093A000F0E1F9201A00D1A4E00020C04394
:103D800017B0F0BD95A005909DE00B9D002D03D5CB
:103D9000200000F0F5F909E02A000021200000F0E1
:103DA000F7F9002801D0001B00E0280008908AE005
:103DB000009800680168001D009A1060039110A827
:103DC0000590782168E0785C622803D0682809D0E3
:103DD0006C280FE0009801680868091D009B1960B5
:103DE000C0B20DE0009801680868091D009B1960C9
:103DF00080B205E0009801680868091D009B196001
:103E00000390388D0199C0B2084240D00398002831
:103E10003DD020201043782839D1079810A93023AD
:103E20000B54401C431C07930A5430E0785C622812
:103E300003D0682809D06C280FE000980168086852
:103E4000091D009B196040B20DE0009801680868E8
:103E5000091D009B196000B205E000980168086820
:103E6000091D009B19600390002802D507982D2199
:103E700009E0388D304202D007982B2103E0C007BB
:103E800005D50798202110AB1954401C079010A8A5
:103E9000079940180590110003A800F0A0F812E05F
:103EA0000794009800680168001D009A106010A82F
:103EB000017008E00794252010A90870100002D0B6
:103EC000079610A842700C980799401A0999401A51
:103ED0000899401A0F902820385C400713D42020FE
:103EE000694608710F9800280DDD0F9C029D012383
:103EF00001AA03A9280000F0FAF8002800D03DE745
:103F0000641EF4D10295079D10AC002D0ED0029EC8
:103F1000227803A9300000F0D9F8002802D4641CEC
:103F20006D1EF5D10296002800D027E730206946A3
:103F30000871099C002C0CDD029D012301AA03A934
:103F4000280000F0D4F8002800D017E7641EF4D150
:103F50000295059C089D002D0ED0029E227803A993
:103F6000300000F0B3F8002802D4641C6D1EF5D1B7
:103F70000296002800D001E72820385C400700D4D2
:103F80002FE62020694608710F98002800DC28E6FB
:103F90000F9C029D0E9F009E012301AA03A92800E9
:103FA00000F0A5F8002800D0E8E6641E00D105E680
:103FB000F2E70000CBCCCC0C686C747A4C000000AB
:103FC0007072696E74665F733A2062616420257353
:103FD00020617267756D656E740000000000F0B5B9
:103FE00083B00A00C4686F2901D1082506E02021AA
:103FF0001143782901D00A2500E01025182701680F
:104000000E00642A01D0692A03D1002901D571422A
:104010000E00002E0CD1016A002909D1082D31D1E2
:104020002821415C09072DD517273021E17529E0AA
:104030000290684602707F1E01973000290000F050
:10404000B2F83031C8B23A2803DB684600785138FC
:104050000918E1553000290000F0A5F8060004D049
:1040600002988068E1198842E5D30298082D09D1A9
:104070002821415C090705D5E15D302902D07F1E6A
:104080003021E1551821C91B4161E2198260026AA1
:10409000914206DA511A8161018D0B4A0A4002856C
:1040A00010E0002A0ED52822825C14231340102B26
:1040B00008D1426A0369D21A8369D21A511A0129B6
:1040C00000DB816103B0F0BDEFFF000010B503001D
:1040D0000C001100606898476060002804D0E06917
:1040E000401CE061002010BD0020C04310BDF8B5A9
:1040F0000024002B11D007000E0014001D002178B1
:104100007068B8477060002809D0F069401CF06101
:104110000020641C6D1EF2D104002000F2BD0020BE
:10412000C043F9E7C9B202788A4203D0401C002A92
:10413000F9D100207047704780B5002801D100BF39
:1041400007A006490B68002B03D0222200219847C4
:1041500001E000F07FF8222002BD0000840700206B
:10416000636F6E73747261696E742068616E646CE3
:1041700065723A20626164206D65737361676500E2
:10418000431C0178401C0942FBD1C01A704770479C
:10419000C9B2521E05D30378401C8B42F9D1401E90
:1041A0007047002070470022030A8B420BD203099C
:1041B0008B4219D243088B422ED2411A00D20146BB
:1041C000524110467047FF2209023FD012068B422F
:1041D00005D3121209028B4201D3121209020309FC
:1041E0008B4219D300E0090AC3098B4201D3CB01EA
:1041F000C01A524183098B4201D38B01C01A52412C
:1042000043098B4201D34B01C01A524103098B422F
:1042100001D30B01C01A5241C3088B4201D3CB001A
:10422000C01A524183088B4201D38B00C01A5241FD
:1042300043088B4201D34B00C01A5241884200D33D
:10424000401A5241CFD201461046704708B500F0DF
:1042500007F808BD80B5012000F004F801BD7047E3
:104260007047704780B500BF00BF024A1100182098
:10427000ABBEFBE72600020010B585A000F0E0F918
:10428000844C200000F0DCF92000343000F0D8F934
:104290008AA000F0D5F92000743000F0D1F900BFF9
:1042A0008CA000F0CDF900BF91A000F0C9F900BFCB
:1042B00097A000F0C5F910BD80B500BF96A000F032
:1042C000BFF9FCF7F9FA002830D0401E17D0401E85
:1042D00018D0801E18D0001F18D0083818D01038F9
:1042E00018D0203818D0403818D0803818D0802105
:1042F0004900401A16D04900401A15D018E000BFF6
:104300008AA016E08BA014E08CA012E08DA010E033
:104310008EA00EE08FA00CE092A00AE095A008E02D
:1043200096A006E097A004E09AA002E09BA000E01F
:104330009FA000F085F901BD10B5574C04202070F6
:1043400000206070554800F07BF900F0FCF901286E
:10435000FBD0627821780320FBF7B2FE002805D05D
:10436000010000BF97A000F06BF9FEE7FFF7A4FF84
:1043700010BD000038B5484C04202070002060704B
:10438000474D280000F05CF94649002000F039FA5A
:10439000C1B2002904D028002C3000F051F9FEE70A
:1043A00000F03CFA00F0CFF90128FBD062782178C8
:1043B0000220FBF785FE002804D0010081A000F058
:1043C0003FF9FEE7FFF778FF002000F069FA31BD02
:1043D00038B5FCF719FD00F06BFA334800F0A0F98E
:1043E000002000F077FA012000F074FA022000F0BB
:1043F00071FA002000F088FA2C4C2000383000F0D0
:1044000091FA002804D00100200000F019F9FEE71D
:1044100074A000F015F900BF76A000F011F900BFFC
:1044200082A400BF7BA501E0FFF786FF00F0F6F94C
:10443000684600F0DFF90028F8D0684600780A28BE
:10444000F4D00D28F2D03F2810D06C280AD0702864
:104450000FD0722811D07328E6D0742815D1FFF739
:1044600089FFE3E7002000F056FADFE7FFF704FFDB
:10447000DCE7280000F0E4F8D8E7BFF34F8F0C48E2
:104480000C490860BFF34F8FFEE72000F2E7000001
:104490000D0A0000C8DE04108807002010E904108F
:1044A0009CE6041088130000A5470410E4E0041003
:1044B0000400FA050CED00E0704700006C3A202083
:1044C00020546F67676C65206C656420444C310D27
:1044D0000A000000723A202020526573657420742F
:1044E000686520426C75654E52472D320D0A0000FA
:1044F0003F3A202020446973706C617920746869A8
:10450000732068656C70206D656E750D0A00000083
:104510000D0A3E200000000057414B4555502052E7
:104520006561736F6E203D2000000000494F2D39FA
:104530000D0A0000494F2D31300D0A00494F2D3131
:10454000310D0A00494F2D31320D0A00494F2D31EE
:10455000330D0A00534C4545502054494D455231C6
:104560000D0A0000534C4545502054494D455232E8
:104570000D0A0000424F520D0A000000504F520D2C
:104580000A000000535953205245534554205245C8
:10459000510D0A005744470D0A0000004E4F2057A6
:1045A000414B4555502052455345540D0A000000DB
:1045B000556E6B6E6F776E20736F757263650D0A43
:1045C00000000000426C75654E52475F536C656594
:1045D000702829206572726F722030782530327809
:1045E0000D0A0000536C65657020546573740D0AE4
:1045F00000000000456E746572203F20666F7220D7
:104600006C697374206F6620636F6D6D616E647387
:104610000D0A000048656C6C6F20576F726C642047
:10462000536C656570202121210D0A00556E6B6E5B
:104630006F776E20436F6D6D616E640D0A00000030
:104640000EB4C0B5020003A801900020009001AB99
:104650000121044878440C30FFF7A4FA029906B00F
:10466000084700BFF7AB000010B50400202000F0A1
:1046700033FA0128FAD0200000F025FA10BDF0B579
:1046800085B0070001210920FCF7D0FC8020400004
:1046900000906C46012525710026A671667168465A
:1046A00000F04EFAE80200902571684600F048FAE2
:1046B0000297032002A908714871CE804E720872D9
:1046C0008D7202A800F05CF9002000F016FA0120BB
:1046D00000F04AF905B0F0BD1CB50400684604219D
:1046E0000170032141708470FCF70CFC2100102044
:1046F00000F0DFF913BD80B5102000F0F5F90028B7
:1047000008D101BD00F0E4F969460870012168464E
:1047100000F011F8102000F0DFF90028F2D001BD00
:1047200080B51D490860E1204002FFF7A8FF012085
:10473000FFF7D2FF01BD184A1268002A00D1704766
:1047400080B5904701BD80B5082000F0C5F901286B
:1047500000D0002002BD11490A68114B9854521C28
:104760008020C000824200D100220A6070470B49BD
:104770004A680B68934201D101207047084B9B5C4B
:104780000370521C8020C000824200D100224A6087
:104790000020704700000000AC0000202400002032
:1047A000CC02002070B5002504000E0003E0205C60
:1047B000FFF7D1FF6D1CA8B2B042F8D370BD70B541
:1047C0000024012804D0022802D00020C04370BD7C
:1047D000002901D1002070BD0D00160004E02878EA
:1047E000FFF742FF6D1C641C3000461E0028F6D106
:1047F000200070BD80B5FFF7BAFF401E8041C00F9A
:1048000002BD70B50D46044600F014FA294600F0CA
:104810001BFA0146204600F029FA70BD70B500F081
:1048200033FA1D4C01252068ED0241190979002950
:1048300009D1A0300079C00727D000F0B3FA00F00A
:10484000E7FA00F0F3FA00F077FB20680146403108
:104850000A78C9798A4317D13E21095C002913D10E
:104860000E490A8812070FD50922D2061269497A21
:10487000836A4019006FC900801A0002591800129B
:10488000814201DA00F0BAFB70BD00F063FC00F079
:1048900081FC00F04DFDD2E7A4000020C000002004
:1048A0001FB569463A300873684600F00FFE1FBD19
:1048B00002200149087070478A070020012802D0B1
:1048C000022803D004E08020C00170470120704717
:1048D000082070471CB5040001210120FCF7A6FB4D
:1048E0002000FFF7EBFF00906846062101710021D0
:1048F00081710121417100F023F92000FFF7DEFFF3
:10490000012100F085F913BD80B5FFF7D7FF012124
:1049100000F07EF901BD80B5FFF7D0FF00F07FF910
:1049200001BD704710B5837F0122002492024168C7
:10493000082B03D94224914202D310E0914201D2C4
:1049400042240CE0014634220648FEF7CDFE00F07A
:10495000E9FD002801DA482401E000F021FE2046AC
:1049600010BD00003007002069490028086803D006
:10497000012202430A607047012290430860704799
:10498000F0B5040021680125624E63487269D208BF
:104990002A4001D1090100E0C900FFF704FCC10968
:1049A00031810904490A401A401C400881B23F295C
:1049B00002DD3F388006800E307360209F21327CFC
:1049C0000A4023795B01034013433374327811406A
:1049D000627952011040084330700821F720327C80
:1049E0000240A379DB0008271F4017433774327851
:1049F0001040A279D200114001433170E1790029C1
:104A000007D1FD20317C014031743178084030708D
:104A10001CE002200229317C0BD101433174FB21BF
:104A2000327C0A4032743278104330703078014062
:104A30000BE0014331740421327C042313433374AB
:104A400032781043307030780143317070693349E7
:104A50000140207A28404002084370617069304963
:104A60000140207A400828400002084370617069C4
:104A70002C490140607A28408003084370617069C6
:104A800029490140607A40080540E8030843706105
:104A90001020EF21327C0A40A37A1B01034013430C
:104AA000337432781140A27A1201104008433070FA
:104AB000F0BD1E4A0029118802D0084310807047BB
:104AC000814311807047C005C00D194908807047A7
:104AD00017480088C0B2704701001648002901D568
:104AE000006800E0808A02E001001348008801406D
:104AF000080000D00120C0B2704710490A78C723CF
:104B00001340C0003822FFE702401A430A70704782
:104B1000300030401C0030400000127AFFFDFFFFE3
:104B2000FFFEFFFFFFBFFFFFFF7FFFFF38003040AA
:104B300000003040040030403C0030403400304041
:104B4000F0B5047922000021384B002C04D11C68F8
:104B50000568AC431C6006E0062C04D100221C68EA
:104B6000056825431D600568CD40ED0738D5082947
:104B700009DA8D009E6A0F27AF40BE431700AF4091
:104B800037439F622CE00D00083D082D0BD20D002D
:104B9000083DAD00DE6A0F27AF40BE431700AF40AF
:104BA0003743DF621CE00D00103D082D0BD20D00D5
:104BB000103DAD001E6B0F27AF40BE431700AF4046
:104BC00037431F630CE018290ADB0D00183DAD00C8
:104BD0009E8E0F27AF40BE431700AF4037439F86DE
:104BE000491C1A29BFDB01684279012A9A6802D15F
:104BF0001143996001E08A439A6001688079012835
:104C0000586802D101435960F0BD88435860F0BD37
:104C1000074A012901D11060704750607047802118
:104C2000C9050A6850400860704700000400004051
:104C30003C00004010B50920C00600690002000ACF
:104C400000F022FD10BD7047074A914202DC52423B
:104C5000914200DA1146FF22993251430A1251184B
:104C60000A14511808187047FFFF4F001FB56A4615
:104C70003A3010736846029100F018FD002800D009
:104C8000012004B010BD7047F0B5002693B0701E2F
:104C90000E904248E1210068C90044180920C0066E
:104CA0000069374605022D0A72B6A0692146281A06
:104CB0000002000A2231FEF7FFF96169A561401880
:104CC0006061364800684030C1798A0663D420228A
:104CD0001143C17162B6256814E0A8686169401A81
:104CE00000280ADCBA0001A8761C85507F1CF6B2A9
:104CF000FFB2287B00F014FD03E00E99884200D239
:104D00000E902D68A542E8D12046083000250C9071
:104D10001830129018E0AF0001A8761EC159F6B203
:104D2000204600F03BFD01A8C1590C9800F046FD5B
:104D300001A8C059007B3A2804D212981299007831
:104D4000401E08706D1CEDB2002EE4D12068A04218
:104D500017D03D256D042846FDF74AFF01460E9801
:104D6000814201D8284601E0FCF70CFEA169081831
:104D700000020121000A09064018FCF7C1F913B02E
:104D8000F0BD72B600200549072209681202891891
:104D900048620349886062B6F1E70000A400002081
:104DA0004000004870B572B6184D4023286801468F
:104DB0004030C2791A43C27162B6DF26F600881904
:104DC00000F003FD002812D12868801900F004FDCE
:104DD00004460AE0204600F001FD002807D12868BB
:104DE0002146801900F02CFD2468002CF2D128689F
:104DF000801900F0EAFC012807D072B62868BF22AB
:104E00004030C1791140C17162B670BDA40000206C
:104E100010B500F037FD00F037FDFCF7C3FD0128A9
:104E200001D100F032FD00F031FD10BDFEB572B6CB
:104E30003F4D0823286801464030C2791A43C271A9
:104E400062B6002001276C46FF0282005218D21978
:104E5000526952884300401CC0B2E2520328F4D386
:104E600072B6C81900210668016062B6F00702D068
:104E7000002000F02FFDB00702D5012000F02AFD30
:104E8000700702D5022000F025FD300702D503206F
:104E900000F020FD002623E00D281AD2211D254A0E
:104EA0008000125820469047002812D072B6286819
:104EB000F7224030C1791140C17162B630E03A2822
:104EC00007D21C49231D8000E8390A58194620469C
:104ED0009047029829684018C019406921880180CC
:104EE00071006846415AB00002902A688018C019C3
:104EF00040690288920892001418028808348A4295
:104F00000ED0A27891070BD09107890F012901D10A
:104F100004460834A0788008C006E078CFD5BBE707
:104F2000761CF6B2032EDBD300F0D6FCFEBD0000EB
:104F3000A4000020A8DA0410F8B52C4F3C68206EBD
:104F40005C34401C002814D0002529480023C07B75
:104F500000283ED00926F6062648002D1CD0002148
:104F60000A460B464169521C994204D1002902D0DD
:104F700004E00125E9E7204B9A42F2D32160006961
:104F800060603069A1680002090E000A0906014349
:104F9000A16000F0BBFC1DE03169A2680902090AAA
:104FA000150E08D0018BC90712D041692160006934
:104FB0006060E37210E0881A00027D2300121B0378
:104FC000984205DD100E00060843A06000F09EFC2C
:104FD000F8BD6360002DFBD003CC00F0A5FCFA20E7
:104FE000FCF7D0FC39688862F8BD0000A4000020FE
:104FF000500700200000104888130000FEB55248FA
:105000000088582341075148490F026809200002CF
:105010001018026B59435418A27825695207520F91
:10502000216A0092022A01D0052A20D12A0404D440
:105030006279920701D1002919D0A66A444A2B044B
:1050400043D563799B0715D0676B77800120C00338
:1050500085432561FCF7A6FC012809D01F2178783B
:10506000014204D0218A890401D5001D7870FEBD5B
:10507000FF21F4E70029FAD01542F8D10A7CC06B71
:10508000D206D20E921C1718B8B20190708020463A
:10509000FCF72AFD0120C003854325610511009816
:1050A000052800D1AD00FCF77DFC01280BD01F21A5
:1050B0007878014204D02169294201D0001D78701E
:1050C00001987080FEBDFF21F2E7708801235B0725
:1050D000C01863799C469B0704D0636B834201D060
:1050E000012700E00027666B864202D023888342B6
:1050F00012D1002912D015420ED1012300290ED061
:1051000086420CD02488844209D00968002906D040
:10511000154204D1012103E00023EFE70023002121
:1051200062469206920F03D00022002F06D101E0C2
:105130000122FAE70B43C5D0002AC3D00178102220
:1051400011430170FEBD0000C0000020A40000203B
:10515000600600001FB50E480468AE34E078010612
:1051600012D5A178C9070CD0800708D5042069465C
:105170000873684600F0AAF9022000F019FC00202C
:10518000E0704006400EE07000F03AFC1FBD0000E9
:10519000A4000020F0B58BB0002063490290634862
:1051A0000A68141872B610464030C57902231D43B0
:1051B000C57162B625464035287AC0077DD00920E2
:1051C000000210180026476B49E071017A5A002A44
:1051D00043D0C919069109694A021ED48A0226D50C
:1051E000022104910699012309880905090D0391FB
:1051F000372149014118097B89070ED5D9020830AA
:105200004018232240690221FEF752FB010004D01E
:10521000039A8A800498FEF7A9FB069800880090FC
:10522000069800F0EFFB009800F06AFC15E04807D4
:1052300013D5069800880005000D00F06FFC0028CB
:1052400005D1069800880005000D00F08BFC06993A
:1052500004200969814306980161761CF6B2324840
:10526000AC210068095CB142AFD800F021FE2046B5
:105270002430064600F0A9FA012802D0012000F0EF
:10528000CDFE2046183000F0A0FA012802D0002000
:1052900000F0C4FE3C34204600F097FA01280FD0FD
:1052A00002A9204600F0B6FF0420029900F0C9FFD1
:1052B0000028F0D02046029900E032E000F0E7FF3D
:1052C000287A00062DD5304600F07FFA012828D133
:1052D000002000F0EFFFA98B23314909491CC9B216
:1052E000FEF761FF00281CD00F4D044628680123FB
:1052F000D902083040184226382240693146FEF76C
:10530000D7FA01000DD000228A80CC803046FEF70B
:105310002DFB3B212A68490151180A7D80208243D8
:105320000A750BB0F0BD0000A40000202C0700009F
:10533000F0B593B00020069072B6614D0422286843
:105340004030C1791143C17162B600F0D1FF00272E
:105350005C4E73E03068C16F7C2078430C186BD0D2
:105360002089002868D0617BC9075FD00005000D47
:1053700021462A310190102211910CA8FEF7B4F9B0
:1053800007A9204600F0B6FF00283CD0019800F0A5
:10539000F1FF0B90207B80070CD0019800F0F2FF0A
:1053A0000246494B0021012001F00EF8207B000944
:1053B00000012073022004900198039003200290C2
:1053C0003721286849014118897A0123890712D5B4
:1053D000D90208304018132240690221FEF768FA0A
:1053E000010008D0039A8A80029A00238A71CB7147
:1053F0000498FEF7BBFA0B983A280AD0607B400865
:105400004000607312E007A9019800F0FDFF0B90C7
:10541000F1E710220CA91198FEF766F972B6286818
:10542000FB224030C1791140C17162B6A07A0028D8
:1054300002D0204600F0F0FF7F1CFFB22868A030A9
:10544000007BB84286D834E006A9306800F0E2FE5E
:105450000698808801F0A6F804002AD00698816892
:10546000097B052905D0214601F0C2F8FF2807D0A5
:1054700013E0A17AFB2918D0214601F051F914E07C
:1054800006988168097B032909D0E17A090706D5C6
:1054900000900194684601F04BF9002805D0069968
:1054A000306800F0F4FE13B0F0BD0121069801F061
:1054B00041F9306800F089F90028C5D0F3E7000011
:1054C000A4000020A80000203075000070B5144E24
:1054D000E1223168D2008D182C681DE0017B227B0F
:1054E000914218D12146284600F058F92846214615
:1054F000083000F063F9207B3A2803D22035287861
:10550000401E287072B63068DF224030C1791140E9
:10551000C17162B670BD2468AC42DFD170BD0000BD
:10552000A400002070B50025ED43FCF73BFA0128EC
:105530002FD0002318490322888BFF24401E1043DC
:105540008A7F513462438218088B282460431218E2
:10555000488B3024604312180846203040782C24B1
:10556000604310180D4A181884184869A0420ED1DB
:105570001320C00184420AD90D69FCF713FAC1B2A5
:10558000284601F0F5F801F025FA401B251A2846B7
:1055900070BDFF23B533CDE730070020511900005F
:1055A000F8B50626324840250560324800270780B6
:1055B000A9050920C00641602F4A91600168016079
:1055C0002E48032104694269601E08433946401C85
:1055D000FEF790F8FCF7E6F9C1B2204601F0C8F8F2
:1055E00001F0F8F901F0F8F901F04AFA244917201E
:1055F0008881244C2068421901465770FA2088623D
:105600002820107001F03DFA012805D120681022F1
:10561000403001781143017001F035FA012805D1BD
:1056200020688022403001781143017020680146D3
:1056300040300278324302700020C043086601F017
:1056400025FA01F02FFA01F05FFA206801212030DD
:10565000017707214177012001F098FA01F0B8FAAB
:10566000FFF76AFC02488038056002210160F8BD3E
:1056700080E100E0C000002040000048300700202A
:1056800000001048A400002010B50749E122096875
:10569000D2008C18A169401A0002000AFDF7A8FA8E
:1056A0006169081810BD0000A4000020F8B51B4D6A
:1056B0000646E1212868C9004418317B481E3E286F
:1056C00001D34220F8BD2046A2680830824205D0AE
:1056D0003A2905D22021095D072901D36420F8BDAC
:1056E000694601F0D1FA102231460098FDF7FCFF1F
:1056F0002046009900F062F80098007B3A2803D217
:1057000020342078401C207072B62868DF22403098
:10571000C1791140C17162B60020F8BDA40000201B
:1057200010B5030001F0BDFA3A332D2D2D1E2130A6
:10573000332A2A2A2A2A2A2A2A2A242424242424E4
:105740002424242424242424242424242424242419
:1057500024242424242424242424242727272727FA
:105760002727273301F0AAFA10BD01F0BDFA10BDBA
:1057700001F0DEFA10BD01F0E9FA10BD01F016FBF0
:1057800010BD01F035FB10BD01F06EFB10BD3A38C5
:10579000C0B20428FAD2FEF78FFE10BD00B50B464A
:1057A00001F063FB002808D003CB083B086003CB63
:1057B00041600020083B1860586000BD08604268E6
:1057C0004A6042681160416070470068002801D05B
:1057D00000207047012070470068704710B50446EC
:1057E00000202082A074A168A16161612060204630
:1057F00001F046FB452801D0412010BDA0880321BF
:1058000001F066FB0446FDF741F8002813D072B69C
:105810000A48012201680920000209184878A240BC
:105820001043487062B60020FCF75EFB002802D0EF
:105830000020FCF759FC002010BD0000A40000204F
:1058400010B504460068884209D10268226000222F
:105850000260206800280BD1626009E010460268EF
:105860008A42FBD10A68026062688A4200D16060A5
:10587000084601F071FBE17A081AE072A07A401E36
:10588000A07210BD0020704770477047F8B5104EE9
:1058900030682030C57D002D19D0002409273F0233
:1058A00010E0E9070BD0C019016B582060430818BD
:1058B0004030417D204601F055FB002807D06D089F
:1058C000641CE4B23068AC21095CA142E9D8F8BD9F
:1058D000A4000020704770473EB50B4801AA046839
:1058E000694602A8683401F08FFB00280BD0684697
:1058F000007AE18801228240114204D06946097889
:10590000019A01F0A1FB3EBDA40000200449002043
:1059100008610448012100686030C17170470000CF
:1059200000001048A400002070B51A4A1A4CD37B1E
:105930002268002B11D01A4E184B8009CDB2584363
:1059400075430B0A2D0A734310355B19154D8030D2
:105950005B09000A6943090C04E0192312481B047F
:10596000FF21E931114D11866980536210620948A7
:105970002038008EFCF706F8E914884200D3481E50
:1059800040052168000E203108752988090700D4D8
:10599000687270BD50070020A4000020530700006B
:1059A000F6BC080055050000C2F52800C000002024
:1059B00010B50446C1061148006803D51522BF2161
:1059C0000C4006E0372149014118897AC90710D0F7
:1059D00012222107890E08180121C90240184069C6
:1059E00000232146FDF764FF010004D02046FDF7A7
:1059F000BDFF002010BD072010BD0000A400002046
:105A000070477047F0B504463B483C49006885B094
:105A10004518218A890419D50221049137214901A9
:105A20004118897B412627880123C9070ED0D90256
:105A300008304018312240690221FDF739FF01008A
:105A400004D08F808E710498FDF790FF294620883E
:105A50000122183101F0F9FA29462088012230315B
:105A600001F0F3FA294620880122243101F0EDFAF1
:105A70002946208800223C3101F0E7FA2088000501
:105A8000000D01F0FDFA85002946113168460173C9
:105A9000FFF71CFD2946123168460173FFF716FD1A
:105AA0002946133168460173FFF710FD6846143527
:105AB0000573FFF70BFD208801F0FEFA2088010531
:105AC0000D48090D0268252080011018028B9142B3
:105AD00001D100210183E069002802D0012100F0FA
