:020000041004E6
:100000000060002039150510E5110510E7110510F5
:10001000AA5555AA45554C420000000000000000BA
:10002000000000000000000000000000E9110510C1
:100030000000000000000000BF0F0410EB110510CD
:10004000F3110510D70F041000000000000000009D
:10005000F5110510F7110410FD1105108F3E041065
:100060000000000000000000000000000000000090
:1000700000000000333F0410FB440410534C0410F4
:1000800000000000BB150410BF150410FF2C041065
:10009000F33004100332041017560410A751041053
:1000A0000000000000000000000000000000000050
:1000B0000000000000000000000000000000000040
:1000C000FDB5B4B03C98049102A93B2288540020AD
:1000D0000D9028A8401C27900DE00498349A904772
:1000E0000490002801D100F042FE0D98401C0D90B4
:1000F0003598401C359035980178002910D0252975
:10010000EBD100200790089009900A900B900C907A
:10011000002102240120129008200190359D05E065
:100120000D9800F026FE0800129901436D1C2878F6
:100130002028F8D023280BD02B2804D02D2804D039
:10014000302808D00AE02143F0E708000421ECE75A
:1001500008000821E9E708001021E6E72A280FD166
:10016000369802681068121D369B1A600F9000289E
:1001700004D542420F920800042101436D1C12E095
:1001800000200F90624A09E00F9B934205DA9E001F
:10019000F3185B00181830380F906D1C2878030096
:1001A000303B0A2BF0D328782E2803D00020C04300
:1001B0000E9027E06D1C28782A2808D13698006810
:1001C0000268001D369B18600E926D1C1AE02D28E7
:1001D00002D12D226D1C00E0002200200E900CE0C8
:1001E000002A09D10E9B4A4EB34205DA9E00F3184D
:1001F0005B00181830380E906D1C28780300303BD7
:100200000A2BEDD302A801872E7831003E487844AE
:10021000FF30093800F092FE002801D06D1C00E08C
:10022000002602A83A214654405C682804D1287868
:1002300068280BD1622005E06C2807D128786C284B
:1002400004D1712002A93A2288546D1C16A8069088
:10025000287869460870681C359068460278100056
:1002600025382DD02038022800D800E2133801D1DB
:1002700000F0A1FC0B3801D100F03AFD401E01D185
:1002800000F0E7FC401E022800D8F0E1001F01D179
:1002900000F0DFFC401F00D148E1401E01D100F01A
:1002A0008AFC401E00D1EBE0C01E10D0801E01D1A0
:1002B00000F081FCC01E01D100F07DFC00F023FDA8
:1002C000252016A908701298079000F027FD36988F
:1002D00000680468001D369908600594002C00D061
:1002E000BAE002A83B21405C002800D1ADE0002428
:1002F000E44306487844143000F036FE201A01D05A
:1003000000F035FD00F00AFD94FF0000C8FF00007A
:10031000CBCCCC0C641E01D000F01FFD3495079DA2
:1003200016AC002D0FD0349E227802A9300000F0C8
:10033000D9FD002802D4641C6D1EF5D13496002826
:1003400001D000F014FD3020694608700A9C002C92
:100350000DDD349D01236A4602A9280000F0D3FD7B
:10036000002801D000F003FD641EF3D13495059CF4
:10037000089D002D0FD0349E227802A9300000F095
:10038000B1FD002802D4641C6D1EF5D134960028FE
:1003900001D000F0ECFC302769460F700B9C002C5C
:1003A0000DDD349D01236A4602A9280000F0ABFD53
:1003B000002801D000F0DBFC641EF3D134950598D1
:1003C00008994418099D002D0FD0349E227802A967
:1003D000300000F087FD002802D4641C6D1EF5D1AA
:1003E0003496002801D000F0C2FC684607700C9CCF
:1003F000002C0DDD349D01236A4602A9280000F07F
:1004000082FD002801D000F0B2FC641EF3D13495C7
:1004100002A83821405C400700D46CE620206946E1
:1004200008700198002800DC65E6019C349D0123DA
:100430006A4602A9280000F066FD002801D000F0FD
:1004400096FC641EF3D1349555E63E487844FF305F
:100450000B38059000F062FC0E9D002D03D52000A6
:1004600000F0A6FD09E02A000021200000F0A8FD10
:10047000002801D0001B00E02800089000F04EFC8E
:10048000369800680268001D369908600020C04355
:100490000021104002AA03C216A80590069A3C2328
:1004A00002A803C8002904D1002802D10E9C002C08
:1004B00013D05B1E05072D0F3035EEB23A2E00DB50
:1004C0002735D55400090C072043090901D100281C
:1004D00003D0059CD518AC42EBD33C20C01A089041
:1004E000D11805910E99884208DA081A0A9002A8D4
:1004F000018FBD4A0A40028700F010FC002901D498
:1005000000F00CFC02A93822895C14220A40102A4F
:1005100001D000F003FC0F99079A891A0A9A891AE8
:10052000081A002801DC00F0F9FB42E302A83B2195
:10053000415C002908D00024E44349487844FF3056
:100540002130D9E6ACFD00003A21405C622868D039
:10055000682819D06A2844D06C2806D071284ED05B
:10056000742830D07A2820D06CE036980068016872
:10057000001D369A1060002976D10024E4433948E2
:100580007844FF301F38B7E6369800680168001DD0
:10059000369A1060002905D10024E443314878449C
:1005A000C230A9E60D980880B8E336980068016863
:1005B000001D369A1060002956D10024E4432948D2
:1005C0007844A03098E6369800680168001D369A95
:1005D0001060002948D10024E44322487844843044
:1005E0008AE6369800680268001D36990860002A7D
:1005F00013D10024E4431B48784468307CE63698E5
:1006000000680268001D36990860002A05D10024A0
:10061000E443144878444C306EE60D98C11703C289
:100620007CE3369800680168001D369A1060002946
:1006300005D10024E4430B48784428305CE60D984B
:1006400008706BE3369800680168001D369A1060E8
:10065000002909D10024E44302487844801D4BE678
:1006600044FC000058FC00000D98086056E33698E2
:100670000368DB1D072083433698036003CB369D58
:100680002B6002AB03C3C80F02D007982D210AE0EC
:1006900002A8008F204202D007982B2103E0C00758
:1006A00005D50798202116AB1954401C079016A8B1
:1006B00007994318059328AC02A803C814AD03C5D5
:1006C0000E98002801D5062007E007D1684600787B
:1006D00020210143672901D112980E9002A803C876
:1006E000080041004915491C10D100030ED0032019
:1006F0000890613A1A2A04D23C497944FF311139F1
:1007000015E03B497944FF31173910E002A803C8CE
:10071000080041004915491C0ED100030CD10320EB
:100720000890613A1A2A16D332497944C631032215
:10073000180000F06BFCF1E202A8C0C885A003C855
:100740003940002280235B03994208D2002079407F
:1007500032AB03C313E0284979449C31E7E7774B78
:100760003B40774F1F4332AAC0C2080D75A20CCA86
:10077000101876494843764900F06BFC020032A815
:1007800003C802AB03C302A803C872A6C0CE0640CA
:100790000F4003D1002E01D10025B8E014A830C8C5
:1007A0006D006D0825920720801A05DD02002000EB
:1007B000290000F070FB0AE042420020674900F087
:1007C0006AFB02000B002000290000F09CFC2022A4
:1007D0006B461B781A436B465A706A465278662AF3
:1007E0000CD1259A0A320AE0EFFF000008FB000056
:1007F00008FB00000CFB000004FB000006220E9B1F
:100800009A18142A00DD142228AB30241C705C1CBA
:1008100002E014A803C8139A002A3CDD14AB03C3FA
:10082000139214A803C800F0CFFC269006460834A3
:10083000042530000A2100F00FFC0F0030000A21CF
:1008400000F00AFC06003037601E077030000A21F5
:1008500000F002FC0F0030000A2100F0FDFB060052
:10086000A41E303727706D1EE3D108341398083862
:1008700013900028CDDD269800F0BEFC02000B008E
:1008800014A803C800F025FD0022354B00F098FDA8
:1008900014AA03C2C5E72798201A28A94C1C259D35
:1008A00002E0401E6D1E641C21783029F9D0694693
:1008B0004978662901D1691C06E0694649786529AD
:1008C00001D1129900E000210E9A5618B04200DAC8
:1008D000461E002E1BD4864204DAA05D342801DDBA
:1008E000392000E030203100621E521801E0761EEF
:1008F000521E491E13788342F9D0392802D1605C18
:10090000401C6054002902D5641E761C6D1C68468C
:100910000078694648700E9F30B2002803DC129EB2
:10092000054C7C44123468464178202008436628F0
:1009300018D16D1C2EE000BFCCF90000FFFF0F8026
:100940000000E03F02FCFFFFFFFFFFFF9775000084
:10095000A0860100FFFFFFFFFFFFFF7F0000F03FC9
:1009600084D7974167285CD128B20321C9438842C4
:1009700041DBB8423FDA6D1C02A8008F0199C0B27A
:10098000084203D130B2B84200DA070028B23F1A59
:1009900000D5002728B2002800DDA8E00898411CF7
:1009A00008913021059A1154002F05DC02A8008F10
:1009B0000199C0B2084205D00898411C08912E2127
:1009C000059A115428B241428F4200DA7D422DB27D
:1009D00068420B907D1930B2854200DA2E0036B2A3
:1009E0000996320021000598089BC01800F00EFB04
:1009F000A81B0C90C7E030B2B84206DA02A9098FF2
:100A0000019AC9B2114200D107007F1E00D500270C
:100A100068464078672801D1652000E04520694696
:100A200048700898411C08912178059A1154611C5E
:100A3000002F05DC02A8008F019AC0B2104218D026
:100A40000898421C08922E22059B1A54002F10DD94
:100A5000741E20B2874200DA3C0022B20598089B3F
:100A6000C01800F0D3FA24B2089800190890381B77
:100A70000B9005980899401869464978017029B289
:100A8000002903D42B214170861C03E02D224270E3
:100A9000861C4D42002412A928000D0005E00A2101
:100AA00000F0D7FA2970641C6D1C00B20028F6DC37
:100AB000012C08DC6846407820210143652902D1D9
:100AC00030203070761C002C09D130203070761C1C
:100AD00007E0641E12A8005D30303070761C002CD8
:100AE000F7DC059808994018301A09904BE030B2AD
:100AF00029B288421DDA32B221000598089BC0183D
:100B000000F084FA36B20898801908902DB2A91B1B
:100B10000B91002F05DC02A9098F019AC9B211427D
:100B200005D02E21059A11540998401C09900C9764
:100B300029E02AB221000598089BC01800F066FA47
:100B400028B2089909180891751B002F05DC02AA24
:100B5000128F019BD2B21A4204D04A1C08922E2254
:100B6000059B5A5429B28F4200DA3D002AB221185F
:100B70000598089BC01800F049FA2DB20898401952
:100B80000890781B0B9002A83821405C142101408A
:100B9000102900D0C2E00798089940180B99401816
:100BA000099940180C9940180F99884200DBB5E06C
:100BB000081A0A90B2E002AA3A20105C622808D013
:100BC00068280ED06A2814D06C281DD0712810D047
:100BD0001AE0369801680868091D369B1960C0B292
:100BE00018E0369801680868091D369B196080B2C4
:100BF00010E036980368DB1D0720834336980360B6
:100C000003CB369C236006E0369801680868091D0E
:100C1000369B1960002102AB03C3108F0199C0B24B
:100C200008425BD002A803C8002901D1002855D092
:100C3000684600782021014378294FD1079816A9EA
:100C400030220A54401C421C07926A4612780A5409
:100C500044E002AA3A20105C622808D068280ED02E
:100C60006A2814D06C281DD0712810D01AE036984C
:100C700001680868091D369B196040B218E0369873
:100C800001680868091D369B196000B210E03698AB
:100C90000368DB1D072083433698036003CB369D32
:100CA0002B6006E0369801680868091D369B1960BC
:100CB000C11702AB03C3002902DA07982D2109E00E
:100CC000108F204202D007982B2103E0C00705D5E2
:100CD0000798202116AA1154401C079016A80799BE
:100CE000401805906846017802A800F044F815E025
:100CF00012980790369800680168001D369A1060B7
:100D000016A801700AE0252016A90870129807900D
:100D100068460078002801D04A7007940F98079918
:100D2000401A0A99401A0899401A0B99401A0999D1
:100D3000401A0C99401A019002A83821405C4007E3
:100D400001D5FFF7ECFA20206946087001980028C9
:100D500001DCFFF7E4FA019C349D01236A4602A9F5
:100D6000280000F0D0F8002801D1FFF7D3FA0020C6
:100D7000C04337B0F0BDF2B586B0040025696F29D5
:100D800001D1082707E0084620210143782901D036
:100D90000A2700E010273C2603CC083C04AA03C223
:100DA0006A46127E642A03D06A46127E692A09D1F5
:100DB000002907DA04A803C800220023121A8B4175
:100DC00004A80CC004A803C800290DD100280BD129
:100DD000206B002808D1082F3BD13820205C000769
:100DE00037D53B26302033E00294009504A830C864
:100DF000761E0196200029003A00FB1700F0A2FBA6
:100E00003032D0B23A2803DB6846007E51381218DF
:100E100000988255200029003A00FB1700F092FB51
:100E200004000D0001D1002C05D00298C068009983
:100E300089198842DCD3029C009D082F09D13820F3
:100E4000205C000705D5A85D302802D0761E302032
:100E5000A8553C20801BA061A919E160216B884244
:100E600006DA081A2062208F1C490140218710E011
:100E700000290ED53821615C14220A40102A08D1BD
:100E8000616B6269891A226A891A081A002800DDD2
:100E9000206207B0F0BDF8B50026114F04000D0028
:100EA000009214E0C00707D532003B002000290063
:100EB00000F086FA04000D00009840100090300009
:100EC000390032003B0000F07BFA06000F0000986A
:100ED0000028E7D120002900F4BD0000EFFF00004A
:100EE0000000244010B503000C001100A0689847D2
:100EF000A060002804D0E06A401CE062002010BD21
:100F00000020C04310BDF8B50024002B11D007000D
:100F10000E0014001D002178B068B847B0600028AA
:100F200009D0F06A401CF0620020641C6D1EF2D1F2
:100F300004002000F2BD0020C043F9E7C9B20278E6
:100F40008A4203D0401C002AF9D1002070470C08C7
:100F500002170D01010209090101060209FFFFFF45
:100F6000FFFF0909FFFFFFFF80B5002801D100BF87
:100F700007A006490B68002B03D0222200219847C6
:100F800001E000F014FB222002BD00006C030020F1
:100F9000636F6E73747261696E742068616E646CE5
:100FA00065723A20626164206D65737361676500E4
:100FB000431C0178401C0942FBD1C01A704770479E
:100FC000C9B2521E05D30378401C8B42F9D1401E92
:100FD000704700207047704770B4103A03D378C947
:100FE000103A78C0FBD2530701D318C918C001D5F5
:100FF00008C908C0D20704D30B880380891C801C51
:10100000002A01D50B78037070BC70478B0701D1A3
:101010008307E1D0124205D00B78491C0370401CB5
:10102000521EF9D17047F446002804D4494200F01A
:1010300013F8404260474042002905D45FD000F0D9
:101040000BF8404249426047494200F005F84942E6
:10105000604703460B43E6D40022030A8B420BD2BF
:1010600003098B4219D243088B422ED2411A00D277
:101070000146524110467047FF2209023FD0120636
:101080008B4205D3121209028B4201D312120902BC
:1010900003098B4219D300E0090AC3098B4201D32B
:1010A000CB01C01A524183098B4201D38B01C01A74
:1010B000524143098B4201D34B01C01A52410309EB
:1010C0008B4201D30B01C01A5241C3088B4201D39A
:1010D000CB00C01A524183088B4201D38B00C01A47
:1010E000524143088B4201D34B00C01A52418842FF
:1010F00000D3401A5241CFD201461046704708B57E
:1011000000F05AFA08BDF0B40E005E400125ED076C
:101110002E40B446AE0ADF184C18F4423BD2F742D8
:1011200041D2640D43D07F0D38D0E41BC902DB02ED
:1011300029432B43CF0ADB0A0600B61A9F4104D28B
:10114000641EB6197F41B6185F416812800D2418DD
:101150000018844222DAE80C0021B6197F41B61A41
:101160009F4102D2B6185F413F1C40414941F4D330
:10117000241C21DD2405B6197F41B61A9F4105D3F1
:101180003743C60737430026012F70416141664649
:101190003143F0BC7047FCD1F74205D20020C14377
:1011A00049054908F3E704D00020C143F1E77F0D6A
:1011B000FAD000206146ECE72442FAD1401C61419C
:1011C0000F03F6D30020E2E74A1812D2400DC902FD
:1011D00008430121C9070843520D40210901521A51
:1011E000521C06D452421F3201D4D0407047C0175F
:1011F0007047002070477047010042221201D21E42
:10120000004207D002D4521E0018FCD5C10A400586
:1012100012058918704700008B4200D1824205D91F
:101220008446100062468C4619006346DF184C184D
:10123000640D7F0D3AD0661C760537D0E61B352E3F
:1012400034DCDB022B43DB0A0C0DC9022943C91233
:10125000202E0DDB1700203E06D01F00F741F34083
:101260005F400026012A7741C01871410DD217E076
:101270001700F741F2405740F3415A40B340F34062
:101280005A400026801859410AD3A21C52050FD09B
:10129000C207012F724117004008CB0718434908C5
:1012A000641C24054208AF4170416141F0BC7047A5
:1012B000641C21050020F9E76B4010E06B40ABE7B0
:1012C000F742F3D1E943F1E72442EFD100200021B6
:1012D000ECE7F0B40125ED070F005F40EED40C0001
:1012E000871A9C4105D2C01BA141D21963416940B4
:1012F0006B40AE0ADF184C18F442E1D2640D7F0D4A
:10130000E2D0E61B362ED1DCDB022B43DB0AA446FF
:101310000C0DC9022943C90A012E28DC04D1D607C5
:101320005208DF073A435B08EF0A76429041994141
:1013300014D039423BD1B61940414941761C39425B
:1013400004D1761C001849413942FAD0B9436746A6
:10135000B74208D9A41B24052143A7E70042EAD1DC
:101360003642E8D1A2E7E40AE10700209EE7202EFA
:101370000BDD203E1F00F340F7415F40012A0022B1
:1013800057417E42984191410BE01700F741F240EE
:101390005740F3415A40B340F3405A407E42904197
:1013A00099410A0303D2641EB619404149410027FE
:1013B000641E24054208AE4178416141F0BC70478B
:1013C000F0B50E005E400125ED072E40B446AE0A92
:1013D000DF184C18F44208D2F7420ED2640D01D047
:1013E0007F0D12D100206146F0BD05D1F74201D832
:1013F0007F0D05D10020C143F0BDFBD1640DF9D0B4
:101400000020C143490549088FE0E419C902DB0205
:1014100029432B43DB0A460DC00231438E4630B4CC
:1014200087B295B27D432E0CADB2140C7C43A41947
:10143000260C240425439CB27C43A419190C79433F
:10144000270CC919A4B20F043C43090C000C97B235
:1014500047432E0CBE193543ADB2170C4743360C2B
:10146000BF19A6B2BF193E043543240C3E0C3619F1
:101470009FB24743BF19BCB23E0C89191F0C4743AA
:101480007F183E043443390C704680B297B247430C
:101490002E0CBE193543ADB2170C4743360CBF199D
:1014A000A6B2BF193E043543240C3E0C36199FB238
:1014B0004743BF19BCB23E0C89191F0C47437F1824
:1014C0003E043443390C77463F0C90B278432E0CDF
:1014D00080190604ADB22E43050CA0B22D18120CD3
:1014E0007A435019020C80B2240CA4189AB27A43A1
:1014F000121914042043120C89181B0C7B43C918C1
:1015000030BCEF0A394203D1B61940414941641E4B
:101510006F12BF0DE41B0BDBFF19BC4211DA24056F
:1015200000274208AE417841614166463143F0BD33
:10153000641C05D1401C6141CF0201D34908F4E786
:1015400050E75DE7124224D0994228D970B50025B2
:101550001B4202D00C00002109E00024012649189A
:101560006441944200D3A41A7641F8D33100012695
:1015700001E0764109D2001864416D41A41A9D41F1
:10158000F7D2A4185D41B619F5D3300022002B0024
:1015900070BD1B42D8D108B500F010F808BD01D1CC
:1015A0009042D3D202000B0000210020704780B58A
:1015B000012000F005F801BD704770477047704783
:1015C00080B500BF00BF024A11001820ABBEFBE788
:1015D00026000200F0B5FE48FE4E016841204001A1
:1015E000B2680C1885B0D00173D5204680300090C9
:1015F000806B817AEE2319408172304651030125B8
:10160000C068002942DB510105D500200921C90627
:101610004860357036E0510012D5C178491E090680
:10162000090EC17003D10922D2065160357041798B
:101630000A0627D54906490E41718169416121E0B9
:10164000E5490A420AD0214620318D70520202D566
:1016500003228A7000E08D70816941610179224620
:10166000C17040329179002908D00921C9068968E2
:10167000A16400210223E1649377A16541794906C1
:10168000490E417100204621085539E031698A89A7
:101690000121490752185288436B5218934209D1CD
:1016A0009278142A06D1034640331A7DDF273A4048
:1016B0002A431A75806A408840187D210078095DA8
:1016C0000843C00606D4002009213570C9064860C9
:1016D00010E082E2606D00F06FFB01460920C00659
:1016E0000269236DD21A1202120A914202D2357097
:1016F00000214160F06801220169D2039143016138
:10170000B268500213D53069808901214907401819
:10171000408840187061F1684B6B834207D1807834
:101720000D2804D101200B69000483430B61374667
:10173000002A48DA0098806B418801204007081889
:10174000F8610920C0064069C00DC00708D000201C
:1017500009217D70C90648603D70A048B061F1E084
:10176000F86841210069490108420AD000F034FBC1
:10177000012829D01C22F9694878024201D0001FB3
:101780004870F8697D2201781155C94389071DD039
:10179000F8680069C0036FD500F01EFB01286CD00B
:1017A0001F20F9694978084266D0002009217D7020
:1017B000C90648603D708948B861F868012102692E
:1017C00009048A430261BDE0FC22D4E786784178AF
:1017D0001A2E74D2824A925DFF2A70D08A426ED14C
:1017E000022E14D0F9684A79D20659D4062E15D0A3
:1017F0000A69D30327D5002009227D70D2065060E4
:101800003D707648B8610A69001182435BE0F86870
:10181000406B0560F9682320487193E00122B869A4
:1018200092031043B8616F4A0869104015225202B2
:10183000104308612046C030C17BBA7891422FD155
:101840000821C1737EE0002E18D0012E29D0032E6E
:101850002CD00A2E34D00B2E37D0082E38D0092E9B
:1018600039D00C2E3AD002465F4B3146012000F0B1
:10187000B5FA002866D149E05BE058E00A46214607
:1018800000F0AEFAF8698179C0790002084357493F
:10189000400240185649896A814200D8084660656E
:1018A00050E00A46214600F0BFFA4BE0B8698023B9
:1018B0001843B8614120000402430A6142E027E076
:1018C0008920C00105E00A613CE04A480240FAE78D
:1018D00010200243F7E70120000326E096070423C7
:1018E000002E08DABE691E4302239A430823BE6114
:1018F000CF26335502E0D60700D11A432A430A61A6
:101900000522C01C2C3100F0A6FA1BE0072E06D0E1
:10191000F8680822016911430161C67112E0F86993
:10192000C0780E280ED101208006B8610AE0FF20A1
:1019300037E72146FB683A69F86900F095FAB9691A
:101940000843B861234FF8683969066A0A8A012397
:101950005B07D21801925288D21800237A61029351
:10196000BB681127BF043B421ED15F011CD4476BEB
:10197000974201D0012700E000270397904201D051
:10198000012700E00027BC46002E0DD0039F002F4A
:101990000AD06746002F07D0F77CFF0904D03768CC
:1019A000002F01D0012702975B0202D4029B002B7B
:1019B00075D043799F0701D5002E1DD05B085B00D1
:1019C000476B974257D143719378042B19D02AE083
:1019D000B40000206C0000200000408008001000CF
:1019E0004E0F0410DFFBFEFF840000209AFDFFFF76
:1019F00010030020BFFFFEFF2B431F462F434771FC
:101A0000DEE72346C033DF7B082F05D1E24FBF78E6
:101A1000DF737D277F029F81DF4B01279B69FF06D4
:101A20003B43DD4FBB614379DB060CD5DA4B09271D
:101A30005D700023FF067B60D74BD84F1D709B69FC
:101A40003B43D54FBB619278152A32D107464037C8
:101A50003A7DFD231A40BC463A75130729D5CE4B73
:101A600001279B697F063B43CB4FBB61F7231A409D
:101A700063461A751DE082421BD0338AB77C002270
:101A8000DB1933827369B361B274338AF788BB425E
:101A900002D2F77CFF0903D03668202205E068E017
:101AA000DB0602D1B3691B68B361BB4B9F693A4344
:101AB0009A6142790027D20717D0B74A436B536126
:101AC0009A78052A3BD1026920231A43026100203B
:101AD00008704871487088718870C871C870087241
:101AE000087148728020487229E0002E0AD000F068
:101AF00005FA002806D1A8483322C16852010969B5
:101B0000114209D0A4490122C868486105800169D1
:101B1000D2031143016112E0A14A317C136809220A
:101B20001202C9069A18C90ED26B0127891C89189E
:101B30004161019A51803146C06800F0EFF9964E3C
:101B40002121F0688901006908420AD000F044F9B7
:101B5000012809D01F2271694878024201D0001D76
:101B60004870002F02D004E0FF22F4E70199B08A08
:101B70004880894EF26810694106890F1ED08006A0
:101B80003178C00F012902D0B16849030BD5002874
:101B9000306903D0C17D082319430AE0C37DF721D2
:101BA0000B40C3750AE000283069C17D03D0F723DC
:101BB0001940C17502E008231943C17521463369F4
:101BC000F06900F0EDF93078012808D000997548E7
:101BD000896B0322091D00F06BFA05B0F0BD6E4859
:101BE0000121C26800695379C77A9C4620231E5C94
:101BF00000238372204620300190807803281BD177
:101C000093796548002B17D163469B069B0F13D130
:101C1000634B1B682033DB7C002B0DD1136A002B38
:101C20000AD1CF231B5D8078834205D09089411C67
:101C30007043C01989B287B2108F1389400048439E
:101C40005918118101998978002902D15169091A1D
:101C5000516100998E6BB17A11231943B1722146FB
:101C60004D4BC031CE7B9B789E420AD18B891B1A8B
:101C70008B8110D5484E4C4B7570B1691943B161D9
:101C800009E053694449002B05DC0E464D70896913
:101C9000464B1943B1616146890605D53E49444E1C
:101CA0004D708B6933438B6111792646D170403674
:101CB000B571E16C80B20818E0649079FB210840AE
:101CC0009071C0071AD0B08E1189401A012180B2DC
:101CD000C903884206D33048364A457081691143AA
:101CE00081610BE0002809D101230021204600F08A
:101CF000E7F9294989690843274988612648C16865
:101D00008A79900724D5338F0E8923489B1B5B1C4F
:101D100001269BB2F603B34205D34570254A81697B
:101D20001143816114E0002B12D1FD231A408A7106
:101D3000026900992132496811700B0A53700B0C2B
:101D40009370090ED17060340069E17E20304171DA
:101D5000384600F001FA10490A69D072019800264D
:101D600086704878002802D0887800F003FA0C4C7E
:101D7000582120680D540921090240184078002894
:101D800002D0012000F0CAFA012000F0C7FB206851
:101D90004030067605B0F0BD6C0000200800010060
:101DA000B4000020FA003000088040000800040061
:101DB00008000200080008000649C20B0968400438
:101DC000096A400CCB0958435143000A08182030D7
:101DD00080097047B4000020002070470020704741
:101DE00070B50C460546C178602001551646281D81
:101DF00000F0DAFE4034A084A81D00F0D5FE208556
:101E00002846083000F0D0FEA08528460A3000F0B1
:101E1000CBFE208628460C3000F0C6FEA086B079A6
:101E200001210843B07170BD70B5054616460C46D9
:101E3000C01C00F0BEFE84210851E9797B200155C9
:101E40002846083000F0B0FE40342087B0790221E7
:101E50000843B07170BD04E003780B70401C491C4E
:101E6000521E002AF8D17047F8B51D4614460646A2
:101E70000027FFF7B1FF01280CD01F207178084020
:101E8000060036D00020E86100F09EFE002803D056
:101E9000E86907E0FF20F1E769893246012000F098
:101EA000A3FEE861002801D0102722E0E07D802118
:101EB0004840E0751049286908421AD06079401EF0
:101EC00060716079FF2814D1A079401EA071A079BB
:101ED000FF280ED1E079401EE071E079FF2808D19B
:101EE000207A401E2072207AFF2802D1607A401E9C
:101EF00060723846F8BD00002028000006480168DE
:101F0000492040010818417AC07A814201D9012054
:101F10007047002070470000B4000020F8B50C4660
:101F2000CA88098A4030521A8088102695B2A84281
:101F300005D20546E07C4006400EE07403E02068D0
:101F4000002800D10026002904D1207B800701D57C
:101F5000022000E00120CF060643FF0EE81982B2FE
:101F60000E48A1690368092000021818C06B001D03
:101F700000F05CFE60610948A57401680920000258
:101F80000818C16BB81C0E540448016809200002EF
:101F90000818C06BFF1CC555F8BD0000B400002038
:101FA000FFB515691E46A8032E3689B01C46174694
:101FB000002832DA102269463046FFF74CFF092428
:101FC000E4060398A0610298E061019820620098FD
:101FD000606235480168E0140818016FA162C06EA4
:101FE000E0620A988030016C2163C06B606300F08E
:101FF00041FEA06B0390E06B02902C4801680191B8
:1020000040680090102231466846FFF724FF012007
:10201000400485433D610DB0F0BDE8053CD505A801
:102020000146009010223046FFF715FFFF200130D7
:1020300085434120800205433D610998082201A99A
:10204000C01CFFF708FF0998214604222A310B30F3
:10205000FFF701FF154805A9283800F01DFE0924E7
:10206000E4060298A0620198E062786B082203A956
:102070000D30FFF7F0FE049820630398606300F0D2
:10208000F9FD0A4905A8083900F006FE102231467C
:102090000098FFF7E0FEBEE7A07A0006BBD40A98DE
:1020A00000F003FEB7E70000B40000204000004845
:1020B00003E00870000A491C521E002AF9D170473B
:1020C000FFB581B000230093049B012B2BD04B8CD8
:1020D000204D1C010B8C9C46CB7E6B438D8BAE46FA
:1020E000CD8B9669A64205D19689664502D1168F99
:1020F000AE4201D0402600969679042776087600F5
:102100003E43967194615461644694811587049AA4
:10211000012A17D00B6170464A68400010184860C9
:10212000009805B0F0BD034640331D461B8E094E96
:102130001C01AB8D9C4660231B5C7343AE8C2D8DC4
:10214000B646CEE783657146C26C49005118C1643A
:10215000E6E70000E2040000054925224143090C9E
:102160005143401A80B2252800D32538C0B27047A9
:10217000EB060000F1B5674941220868520182B0C0
:10218000821800927B2212018618AC22155C04464C
:102190000346029AC034363395427DD9092109029B
:1021A000401817465821006B4F430025B91C455471
:1021B000029800F085FD00280CD15648BF1D01682B
:1021C000092000020818006BC05D002802D00098AA
:1021D000C030057272B64F48029D0768012039462B
:1021E0002031CA7DA8408243CA75317D8143317553
:1021F000197808077AD44A070298520F82427CD095
:1022000030462030827E5507029A6D0F954276D176
:1022100081760F2018704122A06852017063BD18AA
:10222000A86D2169A9652061686D61696965606152
:102230002146284618315C3000F05CFD3648A37E0C
:1022400039180A780B70A276A86C2168A9642060FE
:10225000E86C6168E96460601120C00139180A788F
:10226000E37E0B7021462846E2761C31643000F094
:1022700041FD214628461E31683000F03BFD2146D5
:10228000284620316C3000F035FD214628462231A9
:10229000703000F02FFD00E03BE02146284624315D
:1022A000743000F027FD214628462631783000F0B2
:1022B00021FD194880351D303918204628300A780C
:1022C00003780B7002701448E26A263038180168EF
:1022D0000260E1620721E06809050843A96B032257
:1022E000091DFFF7E5FE0AE000E006E03A20805D08
:1022F00041070298490F814201D10F201870203602
:10230000B07E41070298490F814201D10F20B0767B
:1023100062B6FEBDB40000207E080000F0B57D4D21
:10232000044641212868490191B0401808900020D6
:102330000D9072B600F0E4FC002801D1002C07D00B
:102340007448002401680920000208184678DDE07E
:1023500062B60D9811B0F0BDF0077DD06E49A001B6
:1023600040180E906B480168092000020818016BA4
:10237000582060430D18A978286A4907490F022997
:102380004AD1A979490747D4002845D0288F400071
:1023900009900002FFF710FD039000200F905D48A8
:1023A00036210068095C0A070AD44907490FA1428F
:1023B00006D1012180300F91416C0191806C06E0C3
:1023C0000899C96C01910F21C9014018406E009015
:1023D000FF205F30FFF7F0FC4F490C39497AC90004
:1023E00041180098411A0398081A07900E980B217B
:1023F00041562030059100780A90002002902889EB
:1024000006900920C00601690798401A07020120BA
:102410003F0AC005874229D36BE001200D90039944
:102420000798401A0790029840180290099901985D
:10243000401A0190696909980818686105990A9815
:10244000081A40B205900698401E80B20690059882
:10245000002804DA253000E055E040B2059009205C
:10246000C00601690798401A07023F0A6420FFF777
:10247000A3FC29490C39497AC9004118254800684C
:10248000806A0818B84207D20120C005874203D2EB
:10249000099901988842C0D802990098401A000210
:1024A0000D99000A00290CD01A4901220968D202AC
:1024B0008918096F411A09020912002901DD00215A
:1024C0000D910F99002906D01249019A09688031AF
:1024D0004A64886408E0089A0199D1640D490A6841
:1024E0000F21C901511848660E990598C8720698BF
:1024F0002881084801220168092000020818417853
:10250000A24091434170641CE4B27608002E00D0D2
:1025100022E71DE7B4000020CC000020F1B5F74F02
:102520007B20396800010D18084696B0683012907B
:10253000092000020818006B1390412040010E187A
:102540000920C00600690790002003900824EC4889
:10255000FFF732FC02900020149072B63868F72220
:102560004030C1791140C171129801210171129856
:1025700001684A07520F4271C9081298C9000160E8
:1025800062B61698002801D007980DE06420FFF786
:1025900013FC07994218DB48417AD8480068806AE2
:1025A000081810180002000A00F0D6FB686B0490AF
:1025B0003A20405D0E90082842D2012003900E98E8
:1025C00058214843139940180590CF48876ACD4851
:1025D000407AC00000F026FD01460598008F4002B9
:1025E0000818C74949424018874200D238467065EA
:1025F000B82081590A7948798979000210438907FE
:10260000890B01430598FF314030028A408AC3316B
:102610001018401800F00EFD07465F200001FFF77C
:10262000CBFBB84204D95F200001FFF7C5FB00E0F7
:10263000384604990918B348407AC0000818149025
:10264000706DFFF7B9FB0499401801900020074610
:102650000690287D002809D10E98082806D3A9499C
:10266000002008800921C906486065E16868089073
:10267000686C0A9029680798401A00020412A14861
:1026800000884007400F00F01BFB002801D000200D
:1026900007E0002CFBDB204600F0C4FC0A998842CE
:1026A00000DA0A900120800708240C9000200F9087
:1026B000297D3AE00E9A904234D0904A1268203236
:1026C000927D1207120F82422CD0EB6A42000693D1
:1026D00007929F5A05976B6A9A5A089B92017B430F
:1026E000D3180A9A9C46934212DACA0710D02A6B72
:1026F000079B089FD25A521C93B21A467A43059FF1
:102700009444FA1892B213460592079F069AD3533F
:102710000C9A6346944505D2CA0703D0059A0C93D8
:1027200004460F924908401CC0B20029C2D10C983F
:10273000FFF742FB29684718A86A6100405A8001E8
:10274000FFF73AFBC01906906E48407A5822C10044
:102750006A480068125C002A6C4A12690CD0BB1AE5
:10276000029A52009B1A169A002A01D0002001E01A
:10277000806A4018181A0BE0BB1A029A52089A1A7B
:10278000169B002B01D0002001E0806A4018101A2F
:102790000002000A0121C9050590884209D3082CCE
:1027A0007ED0204600F04AFC55490C9840180A900B
:1027B000686401210598C905884200D372E7082C96
:1027C0006ED00F9800282DD0089948430590FFF748
:1027D000F3FA296840180002000A2860696C05981D
:1027E000081A68640C990598081A00210C9013E0E7
:1027F000EA6A480005909446105A0F9A801A04E03D
:102800002B6B059A401C9A5A10180028F8DB059B80
:102810006246491CD052C9B238480068A030007BDB
:102820008842E5D80E98082876D20498C01B010289
:102830000120090AC005814222D302983A1A14984D
:10284000101A01020120090AC005814201D314981F
:102850000DE00199511A0902090A814208D30120A9
:102860004002FFF7A9FA02994900791A081A019063
:1028700001990498081A0002000A00F0D3FB706561
:10288000029901984018C01B01020120090AC005E5
:10289000814255D202994A0006995218049900E0E3
:1028A0004AE0511A0902090A814235D20E9858218C
:1028B0004843139942185820214641431398D37B2B
:1028C0000818C17B994201D3102100E00021C906FC
:1028D0001ED48179CA0702D07221895B03E089077F
:1028E00007D57621895B0289891A491E0904090CDA
:1028F00012D0407900060FD422E00DE0B400002091
:1029000066020000C0000020100300200000004804
:1029100050799021084213D1082C15D09E490C986B
:102920004018686458201399604340188078400725
:10293000400F01283FD007E00398002804D003D0BF
:10294000049F0E9C019806903802000A0090069899
:102950000102090A012080020691FFF72DFA039077
:1029600001204002FFF728FA074606990098081A46
:1029700000020012002809DD0399000A884200D9EC
:1029800001460391B84200D838460746082C7DD04E
:10299000824800884007400FA0424FD0582013992A
:1029A00060434018059080784007400F052812D0FA
:1029B000022810D042E03146803103208A6840026C
:1029C0008242C1D0C9688142BED000F075FB40058B
:1029D000400DC719B8E70598A101006A02906F4839
:1029E0000818818B059880B2814227D00298002870
:1029F00024D002990598FFF791FA694902980A686C
:102A0000007C09210902C0065118C00EC96B801C48
:102A100040180290059821210069890108420DD0D3
:102A2000FFF7DAF901283BD01F20029949780842C4
:102A300004D0029840780299001D487058485749C0
:102A40000068203084744820204308803346803357
:102A50005A6B907AC106C90E6001014391729A6B5C
:102A6000917AC906C90E014391720098306500F051
:102A700047F9012816D04A4800682030017D4748B0
:102A8000407A081A316DC000081800E03AE00002F0
:102A90000121000A490641180920C00641600EE0E4
:102AA000FF20C2E70121306D090641180920C00648
:102AB00041603B4800682030017D38484172082C55
:102AC00024D2582044431398241872B61298A1783F
:102AD00000684907C008C000490F08433149084051
:102AE0000099C90008431299086062B6A0784007AF
:102AF000400F03280FD0FFF76FF901280FD0069879
:102B0000C01B19E000200921C906486023490020A4
:102B1000088017B0F0BD03990698401A0CE04034C5
:102B2000208A618A4018FF30C33000F083FA874260
:102B300000D938460699081A0002000AE863A88BF3
:102B40008001FFF739F92968002644181248313806
:102B5000FFF732F9201A0002000A2864104C2E8474
:102B600020684030407E002807D000F0C3FA20687B
:102B70004030417E49084900417620684030407E1F
:102B80000028C6D000F0DAFA20684030417EFD22ED
:102B900011404176BDE7000066020000C000002041
:102BA000B4000020070000F80178407800020843D4
:102BB00070470178427813028278C07812040006C8
:102BC00010431843084370470648016849204001F4
:102BD0000818017A807A814201D9012070470020CB
:102BE00070470000B4000020F8B50D460E490923D7
:102BF00009681B02C918CE6A1F21521E0A431D32E2
:102C000097B20024394600F0BDFA00280AD13946AF
:102C1000B06800F0DFFA044608340068A0600020C5
:102C2000E074A5802046F8BDB400002070B50C46C5
:102C30001F21521E0A430546521C002011044E0D4E
:102C400017D0214608316A1A2846002A01DD082AD1
:102C500003DB202200F0D6FA04E0082208C9521E45
:102C600008C0FBD120352046761E24683604360C79
:102C7000E7D170BD08B56420694608700921C9060E
:102C80006A461078401E10704869C00402D410785B
:102C90000028F5D1107808BDCA6802608A684260D1
:102CA0004A6882600968C160704710B50446803484
:102CB000606C002803D000F0B5FA0020606410BDFD
:102CC0000B497B22096812018A182032927E363124
:102CD0001207120F824206D009780A0705D4490765
:102CE000490F814201D10120704700207047000048
:102CF000B400002002880B8803800A807047704768
:102D000030B41348092203680120C0021818D20603
:102D1000006F11690F4C411A09022588090A2D0715
:102D200002D430BC01207047647A9B6AE400E31847
:102D30008B4209D20123DB05994205D25900084391
:102D4000506030BC0120704730BC0020704700004C
:102D5000B4000020C0000020F1B5B04A7B2110680B
:102D6000090190B0411804914121490145180446D8
:102D7000C034014636310D9100210291A849497AAB
:102D8000C9000C91816A0B91049920310E91897EC2
:102D9000079108297ED2092109024018016B1746C4
:102DA00007985822504308180890079881019C48BA
:102DB0000C3008180A90C07A2E4640360990B08B25
:102DC00000F06AFA39684031098E401880B20390E9
:102DD000E96C039800F06EFAE96C09020F1AB07FF3
:102DE00000F06DFA3818FEF7E7FFA96C41180C984F
:102DF000081A0002000A01901099411A0B98081A4B
:102E000000020121000AC90588427DD20499019877
:102E100048630998FFF7A0F90A99C8720D980078DD
:102E2000C143090706D041070798490F4007400FE3
:102E300081422BD10E980821807E08430D9908709D
:102E4000A86C2060E86C60600198A0600298E06067
:102E5000A86D2061686D6061B08B2083B07FA07623
:102E6000284660300178E176B18CA183318DE18311
:102E7000B18D2184318E6184B18EA184318FE18442
:102E8000C17E2820015584204059E0620D980078C9
:102E9000420700E07BE00799520F4907490F8A4239
:102EA00061D0F72108400D995C4F08704007400F32
:102EB00007900920396800020818016B079858220A
:102EC0005043081804900798810155480C300818A1
:102ED0000A90C07A0990208B00F0DEF93968403101
:102EE000098E401880B203906168039800F0E2F9FF
:102EF000616809020F1AA07E00F0E1F93818FEF7A8
:102F00005BFF2168411800E043E00C98081A0702B3
:102F100010983F0A391A0B98081A00020121000A7A
:102F2000C905884257D2A7600998FFF715F90A9991
:102F3000C87201980899C01B00024979000A9022C2
:102F4000114210D10121C90588420AD30498C17BDE
:102F50000898C07B401C814203D804984079C00681
:102F600001D500F0B3F9E96C039800F04DFA04467E
:102F7000B07F00F051FAA96D20184018072109050B
:102F800008438035A96B0322091DFFF791F811B0A2
:102F9000F0BD0898008F41000A9820300278099807
:102FA000101880B209900898089A0089401C108176
:102FB00008984069421A089842610898C07BFF2827
:102FC00002D2089A401CD073E86C4018E864079855
:102FD00000F02AFAFCE604980A99008F400020319C
:102FE0000A780999511889B209910499049A0989B2
:102FF000491C1181049949690A1A04994A61049982
:10300000C97BFF2902D2049A491CD1736168081850
:103010006060079800F008FA66E70000B40000203E
:10302000C000002008B500216A461180694600F002
:103030005DFA08BD4101401880097047F8B50146A6
:103040001B480922006812028218136B58224A4357
:103050009E18412252018518164A88018718B078B7
:1030600000244007400F052802D0012805D010E0B9
:10307000084600F053FA04460BE02A468032108AD4
:10308000002802D0401E108203E001240846FFF70A
:1030900071F8F07BFF2801D2401CF073002C06D0A1
:1030A0002346324629460020009700F039FAF8BD41
:1030B000B4000020CC00002000210B200007026893
:1030C00052070DD5026804239A4302600268082360
:1030D0001A43026004E0491C052901DD0020704705
:1030E00042689207F7D54168C907FCD0806880B272
:1030F00070477047FEB50F484121006849014418E8
:103100000D4906224118684600F008FDA66BE56BE4
:10311000636B246C00206A46811C175C5F54175C4B
:103120007754175C6F54175C401C67540628F3DB18
:103130000020FEBDB4000020EF0600007CB50E4C60
:103140000E492068062245180D494118684600F0CE
:10315000E5FC296A06226846891CFEF77CFE0921E7
:10316000206809024018016D06226846891CFEF796
:1031700072FE00207CBD0000B400002004090000A5
:10318000EF06000070B5124A092312681B02D2181C
:103190000123D26A83435B00491E41249B184909DD
:1031A000491CC9B272B615798D420ED31E785B7870
:1031B000AD19EDB25B18AB4207D84000135C002498
:1031C0005B1813541079401A107162B6204670BD16
:1031D000B4000020491EC904090E72B602788A4262
:1031E0000CD9511AC9B24A1ED3B203704268880082
:1031F0001058990052580021116000E0002062B67A
:1032000070477047814202D25318984203D300B5E9
:10321000FDF7FCFE00BD521E03D38B5C8354521E8F
:10322000FBD2704718B40168184ACB6813608C68E9
:10323000012354604C6894600968D1604168144A65
:10324000CC6814608C6854604C6894600968D160E4
:1032500064216A4611700922D2066C462178491E03
:1032600021705169C90402D421780029F5D122784E
:103270002270084A8168D4680C6094684C60546875
:103280008C601268CA60037318BC7047180000484D
:1032900028000048380000481FB5054C40071ECCE8
:1032A00003946C460EC4000F6946085A04B010BD62
:1032B000C414051089084143880A401C704703283C
:1032C00002D06320C043704766207047F8B54C4D6C
:1032D000412128684901441826464036B08BFFF743
:1032E000DBFF29684031098E401880B2E16C00F0A4
:1032F0008BF80746B07F00F08FF8A16D38184118A1
:1033000007200005014300913E4A2968881836319C
:1033100000F018FC3F21286849014218917A4B07B8
:10332000014620318E7D5B0F37093F013B4393728D
:103330007207520F8A75334AA831921F801800F025
:1033400006FC2868A16CC0300268A264016028688D
:10335000E16CC4300268E264016028680099CC2204
:103360001150D030A16D0268A26501602868616DBE
:10337000D430026862650160296820465C30D8312B
:1033800000F0EAFB296820465E30DA3100F0DAFB13
:10339000296820466030DB3100F0D4FB29682046E4
:1033A0006430DC3100F0D8FB296820466830DE311B
:1033B00000F0D2FB296820466C30E03100F0CCFBF5
:1033C000296820467030E23100F0C6FB29682046AB
:1033D0007430E43100F0C0FB296820467830E631D3
:1033E00000F0BAFB296820467B30E83100F0AAFBE8
:1033F000296820468430EC3100F0A9FBF8BD0000BC
:10340000B4000020EA0700004143080A292109010D
:103410004843C00A401C7047012801D0014870474A
:10342000002070477A030000FEB503462D483F2771
:103430000268092000021018016B582058430C182C
:103440004120400110181146274E7F019D01D219DD
:10345000AE19927AC03100259A420CD10246403210
:103460001746928E3F8F009784273F58012301977C
:103470007B273F5C07E08A8CCF8C0097CF6A0023C4
:10348000019728277F5C0297A779FF0708D0278933
:10349000D21B1204120C03D12246FEF711FE054680
:1034A000A079810710D522890099891A491C09043D
:1034B000090C09D1FD21084001ABA071314605225C
:1034C00021311846FEF7C7FC002D0AD005480096AA
:1034D00001684120400109182B462246002000F0D7
:1034E0001FF8FEBDB4000020CC00002010B50A4A31
:1034F000830B12688004526A800C140A60435A439A
:103500008009101800228A5E821A10464030C009D5
:10351000C3019A1A0A8010BDB40000200020704731
:10352000FFB506468DB050890690FF480921006816
:1035300009020B904018006B0A9051791D46144601
:10354000480601D4E80757D000200790208F00904C
:10355000A089A3698446A0784007400F05282DD094
:1035600003282BD001200990BF20014061710E99E2
:10357000EF07084640301031002F0AD000223C21CE
:1035800007910E9906920092828394461346828098
:10359000083137270B9A7F01D2195778BF060FD50C
:1035A000D778BF070CD580886246029301920390BA
:1035B000069B079A099800F0D4FA1DE00020D2E794
:1035C0001A030079130C009A67460397049302923A
:1035D0000590486801910002000E00900B98A03001
:1035E0000079C00701D0002000E010208030099B46
:1035F000069A079900F0B6FA0E9F2807C0370028F0
:1036000073DA2069E90301D5162117E0A90301D572
:10361000132113E0290301D528210FE0E90201D588
:103620003D210BE0690201D5222107E0690329D57C
:103630006179090601D4082100E03E210191B97B9E
:10364000582251430A9A8918A14201D10821B9731D
:10365000F97B582251430A9A8918A14201D10821C5
:10366000F97305218902084222D0280420D5208A36
:103670004004AD4800680ED5A0300079C00703D0E3
:10368000002002E01F21D9E710208030069A01991E
:1036900000F0ACFA0CE0A0300079C00701D00020A7
:1036A00000E0102000238030069A019900F0CAFA49
:1036B000206A002801D000F0F3FA002727629A4818
:1036C00067620068A421095CC90701D0002500E0F9
:1036D0001025069903910199022380350591E90689
:1036E00004D50222BF210D4007E01DE01B21890106
:1036F0004118897EC90614D500222907890E0918A8
:103700000120C00208184069294600F0EBFA0100C8
:1037100007D00F71039ACA80059A0A72284600F0F2
:103720003FFB002527618DE1680620D5A078400782
:10373000400F052801D1A1696161002105280BD046
:10374000208BA2890004000D01900092238F80201D
:10375000069A00F039FB75E1606B43890289019399
:103760000092C3888020069A00F02EFB6AE068076A
:1037700023D5802000906C481B21006889014118E6
:10378000C97E0223069F0907CDD5990240180C2255
:103790004069009900F0A6FA0100C4D08F80F27849
:1037A0008A713379727912021A430A81B379F279F4
:1037B00012021A434A81009842E12805800F06D080
:1037C0000E98694631C1684600F034FB3AE157482B
:1037D00005423DD0E80401D5002000E01A20079002
:1037E00006980490F01C029080214F4800910168D7
:1037F0003720400108184278032392061AD58078B2
:10380000000717D50120C00208180E224069009950
:1038100000F068FA059000280CD00799017104990E
:10382000C18008220830029900F078F905990098C3
:1038300000F0B6FAA0784007400F052802D0022811
:1038400003D0FFE00820B873FCE00820F873F9E02B
:10385000680424D5208A4004334800680CD5A03081
:103860000079C00701D0002000E010200021803046
:10387000069A00F0BBF90CE0A0300079C00701D037
:10388000002000E01020012300218030069A00F083
:10389000D9F9A0784007400F0528D3D0D2E02802FC
:1038A0001ED5208A00051AD51F48F1780068A0307F
:1038B0000079C00701D0002000E0102000238030F4
:1038C000069A00F0BFF9A0784007400F052801D103
:1038D0000820B87343212069890288432061B1E040
:1038E0000E992A06803112480091002A2CDA3146BE
:1038F0000D31019102A907910B49169F0968082211
:103900000918F01C2637FEF7A6FAF17A307B082258
:10391000000208430099C88307990198FEF79BFAB3
:1039200004223946019805E0B4000020001000048C
:10393000640900000830FEF78EFA00980299C1630E
:103940000098039901647DE029013ED57149A422C4
:103950000968525CD20701D0002700E01027081840
:103960000390069A00980292C08B0323803705903B
:10397000F80603D50622BF20074009E037204001A2
:103980000818427892065DD58078C0065AD5042280
:103990003807800E41180120C002081840693946D6
:1039A00000F0A0F9049000284CD0001D009002996E
:1039B000018000980822801C039900F0AFF800985D
:1039C00005994181384604993AE0A80209D50820B2
:1039D000B873514800884007400F401C00F02BFA94
:1039E00030E0A8012ED5802001902046403041884B
:1039F0000991018A0891C1880491408A079045483D
:103A000037210068490141184A78069F032392062E
:103A100018D58978490615D50121C9024018062212
:103A20004069019900F05EF901000BD08F80099A7E
:103A3000CA80089A0A81049A4A81079A8A81019861
:103A400000F0AEF9A8060AD5206A016821620021BB
:103A50000160226A002A00D1616200F021F9E806C3
:103A60001AD5FEF7B9F9012852D01F277078B11C7A
:103A70000740E0693A46806800F0DEF9E069C780F7
:103A8000E069002707603178E0698907890F0173D1
:103A9000E06900F0FDF9E761E80137D51698C189C2
:103AA0000120400709184988081801784906CD0FF8
:103AB00007A900F00BFAA1200190A67B07980990B6
:103AC00008980A90134807210068090241180979EB
:103AD0000223C9071AD09902001D40180F2240691D
:103AE000019900F0FFF8040010D02671271D6571C0
:103AF000042209A9A01D00F011F804220AA9B81D8A
:103B000000F00CF82146019800F04AF911B0F0BD20
:103B1000FF27ABE7B4000020C000002010B5040070
:103B2000FDF774FA200010BD10B504000800110064
:103B30000200200000F0D4F9200010BD80B500F094
:103B4000F9F902BD02780B7803700A7070470268B9
:103B50000B6803600A60704702880B8803800A8044
:103B600070477047FFB51F4605230646C1061E482D
:103B700081B0006803D50522BF210E4009E037213E
:103B8000490141184A78920629D58978C90726D073
:103B900003223107890E08180121C9024018406923
:103BA000314600F09FF804001CD002982071039861
:103BB000E08027720A9860722046251D06220A308E
:103BC0000B99FFF7ABFF0C98A8810D98E8810E9830
:103BD00028820F98A8742146304600F0E1F80020B2
:103BE00005B0F0BD0720FBE7B400002070B50E461D
:103BF00001230446C10612481546006803D5042275
:103C0000BF210C4008E01B2189014118C97F09062A
:103C100001D4002070BD02222107890E081801215D
:103C2000C90240184069214600F05CF8010005D047
:103C30000E71CD80204600F0B3F8EAE7072070BD92
:103C4000B4000020F8B51D460F4602230446C10605
:103C500012481646006803D50322BF210C4008E035
:103C60001B2189014118897E090601D40020F8BD75
:103C700001222107890E08180121C9024018406954
:103C8000214600F02FF8010006D00F71CE800D7292
:103C9000204600F085F8E9E70720F8BDB4000020D1
:103CA00070B5C17C0E4D4906490EC174044601230E
:103CB0002868D9024018902600224069314600F059
:103CC00011F8010003D030464C6000F069F849203B
:103CD000296840010918487A401C487270BD0000EC
:103CE000B4000020FFB5044600262C4F83B09C464C
:103CF0000D46080616D572B601AB6A4661462046E7
:103D000000F027F900280BD0684681880098827857
:103D100092089200827001806180012662B615E0EF
:103D200062B621E001AB6A466146204600F011F917
:103D3000002819D0680609D46846818800988278DE
:103D40009208920082700180618001260098AA008A
:103D5000817840238907890F1A40114381700599A2
:103D6000C170002E0ED115E00020009072B6A8069A
:103D70000FD401203968C0020818016808221143D5
:103D8000016062B672B63868F7224030C1791140DE
:103D9000C17162B6009807B0F0BD0000B400002009
:103DA0000A46400608D5D0783A280AD2111D054B9C
:103DB00080001B5810461847907880088000801CAF
:103DC00088707047F8E80410F8B51D460F460323C5
:103DD0000446C10616481646006803D51022BF21C6
:103DE0000C400BE03721490141184A78920602D570
:103DF0008978490701D40020F8BD0D222107890EDA
:103E000008180121C902401840692146FFF76AFFDE
:103E100001000AD00F71CE800D81069A4A81079A5F
:103E20008A812046FFF7BCFFE5E70720F8BD0000C8
:103E3000B400002070477047F8B504460D46501E88
:103E40001F210843401C00041646470D1ED0204683
:103E500008302946421A002A01DD082A03DB202205
:103E6000FFF7D0F904E0082208C9521E08C0FBD1B0
:103E70002035202E01D2304600E02020A080301ACC
:103E80007F1E24683F0486B23F0CE0D1F8BD704726
:103E900070B50D4D044601232868D90240189026BC
:103EA0001A4640693146FFF71DFF010003D0304636
:103EB0004C60FFF775FF4920296840010918087A0E
:103EC000401C087270BD0000B400002010B50B4605
:103ED00001784906CA0F811C184600F070F810BD21
:103EE0001206130A1A43130C1A4300BF094205D0E5
:103EF000830707D00270401C491EF9D170470000AB
:103F00000022FFE71300103906D330B41400150067
:103F100010393CC0FCD230BC490700D30CC000D5DE
:103F200004C0890002D30280801C002900D50270E1
:103F300070477047A446521E08D303780C78401C83
:103F4000491CA342F7D0181B644670470020644602
:103F50007047F0B54488491CA4B2E5B2A40809B280
:103F60001C808EB287883619BE4204D9A6B2891B3E
:103F70006D1C09B2EDB2A4002418083414601C882A
:103F8000AD076418A400AD0F2C43A4B21C800388B5
:103F9000E31A9C07A40F012C02D803D1002B01DDEA
:103FA00000230AE00123002907DA11688C78A408AD
:103FB000A400641C8C70083010601846F0BD70B509
:103FC000044616460D460846FEF7F3FD2060281D00
:103FD000FEF7EAFD31044018606070BD10B5C20004
:103FE00018231340FF249C40E2438907090E99409F
:103FF000030004D55D481B071B0F083B00E05C482D
:104000009B089B00C01803681A401143016010BD53
:10401000FEB501245748017801220A4302700026A8
:1040200055480660032500F0CBF9694608806846CC
:104030000088002801D16D1EF5D16846008820282F
:1040400036DB684600880125400525D4684600F027
:1040500017FA68464178090180780843122800DA87
:1040600000258C480068000705D4002D14D00120DD
:1040700000F062F810E0884FF868884E3168081A3E
:10408000283800020012002806DD002D02D0012091
:1040900000F052F8306838608148047000F057FA38
:1040A000BFF34F8F7F4880490860BFF34F8FFEE713
:1040B0000120FEBD10B500220021A94804E00B003C
:1040C000415C5918491CC9B2435C002BF7D1CB1C89
:1040D000202B12DA0223435421234418637008234F
:1040E000A3704318DA709F4A80235B02401880B2A5
:1040F0001843106010681840FCD110BD70B5002145
:104100000023974A04E01C00D35CE3185B1CDBB27D
:10411000D45C002CF7D102253524DE1C202E05DAD4
:10412000D554D6187470B070D218D1708E4A1570EC
:1041300054709070D17070BD70B5802149028A4B67
:104140009CB20C43874A002804D0146010680840D1
:104150000AD0FBE798789D78FB262E409E7014606D
:1041600014680C40FCD1987070BD00001CED00E09C
:1041700000E400E00800204014000020F3B58BB0FC
:1041800003A800BF82A11C22FCF726FF684600F0AE
:1041900077F9744C01250BA80078002858D003A8A3
:1041A0004421817371490A78012313430B704C2118
:1041B000C17220210172B22141745B2101756C49E9
:1041C0008B6B6C4A1E0C964209D1C67D8F273740F7
:1041D000C775C67D1B0170271F403743C7754B6BE2
:1041E0001E0C964209D14679CF2737404771467950
:1041F0001B0130271F403743477109680B0C93425E
:1042000008D1C27DFC231340C375C27D8907890F85
:104210001143C175C17AFB220A40C27269464A78CD
:1042200012018E781643112E06DDC17D04220A4349
:10423000C275C07DFFF762FF280403A989B201435C
:10424000216021680140FCD1112E01DDFFF732FF12
:10425000164988890028FBD00CA800788D81172288
:104260000A8000224A60002807D060681021626836
:104270000A40102303409A42F9D00BA80078002886
:1042800002D015203C4908703C483D4908600DB0FB
:10429000F0BD0000C000002004000048180000200D
:1042A0000C0000200400FA050CED00E00C001048A2
:1042B00080B508203349088003210120C043FFF75F
:1042C0008DFE03210020C043FFF788FE032100205C
:1042D000FFF784FE03210120FFF780FE0321042065
:1042E000FFF77CFE03210520FFF778FE0021062062
:1042F000FFF774FE03210720FFF770FE03210D2056
:10430000FFF76CFE03210E20FFF768FE03210F204C
:10431000FFF764FE03211120FFF760FE0321122046
:10432000FFF75CFE03211320FFF758FE0321142042
:10433000FFF754FE03211520FFF750FE032116203E
:10434000FFF74CFE03211720FFF748FE0121012053
:10435000FFF714FF0C480D49086062B601BD00006C
:10436000440300200C0000481C00002008002040EE
:10437000B007001055AA00000000C040CCBCECFC07
:10438000140000200400104066000E002000904041
:10439000023F00023E30023C20023B4C023A400207
:1043A00039B202345B02350B00000000304A0129AB
:1043B000116802D108431060704781431160704753
:1043C0002C4802782C4801880020002A44D1092278
:1043D0000A40092A00D1202011220A40112A02D1C4
:1043E00002004020104321220A40212A02D102006B
:1043F0008020104341220A40412A03D1020080203C
:104400004000104381220A40812A03D1020080200B
:1044100080001043FF22921C13000B40934203D1F3
:1044200002008020C0001043144A13000B40934246
:1044300003D1020080200001104305220A40052A12
:1044400002D10200102010438907890F03290ED1E1
:104450000100082008437047022A01D1012070475B
:10446000042A01D102207047082A00D10420704795
:10447000200090400800904008001048010400000F
:104480000F21114A13681B090B4043701368194030
:104490008170D268426001210C4B9A4208D10C4ACB
:1044A00012680C4B9A4201D1042202E0022200E081
:1044B000012202704278002A00D141700649098821
:1044C000491C8900816070471C00904041A0000297
:1044D0001C00001044A000F2140010407FB504003E
:1044E0000D0016006846FFF7CBFF68460178217083
:1044F00041782970807830707FBD7047EFF3148267
:10450000EFF30981002080F31488BFF36F8FF0B5BB
:1045100043464C4655465E466746F8B4164CEFF3A4
:104520000883236006B4154C2068154C2060154C98
:104530002068154C2060154C2068154C2060154CE7
:10454000276800202060BFF34F8F30BF27600A4CE0
:10455000246884F3088882B003BCF8BC9846A1465E
:10456000AA46B346BC46F0BC04BC80F3098881F37C
:104570001488BFF36F8F10470800002004ED00E09F
:10458000BC00002024ED00E06403002000E200E015
:104590006803002008002040F0B5E248412100688F
:1045A0004901E14A441895B082180392DF4A9268A3
:1045B000D3017DD55303DD4A12697AD4D189012014
:1045C0004007091849880E189189091849880F1859
:1045D000307806A905072D0F3046FFF777FCD34842
:1045E0008068002866DA022112A8032D02D0052D6A
:1045F0006AD05FE1CD4DEA78D2065BD501226A71BF
:10460000C84A1268E032127C002A21D008AA117030
:104610000B9003980C9009960FA80E900A970D9492
:10462000104600F085F928712879012842D0012030
:104630000006A8612869018A20468030026A11803C
:10464000018C28690182817A80221143817231E1D3
:1046500004A9304600F06EF9B01C01460A7873795F
:1046600010464A78120210438A78C978120410431F
:104670000906084302023078317A4006C00F02432F
:104680001846B37909061B021843F3791B04184333
:1046900008430102104600F057F90499226891423C
:1046A000C2D1059962689142BED1012806D002E0CC
:1046B0002FE185E07EE0E878400602D500202871F1
:1046C000B5E701202871F5E0984DEA78120771D519
:1046D00000220923DB065A60924A1268E032127CFB
:1046E000002A25D008AA11700B9003980C90099607
:1046F0000FA80E900A970D94104600F019F9287132
:10470000012858D02869009006AB21463046EA6857
:1047100000F046F98349002009682031C87420461A
:10472000C030C17BAA78914244D10821C173C1E055
:1047300004A9304600F0FEF8B01C01460A787379EF
:1047400010464A78120210438A78C978120410433E
:104750000906084302023078317A4006C00F02434E
:104760001846B37909061B021843F3791B04184352
:1047700008430102104600F0E7F80121297104996D
:104780002268914217D105996268914213D101289C
:1047900002D0E87800060ED5E878800607D506989E
:1047A000A168884207D10798E168884203D10020B8
:1047B0002871A7E77EE0A4202969005B088279E0E0
:1047C0005A4B9589A022125B92B2954201D10122E7
:1047D0009A712322520182189279524D012A69D18D
:1047E0001122920183189B7DFF2B63D037214B430D
:1047F0001A18FF3241320394507B002836D1092128
:1048000009022E6813787618376D06462A36BB558E
:104810002E68521C7618376D06465236BB552E68E8
:104820007618376D06467A36BB552E687618376D82
:104830000646A236401CC0B2BB550628E1D3286804
:1048400040224118086D2030037A13430372086D2B
:104850004030037C13430374086D6030037E1343C0
:104860000376086DA0300178114301700398007E33
:10487000012819D11121286889014118897D372221
:1048800051430918FF202F30405C00280CD10398B9
:10489000FF31406B4831083000F0CEF90398802298
:1048A000406B01781143017023212A6800204901DF
:1048B000511888711D480269917A090629D5158A0F
:1048C00023468033998C89B28D4222D12F25198AB3
:1048D0002D5DD57200220925ED066A60FF254A1E6E
:1048E0005535AA4200D81A82002904D101218161DC
:1048F0008078FDF73FFC0B4801680920000208188A
:104900004078002802D00120FDF708FD0120FDF7C6
:1049100005FE06488068400302D52046FEF7C5F92B
:1049200015B0F0BDB4000020040900006C000020A8
:104930001F20704710B50B460178CA09014608319F
:104940001846FFF73CFB10BDF0B4144A2F23126841
:104950005B01D21894461F27202200245208A31876
:10496000DBB2BB4214D2DD0065442E686D682D02B7
:10497000A94203D8A9420BD1B04209D31C46B04288
:1049800006D1A94204D1FF2B04D0F0BC012070470E
:10499000002AE3D1F0BC002070470000B4000020E2
:1049A000FFB50D4606468DB000200921C906169FA9
:1049B0001446486030460E30FEF7FBF80890B17C94
:1049C000F07C0202307D0004104308430A90707DA1
:1049D000079030461630FEF7E7F80C903046183056
:1049E000FEF7E2F8069030461A30FEF7DDF80B903D
:1049F00030461C30FEF7D8F8019030461E30203685
:104A00000090F078C106C90E46090920C006099138
:104A10008068A86400203946E864213105220291AB
:104A20000098FDF718FA0221E1700020222250556B
:104A3000E07306980C22504360610020312210552B
:104A4000019801230001A0612846217140300390A4
:104A5000837106987049400240187049896A814202
:104A600000D208460021686521810B98A081069834
:104A700020870C9842000120921CEA64039A9683D6
:104A8000039A9680A17121612080A06A0080A06AAB
:104A900044802046403001751B26FF21668749313E
:104AA0002A460181C032138A1B2B02D1538A8B42C2
:104AB00001D010230375138BA387E68706804680F9
:104AC0008680C680528B42818181C1810182418270
:104AD000288C5349401C80B2884202D94942401870
:104AE00080B260812884C7200190A16AC872052223
:104AF00002990098FDF7AFF90020F872218D3982F4
:104B0000F8750898B8610A98F86120210998C85585
:104B1000FDF762F98022012800D1BA754220029087
:104B20000590404804902E4610983F498036002852
:104B300039D0B06B0080B26B0198D072308F788220
:104B400010983A4A00682861109840686861079890
:104B50005043FF30F530A865039A0120907708880C
:104B6000334A400712683F23400F5B01D21890720E
:104B70006079C022104360710020B872A078C0082C
:104B8000C000801CA070B26B1B2090720888A16AC4
:104B90004001083088720020C0433082B16B03228C
:104BA000C91D029825E0706B0080736B0198D87264
:104BB000B08E78826079C02318436071BA72A07891
:104BC0001C4DC008C000401DA0700888A16A4001AB
:104BD00019308872716B0A20887200F03BF8716B93
:104BE0000322C91D0298FDF763FA716B0322284660
:104BF000091DFDF75DFA0120FDF790FCA16A032273
:104C0000C91D0598FDF754FAA16A0322091D0498ED
:104C1000FDF74EFA11B0F0BD9AFDFFFF1003002022
:104C2000FF0E0000FA003000C0000020E204000087
:104C3000B40000202C01B0000A7802704B78437059
:104C40008A788270CA78C2700B7903714A7942718E
:104C5000704770470B487B210068090140180A49DA
:104C60000988C36A4907028C090F5A52036BC28B29
:104C70005A52836A428C5A52436A828B5A528169D1
:104C800041607047B4000020C0000020FFB5002044
:104C900099B0239A0B9012900546149006461590F1
:104CA0001C46DB480B460068DA49229F41180391F5
:104CB0000021089109915188069111880A913B21A0
:104CC00049014018007DC00706D00FA9184600F022
:104CD000A5F900280AD102E047201DB0F0BD10AAB6
:104CE0000F991B9800F0B2F9002801D06020F4E77A
:104CF0001998002803D0600701D5012000E00020AA
:104D00001390A007800F1C90109817902030C07847
:104D1000012840D11798C04B01899942F9D11798C1
:104D2000069904680A98228C4118914233D820468B
:104D3000203016908078012816D0E08B04901798C8
:104D4000806900788006800F7ED0039840301890EC
:104D5000007A800778D51C980028F5D0AE4F0F99BF
:104D6000FF372031206814E0BA4214D3B942DDD8AD
:104D70000497E4E70389A84A934203D12322125CF3
:104D8000012A08D0BB4203D12322125C012A03D09E
:104D900000688842EED134E105900028FBD09C48A1
:104DA0000921026809025118496B0027009162E04D
:104DB000780100990390085A01055AD019990029E1
:104DC00001D0884255D105997A008B69511C595CF4
:104DD0009A5C0902891889B20D91890749D002228B
:104DE000059900F042F9002804D01998002840D015
:104DF000652072E7002008A9C8551C98C00718D084
:104E0000179880690078C00613D50D98C00710D098
:104E10000120C8550543009A039880184088159AC8
:104E2000904206D91590009A0398105A0005000D7B
:104E300014901C9880071CD517988069007880060C
:104E400017D50D98800700E083E012D50220CA5DD7
:104E500005430243CA5500990398401840881599A4
:104E6000884206D9159000990398085A0005000D4C
:104E700014907F1CFFB266480068A030037BBB42E1
:104E800096D8002D65D01898007A00065FD4604847
:104E90000168092000020818416B00201BE0420154
:104EA0008E5A360515D0AE070BD556183669B7079A
:104EB0000DD408AF3F5CBF0703D5360701D54620A8
:104EC0000BE7EE0705D05218127CD20701D0432021
:104ED00003E7401CC0B28342E1D81598C01E86B2D9
:104EE0000498864200D90646A8070FD52022002044
:104EF0001499FDF779FE129000287DD0F01C82B243
:104F00000021129800F0D9F8002811D1E80720D02C
:104F1000202200201499FDF767FE0B90002807D08F
:104F2000F01C82B200210B9800F0C7F8002810D0C6
:104F3000802000F0C9F81298002802D0002100F06B
:104F4000CFF80B98002802D0002100F0C9F86420A7
:104F5000C3E6A1690A98069A08182499FEF7DEFDAF
:104F600016988078012801D10498E083002D46D05E
:104F7000274B0920196800020818416B002008AA75
:104F80000CE04301CF5A3F0506D05F18BC463B6991
:104F9000175C3B4367463B61401CC0B21C4B1B681F
:104FA000A0331B7B8342ECD8A8070DD51298009044
:104FB000F01C82B221461C310220A36900F0AEF839
:104FC0000220129900F0C9F8E80718D00B98009059
:104FD000F61C2146B2B21C310120A36900F09EF8F4
:104FE0001398002805D00B988021C07C08430B99AA
:104FF000C87401200B9900E005E000F0AEF8002035
:105000006BE6422069E6802000F05EF89FE7000032
:10501000B40000202C0700000328000010B5094A46
:10502000094B1268D2189368083206E01C8D84423E
:1050300002D100200B6010BD1B689342F6D14120C5
:1050400010BD0000B40000202C07000010B50B6A52
:10505000203106E09C8B844202D10020136010BDF9
:105060001B688B42F6D1412010BDF8B516460D469F
:105070000746002400F098F8002806D0324629465A
:10508000384600F0B7F8044604E020356879002877
:1050900002D00E242046F8BD2879C10701D1012E87
:1050A00009D0810701D4022E03D04007F2D4042E88
:1050B000F0D10324EEE70224ECE710B5121D80685E
:1050C00092B200F0E7F810BD04490A683B2149019B
:1050D00051180A7D02430A7570470000B400002091
:1050E000F8B50E460C4909220968120289180838D9
:1050F0000746CC6A00F004F905463946A06800F07E
:1051000009F972B67100605C401B60542079401947
:10511000207162B6F8BD0000B4000020F8B5069C0E
:105120001F4615460646002C13D0A06802220D30FB
:10513000FEF7F4FCE81E82B23B460721204600F051
:1051400004F9E580A068012E05D01D21017300201F
:10515000F8BD4720F8BD1B21F8E77CB50C46054695
:105160006A4601A900F0FAF8002801D041207CBD70
:105170006846E1888088814200D9E08000980088F4
:10518000A080204600F012F90098012D07D0016997
:105190000822114302229143016100207CBD016974
:1051A00049084900F8E7704770B500281BD003058F
:1051B0000F48002100680D4A1B0DA0301268047BC7
:1051C0000FE008467C267043D56F0830285A00054A
:1051D000000D984203D17C225143681870BD491CD0
:1051E000C9B28C42EDD8002070BD0000B80000208C
:1051F000B400002070B515460C46064600F0ECF8E9
:1052000020346179012D09D00A0702D54207920F97
:105210000FD0CA0625D5020709D522E0CA0702D059
:105220004207920F05D08A0705D5020703D408204C
:1052300070BD052070BD490707D5C00709D0E179C9
:10524000304600F0E0F85F2805D02079C00704D090
:1052500005E00F2070BD0C2070BD022070BD002045
:1052600070BD890607D5C007F3D0E179304600F05C
:10527000CAF85F28EFD02079810701D4022D07D02A
:10528000410701D4042D03D00007E8D4082DE6D14E
:10529000032070BDF7B507461848092100680902C8
:1052A0004018C46A41201646002F11D0384600F03D
:1052B000BAF80546B0420CD2301A81B20198FDF717
:1052C00061FF002804D132463946A06800F0B5F8E5
:1052D000FEBD32463946A06800F0AFF86D1E761E5E
:1052E00069097209891A72B6019A5200A35C5B1AA5
:1052F000A35422795118217162B6FEBDB40000207A
:105300000021002804D0491C0068C9B20028FAD145
:1053100008467047002917D072B60278002A03D0D9
:10532000436892009A58116010B400238B80027871
:10533000521CD2B2027044689200A1500968002940
:10534000F4D162B610BC7047704710B51C461346C6
:105350000A468068214600F0B7F810BDF0B59446C3
:1053600000220A806346104C1A60092322681B023F
:105370008646D2184120526B00230FE05D01AD1824
:105380002F697646374207D06F880E88B74203D917
:105390000F806046056000205B1CDBB22568A035ED
:1053A0002D7B9D42EAD8F0BDB400002010B5044624
:1053B0000146042000F0BCF8002808D00448054944
:1053C0000068401821463C3000F0D8F8432010BD5A
:1053D000B40000202C07000010B50024FFF7E4FE05
:1053E00000280ED00089C10407D50124810401D50D
:1053F000032402E0410400D50524000401D4082060
:105400000443204610BD10B50C46FFF7CDFE002822
:1054100007D0817A002904D0007FA04201D3002068
:1054200010BD5F2010BD0021002804D0491C006879
:10543000C9B20028FAD14801704730B400240B1ECD
:1054400022D02034A4B294421AD30A68002A35D05C
:1054500072B60378002B03D044689B00E3581A60AF
:105460000024948003785B1CDBB2037045689B00CA
:10547000EA501268002AF4D162B6002008601DE0EC
:105480000B4609680029DCD1111B491EC9040A0E0C
:1054900072B6017891420CD9891AC9B24A1ED2B2A9
:1054A00002704068890092004158825800201060C4
:1054B00000E0002162B61960002902D030BC002053
:1054C000704730BC47207047FFB5044650090006BE
:1054D00081B01F46000E06D0002C23D0401E246849
:1054E0000006000EF8D1D606F60E17E02020851B28
:1054F000BD4200D33D46A0192A4608300299FEF766
:105500000DFB0298711940190290781B87B2A08890
:10551000884201D2A819A08024680026002F04D058
:10552000002CE3D1412005B0F0BD002005B0F0BD56
:1055300010B50C460146042805D0052903D00629DC
:1055400001D0502010BDA068A2790272E088020A42
:10555000A0684272A0688172A068090AC172E088DE
:10556000001DE08002202073204600F01DF8002876
:10557000E8D0E088001FE080412010BD10B504464F
:1055800000200860206800280CD060680160084690
:10559000616000F03BF8E17A4018E072A07A401CAC
:1055A000A07210BD2160F2E710B5044600202082F1
:1055B000A074A168A16161612060204600F02CF810
:1055C000452801D0412010BDA088032100F04CF8EF
:1055D0000446FDF775FB002813D072B60A48012275
:1055E00001680920000209184878A2401043487059
:1055F00062B60020FCF792FE002802D00020FCF7E3
:105600008DFF002010BD0000B400002010B58068A0
:10561000FFF776FE10BD704710B504468088032161
:1056200000F022F8022172B6082815D20D4A13683C
:10563000092212029A185823126B5843831CD35C18
:10564000002B09D0002110182160016A002906D022
:10565000416A0C604521446262B6084610BD04628E
:10566000F8E70000B4000020F8B507461F480926F7
:1056700005687B2000012C182846363036023F058D
:1056800084463F0DAE19237D08200022A0350097E7
:10569000B6462D7B0EE0DE0709D07646366B5827DE
:1056A0005743F6197689009FB74200D110465B0830
:1056B000521CD2B29542EED82034A27E1207120FAD
:1056C000824202D1CB0700D10820824207D0624635
:1056D0001278130707D45207520F824203D1C90729
:1056E00000D10820F8BD8907FBD5F8BDB400002023
:1056F000F1B5FFB001248BB0600205900027CC48C3
:1057000007970168CB48C94D081803908A980AAAE0
:105710000005000D05A900F091F90690002872D14E
:1057200004260AA805994218203AD27F0B2A23D0D2
:105730000026002004900AA88119022201A80291E3
:10574000FEF7ECF96846818809AB08AA039800F0D7
:1057500093F9012817D002287ED0684680888542B8
:1057600000D30546844200D920460446029880783A
:10577000012872D013363CE1491E761E360405918D
:10578000360CCFD1D5E708980090002F66D100994C
:10579000022228310298FEF7D1F900281ED1009884
:1057A0002030017B02988078814217D1012808D1EE
:1057B0000098029902220830C91CFEF7BFF90028A0
:1057C00015D002988078022808D1009802991022FA
:1057D0000830C91CFEF7B2F9002808D00098008DE7
:1057E000A84200D80546A04200D2204604460299AD
:1057F0000AA88978012907D013360599B6B28E42D6
:1058000004D3012707E006E1761DF6E7811902229D
:1058100001A8FEF783F90399009808318E462FE01E
:1058200084466946026A8B8820300DE0918B99424C
:1058300003D3012F7ED199427CD9A94200D80D46CD
:10584000A14200D30C4612688242EFD1049800288E
:1058500004D16046006802E015E0BFE08AE07045D0
:105860000ED0018D994203D3012F09D1994207D956
:105870008D4200D30D468C4200D80C46012F59D1E1
:105880007045CDD1BAE008980090002F72D10099F0
:1058900002221C310298FEF751F900281ED100980F
:1058A0002030C17802988078814217D1012808D130
:1058B0000098029902220830C91CFEF73FF900281F
:1058C0001AD002988078022808D1009802991022F4
:1058D0000830C91CFEF732F900280DD00098808BE3
:1058E000A84200D80546A04200D2204604460298AD
:1058F0008078012826D003E002988078012805D01E
:1059000013360798B6B201281ED021E000984A4904
:105910000089884216D18A9800F0CCF80146009898
:1059200000F0E6F80099098C48430099896940180D
:10593000022200E038E00299491DFEF7EFF801204D
:105940000790D4E7761DDCE7B61C0020B6B20790BE
:105950000598864201D3012705E00AA88119022291
:1059600001A8FEF7DBF8039A009908320998096844
:10597000944630E01AE086466A46938820300DE06F
:105980008A8B9A4203D3012F0ED19A420CD9AA4294
:1059900000D81546A24200D3144609688142EFD1CF
:1059A000049800282AD102E00120049026E07046E5
:1059B000006860450FD0028D016A9A4203D3012F1F
:1059C00009D19A4207D9954200D31546944200D88E
:1059D0001446012FE8D16045CDD10FE00298C07880
:1059E000022805D102980079292801D1B61CB6B247
:1059F000761D0598B6B2864200D301270598811B13
:105A0000042902D3864200D293E604980028FBD1F1
:105A1000A54203D906987FB00CB0F0BD22462946B6
:105A20008A9800F08DF80690F5E70000FFFF00006F
:105A3000B40000202C0700000229000070B594B0CB
:105A400015460E466C46FFF7AFFB002812D0417892
:105A50002246C907C90F801C00F096F8002802D022
:105A60005C2014B070BD0FA82A463146023000F009
:105A7000EDF8F6E74020F4E7F0B58468083015E06B
:105A8000258D8D4203D1146018600120F0BD26469B
:105A90001C602036256A06E0AF8B8F4202D10220BF
:105AA0001560F0BD2D68B542F6D124688442E7D177
:105AB0000020F0BD10B50D4900050B680921090251
:105AC00059184A6B0021000DA0331B7B0AE04C01E2
:105AD000145B2405240D844202D14801801810BDB6
