:020000041004E6
:1000000000600020091E0410C91F0410D91F04102D
:10001000AA5555AA45554C420000000000000000BA
:10002000000000000000000000000000E91F0410B4
:100030000000000000000000571C0410ED1F041019
:10004000591C04105B1C041000000000000000009C
:10005000FD1F04105D1C041061200410691C0410B5
:100060000000000000000000000000000000000090
:10007000000000006B1C04106D1C04106F1C0410A9
:10008000000000005F1C0410611C0410631C0410BD
:10009000651C0410671C0410551C0410312004104A
:1000A0000000000000000000000000000000000050
:1000B0000000000000000000000000000000000040
:1000C000EFF31482EFF30981002080F31488BFF36B
:1000D0006F8FF0B543464C4655465E466746F8B4CA
:1000E000164CEFF30883236006B4154C2068154CBA
:1000F0002060154C2068154C2060154C2068154C6C
:100100002060154C276800202060BFF34F8F30BF60
:1001100027600A4C246884F3088882B003BCF8BCCA
:100120009846A146AA46B346BC46F0BC04BC80F340
:10013000098881F31488BFF36F8F104708000020EF
:1001400004ED00E0C404002024ED00E0C004002021
:1001500000E200E0C804002008002040002243081C
:100160008B4274D303098B425FD3030A8B4244D37F
:10017000030B8B4228D3030C8B420DD3FF220902C1
:1001800012BA030C8B4202D31212090265D0030B80
:100190008B4219D300E0090AC30B8B4201D3CB0376
:1001A000C01A5241830B8B4201D38B03C01A5241B8
:1001B000430B8B4201D34B03C01A5241030B8B42BA
:1001C00001D30B03C01A5241C30A8B4201D3CB02A5
:1001D000C01A5241830A8B4201D38B02C01A52418A
:1001E000430A8B4201D34B02C01A5241030A8B428D
:1001F00001D30B02C01A5241CDD2C3098B4201D3A5
:10020000CB01C01A524183098B4201D38B01C01A22
:10021000524143098B4201D34B01C01A5241030999
:100220008B4201D30B01C01A5241C3088B4201D348
:10023000CB00C01A524183088B4201D38B00C01AF5
:10024000524143088B4201D34B00C01A5241411A1C
:1002500000D20146524110467047FFE701B5002029
:1002600000F0F0F802BDC0460029F7D076E77047ED
:1002700003460B437FD4002243088B4274D3030907
:100280008B425FD3030A8B4244D3030B8B4228D3A8
:10029000030C8B420DD3FF22090212BA030C8B42CE
:1002A00002D31212090265D0030B8B4219D300E06E
:1002B000090AC30B8B4201D3CB03C01A5241830BF3
:1002C0008B4201D38B03C01A5241430B8B4201D3A3
:1002D0004B03C01A5241030B8B4201D30B03C01ACC
:1002E0005241C30A8B4201D3CB02C01A5241830A46
:1002F0008B4201D38B02C01A5241430A8B4201D375
:100300004B02C01A5241030A8B4201D30B02C01A9E
:100310005241CDD2C3098B4201D3CB01C01A524105
:1003200083098B4201D38B01C01A524143098B428E
:1003300001D34B01C01A524103098B4201D30B0177
:10034000C01A5241C3088B4201D3CB00C01A52419C
:1003500083088B4201D38B00C01A524143088B4261
:1003600001D34B00C01A5241411A00D201465241FA
:10037000104670475DE0CA0F00D04942031000D319
:100380004042534000229C4603098B422DD3030A6E
:100390008B4212D3FC22890112BA030A8B420CD37E
:1003A000890192118B4208D3890192118B4204D3A7
:1003B00089013AD0921100E08909C3098B4201D327
:1003C000CB01C01A524183098B4201D38B01C01A61
:1003D000524143098B4201D34B01C01A52410309D8
:1003E0008B4201D30B01C01A5241C3088B4201D387
:1003F000CB00C01A524183088B4201D38B00C01A34
:100400005241D9D243088B4201D34B00C01A52410A
:10041000411A00D20146634652415B10104601D397
:100420004042002B00D54942704763465B1000D321
:10043000404201B5002000F005F802BD0029F8D0C7
:1004400016E770477047C046437802781B021A438C
:100450008378C0781B041343000618437047C046D6
:10046000030A4B70030C8B70030E0870CB7070473F
:1004700003005A7800781202024398781979000430
:100480000243D878000610435A7912020A43997938
:1004900009040A43D979090611437047030A5370C6
:1004A000030C9370030ED3700B0A53710B0C9371F2
:1004B0000B0E10701171D3717047C046F8B505006E
:1004C0001600027B4C1E14195242144000886A88A0
:1004D0000F00A4B2904211D3821A0120A2420CDB79
:1004E000AA683000D1183A0000F04BF96888A98852
:1004F0000019FFF7A3FF00206980F8BDA988121A30
:100500008A1AEAE710B50024818044800480826062
:10051000037310BD03884288934202D3981A80B2B5
:10052000704780881818801AF9E7002343800380F9
:10053000704710B54388FFF7C1FF10BDF7B56B4694
:100540009E1D00923180037B01399AB251185242AC
:100550000A405C1C5B421C4097B24388028805003D
:10056000E4B281889A421CD3D31ADB191B190120EB
:100570008B4215DAAB6831009818022200F001F9BD
:100580002888AB68001932881818009900F0F9F82B
:100590002888A988C0190019FFF750FF002029807A
:1005A000FEBD9B1ACB1AE0E710B5037B0139591841
:1005B0005B42194002884388040089B29A420AD3F8
:1005C000D21A01208A4205DB5818A188FFF736FFAE
:1005D0000020618010BD80889A1A821AF1E730B538
:1005E000037B013959185B420B40448801889BB258
:1005F000A14209D3091B0125994203DB0025836829
:100600001C191460280030BD8588611A691AF2E748
:1006100070B50D0016000A0002210400FFF789FFE3
:10062000002808D163882988002B00D1A3883200D4
:100630002000FFF743FF70BD70B50D0002211400CC
:10064000FFF7CDFF002802D123681B882B8070BDE7
:1006500037B56B469D1D2A0002210400FFF769FF94
:10066000002803D129882000FFF79EFF3EBD00002F
:10067000124AD3691B061B0F4370D9B2D369104AC3
:100680001B071B0F83700F4B1B684360934212D1F3
:100690000D4B1A680D4B9A420BD1042303700029AD
:1006A00001D1012343700A4B9B8A01339B00836075
:1006B00070470223F2E70123F0E7C04600009040B4
:1006C00041A00002280090401C00001044A000F24D
:1006D0000000104010B5054C2822210006F063F8F8
:1006E000002323706370A370E37010BD34000020FA
:1006F000002270B51500164B9C1804322560282A7C
:10070000FAD10A0A5A700A0C9A70020A5A71020C3B
:100710009A71020EDA710400082219700D4D090E4B
:10072000D97018712034121AE02109064118A94223
:1007300003D81118066859180E600430A042F3D18E
:10074000BFF34F8F044A054BDA60BFF34F8FFEE7CC
:1007500034000020FF5F00000400FA0500ED00E017
:10076000F0B5070085B001AC0E0020001500FFF7C2
:100770007FFF23783B7063783370A3782B7005B0CC
:10078000F0BD10B506F00FF810BD10B506F026F854
:1007900010BD10B505F0F8FF10BD03207047000034
:1007A000F0B5204C1600A5440E910400EFF3108321
:1007B000079372B600221C4B1A701EF023F9070033
:1007C0002000FFF7EAFF0500200005F01BFE3B1CA0
:1007D000AF4200D92B1CDAB2A24200D9231CD9B2F5
:1007E000C2B2914200D9031CDBB2104A99000193B6
:1007F0008B5801338B50019B002B07D1079B83F350
:1008000010880020A9239B009D44F0BD019B012B73
:1008100010D10021064B1A7A1972D2B230BF1A7267
:10082000ECE7C0465CFDFFFF0C0000201003002039
:100830000000704038226B46E14C9B1826701B78F4
:100840007DA82371FFF714FF237ADE49DBB20B93F7
:100850008B88DD4A9BB2109313685C91119300233F
:100860000994069280A91A000698C0329200805816
:100870009A0001335050082BF5D1D44CD44823684A
:10088000D4491293036AD44F13938023DB051A686B
:10089000D24E14925A68D24D15929A681692DA681E
:1008A00017921A6918925A6919929A691A92DA6912
:1008B0000C92DA6A1B921A6B1C925A6B1D921A8F59
:1008C00092B21E925B6CC74A1F93CB6820930B7F3A
:1008D000DBB221938B8C9BB22293C34B1B78DBB290
:1008E0002393C24B1B78DBB224930B6B2593C04B35
:1008F0001B78DBB226930B8F9BB22793BD4B1B78E3
:10090000DBB22893BC4B9C461B78DBB229933B7827
:10091000DBB22A933378DBB22B932B78DBB22C93A8
:10092000B64B1B78DBB22D9313682E9353682F932D
:10093000137CDBB23093137DDBB23193B04BDB7FA2
:10094000DBB23293138D9BB23393D36A3493138EFD
:100950000591A5499BB25E91A44935935F91A44945
:1009600000236091A349029261916146A44A629179
:10097000A2495D946397649665950F90669167921E
:1009800069AF6BAE6DAD6FAC9E4A9A189204116858
:10099000D95151689951918BE950118CE150908C4B
:1009A00071A9C850108D73A9C850D06A75A9585044
:1009B00011004C31088877A9C850106D79A958509A
:1009C000916D7BAA99500433082BDDD1B0231B060F
:1009D0001B688D4C369363688C4A3793A3688C4EA2
:1009E0003893238A8B4D9BB23993A38A9BB23A9357
:1009F000A3693B93237FDBB23C93238E9BB23D9351
:100A0000636B3E93A36B3F93E36B4093236C4193E3
:100A1000636C4293A36C439393889BB24493138972
:100A20009BB24593137CDBB24693137DDBB24793B5
:100A3000138B9BB24893137FDBB24993764B998813
:100A400089B24A91198989B24B91197CC9B24C91EA
:100A5000197DC9B24D91198B89B24E91197FC9B2D6
:100A60004F91316850917168519129685291287A5B
:100A7000C1B2C02053910001285804930A950392F3
:100A80000023002800D1654B05220D9394460023D6
:100A900090AD88A898A962465A43614FD219576809
:100AA0005F5117681F5097685F50D768A0AA9F5082
:100AB0000433202BEFD18123DB055A6854921A7B33
:100AC000D2B255925A8B92B256921A8B92B25792D8
:100AD0005A6A58929A6A1B8859929BB25A93C023B9
:100AE0001B069B685B93019B032B06D19022C023BE
:100AF000D20551689B050B4353604A4B4A4A1B6819
:100B00001D0008930023503DE9180968D1500433B3
:100B1000502BF9D1454B089A1A60099B18791A781D
:100B20008023DB051B685B0A5340984300D065E6D1
:100B30007DAA537892781B011343112B03DD3C4BA4
:100B4000186001F0DFF89023DB055A68394B01206B
:100B50001A6000F051FEFFF7B3FA002000F04CFEDF
:100B6000354B1B78002B00D0A2E034494B685B0664
:100B700076D4334B33484A6800685C6A844216D1A5
:100B8000314849680068884204D0069942400968A3
:100B900011420CD12D4A596812685140C90006D43F
:100BA0005B685A4053015BD533689B0758D5284A88
:100BB000284813681B09D91C814269D84CE0C046FB
:100BC000000020400000104000E100E020ED00E0C7
:100BD0000000904000003040540030405800304049
:100BE0005C00304000004040280030402C00304085
:100BF0003400304048003040500030406000304009
:100C000005004040281000000000F0400000D040E7
:100C100010E000E0000070400000E04051E5CC1A18
:100C2000080000A000000410700400206C040020E4
:100C300014000020180000200C000020FCE100E05F
:100C400000ED00E0C0040020C8040020C40400201F
:100C500010000048FFFF0F0013681B099942FBD8E2
:100C60007DAA537892781B011343112B05DD0120D7
:100C700001F048F80A4A0B4B1A60019B032B00D085
:100C8000BCE59022D205536807490B405360B5E597
:100C900006495B18116809099942FBD1E0E7C04693
:100CA000CCBCECFC14000020FFFFFFCF0400F0FFE1
:100CB0000123E44FE4493B830023BB813B61C858D7
:100CC000EA1804331060502BF9D1089ADF4B402109
:100CD0001A606A4652185C9B128880A89A80069B0C
:100CE000119A1A6000239A0011581A00069DC0320A
:100CF00092000133A950082BF5D15D9B129A7821FF
:100D00001A600F9B139A6FAD1A628023149ADB0549
:100D10001A60159A5A60169A9A60179ADA601A9AA7
:100D20009A61199A5A61189A1A610C9A9A620C9AE5
:100D3000DA611B9ADA621C9A1A631D9A5A636A4630
:100D4000521812880C311A871F9A5A64059B209AF0
:100D5000DA606A465218059B127804311A776A469F
:100D60005218059B128804319A846A4652185E9B79
:100D7000127804311A706A4652185F9B1278083153
:100D80001A70059B259A1A636A465218609B12785E
:100D900004311A706A465218059B128804311A876A
:100DA0006A465218619B127804311A706A465218CA
:100DB0001278629B04311A706A465218639B12784B
:100DC00004311A706A465218649B127804311A7002
:100DD0006A465218659B127804311A706A46521896
:100DE000669B12780C311A70029B2E9A1A60029B35
:100DF0002F9A5A606A465218029B127804311A746C
:100E00006A465218029B127804311A756A465218C3
:100E1000679B12780431DA776A465218029B12886F
:100E200008311A85029B349ADA626A465218029B8C
:100E300012881A8669AA0023944661460C20844AC7
:100E400059589A189204116068A90918C9580830AD
:100E50005160029168A90918C95A9183595B11849C
:100E600071A9595889B2918473A9595889B21185C9
:100E700075A95958D16277A9595888B211004C31D7
:100E8000088079A9595811657BA95958043391658F
:100E9000082BD2D1B023369A1B061A60519B509A68
:100EA00073600023B3603260379AE4216260389A3D
:100EB0008820A2606A4652181288043122826A464B
:100EC000521812880831A2823B9A4000A2616A46F9
:100ED00052181278043122773E9A052662633F9AAF
:100EE00090ADA263409AE263419A2264429A62649E
:100EF000439AA2646A4652186946128809182286E3
:100F0000039A09880430918069460918039A098870
:100F10000430118169460918039A09780430117464
:100F200069460918039A0978922411754021489A54
:100F300003988A430283684664000019039A007884
:100F40000434107768460019049A008804349080AD
:100F500068460019049A0088043410816846001914
:100F6000049A00780434107468460019049A0078D2
:100F700088AC10754E9A9E208A43049940000A83DB
:100F800069460918049A0978103011770A9A52991B
:100F90001160694609180A9A09781172C0220D98E1
:100FA0000A991201885098A832005A4329495218C8
:100FB000595951601959116019589160A0A959588F
:100FC0000433D160202BEFD18123549ADB05AA2171
:100FD0005A606A4649005218127804311A736A46F8
:100FE0005218128804315A836A46521812880C31FA
:100FF0001A83589A5A62599A9A626A465218128803
:101000001A80C0235B9A1B069A600F9B1B7A002BE9
:1010100043D10E9B002B40D009223B8913409342C1
:1010200004D18023DB05DB699B0533D411223B8986
:101030001340934210D18023DB05DB695B0529D483
:101040000AE0C04600001048700400206C04002034
:1010500028100000080000A021223B891340934281
:1010600004D18023DB05DB691B0513D441223B89B6
:101070001340934204D18023DB05DB69DB0409D4F0
:1010800081223B891340934207D18023DB05DB6932
:101090009B0402D50122214B5A60019B032B05D1F1
:1010A0009022D20553681E490B4053606A462C219A
:1010B0005218099B12781A72019B032B2BD1002026
:1010C0002B3900F0E7FE0B9BDB0701D4FFF796FB03
:1010D00000F0E2F968AB588002331B885B0515D439
:1010E000104B1B881B0711D590220F4BD20511699D
:1010F0001B685B1A1B021B12D9175B184B40202B75
:1011000004DC13692D3311698B42FCD21522074B85
:101110001A70FFF773FB00210800D2E7FCE100E042
:10112000FFFFFFCFC0000020180000200000C040DB
:1011300002680D4B10B51A400C6A8B6823430C698A
:1011400023434C6923438C692343CC6923434C6A72
:1011500023438C6A234313430360CB6843600B68CB
:1011600083604B68C36010BD0F80FFFF00230360E6
:1011700043608360C360036143618361C361036251
:1011800043628362704701230268002902D013433F
:10119000036070479A430260FBE70368002A02D0AD
:1011A0001943016070478B430360FBE7A0231B06D4
:1011B0001B681840431E9841C0B27047A0231B060D
:1011C00058607047024A138ADB07FCD57047C04657
:1011D00000001040084B10B51A68084B9A4209D11C
:1011E0003F22074B40061A81000C2E3A98611A8064
:1011F000FFF7E8FF10BDC04614000020CCBCECFC9B
:1012000000001040084B10B51A68084B9A4209D1EB
:101210003F22074B80081A810C3A986119641A80A2
:10122000FFF7D0FF10BDC04614000020CCBCECFC82
:1012300000001040F7B5019001790468002931D110
:101240008022D2055368A3435360019B20251E686A
:10125000802300226D42DB0534000120D44004428B
:101260000BD0D4B2072A26D897000E30B840DC6ADB
:1012700084430800B8400443DC62013204351A2A72
:10128000EAD1019B5A798023DB05012A3AD1DA6839
:101290003243DA60019A9279012A36D19A6816436C
:1012A0009E60F7BD0629D0D18022D2055368002167
:1012B00023435360C9E72700083F072F08D80F27AB
:1012C000AF401C6BBC430F00AF403C431C63D4E7F2
:1012D000103C072C0AD82F000F20203FB8405C6B31
:1012E00084430800B84004435C63C6E72F000F2026
:1012F000403FB8401C8F84430800B8400443A4B268
:101300001C87BAE7DA68B243C3E79A68B2439A60C7
:10131000C7E7002303600371837143717047202383
:1013200010B5013BC25CCC5C121B01D1002BF8D183
:10133000100010BDC02380211B061A680A431A60E2
:101340001A688A431A607047C02301211B061A6875
:101350000A431A601A688A431A607047C0231B0642
:1013600018688007C00F7047054B01201B78002BC1
:1013700004D1044B1868431E9841C0B27047C04660
:1013800020030020000400C070B5294C90B0060076
:1013900020220D006846210005F005FA21002022D8
:1013A000203108A805F0FFF9012E1DD108A9280059
:1013B000FFF7B5FF1F4B04221978002805DB340026
:1013C0000A431A70200010B070BD91431A4A197078
:1013D00029002B0020311C68581B043384508B4299
:1013E000F9D100241462EDE7022E0FD169462800DE
:1013F000FFF795FF0F4B01241A78002802DB2243E8
:101400001A70DFE7A2431A700C4AE1E70124032EA9
:10141000D8D169462800FFF782FF064B02221978CF
:10142000002801DB0A43EBE791431970044ACFE738
:1014300014F90510200300206C0400C0900400C0C3
:10144000B40400C0030001280FD002280FD00120EF
:10145000032B09D1074B1A00C91A20321878C85437
:1014600001339342FAD100207047034BF3E7034B5B
:10147000F1E7C046B40400C06C0400C0900400C092
:10148000044B1A6A012902D1104318627047824343
:101490001A62FBE700009040274B1A7A274BD2B222
:1014A0001B899BB2002A3CD10920184009384242CE
:1014B0005041112240011A40112A01D12F3210430C
:1014C00021221A40212A01D18022104341221A40B0
:1014D000412A02D180225200104381221A40812ADF
:1014E00002D180229200104302221900FF321140E3
:1014F000914202D18022D20010431900104A1140BB
:10150000914202D180221201104305221A40052A7D
:1015100001D110221043DB439B0701D1082318435C
:1015200070470120022AFBD00018042AF8D0083A9C
:10153000504250418000F3E7000090400000104806
:1015400001040000054B0122196B002802D00A4358
:101550001A63704791431963FBE7C04600003040AF
:10156000F8B54A4C0500236B01681B0700D56DE0F8
:1015700009014748FEF7F2FDC3099AB2A284454A21
:10158000DB0101301340C01A400880B23F2802D965
:101590003F233F381840032760263F4BC0B21870E6
:1015A0003E4B2A7918783A405201B04310431870E4
:1015B00001206979227F39404901B2430A432277E9
:1015C000AA7919780240BA40073081431143197053
:1015D000217F81430A432277EA79002A38D1022108
:1015E0001A788A431A70227F8A43012022772A7A46
:1015F000216B1600C2402A4F064076023940314323
:101600002163216B274E0240314012020A432263BC
:10161000697A226B0E00C140234F06403A40B60360
:1016200032432263226B214E01403240C9031143F1
:101630002163AA7A197802400F30120181431143C5
:101640001970237F83431A432277F8BDC90090E7BE
:10165000022A0CD10420197811431970197881439A
:101660001970217F0A432277227F8243BDE702213E
:101670001A780A431A700422187810431870207FD1
:1016800001432177217F0A43AFE7C0460000304085
:101690000000127A80FF7F00280030402C0030408C
:1016A000FFFDFFFFFFFEFFFFFFBFFFFFFF7FFFFF0D
:1016B000E1235B0203220360002302714271837104
:1016C000C37102724372837270470000044B1A8F19
:1016D000002902D010431887704782431A87FBE71E
:1016E00000003040014B1888C0B270470000304005
:1016F000054B002805DA5B681840431E9841C0B2CC
:1017000070471B8BF8E7C04600003040034B9B8FAF
:101710001840431E9841C0B27047C0460000304098
:10172000014BD8877047C04606003040044B1A78FA
:10173000012902D110431870704782431A70FBE7E9
:1017400048003040014B18607047C04600007040B0
:101750000122044B197A0A431A720222197A0A43A7
:101760001A72704700007040F0B583780178002B42
:1017700033D040784AB28001002A1BDA0F230B4095
:10178000083B1B4A9B089B009B18FF220325170060
:101790000D40ED00AF400240AA40DE69BE43324337
:1017A000DA611F224B0911401E3A8A4011499B0001
:1017B000CA50F0BDFF270F4B92089200D2180323A6
:1017C0003C00C0250B40DB009C4038409840AD00F9
:1017D0005659A64330435051E3E71F234A090B40B3
:1017E000012199401300034A20339B00D150E0E7C8
:1017F00000ED00E000E100E0054B0422196900283B
:1018000002D00A431A61704791431961FBE7C04651
:1018100000ED00E0054B01221968002802D00A43C0
:101820001A60704791431960FBE7C04610E000E082
:1018300010B513F063FE10BD10B50BF017FF10BD0F
:1018400010B50BF0BFFE10BD10B50BF025FF10BD9D
:1018500010B50BF017FF10BD10B50BF0ECFE10BD6E
:1018600010B50BF0D4FE10BD10B50BF0F8FE10BD96
:1018700010B50BF0C8FE10BD10B50FF0FFFC10BD89
:1018800010B50FF0F7F810BD10B50FF0C9FB10BD83
:101890007FB50BAE368808AC09AD2D882488039639
:1018A0000A9E0195029600940FF0D8FD7FBD7FB58A
:1018B00008AC20CC0AAE24783678019402960095C4
:1018C0000FF00EFD04B070BD10B506F0DDFB10BDCD
:1018D00010B511F0B3FB10BD01207047F0B58BB00F
:1018E000089315AB1B7810AC9C462488169B099472
:1018F00012AD11AC13AE14AF24882D8836883F8802
:10190000069363460593099B0497009303960295FB
:101910000194089B05F071F90BB0F0BD37B506AC2A
:1019200007AD2D7824780195009405F091F93EBD1E
:10193000F0B585B00AAC0BAD0CAE24782D783678B6
:101940000D9F029603970195009405F0D6F905B016
:10195000F0BDF0B58DB012AC247809930A9413ACA5
:10196000248818AB1B880B9415AD14AC16AE17AFBA
:1019700024882D8836883F8806930B9B0597019312
:101980000A9B0496009303950294099B04F072FF4E
:101990000DB0F0BD7FB508AC09AD0AAE24882D8826
:1019A000368801950296009405F041F904B070BDA7
:1019B00010B505F0BFF910BD10B505F062F910BD06
:1019C00010B505F05AF910BDF0B58DB012AC247801
:1019D00009930A9413AC248818AB1B880B9415AD9B
:1019E00014AC16AE17AF24882D8836883F8806932E
:1019F0000B9B059701930A9B049600930395029411
:101A0000099B05F042F90DB0F0BD37B506AC07AD46
:101A10002D7824780195009405F061F93EBD10B54C
:101A200004F0CEFF10BDF0B589B007930EAC0FAD3A
:101A300010AE11AF12AB24882D8836883F781B7802
:101A400003970493029601950094079B05F06CFCA4
:101A500009B0F0BDF0B58DB012AC20CC089324785D
:101A600019AB0A9414AC24881B8809950B9416AD05
:101A700015AC17AE18AF24882D8836883F88079399
:101A80000B9B069702930A9B05960193099B04956D
:101A900000930394089B0BF073F90DB0F0BD10B5E3
:101AA0000BF0B7F910BD7FB508AC09AD0AAE2488BC
:101AB0002D8836880195029600940BF024F904B025
:101AC00070BD13B504AC247800940BF089FB16BDEF
:101AD00010B50BF05FFB10BD10B50BF0B9FB10BDDE
:101AE00010B50BF027FB10BD10B505F093FE10BD2F
:101AF00010B514F001F810BD10B511F063F910BD68
:101B000010B510F06FFC10BD10B506F093FA10BDC3
:101B100010B506F097FA10BD10B50CF011FE10BD0F
:101B20000120704710B517F077FC10BD10B517F005
:101B300087F910BD10B517F08FFD10BD10B517F067
:101B4000A6F910BD10B50BF0C5FA10BD10B50BF01D
:101B500011FA10BD10B50BF0C1FB10BD10B50BF0A4
:101B6000F8F910BD10B50FF0C1FD10BD10B50CF0A7
:101B7000C1FB10BD10B510F0A5F810BD10B50FF0E9
:101B800003FE10BD10B50FF0B9FF10BD0120704766
:101B900010B504F0FFFE10BD10B504F0E5FE10BD59
:101BA00010B50BF0B3F910BD10B50BF03BF910BD3B
:101BB00010B50AF09BFF10BD10B519F05FFE10BD07
:101BC00010B519F001FE10BD10B519F0E5FD10BDFE
:101BD00010B519F025FE10BD10B519F0FBFF10BDB2
:101BE0000120704710B51AF07BF810BD10B51AF03F
:101BF0003DF810BD10B518F0FDF810BD10B518F087
:101C000013F910BD10B518F08DF910BD10B518F00E
:101C100083F810BD10B518F097F810BD10B518F086
:101C2000B5F810BD10B518F015F910BD10B518F0C5
:101C30002BF910BD10B517F05FF910BD10B517F0F6
:101C40002FF910BD10B517F030FD10BD10B517F00D
:101C500027FC10BD7047704770477047704770474A
:101C600070477047704770477047704770477047BC
:101C7000002210B5104B995CC9B2002917D11C2A5B
:101C800014DC022021249854501C1C54901C193C34
:101C90001C54D01C19549B18802290219BB25202D4
:101CA0001343C905CB60CB681342FCD110BD995CCE
:101CB00001315218D2B2DEE721030020002330B5F3
:101CC0000E4AD15CC9B2002913D11C2B08DC0224B6
:101CD0003525D4545C1C15559C1C03331055D15428
:101CE0000222074B1A7033325A7000229870DA7051
:101CF00030BDD15C01315B18DBB2E2E7210300208B
:101D00001C00002010B5104B00280AD08022902122
:101D10009BB252021343C905CB60CB681342FCD17E
:101D200010BD042198789A789CB28A439A708022D8
:101D3000902152021443C905C0B2CC60CC68144251
:101D4000FCD19870ECE7C0461C000020012330B5A0
:101D5000264A0324117A85B00B4313720022244BC8
:101D60001A60FFF799FB6B46023318801A88002A25
:101D700003D1013CE4B2002CF3D11A881F2A32D9D6
:101D80001B885B0510D401AC2000FEF771FC627863
:101D9000A37812011A43174B1B681B0711D4112A91
:101DA00002DD0120FFF7AEFF0122134B1A70FEF790
:101DB000B0F9BFF34F8F114A114BDA60BFF34F8F69
:101DC000FEE790250F4CED0528692368283B1B1A78
:101DD0001B02002BE8DD112A02DD0120FFF792FF34
:101DE00023686B60E0E7012005B030BD00002040B3
:101DF00014000020C00000200C0000200400FA05A0
:101E000000ED00E01800002070B5FFF79FFF0128EB
:101E100017D1002314481549154C1A188A4216D3B5
:101E2000002314481449154C1A188A4213D3002170
:101E3000134B144A934212D30021134B134A93427B
:101E40000FD3134B83F3088804F010F970BDE558E5
:101E500004331560E1E7E55804331560E4E702C395
:101E6000E8E702C3EBE7C046180D0020C00D0020D4
:101E7000D00106100800002034000020A401061044
:101E8000C0000020CC020020CC020020180D002051
:101E90000060002070B58AB003AC05000E00192266
:101EA0003F49200004F07FFC6846FEF7E1FB002D6F
:101EB00058D044233B4AA373117A433B0B4313721C
:101EC000394B3A4A1B68190C914208D17020E17DC8
:101ED0001B018143E175E17D03400B43E375344B06
:101EE0001B68190C914208D1302061791B01814394
:101EF0006171617903400B4363712E4B1B68190CB0
:101F0000914207D10321E27D0B408A43E275E27DD5
:101F10001343E3750422E37A69469343E3726B4605
:101F20005B78897893400B43112B06DDE37D1A43E0
:101F3000E275E07DC0B2FFF7C1FE80239022240449
:101F4000240C5B021C43D205D460D1681942FCD139
:101F50006B466A465B7892781B011343112B01DDB7
:101F6000FFF786FE144B1A8B002AFCD001221A833D
:101F700016329A8100221A61964207D090231021CE
:101F8000DB0518691A6942400A42FBD0002D02D0D5
:101F900015220A4B1A700A4A0A4B1A600AB070BD21
:101FA00054F9051000002040E807001055AA000071
:101FB000E4070010B0070010000010480000C04007
:101FC000CCBCECFC14000020EFF308800149FEF7C4
:101FD0008FFBFEE70100ECBCEFF308800149FEF740
:101FE00087FBFEE70200ECBC70470000024A136862
:101FF000013313607047C0466804002007B5102005
:10200000FFF784FB002808D12030FFF77FFB002872
:1020100002D02020FFF784FB07BDFFF763FB6B4670
:10202000D87107330121180004F0C8F8E7E7000071
:1020300010B52020FFF7BAF800280CD02020FFF7B9
:10204000BDF800220121044B1A70044A13688B4327
:10205000136004F05FFB10BD550400201C0000A0BD
:1020600010B50CF0DBF9024A13680133136010BDA0
:10207000440300207FB50822664B674D9A8067496C
:102080000632280004F08FFB2B78FF2B0CD1E97867
:10209000AB7809061B0419436B7860481B0219438F
:1020A00000232B70FFF7AEF801AE3000FEF7E0FA28
:1020B0002B785B4C002B11D14433A3736B78002B2E
:1020C0000ED15B332375AB78002B0BD0012B10D0D6
:1020D0004C23E3722C3B2372923308E04023ECE75D
:1020E0001B23EFE74C23E3720C3B23727E336374B4
:1020F00001E06C23E3726B7B022B00D180E0032BA9
:1021000000D181E0012B00D082E03633A370033B85
:102110006371444B444A1B68190C914208D17020EA
:10212000E17D1B018143E175E17D03400B43E375D4
:102130003E4B1B68190C914208D1302061791B017C
:1021400081436171617903400B436371384B1B68B4
:10215000190C914207D10321E27D0B408A43E275BD
:10216000E27D1343E3750422E37A9343E3727378C9
:10217000B17893400B43112B06DDE37D1A43E275E2
:10218000E07DC0B2FFF79AFD2B78002B04D1294ADD
:102190000133117A0B43137280239022A4B25B02A5
:1021A0001C43D205D460D1681942FCD13000FEF73F
:1021B0005FFA7378B2781B011343112B01DDFFF72F
:1021C00057FD1D4B1A8B002AFCD001221A831632B0
:1021D0009A81002210211A61184B18681A6842402F
:1021E0000A42FBD02B78002B02D11522144B1A7017
:1021F000144B154A1A60154A154B1A6262B67FBD18
:102200000423A370303383E73823A370043B7FE7B4
:102210000023F6E700001040CC04002000F907106E
:10222000A40D0020E807001055AA0000E4070010E4
:10223000B0070010000020400000104810000048C7
:102240000000C04014000020CCBCECFC66000E0076
:102250000000904010B51E4B1E48997A5A7A090228
:102260001143DA7A120411431A7B12060A431A49FF
:102270008A4201D9012252428262DA7999791202A4
:102280000A4316498A4201D1FA22520082851A7AFB
:10229000FF2A15D1020000212E3211700200597858
:1022A0002F3211701A795B791B021343C8229200F6
:1022B000934209D9028605F08FF8002806D0FEE780
:1022C00001002E310A70E9E70386F4E710BDC0462D
:1022D000CC040020700D0020B0031900FFFF0000A7
:1022E000F7B50600140000206A46D51DD071092BF1
:1022F0001ED9B0787378000218432A00F1780BF0E9
:10230000E0F8A071B37872781B021343E3711B0AE3
:1023100023722B780A206372042323700A336370BC
:10232000073BA370063BE3702C332371213B6371A1
:10233000FEBDF0B5122789B0002014006A466F4434
:102340001073D0815073108238800E2B3ED90D222D
:102350000E2104AB6A446944009703A80BF05CF8B3
:1023600005AEA0713000FEF783F96B460F2071783F
:10237000DB89090303400B43F021B2780901120203
:102380000A40FF211343327812010A4013439BB2E3
:1023900023721B0A63726B465B7B6A46A3726B46B1
:1023A0001B7C127BE3726B465B7CE27123733B7890
:1023B00063737B78A373042323700A336370023B37
:1023C000A3700B3BE37023711B18637109B0F0BD60
:1023D000F7B50600140000206A46D51DD071092B00
:1023E0001DD9B07873780002184329000BF05EF80D
:1023F000A071B37872781B021343E3711B0A237236
:102400002B780A206372042323700A336370073B1E
:10241000A370063BE370043323710F336371FEBD79
:1024200073B5002014006A46951DD080561D50716A
:10243000092B17D9310028000AF048FD2B78A0712C
:10244000E3716B780A20237233786372042323705C
:102450000A336370073BA370063BE37001332371BB
:102460001E33637176BD37B5140000206A46D51D52
:10247000D071072B12D928000AF024FD2B78A07107
:10248000E3710423082023700A336370093BA370AF
:10249000043BE37006332371193363713EBD37B5D6
:1024A000140000206A46D51DD071072B12D92800D0
:1024B0000AF069FD2B78A071E371042308202370D2
:1024C0000A336370093BA370043BE3700E3323713E
:1024D000113363713EBD37B5140000206A46951D67
:1024E000D080082B14D928000AF0C0FE2B78A071E8
:1024F000E3716B7809202372042323700A3363701D
:10250000083BA370053BE3701E33237101336371F5
:102510003EBD73B5002014006A4601AE3080951DA3
:10252000D0800A2B19D929003000FFF70FFB337830
:10253000A071E37173780B2023722B7863726B7830
:10254000A372042323700A336370063BA370073B16
:10255000E37022332371033B637176BD37B51400FA
:1025600000206A46D51DD071072B12D92800FFF72D
:102570007BF92B78A071E3710423082023700A33C0
:102580006370093BA370043BE370293323710A3B5A
:1025900063713EBDF7B5002014006A4601AE10809D
:1025A000971C50803080951DD0800E2B25D92B0094
:1025B000320039006846FFF7D1FA6B461B78A071EC
:1025C000E3716B465B780F2023723B7863727B78F4
:1025D000A3723378E372737823732B7863736B7809
:1025E000A373042323700A336370023BA3700B3B75
:1025F000E3702E3323710F3B6371FEBD73B514007E
:1026000000256A46961DD580082B13D9300004F0AA
:10261000BFFD33782571E3717378A07123720423B1
:1026200023700A336370083BA370053BE370FB33F0
:1026300063710935280076BDF0B58DB022211700F1
:102640006A460020521810706A4601315218107004
:102650006A460131521810706A46013152181070E2
:102660006A460131521810706A46013152181070D2
:102670006A460131521810702A266A462E2401310A
:102680006E4452180BAD6C4430801070288020804E
:10269000142B55D90AAB039327236B4402932623AB
:1026A0006B44019325230639223004926B4409AA16
:1026B0006944069405950096684403F077FC22214E
:1026C0006A46521812780131FA716A465218127825
:1026D00001313A726A465218127801317A726A46AA
:1026E000521812780131BA7232782B78FA727278F5
:1026F0007B743A736A465218127801317A736A46CB
:10270000521812786B78BA736A460131BB74237819
:1027100052181278FB746378FA733B756A46042387
:10272000B871152001313B7052180A3312787B7052
:102730000433BB70113B3A74FB703B71FB337B710C
:102740000DB0F0BDF0B5C3B01D006B46DF1D00231A
:1027500014003B70062D02D8002043B0F0BD407835
:1027600002AA390004F026FDA071072DF4D03A78B2
:1027700013000833E2719D42EED3200002A9083015
:10278000FDF7FFFF0423E07923700A336370431DD4
:10279000A3700123E3700C332371EF3363710830AE
:1027A000DBE737B50020140001900A2B1FD901ADDB
:1027B000280004F0F3FC2A780423E2716A4605320B
:1027C0001278A07122726A46063212780B20627269
:1027D0006A4623700A336370063B0732A370073BD7
:1027E0001278E37013332371E833A27263713EBD34
:1027F00037B500201400009001900E2B2FD901ADA9
:10280000290068460AF024FA6A4612780423E27125
:102810006A4601321278A07122726A460232127838
:102820000F2062726A46033212782370A2722A78ED
:102830000A33E2726A4605321278637022736A467E
:1028400006321278023B62736A46A37007320B3B72
:102850001278E37018332371E333A27363713EBDC2
:10286000F0B506008DB014000020062B3FD9377A52
:1028700070783B000933F31808931B78B2799C46B3
:102880003B0009927279317912020A430A92F17877
:10289000B2780A330902114363440B91F3189A7812
:1028A000751C1100DA78093612020A4306921A786A
:1028B0005B7802961B021A43089B0592013304932E
:1028C000634601970393AB790A9A00930B99099B8E
:1028D00004F03CF904230F22E07007202370A3705A
:1028E000033B2371813363717A336270A3710DB03E
:1028F000F0BDF0B506008DB014000020062B3FD9C6
:10290000377A70783B000933F31808931B78B27953
:102910009C463B0009927279317912020A430A926D
:10292000F178B2780A330902114363440B91F3182A
:102930009A78751C1100DA78093612020A43069259
:102940001A785B7802961B021A43089B05920133A2
:102950000493634601970393AB790A9A00930B990A
:10296000099B04F0B9F804230E22A07107202370FC
:10297000A370033BE3708233237179336270637118
:102980000DB0F0BDF0B50A270E251400002285B069
:102990006F4403AE6D443A8032802A800C2B21D9DB
:1029A000C27881783B0040780195009603F0B4FF2F
:1029B0003B780D22E3717B78A071237233786372C8
:1029C0007378A3722B78E3726B78237304232370DC
:1029D0000A336370043BA370093BE37089332371AE
:1029E00072336371100005B0F0BD73B514006A4610
:1029F0006946961D0022CD1D3270CA71082B19D967
:102A0000437880782A0000021843310003F07FFFEA
:102A1000042332782370E2712A780A332272092261
:102A20006370083BA370053BE3708F3323716C33F5
:102A3000A0716371100076BDF0B50500C7B0140039
:102A40000020062B34D91526EB7904900833EB18B7
:102A5000059302ABF618059B9F1C059B049A1B78F7
:102A60009A4227DB6A79AF7904922979E8780902DA
:102A7000014368786E1C84466246A87808350002D7
:102A8000104307AA039202930195B379049A009325
:102A90003B0003F0EFFF04230E22A07107202370F8
:102AA000A370033BE370A03323715B3362706371E7
:102AB00047B0F0BD7A1E1278731E1A7039003000CC
:102AC0000622FDF75EFE049B0736013304930737A9
:102AD000C3E7F0B50027C3B01E0002ABDD1C140035
:102AE0002F70062E02D8002043B0F0BD03A92800A5
:102AF00003F0F9FEA071072EF5D002202A78E271CA
:102B00002B789F420EDB042323700A336370C31CAF
:102B1000A3700123E370A23323710630593363712C
:102B200080B2E1E7C31D01939E42DCD303A9821E5C
:102B30008A5C23189A7103000C339E42D3DD019BFB
:102B4000013809180622E018FDF71BFE013701982D
:102B5000D6E7F0B50E278DB00F26039000201400A5
:102B600002AABF18B618387030701F2B29D9039BE2
:102B700006AA587808AB00933900330003F0BDFE75
:102B8000A07120003B780622E37106A90830FDF70A
:102B9000F8FD2000039B10305B781022A37333787C
:102BA00008A9E373FDF7EDFD0423202023700A3309
:102BB00063700F33A3701C3BE370A633237155334E
:102BC00063710DB0F0BDF0B50500C3B01400002076
:102BD000062B1ED96B78EF1C019302AB5E1D009093
:102BE0006878009B834216DB0726019B03A9734389
:102BF000ED18AA78FEF71CFE04230E22A071300007
:102C00002370A370033BE370A833237153336270C6
:102C1000637143B0F0BD7A1E1278731E1A703900CA
:102C200030000622FDF7ADFD009B0736013300930F
:102C30000737D5E7F0B54578140089B01A000700CA
:102C40000423012D03D00E33022D00D0103B0E269D
:102C500000206E443080082A24D9B91C0222012D9C
:102C600003D0023D6A426A411201FD1804A8FDF733
:102C700088FD6B782A78787804A9009604F02EF9FC
:102C80003378A071E37173780920237204232370D1
:102C90000A336370083BA370053BE3700133237173
:102CA000FB33637109B0F0BDF0B50E2506000020BE
:102CB0008BB0140002AAAD182880082B35D931003A
:102CC000F37908310222012B03D0023B5A425A41C8
:102CD000120106AF3800FDF754FDF379701C039321
:102CE000B279717912020A43F17840788C466346D2
:102CF000317976780902000219433043039B01952C
:102D0000009704F05AF92B78A071E3716B780920D1
:102D10002372042323700A336370083BA370053BBE
:102D2000E37002332371FA3363710BB0F0BDF0B579
:102D300015000622471CBC788DB006009446012C75
:102D400005D00E329446022C01D0103A94461E2231
:102D500000206A441080082B36D9311D0222012C34
:102D600003D0023C624262411201634608A8F41893
:102D7000FDF707FD637822781B02134372781E2645
:102D800078786E44B978000205961043A2790492CF
:102D90006279039222790292E2780192A2780092FB
:102DA00008AA04F054F833780E22EB717378A871F6
:102DB0002B72042309206A70083A2B70AA702B71B9
:102DC000053AF933EA706B710DB0F0BDF0B5447996
:102DD00093B00700150019000826012C03D00E3609
:102DE000022C00D0103EBE190920012C03D00E3059
:102DF000022C00D01038737802AA0B932E239B1854
:102E000000221A800022082941D9B91D0232012C62
:102E100003D0023C6242624112010B9C013424182F
:102E20000EA8FDF7AEFC3979F8787B1C0902014346
:102E300058787A793C197F78000238432E2702AB04
:102E4000FF18089723790793E3780693A3780593EF
:102E50006378049323780393B31C029373780193EC
:102E6000337800930EAB04F011F83B780922EB7134
:102E70007B78A8712B7204232B700A336B70083B8C
:102E8000AB70053BEB7004332B71F8336B711000A2
:102E900013B0F0BDF0B5C5B014001D006A460023A4
:102EA00003AE3380D381062D02D8002045B0F0BD9B
:102EB0008279417912020A430179C77804AB090289
:102EC00039434778807801930E2300026B440093C6
:102ED0003843330004F094F8A071082DE5D9337815
:102EE000E371737823720A2DDFD96B46DA89130AEE
:102EF000A37213000B3362729D42D6D3200004A943
:102F00000B30FDF73EFCA07A637A000218430423DD
:102F100023700A33637003000833A3700123E37046
:102F2000293323710B30D333637180B2BEE710B500
:102F300014000022062B12D94278C1788078000252
:102F4000104309F0BFFE0F22042362700E3A227173
:102F500005326271E0702370A370A371013210001A
:102F600010BD10B514000022062B11D943788078CB
:102F7000000218430AF062FA0F22042362700E3A2C
:102F800022711C326271E0702370A370A371163A33
:102F9000100010BD10B514000022062B0ED9013010
:102FA0000AF0DAFA04230E222370A370033BE370C5
:102FB00023710B336270A0716371073A100010BD6A
:102FC00010B500201400062B0ED90AF08AFA04234B
:102FD0000E22A07107202370A370033BE37002331D
:102FE000237109336270637110BD10B5002090B079
:102FF0001400462B15D968460AF0BCF94022A0718E
:103000006946E01DFDF7BDFB0423472023700A330A
:1030100063703633A370433BE370013323710E3387
:10302000637110B010BD13B5140000200E2B15D91C
:1030300068460AF0E6F90822A0716946E01DFDF72E
:10304000A0FB04230F2023700A336370023BA3709C
:103050000B3BE370023323710D33637116BD13B55F
:10306000140000200C2B15D968460AF077F90622C7
:10307000A0716946E01DFDF784FB04230D20237039
:103080000A336370043BA370093BE3700833237178
:103090000733637116BD10B514000022062B0ED93C
:1030A00001300AF027F804230E222370A370033B9B
:1030B000E37023711F336270A0716371073A1000CF
:1030C00010BD13B5140000200E2B15D9684609F069
:1030D0003BFF0822A0716946E01DFDF752FB042367
:1030E0000F2023700A336370023BA3700B3BE37025
:1030F000023323711D33637116BD10B51400002215
:10310000062B0FD901300AF019F804230E22237080
:10311000A370033BE370043323711B336270A0710F
:103120006371073A100010BDF0B5070085B01500B7
:103130000020062B22D93979F878BE78090201439C
:10314000787836020643F87BBB797A790390B87BAE
:103150007C1C083702900197A0790090300009F09C
:103160006DFF04230E22A87107202B70AB70033B68
:10317000EB7005332B711A336A706B7105B0F0BDBB
:1031800010B514000022062B10D9811C407809F0DC
:1031900049FF04230E222370A370033BE37007331F
:1031A000237118336270A0716371073A100010BD6B
:1031B00010B514000022062B10D9811C40780AF0AB
:1031C0003BF804230E222370A370033BE370083303
:1031D000237117336270A0716371073A100010BD3C
:1031E00010B514000022062B0FD9407809F0FAFE22
:1031F00004230E222370A370033BE3700933237171
:1032000016336270A0716371073A100010BD73B578
:1032100014000022062B1BD94279017912020A43BD
:10322000451CC1788678AD790902837931434078AD
:103230000095FEF746FC04230E222370A370033B87
:10324000E3700A33237115336270A0716371073A1A
:10325000100076BD10B514000022062B10D981781D
:103260004078FEF735FC04230E222370A370033B45
:10327000E3700B33237114336270A0716371073AEA
:10328000100010BDF0B507008BB015000020062B14
:1032900040D97C1C637966780993E178A0780902AB
:1032A0000143787836020643E07D227984466346FE
:1032B000207E0737000218430790A07D637D00023F
:1032C00018430690207DE37C000218430590A07C03
:1032D000637C000218430490207CE37B00021843C7
:1032E0000390A07B637B000218430290207B099B24
:1032F000019000973000FEF7ADFB04230F22E87029
:1033000007202B70AB70033B2B710C336B711333A5
:103310006A70AB710BB0F0BD10B500201400062B25
:103320000DD9FEF7BCFB04220E23A07107202270EA
:103330006370A2702371033A1233E270637110BD9F
:1033400010B500201400062B0ED909F0D8FC042378
:103350000E22A07107202370A370033BE3700F338C
:10336000237110336270637110BD10B51400002218
:10337000062B10D9811C407809F0A8FC04230E22EA
:103380002370A370033BE370103323710F3362701B
:10339000A0716371073A100010BD10B5140000222F
:1033A000062B10D9811C407809F00AFE04230E2256
:1033B0002370A370033BE370113323719B18627079
:1033C000A0716371073A100010BDF0B5150085B00B
:1033D0000022062B2ED9037AC2791B02134382796D
:1033E000417912020A430179C6780902441C31432B
:1033F00046788078277B00023043667B36023E4366
:103400000296E67AA77A36023E430196267A647AD5
:10341000240234430094FEF746FB04230F222B7052
:10342000AB70033B2B7112336B710D336A70E87014
:10343000AB71083A100005B0F0BD10B514000022C1
:10344000062B0FD90130FEF74BFB04230E2223700D
:10345000A370033BE370133323710C336270A071CC
:103460006371073A100010BD73B505001400002009
:103470000D2B20D9A8786B7800021843694609F013
:1034800041FDA0712000AB786A781B021343E37101
:103490001B0A2372093005226946FDF772F90423DD
:1034A0000E2023700733A3700A3BE370143323719B
:1034B0000B336070637176BD10B514000022062BCB
:1034C00012D9437880780002184309F047FD04239D
:1034D0000F222370A370033B2371153363710A33EA
:1034E0006270E070A371083A100010BD1FB50100B2
:1034F00014000020162B16D9481C6A46113109F019
:103500008CFC1022A0716946E01DFDF73AF90423F6
:10351000172023700A3363700633A370133BE370E4
:103520001F332071637104B010BD13B51400002067
:103530000E2B15D9684609F0C1FC0822A071694616
:10354000E01DFDF71EF904230F2023700A3363707A
:10355000023BA3700B3BE370173323710833637195
:1035600016BD70B514000022062B19D90300027B8A
:10357000C17A12020A434678C11C80780D330002DA
:103580003043FEF7A9FA04230F222370A370033BF4
:1035900023711833637107336270E070A371083AC6
:1035A000100070BD70B5050014000020082B1BD959
:1035B000A8786B7800021843E91C09F071FCA0712F
:1035C000AB786A781B021343E3711B0A237204234E
:1035D000092023700A336370083BA370053BE37036
:1035E000193323710633637170BD70B50500140083
:1035F0000020082B1AD9A8786B780002184309F02C
:1036000056FCA071AB786A781B021343E3711B0A66
:1036100023720423092023700A336370083BA370CC
:10362000053BE3701A3323710533637170BD13B525
:10363000140000200E2B15D9684609F09FFC0822C3
:10364000A0716946E01DFDF79CF804230F2023704C
:103650000A336370023BA3700B3BE3701B3323718F
:103660000433637116BD10B514000022062B0FD968
:10367000407809F08FFC04230E222370A370033BD3
:10368000E3701C33237103336270A0716371073AD6
:10369000100010BD10B514000022062B11D9C278FD
:1036A0008178407809F0F4FD04230E222370A37082
:1036B000033BE3701D33237102336270A0716371A9
:1036C000073A100010BD70B5060014000020082B4A
:1036D00022D9B2797379317912021A43F378B0782A
:1036E00009021943737800021843FEF72BFAA07100
:1036F000B37872781B021343E3711B0A237204230D
:10370000092023700A336370083BA370053BE37004
:1037100021332371023B637170BD10B51400002288
:10372000062B16D90179C2780902114342788078B4
:1037300000021043FEF70EFA04230E222370A3703A
:10374000033BE37023332371043B6270A071637108
:10375000073A100010BD10B500201400062B0ED93A
:10376000FEF71EFA04230F22E07007202370A370D7
:10377000033B237124336371053B6270A37110BD59
:1037800010B514000022062B0FD90130FEF70CFAF9
:1037900004230F222370A370033B2371253363712D
:1037A000063B6270E070A371083A100010BD10B5BE
:1037B00014000022062B14D903000200183308322B
:1037C000811C4078FEF73CF804230E222370A3707E
:1037D000033BE37026332371073B6270A071637172
:1037E000073A100010BD10B514000022062B10D9A6
:1037F000811C4078FEF720F804230E222370A3706A
:10380000033BE37027332371083B6270A07163713F
:10381000073A100010BD10B500201400062B0ED979
:10382000FEF726F804230E22A07107202370A37050
:10383000033BE37028332371093B6270637110BD51
:1038400013B5140000220C2B17D9811C6A4640784E
:10385000FEF702F80622A0716946E01DFCF791FF11
:1038600004230D2223700A336370043BA370093BC9
:10387000E3702A3323710B3B6371100016BD13B53F
:10388000140000220C2B17D9811C6A464078FDF7E2
:10389000E7FF0622A0716946E01DFCF772FF0423D2
:1038A0000D2223700A336370043BA370093BE3705D
:1038B0002B3323710C3B6371100016BD10B514003F
:1038C0000022062B0FD94078FDF7C2FF04230E22F9
:1038D0002370A370033BE3702C3323710D3B6270A4
:1038E000A0716371073A100010BD10B514000022DA
:1038F000062B12D94378807800021843FDF7A4FF05
:1039000004230E222370A370033BE3702D33237135
:103910000E3B6270A0716371073A100010BD10B5C4
:1039200014000022062B11D9C21C8178407803F0C4
:10393000EBFC04230E222370A370033BE3700B33D4
:103940002371F0336270A0716371073A100010BDEB
:1039500010B514000022062B10D98178407803F0AE
:103960003DFC04230E222370A370033BE3709B18DD
:103970002371ED336270A0716371073A100010BDBE
:1039800010B514000022062B10D98178407803F07E
:1039900029FC04230E222370A370033BE37014332D
:1039A0002371E7336270A0716371073A100010BD94
:1039B00010B500201400062B0ED903F083FC04235D
:1039C0000E22A07107202370A370033BE370153310
:1039D0002371E6336270637110BD10B5002086B0AC
:1039E00014001E2B1CD902A968460FF0B9FB08224F
:1039F000A0716946E01DFCF7C4FE200010220F30C4
:103A000002A9FCF7BEFE04231F2023700A33637053
:103A10000E33A3701B3BE37016332371E5336371E0
:103A200006B010BD10B514000022062B12D9437841
:103A300080780002184308F08FFF04230E222370C1
:103A4000A370033BE37017332371E4336270A071FA
:103A50006371073A100010BD10B514000022062B48
:103A600019D9421C537840781B0203439078000414
:103A70000343D0780006184303F0A0FB04230E2272
:103A80002370A370033BE37019332371E233627038
:103A9000A0716371073A100010BD10B5002014002A
:103AA000062B0ED902F074FA04230E22A07107200F
:103AB0002370A370033BE3701F332371DC33627008
:103AC000637110BD10B514000022062B15D943797F
:103AD00002791B0213438178C278407802F0A8FA79
:103AE00004230E222370A370033BE3702A33237157
:103AF000D1336270A0716371073A100010BD10B528
:103B000000201400062B0ED903F04BF804230E22DC
:103B1000A07107202370A370033BE37080332371EF
:103B20007B336270637110BDF7B514000022062B61
:103B30001DD9451C2E7BEF7A36023E43C278817830
:103B4000031D407801966E7AAD7A2D0235430095BB
:103B500002F0B0FF04230E222370A370033BE37036
:103B60008333237178336270A0716371073A100058
:103B7000FEBD10B514000022062B0FD9407802F0CC
:103B8000DDFF04230E222370A370033BE370843314
:103B9000237177336270A0716371073A100010BD12
:103BA000F0B5150087B00022062B26D9441CE67A12
:103BB0000379C278817840780496277AE6793F02C3
:103BC0003743667A36043743A67A36063E43039671
:103BD000A6790296667901962479009402F0F6FEA1
:103BE00004230E222B70AB70033BEB7085332B71DB
:103BF00076336A70A8716B71073A100007B0F0BD98
:103C000010B514000022062B13D94278C1788078B1
:103C10000002104302F024FF04230E222370A3703D
:103C2000033BE3708633237175336270A071637157
:103C3000073A100010BD10B514000022062B1CD945
:103C40000279C17812020A43417909040A43817951
:103C500009061143427880780002104302F08EFE7C
:103C600004230E222370A370033BE3708733237178
:103C700074336270A0716371073A100010BD10B503
:103C800014000022062B13D94278C17880780002F4
:103C9000104302F0DDFD04230E222370A370033BCA
:103CA000E3708833237173336270A0716371073AD4
:103CB000100010BD10B514000022062B10D9817819
:103CC000407802F064FF04230E222370A370033BAC
:103CD000E3708A33237171336270A0716371073AA4
:103CE000100010BD70B514000022062B18D9017900
:103CF000C678090283794279314346788078000298
:103D0000304302F06CFF04230E222370A370033BA8
:103D1000E3708B33237170336270A0716371073A63
:103D2000100070BD10B514000022062B12D9437884
:103D300080780002184302F05CFF04230F222370F6
:103D4000A370033B23718C3363716F336270E07037
:103D5000A371083A100010BD10B514000022062B04
:103D600010D9811C407802F0E9FF04230E22237051
:103D7000A370033BE3708D3323716E336270A071C7
:103D80006371073A100010BD10B514000022062B15
:103D90000FD9407802F09BFD04230E222370A370FC
:103DA000033BE3708E3323716D336270A0716371D6
:103DB000073A100010BD10B514000022062B12D9CE
:103DC000437880780002184302F0A8FE04230E22F4
:103DD0002370A370033BE370903323716B336270E5
:103DE000A0716371073A100010BD10B500201400D7
:103DF000062B0ED902F03AFD04230E22A0710720F3
:103E00002370A370033BE370913323716A336270B4
:103E1000637110BD10B514000022062B13D942782F
:103E2000C17880780002104302F080FF04230F2243
:103E30002370A370033B2371923363716933627003
:103E4000E070A371083A100010BD10B500201400F6
:103E5000062B0ED902F006FD04230E22A0710720C6
:103E60002370A370033BE370933323716833627054
:103E7000637110BD10B514000022062B12D94378CF
:103E800080780002184302F0DFFC04230E22237026
:103E9000A370033BE3709433237167336270A071A6
:103EA0006371073A100010BD70B514000022062B94
:103EB00018D90179C6780902837942793143467865
:103EC000807800023043FDF777FD04230F22237032
:103ED000A370033B23719533637166336270E070A6
:103EE000A371083A100070BD70B514000022062BB3
:103EF00018D90179C6780902837942793143467825
:103F0000807800023043FDF75BFD04230F2223700D
:103F1000A370033B23719633637165336270E07065
:103F2000A371083A100070BDF0B5150089B00022E9
:103F3000062B39D9441CE178A6780902831D314348
:103F400046786078A77D00023043E67D227936020C
:103F50003E430696667D277D36023E430596E67C07
:103F6000A77C36023E430496667C277C36023E439D
:103F70000396E67BA77B36023E430296667B277B51
:103F800036023E430196E47A0094FDF71DFD0423BA
:103F90000F222B70AB70033B2B7197336B71643323
:103FA0006A70E870AB71083A100009B0F0BDF0B566
:103FB000CBB0099014000020062B45D92525070019
:103FC000099E02ABED181436099B5A1C537C9C4683
:103FD0009F423BDB937951791B020B43D178907858
:103FE0000902014350781578000228430BAD167979
:103FF000069565460595157CD77B2D023D430495B6
:10400000957B577B2D023D430395157BD77A2D0277
:104010003D430295957A577A2D023D430195157AD5
:10402000D7792D023D4332000095FDF757FC04235C
:104030000F22E07007202370A370033B2371983395
:10404000637163336270A3714BB0F0BD721E12785E
:104050006B1E1A70310028000622FCF792FB013714
:1040600007350736B0E773B514000022062B1DD9BB
:104070004279017912020A43C1788678451C090207
:104080003143EE79837940780196AD790095FDF75B
:1040900045FC04230F222370A370033B2371993343
:1040A000637162336270E070A371083A100076BDEC
:1040B000F0B5C7B0059014000020062B2CD91525AB
:1040C0000700059E02ABED180B36059B587A0133AD
:1040D000874223DB1A79D97812020A4399785D78EE
:1040E000090207AF5E7929431D7803970290D879BA
:1040F00001909B79280000933300FDF719FC0423FD
:104100000F22E07007202370A370033B23719A33C2
:10411000637161336270A37147B0F0BD721E127893
:104120006B1E1A70310028000622FCF72AFB0137AB
:1041300007350736C9E7F0B5150089B00022062B10
:1041400039D9441CE178A6780902831D31434678A9
:104150006078A77D00023043E67D227936023E4337
:104160000696667D277D36023E430596E67CA77C53
:1041700036023E430496667C277C36023E43039615
:10418000E67BA77B36023E430296667B277B3602A0
:104190003E430196E47A0094FDF7DBFB04230F22F3
:1041A0002B70AB70033B2B719B336B7160336A7068
:1041B000E870AB71083A100009B0F0BD10B51400FA
:1041C0000022062B0FD94078FDF7F2FB04230E22C4
:1041D0002370A370033BE3709C3323715F336270E1
:1041E000A0716371073A100010BDF0B5150085B0DD
:1041F0000022062B2ED9037AC2791B02134382793F
:10420000417912020A430179C6780902441C3143FC
:1042100046788078277B00023043667B36023E4337
:104220000296E67AA77A36023E430196267A647AA7
:10423000240234430094FDF7ADFB04230F222B70BE
:10424000AB70033B2B719D336B715E336A70E8700A
:10425000AB71083A100005B0F0BD10B51400002293
:10426000062B13D94278C178807800021043FDF7FD
:10427000D6FB04230F222370A370033B23719E33CC
:1042800063715D336270E070A371083A100010BD75
:1042900013B5140000220C2B16D96946013002F028
:1042A0008BFB0622A0716946E01DFCF76AFA042325
:1042B0000D2223700A336370043BA370093BE37043
:1042C0009F3323715C336371100016BD73B5140006
:1042D0000022062B1DD90179C6780902837942791B
:1042E000451C31434678807800023043EE790196D0
:1042F000AD790095FDF789FB04230F222370A3708D
:10430000033B2371A13363715A336270E070A37170
:10431000083A100076BD10B514000022062B10D903
:10432000811C407802F010FB04230E222370A3703E
:10433000033BE370A333237158336270A071637140
:10434000073A100010BD10B514000022062B13D937
:104350004278C178807800021043FDF71DFC0423E9
:104360000E222370A370033BE370A43323715733F1
:104370006270A0716371073A100010BD10B514008F
:104380000022062B13D94278C178807800021043AE
:10439000FDF7FEFB04230E222370A370033BE370A2
:1043A000A533237156336270A0716371073A100010
:1043B00010BD73B5050014000020062B17D96B7AC9
:1043C000A9786878EA1C6E1C0B350195757A009502
:1043D00002F0F1FB04230E22A07107202370A370CA
:1043E000033BE370A733237154336270637176BD6E
:1043F00010B514000022062B10D9811C407802F061
:10440000D1FA04230E222370A370033BE370A93377
:10441000237152336270A0716371073A100010BDAE
:1044200010B500201400062B0DD902F0DDFD042389
:104430000E22A07107202370A370033BE370237149
:10444000FC336270637110BDF7B514000022062BB7
:104450001BD90179C57809022943857847782D024F
:10446000837942793D4307300090280002F03CFEFA
:1044700004230E222370A370033BE37005332371E2
:10448000F7336270A0716371073A1000FEBD70B51A
:10449000050014000020062B15D92979EA78A878A0
:1044A000090211436A780002104302F03CFD042324
:1044B000A0710E2207202370A370033BE370FC332E
:1044C00062702071637170BD10B514000022062B5C
:1044D00012D9437880780002184302F02CFD04239F
:1044E0000E222370A370033BE37007332371F5336F
:1044F0006270A0716371073A100010BD10B514000E
:104500000022062B16D90179C2780902114342789C
:1045100080780002104302F00AFD04230E2223706B
:10452000A370033BE37008332371F4336270A0710E
:104530006371073A100010BD10B514000022062B5D
:1045400019D9421C537840781B0203439078000429
:104550000343D0780006184302F0AEFD04230E2278
:104560002370A370033BE37009332371F33362704C
:10457000A0716371073A100010BD10B5140000223D
:10458000062B12D9437880780002184302F00DFD03
:1045900004230F222370A370033B23710A3363713A
:1045A000F2336270E070A371083A100010BD70B56C
:1045B00014000022062B1AD98279417912020A438B
:1045C0000179C5780902294345788078000228439B
:1045D00002F007FC04230F222370A370033B237116
:1045E0000B336371F1336270E070A371083A10000D
:1045F00070BDF7B5070015000020062B24D93B7AC3
:10460000FA791B021343BA79797912020A4339798C
:10461000F878BE7809027C1C014378780A37019744
:1046200036020643207A0090300002F0CCFB0423CF
:104630000F22E87007202B70AB70033B2B710C33FB
:104640006B71F0336A70AB71FEBDF0B5070087B0D7
:1046500014000020062B2BD939007D1CAB790831C2
:104660000222012B03D0023B5A425A41120102AEF0
:104670003000FCF786F86A79297912020A43E97852
:10468000A8780902014368787F780002AB79384343
:10469000009602F0C8FB04230F22E070072023706D
:1046A000A370033B23710D336371EF336270A37109
:1046B00007B0F0BDF0B5070087B014000020062B4E
:1046C0002AD939007D1CAB7908310222012B03D095
:1046D000023B5A425A41120102AE3000FCF751F837
:1046E0006A79297912020A43E978A8780902014314
:1046F00068787F780002AB793843009602F07FFB40
:1047000004220F23E070072022706370A27063718F
:10471000033AEE332271A37107B0F0BD73B5060002
:1047200014000020062B1ED9B279717912020A43B7
:104730003179F078B5780902014370782D02F37968
:10474000054308360096280002F04FFB04230F2291
:10475000E07007202370A370033B23719B186371E3
:10476000ED336270A37176BD10B514000022062BE4
:1047700013D94278C17880780002104302F01FFB01
:1047800004230F222370A370033B23711033637142
:10479000EC336270E070A371083A100010BD10B5E0
:1047A00014000022062B12D94378807800021843A7
:1047B00002F0D3FB04230F222370A370033B237169
:1047C00011336371EB336270E070A371083A10002B
:1047D00010BD7FB5060014000020062B21D9751CE2
:1047E000AB78311D0222012B03D0023B5A425A41C1
:1047F00012016846FBF7C5FF68787378000218431A
:104800006A46A97802F0C1FB04230F22E07007205A
:104810002370A370033B237112336371EA33627018
:10482000A37104B070BD70B514000022062B1AD914
:104830008279417912020A430179C5780902294334
:10484000457880780002284302F0B3FB04230F224E
:104850002370A370033B237113336371E9336270D8
:10486000E070A371083A100070BD70B5140000220A
:10487000062B1AD98279417912020A430179C57847
:1048800009022943457880780002284302F061FB41
:1048900004230F222370A370033B2371143363712D
:1048A000E8336270E070A371083A100070BDF0B593
:1048B000070087B014000020062B2BD939007D1C7F
:1048C000AB7908310222012B03D0023B5A425A41F4
:1048D000120102AE3000FBF754FF6A792979120207
:1048E0000A43E978A8780902014368787F780002D2
:1048F000AB793843009602F034FB04230F22E070BA
:1049000007202370A370033B237115336371E733D2
:104910006270A37107B0F0BD70B514000022062BC1
:104920001AD98279417912020A430179C5780902BC
:104930002943457880780002284302F006FB0423CF
:104940000F222370A370033B237116336371E63388
:104950006270E070A371083A100070BD10B51400C9
:104960000022062B16D90179C27809021143427838
:1049700080780002104302F03FFB04230F222370D3
:10498000A370033B237117336371E5336270E070EA
:10499000A371083A100010BDF0B5070087B01400ED
:1049A0000020062B2BD939007D1CAB79083102225F
:1049B000012B03D0023B5A425A41120102AE300091
:1049C000FBF7DFFE6A79297912020A43E978A878B1
:1049D0000902014368787F780002AB79384300967A
:1049E00002F044FB04230F22E07007202370A37021
:1049F000033B237118336371E4336270A37107B012
:104A0000F0BD70B514000022062B1AD982794179C5
:104A100012020A430179C578090229434578807852
:104A20000002284302F01AFB04230F222370A37014
:104A3000033B237119336371E3336270E070A37138
:104A4000083A100070BDF0B51400C1B00022062B6A
:104A500017D9451CA9788A4216DB437868786A46DC
:104A60000002184302F0FEFA04230F222370A37001
:104A7000033B23711A336371E2336270E070A371F8
:104A8000083A100041B0F0BD5600AB19DF781B7931
:104A900001321B023B436F46BB53DCE770B5140089
:104AA0000022062B18D90179C6780902831D4279A4
:104AB0003143467880780002304302F03EFB042305
:104AC0000F222370A370033B23711B336371E13307
:104AD0006270E070A371083A100070BD73B50600F3
:104AE00014000020062B1ED9B279717912020A43F4
:104AF0003179F078B5780902014370782D02F379A5
:104B0000054308360096280002F025FB04230F22F7
:104B1000E07007202370A370033B23711C33637183
:104B2000E0336270A37176BD73B5060014000020F7
:104B3000062B1ED9B279717912020A433179F078C5
:104B4000B5780902014370782D02F37905430836E0
:104B50000096280002F0E7FA04230F22E0700720F5
:104B60002370A370033B23711D336371DF336270C5
:104B7000A37176BD73B5060014000020062B1ED964
:104B8000B279717912020A433179F078B578090265
:104B9000014370782D02F37905430836009628000A
:104BA00002F0CFFA04230F22E07007202370A370D5
:104BB000033B23711E336371DE336270A37176BDD4
:104BC00070B514000022062B1AD98279417912029D
:104BD0000A430179C57809022943457880780002A3
:104BE000284302F037FA04230F222370A370033BFB
:104BF00023711F336371DD336270E070A371083A73
:104C0000100070BD70B514000022062B18D9017970
:104C1000C6780902831D42793143467880780002C4
:104C2000304302F07CFA04230F222370A370033B6D
:104C3000237120336371DC336270E070A371083A32
:104C4000100070BD10B514000022062B16D9017992
:104C5000C27809021143427880780002104302F0C2
:104C6000C7F904230F222370A370033B2371213360
:104C70006371DB336270E070A371083A100010BDFD
:104C800070B514000022062B18D90179C6780902E4
:104C9000831D42793143467880780002304302F028
:104CA00072FA04230E222370A370033BE3702233B5
:104CB0002371DA336270A0716371073A100070BD1E
:104CC00070B514000022062B18D90179C6780902A4
:104CD000831D42793143467880780002304302F0E8
:104CE000FFF904230E222370A370033BE3702333E8
:104CF0002371D9336270A0716371073A100070BDDF
:104D000010B514000022062B12D9437880780002D7
:104D1000184302F004F904230E222370A370033B0E
:104D2000E37024332371D8336270A0716371073A42
:104D3000100010BDF7B5070014000020062B1ED987
:104D40003979F878BE780902BB797A797D1C0143FC
:104D500078780837019736020643A879009030002A
:104D600002F003FA04230E22A07107202370A3701F
:104D7000033BE37025332371D73362706371FEBD4B
:104D800010B514000022062B12D943788078000257
:104D9000184302F0BEF804230E222370A370033BD5
:104DA000E37026332371D6336270A0716371073AC2
:104DB000100010BD70B514000022062B17D9017920
:104DC000C578090242792943457880780002284352
:104DD00002F082F904230E222370A370033BE370D8
:104DE00027332371D5336270A0716371073A1000C5
:104DF00070BDF7B5070015000020062B24D93B7ABB
:104E0000FA791B021343BA79797912020A43397984
:104E1000F878BE7809027C1C014378780A3701973C
:104E200036020643207A0090300002F037F904235E
:104E30000E22A87107202B70AB70033BEB70283358
:104E40002B71D4336A706B71FEBDF0B5070085B06D
:104E500015000020062B2BD9BA79797912020A4362
:104E60003979F878BE780902FB797C1C014378789F
:104E70000D37039736020643E07A0290A07A677AEC
:104E8000000238430190207AE7790002384300900D
:104E9000300002F033F904230E22A87107202B7092
:104EA000AB70033BEB702B332B71D1336A706B719A
:104EB00005B0F0BD10B514000022062B13D94278BE
:104EC000C17880780002104302F039F804230E22E2
:104ED0002370A370033BE3702C332371D0336270D3
:104EE000A0716371073A100010BD70B51400002264
:104EF000062B17D90179C5780902427929434578EB
:104F000080780002284302F0C5F804230E222370A3
:104F1000A370033BE3702D332371CF336270A07114
:104F20006371073A100070BD73B515000022062B9F
:104F300024D9037AC2791B02134382794179120280
:104F40000A430179C6780902441C314346788078C7
:104F500000023043267A647A24023443009402F03B
:104F6000D7F904230F222B70AB70033B2B718033D6
:104F70006B717C336A70E870AB71083A100076BDD3
:104F8000F0B5150087B00022062B32D9037AC2791A
:104F90001B0213438279417912020A430179C678D0
:104FA0000902441C31434678807800023043E67B96
:104FB0000496A67B0396667B277B36023E430296C9
:104FC000E67AA77A36023E430196267A647A24026C
:104FD00034430094FCF727FD04230E222B70AB70A2
:104FE000033BEB7081332B717B336A70A8716B715B
:104FF000073A100007B0F0BD00B5C3B001AB99800F
:105000009A7105210422D8701A7059709A70023171
:105010000022180001F07AFB43B000BD00B5C3B018
:1050200001AB99809A7108210422D8701A705970C6
:105030009A700139033A180001F068FB43B000BDD3
:1050400030B5C3B046AC258801ACA2710B226A44CE
:1050500013701B0A53700D236B441D702D0A5D7075
:10506000042323700833E070A18063700222043BA4
:105070000B212000A37001F049FB43B030BD10228A
:10508000042100B5C3B001AB5A700F3AD8709A70C2
:1050900018005218197001F039FB43B000BD30B54B
:1050A0000024C3B001ABD87002AA84420EDB0422F4
:1050B000810001311A70C9B20F325A7099700D3ADD
:1050C0000331180001F022FB43B030BD0D880134DC
:1050D00015804D88043155800432E6E7042200B57E
:1050E000C3B001AB1A702C325A702D3AD870998027
:1050F0009A7006210432180001F008FB43B000BD8D
:10510000042200B5C3B001AB1A70FB325A70FC3AEE
:105110009A70023ADA70002258711A710621083228
:10512000180001F0F3FA43B000BDF0B5C3B001AD13
:1051300068710A2068440180090C41800E2169448D
:105140000A80120C4A8012226A4413801B0C53807E
:105150001623489F6B441F803F0C5F801A23499E93
:105160006B441E809421360C5E806B461E224900E3
:105170005B181B886A4413804A9B04311B0C5380C4
:105180006B4622225B181B886A4413804B9B0431B8
:105190001B0C53806B4626225B181B886A441380C5
:1051A0004C9B04311B0C53806B462A225B181B88D6
:1051B0006A4413804D9B2F201B0C53802E234EAC32
:1051C00024786B441C7022004F996844FBF7D9FA8D
:1051D000042321002B70FB336B700122FC3BEB702E
:1051E00000232831C9B2A9705242033128002B7123
:1051F00001F08CFA43B0F0BD00B5C3B001AB9971BA
:105200000B2158716944100A0A704870100C120E74
:10521000CA7004228870FF211A70DA700022597057
:10522000F73999701A710331013A180001F06EFADA
:1052300043B000BD10B5C2B001AC130060710B20CB
:10524000A171062219006844FBF79BFA042323701E
:10525000FB336370F53BA3700122053BE370002331
:1052600052420D212000237101F050FA42B010BDCE
:1052700030B5C3B001AD0C0068710B20110068445B
:105280002200AC71FBF77DFA04232B70FB336B70AB
:105290000122F93BEB700023211DC9B2A9705242D3
:1052A000033128002B7101F031FA43B030BDFF22E9
:1052B00000B5C3B001A84270FD3A827000220423F9
:1052C000C270052109320370037101F01FFA43B067
:1052D00000BD10B50924C2B06C4401AB2070000AB7
:1052E0006070D971FF211A7204225970F9399970CE
:1052F00005391A70D9701A7108310632180001F098
:1053000005FA42B010BD092200B5C3B06A4410705E
:10531000FF21000A5070042201AB5970FD391A7048
:105320009A70D9701A7105310732180001F0EEF940
:1053300043B000BD092200B5C3B06A441070FF211C
:10534000000A5070042201AB5970FC391A709A702F
:10535000D9701A7104310832180001F0D7F943B03E
:1053600000BDFF22042300B5C3B001A84270FD3A7E
:10537000827005210B320370C370037101F0C6F90E
:1053800043B000BDFF220423052100B5C3B001A82E
:105390004270FD3A82700C320370C170037101F0EB
:1053A000B5F943B000BD30B5C3B001AD14006871AC
:1053B000A97103A81900EA71FBF7E3F9FF2204239E
:1053C00005346A70E1B2F83AA970EA700331083224
:1053D00028002B702B7101F099F943B030BD0922E0
:1053E00000B5C3B06A441070FF21000A5070042257
:1053F00001AB5970F7391A709A70D9701A71013966
:105400000C32180001F082F943B000BD092200B54A
:10541000C3B06A441070000A50700B22080A6A4434
:1054200011705070080C090ED170FF219070042289
:1054300001AB5970F739997001311A70D9701A712E
:1054400002313232180001F061F943B000BD092287
:1054500000B5C3B06A4401AB1070000A5070D97136
:10546000FF2104225970FA39997005311A70D970E8
:105470001A7102393332180001F048F943B000BD07
:10548000092200B5C3B06A441070000A50700B22A4
:105490006A441170090A5170042201AB1A70FB3280
:1054A0005A70F93A9A700022DA7008321A7109219A
:1054B0000932180001F02AF943B000BD092330B5C4
:1054C0000C00C3B06B441870000A01AD5870110095
:1054D00003A82200EC71FBF754F9042305342B7068
:1054E000FB336B70E1B2FE3BA970EB700331073305
:1054F000122228002B7101F009F943B030BD9C46FF
:10550000F0B5C3B049AC48AB27881B884AAC092525
:10551000268801ACA3810423228162466D44287051
:10552000000A68702370FB336370F03BA3700D3B7F
:10553000E1716281E3701322063312212000E781BA
:105540002682237101F0E2F843B0F0BD30B51C00B3
:105550000923C3B06B441870000A58700F2001ADC6
:10556000E9712A81469922006844AC72FBF709F977
:105570000423210002222B700831FB336B70C9B267
:10558000F53BA970EB700331023B524228002B71AE
:1055900001F0BCF843B030BD0922F0B5C3B06A4495
:1055A0001070000A50700B220D261D000023FF27EB
:1055B0006A446E441170090A517073703370002D83
:1055C00001D143B0F0BD2A1CF52D00D9F5220F23DF
:1055D000112092B2110A6B4401AC1A705970A36881
:1055E00068441902489B090C5918FBF7CAF80423B0
:1055F0002370237BE27A1B021343190001220A3134
:10560000ED1AC9B2E270ADB20B326770A1702271AF
:10561000002D08D0A3681A020C4B120C13439BB246
:1056200033701B0A737003311422200001F06EF8EE
:1056300001A9039B0A7BC87A5B0212025B0C02433E
:105640009B189BB233701B0A7370B8E70080FFFF92
:10565000092200B5C3B06A441070000A50700422D9
:10566000FF2101AB1A709A70023ADA700A3259704F
:105670001A71F8390932180001F048F843B000BD3A
:10568000092200B5C3B06A441070000A50700B22A2
:105690006A441170090A5170042201AB1A70FB327E
:1056A0005A70F93A9A70033ADA7009321A7109217C
:1056B0000A32180001F02AF843B000BD30B51400DA
:1056C0000922C3B06A441070000A50700D2001AD69
:1056D000E9712200190068442C72FBF752F8042388
:1056E000FF220634E1B22B706A70A970EB700331AF
:1056F0000833E83A28002B7101F008F843B030BDB8
:1057000030B50924C3B06C442070000A60700024D6
:1057100001ABD97103A88C4212DB042289001A70F4
:10572000FB325A700531FA3ADA70C9B20732997011
:105730001A7103310C32180000F0E8FF43B030BD9D
:105740001588013405805588043245800430E2E72D
:1057500030B514000922C3B06A441070000A5070BA
:105760000D2001ADE9712200190068442C72FBF78D
:1057700008F8042306342B70FB336B70E1B2F93B5D
:10578000A970EB7003310633192228002B7100F049
:10579000BDFF43B030BD092330B50C00C3B06B442E
:1057A0001870000A01AD5870110003A82200EC71B6
:1057B000FAF7E7FF042305342B70FB336B70E1B27B
:1057C000F83BA970EB70033105331A2228002B71C6
:1057D00000F09CFF43B030BD092330B50C00C3B0CE
:1057E0006B441870000A01AD5870110003A8220024
:1057F000EC71FAF7C6FF042305342B70FB336B7092
:10580000E1B2F73BA970EB70033104331B2228008F
:105810002B7100F07BFF43B030BD092330B50C0085
:10582000C3B06B441870000A01AD5870110003A892
:105830002200EC71FAF7A5FF042305342B70FB332B
:105840006B70E1B2F63BA970EB70033103331C229D
:1058500028002B7100F05AFF43B030BD30B5140062
:105860000922C3B06A441070000A50700D2001ADC7
:10587000E9712200190068442C72FAF782FF0423B0
:1058800006342B70FB336B70E1B2F53BA970EB7003
:10589000033102331D2228002B7100F037FF43B083
:1058A00030BD30B51C000923C3B06B441870000A2A
:1058B00058700B236B441970090A59700D236B44FF
:1058C0001A70120A01AD5A704699220004A8EC72AF
:1058D000FAF757FF042309342B70E1B2FB336B70E6
:1058E000A970F33B03311F222800EB702B7100F0ED
:1058F0000DFF43B030BD092200B5C3B06A4410703B
:10590000000A50700422FF2101AB1A709A7009320C
:10591000DA70013A59701A71F8391432180000F02F
:10592000F5FE43B000BD30B514000922C3B06A448F
:105930001070000A50700B2068440170090A417011
:105940000E2001AD2200190068446C72FAF719FFAD
:10595000042307342B70FB336B70E1B2F13BA97069
:10596000EB700331023B212228002B7100F0CEFEA8
:1059700043B030BD30B514000922C3B06A44107082
:10598000000A50700B2068440170090A41700E2013
:1059900001AD2200190068446C72FAF7F2FE04238C
:1059A00007342B70FB336B70E1B2F03BA970EB70E6
:1059B0000331033B222228002B7100F0A7FE43B0E5
:1059C00030BD092200B5C3B06A441070000A50709F
:1059D000042201AB1A70FB325A70FA3A9A700B32F9
:1059E000DA70043AD9711A7108211732180000F0E0
:1059F0008DFE43B000BD30B50925C3B001ACA37224
:105A000004236D442870000A68702370FB336370B0
:105A1000F73BA3700933E1712281E3702422053B37
:105A20000B212000237100F071FE43B030BD30B572
:105A300014000922C3B06A441070000A50700B2091
:105A400068440170090A41700E2001AD220019005E
:105A500068446C72FAF795FE042307342B70FB330D
:105A60006B70E1B2ED3BA970EB700331063B252270
:105A700028002B7100F04AFE43B030BD30B5140051
:105A80000922C3B06A441070000A50700B206844A9
:105A90000170090A41700E2001AD2200190068440E
:105AA0006C72FAF76EFE042307342B70FB336B70B5
:105AB000E1B2EC3BA970EB700331073B26222800D2
:105AC0002B7100F023FE43B030BD10B50924C2B0E5
:105AD0006C442070000A60700B2068440170090A51
