:020000041004E6
:1008000000600020F94C05109D4305109F43051022
:10081000AA5555AA45554C420000000000000000B2
:10082000000000000000000000000000A1430510CF
:100830000000000000000000C31F0410A3430510C7
:10084000AB430510673404100000000000000000F6
:10085000B5430510C73B0410BD43051057440410B1
:100860000000000000000000000000000000000088
:1008700000000000CF450410035204103B55041043
:10088000000000004B4004109F400410674104101A
:100890007F410410174404102F560410B343051071
:1008A0000000000000000000000000000000000048
:1008B0000000000000000000000000000000000038
:1008C00076B588B004001D0005A8801C50A10A88D8
:1008D0000280042C01DD422098E00F9A06210020BE
:1008E00000F01CFE0100F7D100F01CFE0100F3D166
:1008F00004A8801C019005A8009004ABEAB2002176
:10090000012000F013FE0100E6D1022208A906A88A
:1009100000F024FE06AE08A8801CB11C02780A7004
:1009200042784A70022208A8011D301D00F016FE10
:1009300008A8801DB11D02780A7042784A7006A886
:1009400003900820029000200190082000900023CE
:100950000A226846018A002000F027FE0E980390C4
:10096000E8B2029000200190EDB2009500236846A5
:10097000828A018A002000F018FE05A8801C0390DE
:10098000022002900020019002200090002368467F
:10099000428A018A002000F008FE0421012000F0B4
:1009A00015FE010032D1200000F014FE05005E4E5D
:1009B0005821300000F026FE34703000483069467F
:1009C000098C018008A94988418008A9898881800B
:1009D00008A9C988C180554C002020706070684605
:1009E0000021017061784170009800F0F0FF0090E4
:1009F00068460178217041786170102020701120C4
:100A000060701021002000F023FE28000AB070BDA5
:100A1000C0030000F4B58EB007000C004448056820
:100A200007A800BF2AA10A6802603F4E22000E9963
:100A300030002B3000F0ACFD2A20345408A80921E6
:100A400001702A21725C0E99401C00F0A1FD07A8DC
:100A50001221417018218170344C2078102801D067
:100A60000C2532E00020002129706F70A8702A2028
:100A7000305C401C012F0691059107A904910DD10E
:100A80000321039108A90291C0B2019000200090B7
:100A900000235022302101F0EBF80CE003210391F8
:100AA00008A90291C0B201900020009000235022BA
:100AB000302101F0FEF8050007D120202070212010
:100AC00060702021102000F0C3FD28000FB0F0BDA1
:100AD000020000001CB5154C684621780170617851
:100AE0004170009800F073FF009068460178217013
:100AF0004178617013BD00B585B00B4B98774B1EE4
:100B00009B41DB0F0021049103920293102101917C
:100B100007210091002300220100012001F0EAF8E2
:100B200005B000BD0000000088030020EC03002099
:100B3000E0030020F4B59CB00F0041786A461176BE
:100B40000678034813A90880300003D0052302E08B
:100B50000F1800000423D04DA81C00900122012092
:100B600001F012F9010053D10424A87F002800D01D
:100B70000524CA4869468887281D059000200490EE
:100B80001020039000200290019412200090012375
:100B90000FAA0121688801F012F9010038D1002E56
:100BA00023D06846007EA871CC486946888509A88C
:100BB000801C097E0170012141700AA80890002064
:100BC000079010200690002005900491039409A836
:100BD000801C02900220019000900BAB0122A9889A
:100BE000688801F00BF9010012D1642009A908708E
:100BF00009A803900120029000200190012000909C
:100C00000023AA886988002000F0CFFC010002D0F0
:100C1000010000D058E3B2486946888528000830B2
:100C200000900B2301220BA9012001F0ADF8010077
:100C300051D10424A87F002800D00524A948694682
:100C4000888306A8059000200490102003900020BF
:100C50000290019402200090092307AA012128890B
:100C600001F0ADF8010036D1039709200290002071
:100C700001900920009000236846028B29890020FA
:100C800000F093FC010026D197486946888306A8A6
:100C90000590002004901020039000200290019401
:100CA00002200090042307AA0121288901F087F877
:100CB000010010D138000930039004200290002078
:100CC00001900420009000236846028B29890020AF
:100CD00000F06BFC010077D184486946888306A840
:100CE00005900020049010200390002002900194B1
:100CF00002200090042307AA0121288901F05FF84F
:100D0000010061D138000D300390042002900020D2
:100D100001900420009000236846028B298900205E
:100D200000F043FC01004FD171486946888306A852
:100D30000590002004901020039000200290019460
:100D400002200090042307AA0121288901F037F826
:100D5000010039D1380011300390042002900020A6
:100D600001900420009000236846028B298900200E
:100D700000F01BFC010027D15E486946888306A865
:100D80000590002004901020039000200290019410
:100D900002200090072307AA0121288901F00FF8FB
:100DA000010011D138001530039007200290002077
:100DB00001900720009000236846028B29890020BB
:100DC00000F0F3FB010001D0010045D1CE48694697
:100DD0000885280050300090062301220AA901202E
:100DE00000F0D2FF010036D10424A87F002800D0F3
:100DF0000524C64869460883280052300590002023
:100E0000049010200390012002900194042000908F
:100E1000042306AA012128004630408900F0CFFFB4
:100E2000010018D1BA48694608832800543005905B
:100E300000200490102003900020029001941020C4
:100E40000090012306AA012128004630408900F0C5
:100E5000B6FF010002D0010000D035E21C9E082040
:100E60003178002908D0317B002900D00D20717B1A
:100E7000002900D0C01C801CB17B002900D0401C80
:100E8000317A00290DD0B17A491E09D0491E0129B5
:100E900007D8C01C05E000BF88030020192A000005
:100EA000001D9C4918AA118029000C310091C3B281
:100EB000012218A9012000F067FF070000D000E21E
:100EC000B07C002826D0B08A14A90880B08A924944
:100ED000884211D169880A1D10E000BF082900006E
:100EE0000A180000292A0000242A0000262A0000EF
:100EF000282A0000502A0000F18A328B0BA8801C9F
:100F0000019014A80090012392B2A88900F09EFFDE
:100F100007006BD1042009A90870A87F002801D020
:100F2000052008707D486946088609A8801C059040
:100F300000200490102003900020029009A800785F
:100F400001900220009004230CAA0121A88900F03E
:100F500036FF07004AD130001A3003900420029077
:100F6000002001900420009000236846C28CA989CB
:100F7000002000F01AFB070038D1707F8007C10FF6
:100F800046202954D4486946088628000E3005902A
:100F900000200490102003900120029009A80078FE
:100FA00001900420009001230CAA0121A88900F0DF
:100FB00006FF07001AD13078002862D0C74869467A
:100FC000088628001030059000200490102003901F
:100FD0000120029009A800780190062000900123CA
:100FE0000CAA0121A88900F0EAFE070000D068E100
:100FF00030001A3003900420029000200190042059
:10100000009000236846C28CA989002000F0CDFA28
:101010000700EBD1307B002831D0B1486946088603
:101020002800123005900020049010200390052025
:10103000029009A8007801901A20009008230CAAB9
:101040000121A88900F0BBFE0700CFD1C348694643
:10105000088628001430059000200490102003908A
:101060000520029009A8007801900E20009001232D
:101070000CAA0121A88900F0A2FE0700B6D1707B5E
:10108000002818D0BA48694608862800163005900E
:1010900000200490102003900520029009A80078F9
:1010A00001901A20009003230CAA0121A88900F0C6
:1010B00086FE07009AD1BC486946088609A8801CAC
:1010C000059000200490102003900020029009A8B1
:1010D000007801900220009073780CAA0121A88961
:1010E00000F06DFE070074D170780090322100F09E
:1010F000DAFEC0B205900098322100F0D4FE6846B6
:101100000174002420E000BF131800004F2A0000E3
:10111000312A0000121800000F1800004A2A0000AF
:1011200032206043C0B271680918039132210291E4
:101130000190009100236846C28CA989002000F02C
:1011400034FA070045D1641C05988442E8DB34007A
:101150006946097C002915D032214843C0B2616834
:10116000091803916946097C029101906846007C48
:10117000009000236846C28CA989002000F015FA6F
:10118000070026D10AAEB61CA07B002822D0AB48AF
:1011900010A90880192030702A2070700BA80890C0
:1011A0000020079010200690002005900120049058
:1011B00009A8007803900AA8801C029002200190E0
:1011C000009010AB01226846C18CA88900F016FE81
:1011D000070076D1207A002873D00520A17A012952
:1011E0000ED11A210AAA521C1170E17A0AAA1170B2
:1011F000617A31700121717009AA521C1070E97670
:10120000A17A02290ED10E210AAA521C1170E17A8C
:101210000AAA1170617A31700221717009AA521CF8
:101220001070E976A17A03290ED10A210AAA521C6C
:101230001170E17A0AAA1170617A3170032171701C
:10124000E97609A9491C0870AA4869460886280059
:1012500018300590002004901020039009A8401C2D
:101260000078029009A8007801900AA8401C007834
:1012700000900AA803780CAA0121A88900F09FFD1C
:1012800007001ED13078A8769B4810A908800BA8CB
:101290000890002007901020069000200590012063
:1012A000049009A8007803900AA8801C02900220EC
:1012B0000190009010AB0122298BA88900F09EFDBF
:1012C0000700380000D100201DB0F0BD8B494862F6
:1012D00070478B49087070474C2A00004E2A000066
:1012E000222A0000002087494A78432A00D170470B
:1012F00010B50978814A102906D0602904D05623F8
:10130000D35C002B00D101205623D35C002B02D0EC
:10131000030002201843D37F2024125D08240443D5
:10132000102908D1002A09D0002B02D00100042086
:1013300011E0200010BD602900D12000002B04D056
:10134000002A09D10100102005E0102904D1002A4B
:1013500002D101002020084310BD0000322A000005
:1013600080B513216548808B00F0F7FD02BD0000B9
:10137000332A00001FB502A90191891C009103AB1B
:10138000022200215D4C40002018008B801C80B29E
:1013900000F0E7FD002803D16846007A012800D05C
:1013A000002004B010BD00004B2A0000F0B585B04D
:1013B00004001000002200E0521CD5B2471EBD42BE
:1013C000FADB4E4D020004290CD103930290002059
:1013D0000190009201236A8AA989A88B00F0E5F8A0
:1013E00005B0F0BD062907D10393029000200190BB
:1013F00000920123EA8AEFE76E4634706C4620744F
:101400000024E0B229186E4636788F7EBE4202D1A3
:10141000C97E012905D0641CE0B20128F1D1422027
:10142000DEE703936946097C029100210191009255
:10143000012340002818028BCEE700000729000096
:10144000D8B50BB484B0060017002C4CA08BA18932
:101450006B461B7D042B08D1069A0392029700224B
:10146000019200970123628A18E06B461B7D052BD1
:1014700008D1069A03920297002201920097012355
:10148000A28A0BE06B461B7D062B0AD1069A0392BB
:1014900002970022019200970123E28A00F085F86A
:1014A0000200002A03D1A08B00F085FD0FE000228E
:1014B0006846007DA3189B7E9E4203D1A118C97E79
:1014C000814206D0521CD2B2012AF3D1422008B088
:1014D000D0BD069803900297002001900097012349
:1014E00050002018028BA189A08B00F05EF801004B
:1014F000EDD1D8E74D2A000008290000880300201C
:10150000B1030020EC03002080B50100082901DBB5
:10151000422002BD012000F059F802BD10B500F0D4
:1015200051FD10BD10B500F0DBFD10BD7CB5069D72
:10153000079C002805D0860705D1460703D4060777
:1015400001D442207CBD002903D0012901D0022909
:10155000F7D10095019400F08DFE7CBD70B4103A77
:1015600003D378C9103A78C0FBD2530701D318C906
:1015700018C001D508C908C0D20704D30B8803805E
:10158000891C801C002A01D50B78037070BC704741
:101590008B0701D18307E1D0124205D00B78491C9B
:1015A0000370401C521EF9D17047F0B585B08446D7
:1015B0000AA8F0C868468581C68103A801900297F1
:1015C0000094604600F054FF05B0F0BD10B501F086
:1015D00017F910BD10B5042801D9422010BD01F043
:1015E00031F910BD1206130A1A43130C1A4300BF37
:1015F000094205D0830707D00270401C491EF9D16B
:10160000704700000022FFE71300103906D330B402
:101610001400150010393CC0FCD230BC490700D37F
:101620000CC000D504C0890002D30280801C0029B0
:1016300000D5027070470C0802170D01010209095C
:101640000101060209FFFFFFFFFF0909FFFFFFFF7E
:10165000704730B5FF231370854C658A6D1CA84216
:1016600001D104251570A58A6D1CA84201D105255C
:101670001570E58A6D1CA84202D10620107002E0A8
:101680001578FF2D01D00B701DE0A3885B1C9842DC
:1016900004D1A07908700120107014E000235D00CF
:1016A00065192D8B6D1C854205D1E518AD7E0D7039
:1016B000E518ED7E15705B1C012BF0D11078FF282A
:1016C00001D1422030BD002030BD10B531281FD0DF
:1016D00032281ED1664CA06D0078002818D020203A
:1016E000205C00280BD0210040313F20205C01F01D
:1016F000C7F800280AD101202821605406E0E07FC5
:10170000002803D01321A08B00F027FC332010BD4C
:10171000322010BDF1B58EB00EA8007854498B6D03
:1017200007AA00BF4AA425681560092218241225BB
:1017300007AE0EAF3F78412F07D005D3432F4DD0D2
:101740003CD3452F79D06DD380E000205627C85573
:101750001870587098707570B4704620085C002836
:101760001FD008A802702A200C5C22002B3108A888
:10177000401CFFF70DFF00200690059007A804907D
:101780000320039008A80290641CE4B20194002096
:1017900000900023FA221201C821C90000F068FA63
:1017A00009E0019000900B0040333F200A5C0121CA
:1017B000002001F07EF800280ED044E018780028C0
:1017C0000AD05878002840D14620085C002801D073
:1017D00041203BE0432039E0422037E000201870F0
:1017E00058707570B47008A802702A228C5C2200B0
:1017F0002B31401CFFF7CCFE00200690059007A877
:1018000004900320039008A80290641CE4B20194A1
:101810000020009000233022202100F029FA002827
:1018200011D108E01878002805D0587800280CD18C
:1018300001F051F807E0442008E09878002802D130
:101840005878002801D1462000E045200FB0F0BDB7
:1018500002000000212808D0222807D10448806D0A
:101860000078002801D02320704722207047000014
:10187000880300207FB5AE4DAC6D0026512804D002
:101880006FD353283ED004D36BE066702670A670E9
:1018900036E0207829001B31095C01290CD1FFF7C3
:1018A00069FD002804D02078401C2070A67005E057
:1018B000A078401CA07001E0401C2070A078217826
:1018C000002901D10A281BDB0A2817DB02A800BF68
:1018D00025A10A8802800020FFF74CFD00280DD1C9
:1018E000E87E01280AD1298B02A8019002200090ED
:1018F00000238A1C92B2A88900F0F7FFA6702FE09F
:1019000052202EE002A8019003A8009002AB9B1C7D
:1019100002220021A888801C80B200F022FB012056
:101920006946097A012901D1607017E0A278521C3A
:10193000A2706178D2B20A2A01DA002910D00029F7
:101940000CD169460872A98802A801900220009073
:1019500000238A1C92B2688800F0C7FF542000E080
:10196000532004B070BD0000010038B5704CA26D6A
:101970000025112806D029D313280ED007D3142808
:101980001ED032BD1078002810D1112032BD557004
:10199000616A012000F0B7FF0DE02920205C0028DB
:1019A00006D0012000F0BCFF29202554122032BDB2
:1019B0005078002801D1132032BDFFF7D1FC02E09E
:1019C000E07F002801D0142032BD152032BDF1B5D2
:1019D00082B00190A34C25004835502700260120F5
:1019E0006946097A00290CD010294ED020290ED042
:1019F00030291ED0402924D050292ED0602956D01D
:101A00005CE0FA2149006162A072AE7356E002A860
:101A10004078FFF71FFF01A9487023284ED128699D
:101A2000817800292CD00670302069460871312059
:101A300042E002A84078FFF748FE01A94870332829
:101A400006E002A84078FFF765FE01A94870462825
:101A500034D16846077151202FE002A84078FFF783
:101A600009FF01A94870542828D128690670E88820
:101A70000090AB886A884820215AA08B00F058FF5C
:101A8000102069460871112016E002A84078FFF77F
:101A90006CFF01A94870152802D0E07F00280DD105
:101AA00029202654602069460871612004E0A8734B
:101AB000402069460871412001A948700198FEBD87
:101AC0001B498A6D002805D1C877674909784029E4
:101AD00000D150707047F8B501220025144C624EB9
:101AE0003678202E0AD1A66D070006D17778022F0E
:101AF00000D13270B270E27700E0B5705A4E36789D
:101B0000402E09D1A66D002803D17270E2773270A1
:101B100004E075703270F1BD002808D13F202354D5
:101B2000A1830622069920004030FFF731FDF1BD68
:101B3000880300204B4801214B4A1378202B01D108
:101B4000836D19701278402A01D1806D0170704741
:101B500080B500BF00BF01BD0122424B002902D168
:101B60009883012000E00020202158543E4801784D
:101B7000302901D1996D0A700078402801D1986D03
:101B80008270704780B53748002120228154808BB5
:101B900000F0DAFE01BD38B508001C00049D314A92
:101BA000138A5B1C994205D1012C1BD1287801F0C6
:101BB0000BFB31BDD289521C914205D1012C11D1B0
:101BC000287801F007FB31BD6A4600A9491CFFF7E0
:101BD00040FD002806D12B00E2B26846017840782B
:101BE00001F0AEFA31BD80B508006A4600A9491C73
:101BF000FFF72FFD002804D168460178407801F0F6
:101C0000BBFA01BD174A906DD27F002A00D1704700
:101C100080B5002907D00078002806D1134901209B
:101C200000F071FE01BD0121017001BD70477CB55E
:101C30000C4E310048310D69012812D1F07F002887
:101C40000FD00124287800280AD1C88800908B88FA
:101C50004A884820315AB08B00F06AFE2C7073BD60
:101C60006C7073BD88030020EC0300203075000009
:101C7000FFB587B0109D159E169C019302950094A8
:101C800007A807C81F46334601F050FB00280ED1B5
:101C90001398149903AA069443C2119812990190BB
:101CA0000095029107A807C83B4601F06DFB0BB0F9
:101CB000F0BDFFB587B0109D159E169C019302954F
:101CC000009407A807C81F46334601F02FFB0028E1
:101CD0000ED11398149903AA069443C2119812992D
:101CE00001900095029107A807C83B4601F076FBDA
:101CF0000BB0F0BDFFB583B003980C9D1E46144693
:101D00000F46002804D0012802D0422007B0F0BDC1
:101D1000002F01D0012FF8D1E81F0A28F5D20D9825
:101D20001028F2D8A842F0D30E98002801D001283C
:101D3000EBD114490F988842E7D81098002801D0B9
:101D40000128E2D101F066FB012804D0204630438F
:101D500005D01120DAE7022CD7D8012ED5D8684655
:101D60000399017047708472C67285700D99C170B5
:101D70000E9901720F98019068461099417201F016
:101D80004BFBC3E73F420F0070B586B014461D46BB
:101D90000A4603466946881C0A9E01F051FB00284A
:101DA00004D1012C04D0022C02D0422006B070BD18
:101DB00023462A466946304601F056FBF6E7F0B561
:101DC00087B01C460B46054600A9023101A80C9FAE
:101DD0000D9E01F035FB00280ED1684605808482F7
:101DE0008775C6750E9901760F994176109981769F
:101DF0006946119801F0E8FB07B0F0BDF0B58BB073
:101E00009C460C4605461346624601A806A9139F48
:101E1000179E01F015FB002816D11298079068460E
:101E20000580448008A80770149941701599817045
:101E30001699C17006716846119981821099C18204
:101E40006946189801F05EFD0BB0F0BDF0B587B0A3
:101E5000064614460D4602A8811E0D9F0C9A01F0FD
:101E6000EFFA002807D168460680458084806946DD
:101E7000384601F0F7FD07B0F0BDF446002804D461
:101E8000494200F013F8404260474042002905D41F
:101E90005FD000F00BF8404249426047494200F0F1
:101EA00005F84942604703460B43E6D40022030A83
:101EB0008B420BD203098B4219D243088B422ED29C
:101EC000411A00D20146524110467047FF220902D2
:101ED0003FD012068B4205D3121209028B4201D366
:101EE0001212090203098B4219D300E0090AC3093F
:101EF0008B4201D3CB01C01A524183098B4201D3DB
:101F00008B01C01A524143098B4201D34B01C01AC5
:101F1000524103098B4201D30B01C01A5241C3083D
:101F20008B4201D3CB00C01A524183088B4201D3AC
:101F30008B00C01A524143088B4201D34B00C01A98
:101F40005241884200D3401A5241CFD20146104636
:101F5000704708B501F032FE08BD10B501F02FFE44
:101F600010BDFEB50E46144600216A461F4611807C
:101F700000280CD001AA694601F026FE050018D100
:101F800068460088388068460088864201D342252A
:101F90000FE0801B80B2A04200D204466846048055
:101FA000089804800198811968460288099801F010
:101FB00057FE2846FEBD10B50022114601F064FE12
:101FC00010BD7047F0B5444F0446386885B078308E
:101FD00016460D46002C19D0062C11D0082C0CD01A
:101FE000182C0AD0282C0BD02A2C09D02C2C0AD043
:101FF0002E2C0BD0D02C42D043E0102D08D040E046
:10200000022D05D03DE0012D02D03AE0062D38D159
:102010000A460019314601F023FE2C2C28D13078D5
:10202000002825D001F0A4FE012824D01B201F3059
:102030004009401C41004118012001F09BFE01F0C5
:1020400097FE012819D01B201F304009410041187C
:1020500022484078401AC01EC1B2002001F08AFE1A
:1020600038684022403001781143F9221140017054
:10207000002005B0F0BDFB20D9E7FB20E4E7012DEF
:1020800004D001F075FE012804D007E0107801F0BB
:102090007DFEEEE7D12C01D1082D01D01220E8E71A
:1020A00002223146684601F0DBFD0222B11C01A884
:1020B00001F0D6FD0222311D02A801F0D1FD02225D
:1020C000B11D03A801F0CCFD68468389028981888F
:1020D000008801F06CFECCE7E4030020100800202B
:1020E000F0B55FA099B000685E4915905E4A086837
:1020F0008418092212028218526B25464035149228
:102100002A7AD20702D0622019B0F0BDAA8B01232F
:102110005B029A4201D9AB8303E0172A01D217224E
:10212000AA83149AA0301392067B0DE0761EF6B2B5
:10213000139871010F18B8680F90384620220021BB
:1021400001F094FD0F98B860002EEFD120460830C2
:10215000E0606460A06024600830139060612061DA
:10216000FF220021083001F024FE2046FF2200213A
:10217000243001F01EFE2046AA7F0021303001F0FD
:1021800018FE2046FF2200213C3001F012FE002202
:102190002A7210461721334B05E0149E4701BE19E1
:1021A000401C7180C0B21E68A036367B8642F4D8CF
:1021B000002028832F8C688C0026149008E02820AB
:1021C000E16C70430918204601F0FBFD761CB6B2A5
:1021D000BE42F4D3002608E03020216D7043091878
:1021E000139801F0EEFD761CB6B214988642F3D334
:1021F000012001F0EDFD0124684604701B49418077
:102200002346042269460CA801F02EF9002822D1A9
:102210006846018E818216490183042606858475ED
:10222000202108A881720024C4720473072141731D
:10223000847305A90DA801F0C7F900280BD16846E1
:1022400004874687818E15AB0EAA008E01F0CCFD67
:10225000002800D158E700202872472054E70000EA
:102260000000FFFFE40300202C070000011800001D
:10227000052A0000FFB50C4678A103C995B001916D
:102280000090002108A801730321C9026846418615
:10229000012108A8734E017435681746AE3501F068
:1022A000D7FD002808D170493068401801F064FE5D
:1022B000A878002802D0462019B0F0BD0BA81599C7
:1022C00001F064FE0028F7D1072010A90871012C45
:1022D00005D0022C0AD0002C0ED04220ECE708A832
:1022E000017B1020014308A8017305E011A90BA888
:1022F00001F05AFE0028DFD110A8027901230CA9B1
:10230000284601F0B1F800287ED10222294618980B
:1023100001F0A6FC298868468181152149020182C5
:102320000784012686734E2108A881700024C4709A
:10233000067107214171867103A902A801F044F9D1
:10234000002861D1022202A91E9801F089FC082F01
:1023500002D26846478502E00820694648856946FA
:102360000C850B4628880AAA098901F03DFD002842
:102370006DD13E49684601820227078408A884710E
:1023800003A902A801F020F9002860D1022202A9C5
:102390001F9801F065FC68460470694644704F85DB
:1023A0000B4628880AAA098901F01EFD00284ED193
:1023B00008A8007BC00723D02C496846C91C0182AD
:1023C0000821018408A88770047103A902A801F0FC
:1023D000FBF800283BD1FF216846C1718171C170B3
:1023E000817041700170447104716946082048850C
:1023F0000B4628880AAA098901F0F6FC002826D194
:1024000008A8007B800600E021E022D529886846E4
:1024100081811649A53101820684867308A88770D8
:10242000C470047107214171847103A902A801F0ED
:10243000CBF800280BD169460E700C854E850B46F3
:1024400028880AAA098901F0CFFC002801D047207A
:1024500032E708A8007BA87000202DE7626C756544
:102460006E726721E4030020EF060000012A0000DD
:10247000FFB5002099B0239A0B9012900546149056
:10248000064615901C46DB480B460068DA49229F39
:1024900041180391002108910991518806911188F2
:1024A0000A913B2149014018007DC00706D00FA9C1
:1024B000184601F07BFD00280AD102E047201DB03C
:1024C000F0BD10AA0F991B9801F088FD002801D0DB
:1024D0006020F4E71998002803D0600701D5012097
:1024E00000E000201390A007800F1C901098179018
:1024F0002030C078012840D11798C04B01899942FB
:10250000F9D11798069904680A98228C41189142CB
:1025100033D82046203016908078012816D0E08BE2
:1025200004901798806900788006800F7ED0039809
:1025300040301890007A800778D51C980028F5D094
:10254000AE4F0F99FF372031206814E0BA4214D300
:10255000B942DDD80497E4E70389A84A934203D13E
:102560002322125C012A08D0BB4203D12322125C31
:10257000012A03D000688842EED134E1059000289A
:10258000FBD09C480921026809025118496B0027B9
:10259000009162E0780100990390085A01055AD031
:1025A0001999002901D0884255D105997A008B6983
:1025B000511C595C9A5C0902891889B20D918907EE
:1025C00049D00222059901F018FD002804D019987D
:1025D000002840D0652072E7002008A9C8551C9843
:1025E000C00718D0179880690078C00613D50D98D9
:1025F000C00710D00120C8550543009A03988018E1
:102600004088159A904206D91590009A0398105A5E
:102610000005000D14901C9880071CD51798806940
:102620000078800617D50D98800700E083E012D56A
:102630000220CA5D05430243CA5500990398401819
:1026400040881599884206D9159000990398085A30
:102650000005000D14907F1CFFB266480068A03092
:10266000037BBB4296D8002D65D01898007A0006EF
:102670005FD460480168092000020818416B0020FF
:102680001BE042018E5A360515D0AE070BD5561801
:102690003669B7070DD408AF3F5CBF0703D53607CF
:1026A00001D546200BE7EE0705D05218127CD20761
:1026B00001D0432003E7401CC0B28342E1D8159803
:1026C000C01E86B20498864200D90646A8070FD5D8
:1026D00020220020149901F0B9FC129000287DD02E
:1026E000F01C82B20021129801F0D2FC002811D116
:1026F000E80720D020220020149901F0A7FC0B90BD
:10270000002807D0F01C82B200210B9801F0C0FC19
:10271000002810D0802001F05BFB1298002802D026
:10272000002101F0BDFC0B98002802D0002101F02F
:10273000B7FC6420C3E6A1690A98069A0818249990
:1027400001F08EFA16988078012801D10498E08370
:10275000002D46D0274B0920196800020818416B4C
:10276000002008AA0CE04301CF5A3F0506D05F18AD
:10277000BC463B69175C3B4367463B61401CC0B2AB
:102780001C4B1B68A0331B7B8342ECD8A8070DD5DC
:1027900012980090F01C82B221461C310220A369DD
:1027A00001F09CFC0220129901F0B7FCE80718D058
:1027B0000B980090F61C2146B2B21C310120A3698F
:1027C00001F08CFC1398002805D00B988021C07C68
:1027D00008430B99C87401200B9900E005E001F053
:1027E0009CFC00206BE6422069E6802001F0F0FAB4
:1027F0009FE70000E40300202C07000003280000EE
:1028000010B5012818D8072916D80C4A12681346A3
:102810002033187759778007C906000E090E014347
:102820000020074BA03204E08401E418A172401C90
:10283000C0B2147B8442F7D8002010BDE40300200E
:102840000001002030B50C4A002113680B4A1268C1
:10285000A032147B0AE07C224A43DD6F0832AA5A78
:10286000002A01D0462030BD491CC9B28C42F2D8A2
:102870001876002030BD0000E8030020E4030020AB
:102880007CB504460D46012803D0002C01D012204F
:102890007CBD084601F068FC000220430090E81C63
:1028A00001F062FC0002000A0190684601F068FC39
:1028B0007CBD7CB5069D079C012903D0042901D06D
:1028C00042207CBD012A01D0002AF9D10095019453
:1028D00001F08EFC7CBD10B501F0A2FC040002D119
:1028E000012001F0B3FC204610BDFEB56C46099EE8
:1028F000089D20806180A280E38025813146684662
:1029000001F0FCFCFEBD70B50D46044601F07AFDF9
:10291000294601F081FD0146204601F08FFD70BD82
:102920001FB569463A300873684601F095FD1FBD32
:102930003EB56C46069D20806180A280E3802581A3
:10294000684601F0B5FD3EBD10B501F02BFE10BD8F
:1029500070B586B00121012001F03AFE00246846DE
:102960000470022141700125857001F09BFE01A8D1
:1029700001F046FF01A88480E026B601019684712B
:1029800001F0D6FE03960495059403A801F04EFFCE
:102990000021C020800101F06AFF0121C80201F07E
:1029A00066FF06B070BDE0B50121012001F010FE08
:1029B000684601F025FF80200090684606210171DD
:1029C000002181710121417101F0B2FE00218020BE
:1029D00001F01FFF07BD10B580242401200001F085
:1029E00053FF012807D1200001F04BFF01200B49C4
:1029F0000870FEF76EFC10BD09480021017001222D
:102A00000272427282720523C37281818173817462
:102A10008276C2760177427770470000D4020020A8
:102A200024080020F8B5A4B00CA8B9490CC90CC002
:102A30000620694688810C2003A9488000208880F0
:102A400096204000C8800CA80190B248009007234F
:102A500003A803C80A0001000320FDF731FF0400AA
:102A600002D02100AC483FE2AC4A00210020FEF732
:102A700042F8040002D02100A94835E2A948FEF737
:102A800025FC0420FEF740FD040002D02100A648EA
:102A90002AE2002069460872A44813A90CC80CC198
:102AA000A34D13AC0422290020000930FEF770FD6D
:102AB0000422A04920000D30FEF76AFD04222900FF
:102AC00020001130FEF764FD012060753020A075F4
:102AD0000020E075FC20207600206076EC20A076B7
:102AE0000020E0761AA894492022FEF737FD422004
:102AF0001AA94870C74C200024301B901AAA13A9A9
:102B000002A8FEF717F8050005D029008B4801F050
:102B1000CFFE2800F0E100202070FFF744FFFFF710
:102B200017FF874801F0D8FE1121002002F00FF8AE
:102B30000121002002F044F80121002002F05BF89E
:102B40000021002002F021F80121002001F0E6FF21
:102B50000021002001F0A8FF0221002002F07CF8F3
:102B60004021002002F0F1F88021002002F0CAF894
:102B70000121002002F09FF80021002002F027FA36
:102B80000121002002F0E2F96070611C002002F0D7
:102B9000F3F960780028F8D1002102F047FA01210A
:102BA000002002F059FA0121002002F06BFA032103
:102BB000002002F07DFA0121002002F063F90221D9
:102BC000002002F076F90021002002F08FF90021A8
:102BD000002002F016F90221002002F03EF9002147
:102BE000002002F0F7F80121002002F01FF9012176
:102BF000002002F0C7F9002002F095FA0021002021
:102C000002F0A1FABD480168BD4A914209D141686C
:102C1000216181686161C068A061002002F0E4FA6E
:102C200058E10020129010900F9003900E900190A8
:102C30000A900990089007900690059069460870E0
:102C40000024744D062128000830FEF7DBFC290023
:102C50000831002002F05FF9012002F0E8FAC820F4
:102C60001190A0B2C821FFF71EF9002902D100205F
:102C700002F0C1FA641CA0B2C82149008842E1DB1D
:102C80000020049011980B90129D109E0F9C0E9F97
:102C90000498401C80B2049006219A48FEF7B2FCCA
:102CA0009849002002F037F95A480089964948436C
:102CB00000B2FA218900FFF7F6F8129055484089D2
:102CC0009149484300B2FA218900FFF7ECF80E90D1
:102CD000504880898C49484300B2FA218900FFF7A7
:102CE000E2F802F0C5FA10900E9802F0C1FA0F90C7
:102CF000129802F0BDFA0E900498012822D10E9C81
:102D00000F9E109D00200A900990089072E000BF6D
:102D10009C460510F00200206437051040E20100D7
:102D200088370510C0D40100B0370510A44605103F
:102D3000B0460510B846051024080020D437051009
:102D4000801A06000E98210002F0D5FA07000498B8
:102D500080B202F07DFA03903800039902F023FB61
:102D60000100200002F08FFA01900E98019902F004
:102D7000C2FA0100380002F06BFB0100089802F073
:102D800082FA0590019C08900F98310002F0B3FA86
:102D90000690039902F007FB0100300002F073FA7D
:102DA00007000F98390002F0A6FA069902F050FBCE
:102DB0000100099802F067FA06903E000990109809
:102DC000290002F098FA0790039902F0ECFA01004A
:102DD000280002F058FA03901098039902F08BFA39
:102DE000079902F035FB01000A9802F04CFA0790AF
:102DF000039D0A90022002F01AFA0B98401E0B90D5
:102E000000D045E7129510960F940E97049D014C43
:102E100002E000BFD4020020019802F071FB2061A3
:102E20000E9802F06DFB6061039802F069FBA061EF
:102E3000681E02F01DFA05000598290002F0B3FA99
:102E400002F07CFB02F093FB06000F0006982900BD
:102E500002F0A9FA02F072FB02F089FB22AA03C277
:102E60000798290002F09FFA02F068FB02F07FFB4E
:102E700002F0F0FB05003000390002F0EBFB1A28ED
:102E80000AD222A803C802F0E5FB1A2804D21A2DA0
:102E900002D2012069460870002002F0ACF96846B1
:102EA0000078002800D1EBE6002002F09DF9A76928
:102EB000666925691249114802F0F5FB2900AC4802
:102EC00002F0F1FB3100AB4802F0EDFB3900BD48E8
:102ED00002F0E9FB22001C3207210120FDF79AFDD8
:102EE000040005D02100C84801F0E2FC200003E006
:102EF00006A001F0DDFC002025B0F0BDE87F061043
:102F0000CCBCECFCDC020020171100004849442036
:102F10004D6F75736520436F6E6669677572656482
:102F20000A00000070B5002500240426FEF7DAF937
:102F3000C00703D4FEF7D6F9304215D0FEF7D2F918
:102F4000304206D00A210020FFF7DDFC02F0C2FB70
:102F5000012400220021032002F0FEFB0500002CCA
:102F600002D00020FFF7DCFCFEF7BCF9800703D499
:102F7000FEF7B8F9800605D500220421032002F0EF
:102F8000EBFB0500280004D0290000BF01A001F0E0
:102F90008FFC70BD426C75654E52475F536C656522
:102FA000702829206572726F72203078253032784F
:102FB0000D0A0000F8B584B00425FEF793F9284205
:102FC00000D1B2E0894C2079C938092803D2022007
:102FD00002F003F907E0022002F006F92079D32875
:102FE00001DB002020712079401C20710027002087
:102FF00069468880002602F0C1F8002802D02078B7
:10300000002801D001272670E078A178B94205D0C8
:10301000A770380004270743282001E0010003D0EF
:10302000401E390004270F43E0702F4251D1062182
:1030300020000830FEF7E6FA21000831002001F0F8
:103040006AFFFA26B6006A4DA1690091A08968431B
:1030500000B23100FEF727FF0099081A02F074FF52
:1030600064A20CCA02F07AFF0022644B03F038F825
:1030700002F0DEFA694688806169009160896843E0
:1030800000B23100FEF70FFF0099081A02F05CFF52
:1030900058A20CCA02F062FF0022584B03F020F83D
:1030A00002F0C6FA0600019C24B255484242531C65
:1030B0009C4202DB6C46A28003E0844201DA6C464B
:1030C000A08034B29C4201DB160002E0844200DAA8
:1030D0000600019800B23043000401D1380027D027
:1030E00002A8FB2139400170019909B2417036B242
:1030F000019909B20905090D32030A43110A8170C9
:103100003109C1700021017102AB052201210120AA
:10311000FEF74CF9002803D10120FEF7DAF807E0AA
:1031200001003A4801F0C4FB02E0022002F05CF822
:1031300005B0F0BD80B5FDF7CDFCFFF73BFF01BD4D
:10314000F8B516001C0033000A0001002D4801F0FC
:10315000AFFB002554A704E0215C380001F0A8FB78
:103160006D1CE8B2B042F7D329A001F0A1FBF1BD7C
:10317000EC7F0610F07F06107CB506000C003100D5
:103180004BA001F095FB012C07D105216846FEF705
:1031900039FA6B460422012108E0062C0AD10321EA
:1031A0006846FEF72FFA6B46022206213000FEF732
:1031B00047F90500280603D0E9B2164801F078FB6C
:1031C00073BD0000F47F061080B5010040A001F03F
:1031D0006FFB01BD80B501000F48012902D0002915
:1031E00002D13C3001F064FB01BD0000D40200209C
:1031F000171100009A9999999999C93F00408F40F9
:1032000001F8FFFFAC410510F837051040410510EB
:103210000A000000FC3F05103439051080B5FEF7A8
:103220004FFC00BF32A001F043FB01BD18B585B0D3
:103230000CAC247804946C46A48D03946C46248DC5
:1032400002946C46A48C0194089C0094FEF743FC05
:103250002FA001F02DFB06B010BD80B5FEF76AFC73
:1032600001BD80B5FEF774FC01BD80B5FEF774FCAE
:1032700001BD80B5FEF786FC01BD1CB5049C009421
:10328000FEF789FC13BD80B5FEF7ADFC01BD80B52E
:10329000FEF7B8FC01BD80B5FEF7C8FC01BD80B5E6
:1032A000FEF7C5FC01BD00002578202D20000000A0
:1032B000476574205265706F72742043616C6C6254
:1032C00061636B204944203D2025640A0000000012
:1032D00050726F746F636F6C206D6F6465206368EC
:1032E000616E67656420746F2025780A0000000015
:1032F000446973636F6E6E656374696F6E20436FAC
:103300006D706C6574204576656E740A000000006F
:10331000436F6E6E656374696F6E20436F6D706C82
:103320006574204576656E740A000000F0B50546A8
:1033300000200F46079E059C174309D0202905D37E
:103340000127BF03BA4201D8914201D94220F0BD02
:10335000194621430AD09C42F8D309498C4203D034
:103360000849A41F8C42F1D2062BEFD3002D03D0C5
:10337000022D01D0032DE9D1032EE7D8F0BD0000C6
:10338000FFFF00007B0C0000F0B591B00C461AA9BD
:10339000E0C90021089109910A910B9119990491B2
:1033A00005A9E0C116A962C900930191134601461F
:1033B000039602952246022002F0F4FE040007D193
:1033C000042008A9087704480E900CA802F0A4FF76
:1033D000204611B0F0BD000020BF0200F0B58DB056
:1033E0000C4616A9E0C90021089109910A910B9198
:1033F0001599049105A9E0C112A962C90093019130
:1034000013460146039602952246012002F0CAFEA9
:103410000DB0F0BD0020704770B5054602F08EFF7C
:10342000002801D0462407E00448002400680C224C
:1034300029460C3000F014FC204670BDE803002043
:1034400070B51C4613460D46012C03D0022C03D048
:10345000422070BD022200E01022194600F000FC5C
:103460002C70002070BD7047FFB58FB014460E78E9
:10347000102205A8891CFEF78BF84F484F490068B9
:10348000451802F081FF00281ED1002C57D0012ED4
:1034900009D16846808A4A49884204D12846A968E9
:1034A000083081424BD1284610302969039081426F
:1034B00009D00AA9284602F083FF6846018D601EE4
:1034C0000D90814202D2482013B0F0BD284608304A
:1034D0000CA9049002F074FF6846008E002814D0F6
:1034E000EF680AA93846183002F06AFF38462030E3
:1034F0000CA902F065FF6846398D008D09186846F1
:10350000008E401C081887B200E00127012000044B
:10351000C01BA04201D26120D6E72C692868019027
:103520001298012802D0022803D008E00520C0022A
:1035300000E024486085012E03D0022E05D04220F1
:10354000C2E720460830022202E02046083010225E
:1035500005A900F085FB2046314620300646017360
:103560000F98214607802785039802F033FF2146F4
:10357000049800F026FC27461837E7616662A761C9
:1035800026620D9884B20BE02846019902F022FFD2
:103590003846019900F015FC2868641EA4B2019019
:1035A000002CF1D10F9801880D98081882B20020E4
:1035B00002F020FF002087E7E40300202C07000032
:1035C0000118000001280000F3B5A5B008881A9082
:1035D00088780C4611901022091D13A8FDF7D8FF1A
:1035E000A08A1090A17D68460172E07D0F90207E38
:1035F0002090677EA07E1F90002006460146129014
:1036000020A801810F20BB4C2390BB4920684018A3
:10361000199002F0B9FE00280BD10121109849023F
:1036200088425FD821A91A9800F0C0FC002802D077
:10363000602027B0F0BD2198179002F0FFFE1A9984
:1036400088420CD102A801901698009013AD0ECDBF
:10365000119802F0FBFE002801D06320E9E76846DC
:10366000017A8806800F05D0012012902068A030D2
:10367000007B4600C80703D01298401CB61C12906D
:10368000080603D51298401CB61C129017980DA975
:1036900018301D9002F094FE6846129C808EA41C87
:1036A000A04237D317980EA92030019002F088FE6F
:1036B0006846018F00290DD01798179A6B46406A0B
:1036C0009B8E128D5918808B5118081AA04201D276
:1036D0006120AEE71798846911982568012803D006
:1036E000022803D04220A4E7052000E01320E08355
:1036F0002A4639460F9802F0E1FE422899D0199FD8
:10370000E28B4037788B398B411A1098101880194A
:10371000814201DA48208CE70EA9019802F050FEA0
:103720006846008F0028179802D0406A808B00E01E
:10373000008D2599401C0880259801210088A083D0
:10374000259802220088401CA8836C4820812046CE
:1037500020301790C1700021817081711998398BC8
:10376000406D40186946A061097A0170A069294638
:103770001C31401C00F074FA11980128A0697DD01A
:10378000102213A9C01C00F06BFA2846102213A9BE
:10379000083000F065FA388B133038832E46203617
:1037A0001198F0701098E8831F98B07010982084DA
:1037B000109828841998398B406D4018A861002111
:1037C000109A00F053FA398B10980818388317991B
:1037D0000120087117990020487130716846007AFD
:1037E000810701D50121317101070227002902DA81
:1037F000317939433171410703D5317904221143BD
:103800003171400603D530790821084330710F9893
:1038100070712098B07121461D9802F0DBFD2146A1
:10382000019800F0CEFA29461D9802F0D3FD2946F2
:10383000019800F0C6FA1298002841D068461A99FB
:103840008181A18BC18107844784012408A8047168
:1038500022A80A9008A88473239941730F993820ED
:10386000014008A801730721C1730025057468464B
:10387000007AC00708D02248694600E02BE00882A1
:1038800003A924A800F03EF86846007A8006800F5D
:1038900007D01B486946401E088203A924A800F0EF
:1038A00031F86846007A00060AD5292109026846DF
:1038B000018208A84473057303A924A800F022F824
:1038C000259801881298401C081882B2002002F046
:1038D00091FD0020ADE6022213A9C01C00F0C0F942
:1038E0002846022213A9083000F0BAF9388B401D8F
:1038F00053E70000E40300202C0700000328000029
:1039000003290000F3B597B00D8848880590081D7D
:103910001DC80DAE1DC68C8ACE8A087E1390C8695C
:1039200020310190087800904878049088780390BE
:10393000C87802900F7902F027FD002817D10120E6
:10394000400284425FD8B4425DD8002F01D1B44216
:1039500059D114A9284600F029FB002806D115AA40
:103960001499059800F03AFB002802D0602019B0A5
:10397000F0BD149D11A92846183002F021FD10A8B1
:103980008088002810D0284612A9203002F018FDA7
:1039900010A8838800892A8D1818696A10188A8BE4
:1039A000904203D16120E2E74820E0E715982C4BD4
:1039B00002899A4227D12322125C012A23D100686E
:1039C00000681690139801281FD16846808E29221E
:1039D0001202801A030002F07DFD06041804040799
:1039E0000A18022C0FD110E0072C0CD10DE0042C8A
:1039F00009D3E00707D1012F07D1A64203D3042E34
:103A000001D3F00701D04220B1E702980B90039B4D
:103A1000049A0A9309920098019A0C9708900696C6
:103A2000059407920DA81DC8019002A81CC0139808
:103A30000B4600902A461699179802F059FD002867
:103A400095D168460649808EFF31884205D0179887
:103A5000018800200A4602F0CDFC002087E7000024
:103A600003280000F3B552480C460068514993B052
:103A700040180F902588618868468185A188018655
:103A800021461022083107A8FDF782FDA77902F030
:103A90007BFC00280DD16946888D098E884239D873
:103AA000002837D010A9284600F080FA002802D05C
:103AB000602015B0F0BD109D03A928461830059070
:103AC00002F07EFC68468089002831D028462030EC
:103AD000AC690DA9049002F073FC6846818E364AE9
:103AE000002913D06E46B6892B8D7618686A9B190B
:103AF000868BB34201D16120DBE70389934203D176
:103B00002030C078012801D06220D2E7012F03D0F5
:103B1000022F03D04220CCE7062000E00420E083FF
:103B20000F9E4036708B338BC01AE38B984201DABC
:103B30004820BEE7288D491C401813992546088067
:103B4000A083228101202035E8700F98318B406DD1
:103B5000022240180BA9A06100F082F8A06902229D
:103B60000CA9801C00F07CF8308B001D3083012FE5
:103B700008D1A069022207A9001D00F071F8308B5E
:103B8000801C30830020687101212971A870A87100
:103B90002146059802F01EFC2146049800F011F918
:103BA0001398018800200A4602F024FC002080E7D8
:103BB000E40300202C07000002280000704710B525
:103BC00002F042FD10BD7047F0B5224B224C1B683D
:103BD0001E193B249C4664011B191B7DDB0702D088
:103BE000B368083631E06220F0BD1C8D84420BD1F1
:103BF0002C20C05C012805D01020088008331360F9
:103C00000020F0BD0220F8E7844220D21D46203576
:103C10001C6A17E0A78B874211D123231B5D01206B
:103C2000012B06D123890D4DAB4202D16046A03055
:103C3000007BE38B43430B80A0691060E0E7874281
:103C400005D82468AC42E5D11B68B342CDD14120F0
:103C5000F0BD0000E40300202C0700000229000052
:103C600010B50400FDF794FC200010BD10B5040051
:103C70000800110002002000FDF7B4FC200010BD78
:103C800080B502F0FFFC02BDF7B5064636480F4688
:103C90000068364982B04418304602F003FD050042
:103CA00060D020462430009002F01AFD002859D13F
:103CB0002869000356D5009802F019FD04464FE02C
:103CC000A088B0424BD120223146002000F0BEF93E
:103CD000060018D0A068002F017B427B15D0334628
:103CE000049802F006FD002001222969D2049143C4
:103CF000296100282AD0692802D0304602F00CFD44
:103D0000002005B0F0BD6420FBE70A2906D00C298D
:103D10000AD00E290ED0082912D023E032462146BF
:103D2000284602F00FFDDFE732462146284602F022
:103D30009EFDD9E732462146284602F039FED3E7F8
:103D400032462146284602F0FDFECDE72146009886
:103D500003F062F80121204600F0A2F9CDE72468C3
:103D6000002CADD14120CCE7E40300202C0700005B
:103D700000207047044A092312681B02D218D26A35
:103D80004000801841707047E403002070B505467C
:103D90000024204603F062F8002801D0462404E005
:103DA000012D02D1012003F079F8204670BD422098
:103DB000704700230360436041720272C3728372D2
:103DC0007047086042684A6042681160416070470D
:103DD00004490A683B21490151180A7D02430A75CA
:103DE00070470000E4030020F0B5074617480E4670
:103DF00000683B2149014018007D85B01D461446EE
:103E0000C00706D003A9384600F0D0F800280AD130
:103E100002E0472005B0F0BD04AA3046039900F047
:103E2000DDF8002801D06020F4E70499228860883A
:103E30000968002A00D0088C32466E4631C603233A
:103E400039460020FEF714FBE4E70000E4030020FD
:103E5000F0B5454C092526682D027019006E002723
:103E6000416B4248AE368DB0814242D00621684651
:103E700003F015F869464879C0210843694648713E
:103E8000206806224019006E243003F019F8074616
:103E9000102105A803F003F8206810224019006ED5
:103EA00005A9001D03F00CF80743102109A802F032
:103EB000F6FF206810224019006E09A9143002F0A4
:103EC000FFFF0146394313D1206829494019006E8C
:103ED000264F40188008810026480818394604906B
:103EE00001F0E1FB04980068B84201D1002700E02E
:103EF000FB2722685019006EA6322430019006205C
:103F000001460090002003F005F8002802D1206847
:103F1000A6300190701D009A0199FFF7A1FE22685A
:103F2000102631460020803202F0F4FF002807D02E
:103F3000206832464119096E8030091DFFF790FE56
:103F4000226831460020903202F0E4FF002807D0BA
:103F5000206832464119096E90301431FFF780FE17
:103F600038460DB0F0BD0000E4030020AAAAAAAABA
:103F70003400FCEF0000041010B503490622096864
:103F8000B331FFF76DFE10BDE40300200A07920F66
:103F900001D0422070478A07FBD002788907890F39
:103FA0000A430270002070474220704710B5094A4A
:103FB000094B1268D2189368083206E01C8D8442BF
:103FC00002D100200B6010BD1B689342F6D1412046
:103FD00010BD0000E40300202C07000010B50B6AA0
:103FE000203106E09C8B844202D10020136010BD7A
:103FF0001B688B42F6D1412010BDF8B516460D4620
:104000000746002402F096FF002806D032462946D3
:10401000384602F0B5FF044604E0203568790028F0
:1040200002D00E242046F8BD2879C10701D1012E07
:1040300009D0810701D4022E03D04007F2D4042E08
:10404000F0D10324EEE70224ECE77047F8B50D4603
:104050000E49092309681B02C918CE6A1F21521E86
:104060000A431D3297B20024394602F0D9FF0028D6
:104070000AD13946B06802F0FBFF044608340068F4
:10408000A0600020E074A5802046F8BDE403002075
:1040900010B5121D806892B203F002F810BD70478F
:1040A000F8B50E460C490922096812028918083829
:1040B0000746CC6A03F02AF805463946A06803F0A3
:1040C0002FF872B67100605C401B60542079401973
:1040D000207162B6F8BD0000E4030020F8B5069C2C
:1040E0001F4615460646002C13D0A06802220D304C
:1040F000FFF7B6FDE81E82B23B460721204603F0DB
:104100002AF8E580A068012E05D01D21017300204A
:10411000F8BD4720F8BD1B21F8E77CB50C460546E5
:104120006A4601A903F020F8002801D041207CBD97
:104130006846E1888088814200D9E0800098008844
:10414000A080204602F0E8FA0098012D07D001690E
:104150000822114302229143016100207CBD0169C4
:1041600049084900F8E77047C378827841780078B9
:104170001B021A4309021204084310437047704798
:10418000F1B5194D00212868E030417403200099F1
:1041900003F012F801270446FF281ED000263046FF
:1041A000009903F001F9FF280DD0C10028680F4ADB
:1041B00009188918CA7937235A431018FF301B3061
:1041C0008770C470C8792A68E100891840062F22D8
:1041D000400E52018918C87100E007262868E030B7
:1041E00047743046F8BD0000E40300206C04000072
:1041F00070B58CB00024109D119E0A940B94049409
:1042000005940394069407940993089200900194EE
:10421000029433462A46042001F0C4FF0CB070BD5E
:10422000002000B58DB00A900B9008900990059081
:104230000690079004900090019002900346024679
:104240000146039001F0AEFF0DB000BD70B592B015
:104250000646202221A101A8FDF780F9202109A806
:10426000FDF7D0F90A216846017000242546694609
:1042700001A803F0DBF86846027801A909A8FFF756
:10428000EFFC01A824E0015D491CC9B2914223D88A
:1042900003195B78B34214D16B461A78521A61182D
:1042A000C9B24118D2B209A81A704019FFF7D8FC58
:1042B0006B4618782818C1B209A803F0D3F812B0D9
:1042C00070BD521A6B461A7062186918D4B2CDB21A
:1042D00069460A78002AD6D11F20F0E702FF0102C2
:1042E000010403028FFC0000000000000000000039
:1042F000000000000000000000000000F3B585B0E1
:1043000002884488818801913C4FC68805893B21F9
:10431000386849014018007DC00767D0012040027D
:10432000854215D869461046FFF740FE002862D145
:1043300002AA20460099FFF751FE00285BD102999E
:104340002F480A89824203D12322525C012A02D0DB
:10435000422007B0F0BD09680C680099203148E0A0
:104360002289824203D12322125D012A43D0A38BEA
:10437000019A93423CD12046203003908178002955
:1043800003D1E08BAA19904205D201292ED1208CAD
:10439000A91988422AD3012001900398C0780128E6
:1043A0000AD117492089FF31884205D13868A030E9
:1043B000007B002701900AE000273846A169684386
:1043C00008182A460699FFF74BFC7F1CFFB201989C
:1043D0008742F2D303988078012805D1002E02D0BD
:1043E000208CE08300E0E5830020B2E74720B0E7BF
:1043F00024688C42B4D16020ABE70000E4030020C5
:104400000328000010B50920C00600690002000A58
:1044100003F064F810BD7047074A914202DC524233
:10442000914200DA1146FF22993251430A12511883
:104430000A14511808187047FFFF4F001FB56A464D
:104440003A3010736846029103F05AF8002800D001
:10445000012004B010BD704770B5144EE1223168E0
:10446000D2008D182C681DE0017B227B914218D16F
:104470002146284601F0AEFF284621460830FFF7C6
:10448000A0FC207B3A2803D220352878401E2870D3
:1044900072B63068DF224030C1791140C17162B616
:1044A00070BD2468AC42DFD170BD0000E403002081
:1044B000FEB50488418801918688C78800890090EC
:1044C000204603F057F8050066D0E878002863D04E
:1044D000A8780007400F01D046255EE02022214643
:1044E0000020FFF7B3FD040048D001992C48891F34
:1044F00081424BD8B11F814248D80198B04245D87B
:10450000FF20F530874241D20099781C7043890022
:1045100088423BD822490098091F0A38884235D87A
:10452000A06812210173A068E9784173A06808218E
:104530008173A0680021C173A06801990174019979
:10454000A068090A4174A068310A8674A068C17421
:10455000A068390A0775A0684175A068009981753F
:104560000099A068090AC1750C20E0802146052049
:1045700003F01AF8002803D0412508E064250CE078
:10458000A87806210843A870002506E042250021EE
:104590002046FFF785FD00E042252846FEBD0000CD
:1045A0007A0C000000B50005000D02F0C3FC0028E5
:1045B00006D0017B0A07920F022A03D0462000BDD5
:1045C000402000BD0C2211430173002000BD704744
:1045D000304A0129116802D10843106070478143B5
:1045E000116070472C4802782C4801880020002A6E
:1045F00044D109220A40092A00D1202011220A4070
:10460000112A02D102004020104321220A40212A0F
:1046100002D102008020104341220A40412A03D1E6
:10462000020080204000104381220A40812A03D1E9
:104630000200802080001043FF22921C13000B40D8
:10464000934203D102008020C0001043144A13009B
:104650000B40934203D10200802000011043052249
:104660000A40052A02D10200102010438907890F51
:1046700003290ED10100082008437047022A01D106
:1046800001207047042A01D102207047082A00D176
:104690000420704720009040080090400800104817
:1046A00001040000F0B502781F230124817800295D
:1046B00021D0417852B2D50018262E40FF27B740AE
:1046C000FD438907090EB140160004D5134A360789
:1046D000360F083E00E0124AB608B6009219166876
:1046E000354029431160007803409C400D49400942
:1046F00080000C50F0BD13409C400B4851098900CC
:104700004450F0BD09490028086803D00422024340
:104710000A60704704229043086070471CED00E077
:1047200000E400E000E100E080E100E010ED00E0E6
:10473000F0B5047922000021574B002C04D11C68ED
:104740000568AC431C6006E0062C04D100221C68FE
:10475000056825431D600568CD40ED0738D508295B
:1047600009DA8D009E6A0F27AF40BE431700AF40A5
:1047700037439F622CE00D00083D082D0BD20D0041
:10478000083DAD00DE6A0F27AF40BE431700AF40C3
:104790003743DF621CE00D00103D082D0BD20D00E9
:1047A000103DAD001E6B0F27AF40BE431700AF405A
:1047B00037431F630CE018290ADB0D00183DAD00DC
:1047C0009E8E0F27AF40BE431700AF4037439F86F2
:1047D000491C1A29BFDB01684279012A9A6802D173
:1047E0001143996001E08A439A6001688079012849
:1047F000586802D101435960F0BD88435860F0BD4C
:104800000021016001718171417170478021C905EA
:104810003BE0224A012901D1106070475060704787
:104820008021C9050A6850400860704702681C4929
:104830004368012B0B6802D11A430A6001E09343DD
:104840000B6082680368012A03D18A6813438B6076
:1048500004E0002A07D18A689A438A604A6800689F
:1048600082434A607047486803434B6070470D4A73
:104870000029116802D0084310607047814311601D
:10488000704709490860704708490968084000D026
:104890000120C0B270470000040000403C0000400E
:1048A000100000401C000040280000402400004090
:1048B0000EB4C0B5020003A801900020009001AB27
:1048C0000121044878440C3002F094FE029906B0AD
:1048D000084700BF3B03010078B585B00400012103
:1048E0006548FFF775FE1020009004256E4635716F
:1048F0000020B07170716846FFF71AFF2020009009
:1049000035716846FFF714FF02A803F08DF9012006
:1049100002A908710294594C200003F02BF9584960
:10492000200003F0B1F9002006B070BDFCB583B0E3
:10493000060017000025684605804180858080219B
:104940004901C180890001816946097C491C418176
:104950004A4C200003F083F9200003F085F9012878
:10496000FAD06946200003F067F93900FFE720001C
:1049700003F071F937006846067C04E0395C2000DA
:1049800003F069F96D1CE8B2B042F7D3200003F0E0
:104990007DF903280CD080210903200003F06CF975
:1049A0000028F3D03749200003F06EF9002000E022
:1049B000012005B0F0BDFFB583B000266C4626800F
:1049C0006846007C6080A68080204001E0802681CF
:1049D00001276781294D280003F041F9280003F0E1
:1049E00043F90128FAD06946280003F025F9684602
:1049F000017D280003F02FF9280003F047F9032870
:104A00002CD03907280003F037F90028F4D03907F3
:104A1000280003F039F927806846007C6080A68072
:104A20003803E080800020816846007E608169460E
:104A3000280003F001F9039E6846047E280003F075
:104A400025F903280AD0F904280003F015F90028F5
:104A5000F4D00C49280003F017F906E0012009E022
:104A6000280003F0FAF83070761C2000441EC0B213
:104A70000028F5D107B0F0BD010400000000A040FF
:104A80007F809F730000081080B51000DBB20A0021
:104A90005D21FFF790FF02BD80B51000DBB20A0078
:104AA0005D21FFF743FF02BD38B505000C0001236F
:104AB00000AA521C1021FFF7E7FF002805D10123AF
:104AC0006A4611212800FFF7DFFF002810D1684651
:104AD00040788F2101402001702202400A4368463D
:104AE0004270012300AA521C10212800FFF7D4FFB6
:104AF000002812D168460078FC210140E00802221B
:104B000010402207D30F03430B4368460370012371
:104B10006A4611212800FFF7BFFF32BD38B50500F6
:104B20000C0001236A460E21FFF7AEFF68460078AD
:104B3000FB210140A0000422104008436946087090
:104B400001236A460E212800FFF7A6FF32BD38B5C3
:104B500005000C0001236A460E21FFF795FF00288F
:104B600012D1684600787D21014060000222104089
:104B700008432109C90101436846017001236A46BF
:104B80000E212800FFF788FF32BD38B505000C0064
:104B900001236A460B21FFF777FF00280FD16846F3
:104BA0000078FB210140A000042210400843694620
:104BB000087001236A460B212800FFF76DFF32BD04
:104BC00038B505000C0001236A461121FFF75CFF90
:104BD00000280FD168460078DF21014060012022C3
:104BE000104008436946087001236A4611212800D5
:104BF000FFF752FF32BD38B505000C0001236A46AD
:104C00001121FFF741FF00280FD168460078BF212E
:104C10000140A0014022104008436946087001236A
:104C20006A4611212800FFF737FF32BD80B510001A
:104C3000022B02DB0A0080211143DBB20A0007E0ED
:104C400080B51000DBB20A001E21FFF76FFE02BD27
:104C50001E21FFF7B0FE02BD38B505000C00012390
:104C60006A466021FFF7E2FF68460078FC210140B8
:104C7000A007800F00E01040084369460870012338
:104C80006A4660212800FFF7DBFF32BD80B51800BF
:104C9000022A02DB0B0080211943D3B20A005F21F4
:104CA000FFF789FE02BD80B51800D3B20A005F216C
:104CB000FFF73CFE02BD38B505000C0005D0012C05
:104CC00003D033490E4800F065F86B4601222021DD
:104CD0002800FFF7DBFF00280FD168460078400668
:104CE000400EE1010143684601706B46012220211C
:104CF0002800FFF7D8FF002800D0012032BD0000B7
:104D0000243C051038B505000C0005D0802C03D0DC
:104D10002549244800F03EF86B4601222221280054
:104D2000FFF7B4FF00280ED1684600784006400E19
:104D30000443684604706B46012222212800FFF7D5
:104D4000B2FF002800D0012032BD38B505000C00AC
:104D500005D0402C03D01549124800F01BF86B46D3
:104D6000012222212800FFF791FF00280ED168467A
:104D70000078BF2101400C43684604706B46012255
:104D800022212800FFF78FFF002800D0012032BD2C
:104D90006102000080B50A0001000548FFF788FDA8
:104DA000FEE70000243C05100E030000390300005C
:104DB0004C42051080B51000DBB20A006B21FFF7F2
:104DC000FAFD02BD80B51000DBB20A006B21FFF7CF
:104DD000ADFD02BD38B505000C0001236A46102167
:104DE000FFF7E8FF68460078F3210140A0000C229D
:104DF00002400A436846027001236A46102100F00F
:104E000011F938B505000C0001236A461021FFF79F
:104E1000D1FF684600780007000F21010143684672
:104E2000017001236A46102100F0FCF838B5050036
:104E30000C0001236A461121FFF7BCFF6846007889
:104E4000F121014060000E2202400A4368460270D0
:104E500001236A46112100F0E5F838B505000C0081
:104E600001236A461121FFF7A5FF68460078000775
:104E7000000F210101436846017001236A46112198
:104E800000F0D0F838B505000C0001236A46122165
:104E9000FFF790FF68460078BF210140A001402243
:104EA000104008436946087001236A46122100F049
:104EB000B9F838B505000C0002236A461421FFF743
:104EC00079FF684601784906490E6208D2010A4313
:104ED00002704178EF220A4021011023194011434A
:104EE000417002236A46142100F09CF838B5050091
:104EF0000C0001236A461621FFF75CFF6846007824
:104F00004006400EE10101436846017001236A46F4
:104F1000162100F087F880B50A000623222100F050
:104F20004BF838B505000C0001236A460121FFF754
:104F300041FF684600788006800EA1010143684663
:104F4000017001236A46012100F06CF838B50500B4
:104F50000C0001236A461221FFF72CFF68460078F7
:104F6000FE210140E007C00F084369460870012395
:104F70006A46122100F056F81CB50C0001236A465F
:104F800012211CE038B505000C0001236A461221ED
:104F9000FFF710FF68460078FB210140A0000422C3
:104FA000104008436946087001236A46122100F048
:104FB00039F80A0001231E21FFF7FCFE02BDFFF7AE
:104FC000F9FE69460978CA07D20F227016BD38B5B6
:104FD00005000C0001236A461821FFF7EBFE684626
:104FE0000078FD210140E00940000843694608704F
:104FF00001236A4618212800FFF7E4FE01236A46D0
:1050000062212800FFF7D6FE68460078E7210140BC
:10501000E000182202400A436846027001236A46F3
:105020006221FFE72800FFF7CDFE32BD38B505004D
:105030000C0001236A461221FFF7BCFE6846007887
:10504000EF210140200110221040084369460870FA
:1050500001236A461221E5E738B505000C0001235B
:105060006A461221FFF7A6FE68460078DF2101405C
:1050700060012022104008436946087001236A46F7
:105080001221CFE738B505000C0001236A46132131
:10509000FFF790FE68460078DF2101406001202282
:1050A000104008436946087001236A461321B9E796
:1050B00038B505000C0001236A465621FFF77AFE39
:1050C00068460078BE210140E007C00F0843A101F7
:1050D0004022114001436846017001236A4656216F
:1050E0002800FFF76FFE02212800FFF71AFF0123B7
:1050F0006A4617212800FFF75DFE684600784006E3
:10510000400E6108C90101436846017001236A46E7
:10511000172100F000F82800FFF754FE00212800B6
:10512000FFF7FFFE32BDE0B501210120FFF750FA85
:1051300080200001009000206946888088716846C0
:10514000FFF7F6FA07BD7FB50C000026684606702B
:105150000321417001218170FFF7A4FA80252D0100
:1051600001950296039401A8FFF760FB2800FFF762
:1051700088FB01212800FFF77AFB7FBD80B58020E6
:105180000001FFF743FB002800D0012002BD0128E9
:1051900002D0022803D004E08020C0017047012023
:1051A0007047082070471CB5040001210120FFF75B
:1051B0000FFA2000FFF7EBFF00906846062101710F
:1051C0000021817101214171FFF7B2FA2000FFF740
:1051D000DEFF0121FFF71DFB13BD80B5FFF7D7FFF1
:1051E0000021FFF716FB01BD80B5FFF7D0FF0121BD
:1051F000FFF70FFB01BD80B5FFF7C9FFFFF710FBFD
:1052000001BD70470E480168491C016070470D4898
:105210000D4941600D490A681202120AC0231B069B
:1052200013430B600021816007210160704704492E
:105230000A680B689B1A8342FBD37047000000008A
:105240006408002010E000E07E3E000020ED00E059
:105250009D2102000AD002D4491E9218FCD5C9052E
:10526000100A1206524100D3012A4841704700003B
:105270009D210200EED55242F446FFF7EBFF0122DA
:10528000D207104360470122D20703004B402ED4BF
:10529000431A01D2C01AC91830B44B180418240E8E
:1052A0001B0E22D0FF2C20D0E31A182B1DDC090284
:1052B0001143C40D641E0002104394461925ED1AD3
:1052C0000A00AA40D940451801D36D08A41CE40582
:1052D000D209280A2D062A436546AA4160410318CF
:1052E0001B0EFF2B01D3C00DC00530BC70475140D1
:1052F00006E05140CCE70122D20703004B40F8D42E
:10530000431A03D2C01AC9185040514030B44B1848
:10531000090211430418240E1B0E40D0FF2C3AD072
:1053200025009D410BD31ED8C50D4002401A0BD35A
:10533000ED050100400AC90591416841D5E7C50D59
:1053400040024918401AD0D001214008491C0018D9
:10535000FCD58C4204D36D1A000AED054019C4E750
:10536000E8051040C1E7182DBFDCAC1C0D00E14082
:10537000E5414D40012D4941C40D00021043451A3D
:1053800001D46D199543641EE405280A2D06954144
:10539000604130BC7047FF2BA7D1D843A5E724421A
:1053A000A3D10020A1E730B405004D400122D2076F
:1053B00015404B180418240E28D01B0E2FD0FF2C9C
:1053C00034D0FF2B37D0E41A0002090210431143F6
:1053D00043084808D10D1B1A02D2641EDB181B18A3
:1053E000DB18834200D31B1A4941F9D37F3426DDF1
:1053F000FE2C08DAE4054808C907194391416041C9
:10540000284330BC7047FF20C005F9E728001B0E79
:1054100003D0FF2BF5D14902F3D0D043F1E7FF2CA5
:1054200001D14002F9D1FF20C005E9E74002F4D1E3
:10543000FF2BF8D1F1E728004902E2D0EDE70B029B
:1054400000202442DCD15B129B1CD9D9D805D7E7B8
:1054500030B405004D400122D20715404B18041806
:10546000240E2ED01B0E32D0FF2C34D0FF2B3AD07E
:10547000E4180002090210431143000A090A944685
:10548000C2B24A43000AC3B24B43000A4843110A5E
:105490005B181A43D2B2190A091801D44918641EBC
:1054A000080A7F3C23DBFE2C08DAE40509061143D9
:1054B000634699416041284330BC7047FF20C005D6
:1054C000F9E728001B0EFF2BF6D1D043F4E72800A4
:1054D000FF2CF1D1F9E74002F7D1FF2B01D14902AE
:1054E000F3D1E005E7E7D8054902E4D0EDE7430250
:1054F0000020641CDFD15B129B1CDCD9D805DAE7E5
:105500000122D2070118090E7F3910D449421F31F8
:105510000FD4001805D2C0011043C84000D5D043B5
:105520007047C0011043C84005D440427047002076
:1055300070470042F3D510007047704701221206F1
:105540000118CA420AD28A420DD838221206090925
:105550008918C20FD20711434007704700D049088D
:105560000909014301E0C10FC9070020704701226A
:1055700052054B1850D2D3424DD25B0D4BD030B4B4
:105580001C05A14355082943D40AE41E1B195B08D6
:1055900001D3001849411B059C466C19091B0018D2
:1055A000494100184941641900239202491B07D45C
:1055B0006D081DD2091B641900184941491BF7D514
:1055C0006D080AD20919641B00184941491BEFD51F
:1055D0006D08F7D301E0520817D0C01861419B1A3B
:1055E000AC4100184941801AA941F4D452080AD0AC
:1055F000C01AA1419B186C4100184941801AA94169
:10560000E9D45208F4D15B1C6C415808E2071043FE
:105610006108614430BC7047C90FC907580DFAD002
:10562000C943D342F7D800B500BF00BF00BD7047E3
:10563000F4464A1805D200F00FF801D5801740084B
:10564000604700F009F80121C907884200D9080025
:10565000404260474A1812D2400DC9020843012156
:10566000C9070843520D40210901521A521C06D4A1
:1056700052421F3201D4D0407047C01770470020FB
:105680007047704710490968104A91420AD1104981
:105690003F220A814006000C886111200880088A98
:1056A000C007FCD57047084A1268084B9A420AD1D5
:1056B000074A3F23138180089061116433201080D2
:1056C000108AC007FCD5704714000020CCBCECFC4D
:1056D0000000104070B502F0E9FA1D4C0125206869
:1056E000ED0241190979002909D1A0300079C007DC
:1056F00027D002F069FB02F09DFB02F0A9FB02F04B
:105700002DFC2068014640310A78C9798A4317D1B7
:105710003E21095C002913D10E490A8812070FD5D2
:105720000922D2061269497A836A4019006FC900BA
:10573000801A000259180012814201DA02F070FC4E
:1057400070BD02F019FD02F037FD02F003FED2E752
:10575000E4030020C0000020F1B5FFB093B00C00BE
:105760001500EFF31080189072B600209F49087062
:1057700002F0BEFE060092A8007802F013FF694610
:10578000087092A8007802F036FF92A90978884242
:1057900000D9080069460978814200D901008E428B
:1057A00000D90E006846067091486946097889005C
:1057B0004018416D491C41656846007800280AD0B0
:1057C00068460078012807D18A48007A0021894A72
:1057D000117230BF10727BE368464470E148057077
:1057E00068464078DF49087101A802F01BFFDD48D8
:1057F000007A6990804800886890804800686790C7
:1058000000208AAB7E4F81007A585A50401C0828ED
:10581000F9DB7C48C06966907B488069659080258B
:10582000ED052868649068686390A8686290E868ED
:1058300061902869609068695F90A8695E90E869E6
:105840001C90E86A5D90286B5C90686B5B90288F79
:105850005A90686C59906D48006858906B48007C6D
:1058600057906A48008B56906848007F559068486A
:10587000007854906648406853906548007A52908A
:105880006348808951906248007F50906148007859
:105890004F90604800794E905E48007A4D905D4888
:1058A000007B4C905B48007C4B90C54800684A9058
:1058B000C34840684990C248007C4890C048007D79
:1058C0004790C04800784690BE4880884590BD48C3
:1058D00080684490BB48808943900022BA4C1005F0
:1058E000011990000B6816AE33504B6814AE33505C
:1058F0008B8B12AE33500B8C10AE33508B8C0EAEA4
:1059000033500B8D0CAE3350CB6A0AAE33504C2360
:10591000CB5A08AE33504C314B6806AE3350C96891
:1059200004AB1950521C012AD9DDB02000060068D2
:105930004290A64800684190A44840684090A3481F
:1059400080893F90A148008A3E90A04840693D90E0
:105950009E48007E3C909D48808D3B909B48006B0C
:105960003A909A48406B39909848806B38909748A5
:10597000C06B37909548006C36909448406C3590D9
:105980009348008834909248808833909048007BF8
:1059900032908F48007C31908D48808A30908C48BE
:1059A000007E2F908B4800882E908A4880882D900A
:1059B0008848007B2C908748007C2B908548808A03
:1059C0002A908448007E2990834800682890824865
:1059D000406827900748006826900648007A25907E
:1059E0007E480068002817D17D4816E00C00002092
:1059F0005C000020000070400400104000E100E066
:105A000000E400E004ED00E0080090400C003040AD
:105A10002C0030405000304000201B900022714884
:105A20001A90142050431A994018910043687AAE96
:105A30007350036882AE7350836872AE7350C0684F
:105A40006AAB5850521C082AE9DB8120C005406827
:105A500024908120C005007B23908120C005408BCD
:105A600022908120C005008B21908120C005406AD2
:105A700020908120C005806A1F908120C005008889
:105A80001E90594800681D9068460078032806D18A
:105A900056480068C021890501435448016000212F
:105AA0005348006850381990CD4A10651046026D71
:105AB00013688E008351491C121D02651429F6DB00
:105AC00028480079274909782A68520A51408843B2
:105AD0006ED101A84078000101A9897801431129FC
:105AE00004DD00204349086002F088FE3F4800685A
:105AF000414908600120FEF705FE02F0ADFF0020DD
:105B0000FEF700FE3D4E3E480078002800D081E0C0
:105B10003C480068400636D43B480268394B196857
:105B20005140C948394C2468056AAC421FD11B68F2
:105B30009A4203D0C54A12680A4018D1344909680C
:105B40008022520513000B400468224093420ED17C
:105B50008022D204114000680240914213D01E48B6
:105B600002E000BF00002040006880070BD51F49FD
:105B7000C8680209D01C80235B03984219D2CA6806
:105B800012098242FBD301A84178090180780843B9
:105B9000112805DD012002F031FED14815490860C9
:105BA00068460078032803D1104801680E4006605B
:105BB0008EE1C8680009CB4BD3189842F9D1E2E7CF
:105BC00000004040240040400000A0400400F0409D
:105BD0000400D0400400E04010E000E0000C704001
:105BE00051E5CC1A080000A0080000C004000048DD
:105BF000000804101400002018000020FFFFFFCF51
:105C00000C00002000E200E0740800207008002072
:105C10006C0800200120B449088200208880886038
:105C200000226F4919980865086D9300CB580360EE
:105C3000521C001D0865142AF6DB6898AB490880E1
:105C4000679882490860002081008AAA52587A50D9
:105C5000401C0828F8DB66987B49C8616598A44910
:105C6000886164982860639868606298A860619809
:105C7000E8605E98A8615F986861609828611C98E8
:105C8000A8621C98E8615D98E8625C9828635B985C
:105C900068635A98288759986864964858990160AB
:105CA0005799017456990183559901772030549979
:105CB00001705399416052990172519981815099B3
:105CC000017724304F9901704E9901714D990172FD
:105CD0004C9901734B99017487484A99016049991D
:105CE00041604899017447990175243046990170C3
:105CF00045998180449981604399818100221005F2
:105D00000119900016AB1B580B6014AB1B584B606D
:105D100012AB1B588B8310AB1B580B840EAB1B585C
:105D20008B840CAB1B580B850AAB1B58CB624C31D8
:105D300008AB1B580B8006AB1B584B6004AB1858C4
:105D4000C860521C012ADADD4298B02109060860B9
:105D50006A492798486000208860289A0A60684944
:105D6000419A0A60409A4A603F9A8A813E9A0A8222
:105D70003D9A4A613C9A0A763A9A0A63399A4A638A
:105D8000389A8A63379ACA63369A0A64359A4A649B
:105D90003B9A8A855B49349A0A80339A8A80329A80
:105DA0000A73319A0A74584A309B13408B822F9B96
:105DB0000B7656492E9B0B802D9B8B802C9B0B7357
:105DC0002B9B0B742A9B1A408A82299A0A76504987
:105DD000269A0A60259A0A721B994E4A02E000BF71
:105DE0005C0000201160142141431A9A8918820036
:105DF0007AAB9B584B6082AB9B580B6072AB9B5845
:105E00008B606AAB9A58CA60401C0828EBDB812083
:105E1000C0052499416023990173229941832199F6
:105E20000183209941621F9981621E9901801D980A
:105E3000394908602E480078002834D168464078F7
:105E4000002830D0284803E004ED00E000E100E045
:105E5000018809220A40092A02D1E96989051FD46B
:105E6000018811220A40112A02D1E969490517D493
:105E7000018821220A40212A02D1E96909050FD4AB
:105E8000018841220A40412A02D1E969C90407D4A4
:105E9000008881210140812905D1E869800402D56B
:105EA00001201E49086068460078032803D11C4879
:105EB00001680E40066069981A49087268460078C1
:105EC000032801D1012100E00021002002F0B6FCEE
:105ED000189880F3108800207FB014B0F0BD000047
:105EE000CCBCECFC0400F0FF08001048040010409B
:105EF000080090400C0030400000404010E000E0FE
:105F00000400F0400400D040BFFF00000400E04067
:105F100000007040000C7040080000C000E200E08B
:105F20000400004800002040010042221201D21E5D
:105F3000004207D002D4521E0018FCD5C10A400509
:105F400012058918704700000100EED54042F44662
:105F5000FFF7EBFF0122D20711436047F0B50E00B7
:105F60005E400125ED072E40B446AE0ADF184C18FE
:105F7000F44208D2F7420ED2640D01D07F0D12D147
:105F800000206146F0BD05D1F74201D87F0D05D153
:105F90000020C143F0BDFBD1640DF9D00020C14306
:105FA000490549088FE0E419C902DB0229432B4364
:105FB000DB0A460DC00231438E4630B487B295B23B
:105FC0007D432E0CADB2140C7C43A419260C240482
:105FD00025439CB27C43A419190C7943270CC91999
:105FE000A4B20F043C43090C000C97B247432E0C9B
:105FF000BE193543ADB2170C4743360CBF19A6B2D4
:10600000BF193E043543240C3E0C36199FB247435A
:10601000BF19BCB23E0C89191F0C47437F183E04C0
:106020003443390C704680B297B247432E0CBE19E8
:106030003543ADB2170C4743360CBF19A6B2BF1992
:106040003E043543240C3E0C36199FB24743BF191A
:10605000BCB23E0C89191F0C47437F183E043443E1
:10606000390C77463F0C90B278432E0C8019060409
:10607000ADB22E43050CA0B22D18120C7A43501964
:10608000020C80B2240CA4189AB27A431219140498
:106090002043120C89181B0C7B43C91830BCEF0A33
:1060A000394203D1B61940414941641E6F12BF0DF8
:1060B000E41B0BDBFF19BC4211DA24050027420860
:1060C000AE417841614166463143F0BD641C05D163
:1060D000401C6141CF0201D34908F4E750E75DE776
:1060E000F0B40E005E400125ED072E40B446AE0A26
:1060F000DF184C18F4423BD2F74241D2640D43D032
:106100007F0D38D0E41BC902DB0229432B43CF0AA1
:10611000DB0A0600B61A9F4104D2641EB6197F41FD
:10612000B6185F416812800D24180018844222DAE4
:10613000E80C0021B6197F41B61A9F4102D2B61869
:106140005F413F1C40414941F4D3241C21DD24051B
:10615000B6197F41B61A9F4105D33743C607374367
:106160000026012F7041614166463143F0BC704703
:10617000FCD1F74205D20020C14349054908F3E7A5
:1061800004D00020C143F1E77F0DFAD00020614622
:10619000ECE72442FAD1401C61410F03F6D3002002
:1061A000E2E70000FFB595B00E46054620210CA899
:1061B000FBF728FA00200490564800270468681E60
:1061C000AE34042802D8A078C0070BD0062D02D028
:1061D000002D0AD002E0A078800703D5E0784006C1
:1061E000800E0AD0462019B0F0BDA0788007F9D003
:1061F000E0784006800EF5D00FE0002D0DD0012D87
:1062000020D0022D28D0062D33D0032D33D0042DDD
:1062100037D0002E3BD04220E5E7002002F06AFC98
:106220000028E0D1E078800708D50420694608738B
:106230006846FEF711F9022002F06AFD0120E070C5
:106240000020D0E7012EE6D0042EE4D01F980028CD
:10625000E1D10627042008E0012EDCD0042EDAD09C
:106260001F980028D7D105270220E0700120049054
:1062700010E040200DE0022E01D0032ECBD10820EB
:1062800007E0012E01D0042EC5D1102001E0042723
:106290002020E07000230BAA19461E9802F060FD32
:1062A000030002D002F04CFE32E01022002107A8C9
:1062B000FDF7DCFC07A86C46279B269A1F990FC4A4
:1062C0002B463046189A179902F044FE0300E9D194
:1062D00008A8017BC170259803AC049B289A2999D2
