:020000041004E6
:1008000000600020D13605100F330510113305109C
:10081000AA5555AA45554C420000000000000000B2
:10082000000000000000000000000000133305106D
:1008300000000000000000005B20041015330510CC
:100840001D3305103B3004100000000000000000C4
:10085000213305109B370410293305102B40041059
:100860000000000000000000000000000000000088
:10087000000000000B420410A74B04103F4D041071
:10088000000000001F3C0410733C04103B3D0410AA
:10089000533D0410EB3F0410F34E04101F330510BA
:1008A0000000000000000000000000000000000048
:1008B0000000000000000000000000000000000038
:1008C00076B588B004001D0005A8801C50A10A88D8
:1008D0000280042C01DD422098E00F9A06210020BE
:1008E00000F050FE0100F7D100F050FE0100F3D1FE
:1008F00004A8801C019005A8009004ABEAB2002176
:10090000012000F047FE0100E6D1022208A906A856
:1009100000F058FE06AE08A8801CB11C02780A70D0
:1009200042784A70022208A8011D301D00F04AFEDC
:1009300008A8801DB11D02780A7042784A7006A886
:1009400003900820029000200190082000900023CE
:100950000A226846018A002000F05BFE0E98039090
:10096000E8B2029000200190EDB2009500236846A5
:10097000828A018A002000F04CFE05A8801C0390AA
:10098000022002900020019002200090002368467F
:10099000428A018A002000F03CFE0421012000F080
:1009A00049FE010032D1200000F048FE05005E4EF5
:1009B0005C21300000F05AFE347030004C30694643
:1009C000098C018008A94988418008A9898881800B
:1009D00008A9C988C180554C002020706070684605
:1009E0000021017061784170009801F02FF80090AB
:1009F00068460178217041786170102020701120C4
:100A000060701021002000F057FE28000AB070BD71
:100A1000C0030000F4B58EB007000C004448056820
:100A200007A800BF2AA10A6802603F4E22000E9963
:100A300030002F3000F0E0FD2E20345408A80921AA
:100A400001702E21725C0E99401C00F0D5FD07A8A4
:100A50001221417018218170344C2078102801D067
:100A60000C2532E00020002129706F70A8702E2024
:100A7000305C401C012F0691059107A904910DD10E
:100A80000321039108A90291C0B2019000200090B7
:100A900000235022302101F037F90CE003210391AB
:100AA00008A90291C0B201900020009000235022BA
:100AB000302101F04AF9050007D1202020702120C3
:100AC00060702021102000F0F7FD28000FB0F0BD6D
:100AD000020000001CB5154C684621780170617851
:100AE0004170009800F0B2FF0090684601782170D4
:100AF0004178617013BD00B585B00E4B18704B1E68
:100B00009B41DB0F0021049103920293102101917C
:100B100007210091002300220100012001F036F995
:100B200005B000BD00000000F40300205C040020BC
:100B30005004002016040020F6B59DB00F00417847
:100B40006A4611760678034813A90880300003D05E
:100B5000052302E00F1800000423AA480090012298
:100B6000012001F05DF9010055D10425A64C222099
:100B7000205C002800D00525A44869468887201DF0
:100B80000590002004901020039000200290019511
:100B90001220009001230FAA0121608801F05BF967
:100BA000010038D1002E23D06846007EA0719848FD
:100BB0006946888509A8801C097E01700121417061
:100BC0000AA80890002007901020069000200590A9
:100BD0000491039509A8801C0290022001900090C6
:100BE0000BAB0122A188608801F054F9010012D1F9
:100BF000642009A9087009A8039001200290002030
:100C00000190012000900023A2886188002000F05C
:100C100000FD010002D0010000D080E3B948694620
:100C20008885794C2000083000900B2301220BA905
:100C3000012001F0F5F8010052D104252220205CAA
:100C4000002800D00525B0486946888306A805908D
:100C500000200490102003900020029001950220B3
:100C60000090092307AA0121208901F0F4F801006E
:100C700036D10397092002900020019009200090AE
:100C800000236846028B2189002000F0C2FC01008D
:100C900026D19E486946888306A8059000200490C6
:100CA0001020039000200290019502200090042360
:100CB00007AA0121208901F0CEF8010010D13800E7
:100CC000093003900420029000200190042000903D
:100CD00000236846028B2189002000F09AFC010065
:100CE00077D18B486946888306A805900020049038
:100CF0001020039000200290019502200090042310
:100D000007AA0121208901F0A6F8010061D138006D
:100D10000D300390042002900020019004200090E8
:100D200000236846028B2189002000F072FC01003C
:100D30004FD178486946888306A805900020049022
:100D400010200390002002900195022000900423BF
:100D500007AA0121208901F07EF8010039D138006D
:100D60001130039004200290002001900420009094
:100D700000236846028B2189002000F04AFC010014
:100D800027D165486946888306A80590002004900D
:100D9000102003900020029001950220009007236C
:100DA00007AA0121208901F056F8010011D138006D
:100DB000153003900720029000200190072000903A
:100DC00000236846028B2189002000F022FC0100EC
:100DD00001D0010050D151486946088520005430A7
:100DE0000090062301220AA9012001F019F8010050
:100DF00041D104252220205C002800D00525CC48C4
:100E000008E000BFF6030020F4030020192A0000C8
:100E1000082900006946088320005630059000200C
:100E2000049010200390012002900195042000906E
:100E3000042306AA012120004A30408901F00BF862
:100E4000010018D1BB48694608832000583005903E
:100E500000200490102003900020029001951020A3
:100E60000090012306AA012120004A30408900F0A9
:100E7000F2FF010002D0010000D050E21E9E0820C7
:100E80003178002908D0F17B002900D00D20317C79
:100E9000002900D0C01C801C717C002900D0401C9F
:100EA000317A002912D0002132000A32CBB25D0023
:100EB000EB18D25C521E04D0521E012A02D8C01C6C
:100EC00000E0001D491CCAB2012AEDDD9A4919AAA9
:100ED000118021000C310091C3B2012219A9012017
:100EE00000F09EFF070028D1307D002827D0F08A2F
:100EF00015A90880F08A9149884211D161880A1D9C
:100F000010E000BF0A180000292A0000242A00006F
:100F1000262A0000282A0000502A0000131800008A
:100F2000318B728B0BA8801C019015A800900123B7
:100F300092B2A08900F0D6FF070000D0F2E10420B1
:100F400009A908702220205C002801D00520087023
:100F50007B48694608860AA8059000200490102066
:100F600003900020029009A80078019002200090D0
:100F700004230CAA0121A08900F06DFF07005CD1B9
:100F800030001C30039004200290002001900420C7
:100F9000009000236846028DA189002000F039FBF3
:100FA00007004AD1F07F8007C10F4A202154DF4853
:100FB0006946088620000E3005900020049010201D
:100FC00003900120029009A800780190042000906D
:100FD00001230CAA0121A08900F03DFF07002CD1BC
:100FE0003078002862D0D448694608862000103046
:100FF000059000200490102003900120029009A881
:10100000007801900620009001230CAA0121A089FC
:1010100000F021FF070010D130001C3003900420A5
:101020000290002001900420009000236846028D69
:10103000A189002000F0EDFA070000D072E1F07BFA
:10104000002831D0BF48694608862000123005903C
:1010500000200490102003900520029009A8007839
:1010600001901A20009008230CAA0121A08900F009
:10107000F2FE0700E1D1B44869460886200014302A
:10108000059000200490102003900520029009A8EC
:10109000007801900E20009001230CAA0121A08964
:1010A00000F0D9FE0700C8D1307C002818D0C54810
:1010B0006946088620001630059000200490102014
:1010C00003900520029009A8007801901A20009052
:1010D00003230CAA0121A08900F0BDFE0700ACD1BA
:1010E000BD48694608860AA8059000200490102093
:1010F00003900020029009A800780190022000903F
:1011000073780CAA0121A08900F0A5FE070094D1F4
:1011100070780090322100F012FFC5B200983221A1
:1011200000F00DFF68460174002438001EE000BF87
:101130004F2A0000312A0000121800000F1800008A
:101140004A2A000032206043C0B27268121803922B
:10115000322202920190009200236846028D002004
:1011600000F057FA010000D0DBE0641CA84989892F
:10117000AC42E7DB07006846007C002815D032202F
:101180004543EDB27068401903906846007C0290B8
:1011900001956846007C009000236846028D00207F
:1011A00000F037FA070000D0BCE0707C002827D0A0
:1011B000BC4810A90880192009A9891C08702A2098
:1011C00009A9891C48700BA80890002007901020DE
:1011D0000690002005900120049009A80078039053
:1011E00009A8801C029002200190009010AB0122FF
:1011F0006846018D8648808900F04CFE0700D2D1F8
:10120000307A002800D18DE000251E960AA8C01C67
:1012100004787F4E1E98690049194018817A012987
:1012200012D11A24C17A0AAA921C1170417A09AA11
:10123000921C1170012109AB9B1C5970052209AB4E
:101240005B1C1A707219917709AFBF1C0521827A55
:10125000022A0DD10E24C27A0AAB9B1C1A70427A64
:101260003A7002227A7009AB5B1C197073199A7775
:10127000827A032A0DD10A24C27A0AAB9B1C1A7007
:10128000407A3870032078707219907709A8401C52
:101290000170B2486946088630001830690040186D
:1012A00014900590002004901020039009A8401C81
:1012B0000078029009A80078019000940AA8801C88
:1012C00003780CAA0121B08900F0C5FD010028D1E6
:1012D000387871190877A24810A908800BA80890DF
:1012E0000020079010200690002005900120049017
:1012F00009A80078039009A8801C029002200190A0
:10130000009010AB012214980188B08900F0C2FD52
:10131000010006D16D1C012D00DC7BE700201FB011
:10132000F0BD07003800F9D0F9E700004C2A0000B2
:1013300037498862704700004E2A000089490870CA
:1013400070470000222A0000322A0000002086494F
:101350004A78432A00D1704710B509782C4A1029E1
:1013600006D0602904D05A23D35C002B00D1012081
:101370005A23D35C002B02D00300022018432423FD
:10138000D35C2324125D08240443102908D1002BC8
:1013900009D0002A02D00100042011E0200010BD75
:1013A000602900D12000002A04D0002B09D10100BF
:1013B000102005E0102904D1002B02D101002020CB
:1013C000084310BD332A000080B513211048008C5B
:1013D00000F00FFE02BD00004B2A00001FB502A95D
:1013E0000191891C009103AB02220021084C4000AE
:1013F0002018008B801C80B200F0FFFD002803D174
:101400006846007A012800D0002004B010BD00001A
:10141000F4030020F0B585B004001000002200E0C5
:10142000521CD5B2471EBD42FADB504D02000429C2
:101430000CD10393029000200190009201236A8A4C
:10144000A989288C00F0E5F805B0F0BD062907D180
:10145000039302900020019000920123EA8AEFE7B3
:101460006E4634706C4620740024E0B229186E4633
:1014700036780F7FBE4202D1897F012905D0641CD6
:10148000E0B20228F1D14220DEE703936946097CED
:101490000291002101910092012340002818028B43
:1014A000CEE7000007290000D8B50BB484B00600D1
:1014B00017002E4C208CA1896B461B7D042B08D174
:1014C000069A039202970022019200970123628AF2
:1014D00018E06B461B7D052B08D1069A03920297F4
:1014E0000022019200970123A28A0BE06B461B7D2C
:1014F000062B0AD1069A03920297002201920097C6
:101500000123E28A00F085F80200002A03D1208C32
:1015100000F09DFD0FE000226846007DA3181B7FB0
:101520009E4203D1A118897F814206D0521CD2B2BB
:10153000022AF3D1422008B0D0BD0698039002974A
:10154000002001900097012350002018028BA189F0
:10155000208C00F05EF80100EDD1D8E74D2A0000A4
:1015600008290000210400205C040020F40300206E
:1015700080B50100082901DB422002BD012000F0F6
:1015800059F802BD10B500F069FD10BD10B500F0AE
:10159000F3FD10BD7CB5069D079C002805D086078D
:1015A00005D1460703D4060701D442207CBD00299B
:1015B00003D0012901D00229F7D10095019400F050
:1015C000A5FE7CBD70B4103A03D378C9103A78C038
:1015D000FBD2530701D318C918C001D508C908C0E8
:1015E000D20704D30B880380891C801C002A01D5F4
:1015F0000B78037070BC70478B0701D18307E1D073
:10160000124205D00B78491C0370401C521EF9D1C0
:101610007047F0B585B084460AA8F0C86846858151
:10162000C68103A8019002970094604600F06CFF09
:1016300005B0F0BD10B501F02FF910BD10B50428AC
:1016400001D9422010BD01F049F910BD1206130A5C
:101650001A43130C1A4300BF094205D0830707D071
:101660000270401C491EF9D1704700000022FFE7BC
:101670001300103906D330B41400150010393CC0E3
:10168000FCD230BC490700D30CC000D504C089008F
:1016900002D30280801C002900D5027070470C081C
:1016A00002170D01010209090101060209FFFFFFEE
:1016B000FFFF0909FFFFFFFF704730B5FF231370DD
:1016C000864C658A6D1CA84201D104251570A58A37
:1016D0006D1CA84201D105251570E58A6D1CA84234
:1016E00002D10620107002E01578FF2D01D00B709A
:1016F0001DE0A3885B1C984204D1A07908700120EA
:10170000107014E000235D0065192D8B6D1C85425F
:1017100005D1E5182D7F0D70E518AD7F15705B1CA8
:10172000022BF0D11078FF2801D1422030BD0020DB
:1017300030BD10B5312820D032281FD1674CE06D64
:101740000078002819D02420205C00280BD021002C
:1017500044314320205C01F0DFF800280BD1012048
:101760002C21605407E02320205C002803D01321A3
:10177000208C00F03EFC332010BD322010BD000054
:10178000F1B58EB00EA800785449CB6D07AA00BF02
:101790004AA42568156009221824122507AE0EAF49
:1017A0003F78412F07D005D3432F4DD03CD3452F51
:1017B00079D06DD380E000205A27C8551870587032
:1017C00098707570B4704A20085C00281FD008A873
:1017D00002702E200C5C22002F3108A8401CFFF75D
:1017E0000BFF00200690059007A8049003200390AB
:1017F00008A80290641CE4B2019400200090002329
:10180000FA221201C821C90000F07EFA09E0019015
:1018100000900B00443343200A5C0121002001F0BA
:1018200094F800280ED044E0187800280AD05878A0
:10183000002840D14A20085C002801D041203BE02C
:10184000432039E0422037E000201870587075704E
:10185000B47008A802702E228C5C22002F31401C2C
:10186000FFF7CAFE00200690059007A80490032009
:10187000039008A80290641CE4B201940020009038
:1018800000233022202100F03FFA002811D108E087
:101890001878002805D0587800280CD101F067F896
:1018A00007E0442008E09878002802D15878002802
:1018B00001D1462000E045200FB0F0BD020000003D
:1018C000212808D0222807D10448C06D00780028BC
:1018D00001D023207047222070470000F40300202D
:1018E000F8B584B0B64FFD6D0026512804D076D3EC
:1018F000532845D004D372E06E702E70AE703DE078
:10190000287839001E31095C01290CD1FFF766FDEA
:10191000002804D02878401C2870AE7005E0A87814
:10192000401CA87001E0401C2870A8782978022982
:1019300001DA0A2822DB0A281EDB02A829A10A886C
:1019400002800024E0B2FFF749FD002811D13800E1
:101950001E30005D01280CD160003818018B02A8F0
:1019600001900220009000238A1C92B2B88901F0F5
:1019700008F8641C022CE5DBAE702FE052202EE04C
:1019800002A8019003A8009002AB9B1C0222002138
:10199000B888801C80B200F030FB01206946097ACB
:1019A000012901D1687017E0AA78521CAA706978E1
:1019B000D2B20A2A01DA002910D000290CD16946D6
:1019C0000872B98802A801900220009000238A1CA6
:1019D00092B2788800F0D5FF542000E0532005B083
:1019E000F0BD0000010038B5754CE26D00251128EE
:1019F00006D02AD313280ED007D314281ED032BD08
:101A00001078002810D1112032BD5570A16A012034
:101A100000F0C5FF0DE02D20205C002806D001203D
:101A200000F0CAFF2D202554122032BD5078002826
:101A300001D1132032BDFFF7C7FC03E02320205C57
:101A4000002801D0142032BD152032BDF1B582B07E
:101A500001905127502500260120A84C6946097A9B
:101A600000290CD0102952D020290FD030291FD0A6
:101A7000402925D0502930D060295BD062E0FA217E
:101A80004900A162A0725A2026545BE002A8407867
:101A9000FFF716FF01A94870232853D1E06D817824
:101AA00000292FD00670302069460871312047E0A8
:101AB00002A84078FFF73DFE01A94870332806E0F0
:101AC00002A84078FFF75CFE01A94870462839D18A
:101AD0006846057101A8477034E002A84078FFF716
:101AE000FFFE01A9487054282CD1E06D06705220E9
:101AF000205A0090635B4E20225A4C20215A208CA1
:101B000000F062FF102069460871112018E002A859
:101B10004078FFF768FF01A94870152803D02320FB
:101B2000205C00280ED12D202654602069460871C3
:101B3000612005E05A216054402069460871412027
:101B400001A948700198FEBD1D49CA6D002806D143
:101B50002323C8546A490978402900D1507070473E
:101B6000F8B501220025164C654E3678202E0BD193
:101B7000E66D070007D17778022F00D13270B2707E
:101B80002327E25500E0B5705D4E3678402E0AD12D
:101B9000E66D002804D1727023256255327004E08E
:101BA00075703270F1BD002808D143202354218480
:101BB0000622069920004430FFF71EFDF1BD00000B
:101BC000F40300204D4801214D4A1378202B01D108
:101BD000C36D19701278402A01D1C06D0170704731
:101BE00080B500BF00BF01BD0122444B002902D1D6
:101BF0001884012000E00020242158544048017836
:101C0000302901D1D96D0A700078402801D1D86DF2
:101C10008270704780B53948002124228154008C9D
:101C200000F0DEFE01BD38B508001C00049D334AFB
:101C3000138A5B1C994205D1012C1BD1287801F035
:101C400081F831BDD289521C914205D1012C11D1AC
:101C5000287801F07DF831BD6A4600A9491CFFF7DC
:101C60002CFD002806D12B00E2B2684601784078AE
:101C700001F028F831BD80B508006A4600A9491C6A
:101C8000FFF71BFD002804D168460178407801F079
:101C900033F801BD194AD06D2323D25C002A00D14C
:101CA000704780B5002907D00078002806D1154973
:101CB000012000F074FE01BD0121017001BD7047DB
:101CC0007CB50E4EF56D012816D12320305C00281E
:101CD00012D00124287800280DD15220305A0090CB
:101CE0005020335A4E20325A4C20315A308C00F05A
:101CF0006BFE2C7073BD6C7073BD0000F40300208C
:101D00005C04002030750000FFB587B0109D159E63
:101D1000169C01930295009407A807C81F463346F6
:101D200001F0EEF800280ED11398149903AA069436
:101D300043C21198129901900095029107A807C813
:101D40003B4601F00BF90BB0F0BDFFB587B0109D1D
:101D5000159E169C01930295009407A807C81F467C
:101D6000334601F0CDF800280ED11398149903AA38
:101D7000069443C21198129901900095029107A808
:101D800007C83B4601F014F90BB0F0BDFFB583B0B6
:101D900003980C9D1E4614460F46002804D00128C7
:101DA00002D0422007B0F0BD002F01D0012FF8D1A2
:101DB000E81F0A28F5D20D981028F2D8A842F0D3CF
:101DC0000E98002801D00128EBD114490F988842C1
:101DD000E7D81098002801D00128E2D101F004F9D9
:101DE000012804D02046304305D01120DAE7022C28
:101DF000D7D8012ED5D868460399017047708472F0
:101E0000C67285700D99C1700E9901720F9801907C
:101E100068461099417201F0E9F8C3E73F420F00AC
:101E200070B586B014461D460A4603466946881CAE
:101E30000A9E01F0EFF8002804D1012C04D0022CF6
:101E400002D0422006B070BD23462A46694630467D
:101E500001F0F4F8F6E7F0B587B01C460B460546EE
:101E600000A9023101A80C9F0D9E01F0D3F80028B3
:101E70000ED16846058084828775C6750E990176F5
:101E80000F994176109981766946119801F086F98B
:101E900007B0F0BDF0B58BB09C460C460546134626
:101EA000624601A806A9139F179E01F0B3F8002807
:101EB00016D11298079068460580448008A80770DC
:101EC00014994170159981701699C1700671684610
:101ED000119981821099C1826946189801F0FCFA23
:101EE0000BB0F0BDF0B587B0064614460D4602A80B
:101EF000811E0D9F0C9A01F08DF8002807D16846CD
:101F00000680458084806946384601F095FB07B01D
:101F1000F0BDF446002804D4494200F013F84042D2
:101F200060474042002905D45FD000F00BF84042E2
:101F300049426047494200F005F84942604703467C
:101F40000B43E6D40022030A8B420BD203098B42D7
:101F500019D243088B422ED2411A00D20146524177
:101F600010467047FF2209023FD012068B4205D36C
:101F7000121209028B4201D31212090203098B4289
:101F800019D300E0090AC3098B4201D3CB01C01A5F
:101F9000524183098B4201D38B01C01A524143093C
:101FA0008B4201D34B01C01A524103098B4201D32A
:101FB0000B01C01A5241C3088B4201D3CB00C01A97
:101FC000524183088B4201D38B00C01A524143080F
:101FD0008B4201D34B00C01A5241884200D3401AB1
:101FE0005241CFD201461046704708B501F0D0FBF0
:101FF00008BD10B501F0CDFB10BDFEB50E46144670
:1020000000216A461F46118000280CD001AA6946AB
:1020100001F0C4FB050018D1684600883880684686
:102020000088864201D342250FE0801B80B2A04287
:1020300000D20446684604800898048001988119FB
:1020400068460288099801F0F5FB2846FEBD10B5E8
:102050000022114601F002FC10BD7047F0B5444F5C
:102060000446386885B0783016460D46002C19D0E5
:10207000062C11D0082C0CD0182C0AD0282C0BD0F0
:102080002A2C09D02C2C0AD02E2C0BD0D02C42D0AC
:1020900043E0102D08D040E0022D05D03DE0012D99
:1020A00002D03AE0062D38D10A460019314601F037
:1020B000C1FB2C2C28D13078002825D001F042FC1F
:1020C000012824D01B201F304009401C410041182A
:1020D000012001F039FC01F035FC012819D01B204A
:1020E0001F3040094100411822484078401AC01E64
:1020F000C1B2002001F028FC38684022403001784D
:102100001143F92211400170002005B0F0BDFB2001
:10211000D9E7FB20E4E7012D04D001F013FC0128EE
:1021200004D007E0107801F01BFCEEE7D12C01D1C0
:10213000082D01D01220E8E702223146684601F05E
:1021400079FB0222B11C01A801F074FB0222311DAF
:1021500002A801F06FFB0222B11D03A801F06AFB87
:102160006846838902898188008801F00AFCCCE7EF
:102170005404002080080020F0B55FA099B00068EA
:102180005E4915905E4A0868841809221202821876
:10219000526B2546403514922A7AD20702D062202B
:1021A00019B0F0BDAA8B01235B029A4201D9AB831F
:1021B00003E0172A01D21722AA83149AA03013929F
:1021C000067B0DE0761EF6B2139871010F18B86801
:1021D0000F9038462022002101F032FB0F98B860A2
:1021E000002EEFD120460830E0606460A0602460DB
:1021F0000830139060612061FF220021083001F057
:10220000C2FB2046FF220021243001F0BCFB204607
:10221000AA7F0021303001F0B6FB2046FF220021CA
:102220003C3001F0B0FB00222A7210461721334BDC
:1022300005E0149E4701BE19401C7180C0B21E68A3
:10224000A036367B8642F4D8002028832F8C688CF9
:102250000026149008E02820E16C704309182046FD
:1022600001F099FB761CB6B2BE42F4D3002608E01A
:102270003020216D70430918139801F08CFB761CF7
:10228000B6B214988642F3D3012001F08BFB0124EF
:10229000684604701B4941802346042269460CA805
:1022A00000F0CCFE002822D16846018E81821649BA
:1022B0000183042606858475202108A881720024E4
:1022C000C472047307214173847305A90DA800F03B
:1022D00065FF00280BD1684604874687818E15ABC1
:1022E0000EAA008E01F06AFB002800D158E70020FA
:1022F0002872472054E700000000FFFF540400202C
:102300002C07000001180000052A0000FFB50C464C
:1023100078A103C995B001910090002108A801732C
:102320000321C90268464186012108A8734E017441
:1023300035681746AE3501F075FB002808D17049A5
:102340003068401801F002FCA878002802D046202E
:1023500019B0F0BD0BA8159901F002FC0028F7D1C7
:10236000072010A90871012C05D0022C0AD0002CDE
:102370000ED04220ECE708A8017B1020014308A8FA
:10238000017305E011A90BA801F0F8FB0028DFD1CB
:1023900010A8027901230CA9284600F04FFE00285E
:1023A0007ED102222946189801F044FA298868460D
:1023B00081811521490201820784012686734E21FD
:1023C00008A881700024C4700671072141718671CC
:1023D00003A902A800F0E2FE002861D1022202A9AE
:1023E0001E9801F027FA082F02D26846478502E0BE
:1023F00008206946488569460C850B4628880AAA44
:10240000098901F0DBFA00286DD13E496846018256
:102410000227078408A8847103A902A800F0BEFE61
:10242000002860D1022202A91F9801F003FA684631
:102430000470694644704F850B4628880AAA0989AA
:1024400001F0BCFA00284ED108A8007BC00723D0B9
:102450002C496846C91C01820821018408A887709C
:10246000047103A902A800F099FE00283BD1FF21C6
:102470006846C1718171C170817041700170447191
:1024800004716946082048850B4628880AAA0989EC
:1024900001F094FA002826D108A8007B800600E00D
:1024A00021E022D52988684681811649A53101821B
:1024B0000684867308A88770C4700471072141716F
:1024C000847103A902A800F069FE00280BD16946B7
:1024D0000E700C854E850B4628880AAA098901F0E2
:1024E0006DFA002801D0472032E708A8007BA870C9
:1024F00000202DE7626C75656E7267215404002020
:10250000EF060000012A0000FFB5002099B0239AD1
:102510000B90129005461490064615901C46DB4819
:102520000B460068DA49229F411803910021089167
:1025300009915188069111880A913B21490140185F
:10254000007DC00706D00FA9184601F019FB00282E
:102550000AD102E047201DB0F0BD10AA0F991B98C8
:1025600001F026FB002801D06020F4E7199800282C
:1025700003D0600701D5012000E000201390A007E0
:10258000800F1C90109817902030C078012840D1FF
:102590001798C04B01899942F9D117980699046898
:1025A0000A98228C4118914233D820462030169048
:1025B0008078012816D0E08B049017988069007805
:1025C0008006800F7ED0039840301890007A8007F4
:1025D00078D51C980028F5D0AE4F0F99FF372031E1
:1025E000206814E0BA4214D3B942DDD80497E4E776
:1025F0000389A84A934203D12322125C012A08D0FE
:10260000BB4203D12322125C012A03D00068884216
:10261000EED134E105900028FBD09C4809210268E6
:1026200009025118496B0027009162E07801009976
:102630000390085A01055AD01999002901D08842FF
:1026400055D105997A008B69511C595C9A5C090235
:10265000891889B20D91890749D00222059901F0A4
:10266000B6FA002804D01998002840D0652072E7F7
:10267000002008A9C8551C98C00718D01798806971
:102680000078C00613D50D98C00710D00120C8559A
:102690000543009A039880184088159A904206D9FD
:1026A0001590009A0398105A0005000D14901C987C
:1026B00080071CD5179880690078800617D50D987B
:1026C000800700E083E012D50220CA5D0543024383
:1026D000CA5500990398401840881599884206D930
:1026E000159000990398085A0005000D14907F1C5E
:1026F000FFB266480068A030037BBB4296D8002D2D
:1027000065D01898007A00065FD4604801680920F7
:1027100000020818416B00201BE042018E5A36056A
:1027200015D0AE070BD556183669B7070DD408AFCC
:102730003F5CBF0703D5360701D546200BE7EE0700
:1027400005D05218127CD20701D0432003E7401C69
:10275000C0B28342E1D81598C01E86B20498864262
:1027600000D90646A8070FD520220020149901F0B1
:1027700057FA129000287DD0F01C82B200211298E6
:1027800001F070FA002811D1E80720D020220020A3
:10279000149901F045FA0B90002807D0F01C82B282
:1027A00000210B9801F05EFA002810D0802001F083
:1027B000F9F81298002802D0002101F05BFA0B987A
:1027C000002802D0002101F055FA6420C3E6A16977
:1027D0000A98069A0818249901F02CF8169880781F
:1027E000012801D10498E083002D46D0274B092011
:1027F000196800020818416B002008AA0CE0430188
:10280000CF5A3F0506D05F18BC463B69175C3B4377
:1028100067463B61401CC0B21C4B1B68A0331B7B4E
:102820008342ECD8A8070DD512980090F01C82B214
:1028300021461C310220A36901F03AFA02201299C4
:1028400001F055FAE80718D00B980090F61C2146C5
:10285000B2B21C310120A36901F02AFA13980028B2
:1028600005D00B988021C07C08430B99C8740120C7
:102870000B9900E005E001F03AFA00206BE64220F7
:1028800069E6802001F08EF89FE7000054040020E4
:102890002C0700000328000010B5012818D80729CC
:1028A00016D80C4A126813462033187759778007D8
:1028B000C906000E090E01430020074BA03204E0B8
:1028C0008401E418A172401CC0B2147B8442F7D882
:1028D000002010BD540400200001002030B50C4A37
:1028E000002113680B4A1268A032147B0AE07C2294
:1028F0004A43DD6F0832AA5A002A01D0462030BD73
:10290000491CC9B28C42F2D81876002030BD0000B4
:1029100058040020540400207CB504460D460128CC
:1029200003D0002C01D012207CBD084601F006FA2D
:10293000000220430090E81C01F000FA0002000AA7
:102940000190684601F006FA7CBD7CB5069D079CA7
:10295000012903D0042901D042207CBD012A01D0E5
:10296000002AF9D10095019401F02CFA7CBD10B534
:1029700001F040FA040002D1012001F051FA204692
:1029800010BDFEB56C46099E089D20806180A28026
:10299000E38025813146684601F09AFAFEBD70B5A4
:1029A0000D46044601F018FB294601F01FFB0146C5
:1029B000204601F02DFB70BD1FB569463A30087303
:1029C000684601F033FB1FBD3EB56C46069D208076
:1029D0006180A280E3802581684601F053FB3EBD03
:1029E00010B501F0C9FB10BD7FB505000C0001A8B2
:1029F0000021002206C0FEF7A9FC40077BD502207B
:102A000001F0F5FB002069460870039568464470A4
:102A100068E0002043E0039869460978425C00249E
:102A20000023100030380A2806D21400303C00067B
:102A300001D1272400E01D34100041381A2802D2A9
:102A400014003D3C0123100061381A280CD21400F8
:102A50005D3C082A1BD0092A04D00D2A19D0202A4F
:102A600013D017E02B2415E0002568004019A14978
:102A700009180E78964203D06D1C212DE9DAF4E78F
:102A80009C4C4B78A11C0C5CE3E72C2402E02A242C
:102A900000E0282401A88470002BBAD002206946E7
:102AA000087101AB082201210020FEF7B3FC0028C9
:102AB00003D00100AC4801F0A9FB002001A9087077
:102AC0008870C82401AB082201210020FEF7A2FC77
:102AD000641E002801D0002CF4D168460078401C08
:102AE00069460870684600784978884293D3012087
:102AF000FEF724FC7FBD022001F080FB7FBD9B48D8
:102B00000021017001220272417282720823C37295
:102B10000173022343738273C173018201750277CB
:102B200042778177C2777047F8B596B005A800BFA5
:102B3000BAA10CC90CC00920694688810A2003A9E2
:102B40004880002503A8858096204000C880874FD4
:102B500005A801903800203000900A2303A803C87C
:102B60000A0001000020FDF7ABFE0600804C02D0F9
:102B70003100200015E07F4A01210120FDF7BBFF55
:102B8000060003D03100200024300AE07A48FEF726
:102B9000CFFB0420FEF7ECFC060006D0310020003D
:102BA0004C3001F033FB300051E069460D7200BF3C
:102BB0009CA00FA90CC80CC10FAE04229CA1300030
:102BC0000930FEF719FD04229BA130000D30FEF7FD
:102BD00013FD042296A130001130FEF70DFD0120F7
:102BE00070753020B075F575FC2030767576EC2068
:102BF000B076F57607A839002022FEF7E3FC4C20DA
:102C000007A9487038002C30089007AA0FA902A81D
:102C1000FDF792FF050003D02900200070300AE084
:102C20003A0020320A210120FDF7F4FE050006D00B
:102C300029002000943001F0E9FA280007E000BFE5
:102C40007FA001F0E3FA002001F0D8FA002017B0CD
:102C5000F0BD000010B50024FEF778FBC00705D5D5
:102C600000220021032001F0E5FA0400FEF76EFBCC
:102C7000800703D4FEF76AFB800605D500220421F5
:102C8000032001F0D7FA0400200004D0210000BF87
:102C900072A001F0BBFA10BD80B5684601F07CFF60
:102CA000002808D06846017834A001F0AFFA01216D
:102CB0006846FFF799FE01BD80B5FDF70BFFFFF7F2
:102CC000EBFF01BDF8B516001C0033000A0001003F
:102CD0002B4801F09BFA002568A704E0215C38002E
:102CE00001F094FA6D1CE8B2B042F7D325A001F0D0
:102CF0008DFAF1BD440300207CB506000D00684646
:102D00000021002206C031005EA001F07FFA042DF0
:102D100003D0300003D1012D01D1082406E0052D98
:102D200003D0300002D1022D00D101246B46E2B263
:102D300029003000FEF7B8FB002802D0124801F04D
:102D400065FA73BD80B5010056A001F05FFA01BDC0
:102D500080B501000D48012902D0002902D13C3084
:102D600001F054FA01BD000054300510CC020020DF
:102D70000C22051040E20100C0D4010025630000D0
:102D8000BC2B05100A000000902A0510DC2305105A
:102D900080B5FEF7D9FE00BF4AA001F037FA01BDA9
:102DA00018B585B00CAC247804946C46A48D0394BB
:102DB0006C46248D02946C46A48C0194089C00946B
:102DC000FEF7CEFE47A001F021FA06B010BD80B597
:102DD000FEF7F8FE01BD80B5FEF702FF01BD80B52C
:102DE000FEF702FF01BD80B5FEF714FF01BD1CB563
:102DF000049C0094FEF717FF13BD80B5FEF73BFF60
:102E000001BD80B5FEF746FF01BD80B5FEF757FF57
:102E100001BD80B5FEF754FF01BD0000BCFC00E120
:102E2000800200005354204D6963726F000000005F
:102E30003030303100000000303633300000000008
:102E4000484944204B6579626F61726420436F6E1C
:102E5000666967757265640A00000000426C7565FA
:102E60004E52475F536C6565702829206572726FFA
:102E700072203078253032780D0A00002578202D18
:102E800020000000476574205265706F7274204303
:102E9000616C6C6261636B204944203D2025640AAB
:102EA0000000000050726F746F636F6C206D6F6470
:102EB00065206368616E67656420746F2025780AF9
:102EC00000000000446973636F6E6E656374696F20
:102ED0006E20436F6D706C6574204576656E740A64
:102EE00000000000436F6E6E656374696F6E20436F
:102EF0006F6D706C6574204576656E740A00000015
:102F0000F0B5054600200F46079E059C174309D0E3
:102F1000202905D30127BF03BA4201D8914201D924
:102F20004220F0BD194621430AD09C42F8D30949FA
:102F30008C4203D00849A41F8C42F1D2062BEFD358
:102F4000002D03D0022D01D0032DE9D1032EE7D8A7
:102F5000F0BD0000FFFF00007B0C0000F0B591B059
:102F60000C461AA9E0C90021089109910A910B9118
:102F70001999049105A9E0C116A962C900930191AC
:102F800013460146039602952246022001F00CFEEC
:102F9000040007D1042008A9087704480E900CA863
:102FA00001F0BCFE204611B0F0BD000020BF0200C1
:102FB000F0B58DB00C4616A9E0C900210891099121
:102FC0000A910B911599049105A9E0C112A962C952
:102FD0000093019113460146039602952246012073
:102FE00001F0E2FD0DB0F0BD0020704770B5054660
:102FF00001F0A6FE002801D0462407E00448002482
:1030000000680C2229460C3000F014FC204670BDEC
:103010005804002070B51C4613460D46012C03D001
:10302000022C03D0422070BD022200E0102219467B
:1030300000F000FC2C70002070BD7047FFB58FB011
:1030400014460E78102205A8891CFEF7D5FA4F48C1
:103050004F490068451801F099FE00281ED1002C48
:1030600057D0012E09D16846808A4A49884204D146
:103070002846A968083081424BD12846103029697A
:103080000390814209D00AA9284601F09BFE6846B8
:10309000018D601E0D90814202D2482013B0F0BD18
:1030A000284608300CA9049001F08CFE6846008E7A
:1030B000002814D0EF680AA93846183001F082FEC3
:1030C000384620300CA901F07DFE6846398D008D10
:1030D00009186846008E401C081887B200E00127D6
:1030E00001200004C01BA04201D26120D6E72C6958
:1030F000286801901298012802D0022803D008E025
:103100000520C00200E024486085012E03D0022E75
:1031100005D04220C2E720460830022202E02046C5
:103120000830102205A900F085FB204631462030EA
:10313000064601730F98214607802785039801F002
:103140004BFE2146049800F026FC27461837E7611D
:103150006662A76126620D9884B20BE02846019949
:1031600001F03AFE3846019900F015FC2868641E0B
:10317000A4B20190002CF1D10F9801880D98081885
:1031800082B2002001F038FE002087E754040020BE
:103190002C0700000118000001280000F3B5A5B0BD
:1031A00008881A9088780C4611901022091D13A8DF
:1031B000FEF722FAA08A1090A17D68460172E07D98
:1031C0000F90207E2090677EA07E1F9000200646F4
:1031D0000146129020A801810F20BB4C2390BB49CF
:1031E00020684018199001F0D1FD00280BD1012171
:1031F0001098490288425FD821A91A9800F0C0FCB3
:10320000002802D0602027B0F0BD2198179001F06F
:1032100017FE1A9988420CD102A8019016980090C6
:1032200013AD0ECD119801F013FE002801D06320DC
:10323000E9E76846017A8806800F05D001201290E0
:103240002068A030007B4600C80703D01298401CBD
:10325000B61C1290080603D51298401CB61C12909A
:1032600017980DA918301D9001F0ACFD6846129C0E
:10327000808EA41CA04237D317980EA9203001904D
:1032800001F0A0FD6846018F00290DD01798179A0C
:103290006B46406A9B8E128D5918808B5118081A04
:1032A000A04201D26120AEE7179884691198256881
:1032B000012803D0022803D04220A4E7052000E023
:1032C0001320E0832A4639460F9801F0F9FD422881
:1032D00099D0199FE28B4037788B398B411A10981F
:1032E00010188019814201DA48208CE70EA9019854
:1032F00001F068FD6846008F0028179802D0406AE8
:10330000808B00E0008D2599401C088025980121C4
:103310000088A083259802220088401CA8836C485E
:103320002081204620301790C1700021817081716A
:103330001998398B406D40186946A061097A01706F
:10334000A06929461C31401C00F074FA119801282C
:10335000A0697DD0102213A9C01C00F06BFA28468A
:10336000102213A9083000F065FA388B1330388327
:103370002E4620361198F0701098E8831F98B07090
:1033800010982084109828841998398B406D401823
:10339000A8610021109A00F053FA398B1098081890
:1033A00038831799012008711799002048713071EE
:1033B0006846007A810701D5012131710107022792
:1033C000002902DA317939433171410703D5317966
:1033D000042211433171400603D530790821084396
:1033E00030710F9870712098B07121461D9801F0CE
:1033F000F3FC2146019800F0CEFA29461D9801F011
:10340000EBFC2946019800F0C6FA1298002841D03A
:1034100068461A998181A18BC18107844784012460
:1034200008A8047122A80A9008A8847323994173FC
:103430000F993820014008A801730721C1730025A6
:1034400005746846007AC00708D02248694600E043
:103450002BE0088203A924A800F03EF86846007A11
:103460008006800F07D01B486946401E088203A9CA
:1034700024A800F031F86846007A00060AD5292110
:1034800009026846018208A84473057303A924A8A9
:1034900000F022F8259801881298401C081882B282
:1034A000002001F0A9FC0020ADE6022213A9C01CF7
:1034B00000F0C0F92846022213A9083000F0BAF93A
:1034C000388B401D53E70000540400202C070000F7
:1034D0000328000003290000F3B597B00D88488841
:1034E0000590081D1DC80DAE1DC68C8ACE8A087EAB
:1034F0001390C869203101900878009048780490B2
:1035000088780390C87802900F7901F03FFC00287A
:1035100017D10120400284425FD8B4425DD8002F09
:1035200001D1B44259D114A9284600F029FB002842
:1035300006D115AA1499059800F03AFB002802D08C
:10354000602019B0F0BD149D11A92846183001F073
:1035500039FC10A88088002810D0284612A92030F5
:1035600001F030FC10A8838800892A8D1818696A38
:1035700010188A8B904203D16120E2E74820E0E7EF
:1035800015982C4B02899A4227D12322125C012ADA
:1035900023D1006800681690139801281FD168464F
:1035A000808E29221202801A030001F095FC060485
:1035B000180404070A18022C0FD110E0072C0CD1B4
:1035C0000DE0042C09D3E00707D1012F07D1A64253
:1035D00003D3042E01D3F00701D04220B1E70298B3
:1035E0000B90039B049A0A9309920098019A0C97F6
:1035F00008900696059407920DA81DC8019002A890
:103600001CC013980B4600902A461699179801F093
:1036100071FC002895D168460649808EFF318842AA
:1036200005D01798018800200A4601F0E5FB00202C
:1036300087E7000003280000F3B552480C460068F5
:10364000514993B040180F9025886188684681855C
:10365000A188018621461022083107A8FDF7CCFF7A
:10366000A77901F093FB00280DD16946888D098E5A
:10367000884239D8002837D010A9284600F080FAAF
:10368000002802D0602015B0F0BD109D03A9284687
:103690001830059001F096FB68468089002831D0EB
:1036A00028462030AC690DA9049001F08BFB6846D8
:1036B000818E364A002913D06E46B6892B8D761836
:1036C000686A9B19868BB34201D16120DBE70389CD
:1036D000934203D12030C078012801D06220D2E784
:1036E000012F03D0022F03D04220CCE7062000E0B8
:1036F0000420E0830F9E4036708B338BC01AE38B1F
:10370000984201DA4820BEE7288D491C40181399D9
:1037100025460880A083228101202035E8700F987B
:10372000318B406D022240180BA9A06100F082F895
:10373000A06902220CA9801C00F07CF8308B001DCF
:103740003083012F08D1A069022207A9001D00F0D3
:1037500071F8308B801C3083002068710121297141
:10376000A870A8712146059801F036FB21460498FF
:1037700000F011F91398018800200A4601F03CFB83
:10378000002080E7540400202C07000002280000DD
:10379000704710B501F05AFC10BD7047F0B5224BD0
:1037A000224C1B681E193B249C4664011B191B7D7F
:1037B000DB0702D0B368083631E06220F0BD1C8D13
:1037C00084420BD12C20C05C012805D01020088039
:1037D000083313600020F0BD0220F8E7844220D2B5
:1037E0001D4620351C6A17E0A78B874211D1232381
:1037F0001B5D0120012B06D123890D4DAB4202D167
:103800006046A030007BE38B43430B80A0691060CF
:10381000E0E7874205D82468AC42E5D11B68B34293
:10382000CDD14120F0BD0000540400202C07000041
:103830000229000010B50400FDF7DEFE200010BDD7
:1038400010B504000800110002002000FDF7FEFE84
:10385000200010BD80B501F017FC02BDF7B506468B
:1038600036480F460068364982B04418304601F0A9
:103870001BFC050060D020462430009001F032FC93
:10388000002859D12869000356D5009801F031FC71
:1038900004464FE0A088B0424BD1202231460020A0
:1038A00000F0BEF9060018D0A068002F017B427B13
:1038B00015D03346049801F01EFC0020012229692E
:1038C000D2049143296100282AD0692802D03046C9
:1038D00001F024FC002005B0F0BD6420FBE70A29BC
:1038E00006D00C290AD00E290ED0082912D023E0C8
:1038F00032462146284601F027FCDFE732462146C2
:10390000284601F0B6FCD9E732462146284601F0A8
:1039100051FDD3E732462146284601F015FECDE79A
:103920002146009801F07AFF0121204600F0A2F91B
:10393000CDE72468002CADD14120CCE75404002011
:103940002C07000000207047044A092312681B025C
:10395000D218D26A40008018417070475404002089
:1039600070B505460024204601F07AFF002801D0FA
:10397000462404E0012D02D1012001F091FF2046F0
:1039800070BD4220704700230360436041720272A1
:10399000C37283727047086042684A60426811606F
:1039A0004160704704490A683B21490151180A7D6A
:1039B00002430A757047000054040020F0B5074622
:1039C00017480E4600683B2149014018007D85B02C
:1039D0001D461446C00706D003A9384600F0D0F8AB
:1039E00000280AD102E0472005B0F0BD04AA304605
:1039F000039900F0DDF8002801D06020F4E7049975
:103A0000228860880968002A00D0088C32466E46F9
:103A100031C6032339460020FEF776FDE4E70000B7
:103A200054040020F0B5454C092526682D02701974
:103A3000006E0027416B4248AE368DB0814242D0C5
:103A40000621684601F02DFF69464879C0210843E8
:103A500069464871206806224019006E243001F042
:103A600031FF0746102105A801F01BFF2068102236
:103A70004019006E05A9001D01F024FF0743102125
:103A800009A801F00EFF206810224019006E09A954
:103A9000143001F017FF0146394313D1206829493A
:103AA0004019006E264F40188008810026480818EB
:103AB0003946049001F041FF04980068B84201D1F2
:103AC000002700E0FB2722685019006EA632243040
:103AD0000190062001460090002001F045FF0028DB
:103AE00002D12068A6300190701D009A0199FFF75D
:103AF000A1FE2268102631460020803201F034FFFA
:103B0000002807D0206832464119096E8030091D0F
:103B1000FFF790FE226831460020903201F024FF2A
:103B2000002807D0206832464119096E90301431C0
:103B3000FFF780FE38460DB0F0BD000054040020B1
:103B4000AAAAAAAA3400FCEF0000041010B5034989
:103B500006220968B331FFF76DFE10BD5404002042
:103B60000A07920F01D0422070478A07FBD00278E3
:103B70008907890F0A43027000207047422070476E
:103B800010B5094A094B1268D2189368083206E04A
:103B90001C8D844202D100200B6010BD1B68934233
:103BA000F6D1412010BD0000540400202C07000075
:103BB00010B50B6A203106E09C8B844202D10020B4
:103BC000136010BD1B688B42F6D1412010BDF8B5C3
:103BD00016460D460746002401F0D6FE002806D002
:103BE00032462946384601F0F5FE044604E0203509
:103BF0006879002802D00E242046F8BD2879C10734
:103C000001D1012E09D0810701D4022E03D0400733
:103C1000F2D4042EF0D10324EEE70224ECE770473F
:103C2000F8B50D460E49092309681B02C918CE6A6A
:103C30001F21521E0A431D3297B20024394601F05B
:103C400019FF00280AD13946B06801F03BFF04464D
:103C500008340068A0600020E074A5802046F8BD0C
:103C60005404002010B5121D806892B201F042FF8A
:103C700010BD7047F8B50E460C49092209681202BA
:103C8000891808380746CC6A01F06AFF05463946AC
:103C9000A06801F06FFF72B67100605C401B605459
:103CA00020794019207162B6F8BD0000540400204C
:103CB000F8B5069C1F4615460646002C13D0A06892
:103CC00002220D30FFF7B6FDE81E82B23B46072107
:103CD000204601F06AFFE580A068012E05D01D2175
:103CE00001730020F8BD4720F8BD1B21F8E77CB523
:103CF0000C4605466A4601A901F060FF002801D084
:103D000041207CBD6846E1888088814200D9E080FE
:103D100000980088A080204601F000FA0098012D4C
:103D200007D001690822114302229143016100205A
:103D30007CBD016949084900F8E77047C37882787B
:103D4000417800781B021A43090212040843104309
:103D500070477047F1B5194D00212868E030417473
:103D60000320009901F052FF01270446FF281ED0CE
:103D700000263046009902F041F8FF280DD0C1001E
:103D800028680F4A09188918CA7937235A43101826
:103D9000FF301B308770C470C8792A68E100891829
:103DA00040062F22400E52018918C87100E00726F4
:103DB0002868E03047743046F8BD00005404002005
:103DC0006C04000070B58CB00024109D119E0A9404
:103DD0000B94049405940394069407940993089211
:103DE00000900194029433462A46042000F0DCFE41
:103DF0000CB070BD002000B58DB00A900B900890FB
:103E00000990059006900790049000900190029010
:103E1000034602460146039000F0C6FE0DB000BD09
:103E200070B592B00646202221A101A8FDF7CAFB79
:103E3000202109A8FDF71AFC0A2168460170002418
:103E40002546694601A802F01BF86846027801A9D8
:103E500009A8FFF7EFFC01A824E0015D491CC9B2E5
:103E6000914223D803195B78B34214D16B461A7878
:103E7000521A6118C9B24118D2B209A81A70401971
:103E8000FFF7D8FC6B4618782818C1B209A802F0D1
:103E900013F812B070BD521A6B461A706218691886
:103EA000D4B2CDB269460A78002AD6D11F20F0E7F5
:103EB00002FF0102010403028FFC00000000000069
:103EC00000000000000000000000000000000000F2
:103ED000F3B585B002884488818801913C4FC6883B
:103EE00005893B21386849014018007DC00767D02B
:103EF00001204002854215D869461046FFF740FE72
:103F0000002862D102AA20460099FFF751FE00283E
:103F10005BD102992F480A89824203D12322525C45
:103F2000012A02D0422007B0F0BD09680C68009950
:103F3000203148E02289824203D12322125D012AE6
:103F400043D0A38B019A93423CD12046203003906A
:103F50008178002903D1E08BAA19904205D201296A
:103F60002ED1208CA91988422AD3012001900398D0
:103F7000C07801280AD117492089FF31884205D12C
:103F80003868A030007B002701900AE000273846FF
:103F9000A169684308182A460699FFF74BFC7F1C65
:103FA000FFB201988742F2D303988078012805D1A7
:103FB000002E02D0208CE08300E0E5830020B2E7F1
:103FC0004720B0E724688C42B4D16020ABE7000002
:103FD000540400200328000010B50920C006006921
:103FE0000002000A01F0A4FF10BD7047074A914289
:103FF00002DC5242914200DA1146FF2299325143CB
:104000000A1251180A14511808187047FFFF4F0080
:104010001FB56A463A3010736846029101F09AFF64
:10402000002800D0012004B010BD704770B5144EB8
:10403000E1223168D2008D182C681DE0017B227BC3
:10404000914218D12146284600F0C6FE2846214656
:104050000830FFF7A0FC207B3A2803D220352878CF
:10406000401E287072B63068DF224030C17911409E
:10407000C17162B670BD2468AC42DFD170BD000072
:1040800054040020FEB50488418801918688C788C1
:1040900000890090204601F097FF050066D0E8787F
:1040A000002863D0A8780007400F01D046255EE0C5
:1040B000202221460020FFF7B3FD040048D00199DB
:1040C0002C48891F81424BD8B11F814248D80198A2
:1040D000B04245D8FF20F530874241D20099781C84
:1040E0007043890088423BD822490098091F0A384A
:1040F000884235D8A06812210173A068E97841731D
:10410000A06808218173A0680021C173A06801998B
:1041100001740199A068090A4174A068310A867483
:10412000A068C174A068390A0775A0684175A068C5
:10413000009981750099A068090AC1750C20E0807A
:104140002146052001F05AFF002803D0412508E050
:1041500064250CE0A87806210843A870002506E035
:10416000422500212046FFF785FD00E04225284634
:10417000FEBD00007A0C000000B50005000D01F046
:1041800003FC002806D0017B0A07920F022A03D005
:10419000462000BD402000BD0C22114301730020C9
:1041A00000BD012802D0022803D004E08020C00115
:1041B000704701207047082070471CB5040001219A
:1041C000012001F041FF2000FFF7EBFF009068465F
:1041D00006210171002181710121417101F09EFFD1
:1041E0002000FFF7DEFF012102F000F813BD80B5CB
:1041F000FFF7D7FF002101F0F9FF01BD80B5FFF700
:10420000D0FF012101F0F2FF01BD70470EB4C0B52F
:10421000020003A801900020009001AB0121044896
:1042200078440C3001F0EEFF029906B0084700BF59
:10423000B7F30000F1B5FFB093B00C001500EFF339
:104240001080189072B600209F49087002F09AFA08
:10425000060092A8007802F0EFFA6946087092A86A
:10426000007802F017FB92A90978884200D908006B
:1042700069460978814200D901008E4200D90E00BA
:104280006846067091486946097889004018416D72
:10429000491C41656846007800280AD068460078C5
:1042A000012807D18A48007A0021894A117230BF5B
:1042B00010727BE368464470E148057068464078B8
:1042C000DF49087101A802F0F3FADD48007A69902D
:1042D00080480088689080480068679000208AAB1A
:1042E0007E4F81007A585A50401C0828F9DB7C48E0
:1042F000C06966907B48806965908025ED052868D7
:10430000649068686390A8686290E8686190286922
:10431000609068695F90A8695E90E8691C90E86A9F
:104320005D90286B5C90686B5B90288F5A90686CEE
:1043300059906D48006858906B48007C57906A48C7
:10434000008B56906848007F5590684800785490DC
:104350006648406853906548007A52906348808967
:1043600051906248007F5090614800784F906048BB
:1043700000794E905E48007A4D905D48007B4C90ED
:104380005B48007C4B90C54800684A90C348406831
:104390004990C248007C4890C048007D4790C04882
:1043A00000784690BE4880884590BD48806844901B
:1043B000BB48808943900022BA4C10050119900037
:1043C0000B6816AE33504B6814AE33508B8B12AE65
:1043D00033500B8C10AE33508B8C0EAE33500B8D94
:1043E0000CAE3350CB6A0AAE33504C23CB5A08AED6
:1043F00033504C314B6806AE3350C96804AB19508A
:10440000521C012AD9DDB020000600684290A6485F
:1044100000684190A44840684090A34880893F903C
:10442000A148008A3E90A04840693D909E48007E89
:104430003C909D48808D3B909B48006B3A909A48F9
:10444000406B39909848806B38909748C06B379094
:104450009548006C36909448406C3590934800889D
:1044600034909248808833909048007B32908F48F7
:10447000007C31908D48808A30908C48007E2F904F
:104480008B4800882E908A4880882D908848007B31
:104490002C908748007C2B908548808A2A908448FD
:1044A000007E2990834800682890824840682790C1
:1044B0000748006826900648007A25907E480068E4
:1044C000002817D17D4816E00C0000205C00002079
:1044D000000070400400104000E100E000E400E053
:1044E00004ED00E0080090400C0030402C0030400B
:1044F0005000304000201B90002271481A90142078
:1045000050431A994018910043687AAE735003687B
:1045100082AE7350836872AE7350C0686AAB5850F5
:10452000521C082AE9DB8120C005406824908120C4
:10453000C005007B23908120C005408B2290812004
:10454000C005008B21908120C005406A2090812009
:10455000C005806A1F908120C00500881E905948C0
:1045600000681D9068460078032806D15648006808
:10457000C021890501435448016000215348006867
:1045800050381990CD4A10651046026D13688E00A0
:104590008351491C121D02651429F6DB2848007955
:1045A000274909782A68520A514088436ED101A8E8
:1045B0004078000101A989780143112904DD002018
:1045C0004349086002F060FA3F48006841490860CA
:1045D000012002F0B7FB02F0CBFB002002F0B2FB9F
:1045E0003D4E3E480078002800D081E03C480068FD
:1045F000400636D43B480268394B19685140C948D7
:10460000394C2468056AAC421FD11B689A4203D01A
:10461000C54A12680A4018D13449096880225205F7
:1046200013000B400468224093420ED18022D20432
:10463000114000680240914213D01E4802E000BFC2
:1046400000002040006880070BD51F49C868020998
:10465000D01C80235B03984219D2CA681209824297
:10466000FBD301A84178090180780843112805DDB2
:10467000012002F009FAD14815490860684600781F
:10468000032803D1104801680E4006608EE1C86817
:104690000009CB4BD3189842F9D1E2E70000404023
:1046A000240040400000A0400400F0400400D0403E
:1046B0000400E04010E000E0000C704051E5CC1A2E
:1046C000080000A0080000C0040000480008041012
:1046D0001400002018000020FFFFFFCF0C00002076
:1046E00000E200E0C4080020C0080020BC08002050
:1046F0000120B449088200208880886000226F4928
:1047000019980865086D9300CB580360521C001D72
:104710000865142AF6DB6898AB49088067988249D7
:104720000860002081008AAA52587A50401C08284C
:10473000F8DB66987B49C8616598A44988616498EC
:104740002860639868606298A8606198E8605E98E5
:10475000A8615F986861609828611C98A8621C989D
:10476000E8615D98E8625C9828635B9868635A9892
:104770002887599868649648589901605799017438
:1047800056990183559901772030549901705399B6
:104790004160529901725199818150990177243079
:1047A0004F9901704E9901714D9901724C990173A5
:1047B0004B99017487484A99016049994160489929
:1047C000017447990175243046990170459981809B
:1047D000449981604399818100221005011990005C
:1047E00016AB1B580B6014AB1B584B6012AB1B581D
:1047F0008B8310AB1B580B840EAB1B588B840CABFC
:104800001B580B850AAB1B58CB624C3108AB1B58AD
:104810000B8006AB1B584B6004AB1858C860521C89
:10482000012ADADD4298B021090608606A49279812
:10483000486000208860289A0A606849419A0A60A6
:10484000409A4A603F9A8A813E9A0A823D9A4A611A
:104850003C9A0A763A9A0A63399A4A63389A8A6382
:10486000379ACA63369A0A64359A4A643B9A8A85AB
:104870005B49349A0A80339A8A80329A0A73319A51
:104880000A74584A309B13408B822F9B0B765649F3
:104890002E9B0B802D9B8B802C9B0B732B9B0B7467
:1048A0002A9B1A408A82299A0A765049269A0A60D7
:1048B000259A0A721B994E4A02E000BF5C00002054
:1048C0001160142141431A9A891882007AAB9B58CF
:1048D0004B6082AB9B580B6072AB9B588B606AAB92
:1048E0009A58CA60401C0828EBDB8120C005249937
:1048F0004160239901732299418321990183209971
:1049000041621F9981621E9901801D983949086092
:104910002E480078002834D168464078002830D0EE
:10492000284803E004ED00E000E100E001880922EE
:104930000A40092A02D1E96989051FD40188112298
:104940000A40112A02D1E969490517D401882122B8
:104950000A40212A02D1E96909050FD401884122C0
:104960000A40412A02D1E969C90407D4008881219B
:104970000140812905D1E869800402D501201E4942
:10498000086068460078032803D11C4801680E407F
:10499000066069981A49087268460078032801D1B0
:1049A000012100E00021002002F08EF8189880F329
:1049B000108800207FB014B0F0BD0000CCBCECFC2F
:1049C0000400F0FF08001048040010400800904068
:1049D0000C0030400000404010E000E00400F040D7
:1049E0000400D040BFFF00000400E0400000704021
:1049F000000C7040080000C000E200E00400004825
:104A00000000204010B50400202002F0B7FA012871
:104A1000FAD0200002F0A9FA10BDF0B585B0070069
:104A20000121092001F010FB8020400000906C461D
:104A3000012525710026A6716671684601F06EFB9E
:104A4000E80200902571684601F068FB0297032098
:104A500002A908714871CE804E7208728D7202A848
:104A600002F0E0F9002002F09AFA012002F0CEF9FB
:104A700005B0F0BD1CB50400684604210170032197
:104A80004170847002F02EF92100102002F063FAC8
:104A900013BD80B5102002F079FA002808D101BDBD
:104AA00002F068FA694608700121684600F011F8C2
:104AB000102002F063FA0028F2D001BD80B51F4932
:104AC0000860E1204002FFF7A8FF0120FFF7D2FFB6
:104AD00001BD1A4A1268002A00D1704780B590477C
:104AE00001BD80B5802002F049FA58E080B5082069
:104AF00002F044FA012800D0002002BD10490A68E3
:104B0000104B9854521C8020C000824200D10022D9
:104B10000A6070470A494A680B68934201D1012034
:104B20007047084B9B5C0370521C8020C00082427F
:104B300000D100224A60002070470000B808002021
:104B4000240000206004002070B5002504000E0041
:104B500003E0205CFFF7D2FF6D1CA8B2B042F8D38F
:104B600070BD70B50024012804D0022802D00020B6
:104B7000C04370BD002901D1002070BD0D0016009A
:104B800004E02878FFF73EFF6D1C641C3000461ED1
:104B90000028F6D1200070BD80B5FFF7BBFF401E96
:104BA0008041C00F02BD7047FFB595B00E46054667
:104BB00020210CA8FCF75AFD00200490564800273D
:104BC0000468681EAE34042802D8A078C0070BD051
:104BD000062D02D0002D0AD002E0A078800703D570
:104BE000E0784006800E0AD0462019B0F0BDA078CB
:104BF0008007F9D0E0784006800EF5D00FE0002D58
:104C00000DD0012D20D0022D28D0062D33D0032D1C
:104C100033D0042D37D0002E3BD04220E5E70020D2
:104C200002F0E0F90028E0D1E078800708D5042000
:104C3000694608736846FFF7F9F9022002F0E0FAC6
:104C40000120E0700020D0E7012EE6D0042EE4D051
:104C50001F980028E1D10627042008E0012EDCD0AF
:104C6000042EDAD01F980028D7D105270220E07043
:104C70000120049010E040200DE0022E01D0032E10
:104C8000CBD1082007E0012E01D0042EC5D1102081
:104C900001E004272020E07000230BAA19461E988B
:104CA00002F0D6FA030002D002F0C2FB32E010227A
:104CB000002107A8FEF7C4FD07A86C46279B269A8B
:104CC0001F990FC42B463046189A179902F0BAFB69
:104CD0000300E9D108A8017BC170259803AC049BAF
:104CE000289A29990FC422AB07CB02920091019018
:104CF00039460CA8209B219A02F0E8FB0300D3D18F
:104D000007A802F065FC0300CED1012002F06AF989
:104D10000300C9D1184668E75404002010B50446C2
:104D20000920C00600690002000A01F001F9A1682B
:104D3000FFF75CF9A060204601F00CF910BD704748
:104D400030B5104A002013680F4A01461268A0329D
:104D5000147B13E07C22DD6F4A43AA187425AD5CF6
:104D6000ED07957A06D0B02D06D3EAB2F02A03D823
:104D7000012030BDA02DF8D2491CC9B28C42E9D81F
:104D800030BD0000580400205404002010B50B482A
:104D90000B49006844184034207AC00709D000202D
:104DA00002F0BCFC217A890701D5002803D000203D
:104DB00010BD472010BD642010BD00005404002029
:104DC0002C070000026800230B80824203D09BB2B4
:104DD00012685B1CF8E7704700B50B4602F0BCFC9C
:104DE000002808D003CB083B086003CB41600020BB
:104DF000083B1860586000BD30B50F4B0F4D1B6865
:104E000004465B1940331B7A412085B09B0710D5BF
:104E10006B469981DA81002018820420588203AA07
:104E200004A96D4607C502231A4601212046FDF755
:104E30006BFB05B030BD0000540400202C070000BF
:104E400002480068AE30008870470000540400201B
:104E50000FB410B5079C01282DD1684680891749E9
:104E6000884210D103A80FC802F081FC00281DD190
:104E700002F09AFCFA281ED001281CD92078F321D0
:104E80000840207017E00D49491C884208D0C91E0F
:104E9000884205D0491C884202D0C91C88420AD1E8
:104EA00003AC0FCC02F063FC002800D0632010BCE0
:104EB00008BC04B018470020F9E70000022A0000EF
:104EC0002423184204D0C81F092803D82032D171E6
:104ED000002070474220704730B47446641E257825
:104EE000641CAB4200D21D46635D5B00E31830BC1E
:104EF00018477047FFB55248524A006887B0821879
:104F0000069210AA109B0126169F9288012B04D1AD
:104F10004D4B9A4201D1A030067B069D3446403568
:104F2000688B2B8B7C43C31A099820300390A342D3
:104F300022DA48200BB0F0BD2320405C012819D1B3
:104F400008896C46208098420CD03F4C641EA042D9
:104F500008D0641CA04205D0641CA04202D0A41C4E
:104F6000A04207D1384CFF3CA04201D0904201D171
:104F70006220DFE7096801E029231B0203988142D0
:104F8000DAD109981B99846918982246FFF798FF8F
:104F90004228CFD01C98012804D11598874201D20D
:104FA0004220C7E71598E083204620301C990590E1
:104FB000817027840A98808B401CA0831098012858
:104FC00014D02046102211A90830FEF733FC0599B1
:104FD0001098C8700698298B406D4018A061298BE5
:104FE000384670430818288300250FE011A80FC821
:104FF00008340FC4183CEAE72846A169784308182A
:10500000159A1799FEF716FC6D1CEDB2B542F3D355
:1050100005991898487105991998087105991A9871
:105020008871099821461830FFF7D6FE214603986B
:10503000FEF7B1FC0798A18B018000207AE7000001
:10504000540400202C0700000229000070B50D4612
:105050000B490024884204D8032102F0C7FB08282A
:1050600001D302240AE00749012209682031C97DE1
:105070008240114202D1294602F0FCFB204670BD5D
:10508000FF0E000054040020A446521E08D30378EB
:105090000C78401C491CA342F7D0181B644670478B
:1050A000002064467047704710B50D4900050B6835
:1050B0000921090259184A6B0021000DA0331B7BFE
:1050C0000AE04C01145B2405240D844202D14801FE
:1050D000801810BD491CC9B28B42F2D8002010BD07
:1050E000540400200068002801D0002070470120EF
:1050F0007047006870477FB50546986801220273C3
:105100009A681C4651739868022202A90E30FEF775
:1051100091FBA16805200D74E0807FBD10B50446A9
:105120000146042000F06AFF002808D00448054921
:105130000068401821463C3002F0EEFB432010BDD1
:10514000540400202C070000FEB504460020029005
:10515000C8881546032804D0134600220A210420DB
:1051600026E08968022268460D31FEF763FB684637
:105170000088002819D002F0E5FB010073D06846D2
:105180000A8D00880B27052682421DD1A868077367
:105190002C20405C01280ED00B46083310223146EB
:1051A000284600F002FD112059E02B4602465DE042
:1051B000FFF7A1FF54E00B46083302223146284690
:1051C00000F0F3FC03204AE001AAFEF7F1FC0028FE
:1051D00049D1208801220005000D0199FEF7F7FC56
:1051E000002804D069460A882B460A21E0E7019985
:1051F0002620405C40070ED5206902030BD4012213
:10520000D204104320618A8B21880220029B02F085
:10521000BDFB6920FEBD62880021284602F0DEFB4E
:10522000002801D04520FEBDA868214607730198DB
:1052300002F0DCFB6188491E8AB20199CC8BA24244
:1052400000D214468A69098C4143531831462246DC
:10525000284600F0AAFC641C2004000C03D0E8805F
:105260000020FEBDFFE7684602882B460A21012088
:105270009EE770B50546C88888B00C4616460528D6
:1052800004D0134600220C2104201FE0A168022252
:1052900004A80D31FEF7CEFA6846028A002A13D020
:1052A000A168022202A80F31FEF7C4FA6846008AFC
:1052B00002F048FB010076D068460A8D008A8242DF
:1052C00007D13346024620E033466FE0FFF713FF75
:1052D00066E06A46FEF76CFC002864D1288801224B
:1052E0000005000D0099FEF772FC002804D0694605
:1052F0000A8A33460C21E9E700986A88C18BD31EDD
:10530000994205D86846028A33460C210B20DDE716
:105310006B461B89994205D26846028A0C213346A6
:105320000720D3E72621095C49070ED529690C031C
:105330000BD40122D20411432961828B29880220D7
:1053400002F024FB692008B070BD0021304602F055
:1053500045FB002801D04520F5E7B0680D21017319
:105360002946009802F042FB014600986A46C38B2A
:1053700012899B1A9CB26B885B1E9BB29C4200D325
:105380001C468369008C484318188318052122465F
:10539000304600F00AFC641C2004000C03D0F080AE
:1053A0000020D0E7FFE76846028A33460C2101203F
:1053B0008CE70000F7B5FFB085B0054600246946CC
:1053C0008C815F485F49006846188598C088411EF7
:1053D000042902D3C043C00704D000220E210420B8
:1053E000869B44E0286900031BD403A8009004AB0B
:1053F0003046869A859902F021FB6846808900280C
:105400000FD001222969D20411434006020E2961FE
:10541000298804AB022002F049FB69207FB008B064
:10542000F0BD6A880021869802F0D8FA002801D0E1
:105430004520F3E78598C088401E87B2012677E0B3
:10544000301D81B201AB0222859802F063FB6846F1
:105450008088002832D002F075FA01002ED068460C
:105460000A8D8088824224D1002C03D007E0FFF708
:1054700042FE63E086980F228068012402736888E8
:10548000A04253D02C22525C012A05D0001B80B2CE
:10549000102806D3102004E0001B80B2022800D39D
:1054A00002200090201D0B4680B208330146009A6E
:1054B00036E002AAFEF77CFB002805D06846828809
:1054C0000E210120869BD2E7288801220005000DCD
:1054D0000299FEF77CFB002804D069468A880E21D9
:1054E000869BC4E7002C04D186980F218068012494
:1054F00001736888A04219D0029A001BD18B80B238
:10550000884200D3084600902946104602F06EFA01
:1055100002998A69098C41435318201D009A81B26F
:10552000869800F042FB0098201884B2B61CB6B2F0
:10553000BE4285D3002C01D08698C48000206DE740
:10554000540400202C070000F7B5FFB093B00746C5
:105550000C46002080A903908883AD48AD490068BF
:1055600002264518E088072806D0152804D0002216
:1055700008210420949B4CE0A168022285A80D31EB
:10558000FEF758F9A168022286A80F31FEF752F9FA
:1055900080A8828A008B824238D8002A36D0102216
:1055A0009D498DA8FEF746F9E088072834D089ABDD
:1055B00010220921204602F0ADFA3869000337D4E1
:1055C000398868460174090A417480A90A8B898A5E
:1055D00089A86C4607C404AC8DAB87AA2846A11CD9
:1055E00002F0A1FA80A8808B002821D001213A691D
:1055F000C9040A433A614006020E3988A31C0220FE
:1056000002F054FA69207FB016B0F0BD08210120E5
:10561000949BFFF770FDF2E010227F4989A8FEF706
:1056200009F9A16802228CA81131FEF703F9C4E739
:105630007A880021949802F0D1F9002801D0452001
:10564000E1E7083580A88895808A02F07BF905009B
:1056500090A8019074D0B8E0294602222A3101981E
:10566000FEF7E8F8102289A98DA8FEF7F3F80028C4
:1056700006D02846203000902C6A84427ED1A3E0D8
:105680000398002804D0042810D0122806D0AAE0DD
:105690002C20405D012806D0122003902C20405D74
:1056A000022807D09FE00420039003E02C20405DF7
:1056B00001287DD1301D81B22B46283302229498D7
:1056C00000F073FA03982B46801E82B2B01D81B29F
:1056D0000833B61C949800F068FA03983018801EBE
:1056E00086B271E080A9A08B898A884268D380A99C
:1056F000098B884277D82320005D012808D02046F6
:105700000830102289A9FEF7A5F8002808D057E034
:105710002146022208310198FEF78CF88DA8F0E7A7
:10572000388801220005000D2146FEF750FA039942
:10573000002915D1002804D0A28B0821949B68E78A
:105740005FE0E18BFD2901D9FF2101E0891CC9B28D
:1057500003917988039A891E914201D2C9B20391BB
:1057600079888A1B03998A423DDB00283BD1039844
:10577000E18B801E0290814235D100E021E0301D96
:1057800081B223461C330222949800F00EFA394667
:10579000204602F02BF9218CA2694143029853184C
:1057A00082B2B01D81B2949800F0FFF9039800E036
:1057B00019E0301886B27888811B0398814212DB89
:1057C0002468009884428DD12D68889885420AD03B
:1057D00080A9288D098B884205D878880399801B79
:1057E000884200DB38E7022E0BD9949809218068A3
:1057F000017394980399806841739498C68000203F
:1058000001E780A8828A08210A20949B01E7000012
:10581000540400202C0700006C36051010B5044617
:105820000068884209D10268226000220260206874
:1058300000280BD1626009E0104602688A42FBD161
:105840000A68026062688A4200D16060084602F01D
:10585000DFF9E17A081AE072A07A401EA07210BD4A
:1058600070B50D4A054613680C4A002012680146BF
:10587000A032147B0DE07C22DE6F4A43B218D67A48
:10588000F60704D01289AA4201D0012070BD491C3C
:10589000C9B28C42EFD870BD5804002054040020D7
:1058A0007047F0B50E460746002407E03D1902F0A8
:1058B000B4F92870000A6870A41CE4B2B442F5D3AD
:1058C000F0BD0000F7B5164600241CE00098114911
:1058D000001940188108019889000019427805785C
:1058E000120215438278C078120400060243094868
:1058F000154340420F182946384600F01EF8386814
:10590000854204D1241DB442E0D30020FEBDFB201B
:10591000FEBD00000000FCEF10490968104A9142EA
:105920000AD110493F220A814006000C88611120EB
:105930000880088AC007FCD57047084A1268084BDF
:105940009A420AD1074A3F2313818008906111646B
:1059500033201080108AC007FCD570471400002047
:10596000CCBCECFC0000104030B504460120002304
:1059700006E0D55CA54201D0002030BD5B1CDBB247
:105980008B42F6D330BD000070B500281BD0030554
:105990000F48002100680D4A1B0DA0301268047BDF
:1059A0000FE008467C267043D56F0830285A000562
:1059B000000D984203D17C225143681870BD491CE8
:1059C000C9B28C42EDD8002070BD00005804002000
:1059D0005404002070B515460C46064602F03AF90C
:1059E00020346179012D09D00A0702D54207920FB0
:1059F0000FD0CA0625D5020709D522E0CA0702D072
:105A00004207920F05D08A0705D5020703D4082064
:105A100070BD052070BD490707D5C00709D0E179E1
:105A2000304602F02EF95F2805D02079C00704D057
:105A300005E00F2070BD0C2070BD022070BD00205D
:105A400070BD890607D5C007F3D0E179304602F072
:105A500018F95F28EFD02079810701D4022D07D0F3
:105A6000410701D4042D03D00007E8D4082DE6D166
:105A7000032070BD70B5124A092312681B02D218A8
:105A80000123D26A83435B00491E41249B184909C4
:105A9000491CC9B272B615798D420ED31E785B7857
:105AA000AD19EDB25B18AB4207D84000135C00247F
:105AB0005B1813541079401A107162B6204670BDFD
:105AC00054040020491EC904090E72B602788A42A5
:105AD0000CD9511AC9B24A1ED3B203704268880069
:105AE0001058990052580021116000E0002062B661
:105AF00070470000F7B507461848092100680902F9
:105B00004018C46A41201646002F11D0384602F0D2
:105B1000C8F80546B0420CD2301A81B20198FFF79E
:105B2000A9FF002804D132463946A06802F0C3F824
:105B3000FEBD32463946A06802F0BDF86D1E761EE5
:105B400069097209891A72B6019A5200A35C5B1A3C
:105B5000A35422795118217162B6FEBD540400206D
:105B60000021002804D0491C0068C9B20028FAD1DD
:105B700008467047002917D072B60278002A03D071
:105B8000436892009A58116010B400238B80027809
:105B9000521CD2B2027044689200A15009680029D8
:105BA000F4D162B610BC7047704710B51C4613465E
:105BB0000A468068214602F0C5F810BDF0B594464B
:105BC00000220A806346104C1A60092322681B02D7
:105BD0008646D2184120526B00230FE05D01AD18BC
:105BE0002F697646374207D06F880E88B74203D9AF
:105BF0000F806046056000205B1CDBB22568A03585
:105C00002D7B9D42EAD8F0BD54040020F3B5074631
:105C100075480F22006883B0002F0ED0012F12D0DC
:105C2000022F14D02F21490141180191032F10D0C8
:105C3000012F11D0022F0DD110E06C4941180191B4
:105C40008D21C9000CE09D21C9004118EDE768498C
:105C5000EAE71F22674903E0674901E02B21490178
:105C6000401800900478944203D1002F11D0032FE4
:105C70000FD0944201D1022F0DD00025384604994F
:105C800000F0BCF80290FF2807D0FE25002F7DD041
:105C9000A6E0FF25A4E0FC25F0E7FE2D77D0022F3B
:105CA00010D1FC2D0ED15048019A0068FF30013010
:105CB000417ECB009A18D2794276022002F076F823
:105CC000641EE4B2002C39D00198E1000D182E4674
:105CD000083E04990720401E0B5C325C9A1A0BD0D8
:105CE000002A0BDD0198E100081807220499FDF74E
:105CF000A1FD251E22D027E00028ECD1284607224E
:105D00003146FDF797FDF079E871022F12D0F07956
:105D1000C14349060ED0372148433349096840182A
:105D2000FF301B30002F02D0012F17D0C01C01788C
:105D3000491C0170641E2406240EC5D10722049953
:105D40000198FDF777FD00250098022F007807D015
:105D5000401C0099002F08703DD041E0401CE6E750
:105D6000002822D00199C2005118C91D0A78521C7E
:105D7000D2B2A24200D90A70401E08390028F5D1DB
:105D800000980078002810D0174801E025E01FE0B7
:105D90000068FF300130417EA14201D3491C4176A9
:105DA000017EA14201D3491C01760F480168FF31F1
:105DB0000131097ECA0001995118CC710068FF3089
:105DC00001300476009800990078401C087007E0C4
:105DD000002F02D004E0FE2D02D1029D8020054359
:105DE000284605B0F0BD0000540400206C040000FB
:105DF00064050000DC050000E4040000F0B51D4A65
:105E00000423126800280AD0012826D0022828D0AE
:105E10002F24640112199646032824D002E0164864
:105E2000121896460F20844601209840C3B20026DF
:105E30005B08F018C0B260450BD2C200744614195A
:105E40000722521E8D5CA75CED1B0FD0002D00DDDC
:105E50000646002BECD1FF20F0BD9D24E400121972
:105E6000D9E7064CD6E705231F20DCE7002AE8D156
:105E7000F0BD0000540400206C0400006405000024
:105E800030B50C4A412312685B01D218936A203264
:105E9000147B1F2C02D90020087030BD002205E0C1
:105EA0001D780570521C401CD2B25B1CA242F7D375
:105EB0000C7030BD5404002070B51C4A4123126898
:105EC0005B01D418E36B0833A3621F2901D930208A
:105ED00070BD0022656BE66BAD5CB554521CD2B24E
:105EE000082AF7D3002205E00578521C1D70401CDB
:105EF000D2B25B1C8A42F7D32C200155E06B891D7E
:105F0000417001F0E9FF217E01290CD008280AD256
:105F1000616BE06BE16360638034616A4880A16A11
:105F20004880E16A4880002070BD000054040020D1
:105F300010B50749E1220968D2008C18A169401AFE
:105F40000002000A01F0ECFF6169081810BD0000B2
:105F500054040020F8B51B4D0646E1212868C9000D
:105F60004418317B481E3E2801D34220F8BD20460C
:105F7000A2680830824205D03A2905D22021095D65
:105F8000072901D36420F8BD694601F0D1FF102232
:105F900031460098FDF74EFC20460099FDF7FBFCCA
:105FA0000098007B3A2803D220342078401C2070CF
:105FB00072B62868DF224030C1791140C17162B6E3
:105FC0000020F8BD5404002030B502460A480F23D3
:105FD0000068DB010021C318A030047B07E0D86F04
:105FE0000D0140190588954204D0491CC9B28C4264
:105FF000F5D8002030BD00005404002010B50C4638
:106000000146042805D0052903D0062901D05020D7
:1060100010BDA068A2790272E088020AA0684272EC
:10602000A0688172A068090AC172E088001DE08042
:1060300002202073204601F089FF0028E8D0E08884
:10604000001FE080412010BD304A0129116802D1B3
:106050000843106070478143116070472C480278F4
:106060002C4801880020002A44D109220A40092A2C
:1060700000D1202011220A40112A02D10200402022
:10608000104321220A40212A02D10200802010431D
:1060900041220A40412A03D10200802040001043DF
:1060A00081220A40812A03D102008020800010430F
:1060B000FF22921C13000B40934203D10200802068
:1060C000C0001043144A13000B40934203D1020056
:1060D00080200001104305220A40052A02D1020057
:1060E000102010438907890F03290ED101000820D1
:1060F00008437047022A01D101207047042A01D1C8
:1061000002207047082A00D10420704720009040E8
:10611000080090400800104801040000F0B5047920
:1061200022000021354B002C04D11C680568AC43CB
:106130001C6006E0062C04D100221C68056825437B
:106140001D600568CD40ED0738D5082909DA8D00B6
:106150009E6A0F27AF40BE431700AF4037439F6290
:106160002CE00D00083D082D0BD20D00083DAD00C0
:10617000DE6A0F27AF40BE431700AF403743DF62F0
:106180001CE00D00103D082D0BD20D00103DAD00A0
:106190001E6B0F27AF40BE431700AF4037431F634E
:1061A0000CE018290ADB0D00183DAD009E8E0F276C
:1061B000AF40BE431700AF4037439F86491C1A29A2
:1061C000BFDB01684279012A9A6802D111439960C4
:1061D00001E08A439A60016880790128586802D1F9
:1061E00001435960F0BD88435860F0BD044A01295D
:1061F00001D11060704750607047000004000040FB
:106200003C000040F8B596B0050017001E001C9831
:10621000049103A92B22885400200A9002950E971E
:1062200000960EE0252912D00498029A9047049017
:10623000002800D1D2E00A98401C0A900E98401C19
:106240000E900E9801780029ECD10A98C8E0002041
:106250000790089009900226082101910124042149
:106260000E9D00E020436D1C2A78202AFAD0232AB4
:106270000AD02B2A04D02D2A04D0302A08D00AE0D4
:106280003043F0E70843EEE7020008201043EAE756
:1062900002001020FAE72A2A0ED1009A17683A68FD
:1062A0003F1D009B1F600C92002A03D553420C93A4
:1062B000014308006D1C14E000210C91004A0BE022
:1062C000CBCCCC0C0C9B934205DA9F00FB185B00F7
:1062D000591830390C916D1C29780B00303B0A2B72
