:020000041004E6
:10000000006000206BFC051081E705108DE70510EE
:10001000AA5555AA45554C420000000000000000BA
:1000200000000000000000000000000099E705103B
:100030000000000000000000A73E04109BE7051030
:100040002B3F0410DF4404100000000000000000FB
:10005000A5E7051097480410FDE705105356041056
:100060000000000000000000000000000000000090
:1000700000000000A7570410BB7004109F7204100A
:1000800000000000EB4A04101F4D0410E34F041061
:10009000DF55041033560410437D0410D5E70510D6
:1000A0000000000000000000000000000000000050
:1000B0000000000000000000000000000000000040
:1000C00010B5062B01DC002010BD140042788178A9
:1000D0000906090C0A43C178100003F075FDE070B1
:1000E000042020700F216170A07001212171062170
:1000F000617100F060FD10B5062B01DC002010BD21
:100100001400417882781206120C1143080003F0A3
:100110005FFDE070042020700F216170A07001214C
:1001200021711D21617100F046FD10B5062B01DC27
:10013000002010BD1400401C03F082FDA0710420BB
:1001400020700E216170A0700120E07010E010B5E9
:100150001400062B01DC002010BD03F085FDA0710A
:10016000042020700E216170A0700120E070032037
:1001700020710C206071072010BD38B500216C463D
:100180002170092B01DC002032BD140005006878C5
:10019000A9780906090C08436A46E97803F069FD65
:1001A000A0716878A9780906090C0843E071000A73
:1001B0002072684600786072042020700E20607003
:1001C0000720A0700120E0702D2020710C206071AC
:1001D0000A2032BD10B586B000206C4669466060CA
:1001E00088600F2B44DB140002A8009002AB9B1C1C
:1001F00001AA01A9891C01A8401C03F057FDA071A8
:1002000003A803F065FD03A86946C9880907090F1B
:10021000427812030A4381780902F0231B010B4044
:10022000134300780001F021014019436846C18062
:100230004079E0716846C0882072000A60726846A2
:100240000079A07268464089E072000A207368460F
:1002500000896073000AA073042020700E20607073
:100260000C20A0700120E0702071102060710F2020
:1002700006B010BD10B590B0472B01DA002016E093
:100280001400684603F093FDA07140226946E01D0A
:1002900003F0D4FD042020700E2060704420A07074
:1002A0000120E0700220207110206071472010B002
:1002B00010BD1CB50F2B01DA002016BD14006846D6
:1002C00003F0D0FDA07108226946E01D03F0B6FDE1
:1002D000042020700E2060700C20A0700120E070BF
:1002E00003202071102012E31CB50D2B01DA002031
:1002F00016BD1400684603F0BFFDA07106226946D2
:10030000E01D03F09BFD042020700E2060700A2089
:10031000A0700120E07009202071102000F0FBFC8B
:1003200038B500216C462170092B01DC002032BD5C
:10033000140005006878A9780906090C0843694685
:1003400003F0A6FDA0716878A9780906090C084396
:10035000E071000A20726846007860720420207004
:100360000E2060700720A0700120E0700520207131
:10037000142060710A2032BD10B5062B01DC00206C
:1003800010BD1400401C03F08FFDA07104202070EC
:100390000E216170A0700120E07020712020E9E63C
:1003A0001CB50020694648800870092B1ADD14002E
:1003B00000A8801C03F098FDA07168464088E07199
:1003C000000A2072684600786072042020700E20B7
:1003D00060700720A0700120E070022020712020B2
:1003E00060710A2016BD1CB50F2B01DA002016BD66
:1003F0001400684603F094FDA07108226946E01DD0
:1004000003F01CFD042020700E2060700C20A070F2
:100410000120E070032078E210B5062B01DC0020FB
:1004200010BD1400401C03F081FDA0710420207059
:100430000E216170A0700120E07005202071202045
:1004400098E638B584B0062B01DC002025E01400C6
:10045000C17802791206120C11434578827812068F
:10046000120C1543C27B0392827B02920200083277
:100470000192C279009283794279280003F082FDCB
:10048000A071042020700E216170A0700120E07026
:100490000620207120206071072005B030BD1CB5FA
:1004A0001400002069460870072B13DD684603F02E
:1004B000B5FDA07168460078E071042020700E2020
:1004C00060700520A0700120E070072020712020BE
:1004D0006071082016BD10B5062B01DC002010BD90
:1004E0001400811C407803F09DFDA0710420207051
:1004F0000E216170A0700120E07008202071202082
:1005000038E610B5062B01DC002010BD1400811C5C
:10051000407803F092FDA071042020700E216170DC
:10052000A0700120E07009202071202022E610B583
:10053000062B01DC002010BD1400407803F088FD7C
:10054000A071042020700E216170A0700120E07065
:100550000A20207120200DE61CB5062B01DC0020AE
:1005600016BD1400027941790906090C0A43817805
:10057000C3781B061B0C1943C37900938379407819
:1005800003F0B0FEA071042020700E216170A070F5
:100590000120E0700B202071202001F047FC10B5F5
:1005A000062B01DC002010BD14008178407803F098
:1005B000A0FEA071042020700E216170A0700120A7
:1005C000E0700C2020712020D4E5F8B58AB0062B0D
:1005D00001DC002050E0140001000A7E487E000685
:1005E000000C0243684682848A7DC87D0006000CA8
:1005F00002430B7D487D0006000C03438D7CC87CC4
:100600000006000C05430E7C487C0006000C0643E7
:10061000887BCF7B3F063F0C38436F467884C87891
:100620000F793F063F0C38436F46388448788F78FF
:100630003F063F0C38436F46BF8C079706920593E1
:10064000049503966A46528C02924A7B0192CA1D17
:1006500000928B794A796946098C03F014FEE070A8
:10066000042020700F216170A070012020710D20E6
:1006700060712020A07107200BB0F0BD10B5062BD3
:1006800001DC002010BD140003F01AFEA07104204C
:1006900020700E216170A0700120E0702171202077
:1006A00068E51CB51400002069460870072B13DDAF
:1006B000684603F0DAFEA07168460078E071042015
:1006C00020700E2060700520A0700120E0700F20C7
:1006D000207120206071082016BD10B51400062B73
:1006E00001DC002010BD03F0C7FEA07104202070C3
:1006F0000E216170A0700120E07010202071202078
:1007000038E510B5062B01DC002010BD1400811C5B
:10071000407803F0B5FEA071042020700E216170B6
:10072000A0700120E07011202071202022E510B57A
:10073000062B01DC002010BD1400811C407803F062
:10074000B8FEA071042020700E216170A0700120FD
:10075000E0701220207120200CE5F8B584B0062B43
:1007600001DC00203DE01400427B817B0906090C7E
:100770000A43C57A017B0906090C0D43467A817A42
:100780000906090C0E43C379017A0906090C0B43CB
:10079000417987793F063F0C39436F46F981C1782B
:1007A00007793F063F0C39436F46B9814178877816
:1007B0003F063F0C394308000292019500966946B6
:1007C000CA89898903F080FDE070042020700F2120
:1007D0006170A07001202071132060712020A07131
:1007E000072005B0F0BD10B5062B01DC002010BDC0
:1007F0001400401C03F085FDA071042020700E2120
:100800006170A0700120E070142020712020B1E4FC
:100810003EB50E2B01DA00203EBD140005006878BD
:10082000A9780906090C0843694603F054FEA07133
:100830006878A9780906090C0843E071000A20725B
:10084000052269462000093003F0F8FA04202070E0
:100850000E2060700B20A0700120E0701520207128
:10086000202060710E203EBD10B5062B01DC00205B
:1008700010BD1400417882781206120C1143080052
:1008800003F02EFEE070042020700F216170A07034
:100890000120207116208CE11FB5172B01DA0020F2
:1008A00019E014006A4601001131401C03F024FED7
:1008B000A07110226946E01D03F0C0FA04202070E8
:1008C0000E2060701420A0700120E07017202071AD
:1008D00020206071172004B010BD1CB50F2B01DA69
:1008E000002016BD1400684603F00BFEA07108221C
:1008F0006946E01D03F0A2FA042020700E2060700B
:100900000C20A0700120E070182020712020607160
:100910000F2016BD38B5062B01DC002032BD1400B7
:10092000C27A017B0906090C0A43457881780906D9
:10093000090C0D4303000D33C11C280003F0DDFC3E
:10094000E070042020700F216170A07001202071E0
:1009500019206071202000F000FF38B5092B01DA62
:10096000002032BD140005006878A9780906090C3A
:100970000843E91C03F0C9FDA0716878A97809064D
:10098000090C0843E071000A2072042020700E2038
:1009900060700620A0700120E0701A201FE038B5BA
:1009A000092B01DA002032BD140005006878A9780F
:1009B0000906090C084303F0AFFDA0716878A97817
:1009C0000906090C0843E071000A20720420207017
:1009D0000E2060700620A0700120E0701B202071A6
:1009E00020206071092032BD1CB50F2B01DA0020D8
:1009F00016BD1400684603F096FDA07108226946F2
:100A0000E01D03F01BFA042020700E2060700C2003
:100A1000A0700120E0701C2077E710B5062B01DCE8
:100A2000002010BD1400407803F082FDA071042066
:100A300020700E216170A0700120E0701D202071D7
:100A40002020FFF797FB10B5062B01DC002010BD1E
:100A50001400C2788178407803F080FDA0710420F2
:100A600020700E216170A0700120E0701E202071A6
:100A70002020FFF77FFB1CB514000020694608808A
:100A8000092B15DB684603F08FFDA07168460088CE
:100A9000E071000A2072042020700E206070062091
:100AA000A0700120E0701F202071202060710920BB
:100AB00016BD38B5092B01DA002032BD140005003F
:100AC0006A79A8790006000C0243E97828790006C3
:100AD000000C01436878AB781B061B0C184303F02D
:100AE00040FCA0716878A9780906090C0843E071F8
:100AF000000A2072042020700E2060700620A07072
:100B00000120E07022206AE71CB5002069460860D9
:100B10000B2B1CDB140000A8801C03F026FCA0712A
:100B200068464088E071000A20726846008860725A
:100B3000000AA072042020700E2060700820A070AF
:100B40000120E07023202071202060710B2016BD51
:100B500010B5062B01DC002010BD1400C17802790D
:100B60001206120C1143427883781B061B0C1A43A1
:100B7000100003F0FEFBA071042020700E216170B4
:100B8000A0700120E070242020712020FFF7F2FAED
:100B900010B51400062B01DC002010BD03F00DFC85
:100BA000E070042020700F216170A070012020717E
:100BB000252060712020A071072010BD10B5062BE4
:100BC00001DC002010BD1400401C03F0FAFBE070B3
:100BD000042020700F216170A07001202071262058
:100BE000E7E710B5062B01DC002010BD1400030060
:100BF000183302000832811C407803F051FAA071CA
:100C0000042020700E216170A0700120E070272068
:100C100020712020FFF7AEFA10B5062B01DC002072
:100C200010BD1400811C407803F036FAA071042036
:100C300020700E216170A0700120E07028202071CA
:100C40002020FFF797FA10B51400062B01DC0020D6
:100C500010BD03F03DFAA071042020700E216170D8
:100C6000A0700120E070292020712020FFF782FA77
:100C70001CB51400002069460870072B13DD684678
:100C800003F022FAA07168460078E0710420207019
:100C90000E2060700520A0700120E0702A202071D5
:100CA00020206071082016BD1CB50D2B01DA002034
:100CB00016BD14006A46811C407803F0FDF9A0714E
:100CC00006226946E01D03F0B9F8042020700E20CA
:100CD00060700A20A0700120E0702B2019E01CB584
:100CE0000D2B01DA002016BD14006A46811C4078E5
:100CF00003F0E6F9A07106226946E01D03F09EF8B4
:100D0000042020700E2060700A20A0700120E07086
:100D10002C202071202060710D2016BD10B5062BEF
:100D200001DC002010BD1400407803F0C1F9A0716F
:100D3000042020700E216170A0700120E0702D2031
:100D400020712020FFF716FA10B5062B01DC0020D9
:100D500010BD1400417882781206120C114308006D
:100D600003F0A2F9A071042020700E216170A07020
:100D70000120E0702E2020712020FFF7FBF91CB528
:100D800000206946486008600F2B2ADB14006B4680
:100D900000AA921C01A901A8801C03F0EEFAA07120
:100DA0006846C088E071000A2072684680886072D8
:100DB000000AA07268464088E072000A2073684604
:100DC00000886073000AA073042020700E206070F9
:100DD0000C20A0700120E0702F2020712020607175
:100DE0000F2016BD38B5002568460580092B01DAAD
:100DF000002032BD140003F0E9FBA07168460088B2
:100E0000E071000A2072042020700E20607006201D
:100E1000A0700120E0702571FC20E2E518B58BB0D0
:100E2000002008AC2060694608856C46E061486295
:100E3000152B50DB140009A80690801C059007A80C
:100E40000490401C039007A8801C029007A8C01CB7
:100E500001900AA8009008AB08AA521C08A9891C96
:100E600008A8C01C03F0C0FBA07108A8C01C007833
:100E7000E07108A8801C0078207208A8401C007847
:100E8000607208A80078A0726846008DE072000ABF
:100E900020736846C07F60736846807FA073684691
:100EA000407FE0736846007F20746846C08C6074A1
:100EB000000AA0746846808CE074000A2075042043
:100EC00020700E2060701220A0700120E070207150
:100ED000FC20607115200CB010BD10B5062B01DC94
:100EE000002010BD1400C21C8178407803F0DEFBA6
:100EF000A071042020700E216170A0700120E070AC
:100F00000C202071FC20FFF735F950B5C1B01E0050
:100F100000216B461970072E0FDB140001AA6946E9
:100F2000407803F0C7FBA071072E06DD6846007805
:100F3000E07102460830864201D2002014E001A987
:100F40002000083002F07AFFE079801C0421217033
:100F50000E216170C11CA1700121E1700D21217170
:100F6000FC216171801D80B241B050BD10B5062BCF
:100F700001DC002010BD14008178407803F09EFB56
:100F8000A071042020700E216170A0700120E0701B
:100F90000F202071FC20FFF7EDF81CB50020009019
:100FA0000B2B15DB1400684603F08CFBA071E11DD0
:100FB000009803F093FB042020700E20607008203E
:100FC000A0700120E07014202071FC2060710B20C3
:100FD00016BD10B5062B01DC002010BD1400817871
:100FE000407803F085FBA071042020700E21617011
:100FF000A0700120E07015202071FC20FFF7BAF8E6
:1010000010B51400062B01DC002010BD03F0E0FB3E
:10101000A071042020700E216170A0700120E0708A
:1010200016202071FC20FFF7A5F810B586B01F2B05
:1010300001DA00201DE0140002A9684603F0EAFB73
:10104000A07108226946E01D02F0F8FE102202A9F4
:1010500020000F3002F0F2FE042020700E2060709D
:101060001C20A0700120E07017202071FC2060710E
:101070001F2006B010BD10B5062B01DC002010BDEE
:101080001400417882781206120C1143080003F014
:10109000EBFBA071042020700E216170A070012074
:1010A000E07018202071FC20FFF764F81CB50020C8
:1010B000019000900F2B1BDB1400694601A803F080
:1010C000DBFBA071E11D019803F008FB21000B314F
:1010D000009803F003FB042020700E2060700C20A9
:1010E000A0700120E07019202071FC2060710F2099
:1010F00016BD10B5062B01DC002010BD1400401CED
:1011000003F0BEFB03F0C8FBA071042020700E2189
:101110006170A0700120E0701A202071FC20FFF7A0
:1011200029F810B51400062B01DC002010BD03F0D7
:1011300053FAA071042020700E216170A07001206C
:10114000E07020202071FC20FFF714F810B5062B6A
:1011500001DC002010BD1400037941790906090C57
:101160000B43C2788178407803F07CFAA0710420A8
:1011700020700E216170A0700120E0702B20207182
:10118000FC20FEF7F7FF10B51400062B01DC002051
:1011900010BD03F091FBA071042020700E2161703E
:1011A000A0700120E07081202071FC20FEF7E2FF9A
:1011B000F0B587B0017A0400093465182C78091954
:1011C00041180A31062B01DC002032E014008B7834
:1011D000CA781206120C13430E784A781206120CC3
:1011E0001643027941790906090C0A438178C778C8
:1011F0003F063F0C3943069305966B1C04932B78EE
:101200000393030009330293037A0193C379009394
:101210008379407803F05AFBE070042020700F219E
:101220006170A0700120207182206071FC20A0718B
:10123000072007B0F0BDF0B587B0017A040009348B
:1012400065182C78091941180A31062B01DC002099
:1012500032E014008B78CA781206120C13430E7811
:101260004A781206120C1643027941790906090CD4
:101270000A438178C7783F063F0C394306930596A9
:101280006B1C04932B780393030009330293037AB6
:101290000193C37900938379407803F038FBA07100
:1012A000042020700E216170A0700120E070832066
:1012B0002071FC206071072007B0F0BD1CB5062B23
:1012C00001DC002016BD1400017B427B1206120CCB
:1012D0001143827AC37A1B061B0C1A4301910092B8
:1012E000031DC2788178407803F032FBA07104209E
:1012F00020700E216170A0700120E070842000F049
:1013000093FD10B5062B01DC002010BD14004078C1
:1013100003F030FBA071042020700E216170A070DA
:101320000120E07085202071FC20FEF723FF30B5FE
:1013300085B00500062B01DC00201FE014000830FA
:1013400003F09EFA297B04910390E8790290A87932
:101350000190687900902B79EA78A978687803F091
:1013600011FBA071042020700E216170A07001207B
:10137000E07086202071FC206071072005B030BD30
:1013800010B5062B01DC002010BD140042788178D6
:101390000906090C0A43C178100003F03DFBA07157
:1013A000042020700E216170A0700120E070872061
:1013B0002071FC20FEF7DEFE38B50500062B01DCAF
:1013C000002032BD1400E81C03F05AFA01006878CE
:1013D000AA781206120C104303F028FBA071042017
:1013E00020700E216170A0700120E070882083E0E1
:1013F00010B5062B01DC002010BD14004278817866
:101400000906090C0A43C178100003F01BFBA07108
:10141000042020700E216170A0700120E0708920EE
:101420002071FC20FEF7A6FE1FB500216C46A181AD
:10143000A1600D2B01DA002027E0140002A9019120
:10144000891C009103ABC2788178407803F004FBDB
:10145000A07168468089E071000A20726846408960
:101460006072000AA07268460089E072000A207368
:10147000042020700E2060700A20A0700120E0700F
:101480008A202071FC2060710D2004B010BD10B5C1
:10149000062B01DC002010BD14008178407803F099
:1014A000F3FAA071042020700E216170A070012059
:1014B000E0708B202071FC20FEF75CFE38B5062B17
:1014C00001DC002032BD1400C17802791206120C32
:1014D0001143457882781206120C154383794279BC
:1014E000280003F0DBFAA071042020700E21617047
:1014F000A0700120E0708C202071FC20607107201A
:1015000032BD10B5062B01DC002010BD140041785F
:1015100082781206120C1143080003F0C9FAE07039
:10152000042020700F216170A070012020718D2097
:101530006071FC20FFF73FFB10B5062B01DC00209B
:1015400010BD1400811C407803F0B6FAA07104208D
:1015500020700E216170A0700120E0708E2020713B
:10156000FC20FEF707FE10B5062B01DC002010BDA5
:101570001400407803F0A8FAA071042020700E2116
:101580006170A0700120E0708F202071FC20FEF7B8
:10159000F1FD1CB500216C462180082B01DC0020E8
:1015A00016BD1400437881780906090C0B436A467E
:1015B00000A9491C180003F093FAA071684640780E
:1015C000E071684600782072042020700E20607060
:1015D0000620A0700120E07090202071FC20607136
:1015E000092016BD10B5062B01DC002010BD14002B
:1015F000417882781206120C1143080003F076FA43
:10160000A071042020700E216170A0700120E07094
:1016100091202071FC20FEF7ADFD10B51400062BC3
:1016200001DC002010BD03F071FAA07104202070CD
:101630000E216170A0700120E07092202071FC20CA
:10164000FEF798FD10B5062B01DC002010BD14003C
:10165000427881780906090C0A43C178100003F02A
:1016600059FAE070042020700F216170A0700120F1
:10167000207193206071FC20FFF79DFA10B51400D3
:10168000062B01DC002010BD03F048FAA0710420F5
:1016900020700E216170A0700120E07094202071F4
:1016A000FC20FEF767FD10B5062B01DC002010BD05
:1016B0001400417882781206120C1143080003F0DE
:1016C00031FAA071042020700E216170A0700120F9
:1016D000E07095202071FC20FEF74CFD38B5062BFC
:1016E00001DC002032BD1400C17802791206120C10
:1016F0001143457882781206120C1543837942799A
:10170000280002F07AFDE070042020700F21617043
:10171000A0700120207196201DE038B5062B01DC59
:10172000002032BD1400C17802791206120C114358
:10173000457882781206120C154383794279280085
:1017400002F05FFDE070042020700F216170A07036
:101750000120207197206071FC20A071072032BD0C
:10176000F0B589B0062B01DC00204EE0140001002A
:10177000CA7D087E0006000C0243684602844A7D4A
:10178000887D0006000C0243CB7C087D0006000C1F
:1017900003434D7C887C0006000C0543CE7B087C0F
:1017A0000006000C0643487B8F7B3F063F0C384306
:1017B0006F46F883C8780F793F063F0C38436F4671
:1017C000B88348788F783F063F0C38436F463F8C8C
:1017D000069705920493039502966A46D28B01926E
:1017E0000A7B00928B1D4A796946898B02F00DFDB8
:1017F000E070042020700F216170A0700120207122
:1018000098206071FC20A071072009B0F0BDF8B5E8
:10181000C8B01600072B01DA00205FE000240500A5
:101820000CE0E000011B09A840186918CA7C02708E
:1018300006221431401C02F001FB641CA87C844287
:10184000EFDB3400297C687C0006000C014368460D
:101850000184A97BE87B0006000C01432A7B687B9E
:101860000006000C0243AB7AE87A0006000C034342
:101870002E7A687A0006000C0643A879EF793F06B5
:101880003F0C38436F46F883E8782F793F063F0CCA
:1018900038436F46B8836878AF783F063F0C3843CB
:1018A00009AF0697AF7C05976F463F8C049703916D
:1018B0000292019300966946CB8B6A79898B02F07C
:1018C0003BFCE070042020700F216170A0700120AB
:1018D000207199206071FC20A071072049B0F0BDF3
:1018E0001CB5062B01DC002016BD140002794179DD
:1018F0000906090C0A438178C3781B061B0C19439F
:10190000037A0193C37900938379407802F02EFC27
:10191000E070042020700F216170A0700120207100
:101920009A206071FC20A071072016BD78B5C3B065
:101930001600072B01DA002035E0002405000CE03A
:10194000E000011B04A8401869188A7A0270062278
:101950000B31401C02F072FA641C687A8442EFDB9F
:101960002A7968790006000C0243A978E878000615
:10197000000C014304A80390687A0290287A019031
:10198000E8790090AB79687802F0FAFBF0700420F7
:1019900030700F217170B070012030719B20707118
:1019A000FC20B071072044B070BDF0B589B0062BA3
:1019B00001DC00204EE014000100CA7D087E000614
:1019C000000C0243684602844A7D887D0006000CB4
:1019D0000243CB7C087D0006000C03434D7C887CD1
:1019E0000006000C0543CE7B087C0006000C064375
:1019F000487B8F7B3F063F0C38436F46F883C8789F
:101A00000F793F063F0C38436F46B88348788F788C
:101A10003F063F0C38436F463F8C06970592049370
:101A2000039502966A46D28B01920A7B00928B1D27
:101A30004A796946898B02F0B3FBE070042020707C
:101A40000F216170A070012020719C206071FC202A
:101A5000A071072009B0F0BD10B5062B01DC0020F5
:101A600010BD1400407802F0C4FBA0710420207067
:101A70000E216170A0700120E0709D202071FC207B
:101A8000FEF778FBF8B584B0062B01DC00203DE0C2
:101A90001400427B817B0906090C0A43C57A017B4D
:101AA0000906090C0D43467A817A0906090C0E4392
:101AB000C379017A0906090C0B43417987793F06FE
:101AC0003F0C39436F46F981C17807793F063F0CD7
:101AD00039436F46B981417887783F063F0C3943D7
:101AE00008000292019500966946CA89898902F028
:101AF00072FBE070042020700F216170A070012043
:101B000020719E206071FC20A071072005B0F0BDFF
:101B100010B5062B01DC002010BD1400427881783E
:101B20000906090C0A43C178100002F093FBE0702B
:101B3000042020700F216170A070012020719F206F
:101B40006071FC20FFF737F81CB50D2B01DA00207F
:101B500016BD14006946401C02F0E8FFA071062281
:101B60006946E01D02F06AF9042020700E206070C2
:101B70000A20A0700120E070A0202071FC20FFF757
:101B8000CAF8F0B5C3B0060017000830F17945185F
:101B9000072B01DA002035E000240CE0E000011BF7
:101BA000681804AA5318417819700622811C581C21
:101BB00002F044F9641C28788442EFDBF178307934
:101BC0000006000C01437078B2781206120C104324
:101BD00004AA03922A780292320008320192F27922
:101BE0000092B379727902F0A5FFB87104203870C1
:101BF0000E217970B8700120F870A1203871FC2096
:101C00007871072043B0F0BD3EB5062B01DC002003
:101C10003EBD1400C17802791206120C11434578BA
:101C200082781206120C1543027A0192C279009250
:101C300083794279280002F003FBE07004202070D1
:101C40000F216170A07001202071A2206071FC2022
:101C5000A07107203EBDF8B5C0B01C000025694644
:101C60000D702700072F2CDB160001A9684602F033
:101C700081FFB071072F24DD68460078F0713500D0
:101C80006A4654800226002406E00622491C0930D8
:101C900002F0D4F8B61D641C68460078844212DA5B
:101CA00068464088F11D88420BD3E000011B68188C
:101CB00001AA51180A780272761C32000C3297423F
:101CC000E3DA00200DE0042028700E206870F01C7C
:101CD000A8700120E870A3202871FC206871B61D4F
:101CE000B0B241B0F0BD10B5062B01DC002010BD34
:101CF0001400811C407802F047FFA071042020707E
:101D00000E216170A0700120E070A4202071FC20E1
:101D1000FEF730FA10B5062B01DC002010BD1400D0
:101D2000427881780906090C0A43C178100002F054
:101D300040FBA071042020700E216170A070012072
:101D4000E070A5202071FC20FEF714FA10B5062BD8
:101D500001DC002010BD1400427881780906090CCE
:101D60000A43C178100002F020FBA071042020700B
:101D70000E216170A0700120E070A6202071FC206F
:101D8000FEF7F8F938B588B000216C46A180202B09
:101D900001DA00202CE01400050004A8009001AB3B
:101DA00002AA01A9491C687802F0FEFEA0716846EB
:101DB0004079E071062202A92000083002F03EF8C6
:101DC0006878A07368460079E073102204A92000A7
:101DD000103002F033F8042020700E2060701D20B7
:101DE000A0700120E070A7202071FC2060712020ED
:101DF00009B030BD1CB5062B01DC002016BD140057
:101E000001000B310191817A0091437AC21C8178E3
:101E1000407802F0D3FEA071042020700E21617082
:101E2000A0700120E070A8202071FC2060710720C4
:101E300016BDF8B5C0B01600811C4278D400A21AB5
:101E400089180091072B01DA002025E0002401AF5A
:101E500005000CE0E000001BA91C095C39540622B7
:101E60002918C91C7B1C181801F0E8FF641C68784D
:101E70008442EFDB00990A7801A902F009F9B071F8
:101E8000042030700E217170B0700120F070A92014
:101E90003071FC207071072041B0F0BD10B5062BE9
:101EA00001DC002010BD1400811C407802F09AFE75
:101EB000A071042020700E216170A0700120E070DC
:101EC000AA202071FC20FEF755F910B51400062B4E
:101ED00001DC002010BD02F08FFEA07104202070F4
:101EE0000E216170A0700120E0702071FD20FEF7CE
:101EF00041F9F0B587B0040060780126012801D1CE
:101F0000032004E0022801D1112000E00120611C1F
:101F10000818029000206D46A880092B28DB617804
:101F20000225012901D1022002E0022900D110205E
:101F300017000200A11C03A801F080FF01A8009077
:101F400002984378027803A9607802F059FEB871CC
:101F500068468088F871000A3872042038700E20B4
:101F600078700620B870FE703D71FD2078710920F0
:101F700007B0F0BD30B587B000216D462981082B30
:101F800001DC002038E00400E079012801D10221C1
:101F900002E0022800D1102115000A0021000831BA
:101FA00003A801F04BFF6279A0790006000C024300
:101FB000E17820790006000C01436078A3781B06C5
:101FC0001B0C184302AB019303AB0093E37902F0BF
:101FD00032FEA87168460089E871000A2872042060
:101FE00028700E2068700620A8700120E870032079
:101FF0002871FD206871092007B030BD78B58BB01D
:102000000400E078012801D1052004E0022801D174
:10201000132000E00320611C0D1800206E46308361
:10202000092B39DBE178012901D1022002E00229E4
:1020300000D1102016000200211D07A801F0FEFEAD
:102040002B7868780006000C03436078A1780906B5
:10205000090C084306A90591A979049169790391AE
:1020600029790291E9780191A978009107AAE1788C
:1020700002F0F8FDB0716846008BF071000A307212
:10208000042030700E2171700621B1700121F170B1
:102090003071FD20707109200CB070BDF8B58EB0A4
:1020A000040065791520012D01D1072604E0022DD9
:1020B00001D1152600E00526671CBF19012D01D1AD
:1020C000072002E0022D00D00520E11C7D78401998
:1020D0000D1800206E46B084092B40DB6179012980
:1020E00001D1022002E0022900D1102016000200D6
:1020F000A11D0AA801F0A2FEE17820790006000CDB
:1021000001436078A2781206120C104309AA0892C3
:102110002A790792EA780692AA7805926A78049258
:102120002A780392BA1C02927A7801923A78009245
:102130000AAB627902F0B5FDB0716846808CF0712F
:10214000000A3072042030700E2070700620B070CB
:102150000120F07005203071FD20707109200FB052
:10216000F0BD38B5062B01DC002032BD1400C1786B
:1021700002791206120C1143457882781206120C6D
:102180001543C21D009283794279280002F0B1FD07
:10219000A071042020700E216170A0700120E070F9
:1021A00006202071FD20FFF7A9F910B5062B01DCF0
:1021B000002010BD1400C17802791206120C1143E0
:1021C000427883781B061B0C1A43100002F09BFD1B
:1021D000A071042020700E216170A0700120E070B9
:1021E00007202071FD20FDF7C5FF10B5062B01DC8F
:1021F000002010BD1400417882781206120C1143A1
:10220000080002F084FDA071042020700E2161708E
:10221000A0700120E07008202071FD20FDF7AAFFCA
:1022200010B5062B01DC002010BD1400C178027926
:102230001206120C1143427883781B061B0C1A43BA
:10224000100002F068FDA071042020700E21617062
:10225000A0700120E07009202071FD20FDF78AFFA9
:1022600010B5062B01DC002010BD1400401C02F04C
:1022700007FB02F055FDA071042020700E21617053
:10228000A0700120E0700A202071FD20FDF772FF90
:1022900010B5062B01DC002010BD140041788278B7
:1022A0001206120C1143080002F04AFDE0700420EF
:1022B00020700F216170A070012020710B206071CF
:1022C000FD20FEF778FC38B5062B01DC002032BD7E
:1022D0001400427981790906090C0A43C17803790F
:1022E0001B061B0C1943437885782D062D0C2B43B8
:1022F000180002F029FDE070042020700F216170A9
:10230000A070012020710C206071FD20FFF725FADC
:102310007CB5062B01DC002076BD14000500EB79AE
:10232000287A0006000C03436A79A8790006000C9D
:102330000243E97828790006000C01436878AE78FA
:102340003606360C30432E000A3601966D7A00951B
:1023500002F0FEFCE070042020700F216170A0707C
:10236000012020710D206071FD20A071072076BD35
:1023700030B585B0072B01DA002032E00400E079A7
:10238000012801D1022004E0022801D1102000E040
:102390000020150002002100083101A801F04EFDC7
:1023A0006279A0790006000C0243E17820790006EA
:1023B000000C01436078A3781B061B0C184301AB8B
:1023C0000093E37902F0D2FCE870042028700F211A
:1023D0006970A870012028710E206871FD20A87115
:1023E000072005B030BD30B585B0072B01DA0020DD
:1023F00031E00400E079012801D1022004E0022844
:1024000001D1102000E00020150002002100083159
:1024100001A801F013FD6279A0790006000C0243C7
:10242000E17820790006000C01436078A3781B0650
:102430001B0C184301AB0093E37902F0ABFCE8708E
:10244000042028700F216970A8700120287169711B
:10245000FD20A871072005B030BD38B5062B01DC82
:10246000002032BD1400427981790906090C0A4323
:10247000C17803791B061B0C1943457883781B062A
:102480001B0C1D43030008330093C379280002F09E
:1024900095FCE070042020700F216170A070012075
:1024A000207110206071FD20FFF757F910B5062B41
:1024B00001DC002010BD1400427881780906090C67
:1024C0000A43C178100002F083FCE0700420207001
:1024D0000F216170A0700120207111206071FD201A
:1024E000FEF769FB10B5062B01DC002010BD1400BF
:1024F000417882781206120C1143080002F06CFC3D
:10250000E070042020700F216170A0700120207104
:1025100012206071FD20FEF74EFB38B584B0062B0B
:1025200001DC002026E00500E878012801D1022026
:1025300004E0022801D1102000E000201400020075
:10254000291D684601F07AFC6878A9780906090C0B
:1025500008436A46E97802F043FCE07004202070EA
:102560000F216170A0700120207113206071FD2087
:10257000A071072005B030BD38B5062B01DC002066
:1025800032BD1400427981790906090C0A43C178E9
:1025900003791B061B0C1943437885782D062D0CF7
:1025A0002B43180002F02CFCE070042020700F2157
:1025B0006170A0700120207114206071FD20FFF770
:1025C000CCF838B5062B01DC002032BD140042796E
:1025D00081790906090C0A43C17803791B061B0C93
:1025E0001943437885782D062D0C2B43180002F0F3
:1025F0000BFCE070042020700F216170A07001209E
:10260000207115206071FD20FFF7A7F830B585B067
:10261000072B01DA002032E00400E079012801D123
:10262000022004E0022801D1102000E00020150063
:1026300002002100083101A801F000FC6279A079B4
:102640000006000C0243E17820790006000C0143EB
:102650006078A3781B061B0C184301AB0093E37949
:1026600002F0D6FBE870042028700F216970A87072
:102670000120287116206871FD20A871072005B07F
:1026800030BD38B5062B01DC002032BD1400427984
:1026900081790906090C0A43C17803791B061B0CD2
:1026A0001943437885782D062D0C2B43180002F032
:1026B000C3FBE070042020700F216170A070012026
:1026C000207117206071FD20FFF747F810B5062B29
:1026D00001DC002010BD1400C17802791206120C32
:1026E0001143427883781B061B0C1A43100002F03A
:1026F000A7FBE070042020700F216170A070012002
:10270000207118206071FD20FEF755FA30B585B0B4
:10271000072B01DA002032E00400E079012801D122
:10272000022004E0022801D1102000E00020150062
:1027300002002100083101A801F080FB6279A07934
:102740000006000C0243E17820790006000C0143EA
:102750006078A3781B061B0C184301AB0093E37948
:1027600002F072FBE870042028700F216970A870D5
:102770000120287119206871FD20A871072005B07B
:1027800030BD38B5062B01DC002032BD1400427983
:1027900081790906090C0A43C17803791B061B0CD1
:1027A0001943437885782D062D0C2B43180002F031
:1027B0005FFBE070042020700F216170A070012089
:1027C00020711A206071FD20FEF7C7FF70B5C0B000
:1027D000062B01DC002026E0002109E04B00C51893
:1027E0002C796E793606360C34436D46EC52491C12
:1027F000C3789942F2DB1400437881780906090C0A
:102800000B436A46C178180002F036FBE0700420E2
:1028100020700F216170A070012020711B20607159
:10282000FD20A071072040B070BD38B5062B01DC3B
:10283000002032BD1400C17802791206120C114337
:10284000457882781206120C1543831D42792800C0
:1028500002F016FBE070042020700F216170A07060
:10286000012020711C206071FD20FEF776FF38B535
:10287000062B01DC002032BD140042798179090663
:10288000090C0A43C17803791B061B0C19434578D0
:1028900083781B061B0C1D43030008330093C37988
:1028A000280002F0F1FAE070042020700F2161701E
:1028B000A070012020711D206071FD20FEF74DFFEA
:1028C00038B5062B01DC002032BD14004279817935
:1028D0000906090C0A43C17803791B061B0C19432E
:1028E000457883781B061B0C1D43030008330093B7
:1028F000C379280002F0D2FAE070042020700F2182
:102900006170A070012020711E206071FD20FEF713
:1029100024FF38B5062B01DC002032BD14004279BB
:1029200081790906090C0A43C17803791B061B0C3F
:102930001943457883781B061B0C1D43030008339D
:102940000093C379280002F0B3FAE07004202070ED
:102950000F216170A070012020711F206071FD2087
:10296000FEF7FBFE38B5062B01DC002032BD14005B
:10297000427981790906090C0A43C17803791B065B
:102980001B0C1943437885782D062D0C2B4318001A
:1029900002F098FAE070042020700F216170A0709E
:1029A0000120207120206071FD20FEF7D6FE38B591
:1029B000062B01DC002032BD1400C178027912061A
:1029C000120C1143457882781206120C1543831DB0
:1029D0004279280002F07AFAE070042020700F217A
:1029E0006170A0700120207121206071FD20FEF730
:1029F000B4FE10B5062B01DC002010BD1400C17818
:102A000002791206120C1143427883781B061B0CC4
:102A10001A43100002F05EFAE070042020700F21CB
:102A20006170A0700120207122206071FD20FEF7EE
:102A3000C2F838B5062B01DC002032BD1400C17885
:102A400002791206120C1143457882781206120C94
:102A50001543831D4279280002F040FAA07104203A
:102A600020700E216170A0700120E0702320207181
:102A7000FD20FEF743FD38B5062B01DC002032BDFA
:102A80001400C17802791206120C1143457882783D
:102A90001206120C1543831D4279280002F022FA17
:102AA000A071042020700E216170A0700120E070E0
:102AB00024202071FD20FEF721FD10B5062B01DC3E
:102AC000002010BD1400417882781206120C1143C8
:102AD000080002F00BFAA071042020700E21617032
:102AE000A0700120E07025202071FD20FDF742FB41
:102AF0003EB5062B01DC00203EBD1400C1780279F2
:102B00001206120C1143457882781206120C1543F6
:102B1000020008320192C27900928379427928003A
:102B200002F0E8F9A071042020700E216170A070FD
:102B30000120E07026202071FD20607107203EBD3D
:102B400010B5062B01DC002010BD140041788278FE
:102B50001206120C1143080002F0DAF9A0710420E9
:102B600020700E216170A0700120E070272020717C
:102B7000FD20FDF7FFFA10B5062B01DC002010BD8B
:102B80001400C17802791206120C1143437882783E
:102B90001206120C13434279180002F0BFF9A0711B
:102BA000042020700E216170A0700120E0702820A8
:102BB0002071FD20FDF7DEFA7CB5062B01DC00203C
:102BC00076BD14000500EB79287A0006000C03435B
:102BD0006A79A8790006000C0243E9782879000692
:102BE000000C01436878AE783606360C30432E0070
:102BF0000A3601966D7A009502F094F9A0710420CE
:102C000020700E216170A0700120E07029202071D9
:102C1000FD206071072076BDD8B5C3B01E0000212D
:102C20006B469960062E2EDD1400427981790906E3
:102C3000090C0A43C17803791B061B0C194343781E
:102C400087783F063F0C3B43180003AB019302AB70
:102C500000939B1C02F074F9A071092E13DB6846E7
:102C60004089E071000A20720B2E0CDB6846008957
:102C70006072000AA072607AA17A0906090C084302
:102C80000B30864201D200201DE0627AA07A000655
:102C9000000C024303A920000B3001F0CFF8607A4A
:102CA000A17A0906090C0843401D042121700E2158
:102CB0006170C11CA1700121E1702A212171FD21E7
:102CC0006171801D80B244B0D0BDF8B584B0062BD0
:102CD00001DC002031E0140003009D7AD87A000660
:102CE000000C05431E7A587A0006000C06435A79F8
:102CF00098790006000C0243D97818790006000C78
:102D0000014358789F783F063F0C38431F000D372A
:102D100003971F7B029701950096DB7902F03AF941
:102D2000A071042020700E216170A0700120E0705D
:102D30002C202071FD206071072005B0F0BD10B57A
:102D4000062B01DC002010BD1400427881780906B2
:102D5000090C0A43C178100002F02DF9A07104207B
:102D600020700E216170A0700120E0702D20207174
:102D7000FD20FDF7FFF910B5062B01DC002010BD8A
:102D80001400C17802791206120C1143437882783C
:102D90001206120C13434279180002F012F9A071C6
:102DA000042020700E216170A0700120E0702E20A0
:102DB0002071FD20FDF7DEF9F8B5062B01DC0020BF
:102DC000F2BD1400467A817A0906090C0E43C379D4
:102DD000017A0906090C0B43427981790906090C2D
:102DE0000A43C17805792D062D0C2943457887784B
:102DF0003F063F0C3D432800009602F0E6F8E070E5
:102E0000042020700F216170A070012020718120AA
:102E10006071FD20A0710720F2BDF8B586B0062BC9
:102E200001DC002041E0140001004A7B887B0006A1
:102E3000000C0243CD7A087B0006000C05434E7A55
:102E4000887A0006000C0643CB79087A0006000C4D
:102E5000034348798F793F063F0C38436F46F88229
:102E6000C8780F793F063F0C38436F46B8824878E0
:102E70008F783F063F0C38430F7C0497C97B039142
:102E80000292019500966946CA8A898A01F0E6F99C
:102E9000A071042020700E216170A0700120E070EC
:102EA00082202071FD206071072007B0F0BD00B5C1
:102EB000C1B06B46D8701971090A59719A71042012
:102EC000187005215970987000220DE000B5C1B04E
:102ED0006B46D8701971090A59719A7104201870DB
:102EE00008215970987001220721684602F0B1F953
:102EF00041B000BD18B5C1B06C46E0702171090A3F
:102F00006171A271E3711B0A237244A80088607288
:102F1000000AA072042020700C2060700820A070AD
:102F200002220B21C9E000B5C1B06946C870042077
:102F30000870102048700120887005220421D4E711
:102F4000F0B5C1B00B0000216C46E0700025060012
:102F50000CE0A80022181F5A17713F0A57719F1CD6
:102F6000385A9071000AD071091D6D1CB542F0DB12
:102F70000420207013206070491CA1700622C4E256
:102F800000B5C1B06A46D0701171090A51710420B0
:102F90001070302050700320907007220621A4E7A3
:102FA00000B5C1B06946487104200870FF20487020
:102FB000032088700120C8700020087108220621B3
:102FC00093E7F6B5C1B01E004E9D4F9F6C466071F1
:102FD000A11D419801F082FB21000A31429801F0C5
:102FE0007DFB21000E31300001F078FB2100123111
:102FF000489801F073FB21001631499801F06EFBEF
:1030000021001A314A9801F069FB21001E314B98CA
:1030100001F064FB210022314C9801F05FFB21009C
:1030200026314D9801F05AFB2A2025542A003900F8
:1030300020002B3000F002FF04202070FF20607081
:103040002835A5700320E070002020710022D243B3
:10305000E9B2C91C89B2684600F0B2FD18B5C1B02A
:10306000030010006C466371A171E11D01F036FB95
:1030700004202070FF2161700821A170E070002001
:1030800020710022D2430B2117E018B5C1B00B000C
:1030900011006C466071A3710622E01D00F0CEFEA7
:1030A00004202070FF2060700A20A0700520E070CE
:1030B000002020710022D2430D21684602F0C9F899
:1030C00042B010BD30B5C1B00D0011006C4660714A
:1030D000A5712A00E01D00F0B1FE04202070FF2041
:1030E00060702D1DA5700620E07000202071002268
:1030F00028E100B5C1B0042069460870FF224A707B
:1031000002228A700022CA70087109220521ECE6A9
:1031100000B5C1B06B465871000A9871D9711A7226
:1031200004201870FF215970062199700121D9706F
:1031300018710A220921D8E600B5C1B06946487164
:10314000000A887104200870FF224A7088700222E9
:10315000CA7008710B22C7E600B5C1B06946487154
:10316000000A887104200870FF224A7088700322C8
:10317000CA7008710C22B7E600B5C1B004206946D8
:103180000870FF224A7002228A70C87008710D22EE
:103190000521AAE600B5C1B0042069460870FF22E7
:1031A0004A7002228A700522CA7008710E22052117
:1031B0009BE678B5C1B00E00150019006C46607131
:1031C000A671E5712000083000F038FE0420207060
:1031D000FF2161706D1DA5700722E27020710F2222
:1031E00065E100B5C1B069464871000A88710420E4
:1031F0000870FF224A7088700822CA700871102275
:1032000072E618B5C1B0020008006C466271120A7D
:10321000A271E11D01F062FA04202070FF216170AB
:103220000821A1700921E170207136220B2144E7A9
:1032300000B5C1B06A465071000A9071D171042086
:103240001070FF215170052191700A21D170107109
:103250003722082149E600B5C1B06A465071000A1C
:103260009071D171090A117204201070FF20507002
:10327000062090700020D0700820107111220921C2
:1032800033E630B5C1B00D0011006C466071000A24
:10329000A071E5712A002000083000F0CFFD042065
:1032A0002070FF2060706D1DA5700120E070082067
:1032B0002071122247E018B5C1B06C466071000A57
:1032C000A071E1712272120A6272A3721B0AE37288
:1032D00044A800882073000A607345A80088A07382
:1032E000000AE07346A800882074000A6074042075
:1032F0002070FF2060700F20A0700220E070082076
:10330000207113221221D8E630B5C1B01D00449BB4
:103310006C466071000AA071E1712272120A627239
:10332000A5722A00190020000B3000F087FD042050
:103330002070FF2060700835A5700A20E07008201A
:1033400020710122D243E9B2C91C89B2684601F05A
:1033500080FF41B030BD78B5C1B0469E6C4660710B
:10336000000AA071E171090A217200206072A07246
:103370001D0057E0F52002E0F628FBDA2800E07295
:10338000000A2073E27A207B0006000C0243607A78
:10339000A17A0906090C0843311820000D3000F00D
:1033A0004DFD04202070FF206070E07A217B09062B
:1033B000090C08430A30A0700120E0700C20207135
:1033C000E07A217B0906090C08432D1A28040AD04B
:1033D000607AA17A0906090C084380210902014399
:1033E0006172090AA1721422A178C91C89B26846C7
:1033F00001F02FFF607AA17A0906090C0843400406
:10340000400C6072000AA072607AA17A0906090C69
:103410000843E17A227B1206120C114340186072B5
:10342000000AA072A8B20028A6D142B070BD00B5B3
:10343000C1B069464871000A887104200870FF22F3
:103440004A7088700220C8700C20087115224BE564
:1034500000B5C1B06A465071000A9071D171090A75
:10346000117204201070FF2050700620907003200D
:10347000D0700C2010711622092136E578B5C1B044
:103480000E00150019006C466071000AA071E6710B
:1034900025722000093000F0D1FC04202070FF21AB
:1034A0006170AD1DA570E0700C2020711722E9B28B
:1034B000C91C89B2684601F0CCFE42B070BDF0B5BF
:1034C000C1B06C466071030AA371E17100250E0062
:1034D000130000210CE0A80022181F5A17723F0A9F
:1034E00057729F1C385A9072000AD072091D6D1CC9
:1034F000B542F0DB04202070FF206070491DA170F0
:103500000520E0700C2020711822C9B2C91C89B2B4
:10351000684601F09EFE41B0F0BD78B5C1B00E0026
:10352000150019006C466071000AA071E6712572E1
:103530002000093000F082FC04202070FF20607021
:10354000AD1DA5700620E0700C2020711922AEE799
:1035500030B5C1B00D0011006C466071000AA07159
:10356000E5712A002000083000F068FC042020707B
:10357000FF2060706D1DA5700720E0700C20207189
:103580001A22E0E630B5C1B00D0011006C46607142
:10359000000AA071E5712A002000083000F04EFCFE
:1035A00004202070FF2060706D1DA5700820E07061
:1035B0000C2020711B22C6E630B5C1B00D001100F1
:1035C0006C466071000AA071E5712A002000083085
:1035D00000F034FC04202070FF2060706D1DA57089
:1035E0000920E0700C2020711C22ACE678B5C1B037
:1035F0000E00150019006C466071000AA071E6719A
:1036000025722000093000F019FC04202070FF20F2
:103610006070AD1DA5700A20E0700C2020711D2285
:1036200045E730B5C1B01D00449B6C466071000A8F
:10363000A071E171090A21726272120AA272E57226
:103640002A00190020000C3000F0F8FB0420207044
:10365000FF2060700935A5700C20E07020711F22DA
:1036600071E600B5C1B069464871000A887104204E
:103670000870FF224A7088700D20C8700C200871F5
:103680002022FFF731FC78B5C1B00E0015001900FB
:103690006C466071000AA071E671360A2672657286
:1036A00020000A3000F0CAFB04202070FF20607068
:1036B000ED1DA5700E20E0700C2020712122F6E691
:1036C00078B5C1B00E00150019006C466071000A93
:1036D000A071E671360A2672657220000A3000F089
:1036E000ADFB04202070FF206070ED1DA5700F2041
:1036F000E0700C2020712222D9E600B5C1B06A46E4
:103700005071000A9071D17104201070FF20507028
:10371000052090701020D0700C20107123220821F9
:10372000FFF7E3FB18B5C1B06C466071000AA071E9
:10373000E1712272120A6272A37204202070FF20CB
:1037400060700820A0701120E0700C2020712422ED
:103750000B21B2E478B5C1B00E00150019006C461B
:103760006071000AA071E671360A26726572200047
:103770000A3000F063FB04202070FF206070ED1D14
:10378000A5701220E0700C20207125228FE678B5FC
:10379000C1B00E00150019006C466071000AA071DE
:1037A000E671360A2672657220000A3000F046FB88
:1037B00004202070FF206070ED1DA5701320E070C4
:1037C0000C202071262272E600B5C1B06B465871FC
:1037D000000A9871D971090A19725A72120A9A72FA
:1037E00004201870FF205870082098701420D8709A
:1037F0000C20187127220B21FFF777FB78B5C1B099
:103800000B0000216C466071000AA071E37100207A
:1038100007E045006619555B35722D0A7572891CE3
:10382000401C9842F5DB04202070FF206070491D89
:10383000A1701520E0700C2020712822C9B237E653
:1038400000B5C1B06A465071000A9071D171090A81
:10385000117204201070FF20507006209070162006
:10386000D0700C20107129220921FFF73EFB00B512
:10387000C1B069464871000A887104200870FF22AF
:103880004A7088701720C8700C2008712A22FFF730
:103890002BFB30B5C1B01D00449B6C466071000A23
:1038A000A071E171090A21726272120AA272E572B4
:1038B0002A00190020000C3000F0C0FA042020700B
:1038C000FF2060700935A5701820E0700C20207171
:1038D0002B2238E578B5C1B01E00469B4A9D6C4648
:1038E00020716171090AA171E27126720622190024
:1038F0002000093000F0A2FA47A80088E073000A0F
:10390000207448A800886074000AA07449A8008840
:10391000E074000A20756575042020703E206070F8
:103920001320A0700120E0702C221621C2E5F0B512
:10393000C3B0002502AA107100276A4610700191D9
:1039400024E0001D46190198142179434418207879
:1039500070706078B0700622A11CF01C00F06EFA46
:10396000207A7072227AE16830000A3000F066FA3C
:10397000207A010009316D18012221001031330035
:103980000A33181800F05AFA6D1C7F1C684600783C
:10399000874202A8D5DB042202703E224270A91C95
:1039A00081700222C2702D2207E118B5C1B06C46A9
:1039B00020716171090AA171E271120A22726372A7
:1039C0001B0AA37244A80088E072000A2073042036
:1039D00020703E2060700A20A0700320E0702E222C
:1039E000FFF76AFB18B5C1B00B0011006C462071DF
:1039F00063711B0AA3710822E01D00F01FFA042066
:103A000020703E2161700C21A170E0702F220F21E7
:103A1000FFF753FB30B5C1B015006C462071000AAA
:103A200060710822A01D00F009FAA5732D0AE57344
:103A3000042020703E2060700D20A0700520E070F2
:103A40003022102182E418B5C1B06C462071000A02
:103A50006071A171090AE1712272120A6272A37285
:103A60001B0AE37244A800882073000A60730420D4
:103A700020703E2060700B20A0700720E070312283
:103A80000E21FFF71AFB18B5C1B06C462071402219
:103A9000601D00F0D3F9042020703E2060704220A9
:103AA000A0700820E07032224521FFF706FB18B510
:103AB000C1B06C4620712022601D00F0BFF90420C7
:103AC00020703E2060702220A0700920E070332218
:103AD0002521FFF7F2FAF3B5C1B04899499F4A9EF4
:103AE0004E9D6C46207142A800886071000AA0714A
:103AF000E271237206222000093000F09FF90622AD
:103B0000390020000F3000F099F906223100200022
:103B1000153000F093F94BA80088E076000A207772
:103B20004CA800886077000AA0774DA80088E0774D
:103B3000000A641CE077641E2120255404202070B4
:103B40003E2060701F20A0700A20E07034222221E5
:103B5000684635E0F0B5C3B0002602AA1071002710
:103B60006A46107001911AE0380102A90D180199F6
:103B70000C18207868716078A8710622A11CE81DD5
:103B800000F05CF9207A68730622210009312800D0
:103B90000E3000F053F9E07B287510367F1C684624
:103BA00000788742E0DB02A8042202703E224270C5
:103BB000B11C81700B22C2703522C9B2C91C89B2F6
:103BC00001F047FB43B0F0BD10B501F077FB10BD2D
:103BD000F8B50646002000906946304601F08CFB9F
:103BE000050002D0452D26D026E014481B21006890
:103BF00089014118C97E0227009C09071CD50221B2
:103C00008B020830C0180C2240690B4601F0CEFB35
:103C1000010011D08E8022788A716278A3781B020D
:103C200013430B81E3782279384612021A434A8102
:103C300001F01AFC00E000252846F8BD64030020CE
:103C400070B5084A002103461B2412680846A401E7
:103C500056185D5C3619491CC9B2B5760829F7D3E8
:103C600070BD00006403002010B501F011FC0020BD
:103C700010BD10B51446080003D0012801D0122051
:103C800004E0114601F078FC002801D07F2121706A
:103C900010BD0C0802170D010102090901010602FD
:103CA00009FFFFFFFFFF0909FFFFFFFF30B50B24EE
:103CB000039D0470054800688030408C08801470B3
:103CC0003020188013202880002030BD640300209D
:103CD0000F21274A13681B090B40437013681940D2
:103CE0008170D26842600121224B9A4208D1224A57
:103CF0001268224B9A4201D1042202E0022200E023
:103D0000012202704278002A00D141701C490988C2
:103D1000491C89008160704710B51A4C2100282287
:103D200001F050FC0020206010BD70B5002300247D
:103D3000144AA5005351641C0A2CFAD31160506038
:103D40000223C026F60199004418083CE0252D0600
:103D50006519B54201D2246854505B1C0A2BF2D37A
:103D6000BFF34F8F084809490860BFF34F8FFEE744
:103D70001C00904041A000021C00001044A000F272
:103D800014001040340000200400FA050CED00E09F
:103D90007FB504000D0016006846FFF799FF6846DE
:103DA0000178217041782970807830707FBDF8B536
:103DB00004464022002100F047F80120C046064694
:103DC0000120C04605460120C0460746202020703D
:103DD0008020A070C02060710420A0722820A073F1
:103DE0002220E073F72060763C206843C32108431B
:103DF000A0760C206843F3210843E0767E2005433B
:103E000025770120C046C02148432034607001203E
:103E1000C046014638460622504301433046F82248
:103E200050430143A1700120C046C100F200901B25
:103E30000143E170B000E0710020F8BD10B504004E
:103E400001F0C0FB200010BD10B5040008001100F7
:103E50000200200001F0C4FB200010BD80B501F07D
:103E6000E9FB02BD10B5044608220021FFF7ECFF74
:103E700060202071002010BD10B504490622096899
:103E80007831FFF7DBFF002010BD00006403002045
:103E900010B50C460146204601F0DCFB002801D09D
:103EA0007E21217010BD704770B505460024407812
:103EB0002646022801D0042803D10120C04600284C
:103EC0000DD0084837210068490103192A5D5B18A5
:103ED000641CE4B29A70082CF7D3304670BD1126EA
:103EE000FBE700006403002010B50C46FB210180B5
:103EF0000120C04601280ED01B201F304009410080
:103F0000411806484078401A0921C01E01F0D5FB2F
:103F10002070002010BDFB20EFE70000E40B002024
:103F200010B501F021FC002010BD704770B50446AB
:103F3000002501F039FC064601F05AFC082E01D19B
:103F4000082801D00C2070BD0C4E0D4B30680622A5
:103F50002146C018FFF772FF204600F091FC0121B6
:103F60003268000289025618401CF065E01C00F01F
:103F700087FC0002000A3066284670BD64030020FA
:103F8000EF060000F0B585B06F460A9E0D9D0C9CB3
:103F9000388079803A71052A02D3122005B0F0BD2D
:103FA000FB713E723846062209300B99FFF746FF37
:103FB0006846447185710079012804D0042802D034
:103FC000032DEAD807E06946097A012901D00029C2
:103FD000E3D1012810D0684601880F4A08462038EE
:103FE0009042DAD2684640882028D6D30122920334
:103FF0009042D2D88142D0D86846C079002805D0F6
:10400000012803D0022801D00328C6D16007C4D0FC
:10401000684601F011FCC1E7E13F000010B501F076
:10402000B1FC10BD10B50A461F2801D9122010BDE1
:104030000146104601F0B2FC10BD10B50A461F281B
:1040400001D9122010BD0146104601F0E3FC10BD5D
:104050001CB504460D48016823204001081840792A
:10406000012801D0032807D1684601F001FD684608
:1040700001F00CFD002803D0012C03D0002C01D04E
:1040800012201CBD204601F00DFD1CBD6403002064
:1040900080B501F015FE02BD80B501F04EFE02BDF7
:1040A00080B501F056FE02BD80B501F073FE02BD81
:1040B00080B501F073FE02BD80B501F079FE02BD4E
:1040C00080B501F089FE02BD80B501F099FE02BD08
:1040D00080B501F09CFE02BD80B501F09CFE01BDE3
:1040E00080B501F0C9FE02BD80B502F09BF902BDAA
:1040F0001FB56C46A48C0394089C02946C46A48B58
:1041000001946C46248B009402F018FA1FBD1FB571
:1041100008AC247802946C46247F0194069C009499
:1041200002F000FB04B010BD80B502F0B9FB02BD87
:1041300080B502F0D7FB02BD18B587B0109C06947D
:104140000FAC247805946C46248F04946C46A48E9E
:1041500003946C46248E02946C46A48D01946C46A4
:10416000248D009402F002FC08B010BD1CB56C4612
:10417000247D01946C46247C009402F011FC16BD51
:104180001FB5099C039408AC247802946C46247FE4
:1041900001946C46247E009402F017FC04B010BD1C
:1041A00018B587B010AC248806946C46A48F05948B
:1041B0006C46248F04946C46A48E03946C46248E23
:1041C00002946C46A48D01940AAC2478009402F009
:1041D00015FC08B010BD1FB56C46248C02946C46CB
:1041E000A48B01946C46248B009402F034FC04B040
:1041F00010BD80B502F040FC02BD80B502F040FC6D
:1042000002BD80B502F040FC02BD18B587B010AC0D
:10421000248806946C46A48F05946C46248F0494DD
:104220006C46A48E03946C46248E02946C46A48D36
:1042300001940AAC2478009402F02AFC08B010BD66
:104240001CB56C46247D01946C46247C009402F0DD
:1042500049FC16BD80B502F053FC02BD18B585B00F
:104260000CAC247804940BAC247803946C46248D15
:1042700002946C46A48C01946C46248C009402F049
:1042800044FC06B010BD10B588B011AC248807946A
:1042900010AC248806946C46A48F05946C46248F39
:1042A00004946C46A48E03946C46248E02940BAC4A
:1042B000247801940A9C009402F03CFC08B010BDE4
:1042C00080B502F080FC02BD1FB56C46248C0294C0
:1042D0006C46A48B01946C46248B009402F077FC0E
:1042E00004B010BD1CB56C46247C009402F080FC28
:1042F00016BD80B502F0A8FC02BD80B502F0CAFC74
:1043000002BD80B502F0D4FC02BD80B502F0D4FC41
:1043100001BD80B502F0F4FC02BD80B502F068FD7D
:1043200001BD80B502F062FE01BD80B502F0BEFEA7
:1043300002BD80B502F0C2FE01BD80B502F0E0FE14
:1043400001BD80B502F0E8FE02BD80B502F028FF95
:1043500001BD80B502F04BFF02BD80B502F070FFD9
:1043600001BD80B502F075FF02BD80B502F081FF8E
:1043700002BD80B502F081FF02BD80B502F08BFF67
:1043800002BD80B502F08CFF01BD80B502F0B2FF26
:1043900002BD80B503F042F802BD80B503F078F8A5
:1043A00002BD80B503F09EF802BD80B503F0F4F8BD
:1043B00002BD80B503F0F8F802BD80B503F0FEF849
:1043C00002BD80B503F018F902BD80B503F052F9C3
:1043D00001BD80B503F000FA01BD80B503F018FA05
:1043E00002BD80B503F030FA01BD80B503F044FA98
:1043F00002BD80B503F06EFA01BD80B503F0A4FAEA
:1044000001BD80B503F0BEFA01BD80B503F0F4FA3A
:1044100002BD80B503F00AFB01BD80B503F01CFBB3
:1044200001BD80B503F030FB01BD80B503F044FB56
:1044300002BD80B503F062FB01BD80B503F092FBC5
:1044400001BD80B503F0A8FB01BD80B503F0F2FB10
:1044500002BD80B503F024FC01BD80B503F04CFC27
:1044600002BD80B503F06EFC02BD10B504461F20EE
:10447000C0462070002010BD10B503F0A7FC10BD91
:104480007CB504460D46012803D0002C01D0122033
:104490007CBD084600F0F4F9000220430090E81CBF
:1044A00000F0EEF90002000A0190684603F0A2FC59
:1044B0007CBD1CB5012803D0002801D012201CBDF2
:1044C0006A46107000A806220130FFF7B7FC684664
:1044D00003F0C8FC1CBD10B503F0F0FC10BD704724
:1044E000044910B5884201D9022010BD03F000FD37
:1044F00010BD0000FF0E000010B50023FFF718FEEE
:1045000010BD10B503F04CFD10BD0A4610B50146B4
:10451000002003F053FD10BD10B5014600224120DC
:1045200003F04CFD10BD10B503F096FD002010BD4A
:1045300010B5272801D9122010BD03F099FD0028DD
:10454000FAD1054901230A681B21890151180A7E05
:104550001A430A7610BD000064030020F8B5154622
:104560000E46074625240120C046012800D1FF241D
:10457000272F03D8A64201D8072D01D91220F8BD54
:104580002A463146384603F015FE0028F7D1054982
:1045900001230A681B21890151180A7E1A430A76F1
:1045A000F8BD00006403002010B503F03DFF0028B3
:1045B00008D105490A681B21890151180A7E520851
:1045C00052000A7610BD00006403002001490180FA
:1045D00000207047310900002F4830490860012051
:1045E0002F49087000207047FFB583B00F9F109EC1
:1045F000119D1298FFF7EAFF00246846846044602A
:1046000001A8009002AB9B1C01AA921C02A9C01C2D
:10461000FFF74CFB032003990870012004990870F0
:10462000059A1470069908700C9804800F2069464A
:1046300009890F220A400D990A706946898809067E
:10464000090F0E9A1170694689880F220A403A7044
:1046500069468988C90B3170298808432880002061
:1046600007B0F0BD7CB51E000E4D00242C60FFF796
:1046700075FF01000ED107E0A0B22968884203D07F
:10468000094803F0FFFE2C682868B042F4D368465E
:10469000FFF78AFF76BD0000010101013000002014
:1046A0008003002024000020FD7F000010B503F0EF
:1046B000FBFE10BD10B503F085FF10BD10B503F073
:1046C000BBFF10BD04490922096812028918096B51
:1046D0000989016000207047640300208446087047
:1046E000000A4870000A8870000AC8706046704767
:1046F000F0B5354C0646206887B02030807F0D46E7
:10470000002802D00C2007B0F0BD282E01D2022DC7
:1047100001D91220F7E703F0B1FF0028F2D12B48AE
:1047200072000121101889030004012D02D0022D0E
:1047300002D002E0401800E0401A01014302C90E15
:104740005B0FC900401C1943030B9C46030106097B
:10475000206809332030047F9E46A5010623447F4C
:104760001D43E3002B43312564002C43012585774D
:10477000032568460570042747708270C3700222C3
:1047800002711C23437173238371C5712423037247
:1047900044723F238372C27223230373457382736F
:1047A000C373072202740522427428228274C174E2
:1047B000634603754675734683750021C17503F022
:1047C0006FFF00209FE700006403002062090000E3
:1047D0000EB50F4801682031887F002816D00020D0
:1047E0008877042269460A7023224A7088700E2254
:1047F000CA70087102224A712B228A710822CA717A
:104800000872684603F04CFF00200EBD0C200EBD60
:1048100064030020F0B5124B09241A68240212190F
:10482000166B104D00221C68A034247B944213D9CF
:1048300058245443A719BC786407640F845403D0E8
:104840007C895700CC5301E054000D53521CD2B266
:10485000082AE8D30020F0BD00248454F4E70000C7
:1048600064030020FFFF0000024909686831C88026
:10487000002070476403002010B503F027FF10BD2F
:10488000C3788278417800781B021A430902120427
:10489000084310437047704701B50548054B006851
:1048A00004226946C018FFF7C9FA002008BD0000BD
:1048B000640300200407000010B503F033FF040078
:1048C00002D1012003F044FF204610BDFFB587B0A0
:1048D000109D159E169C01930295009407A807C889
:1048E0001F46334603F08CFF00280ED1139814990D
:1048F00003AA069443C2119812990190009502915F
:1049000007A807C83B4603F0A9FF0BB0F0BDFFB5F1
:1049100087B0109D159E169C01930295009407A8E0
:1049200007C81F46334603F06BFF00280ED11398CB
:10493000149903AA069443C2119812990190009504
:10494000029107A807C83B4603F0B2FF0BB0F0BDC9
:104950007CB5069D079C012903D0042901D0422083
:104960007CBD012A01D0002AF9D10095019403F001
:10497000BBFF7CBD10B5042801D9422010BD03F057
:10498000CBFF10BDFFB583B003980C9D1E461446A7
:104990000F46002804D0012802D0422007B0F0BD05
:1049A000002F01D0012FF8D1E81F0A28F5D20D9869
:1049B0001028F2D8A842F0D30E98002801D0012880
:1049C000EBD114490F988842E7D81098002801D0FD
:1049D0000128E2D10120C046012804D020463043FE
:1049E00005D01120DAE7022CD7D8012ED5D8684699
:1049F0000399017047708472C67285700D99C170F9
:104A00000E9901720F98019068461099417203F057
:104A1000A1FFC3E73F420F0010B5002903D00129D1
:104A200001D0422010BD03F0A9FF10BD044A10B50B
:104A3000914201D9422010BD03F0BEFF10BD00001D
:104A40003F420F0010B5012903D0022901D04220B6
:104A500010BD03F0C9FF10BD7CB5069D079C002862
:104A600005D0860705D1460703D4060701D44220A6
:104A70007CBD002903D0012901D00229F7D100957E
:104A8000019403F0C7FF7CBD10B5022803D00328B2
:104A900001D0422010BD04F0BBF810BD10B5002BB2
:104AA00003D0032B01D0422010BD04F0C7F810BD85
:104AB00010B504F0DBF810BD10B51F2801D9422055
:104AC00010BD04F021F910BD10B5044600F090FEB1
:104AD000082803D0204603F03BFE10BD462010BD41
:104AE00010B504F078F9002010BD704701B50648F4
:104AF00069460268372040010978101881726946BA
:104B00004978C172002008BD6403002010B504F08C
:104B100085F910BD10B504F0C7F910BD10B504F04B
:104B2000C7F910BD10B504F0D3F910BD10B504F0ED
:104B3000E4F910BDF0B585B08C46864600250A9F85
:104B40000C9E0B990D982C46022A04D0032A02D001
:104B5000422005B0F0BD002F00D00C46002E00D042
:104B6000054661467046009702960395019404F04D
:104B7000DDF9EEE708B500226B461A700346FA220B
:104B8000684604F0F7F908BD00B595B00B4601285A
:104B900004D0002802D0422015B000BD01466A466C
:104BA000184604F031FAF7E738B5049C022801D919
:104BB000422038BD009404F089FA38BD7CB5079DC9
:104BC000069C012807D8022B05D8102C03D80129F0
:104BD00003D0002901D042207CBD0195009404F04F
:104BE00097FA7CBD10B5002803D0012801D04220DF
:104BF00010BD04F0E1FA10BD10B504F017FB10BDB4
:104C000070B586B014461D460A4603466946881CA0
:104C10000A9E04F0D5FB002804D1012C04D0022CFC
:104C200002D0422006B070BD23462A46694630466F
:104C300004F0DAFBF6E7F0B587B0064614460D46F9
:104C400002A8811E0D9F0C9A04F0BAFB002807D120
:104C500068460680458084806946384604F074FCC6
:104C600007B0F0BDF0B587B01C460B46054600A95D
:104C7000023101A80C9F0D9E04F0A2FB00280ED16A
:104C80006846058084828775C6750E9901760F99EE
:104C90004176109981766946119804F001FD07B0BC
:104CA000F0BDF0B58BB09C460C46054613466246F7
:104CB00001A806A9139F179E04F082FB002816D1B5
:104CC0001298079068460580448008A807701499D8
:104CD0004170159981701699C170067168461199D5
:104CE00081821099C1826946189804F077FE0BB052
:104CF000F0BD38B56D46049C2A806B8023466A4619
:104D000004F01CFF38BD10B504F04CFF10BD10B509
:104D100004F090FF10BD10B504F0E2FF10BD704725
:104D200001B50548054B006804226946C018FFF725
:104D300085F8002008BD000064030020EC06000098
:104D400010B505F001F810BD10B505F025F810BD3F
:104D5000FEB56C46099E089D20806180A280E3809C
:104D600025813146684605F020F8FEBD70B586B055
:104D70000D46144606466946881C0A9A04F020FB34
:104D8000002805D16B4622462946304605F01CF81E
:104D900006B070BD70B586B00D461446064669462D
:104DA000881C0A9A04F00CFB002805D16B462246A9
:104DB0002946304605F020F806B070BD38B56D467E
:104DC000049C2A806B8023466A4605F02DF838BD86
:104DD00010B505F035F810BD10B505F03BF810BD65
:104DE00010B586B00B4604466946881C04F0E8FA04
:104DF000002803D16946204605F062F806B010BDD0
:104E000010B505F0ADF810BD10B505F0DFF810BD18
:104E100070B586B00D46144606466946881C0A9A47
:104E200004F0CEFA002805D16B46224629463046CA
:104E300005F002F906B070BD10B505F053F910BDCC
:104E400010B505F07FF910BD70B586B00D4614465B
:104E500006466946881C0A9A04F0B2FA002805D171
:104E60006B4622462946304605F070F906B070BD03
:104E700010B505F0ABF910BD10B505F0ABF910BDDC
:104E800010B505F0D3F910BD38B56D46049C2A80E5
:104E90006B8023466A4605F0D0F938BD38B56D46BB
:104EA000049C2A806B8023466A4605F0CFF938BD02
:104EB00038B56D46049C2A806B8023466A4605F00F
:104EC00031FA38BD10B505F035FA10BD10B505F052
:104ED00035FA10BD10B505F038FA10BD10B505F063
:104EE00039FA10BD10B505F06DFA10BD10B505F01A
:104EF000A1FA10BDFEB56C46099E089D2080618018
:104F000022716371E5806846029605F0B5FAFEBD30
:104F100010B50022114605F08BFB10BD10B505F051
:104F2000FBFB10BDFEB56C46099E089D208061808C
:104F3000A280E38025813146684605F011FCFEBD64
:104F4000FEB50E46144600216A461F461180002811
:104F50000CD001AA694605F087FC050018D1684607
:104F60000088388068460088864201D342250FE0D9
:104F7000801B80B2A04200D2044668460480089894
:104F8000048001988119684602880998FEF756FF47
:104F90002846FEBDF0B585B084460AA8F0C868462C
:104FA0008581C68103A8019002970094604605F0B0
:104FB000A7FC05B0F0BD10B50A46012105F038FB8D
:104FC00010BD10B505F064FE10BD3EB56C46069DE3
:104FD00020806180A280E3802581684605F09EFEE6
:104FE0003EBD704710B5A94C607C002806D1C42096
:104FF000C000201805F014FF002809D1C620C00009
:10500000201805F00DFF002802D1207C002801D0D7
:10501000002010BD012010BDF8B504000E001700DF
:105020001D00022221006846FEF708FF002138001B
:10503000974ACB00D7186A4612883B889A4211D00B
:10504000491C9D29F4D3042101700F224270817004
:105050000121C170017102226946401DFEF7EEFE7A
:105060000720F2BD02002B00B11E89B2A01C7C6893
:10507000A04769460988874A9142F2D10121834AB3
:105080001174F2BD38B584488449416084490A6886
:105090001202120AC0231B0613430B600025856011
:1050A00007210160002005F0DDFF05F0F3FF06F0A9
:1050B00019F805F0FAFF06F027F80121102006F094
:1050C0003DF9012006F088F806F03FF86F4C042304
:1050D000220014321902C420C000201805F098FEE6
:1050E0000423A320C000221884214900C620C00048
:1050F000201805F08DFE257004206070FF20A07040
:105100000A20E070022020716571A21D002000219C
:1051100006F05AF931BD0A005C494B7C002B00D0E7
:10512000704780B501234B7401005E4806F046F8D5
:1051300001BDF8B5FFB085B00025684605805A4826
:1051400003F0A0F9514CC420C0002618300005F02F
:1051500067FE002814D1207C002811D0802006F0A2
:10516000FBF80028FAD0082006F0F6F80128FAD05B
:10517000BFF34F8F4D484E490860BFF34F8FFEE796
:10518000300005F04DFE00280FD0607C00280CD1C7
:1051900001AA6946300005F00FFF002805D16846D6
:1051A00001880198001DFFF7B6FFC620C000271830
:1051B000380005F035FE002816D0207C002813D1D9
:1051C00043AA6946380005F0E3FEFF2302AA6846B9
:1051D000018843A8FFF720FF0122010002A800F088
:1051E0001BF8380005F027FE207801280BD1621C3F
:1051F0000D21300005F050FE002804D12570A21DBD
:10520000002106F0E1F87FB006B0F0BD80B50200E5
:10521000284805F041FE01BD70B514001B4D020089
:10522000C420C000281805F037FE002810D0402CFC
:105230000ED201262E70A81D06F0D6F8AA1DA64093
:105240003400F51704430D432000290006F0BCF894
:1052500070BD80B5FFF7E0FF01BD1CB5164C200006
:1052600005F0B6FE200005F0DBFD00280CD001AAF9
:105270006946200005F0A0FE002805D16846018897
:105280000198001DFFF747FF13BD000070030020C9
:105290006C840510030C000010E000E0FF23F40014
:1052A00020ED00E01C0000A0FD7F00000400FA05D6
:1052B0000CED00E0A00900209009002070B50D461B
:1052C0000B490024884204D8032106F0A3F80828DB
:1052D00001D302240AE00749012209682031C97D6F
:1052E0008240114202D1294606F0D8F8204670BD0E
:1052F000FF0E000064030020F3B52A4E41223168FE
:1053000052018C1881B0032106F084F8054606F09E
:1053100017F9002805D0CF21095D082D04D30220FC
:10532000FEBDCE21095DF8E7082901D20C20FEBDA3
:1053300009213368090259180A6B58216943511829
:1053400072B64E790A69B607D7073E4307D0D00731
:1053500024D002982C31016062B60020FEBD80335B
:105360005A8C4E6B104B336012044B6B30325A60C8
:105370004A7901231A434A710A6902231A430A61CE
:105380007D214902002805D0C034A181E57362B6B1
:105390004520FEBDC0346181A573F8E762B63A20AE
:1053A000FEBD00006403002003060C0BFFB504469D
:1053B00000262C4F83B09C460D46080616D572B6C3
:1053C00001AB6A466146204606F0D4F800280BD0AF
:1053D00068468188009882789208920082700180E5
:1053E0006180012662B615E062B621E001AB6A4633
:1053F0006146204606F0BEF8002819D0680609D498
:1054000068468188009882789208920082700180B4
:10541000618001260098AA00817840238907890FBE
:105420001A40114381700599C170002E0ED115E00C
:105430000020009072B6A8060FD401203968C0027F
:105440000818016808221143016062B672B6386814
:10545000F7224030C1791140C17162B6009807B09F
:10546000F0BD0000640300200A46400608D5D0784D
:105470003A280AD2111D054B80001B5810461847C8
:10548000907880088000801C8870704748DD051087
:10549000F8B50626324840250560324800270780C7
:1054A000A9050920C00641602F4A9160016801608A
:1054B0002E48032104694269601E08433946401C96
:1054C000FEF7C2FC0120C046C1B2204606F088F8B3
:1054D000C046C04606F0B6F9FEF72FFF2449172054
:1054E0008881244C2068421901465770FA2088624E
:1054F000282010700120C046012805D12068102204
:1055000040300178114301700120C046012805D1C7
:1055100020688022403001781143017020680146E4
:1055200040300278324302700020C043086606F023
:10553000DDF906F095FA06F0C5FA20680121203061
:10554000017707214177012003F076F806F0FCFA95
:1055500006F056FB02488038056002210160F8BD64
:1055600080E100E0C000002040000048C40B0020A3
:10557000000010486403002010B504480C46807AEF
:1055800006F0A0FB2070002010BD000000010020EC
:1055900070B4103A03D378C9103A78C0FBD25307DD
:1055A00001D318C918C001D508C908C0D20704D34F
:1055B0000B880380891C801C002A01D50B7803709E
:1055C00070BC70478B0701D18307E1D0124205D030
:1055D0000B78491C0370401C521EF9D1704770476C
:1055E0001206130A1A43130C1A4300BF094205D0CE
:1055F000830707D00270401C491EF9D17047000094
:105600000022FFE71300103906D330B41400150050
:1056100010393CC0FCD230BC490700D30CC000D5C7
:1056200004C0890002D30280801C002900D50270CA
:1056300070477047A446521E08D303780C78401C6C
:10564000491CA342F7D0181B6446704700206446EB
:105650007047704710B50A4604460321104605F00E
:10566000D9FE08280CD207490922096812028918B4
:10567000096B582250430818807B2070002010BD11
:10568000122010BD64030020F446002804D44942CF
:1056900000F013F8404260474042002905D45FD033
:1056A00000F00BF8404249426047494200F005F8DB
:1056B0004942604703460B43E6D40022030A8B426B
:1056C0000BD203098B4219D243088B422ED2411AC6
:1056D00000D20146524110467047FF2209023FD0D6
:1056E00012068B4205D3121209028B4201D3121209
:1056F000090203098B4219D300E0090AC3098B424E
:1057000001D3CB01C01A524183098B4201D38B01D3
:10571000C01A524143098B4201D34B01C01A524176
:1057200003098B4201D30B01C01A5241C3088B42BB
:1057300001D3CB00C01A524183088B4201D38B00A6
:10574000C01A524143088B4201D34B00C01A524148
:10575000884200D3401A5241CFD2014610467047CA
:1057600008B5C046C04608BD70B5044601210020FA
:105770006054491CC9B20829FAD30120C04645012A
:1057800009350120C046800105430120C046C00103
:10579000054325700120C046012803D1E078082187
:1057A0000843E07070BD704770B510480924026866
:1057B0007B20000111180B7D2402082000211519FF
:1057C000A032127B0EE058244C432E6BA41C345D97
:1057D0006407640F032C02D1DC0700D008465B0885
:1057E000491CC9B28A42EED870BD00006403002093
:1057F00070B51048092402687B2000011018037D51
:105800002402082000211419A032157B0EE0DA07CB
:1058100009D058224A43266B921CB25C5207520FA1
:10582000012A00D108465B08491CC9B28D42EED856
:1058300070BD000064030020F8B5514F06464121B9
:10584000386849014518FFF7D3FF082812D1FFF740
:10585000ABFF082803D02320405D02280AD0386817
:1058600034462030807D093400070028307903DB7E
:10587000032803D00C20F8BD012804D0204600F0F6
:1058800005F9002806D0327AF0790023214606F087
:105890002BFA0BE00023F0791A46194606F024FA99
:1058A00011223968FF209201891888752C468034AE
:1058B000216A288F48803079012821D03088000261
:1058C000A06070880002E0600020C0432082307930
:1058D00002281CD003281CD004281CD001281AD070
:1058E000052800D3FF20287628462030B17941735F
:1058F00071790346817327200022CE070FD011E073
:1059000003204002A060E060FF205630DEE7062062
:10591000E9E70220E7E701200021B171E3E7490848
:10592000401CC0B2521CD2B2022AE6D3052902D1D1
:10593000801CC0B20321272801D9C01EC0B2666AEC
:10594000228D3280A66AA28D3280E66AA28C3280D5
:10595000666AAA8E7280A66AAA8E7280AA8EE56A8C
:105960006A80D873032902D0012904D005E0A16A16
:10597000A08C088001E0606A00800020F8BD000073
:105980006403002010B504460348807A06F09AF9B3
:105990002070002010BD00000001002070B51C4ADE
:1059A000412312685B01D418E36B0833A3621F29FB
:1059B00001D9302070BD0022656BE66BAD5CB5543B
:1059C000521CD2B2082AF7D3002205E00578521CF7
:1059D0001D70401CD2B25B1C8A42F7D32C200155AB
:1059E000E06B891D4170FFF703FF217E01290CD078
:1059F00008280AD2616BE06BE16360638034616AFE
:105A00004880A16A4880E16A4880002070BD00009B
:105A100064030020F0B5154A412312685B01D318D6
:105A20001A6C154608321F2901D93020F0BD002418
:105A30009E6B1F6C365D3E55641CE4B2082CF7D398
:105A4000002405E00678641C1670401CE4B2521C69
:105A50008C42F7D3186C891D4170986B9D63186454
:105A60008033186A45800020F0BD000064030020E8
:105A700010B50449044B09680622C918FEF7DEF97F
:105A800010BD000064030020EF0600000246002065
:105A90000146535C002B00D00120491CC9B20629E5
:105AA000F7D37047F0B5814D04464121286849017C
:105AB00085B040180190FFF79BFE09263602002CA6
:105AC0007ED008280DD34220074603907848002452
:105AD000029006F007FA0090082004900098082829
